:1000000004C100002FC100002DC100002BC1000061
:1000100029C1000027C1000025C1000023C1000044
:1000200021C100001FC100001DC100001BC1000054
:1000300019C1000017C1000015C1000013C1000064
:1000400011C100000FC100000DC100000BC1000074
:1000500009C1000007C1000005C1000080C7000001
:1000600001C100000C94AF0A0C94FF0BFBC0000010
:10007000F9C00000F7C00000F5C00000F3C00000A8
:10008000F1C00000EFC00000EDC00000EBC00000B8
:100090000C94EF0A0C943E0CE5C00000CBC50000A8
:1000A000E1C00000DFC00000DDC00000DBC00000D8
:1000B000D9C00000D7C00000D5C00000D3C00000E8
:1000C000D1C00000CFC00000CDC000000C942F0BA9
:1000D0000C947D0CC7C000000C946F0B0C94BC0CEE
:1000E000C1C0000000002100240027002A002D00CC
:1000F0003000330001010000040107010A01000083
:100100002200250028002B002E00310034000201BF
:100110000000050108010B0100002000230026005B
:1001200029002C002F00320000010000030106010D
:10013000090105050505070508080808020202026D
:100140000A0A080804040404010101010101010173
:100150000303030303030303040707070C0C0C0C3E
:100160000C0C0C0C02020202060606060606060627
:100170000B0B0B0B0B0B0B0B0102102020080810B4
:100180002040102040800201020108040201010207
:1001900004081020408080402010080402018004E0
:1001A000020180402010080402010804020101023B
:1001B0000408102040800102040810204080000044
:1001C000090A02080B0C0D070603040100000000D9
:1001D000000000000000000000000000000000001F
:1001E0000000000000000000000011100F000000DF
:1001F00000000000000000000000000000000000FF
:1002000000000000330189052C0E11241FBECFEF22
:10021000D1E2DEBFCDBF00E00CBF12E0A0E0B2E053
:10022000E2E5F1E200E00BBF02C007900D92AE3CA8
:10023000B107D9F71BBE16E0AEECB2E001C01D92CB
:10024000A73AB107E1F712E0CAE0D2E004C0229772
:10025000FE010E94A310C430D107C9F70E94630FAA
:100260000C94A710CDCECF92EF920F938EEC92E02C
:1002700060917A0240917C0220917E02009180027E
:10028000E0908202C0908402D8D30F91EF90CF907B
:100290000895FF920F931F93CF93DF93F090E502A1
:1002A0000091E6028EEC92E06F2D402FFCD18EEC97
:1002B00092E060E072E00E943710C4E1D0E08091EB
:1002C00074020E947F0A892BE1F464EF71E080E000
:1002D00090E08DD68091E60290E02091E5028C9F1F
:1002E000A0018D9F500D9C9F500D11242111215074
:1002F000FA01E20FF11DE951FD4F80818130B1F724
:1003000091C010E0809176020E947F0A892BF9F457
:1003100064EF71E080E090E06AD68091E60290E0C0
:100320002091E5028C9FA0018D9F500D9C9F500D48
:100330001124233110F023E101C02F5FFA01E20FF5
:10034000F11DE951FD4F8081813099F76FC0809197
:1003500072020E947F0A892B09F564EF71E080E048
:1003600090E045D68091E502482F50E02091E602CA
:10037000233010F023E001C02F5F822F90E08C9F8C
:10038000F0018D9FF00D9C9FF00D1124E40FF51FDF
:10039000E951FD4F8081813059F74CC08091700246
:1003A0000E947F0A892BF1F464EF71E080E090E015
:1003B0001ED68091E502482F50E02091E6022111DF
:1003C0002150822F90E08C9FF0018D9FF00D9C9F1B
:1003D000F00D1124E40FF51FE951FD4F80818130AC
:1003E00071F72CC0113009F06ACF8EEC92E06F2DBE
:1003F000402F59D18EEC92E062E072E00E943710FB
:100400006091E5024091E6028EEC92E04CD18EECD8
:1004100092E060E072E00E943710F090E5020091F7
:10042000E6024DCF2093E50211E06CCF2093E50268
:1004300011E08DCF2093E60211E0B0CF2093E602C9
:10044000D4CF1F938EEC92E061E040E02CD18EEC93
:1004500092E064E072E00E94371011E08EEC92E0CE
:1004600061E0412F20D18EEC92E068E172E00E94C1
:1004700037101F5F143091F78CE08093E5021092E3
:10048000E602E7EEF2E01082118212821382749685
:1004900084E0E737F807B9F781E08093E7028093BB
:1004A000EB028093EF028093F3028093FB02809330
:1004B000FF02809303038093070380930B038093D1
:1004C0000F03809313038093170380931B03809380
:1004D0001F03809323038093270380932B03809330
:1004E0002F0380933303D5DE1F910895EF92FF927F
:1004F0000F931F930EEC12E0C80161E040E0D3D0EF
:10050000C8016CE272E00E943710C80160E041E06F
:10051000CAD0C8016FE372E00E943710C8016AE0D8
:1005200041E0C1D0C80167E472E00E943710C80101
:1005300067E042E0B8D0C80162E572E00E9437107F
:10054000C80160E04AE050E00E9426108DE5E82EE8
:1005500082E0F82EC801B7010E943710C80162E09E
:100560004AE050E00E942610C80167E043E09BD0BB
:10057000C8016FE572E00E943710C80160E04AE0F0
:1005800050E00E942610C801B7010E943710C80130
:1005900060E04AE050E00E942610C80160E043E0BD
:1005A00082D0C8016AE672E00E943710C80164E197
:1005B0004AE050E00E94261064E670E080E090E09F
:1005C00016D5C80198D01F910F91FF90EF90089514
:1005D0008DDF37DF68E873E180E090E008C5809147
:1005E0006E0261E0A7D68091700262E0A3D680918E
:1005F000720262E09FD68091740262E09BD6809185
:10060000760262E097D68091780262E093D680917C
:100610007A0261E08FD680917C0261E08BD6809176
:10062000840261E087D68091820261E083D6809166
:10063000800261E07FD680917E0261E07BD68EEC05
:1006400092E064E144E020E05BD08FE196E040E896
:1006500055E260E070E00C94FB0C08950895FC01F5
:10066000138212828AE892E0918380830895FC01CC
:10067000A081B18118962D913C9119976FEFF901E6
:1006800019950895DC01ED91FC910284F385E02D2C
:1006900040E019950895FC016581862F846085836B
:1006A0006C60CF01EFCFDC0117969C91179749172B
:1006B00010F0492F415018968C911897803139F4D9
:1006C000943029F4E42FF0E0EA56FD4F04C0E42F03
:1006D000F0E0E656FD4F8081680F6068CD01D2CF13
:1006E000DC01ED91FC910284F385E02D41E0199548
:1006F00081E090E0089561E0C5DF80ED97E0D0C42F
:10070000CF93DF93EC01423018F08C8188608C83AA
:100710004F836887222329F0413019F48C8184604B
:100720008C8364E670E080E090E061D46C8164FDCD
:100730002EC0E881F9810284F385E02DCE0163E0CB
:1007400042E0199584E991E1ABD4E881F981028412
:10075000F385E02DCE0163E042E0199584E991E153
:100760009FD4E881F9810284F385E02DCE0163E016
:1007700042E0199586E990E093D4E881F9810284FA
:10078000F385E02DCE0162E042E0199511C0606270
:10079000CE0178DF84E991E183D46C816062CE017F
:1007A00071DF86E990E07CD46C816062CE016ADF03
:1007B0006C816062CE0166DF84E08D83CE016BDFE9
:1007C000CE0199DF82E08E83CE0166E05BDFCE0151
:1007D0004EDFDF91CF9108950F931F938C01FC01A1
:1007E000858561E05AD6F801858560E056D61F916F
:1007F0000F910895BF92CF92DF92EF92FF920F93E5
:100800001F93CF93DF93D82EC92EB42E282F392FC4
:10081000C9018C01C0E0D0E0E62EFF240CC0B70176
:100820000C2E02C0759567950A94E2F76170F80185
:10083000858533D621960F5F1F4FCB1580F38D2D05
:100840009C2DCADFDF91CF911F910F91FF90EF9008
:10085000DF90CF90BF9008950F931F93CF93DF93B6
:10086000EC01162F042F60E0413009F461E08B8524
:1008700014D68C858F3F11F060E00FD6023089F0DE
:100880008C8184FF04C0CE01612F48E00DC0612F30
:1008900070E084E0759567958A95E1F7CE0144E0B4
:1008A000A9DFCE01612F44E0A5DFDF91CF911F9139
:1008B0000F9108956F927F928F92AF92CF92EF92A5
:1008C0000F931F93DF93CF93CDB7DEB73C01162F65
:1008D0008E2DF301438724870587E686C786A08A85
:1008E000818A9E85928B9F85938B9889948B998919
:1008F000958B61E01FD5F301878561E01BD5F3017E
:10090000808961E017D5F301818961E013D5112356
:1009100081F4F301828961E00DD5F301838961E0FF
:1009200009D5F301848961E005D5F301858961E08A
:1009300001D5F301838561E0FDD4F30184858F3F08
:1009400011F061E0F7D4F301858561E0F3D4112360
:1009500019F0F301148203C080E1F3018483F301F1
:10096000838560E09AD5F301858560E096D5F30133
:1009700084858F3F11F060E090D58FEFF301868B77
:1009800012861186CF91DF911F910F91EF90CF903A
:10099000AF908F907F906F900895DF92EF92FF92CB
:1009A0000F931F938C01D62E7A01862F61E0C2D45B
:1009B000D8015696DC9256971A96FC92EE921997A9
:1009C000ED91FC910084F185E02DC80160E019955E
:1009D0001F910F91FF90EF90DF900895DC01362F6B
:1009E00056962C9156972F3F39F1E22FF0E0E254C2
:1009F000FE4FE491EE2379F019968D919C911A9710
:100A0000892B19F4822F70E005C06FEF70E0631B33
:100A10007109822FB1C319968D919C911A97662303
:100A200019F0892B31F402C0019719F4822F61E08B
:100A300034C5822F60E031C508956F927F928F9206
:100A4000AF92BF92CF92DF92EF92FF920F931F93DC
:100A50003C01162FF42ED22EB02EAE2C8C2CFFDDA6
:100A600082EA92E0D3018D939C9300D00F92EDB770
:100A7000FEB73196ADB7BEB711961C9211821282A5
:100A80001382C30161E0412F2FEF0F2DED2CCB2CF2
:100A900011DF0F900F900F900F901F910F91FF900B
:100AA000EF90DF90CF90BF90AF908F907F906F903E
:100AB00008952091580330E080915703281B310995
:100AC000C90108954091570380915803481718F0C1
:100AD0002FEF3FEF0AC0E42FF0E0E95CFC4F80818C
:100AE000282F30E04F5F40935703C9010895E091EC
:100AF000570380915803E81718F0EFEFFFEF06C097
:100B0000F0E0E95CFC4F8081E82FF0E0CF01089530
:100B1000089510927F0310927E0388EE93E0A0E088
:100B2000B0E08093800390938103A0938203B093FD
:100B3000830382EB92E090937D0380937C0308957E
:100B4000CF92DF92EF92FF920F931F93CF93DF9399
:100B50007C016B018A0180917B038823A1F0C0E0B6
:100B6000D0E00DC0D701ED91FC91D601AC0FBD1FB7
:100B70000190F081E02DC7016C9119952196C01765
:100B8000D10780F303C0CB01642F39D0C801DF91B6
:100B9000CF911F910F91FF90EF90DF90CF9008952C
:100BA000DF93CF930F92CDB7DEB7FC0169838091BD
:100BB0007B038823C9F080917A03803238F081E08A
:100BC00090E09383828320E030E014C08091790329
:100BD000E82FF0E0E75AFC4F998190838F5F809374
:100BE000790380937A0304C0CE01019661E007D0B7
:100BF00021E030E0C9010F90CF91DF910895482F97
:100C0000613210F081E0089580918803843011F002
:100C100082E008956093D303A2EBB3E0842F9C019C
:100C2000F90102C081918D938E2F841B8617D0F31A
:100C300080E008951F920F920FB60F920BB60F929D
:100C400011242F933F934F935F936F937F938F93D1
:100C50009F93AF93BF93EF93FF938091B90090E080
:100C6000887F90708036910509F4F2C08136910535
:100C7000CCF58832910509F47BC089329105B4F432
:100C80008031910509F46FC0813191053CF40097E2
:100C900009F447C1089709F04FC165C08831910533
:100CA00009F466C0809709F047C182C0803491057D
:100CB00009F4A4C08134910544F48033910509F40A
:100CC00082C0C89709F038C189C08035910509F400
:100CD00089C08835910509F496C08834910509F0DA
:100CE0002BC1AEC08839910509F413C1893991052A
:100CF000ECF48837910509F4ABC0893791054CF4C1
:100D00008836910509F4A4C08037910509F014C113
:100D10009FC08838910509F4FCC08039910509F419
:100D20009DC08038910509F007C198C0803B9105AE
:100D300009F4C6C0813B91054CF4803A910509F451
:100D40009FC0883A910509F0F7C0BAC0803C910570
:100D500009F4E3C0883C910509F4DFC0883B9105A4
:100D600009F0EAC0C2C0809189038093BB00CFC064
:100D70009091B0038091B103981768F49091B003FB
:100D8000E92FF0E0E057FC4F80818093BB009F5F2C
:100D90009093B003BCC080918A03882309F44BC0B0
:100DA00085ED8093BC008091BC0084FDFCCFC2C067
:100DB00080E28093F50385ED8093BC008091BC00B8
:100DC00084FDFCCFB7C080E38093F50385ED80936D
:100DD000BC008091BC0084FDFCCFACC088E3809354
:100DE000F5039BC08091B0039091BB00E82FF0E029
:100DF000E057FC4F90838F5F8093B0039091B003D6
:100E00008091B10382C08091B0039091BB00E82F24
:100E1000F0E0E057FC4F90838F5F8093B0038091A8
:100E20008A03882341F085ED8093BC008091BC004B
:100E300084FDFCCF7FC081E080938B0384EA6EC089
:100E400085ED8093BC008091BC0084FDFCCF72C016
:100E500083E0809388031092F40359C08091F403D7
:100E6000803208F056C08091F4039091BB00E82FC7
:100E7000F0E0EC52FC4F90838F5F8093F40347C007
:100E80008091F403803230F4E091F403F0E0EC520E
:100E9000FC4F108285ED8093BC008091BC0084FDE6
:100EA000FCCF109288036091F403E0918E03F091DF
:100EB0008F0384ED93E070E019951092F4032DC038
:100EC00084E0809388031092D2031092D303E091C0
:100ED0008C03F0918D0319958091D303882329F415
:100EE00081E08093D3031092B2039091D203E92F53
:100EF000F0E0EE54FC4F80818093BB009F5F9093A5
:100F0000D2039091D2038091D303981710F485EC0B
:100F100001C085E88093BC000FC085EC8093BC00C5
:100F200009C01092F50385ED8093BC008091BC0050
:100F300084FDFCCF10928803FF91EF91BF91AF9198
:100F40009F918F917F916F915F914F913F912F91E1
:100F50000F900BBE0F900FBE0F901F9018951F9211
:100F60000F920FB60F9211242F933F938F939F935D
:100F7000AF93BF938091FA039091FB03A091FC0380
:100F8000B091FD033091FE030196A11DB11D232FE9
:100F90002D5F2D3720F02D570196A11DB11D2093F7
:100FA000FE038093FA039093FB03A093FC03B0939A
:100FB000FD038091F6039091F703A091F803B0919F
:100FC000F9030196A11DB11D8093F6039093F703D9
:100FD000A093F803B093F903BF91AF919F918F91C4
:100FE0003F912F910F900FBE0F901F9018959B016E
:100FF000AC017FB7F8948091F6039091F703A0912C
:10100000F803B091F90366B5A89B05C06F3F19F0CE
:101010000196A11DB11D7FBFBA2FA92F982F882738
:10102000860F911DA11DB11D62E0880F991FAA1F97
:10103000BB1F6A95D1F7BC012DC0FFB7F894809112
:10104000F6039091F703A091F803B091F903E6B588
:10105000A89B05C0EF3F19F00196A11DB11DFFBF70
:10106000BA2FA92F982F88278E0F911DA11DB11D72
:10107000E2E0880F991FAA1FBB1FEA95D1F7861BD4
:10108000970B885E9340C8F221503040404050405A
:1010900068517C4F211531054105510571F60895C0
:1010A000019739F0880F991F880F991F02970197B0
:1010B000F1F70895789484B5826084BD84B5816029
:1010C00084BD85B5826085BD85B5816085BDEEE650
:1010D000F0E0808181608083E1E8F0E0108280812F
:1010E00082608083808181608083E0E8F0E080819D
:1010F00081608083E1EBF0E0808184608083E0EBBD
:10110000F0E0808181608083E1E9F0E080818260AD
:101110008083808181608083E0E9F0E0808181606C
:101120008083E1EAF0E08081826080838081816059
:101130008083E0EAF0E0808181608083E1E2F1E099
:10114000808182608083808181608083E0E2F1E041
:10115000808181608083EAE7F0E080818460808321
:1011600080818260808380818160808380818068CB
:1011700080831092C10008951F93CF93DF93182F9F
:10118000EB0161E0D7D0209709F4CAC0CF3FD10569
:1011900009F4C9C0E12FF0E0E254FE4F8491893098
:1011A00009F466C08A30B0F48430F1F1853040F43F
:1011B000823059F1833070F5813009F0AEC020C023
:1011C000873009F443C0883008F048C0863009F001
:1011D000A4C034C08D3009F478C08E3038F48B3020
:1011E00009F45AC08C3008F066C04CC0803109F454
:1011F00080C0813109F487C08F3009F08EC06FC084
:1012000084B5806884BDC7BD91C084B5806284BD4B
:10121000C8BD8CC080918000806880938000D0938E
:101220008900C093880082C0809180008062809392
:101230008000D0938B00C0938A0078C08091B0006A
:1012400080688093B000C093B30070C08091B000FC
:1012500080628093B000C093B40068C08091900019
:10126000806880939000D0939900C09398005EC0EE
:1012700080919000806280939000D0939B00C093F7
:101280009A0054C080919000886080939000D09321
:101290009D00C0939C004AC08091A000806880930C
:1012A000A0008091A0008F7B8093A000D093A90024
:1012B000C093A8003BC08091A00080628093A000F2
:1012C000D093AB00C093AA0031C08091A000886089
:1012D0008093A000D093AD00C093AC0027C0809154
:1012E0002001806880932001D0932901C0932801B8
:1012F0001DC080912001806280932001D0932B013A
:10130000C0932A0113C0809120018860809320013E
:10131000D0932D01C0932C0109C0C038D1051CF415
:10132000812F60E002C0812F61E0B7D0DF91CF91C3
:101330001F910895CF93DF93482F50E0CA0188583A
:101340009E4FFC0134914E5C5E4FFA0184918823DC
:1013500069F190E0880F991FFC01EC51FF4FA591B6
:10136000B491FC01E250FF4FC591D491662351F432
:101370002FB7F8948C91932F909589238C93888123
:1013800089230BC0623061F42FB7F8948C91932FAE
:10139000909589238C938881832B88832FBF06C0E7
:1013A0009FB7F8948C91832B8C939FBFDF91CF9143
:1013B0000895893009F449C08A30A0F4843051F18D
:1013C000853040F4823079F1833000F5813009F0C6
:1013D00063C026C0873079F1883098F5863009F0EF
:1013E0005BC025C08D3009F442C08E3028F48B30AC
:1013F000B1F18C30C0F52DC0803109F442C081318B
:1014000009F445C08F3009F047C037C08091800093
:101410008F7703C0809180008F7D80938000089536
:1014200084B58F7702C084B58F7D84BD0895809187
:10143000B0008F7703C08091B0008F7D8093B000A3
:101440000895809190008F7707C0809190008F7DE4
:1014500003C080919000877F8093900008958091D1
:10146000A0008F7707C08091A0008F7D03C080917E
:10147000A000877F8093A0000895809120018F773E
:1014800003C0809120018F7D809320010895809179
:101490002001877F809320010895FF920F931F936F
:1014A000F62E482F50E0CA0182549E4FFC01249131
:1014B000CA0188589E4FFC0114914E5C5E4FFA01A0
:1014C00004910023C1F0222311F0822F72DFE02F5C
:1014D000F0E0EE0FFF1FE250FF4FA591B4919FB7D0
:1014E000F894FF2021F48C911095812302C08C91F7
:1014F000812B8C939FBF1F910F91FF9008950F93A5
:101500001F93482F50E0CA0182549E4FFC01249142
:10151000CA0188589E4FFC0104914E5C5E4FFA014F
:101520001491112319F420E030E014C0222311F0AB
:10153000822F3FDF812F90E0880F991F885E9E4F9A
:10154000FC01A591B4918C9120E030E0802311F052
:1015500021E030E0C9011F910F91089508951F9275
:101560000F920FB60F920BB60F9211242F933F9349
:101570004F938F939F93EF93FF938091C00082FDD1
:101580001DC04091C60020913F04309140042F5F60
:101590003F4F2F733070809141049091420428177F
:1015A000390771F0E0913F04F0914004E150FC4FA5
:1015B00040833093400420933F0402C08091C600D2
:1015C000FF91EF919F918F914F913F912F910F90AC
:1015D0000BBE0F900FBE0F901F90189508951F928D
:1015E0000F920FB60F920BB60F9211242F933F93C9
:1015F0004F938F939F93EF93FF938091C80082FD49
:101600001DC04091CE002091C7043091C8042F5FC7
:101610003F4F2F7330708091C9049091CA042817EE
:10162000390771F0E091C704F091C804E957FB4F06
:1016300040833093C8042093C70402C08091CE0039
:10164000FF91EF919F918F914F913F912F910F902B
:101650000BBE0F900FBE0F901F90189508951F920C
:101660000F920FB60F920BB60F9211242F933F9348
:101670004F938F939F93EF93FF938091D00082FDC0
:101680001DC04091D60020914F05309150052F5F2D
:101690003F4F2F733070809151059091520528175C
:1016A000390771F0E0914F05F0915005E15FFA4F75
:1016B00040833093500520934F0502C08091D6009F
:1016C000FF91EF919F918F914F913F912F910F90AB
:1016D0000BBE0F900FBE0F901F90189508951F928C
:1016E0000F920FB60F920BB60F9211242F933F93C8
:1016F0004F938F939F93EF93FF938091300182FDDF
:101700001DC0409136012091D7053091D8052F5F3B
:101710003F4F2F7330708091D9059091DA052817CB
:10172000390771F0E091D705F091D805E956FA4FE5
:1017300040833093D8052093D70502C080913601AD
:10174000FF91EF919F918F914F913F912F910F902A
:101750000BBE0F900FBE0F901F901895E0912B06B7
:10176000F0912C06E05CFF4F8191919120813181B5
:10177000805C9F4F821B930B60E470E099D4892BAF
:1017800009F0ECDEE0914D06F0914E06E05CFF4F73
:101790008191919120813181805C9F4F821B930BBD
:1017A00060E470E085D4892B09F018DFE0916F06C2
:1017B000F0917006E05CFF4F819191912081318121
:1017C000805C9F4F821B930B60E470E071D4892B87
:1017D00009F044DFE0919106F0919206E05CFF4F42
:1017E0008191919120813181805C9F4F821B930B6D
:1017F00060E470E05DD4892B09F070CF08951F92EA
:101800000F920FB60F920BB60F9211242F933F93A6
:101810008F939F93EF93FF932091830430918404DF
:1018200080918504909186042817390731F48091BE
:10183000C1008F7D8093C10014C0E0918504F091B8
:101840008604ED5BFB4F2081809185049091860496
:1018500001968F73907090938604809385042093F3
:10186000C600FF91EF919F918F913F912F910F9023
:101870000BBE0F900FBE0F901F9018951F920F92E6
:101880000FB60F920BB60F9211242F933F938F93A5
:101890009F93EF93FF9320910B0530910C0580915E
:1018A0000D0590910E052817390731F48091C90074
:1018B0008F7D8093C90014C0E0910D05F0910E0555
:1018C000E553FB4F208180910D0590910E05019607
:1018D0008F73907090930E0580930D052093CE002A
:1018E000FF91EF919F918F913F912F910F900BBEA0
:1018F0000F900FBE0F901F9018951F920F920FB66A
:101900000F920BB60F9211242F933F938F939F93B7
:10191000EF93FF9320919305309194058091950565
:10192000909196052817390731F48091D1008F7D69
:101930008093D10014C0E0919505F0919605ED5A81
:10194000FA4F2081809195059091960501968F73AD
:10195000907090939605809395052093D600FF9103
:10196000EF919F918F913F912F910F900BBE0F9010
:101970000FBE0F901F9018951F920F920FB60F92E7
:101980000BB60F9211242F933F938F939F93EF9356
:10199000FF9320911B0630911C0680911D069091AB
:1019A0001E062817390731F4809131018F7D80930D
:1019B000310114C0E0911D06F0911E06E552FA4F68
:1019C000208180911D0690911E0601968F73907064
:1019D00090931E0680931D0620933601FF91EF9190
:1019E0009F918F913F912F910F900BBE0F900FBE43
:1019F0000F901F901895AF92BF92DF92EF92FF92D7
:101A00000F931F93CF93DF93EC017A018B01DD24B9
:101A1000403081EE580780E0680780E0780711F0D9
:101A2000DD24D39491E0A92EB12CEC89FD89DD2031
:101A300069F0C50108A002C0880F991F0A94E2F757
:101A4000808360E079E08DE390E005C0108260E87B
:101A500074E88EE190E0A80197013DD32150304019
:101A600040405040569547953795279580E1203066
:101A7000380720F0DD2011F0DD24D7CFE889F9897F
:101A80003083EA89FB89208319A2EE89FF8940818E
:101A900021E030E0C9010C8C02C0880F991F0A9424
:101AA000E2F7482B4083EE89FF894081C9010D8C04
:101AB00002C0880F991F0A94E2F7482B4083EE89F1
:101AC000FF894081C9010E8C02C0880F991F0A94BA
:101AD000E2F7482B4083EE89FF8980810F8C02C09A
:101AE000220F331F0A94E2F7209528232083DF91E9
:101AF000CF911F910F91FF90EF90DF90BF90AF902B
:101B00000895DC011C96ED91FC911D97E05CFF4F60
:101B10008191919120813181805C9F4F821B930B39
:101B200060E470E0C5C2DC011C96ED91FC911D974C
:101B3000E05CFF4F20813181E054F040DF01AE5B7B
:101B4000BF4F8D919C9111972817390719F42FEFEA
:101B50003FEF07C08D919C91E80FF91F8081282FDE
:101B600030E0C9010895DC011C96ED91FC911D97B0
:101B7000E05CFF4F20813181E054F040DF01AE5B3B
:101B8000BF4F8D919C9111972817390719F42FEFAA
:101B90003FEF10C08D919C911197E80FF91F2081A4
:101BA0008D919C91119701968F73907011969C93D3
:101BB0008E9330E0C9010895DC0191968C91919744
:101BC000882339F05496ED91FC915597808186FFDA
:101BD000F9CF91961C920895CF93DF93EC01EE8597
:101BE000FF85E05CFF4F20813181E054F0402F5FA2
:101BF0003F4F2F733070DF01AE5BBF4F8D919C91D3
:101C0000119728173907D1F3E05CFF4F808191814C
:101C1000E054F040E80FF91F6083EE85FF85E05C3B
:101C2000FF4F31832083EE89FF89208181E090E09E
:101C30000F8C02C0880F991F0A94E2F7282B20838B
:101C400081E089A3EC89FD8980818064808381E0C3
:101C500090E0DF91CF9108951F9310922206109289
:101C6000210628EE33E040E050E020932306309335
:101C70002406409325065093260662EC72E070938A
:101C8000200660931F068FEF93E090932C068093BD
:101C90002B0683E494E090932E0680932D0685EC2A
:101CA00090E09093300680932F0684EC90E0909320
:101CB00032068093310680EC90E090933406809356
:101CC000330681EC90E0909336068093350682ECE3
:101CD00090E0909338068093370686EC90E09093DE
:101CE0003A068093390614E010933B06B3E0B093B4
:101CF0003C06A7E0A0933D06F5E0F0933E06E1E048
:101D0000E0933F0610924406109243062093450646
:101D10003093460640934706509348067093420618
:101D20006093410687E894E090934E0680934D06B9
:101D30008BEC94E09093500680934F068DEC90E0EE
:101D400090935206809351068CEC90E09093540649
:101D50008093530688EC90E0909356068093550646
:101D600089EC90E090935806809357068AEC90E0B7
:101D700090935A06809359068EEC90E090935C06FF
:101D800080935B0610935D06B0935E06A0935F069A
:101D9000F0936006E0936106109266061092650665
:101DA00020936706309368064093690650936A064D
:101DB00070936406609363068FE095E090937006DD
:101DC00080936F0683E595E0909372068093710689
:101DD00085ED90E0909374068093730684ED90E017
:101DE000909376068093750680ED90E09093780648
:101DF0008093770681ED90E090937A068093790640
:101E000082ED90E090937C0680937B0686ED90E0D7
:101E100090937E0680937D0610937F06B093800694
:101E2000A0938106F0938206E093830610928806C1
:101E3000109287062093890630938A0640938B067A
:101E400050938C06709386066093850687E995E02B
:101E500090939206809391068BED95E09093940673
:101E60008093930685E391E0909396068093950680
:101E700084E391E0909398068093970680E391E045
:101E800090939A068093990681E391E090939C0643
:101E900080939B0682E391E090939E0680939D063B
:101EA00086E391E09093A00680939F061093A1068D
:101EB000B093A206A093A306F093A406E093A50610
:101EC0001F9108950895CF93DF93F4D8FBDF0E940C
:101ED000EF02CEEADBE00E94E8022097E1F33EDC6D
:101EE000FACF0895CF92DF92EF92FF920F931F9354
:101EF000CF93DF937C016B018A01C0E0D0E00FC07B
:101F0000D6016D916D01D701ED91FC910190F081A9
:101F1000E02DC7011995C80FD91F015010400115B8
:101F2000110571F7CE01DF91CF911F910F91FF90B5
:101F3000EF90DF90CF900895CF93DF93EC01611580
:101F4000710519F420E030E00FC0DB010D90002096
:101F5000E9F71197A61BB70BE881F9810280F3819D
:101F6000E02DAD0119959C01C901DF91CF91089534
:101F70004F925F927F928F929F92AF92BF92CF9239
:101F8000DF92EF92FF920F931F93DF93CF93CDB722
:101F9000DEB7A1970FB6F894DEBF0FBECDBF2C0100
:101FA000742ECB01223008F42AE019A231E2C32EAC
:101FB000D12CCC0EDD1E822E9924AA24BB24672DA1
:101FC000752FA501940187D079018A01C801B70155
:101FD000A50194014ED0472D461B0894C108D10895
:101FE0004A3014F4405D01C0495CF6014083E114BD
:101FF000F1040105110521F07E2C5F2DC801DFCF12
:10200000C201B60199DFA1960FB6F894DEBF0FBEEC
:10201000CDBFCF91DF911F910F91FF90EF90DF9097
:10202000CF90BF90AF909F908F907F905F904F9098
:102030000895DC012115310541F4ED91FC910190E9
:10204000F081E02D642F1995089592CFEF92FF92C1
:102050000F931F939A01E62EFF2400E010E0B801D1
:10206000A701E7DF1F910F91FF90EF90089564CFD4
:102070000895629FD001739FF001829FE00DF11DD2
:10208000649FE00DF11D929FF00D839FF00D749FF2
:10209000F00D659FF00D9927729FB00DE11DF91F9E
:1020A000639FB00DE11DF91FBD01CF0111240895FB
:1020B00097FB092E07260AD077FD04D02ED006D034
:1020C00000201AF4709561957F4F0895F6F790956A
:1020D00081959F4F0895A1E21A2EAA1BBB1BFD01FB
:1020E0000DC0AA1FBB1FEE1FFF1FA217B307E407F7
:1020F000F50720F0A21BB30BE40BF50B661F771F4F
:10210000881F991F1A9469F760957095809590952E
:102110009B01AC01BD01CF010895AA1BBB1B51E17E
:1021200007C0AA1FBB1FA617B70710F0A61BB70B47
:10213000881F991F5A95A9F780959095BC01CD01EC
:102140000895EE0FFF1F0590F491E02D1994F89477
:02215000FFCFBF
:102152003E002000426163204E6578204D656D206F
:102162003030302D303030003030302030303020C0
:1021720030303020303030203030300054656368E9
:1021820020496E736964652E636F6D2E6D7800440D
:102192004D582D35313200436F6E74726F6C6C6521
:1021A20072004669726D776172652076002E004872
:1021B20061726477617265207600494420002600CE
:1021C200210022002300240025001E001F001A0007
:1021D2001B001C001D00000000007003720F800332
:1021E2002D032E03710F00401050004014540000C4
:1021F20000007003720F8003CD04EE042C04000073
:102202000000D005A0055905620577058805000084
:0E2212000000EC0D720F810DB30D930DDC0D6D
:00000001FF
