:1000000004C100002FC100002DC100002BC1000061
:1000100029C1000027C1000025C1000023C1000044
:1000200021C100001FC100001DC100001BC1000054
:1000300019C1000017C1000015C1000013C1000064
:1000400011C100000FC100000DC100000BC1000074
:1000500009C1000007C1000005C100000C94E5279C
:1000600001C100000C94DD24FDC000000C947D252E
:10007000F9C00000F7C00000F5C00000F3C00000A8
:10008000F1C00000EFC00000EDC00000EBC00000B8
:10009000E9C00000E7C00000E5C000000C94132395
:1000A000E1C00000DFC00000DDC00000DBC00000D8
:1000B000D9C00000D7C00000D5C00000D3C00000E8
:1000C000D1C00000CFC00000CDC00000CBC00000F8
:1000D000C9C00000C7C00000C5C00000C3C0000008
:1000E000C1C0000000002100240027002A002D00CC
:1000F0003000330001010000040107010A01000083
:100100002200250028002B002E00310034000201BF
:100110000000050108010B0100002000230026005B
:1001200029002C002F00320000010000030106010D
:10013000090105050505070508080808020202026D
:100140000A0A080804040404010101010101010173
:100150000303030303030303040707070C0C0C0C3E
:100160000C0C0C0C02020202060606060606060627
:100170000B0B0B0B0B0B0B0B0102102020080810B4
:100180002040102040800201020108040201010207
:1001900004081020408080402010080402018004E0
:1001A000020180402010080402010804020101023B
:1001B0000408102040800102040810204080000044
:1001C000090A02080B0C0D070603040100000000D9
:1001D000000000000000000000000000000000001F
:1001E0000000000000000000000011100F000000DF
:1001F00000000000000000000000000000000000FF
:10020000000000003A018222F52511241FBECFEF25
:10021000D1E2DEBFCDBF00E00CBF15E0A0E0B2E050
:10022000E0E6F9E500E00BBF02C007900D92A03BAD
:10023000B107D9F71BBE1BE0A0EBB5E001C01D92D2
:10024000AA31B107E1F712E0CAE0D2E004C0229778
:10025000FE010E94AA2CC430D107C9F70E94192BB5
:100260000C94AE2CCDCEDC0101C06D9341505040BA
:10027000E0F70895CF92EF920F938DE09AE06091AE
:100280005D0540915F052091610500916305E09057
:100290006505C09067050E9416220F91EF90CF90E0
:1002A00008953F924F925F926F927F928F929F92AA
:1002B000AF92BF92CF92DF92EF92FF920F931F9374
:1002C00081E18093560555245394B4E04B2EA7E06A
:1002D0003A2EFFE09F2EE2E08E2E75E0772E68E04A
:1002E000662E53E0C52E46E0B42E39E0A32E1EE064
:1002F0000AE02BE0F22E9CE0E92E8DE0D82EBAC168
:100300008091460560E00E94B72A80914E050E94C8
:10031000E92A892B61F45092560560915705709136
:1003200058058091590590915A050E942D2865E045
:1003300070E080E090E00E942D28809150050E949E
:10034000E92A892B61F44092560560915705709116
:1003500058058091590590915A050E942D2865E015
:1003600070E080E090E00E942D28809152050E946C
:10037000E92A892B61F430925605609157057091F6
:1003800058058091590590915A050E942D2865E0E5
:1003900070E080E090E00E942D28809154050E943A
:1003A000E92A892B61F49092560560915705709166
:1003B00058058091590590915A050E942D2865E0B5
:1003C00070E080E090E00E942D288091460561E079
:1003D0000E94B72A8091480560E00E94B72A809168
:1003E0004E050E94E92A892B61F48092560560919E
:1003F0005705709158058091590590915A050E94B2
:100400002D2865E070E080E090E00E942D2880912A
:1004100050050E94E92A892B61F47092560560917B
:100420005705709158058091590590915A050E9481
:100430002D2865E070E080E090E00E942D288091FA
:1004400052050E94E92A892B61F460925605609159
:100450005705709158058091590590915A050E9451
:100460002D2865E070E080E090E00E942D288091CA
:1004700054050E94E92A892B61F410925605609177
:100480005705709158058091590590915A050E9421
:100490002D2865E070E080E090E00E942D2880919A
:1004A000480561E00E94B72A80914A0560E00E94F9
:1004B000B72A80914E050E94E92A892B61F4C092E7
:1004C0005605609157057091580580915905909196
:1004D0005A050E942D2865E070E080E090E00E94BF
:1004E0002D28809150050E94E92A892B61F4B09251
:1004F0005605609157057091580580915905909166
:100500005A050E942D2865E070E080E090E00E948E
:100510002D28809152050E94E92A892B61F4A0922E
:100520005605609157057091580580915905909135
:100530005A050E942D2865E070E080E090E00E945E
:100540002D28809154050E94E92A892B61F410938B
:100550005605609157057091580580915905909105
:100560005A050E942D2865E070E080E090E00E942E
:100570002D2880914A0561E00E94B72A80914C05A0
:1005800060E00E94B72A80914E050E94E92A892BDB
:1005900061F400935605609157057091580580915C
:1005A000590590915A050E942D2865E070E080E081
:1005B00090E00E942D28809150050E94E92A892B05
:1005C00061F4F0925605609157057091580580913D
:1005D000590590915A050E942D2865E070E080E051
:1005E00090E00E942D28809152050E94E92A892BD3
:1005F00061F4E0925605609157057091580580911D
:10060000590590915A050E942D2865E070E080E020
:1006100090E00E942D28809154050E94E92A892BA0
:1006200061F4D092560560915705709158058091FC
:10063000590590915A050E942D2865E070E080E0F0
:1006400090E00E942D2880914C0561E00E94B72A1D
:10065000809144050E94E92A892B61F41093560584
:1006600060915705709158058091590590915A05F0
:100670000E942D2880915605813109F441CE1F91A9
:100680000F91FF90EF90DF90CF90BF90AF909F9031
:100690008F907F906F905F904F903F9008958DE086
:1006A0009AE063E142E00E9435208DE09AE00E94EA
:1006B0001F2080E090E0E091E70AF091E80AE80F5F
:1006C000F91F1082019622E080309207A1F78091F5
:1006D00044050E94E92A0197D1F36CE271E080E0C1
:1006E00090E00E942D28A2EBB5E020E030E0E09100
:1006F000E70AF091E80AE20FF31F8C9180832F5FE5
:100700003F4F129682E02030380789F78DE09AE05B
:100710006DE042E00E9435208DE09AE00C942720A5
:100720000F931F93CF93DF93EC01162F042F8DE0CF
:100730009AE00E9435208DE09AE060E072E00E942D
:100740003E2CCA30D1053CF4612F6E5F8DE09AE0FB
:10075000402F0E943520CE010A978A35910538F442
:10076000612F6F5F8DE09AE0402F0E943520C436E4
:10077000D10534F08DE09AE0612F402F0E943520A2
:100780008DE09AE0BE014AE050E00E942C2CDF91FF
:10079000CF911F910F910895DF92EF92FF920F93E7
:1007A0001F93CF93DF93D82E062F682F61508DE0D3
:1007B0009AE0402F0E9435208DE09AE064E072E0DC
:1007C0000E943E2C80914A0560E00E94B72A8DE08D
:1007D0009AE00E941F20EE24FF241EC08C2F912F30
:1007E0006D2D70E0402F50E09BDF80913A05909195
:1007F0003B050197E091E70AF091E80AE80FF91F3D
:10080000C083E0913A05F0913B05EE0FFF1FE055E4
:10081000FA4FC08311837E01809154050E94E92A1A
:100820000197D9F4809144050E94E92A0197A9F41F
:1008300080915B050E94F22864E070E00E945F2CCA
:10084000172FC62FD72F62E370E080E090E00E9460
:100850002D28EC16FD0601F3C1CF8DE09AE00E9431
:10086000272080914A0561E00E94B72A6CE271E07E
:1008700080E090E00E942D28DF91CF911F910F9191
:10088000FF90EF90DF9008951F9380914C0560E0FA
:100890000E94B72A1FEF809152050E94E92A019712
:1008A00009F046C0809144050E94E92A019709F0A9
:1008B0003FC080913A0590913B050197E091E70A8E
:1008C000F091E80AE80FF91F10836091090A70E0BF
:1008D0006250704040910A0A8FEF90E050E020DFB4
:1008E00064E670E080E090E00E942D2880913A0557
:1008F00090913B050197E091E70AF091E80AE80F33
:10090000F91F10826091090A62508DE09AE04091CF
:100910000A0A0E9435208DE09AE066E072E00E94AB
:100920003E2C64E670E080E090E00E942D28B3CF7A
:1009300080914C0561E00E94B72A6CE271E080E092
:1009400090E00E942D288DE09AE06091090A409184
:100950000A0A0E9435201F910895CF92DF92EF92EC
:10096000FF920F931F938C016DE070E040E050E028
:10097000D7DE7EE0C72ED12CC00ED11EC60161E1AC
:1009800070E040E050E0CCDE60EBE62E65E0F62E55
:10099000F801EE0FFF1FEE0DFF1D8081918161E0D8
:1009A00070E041E050E0BCDEF8013196EE0FFF1F31
:1009B000EE0DFF1D8081918165E070E041E050E027
:1009C000AFDEF8013296EE0FFF1FEE0DFF1D8081A6
:1009D000918169E070E041E050E0A2DEF8013396D9
:1009E000EE0FFF1FEE0DFF1D808191816DE070E025
:1009F00041E050E095DEF8013496EE0FFF1FEE0D5A
:100A0000FF1D8081918161E170E041E050E088DE6E
:100A1000F8013596EE0FFF1FEE0DFF1D80819181CD
:100A200061E070E042E050E07BDEF8013696EE0FC8
:100A3000FF1FEE0DFF1D8081918165E070E042E0B7
:100A400050E06EDEF8013796EE0FFF1FEE0DFF1D32
:100A50008081918169E070E042E050E061DEF80160
:100A60003896EE0FFF1FEE0DFF1D808191816DE026
:100A700070E042E050E054DEF8013996EE0FFF1FBF
:100A8000EE0DFF1D8081918161E170E042E050E058
:100A900047DEF8013A96EE0FFF1FEE0DFF1D808135
:100AA000918161E070E043E050E03ADEF8013B966E
:100AB000EE0FFF1FEE0DFF1D8081918165E070E05C
:100AC00043E050E02DDE045F1F4FF801EE0FFF1FE3
:100AD000EE0DFF1D8081918169E070E043E050E000
:100AE0001FDE0F5F1F4F000F111F0E0D1F1DF8019E
:100AF000808191816DE070E043E050E011DECC0C2C
:100B0000DD1CEC0CFD1CF7018081918161E170E03E
:100B100043E050E005DE1F910F91FF90EF90DF90D2
:100B2000CF900895FF920F931F93CF93DF93F82EEA
:100B30008DE09AE06091090A40910A0A0E943520EE
:100B40008DE09AE06AE072E00E943E2C8DE09AE02F
:100B50000E941F206091090A6E5F6093090A8DE070
:100B60009AE040910A0A0E9435209BDB609156056D
:100B70006A3018F000E010E016C08DE09AE04AE01C
:100B800050E00E94DD2B8DE09AE06091090A4091CF
:100B90000A0A0E94352080915605082F10E0109314
:100BA0000C0A00930B0A809156058E3009F4D8C0C8
:100BB00091E0F91691F48A3009F470C08B3009F491
:100BC00076C08C3009F47AC08D3039F488EC92E02C
:100BD00090930C0A80930B0ADFC063DB809156056B
:100BE0008E3029F410930C0A00930B0AB9C091E0DF
:100BF000F91659F48A3009F451C08B3009F457C002
:100C00008C3009F45BC08D3009F38A3018F0C0E0F5
:100C1000D0E029C06091090A61506093090A8DE013
:100C20009AE040910A0A0E9435208DE09AE0B801CE
:100C30004AE050E00E942C2C8DE09AE0609156052D
:100C40004AE050E00E94DD2B80915605C82FD0E08D
:100C50006091090A6F5F6093090A8DE09AE0409104
:100C60000A0A0E9435201DDB809156058E3089F4DA
:100C7000C801B3E0880F991FBA95E1F7000F111F63
:100C8000800F911FC80FD91FD0930C0AC0930B0A75
:100C900067C091E0F916C1F48A3039F48FEF90E023
:100CA00090930C0A80930B0A5BC08B3029F410924E
:100CB0000C0A10920B0A54C08C3019F484E692E0AE
:100CC00087CF8D3009F482CF8A3008F049C0609117
:100CD000090A62506093090A8DE09AE040910A0A7D
:100CE0000E9435208DE09AE0B8014AE050E00E9471
:100CF0002C2C8DE09AE0BE014AE050E00E942C2CA2
:100D00006091090A6E5F6093090A8DE09AE0409154
:100D10000A0A0E9435208DE09AE0609156054AE06B
:100D200050E00E94DD2B84E690E0089F9001099F2F
:100D3000300D189F300D112480915605280F311D5C
:100D4000CE01F3E0880F991FFA95E1F7CC0FDD1F74
:100D50008C0F9D1F280F391F30930C0A20930B0A0C
:100D60008DE09AE00E9427206091090A70E06250AD
:100D7000704040910A0A80910B0A90910C0A50E051
:100D8000CFDC6091090A64506093090A8DE09AE013
:100D900040910A0A0E9435208DE09AE00E942720A7
:100DA0008DE09AE06091090A40910A0A0E9435207C
:100DB0006CE271E080E090E00E942D28DF91CF91FD
:100DC0001F910F91FF9008958DE09AE00E945D20A1
:100DD000A0EBB5E080E090E01D921D92E091E70A63
:100DE000F091E80AE80FF91F1082019622E08130A5
:100DF000920791F78DE09AE00E945D208DE09AE0E5
:100E000063E041E00E9435208DE09AE06EE072E000
:100E10000E943E2C8DE09AE063E042E00E94352083
:100E20008DE09AE06EE172E00E943E2C8DE09AE047
:100E300063E143E00E9435208DE09AE00E941F208C
:100E400060ED77E080E090E00E942D288DE09AE050
:100E50000C942720CF93DF938DE09AE00E945D20D1
:100E6000C0E0D0E08DE09AE0BE0142E050E00E9498
:100E70002C2C219682E0C130D807A1F78DE09AE0B2
:100E80000E945D208DE09AE00E941F208DE09AE094
:100E900063E040E00E9435208DE09AE068E272E075
:100EA0000E943E2C8DE09AE061E041E00E943520F6
:100EB0008DE09AE068E372E00E943E2C8DE09AE0BB
:100EC00060E043E00E9435208DE09AE06CE472E03F
:100ED0000E943E2C8DE09AE060E04AE050E00E94E3
:100EE000DD2B8DE09AE063E572E00E943E2C8DE000
:100EF0009AE069E04AE050E00E94DD2B8DE09AE044
:100F00006BE043E00E9435208DE09AE065E572E0F9
:100F10000E943E2C8DE09AE060E04AE050E00E94A2
:100F2000DD2B8DE09AE063E572E00E943E2C8DE0BF
:100F30009AE064E04AE050E00E94DD2B8DE09AE008
:100F400062E040E00E943520809144050E94E92A39
:100F50000197D1F36CE271E080E090E00E942D28CF
:100F60008DE09AE00E945D208DE09AE063E041E030
:100F70000E9435208DE09AE06CE572E00E943E2CE4
:100F80008DE09AE060E043E00E9435208DE09AE039
:100F90006BE672E00E943E2C8DE09AE062E041E058
:100FA0000E943520809144050E94E92A0197D1F3DF
:100FB0006CE271E080E090E00E942D288DE09AE0E4
:100FC0000E942720DF91CF91089584EE9AE061E09E
:100FD00072E00E94A824682F8091240A882361F47B
:100FE0006623D1F4809169056FE770E00E9426299D
:100FF00081E08093240A0AC0813041F48091690520
:1010000060E070E00E9426291092240A6CE271E0F0
:1010100080E090E00C942D288091690570E0E6CF87
:101020002F923F924F925F926F927F928F929F92F8
:10103000AF92BF92CF92DF92EF92FF920F931F93E6
:10104000DF93CF93CDB7DEB763970FB6F894DEBFCB
:101050000FBECDBF89837B8B6A8B0091B70910913E
:10106000B8098DE09AE0602F412F0E9435208DE075
:101070009AE060E872E00E943E2C8A899B890D9676
:101080009B838A83EA89FB893896FD83EC838A896E
:101090009B8903969F838E83EA89FB893E96F98715
:1010A000E8878A899B8909969B878A87EA89FB89D1
:1010B0003496FD87EC876AE0262E312C8A899B893D
:1010C000280E391E0B969F878E87EA89FB893C96EE
:1010D000F98BE88B57E0852E912C8A899B89880EA5
:1010E000991E46E0642E712C680E791E35E0432E61
:1010F000512C480E591E6C010894C11CD11C22E0D1
:10110000A22EB12CA80EB91E84E1E82EF12C8091FC
:10111000460560E00E94B72A809154050E94E92AA2
:10112000892B59F4609157057091580580915905A4
:1011300090915A050E942D2848DF8091460561E074
:101140000E94B72A809140050E94E92A892BF9F470
:101150006CE271E080E090E00E942D282091B709B8
:101160008091B80990E08E9DA0018F9D500D9E9DAD
:10117000500D1124222309F424E12150FA01E20F39
:10118000F11DE754F64F80818130A1F724C0809192
:1011900042050E94E92A892B09F56CE271E080E0A2
:1011A00090E00E942D282091B7098091B80990E025
:1011B0008E9DA0018F9D500D9E9D500D11242F5F7F
:1011C000243108F020E0FA01E20FF11DE754F64F58
:1011D00080818130A1F72093B7094EC180913E05EF
:1011E0000E94E92A892B09F56CE271E080E090E029
:1011F0000E942D282091B8098091B709482F50E00E
:101200002F5F243008F020E0822F90E08E9DF001C7
:101210008F9DF00D9E9DF00D1124E40FF51FE754F6
:10122000F64F8081813061F726C080913C050E9495
:10123000E92A892B19F56CE271E080E090E00E94C8
:101240002D282091B8098091B709482F50E022231A
:1012500009F424E02150822F90E08E9DF0018F9DB3
:10126000F00D9E9DF00D1124E40FF51FE754F64F8D
:101270008081813061F72093B809FEC080914405D8
:101280000E94E92A892B09F042CF6CE271E080E0EC
:1012900090E00E942D284091B8096091B709842FF1
:1012A00090E08E9DF0018F9DF00D9E9DF00D11241C
:1012B000E60FF11DE754F64F8081813009F0FAC046
:1012C0008DE09AE00E9435208DE09AE062E872E0BD
:1012D0000E943E2C82E0C8C09091B7099C3031F446
:1012E0008091B809882309F048C01FC0903181F46B
:1012F0008091B809882309F049C08DE09AE061E047
:1013000040E00E9435208DE09AE064E872E0A9C0D8
:10131000943029F48091B8098823F9F406C09830F4
:1013200089F48091B809882301F58DE09AE061E0A5
:1013300040E00E9435208DE09AE064E872E00E946F
:101340003E2C85C0992339F48091B809813039F554
:101350008A899B8977C0943031F48091B8098130B3
:10136000E1F4C6016FC0983031F48091B809813042
:10137000E1F4C50167C09C3039F48091B80981302F
:1013800031F58E819F815EC0903139F48091B8092A
:10139000813031F58C859D8555C0992331F480913C
:1013A000B809823031F5C2014DC0943031F48091DA
:1013B000B809823031F5C30145C0983031F48091CD
:1013C000B809823039F5C4013DC09C3039F48091B0
:1013D000B809823041F58C819D8134C0903139F457
:1013E0008091B809823041F58A859B852BC099236D
:1013F00031F48091B809833051F5C10123C0943094
:1014000039F48091B809833011F58E859F851AC013
:10141000983039F48091B8098330C9F48889998962
:1014200011C09C3039F48091B809833081F48A81ED
:101430009B8108C0903159F48091B809833039F408
:101440008885998561E070E040E050E069D98DE0E1
:101450009AE060E140E00E9435208DE09AE068E883
:1014600072E00E943E2C81E00091B7091091B8090A
:10147000823009F04CCE1FC08DE09AE0602F412FE2
:101480000E9435208DE09AE06AE872E00E943E2CCE
:101490008DE09AE06091B7094091B8090E9435202B
:1014A0008DE09AE060E872E00E943E2C99819130D4
:1014B000D1F612CFFFCF63960FB6F894DEBF0FBE02
:1014C000CDBFCF91DF911F910F91FF90EF90DF90F3
:1014D000CF90BF90AF909F908F907F906F905F90D4
:1014E0004F903F902F9008951F93182F8DE09AE012
:1014F0000E945D2068EC70E080E090E00E942D2862
:101500008DE09AE066E040E00E9435208DE09AE0B0
:101510006CE872E00E943E2C8DE09AE061E041E0D0
:101520000E9435208DE09AE069E972E00E943E2C2D
:101530008DE09AE061E042E00E9435208DE09AE083
:101540006DEA72E00E943E2C8DE09AE061E043E09B
:101550000E9435208DE09AE061EC72E00E943E2C02
:10156000123079F01330C1F0113011F58DE09AE0AE
:1015700061E040E00E9435208DE09AE064ED72E089
:1015800015C08DE09AE061E040E00E9435208DE0DA
:101590009AE069ED72E00AC08DE09AE060E040E018
:1015A0000E9435208DE09AE06EED72E00E943E2CA4
:1015B0008DE09AE063E140E00E9435206091B60939
:1015C000662339F48DE09AE068E872E00E943E2CD0
:1015D00006C08DE09AE04AE050E00E94DD2B1092B8
:1015E000B70981E08093B809E9EBF9E0DF0198964B
:1015F0001082148A1C9254961C925497319611961C
:1016000089E0ED3CF807A1F781E08083848B80A717
:101610008783838F87A7868782A386AB80E060E07D
:1016200070E0FEDC8091B709882349F48091B80905
:10163000813001F18230F1F0833031F51BC0873009
:1016400071F48091B809813011F484E013C08230C4
:1016500011F485E00FC08330B9F486E00BC08E3002
:1016600099F48091B809813011F487E003C0823089
:1016700021F488E08093B60907C020E030E0833091
:1016800029F421E030E002C020E030E0C9011F91E0
:101690000895EF92FF920F931F93CF93DF9382E011
:1016A00023DF019719F421E030E099C08DE09AE042
:1016B0000E945D2072EBE72E75E0F72E00E010E04F
:1016C000C1E0D0E08091B6098430E1F0853038F493
:1016D000823081F0833090F4813069F509C0863022
:1016E000C9F0863098F08730C9F0883021F51AC0EB
:1016F0008E0121C08E0100501E4F1DC08E01005072
:101700001C4F19C08E0100501A4F15C08E01005099
:10171000184F11C08E010050164F0DC08E010050A1
:10172000144F09C08E010050124F8FE00E3F180772
:1017300014F00DEF1FE084EE9AE0B8010E94A82497
:10174000F701808311822197E091E70AF091E80A7E
:10175000EC0FFD1F8083229682E090E0E80EF91ED8
:1017600092E0C130D90709F0ADCF8DE09AE00E9438
:101770005D208DE09AE063E041E00E9435208DE03D
:101780009AE064EE72E00E943E2C8DE09AE063E005
:1017900042E00E9435208DE09AE063EF72E00E9403
:1017A0003E2C8DE09AE06091B6094AE050E00E943C
:1017B000DD2B8DE09AE063E143E00E9435208DE06F
:1017C0009AE00E941F2060ED77E080E090E00E94A8
:1017D0002D288DE09AE00E94272020E030E0C9010A
:1017E000DF91CF911F910F91FF90EF90089560913D
:1017F0006F057091700584EE9AE00E94A824682F0E
:10180000863908F466E980916B0570E00C9426290E
:101810001F9360916D0570916E0584EE9AE00E94B1
:10182000A824182F80916905612F70E00E94262955
:10183000112319F41092240A03C081E08093240A32
:101840001F910895EF92FF920F931F93CF93DF9311
:1018500083E04ADE019719F421E030E0C5C08DE055
:101860009AE00E945D208DE09AE061E041E00E94F4
:1018700035208DE09AE06AEF72E00E943E2C8DE008
:101880009AE061E042E00E9435208DE09AE063EF4B
:1018900072E00E943E2C8DE09AE067E042E00E94F8
:1018A00035208DE09AE06091B6094AE050E00E9450
:1018B000DD2B8DE09AE063E143E00E9435208DE06E
:1018C0009AE00E941F20E0EBEE2EE5E0FE2E00E005
:1018D00010E0C0E0D0E0F70111821082E091E70A49
:1018E000F091E80AEC0FFD1F10828091B609843058
:1018F000E1F0853038F4823081F0833090F481302B
:1019000069F509C08630C9F0863098F08730C9F093
:10191000883021F51AC08E0121C08E0100501E4F63
:101920001DC08E0100501C4F19C08E0100501A4F6F
:1019300015C08E010050184F11C08E010050164F77
:101940000DC08E010050144F09C08E010050124F7F
:10195000FFE00E3F1F0714F00DEF1FE084EE9AE04A
:10196000B80140E00E94AF24219682E090E0E80EAA
:10197000F91E92E0C130D90709F0ADCF8DE09AE0B1
:101980000E945D208DE09AE062E041E00E943520F7
:101990008DE09AE06DE073E00E943E2C8DE09AE0CD
:1019A00062E042E00E9435208DE09AE063EF72E051
:1019B0000E943E2C8DE09AE06091B6094AE050E02A
:1019C0000E94DD2B8DE09AE063E143E00E94352028
:1019D00060ED77E080E090E00E942D288DE09AE0B5
:1019E0000E94272020E030E0C901DF91CF911F91B4
:1019F0000F91FF90EF900895EF92FF920F931F9336
:101A0000CF93DF9381E070DD019719F421E030E09E
:101A1000BDC08DE09AE00E945D208DE09AE061E01B
:101A200041E00E9435208DE09AE06DE173E00E9474
:101A30003E2C8DE09AE061E042E00E9435208DE08E
:101A40009AE063EF72E00E943E2C8DE09AE067E03E
:101A500042E00E9435208DE09AE06091B6094AE0AC
:101A600050E00E94DD2B8DE09AE063E143E00E94AC
:101A700035208DE09AE00E941F20F2EBEF2EF5E07A
:101A8000FF2EC0E0D0E001E010E08091B609843084
:101A9000E1F0853038F4823081F0833090F4813089
:101AA00069F509C08630C9F0863098F08730C9F0F2
:101AB000883021F51AC0E80121C0E801C050DE4F8E
:101AC0001DC0E801C050DC4F19C0E801C050DA4F1A
:101AD00015C0E801C050D84F11C0E801C050D64F22
:101AE0000DC0E801C050D44F09C0E801C050D24F2A
:101AF0008FE0CE3FD80714F0CDEFDFE084EE9AE020
:101B0000BE01F70140810E94AF240F5F1F4F82E0AA
:101B100090E0E80EF91E92E00130190709F0B5CF08
:101B20008DE09AE00E945D208DE09AE063E041E064
:101B30000E9435208DE09AE06EE273E00E943E2C18
:101B40008DE09AE063E042E00E9435208DE09AE06B
:101B500063EF72E00E943E2C8DE09AE06091B6093E
:101B60004AE050E00E94DD2B8DE09AE063E143E023
:101B70000E94352060ED77E080E090E00E942D2803
:101B80008DE09AE00E94272020E030E0C901DF913B
:101B9000CF911F910F91FF90EF9008958DE09AE003
:101BA0000E945D208DE09AE060E040E00E943520D8
:101BB0008DE09AE06CE373E00E943E2C6091B609E0
:101BC000662339F48DE09AE068E872E00E943E2CCA
:101BD00006C08DE09AE04AE050E00E94DD2B8DE0E7
:101BE0009AE061E042E00E9435208DE09AE064EDE9
:101BF00072E00E943E2C8DE09AE061E043E00E949A
:101C000035208DE09AE069ED72E00E943E2C8DE077
:101C10009AE067E042E00E9435208DE09AE060E5BE
:101C200073E00E943E2C8DE09AE067E043E00E9462
:101C300035208DE09AE06EED72E00E943E2C8DE042
:101C40009AE06EE042E00E9435208DE09AE066E581
:101C500073E00E943E2C8DE09AE06EE043E00E942B
:101C600035208DE09AE06CE573E00E943E2C1092E6
:101C7000B70982E08093B809E9EBF9E0DF019896B3
:101C80001082148A1C9254961C9254973196119685
:101C900089E0ED3CF807A1F781E0848B80A786A757
:101CA000828F81A385AB80E060E070E0B9D980913C
:101CB000B709882349F48091B809833081F4E9DCBD
:101CC000019709F46BCF0895863099F48091B80993
:101CD000833061F4B7DD019709F460CF0895823055
:101CE00089F48ADE019709F459CF0895823051F4BE
:101CF0006BC88D3039F48091B809823019F40E9494
:101D00004F03D1CF0895CF92DF92EF92FF920F93BE
:101D10001F93CF93DF931EE0C12EBFE0DB2ECFEFEA
:101D2000D0E0A6E9EA2EF12C60916D0570916E0568
:101D300084EE9AE00E94A824182F60916F0570919C
:101D4000700584EE9AE00E94A824082F8DE09AE0A6
:101D50000E945D208DE09AE060E040E00E94352026
:101D60008DE09AE063E673E00E943E2C8DE09AE0FD
:101D70006FE040E00E9435208DE09AE06FE673E06E
:101D80000E943E2C8DE09AE063E041E00E94352005
:101D90008DE09AE065E773E00E943E2C812F90E091
:101DA0006FE070E041E050E00E9490038DE09AE027
:101DB00065E042E00E9435208DE09AE061E873E042
:101DC0000E943E2C802F90E06FE070E042E050E0F7
:101DD0000E9490038DE09AE06FE043E00E9435207E
:101DE0008DE09AE06BE873E00E943E2CC092B70948
:101DF00082E08093B809E9EBF9E0DF019896108260
:101E0000148A1C9254961C9254973196119629E08C
:101E1000ED3CF207A1F781E0868782A386AB809331
:101E2000C70980E060E070E0FBD88091B7098E3090
:101E3000C1F78091B809813009F083C080930A0A04
:101E4000D092090A0E94920580910B0A90910C0A87
:101E500022E0883C920709F045C08DE09AE06EE0F0
:101E600041E00E9435208DE09AE064E072E00E943B
:101E70003E2C80914A0560E00E94B72A8DE09AE0EE
:101E80000E941F20809154050E94E92A019709F0C1
:101E900003C1809144050E94E92A019709F0FCC022
:101EA00080915B050E94F22864E070E00E945F2C44
:101EB000CB0160930B0A90930C0A6FE070E041E055
:101EC00050E00E94900360910B0A70910C0A80917F
:101ED00069050E94262962E370E080E090E00E949C
:101EE0002D28D0CF8F3F910569F064F0D0930C0A74
:101EF000C0930B0A8FEF90E06FE070E041E050E09C
:101F00000E94900360910B0A70910C0A8091690500
:101F10000E94262940910B0A50910C0A4115510547
:101F200019F41092240A06C0141615061CF481E058
:101F30008093240A60916D0570916E0584EE9AE09D
:101F40009EC0823009F09EC080930A0AD092090A8E
:101F500081E00E94920580910B0A90910C0A22E088
:101F6000883C920709F058C08DE09AE06EE042E0AC
:101F70000E9435208DE09AE064E072E00E943E2CE1
:101F800080914A0560E00E94B72A8DE09AE00E94A5
:101F90001F2023C06FE070E042E050E00E949003F9
:101FA00060910B0A70910C0A80916B050E942629A2
:101FB00080910B0A90910C0A8539910544F486E9C9
:101FC00090E06FE070E042E050E00E94900362E336
:101FD00070E080E090E00E942D28809154050E94DE
:101FE000E92A019709F068C0809144050E94E92A16
:101FF000019709F061C080915B050E94F22864E0BE
:1020000070E00E945F2CCB0170930C0A60930B0A66
:10201000663971056CF2BECF8F3F910569F064F0AF
:10202000D0930C0AC0930B0A8FEF90E06FE070E042
:1020300042E050E00E94900380910B0A90910C0ABC
:102040008639910564F4F0920C0AE0920B0A86E955
:1020500090E06FE070E042E050E00E9490036091F9
:102060000B0A70910C0A80916B050E9426296091E1
:102070006F057091700584EE9AE040910B0A0E9402
:10208000AF24CFCE833011F427D0CBCE882309F0F4
:10209000C8CE0E942A0748CE8DE09AE00E942720F1
:1020A00080914A0561E00E94B72A6CE271E080E00D
:1020B00090E00E942D282ECF8DE09AE00E942720EC
:1020C00080914A0561E00E94B72A6CE271E080E0ED
:1020D00090E00E942D28CBCF8DE09AE00E945D20F9
:1020E0008DE09AE060E040E00E9435208DE09AE0CB
:1020F00060E973E00E943E2C6091B609662339F4D2
:102100008DE09AE068E872E00E943E2C06C08DE007
:102110009AE04AE050E00E94DD2B8DE09AE062E018
:1021200041E00E9435208DE09AE064EA73E00E946D
:102130003E2C8DE09AE062E042E00E9435208DE086
:102140009AE06CEA73E00E943E2C8DE09AE062E037
:1021500043E00E9435208DE09AE063EB73E00E943B
:102160003E2C8DE09AE06BE043E00E9435208DE04C
:102170009AE06AEB73E00E943E2C8DE09AE06BE0FF
:1021800041E00E9435208DE09AE063EC73E00E940C
:102190003E2C8DE09AE06BE042E00E9435208DE01D
:1021A0009AE06AEC73E00E943E2C81E08093B709CC
:1021B0008093B809E9EBF9E0DF0198961082148A60
:1021C0001C9254961C9254973196119689E0ED3CDE
:1021D000F807A1F781E08183858B81A782AB828795
:1021E000868F80E060E070E00E9410088091B7095F
:1021F000813029F48091B809813009F485D2809129
:10220000B709813029F48091B809823009F426D0C9
:102210008091B709813029F48091B809833009F49D
:102220008FD48091B7098A3029F48091B80983301E
:1022300009F489D68091B7098A3029F48091B809C8
:10224000813009F460DD8091B7098A3031F48091E2
:10225000B809823011F40C940A1A08952F923F9213
:102260004F925F926F927F928F929F92AF92BF92A6
:10227000CF92DF92EF92FF920F931F93DF93CF9352
:10228000CDB7DEB760970FB6F894DEBF0FBECDBFF7
:1022900081E090E090933B0580933A05988B8F877F
:1022A00011E00DE004C021E030E0388B2F878DE095
:1022B0009AE00E945D208DE09AE060E040E00E949C
:1022C00035208DE09AE064ED73E00E943E2C8DE0B5
:1022D0009AE067E040E00E9435206091B6096623ED
:1022E00039F48DE09AE068E872E00E943E2C06C066
:1022F0008DE09AE04AE050E00E94DD2B8F859889BE
:102300000E94AD043CE03093B7091092B809E9EBA4
:10231000F9E0DF0198961082148A1C9254961C9260
:1023200054973196119689E0ED3CF807A1F7109388
:10233000BD091093C1091093C5091093C9091083F1
:10234000148310871487108B148B108F148F10A395
:1023500014A310A714A710AB14AB10AFEF85F88926
:102360003C96FA83E9832F853889295F3F4F3C8368
:102370002B838F85988902969E838D83EF85F889BC
:102380003D96F887EF832F853889285F3F4F3A873E
:1023900029878F85988903969C878B87EF85F88995
:1023A0003E96FE87ED87F9E02F2E312C2F85388958
:1023B000220E331EE4E04E2E512C420E531E7AE0C4
:1023C000672E712C620E731E65E0862E912C820E94
:1023D000931E59010894A11CB11C56E0C52ED12CA6
:1023E000C20ED31E4BE0E42EF12CE20EF31E81E070
:1023F0006F8578890E9410089091B709943039F45C
:102400008091B809882309F080C0C8DB50CF98308C
:1024100039F48091B809882309F082C05DDE47CF86
:102420009C3091F58091B809882309F082C0109200
:102430000A0A0093090A8F85988990930C0A809361
:102440000B0A80E00E94920580910B0A90910C0A81
:10245000835F914034F022EF31E030930C0A2093F7
:102460000B0A80910B0A90910C0A892B31F481E0C0
:1024700090E090930C0A80930B0AE0910B0AF09184
:102480000C0AF88BEF8713CF9031A1F58091B80932
:10249000882309F05BC010920A0AF1E1F093090A5F
:1024A0002F8538892130310539F48FE090E0909301
:1024B0000C0A80930B0A07C0EF85F8893E97F093CA
:1024C0000C0AE0930B0A80E00E94920560910B0ACF
:1024D00070910C0AF2E061307F071CF022EF31E0CE
:1024E000E4CE6F3071050CF4DECECB010E97988BE5
:1024F0008F87DDCE992339F48091B809813089F531
:10250000EF85F8891CC0943049F48091B809813076
:1025100099F5B0923B05A0923A0588C0983039F4FD
:102520008091B809813099F52D813E817BC09C3026
:1025300059F48091B809813099F5EB85FC85F093C9
:102540003B05E0933A0572C0903149F48091B80997
:10255000813079F550923B0540923A0567C0992346
:1025600049F48091B809823079F590923B058092C8
:102570003A055CC0943049F48091B809823079F50D
:10258000D0923B05C0923A0551C0983039F4809101
:10259000B809823079F52B813C8144C09C3039F4F4
:1025A0008091B809823079F5E985FA85C8CF9031F4
:1025B00049F48091B809823079F530923B05209238
:1025C0003A0534C0992349F48091B809833071F5F4
:1025D00070923B0560923A0529C0943049F480918D
:1025E000B809833019F5F0923B05E0923A051EC018
:1025F000983039F48091B8098330C1F429813A8147
:1026000011C09C3039F48091B809833079F4EF819E
:10261000F88595CF903151F48091B809833031F429
:102620002D853E8530933B0520933A058091B8096E
:1026300080930A0A9F5F9093090AE0913A05F0910E
:102640003B05EE0FFF1FE055FA4F8081918190937B
:102650000C0A80930B0A81E00E94920580910B0A7C
:1026600090910C0A8456924039F40E94440480915F
:10267000090A84508093090A80910B0A90910C0AF0
:10268000E2E0883C9E0769F48091090A82506091DB
:102690000A0A0E94CC038091090A84508093090A97
:1026A000A6CE8F3F910599F094F02FEF30E0309354
:1026B0000C0A20930B0A6091090A70E06E5F7F4F4D
:1026C00040910A0A8FEF90E050E00E9490038091C1
:1026D0003A0590913B050197E091E70AF091E80AED
:1026E000E80FF91F80910B0A8083E0913A05F09181
:1026F0003B05EE0FFF1FE055FA4F80910B0A9091BA
:102700000C0A9183808373CEBF92CF92DF92EF92B7
:10271000FF920F931F93CF93DF93C1E0D0E048E087
:10272000B42E09E0E12C32E0F32E2FEFC22ED12C93
:10273000D0933B05C0933A058DE09AE00E945D205E
:102740008DE09AE060E040E00E9435208DE09AE064
:1027500066EE73E00E943E2C6091B609662339F460
:102760008DE09AE068E872E00E943E2C06C08DE0A1
:102770009AE04AE050E00E94DD2B8DE09AE06EE0A6
:1027800042E00E9435208DE09AE06BE873E00E9401
:102790003E2C8DE09AE06EE043E00E9435208DE013
:1027A0009AE06AEF73E00E943E2C8DE09AE060E0D0
:1027B00042E00E9435208DE09AE061E074E00E94E2
:1027C0003E2C8DE09AE062E043E00E9435208DE0EF
:1027D0009AE06EE074E00E943E2C8091B2059091E8
:1027E000B30569E070E043E050E00E9490038DE0A3
:1027F0009AE060E041E00E9435208DE09AE065E1DA
:1028000074E00E943E2C8091B4059091B50566E07D
:1028100070E041E050E00E9490038DE09AE06BE0B0
:1028200041E00E9435208DE09AE06CE174E00E9466
:102830003E2C8091B6059091B70561E170E041E0D2
:1028400050E00E949003B092B70982E08093B809EB
:10285000E9EBF9E0DF0198961082148A1C925496F5
:102860001C9254973196119629E0ED3CF207A1F79E
:1028700081E0848F80AB81A385AB80E060E070E075
:102880000E9410088091B709883009F0E9C01091C2
:10289000B809123009F0E4C080913A0590913B05E7
:1028A00069E070E042E050E00E94900310930A0A51
:1028B0000093090A80913A0590913B0590930C0A88
:1028C00080930B0A80E00E94920580910B0A909100
:1028D0000C0A8150924064F0F0920C0AE0920B0ACC
:1028E00080E092E069E070E042E050E00E949003F6
:1028F00080910B0A90910C0A1816190664F0D09377
:102900000C0AC0930B0A81E090E069E070E042E0BD
:1029100050E00E949003E0910B0AF0910C0AF093B2
:102920003B05E0933A05EE0FFF1FE055FA4F80811B
:10293000918169E070E043E050E00E949003809153
:102940003A0590913B05019721F582E090E061E026
:1029500070E041E050E00E9490038091B4059091B6
:10296000B50566E070E041E050E00E94900383E02E
:1029700090E06CE070E041E050E00E9490038091B4
:10298000B6059091B70561E170E041E050E00E942A
:10299000900380913A0590913B058050924021F53B
:1029A0008EEF91E061E070E041E050E00E94900322
:1029B0008091AC099091AD0966E070E041E050E093
:1029C0000E9490038FEF91E06CE070E041E050E0F6
:1029D0000E9490038091AE099091AF0961E170E08F
:1029E00041E050E00E94900320913A0530913B0570
:1029F000C90102978E5F914098F5C901019761E086
:102A000070E041E050E00E949003E0913A05F091BF
:102A10003B05EE0FFF1FE255FA4F8081918166E082
:102A200070E041E050E00E94900380913A0590915F
:102A30003B0501966CE070E041E050E00E9490039D
:102A4000E0913A05F0913B05EE0FFF1FEE54FA4F6F
:102A50008081918161E170E041E050E00E9490034B
:102A60008091B709883009F05DC08091B809833042
:102A700009F003CF80930A0A0093090AE0913A050E
:102A8000F0913B05EE0FFF1FE055FA4F80819181D9
:102A900090930C0A80930B0A81E00E94920580912A
:102AA0000B0A90910C0A8456924011F40E9444043F
:102AB00080910B0A90910C0A42E0883C940729F41B
:102AC00089E063E00E94CC03D8CE8F3F910569F086
:102AD00064F0D0920C0AC0920B0A8FEF90E069E08C
:102AE00070E043E050E00E94900380913A0590919D
:102AF0003B050197E091E70AF091E80AE80FF91F1A
:102B000080910B0A8083E0913A05F0913B05EE0F2E
:102B1000FF1FE055FA4F80910B0A90910C0A9183A8
:102B20008083ABCE8D3009F0A8CE8091B809833078
:102B300011F434D8FDCD823009F09FCECDDA9DCE90
:102B40002F923F924F925F926F927F928F929F92BD
:102B5000AF92BF92CF92DF92EF92FF920F931F93AB
:102B6000DF93CF9300D000D0CDB7DEB78DE09AE0F1
:102B70000E945D208DE09AE060E040E00E943520F8
:102B80008DE09AE063E274E00E943E2C8DE09AE0D2
:102B900063E041E00E9435208DE09AE060E374E05C
:102BA0000E943E2C8DE09AE060E042E00E943520D9
:102BB0008DE09AE060E474E00E943E2C8DE09AE0A3
:102BC00060E043E00E9435208DE09AE064E574E027
:102BD0000E943E2C81E090E069E070E041E050E02E
:102BE0000E94900381E090E069E070E042E050E0F4
:102BF0000E94900380E090E069E070E043E050E0E4
:102C00000E94900388E08093B70981E08093B8091F
:102C100021E030E040E050E029833A834B835C833D
:102C2000F1E08F2E912CA12CB12C4424552432019B
:102C3000E9EBF9E0DF0198961082148A1C92549611
:102C40001C9254973196119639E0ED3CF307A1F7A9
:102C500041E04087448F40AB42A346AB80E060E058
:102C600070E00E9410088091B7098E30C1F4809105
:102C7000B8098230A1F4A2EBB5E020E030E0E091A9
:102C8000E70AF091E80AE20FF31F8C9180832F5F2F
:102C90003F4F129652E02030350789F71DDA8091B8
:102CA000B7098E3009F09DC08091B809833009F0D2
:102CB000B9C014018DE09AE06FE043E00E94352036
:102CC0008DE09AE069E674E00E943E2C8DE09AE087
:102CD0000E941F2080E090E0E091E70AF091E80A6E
:102CE000E80FF91F10820196A2E081309A07A1F740
:102CF000610154C0ED81FE813196FE83ED83E45184
:102D0000F54009F050C00894E11CF11C011D111D93
:102D100089819A81AB81BC81E816F9060A071B07F5
:102D200009F03FC0C601AA2797FDA095BA2F481603
:102D300059066A067B060CF46101C60169E070E081
:102D400040E050E00E9490038DE09AE063E143E0B0
:102D50000E943520A50194010DC0C9010197E091A1
:102D6000E70AF091E80AE80FF91F10822F5F3F4F42
:102D70004F4F5F4F421653066406750674F708946A
:102D8000C108D108E091E70AF091E80AEC0DFD1DB9
:102D90009FEF9083A2E0B0E0CA0EDB1EEE24FF247A
:102DA00087011E821D82809144050E94E92A0197B5
:102DB00009F4A0CF8DE09AE00E9427208DE09AE0F0
:102DC0006FE043E00E9435208DE09AE06FE674E00A
:102DD0000E943E2C6CE271E080E090E00E942D2881
:102DE00027CF8830F9F48091B8098130D9F48093E5
:102DF0000A0AB9E0B093090AE981FA81F0930C0A52
:102E0000E0930B0A80E00E94920580910B0A90915A
:102E10000C0A9C01442737FD4095542F29833A839F
:102E20004B835C838091B709883009F042C0809160
:102E3000B8098230F1F580930A0A39E03093090A23
:102E400090920C0A80920B0A80E00E949205809179
:102E50000B0A90910C0A4C01AA2497FCA094BA2C5E
:102E600081149104A104B10471F481E090E069E05F
:102E700070E042E050E00E949003E1E08E2E912C41
:102E8000A12CB12C16C041E0841642E0940640E02B
:102E9000A40640E0B4066CF080E092E069E070E0E7
:102EA00042E050E00E949003812C72E0972EA12C0A
:102EB000B12C8091B709883009F0BACE8091B80959
:102EC000833009F0B5CE80930A0A59E05093090A7D
:102ED00050920C0A40920B0A80E00E949205809169
:102EE0000B0A90910C0A2C01662457FC6094762CF6
:102EF000411451046104710471F481E090E069E0CF
:102F000070E043E050E00E94900361E0462E512CB7
:102F1000612C712C8DCE81E0481682E0580680E04D
:102F2000680680E078060CF483CE80E092E069E0E9
:102F300070E043E050E00E949003412C52E0552E97
:102F4000612C712C75CE2F923F924F925F926F92AF
:102F50007F928F929F92AF92BF92CF92DF92EF9229
:102F6000FF920F931F93DF93CF93CDB7DEB72897D0
:102F70000FB6F894DEBF0FBECDBF81E090E098871A
:102F80008F83662477244301AA24BB246501AFEF15
:102F9000B0E0BA83A9838DE09AE00E945D208DE0C5
:102FA0009AE060E040E00E9435208DE09AE065E71D
:102FB00074E00E943E2C8DE09AE061E040E00E94C7
:102FC00035206091B609662339F48DE09AE068E80F
:102FD00072E00E943E2C06C08DE09AE04AE050E08C
:102FE0000E94DD2B8DE09AE060E041E00E943520F8
:102FF0008DE09AE06EE774E00E943E2C8DE09AE04E
:1030000060E042E00E9435208DE09AE061E974E0E2
:103010000E943E2C8DE09AE060E043E00E94352063
:103020008DE09AE066EA74E00E943E2C89819A81E4
:1030300069E070E040E050E00E9490038F81988545
:1030400069E070E041E050E00E949003C30169E054
:1030500070E042E050E00E949003C50169E070E03A
:1030600043E050E00E949003B8E0B093B70910929B
:10307000B809E9EBF9E0DF0198961082148A1C92F6
:1030800054961C9254973196119629E0ED3CF20724
:10309000A1F781E0808780AB848F858781A385AB92
:1030A0008093C10980E060E070E00E941008809188
:1030B000B7098D3029F48091B809813009F40CD812
:1030C0008091B7098D3009F0A8C08091B80982308D
:1030D00019F40E94CE0D5FCF833009F0D8C0C6012D
:1030E000B501A40193010E94402C615072408040C0
:1030F000904054F08DE09AE06DE040E0B6D78DE06E
:103100009AE06AEB74E086C08DE09AE06DE040E002
:10311000ACD78DE09AE062EC74E00E943E2C8DE02A
:103120009AE06EE043E0A1D78DE09AE06AEC74E0AB
:103130000E943E2C91E0E92EF12C012D112D8F8162
:103140009885AA2797FDA095BA2F8B839C83AD8382
:10315000BE8346C091E0E916F1040105110509F0AE
:1031600054C12B803C804D805E80A1E02A16A2E0F5
:103170003A06A0E04A06A0E05A0634F026183708BE
:1031800048085908860175018DE09AE061E140E048
:103190006CD78DE09AE0B201A1012AE030E00E94F4
:1031A000EE2B65E070E080E090E00E942D28C101E8
:1031B00001972091E70A3091E80A280F391F898189
:1031C000F9018083F101EE0FFF1FE055FA4FA9814D
:1031D000BA81B183A0830894E11CF11C011D111D6B
:1031E000AE14BF04C006D1060CF0B4CF8DE09AE057
:1031F0006DE040E03AD78DE09AE061ED74E00E9426
:103200003E2C8DE09AE06EE043E02FD78DE09AE00F
:1032100065ED74E00E943E2C2CCF8830C1F5809182
:10322000B8098130A1F580930A0AB9E0B093090A80
:10323000EF81F885F0930C0AE0930B0A80E00E947E
:10324000920580910B0A90910C0A98878F83892BA5
:1032500069F481E090E069E070E041E050E00E94B4
:103260009003A1E0B0E0B887AF8311C0EF81F8858B
:10327000E150F24064F080E092E069E070E041E00B
:1032800050E00E94900380E092E098878F838091C5
:10329000B709883009F042C08091B8098230F1F551
:1032A00080930A0A99E09093090A70920C0A60923E
:1032B0000B0A80E00E94920580910B0A90910C0A03
:1032C0003C01882477FC8094982C6114710481045B
:1032D000910471F481E090E069E070E042E050E038
:1032E0000E94900301E0602E712C812C912C16C05D
:1032F000A1E06A16A2E07A06A0E08A06A0E09A069B
:103300006CF080E092E069E070E042E050E00E9402
:103310009003612C12E0712E812C912C8091B709C1
:10332000883009F042C08091B8098330F1F580936C
:103330000A0AB9E0B093090AB0920C0AA0920B0AEB
:1033400080E00E94920580910B0A90910C0A5C012A
:10335000CC24B7FCC094DC2CA114B104C104D1046A
:1033600071F481E090E069E070E043E050E00E9499
:103370009003B1E0AB2EB12CC12CD12C16C0E1E0F2
:10338000AE16E2E0BE06E0E0CE06E0E0DE066CF05F
:1033900080E092E069E070E043E050E00E9490033A
:1033A000A12CA2E0BA2EC12CD12C8091B709883073
:1033B00009F05FCE8091B809882309F05ACE1092A7
:1033C0000A0AF9E0F093090A89819A8190930C0A1C
:1033D00080930B0A81E00E949205A0910B0AB091A4
:1033E0000C0ABA83A983AF3FB10509F00CF441CEB2
:1033F0008FEF90E069E070E040E050E00E949003C1
:10340000EFEFF0E0FA83E98334CE260C371C481C3A
:10341000591CABCE2F923F924F925F926F927F9248
:103420008F929F92AF92BF92DF92EF92FF920F9393
:103430001F93DF93CF93CDB7DEB760970FB6F894A5
:10344000DEBF0FBECDBF8DE09AE037D68DE09AE0AB
:1034500060E040E00AD68DE09AE06CED74E00E94F6
:103460003E2C6091B609662339F48DE09AE068E855
:1034700072E00E943E2C06C08DE09AE04AE050E0E7
:103480000E94DD2B8DE09AE064E041E0EED58DE016
:103490009AE060EF74E00E943E2C8DE09AE060E0DC
:1034A00042E0E3D58DE09AE061E075E00E943E2CB9
:1034B0008DE09AE060E043E0D8D58DE09AE065E1E8
:1034C00075E00E943E2C89E08093B70981E08093EB
:1034D000B809E9EBF9E0DF0198961082148A1C9292
:1034E00054961C9254973196119629E0ED3CF207C0
:1034F000A1F781E08187858F81AB82A386AB41E014
:1035000050E05E874D875C874B8788E090E09A8724
:1035100089878DE09AE06FE043E0A7D58DE09AE0DF
:103520006FE674E00E943E2C8DE09AE090D580E03A
:1035300060E070E00E9410088091B709893009F0BE
:10354000B5C08091B809813009F03FC080930A0A64
:103550008AE08093090AAD85BE85B0930C0AA093DA
:103560000B0A80E00E949205E0910B0AF0910C0A90
:10357000FE87ED87EF2BA1F481E090E06AE070E038
:1035800041E050E00E94900381E090E06AE070E04A
:1035900041E050E00E94900321E030E03E872D871B
:1035A00080910B0A90910C0A853691050CF4B1CFED
:1035B00084E690E06AE070E041E050E00E94900311
:1035C00044E650E05E874D87A4CF8230B1F580930A
:1035D0000A0A8AE08093090A8B859C8590930C0ADD
:1035E00080930B0A80E00E949205A0910B0AB09193
:1035F0000C0ABC87AB87AB2B61F481E090E06AE0FA
:1036000070E042E050E00E949003E1E0F0E0FC87CF
:10361000EB8780910B0A90910C0A09970CF479CFF3
:1036200088E090E06AE070E042E050E00E949003A1
:1036300028E030E03C872B876CCF833009F051C005
:1036400080930A0A8AE08093090A49855A85509333
:103650000C0A40930B0A80E00E94920580910B0AAD
:1036600090910C0A9A878987892B61F481E090E018
:103670006AE070E043E050E00E949003A1E0B0E017
:10368000BA87A98780910B0A90910C0A09970CF4CC
:1036900040CF88E090E06AE070E042E050E00E94B5
:1036A0009003E8E0F0E0FA87E98733CF8E30C9F481
:1036B0008091B8098230A9F4A0EBB5E020E030E0B9
:1036C000E091E70AF091E80AE20FF31F8C91808302
:1036D0002F5F3F4F1296F2E021303F0789F70E949B
:1036E0006C108091B7098E3009F013CF8091B80922
:1036F000833009F00ECF2B853C8549855A852417E8
:103700003507C9F481E090E06AE070E042E050E003
:103710000E94900388E090E06AE070E042E050E0B0
:103720000E94900381E090E09C878B87A8E0B0E046
:10373000BA87A987EECE8DE09AE06EE043E095D49B
:103740008DE09AE062E872E00E943E2C8DE09AE003
:103750006FE043E08AD48DE09AE069E674E00E946D
:103760003E2C8DE09AE06BD4EB85FC8529853A856B
:103770002E173F07B4F484E690E04D855E85DC01AA
:103780004A9FC0014B9F900D5A9F900D11249C01A0
:10379000442737FD4095542F29833A834B835C831C
:1037A000FDC184E690E04D855E85DC014A9FC00145
:1037B0004B9F900D5A9F900D11249C01442737FD7B
:1037C0004095542F2D833E834F835887DD24D39417
:1037D0008DE09AE063E140E048D48DE09AE06D2D01
:1037E0004AE050E00E94DD2B8DE09AE063E143E087
:1037F0003CD400E010E0212C22E0322E412C94E059
:10380000592E612C86E0782E812CB8E09B2EA12CBD
:10381000AAE0BA2EE12CFCE0FF2E40E05EE0588BDF
:103820004F8754E0D51609F43FC05D1550F082E093
:10383000D81611F18D1560F191E0D91609F073C019
:103840000FC0A6E0DA1609F447C0DA16C8F1B7E0EF
:10385000DB1609F44DC0E8E0DE1609F064C054C080
:1038600084EE9AE0B8010E94A824E091E70AF09162
:10387000E80AE00FF11F56C084EE9AE0B1010E9401
:10388000A824E091E70AF091E80AE20DF31D4AC08E
:1038900084EE9AE0B2010E94A824E091E70AF09138
:1038A000E80AE40DF51D3EC084EE9AE0B3010E94E3
:1038B000A824E091E70AF091E80AE60DF71D32C06E
:1038C00084EE9AE0B4010E94A824E091E70AF09106
:1038D000E80AE80DF91D26C084EE9AE0B5010E94C1
:1038E000A824E091E70AF091E80AEA0DFB1D1AC04E
:1038F00084EE9AE0B7010E94A824E091E70AF091D3
:10390000E80AEE0DFF1D0EC084EE9AE06F857889FF
:103910000E94A824E091E70AF091E80A2F853889EF
:10392000E20FF31F80830F5F1F4F0894211C311C8F
:103930000894411C511C0894611C711C0894811C42
:10394000911C0894A11CB11C0894E11CF11C4F852A
:1039500058894F5F5F4F588B4F8752E000301507F3
:1039600009F05FCF809144050E94E92A019709F090
:103970000BC1EE24FF24870112C061E070E080E0FB
:1039800090E00E942D28809144050E94E92A892B0D
:1039900009F4FAC00894E11CF11C011D111D8D8170
:1039A0009E81AF81B8858E159F05A007B1072CF7C2
:1039B000D39498E09D1508F409CF0ACF8DE09AE0E2
:1039C00063E140E052D38DE09AE06D2D4AE050E093
:1039D0000E94DD2B8DE09AE063E143E046D300E0F6
:1039E00010E0212CE2E03E2E412C74E0572E612C99
:1039F00066E0762E812C58E0952EA12C4AE0B42E5C
:103A0000E12C3CE0F32EA0E0BEE0B88BAF87B4E041
:103A1000DB1609F43CC0BD1550F0E2E0DE1609F1FA
:103A2000ED1550F1F1E0DF1609F06BC00FC026E094
:103A3000D21609F442C0D216A8F137E0D31609F421
:103A400047C048E0D41609F05CC04DC084EE9AE04F
:103A5000B8017ED7E091E70AF091E80AE00FF11F84
:103A60004FC084EE9AE0B10173D7E091E70AF0917C
:103A7000E80AE20DF31D44C084EE9AE0B20168D773
:103A8000E091E70AF091E80AE40DF51D39C084EEF3
:103A90009AE0B3015DD7E091E70AF091E80AE60DFC
:103AA000F71D2EC084EE9AE0B40152D7E091E70AE8
:103AB000F091E80AE80DF91D23C084EE9AE0B50103
:103AC00047D7E091E70AF091E80AEA0DFB1D18C01C
:103AD00084EE9AE0B7013CD7E091E70AF091E80A5A
:103AE000EE0DFF1D0DC084EE9AE06F85788930D70A
:103AF000E091E70AF091E80AAF85B889EA0FFB1F69
:103B000080830F5F1F4F0894211C311C0894411CB7
:103B1000511C0894611C711C0894811C911C089410
:103B2000A11CB11C0894E11CF11CEF85F8893196A9
:103B3000F88BEF87F2E000301F0709F068CF809123
:103B400044050E94E92A0197F9F4EE24FF24870135
:103B500011C061E070E080E090E00E942D2880912B
:103B600044050E94E92A892B79F00894E11CF11C94
:103B7000011D111D29813A814B815C812E153F0564
:103B80004007510734F707C064EF71E080E090E030
:103B90000E942D28BECCDA9409F010CF28E0D22E56
:103BA0000DCF1F9311E08DE09AE087D28DE09AE06F
:103BB00060E040E05AD28DE09AE06AE275E00E944F
:103BC0003E2C8DE09AE062E042E04FD28DE09AE038
:103BD00060E573E00E943E2C8DE09AE069E042E0EF
:103BE00044D28DE09AE069ED72E00E943E2C8DE0B7
:103BF0009AE06FE042E039D28DE09AE06EED72E03B
:103C00000E943E2C1093B70982E08093B809E9EB3B
:103C1000F9E0DF0198961082148A1C9254961C9247
:103C200054973196119689E0ED3CF807A1F7158B72
:103C3000148F12A380E060E070E00E941008809171
:103C4000B709883059F48091B809823039F40E945C
:103C5000490B019709F4A7CF0E946C108091B70916
:103C60008E3059F48091B809823039F40E94220CC8
:103C7000019709F498CF0E946C108091B7098130A8
:103C800031F48091B809823011F40E946C101F91B8
:103C9000089582E061E00E94B72A0E94080C0E9409
:103CA000F70B0E942A077DCF80913C0562E00E94BD
:103CB000042A80913E0562E00E94042A809140051A
:103CC00062E00E94042A8091420562E00E94042A78
:103CD0008BE062E00E94042A8091460561E00E9428
:103CE000042A8091480561E00E94042A80914A05D7
:103CF00061E00E94042A80914C0561E00E94042A40
:103D000080914E0562E00E94042A8091500562E095
:103D10000E94042A8091520562E00E94042A809148
:103D2000540562E00E94042A8091460561E00E94E9
:103D3000B72A8091480561E00E94B72A80914A0520
:103D400061E00E94B72A80914C0561E00E94B72A89
:103D500080915D0561E00E94042A80915F0561E029
:103D60000E94042A8091670561E00E94042A8091E4
:103D7000650561E00E94042A8091630561E00E946C
:103D8000042A8091610561E00E94042A80916905FE
:103D900061E00E94042A8DE09AE064E144E020E0C2
:103DA00092D181E090E09093FD0A8093FC0A80E03C
:103DB00092E09093F90A8093F80A85EE9AE060E029
:103DC0002BD785E061E00E94042A85E060E00E9434
:103DD000B72A86E061E00E94042A86E060E00E9443
:103DE000B72A87E061E00E94042A87E060E00E9431
:103DF000B72A86E161E00E94042A86E160E00E9421
:103E0000B72A87E161E00E94042A87E160E00E940E
:103E1000B72A88E161E00E94042A88E160E00E94FC
:103E2000B72A89E161E00E94042A89E160E00E94EA
:103E3000B72A8AE161E00E94042A8AE160E00E94D8
:103E4000B72A8BE161E00E94042A8BE160E00E94C6
:103E5000B72A8CE161E00E94042A8CE160E00E94B4
:103E6000B72A8DE161E00E94042A8DE160E00E94A2
:103E7000B72A8FE161E00E94042A8FE160E00E948E
:103E8000B72A81E261E00E94042A81E260E00E9498
:103E9000B72A83E261E00E94042A83E260E00E9484
:103EA000B72A85E261E00E94042A85E260E00E9470
:103EB000B72A87E261E00E94042A87E260E00E945C
:103EC000B72A89E261E00E94042A89E260E00E9448
:103ED000B72A8EE261E00E94042A8EE260E00E942E
:103EE000B72A80E361E00E94042A80E360E00E9438
:103EF000B72A82E361E00E94042A82E360E00E9424
:103F0000B72A84E361E00E94042A84E360E00E940F
:103F1000B72A86E361E00E94042A86E360E00E94FB
:103F2000B72A87E361E00E94042A87E360E00E94E9
:103F3000B72A88E361E00E94042A88E360E00E94D7
:103F4000B72A89E361E00E94042A89E360E00E94C5
:103F5000B72A8AE361E00E94042A8AE360E00E94B3
:103F6000B72A8BE361E00E94042A8BE360E00E94A1
:103F7000B72A8CE361E00E94042A8CE360E00E948F
:103F8000B72A8DE361E00E94042A8DE360E00E947D
:103F9000B72A8EE361E00E94042A8EE360E00E946B
:103FA000B72A8FE361E00E94042A8FE360E00E9459
:103FB000B72A80E461E00E94042A80E460E00E9465
:103FC000B72A81E461E00E94042A81E460E00E9453
:103FD000B72A82E461E00E94042A82E460E00E9441
:103FE000B72A83E461E00E94042A83E460E00E942F
:103FF000B72A84E461E00E94042A84E460E00C941F
:10400000B72A08950895FC01138212828CE795E087
:10401000918380830895FC01A081B18118962D9130
:104020003C9119976FEFF90119950895DC01ED9115
:10403000FC910284F385E02D40E019950895FC0180
:104040006581862F816085836960CF01EFCFFC0198
:1040500065816E7F65836860E9CFFC016581862F8D
:10406000846085836C60CF01E1CFDC0117969C9161
:104070001797491710F0492F415018968C911897AF
:10408000803139F4943029F4E42FF0E0E857FA4F06
:1040900004C0E42FF0E0E457FA4F8081680F6068B5
:1040A000CD01C4CFDC01ED91FC910284F385E02DBC
:1040B00041E0199581E090E0089561E0B7DF80ED7F
:1040C00097E00C948628CF93DF93EC01423018F0F0
:1040D0008C8188608C834F836887222329F041304C
:1040E00019F48C8184608C8364E670E080E090E059
:1040F000B4D76C8164FD2EC0E881F9810284F38518
:10410000E02DCE0163E042E0199584E991E1FED70C
:10411000E881F9810284F385E02DCE0163E042E07D
:10412000199584E991E1F2D7E881F9810284F38558
:10413000E02DCE0163E042E0199586E990E0E6D7F4
:10414000E881F9810284F385E02DCE0162E042E04E
:10415000199511C06062CE0169DF84E991E1D6D77B
:104160006C816062CE0162DF86E990E0CFD76C811E
:104170006062CE015BDF6C816062CE0157DF84E05C
:104180008D83CE016ADFCE0198DF82E08E83CE017F
:1041900066E04CDFCE013FDFDF91CF9108950F93B2
:1041A0001F938C01FC01858561E00E94B72AF8010C
:1041B000858560E00E94B72A1F910F910895BF92F4
:1041C000CF92DF92EF92FF920F931F93CF93DF93E3
:1041D000D82EC92EB42E282F392FC9018C01C0E04A
:1041E000D0E0E62EFF240DC0B7010C2E02C075955D
:1041F00067950A94E2F76170F80185850E94B72AF5
:1042000021960F5F1F4FCB1578F38D2D9C2DC7DFA7
:10421000DF91CF911F910F91FF90EF90DF90CF90A2
:10422000BF9008950F931F93CF93DF93EC01162F48
:10423000042F60E0413009F461E08B850E94B72AC9
:104240008C858F3F19F060E00E94B72A023089F018
:104250008C8184FF04C0CE01612F48E00DC0612F26
:1042600070E084E0759567958A95E1F7CE0144E0AA
:10427000A6DFCE01612F44E0A2DFDF91CF911F9135
:104280000F9108956F927F928F92AF92CF92EF929B
:104290000F931F93DF93CF93CDB7DEB73C01162F5B
:1042A0008E2DF301438724870587E686C786A08A7B
:1042B000818A9E85928B9F85938B9889948B99890F
:1042C000958B61E00E94042AF301878561E00E94DA
:1042D000042AF301808961E00E94042AF3018189A4
:1042E00061E00E94042A1123A1F4F301828961E0B4
:1042F0000E94042AF301838961E00E94042AF301E9
:10430000848961E00E94042AF301858961E00E94AA
:10431000042AF301838561E00E94042AF301848565
:104320008F3F19F061E00E94042AF301858561E066
:104330000E94042A112319F0F301148203C080E1C2
:10434000F3018483F301838560E00E94B72AF301BF
:10435000858560E00E94B72AF30184858F3F19F0BC
:1043600060E00E94B72A8FEFF301868B12861186D8
:10437000CF91DF911F910F91EF90CF90AF908F90E1
:104380007F906F900895DF92EF92FF920F931F93AB
:104390008C01D62E7A01862F61E00E94042AD80172
:1043A0005696DC9256971A96FC92EE921997ED91DA
:1043B000FC910084F185E02DC80160E019951F9102
:1043C0000F91FF90EF90DF900895DC01362F569605
:1043D0002C9156972F3F49F1E22FF0E0E254FE4F27
:1043E000E491EE2379F019968D919C911A97892B7F
:1043F00019F4822F70E005C06FEF70E0631B710944
:10440000822F24C719968D919C911A97662319F0D3
:10441000892B39F402C0019721F4822F61E00C94BA
:10442000B72A822F60E00C94B72A08956F927F928A
:104430008F92AF92BF92CF92DF92EF92FF920F9343
:104440001F933C01162FF42ED22EB02EAE2C8C2CA6
:10445000DADD84E995E0D3018D939C9300D00F922F
:10446000EDB7FEB73196ADB7BEB711961C9211826B
:1044700012821382C30161E0412F2FEF0F2DED2C2B
:10448000CB2C00DF0F900F900F900F901F910F918A
:10449000FF90EF90DF90CF90BF90AF908F907F9084
:1044A0006F9008952091460A30E08091450A281BBC
:1044B0003109C90108954091450A8091460A48177B
:1044C00018F02FEF3FEF0AC0E42FF0E0EB5DF54F5F
:1044D0008081282F30E04F5F4093450AC90108953D
:1044E000E091450A8091460AE81718F0EFEFFFEFD8
:1044F00006C0F0E0EB5DF54F8081E82FF0E0CF01E2
:104500000895089510926D0A10926C0A88EE93E057
:10451000A0E0B0E080936E0A90936F0AA093700AB7
:10452000B093710A84EA95E090936B0A80936A0ACB
:104530000895CF92DF92EF92FF920F931F93CF9344
:10454000DF937C016B018A018091690A8823A1F0C5
:10455000C0E0D0E00DC0D701ED91FC91D601AC0FC9
:10456000BD1F0190F081E02DC7016C911995219636
:10457000C017D10780F303C0CB01642F39D0C80125
:10458000DF91CF911F910F91FF90EF90DF90CF902F
:104590000895DF93CF930F92CDB7DEB7FC01698307
:1045A0008091690A8823C9F08091680A803238F0C6
:1045B00081E090E09383828320E030E014C080911A
:1045C000670AE82FF0E0E95BF54F998190838F5FF0
:1045D0008093670A8093680A04C0CE01019661E067
:1045E00007D021E030E0C9010F90CF91DF9108950D
:1045F000482F613210F081E008958091760A84306E
:1046000011F082E008956093C10AA0EABAE0842F15
:104610009C01F90102C081918D938E2F841B861716
:10462000D0F380E008951F920F920FB60F920BB651
:104630000F9211242F933F934F935F936F937F9328
:104640008F939F93AF93BF93EF93FF938091B900A4
:1046500090E0887F90708036910509F4F2C0813631
:104660009105CCF58832910509F47BC0893291051A
:10467000B4F48031910509F46FC0813191053CF4A7
:10468000009709F447C1089709F04FC165C0883108
:10469000910509F466C0809709F047C182C0803453
:1046A000910509F4A4C08134910544F48033910547
:1046B00009F482C0C89709F038C189C080359105D6
:1046C00009F489C08835910509F496C088349105AC
:1046D00009F02BC1AEC08839910509F413C189399D
:1046E0009105ECF48837910509F4ABC08937910541
:1046F0004CF48836910509F4A4C08037910509F07F
:1047000014C19FC08838910509F4FCC08039910517
:1047100009F49DC08038910509F007C198C0803B1D
:10472000910509F4C6C0813B91054CF4803A91058E
:1047300009F49FC0883A910509F0F7C0BAC0803CDF
:10474000910509F4E3C0883C910509F4DFC0883B7A
:10475000910509F0EAC0C2C08091770A8093BB003E
:10476000CFC090919E0A80919F0A981768F490910B
:104770009E0AE92FF0E0E258F54F80818093BB005C
:104780009F5F90939E0ABCC08091780A882309F4A9
:104790004BC085ED8093BC008091BC0084FDFCCFB4
:1047A000C2C080E28093E30A85ED8093BC008091D3
:1047B000BC0084FDFCCFB7C080E38093E30A85EDA5
:1047C0008093BC008091BC0084FDFCCFACC088E32A
:1047D0008093E30A9BC080919E0A9091BB00E82FD2
:1047E000F0E0E258F54F90838F5F80939E0A90919E
:1047F0009E0A80919F0A82C080919E0A9091BB0080
:10480000E82FF0E0E258F54F90838F5F80939E0A87
:104810008091780A882341F085ED8093BC008091D7
:10482000BC0084FDFCCF7FC081E08093790A84EADC
:104830006EC085ED8093BC008091BC0084FDFCCFF0
:1048400072C083E08093760A1092E20A59C0809188
:10485000E20A803208F056C08091E20A9091BB00D3
:10486000E82FF0E0EE53F54F90838F5F8093E20ADC
:1048700047C08091E20A803230F4E091E20AF0E031
:10488000EE53F54F108285ED8093BC008091BC0003
:1048900084FDFCCF1092760A6091E20AE0917C0AD6
:1048A000F0917D0A82EC9AE070E019951092E20A8C
:1048B0002DC084E08093760A1092C00A1092C10A3B
:1048C000E0917A0AF0917B0A19958091C10A8823B8
:1048D00029F481E08093C10A1092A00A9091C00A45
:1048E000E92FF0E0E056F54F80818093BB009F5F99
:1048F0009093C00A9091C00A8091C10A981710F451
:1049000085EC01C085E88093BC000FC085EC8093E6
:10491000BC0009C01092E30A85ED8093BC00809131
:10492000BC0084FDFCCF1092760AFF91EF91BF91FD
:10493000AF919F918F917F916F915F914F913F9137
:104940002F910F900BBE0F900FBE0F901F901895D8
:10495000F999FECF72BD61BDF89A80B50895F999B5
:10496000FECF1FBA72BD61BD40BD0FB6F894FA9A72
:10497000F99A0FBE0895FC018385882331F4809154
:10498000C10087728093C1000895813031F4809115
:10499000C90087728093C9000895823031F48091F4
:1049A000D10087728093D1000895833029F48091DB
:1049B000310187728093310108951F920F920FB6D3
:1049C0000F920BB60F9211242F933F934F935F9347
:1049D0006F937F938F939F93AF93BF93EF93FF93C7
:1049E0008091C0008093ED0A3091C6003093EE0AAA
:1049F0002091E90A2093EF0A84FF10C08091C00043
:104A00008F7E8093C0008091FA0A9091FB0A909368
:104A1000F30A8093F20A81E08093E90A213091F44D
:104A2000332369F482E08093E90A8091E50A90914A
:104A3000E60A01969093EB0A8093EA0A4BC0109223
:104A4000E90A48C02230A1F48091F20A9091F30A59
:104A500001979093F30A8093F20A892BD9F583E0AA
:104A60008093E90AE091E50AF091E60A308332C0CA
:104A7000233081F5E091EA0AF091EB0AF093080BFC
:104A8000E093070B30834091070B5091080B4F5F69
:104A90005F4F5093080B4093070B8091E50A90916C
:104AA000E60A2091F60A3091F70A820F931F481701
:104AB000590760F01092E90AE0910B0BF0910C0B92
:104AC000309741F08091F00A199504C05093EB0A99
:104AD0004093EA0AFF91EF91BF91AF919F918F911F
:104AE0007F916F915F914F913F912F910F900BBEEE
:104AF0000F900FBE0F901F9018951F920F920FB638
:104B00000F920BB60F9211242F933F934F935F9305
:104B10006F937F938F939F93AF93BF93EF93FF9385
:104B20008091F10A8093060B882361F41092C500EE
:104B30008091030B8093C4001092C60081E08093A3
:104B4000F10A40C0813081F41092C5008091020BBF
:104B50008093C4001092C60082E08093F10A109204
:104B6000F50A1092F40A2EC08091F40A9091F50A89
:104B70009093050B8093040BE091E70AF091E80A0B
:104B8000E80FF91F20812093C6009C012F5F3F4F43
:104B90003093050B2093040B8091F80A9091F90A49
:104BA0002817390759F4E091090BF0910A0B309757
:104BB00011F080E019951092F10A04C03093F50AC3
:104BC0002093F40AFF91EF91BF91AF919F918F9144
:104BD0007F916F915F914F913F912F910F900BBEFD
:104BE0000F900FBE0F901F90189521E030E030938A
:104BF000FB0A2093FA0A88E090E09093F70A8093EA
:104C0000F60A3093FD0A2093FC0A9093F90A8093E8
:104C1000F80A1092F00A08951F93CF93DF93EC01E6
:104C2000162FF894A8DE1C8F112321F487E08D8FB6
:104C300084E10BC0113021F483E08D8F8AE005C040
:104C4000123021F481E08D8F85E08E8F8B8D8F3F28
:104C500029F061E0D9D38B8D61E089D48B858823DD
:104C6000D1F481E061E0D0D31092C5008D8D8093A6
:104C7000C4008091C00082608093C0008091C20017
:104C80008E608093C2008091C10088648093C100CF
:104C90001092C60053C08130D1F482E161E0B4D3F8
:104CA0001092CD008D8D8093CC008091C8008260E1
:104CB0008093C8008091CA008E608093CA00809162
:104CC000C90088648093C9001092CE0037C082303A
:104CD000D1F480E161E098D31092D5008D8D80935E
:104CE000D4008091D00082608093D0008091D20067
:104CF0008E608093D2008091D10088648093D1002F
:104D00001092D6001BC08330C9F48EE061E07CD3E2
:104D1000109235018D8D8093340180913001826035
:104D200080933001809132018E60809332018091B6
:104D300031018864809331011092360181E08C87C3
:104D40008B899C890DD08A839B834B895C8960E029
:104D500070E00E9433017894DF91CF911F91089504
:104D60000F931F93CF93DF93BC018230910510F412
:104D700062E070E0E091180BF091190B40E050E018
:104D8000A0E0B0E024C08081918186179707D0F021
:104D90008617970771F482819381109729F01396F3
:104DA0009C938E9312972CC09093190B8093180BA1
:104DB00027C04115510519F08417950718F48D0186
:104DC000AC01EF01DF01828193819C01F9013097F1
:104DD000D1F641155105F9F0CA01861B970B8430B5
:104DE000910580F48A819B810115110521F0F8015C
:104DF0009383828304C09093190B8093180BFE0158
:104E0000329645C0FE01E80FF91F61937193029736
:104E1000998388833CC08091160B9091170B892B46
:104E200041F480917305909174059093170B8093D2
:104E3000160B40917505509176054115510541F4C9
:104E40004DB75EB78091710590917205481B590B63
:104E50002091160B3091170B24173507B0F4CA01B7
:104E6000821B930B8617970780F0AB014E5F5F4F55
:104E70008417950750F0420F531F5093170B409320
:104E8000160BF9016193719302C0E0E0F0E0CF01ED
:104E9000DF91CF911F910F910895CF93DF939C01E4
:104EA000009709F48FC0EC0122971B821A8260914F
:104EB000180B7091190B6115710581F48881998126
:104EC000820F931F2091160B3091170B281739076B
:104ED00039F5D093170BC093160B74C0DB0140E07B
:104EE00050E0AC17BD0708F1BB83AA83FE012191F6
:104EF0003191E20FF31FAE17BF0779F48D919C91AA
:104F00001197280F391F2E5F3F4F39832883129640
:104F10008D919C9113979B838A834115510571F460
:104F2000D093190BC093180B4DC012968D919C9184
:104F30001397AD01009711F0DC01D3CFDA0113967E
:104F4000DC93CE931297FA0121913191E20FF31F76
:104F5000CE17DF0769F488819981280F391F2E5FEA
:104F60003F4FFA01318320838A819B81938382831F
:104F7000E0E0F0E0DB0112968D919C911397009791
:104F800019F0BC01FD01F6CFAB014E5F5F4FDB01B5
:104F90008D919C91840F951F2091160B3091170BCA
:104FA0002817390779F4309729F41092190B1092C9
:104FB000180B02C013821282425050405093170BBC
:104FC0004093160BDF91CF9108951F920F920FB669
:104FD0000F9211242F933F938F939F93AF93BF937F
:104FE0008091110B9091120BA091130BB091140BA7
:104FF0003091150B0196A11DB11D232F2D5F2D376B
:1050000020F02D570196A11DB11D2093150B809303
:10501000110B9093120BA093130BB093140B809170
:105020000D0B90910E0BA0910F0BB091100B0196F0
:10503000A11DB11D80930D0B90930E0BA0930F0B30
:10504000B093100BBF91AF919F918F913F912F9192
:105050000F900FBE0F901F9018959B01AC017FB76A
:10506000F89480910D0B90910E0BA0910F0BB091C5
:10507000100B66B5A89B05C06F3F19F00196A11DE6
:10508000B11D7FBFBA2FA92F982F8827860F911D9A
:10509000A11DB11D62E0880F991FAA1FBB1F6A9551
:1050A000D1F7BC012DC0FFB7F89480910D0B909102
:1050B0000E0BA0910F0BB091100BE6B5A89B05C08D
:1050C000EF3F19F00196A11DB11DFFBFBA2FA92F07
:1050D000982F88278E0F911DA11DB11DE2E0880F2A
:1050E000991FAA1FBB1FEA95D1F7861B970B885EF5
:1050F0009340C8F2215030404040504068517C4FAE
:10510000211531054105510571F60895019739F0D2
:10511000880F991F880F991F02970197F1F708953B
:10512000789484B5826084BD84B5816084BD85B582
:10513000826085BD85B5816085BDEEE6F0E0808149
:1051400081608083E1E8F0E010828081826080836A
:10515000808181608083E0E8F0E0808181608083ED
:10516000E1EBF0E0808184608083E0EBF0E080811F
:1051700081608083E1E9F0E08081826080838081CA
:1051800081608083E0E9F0E0808181608083E1EAF2
:10519000F0E0808182608083808181608083E0EAAA
:1051A000F0E0808181608083E1E2F1E080818260D3
:1051B0008083808181608083E0E2F1E08081816092
:1051C0008083EAE7F0E08081846080838081826070
:1051D0008083808181608083808180688083109259
:1051E000C1000895382F863308F0365320917B0094
:1051F000832F86958695869590E08170907043E028
:10520000880F991F4A95E1F7277F282B20937B0071
:105210003770809177058295880F880F807C832B6B
:1052200080937C0080917A00806480937A008091E2
:105230007A0086FDFCCF2091780040917900942F70
:1052400080E030E0282B392BC90108951F93CF93BC
:10525000DF93182FEB0161E0D7D0209709F4CAC083
:10526000CF3FD10509F4C9C0E12FF0E0E254FE4F71
:105270008491893009F466C08A30B0F48430F1F149
:10528000853040F4823059F1833070F5813009F077
:10529000AEC020C0873009F443C0883008F048C051
:1052A000863009F0A4C034C08D3009F478C08E3047
:1052B00038F48B3009F45AC08C3008F066C04CC00A
:1052C000803109F480C0813109F487C08F3009F042
:1052D0008EC06FC084B5806884BDC7BD91C084B5E1
:1052E000806284BDC8BD8CC080918000806880933E
:1052F0008000D0938900C093880082C08091800094
:10530000806280938000D0938B00C0938A0078C025
:105310008091B00080688093B000C093B30070C0EB
:105320008091B00080628093B000C093B40068C0E8
:1053300080919000806880939000D0939900C093F2
:1053400098005EC080919000806280939000D0931E
:105350009B00C0939A0054C0809190008860809315
:105360009000D0939D00C0939C004AC08091A00003
:1053700080688093A0008091A0008F7B8093A00024
:10538000D093A900C093A8003BC08091A000806288
:105390008093A000D093AB00C093AA0031C080914D
:1053A000A00088608093A000D093AD00C093AC00B3
:1053B00027C080912001806880932001D09329012B
:1053C000C09328011DC0809120018062809320013C
:1053D000D0932B01C0932A0113C0809120018860D3
:1053E00080932001D0932D01C0932C0109C0C038B7
:1053F000D1051CF4812F60E002C0812F61E0B7D09D
:10540000DF91CF911F910895CF93DF93482F50E004
:10541000CA0188589E4FFC0134914E5C5E4FFA01E0
:105420008491882369F190E0880F991FFC01EC5169
:10543000FF4FA591B491FC01E250FF4FC591D4916B
:10544000662351F42FB7F8948C91932F909589236C
:105450008C93888189230BC0623061F42FB7F89454
:105460008C91932F909589238C938881832B8883AB
:105470002FBF06C09FB7F8948C91832B8C939FBF4E
:10548000DF91CF910895893009F449C08A30A0F4A2
:10549000843051F1853040F4823079F1833000F569
:1054A000813009F063C026C0873079F1883098F5E3
:1054B000863009F05BC025C08D3009F442C08E30C3
:1054C00028F48B30B1F18C30C0F52DC0803109F457
:1054D00042C0813109F445C08F3009F047C037C060
:1054E000809180008F7703C0809180008F7D8093B2
:1054F0008000089584B58F7702C084B58F7D84BD08
:1055000008958091B0008F7703C08091B0008F7DA7
:105510008093B0000895809190008F7707C08091AC
:1055200090008F7D03C080919000877F80939000D2
:1055300008958091A0008F7707C08091A0008F7D93
:1055400003C08091A000877F8093A0000895809180
:1055500020018F7703C0809120018F7D80932001EF
:10556000089580912001877F809320010895FF9204
:105570000F931F93F62E482F50E0CA0182549E4F7E
:10558000FC012491CA0188589E4FFC0114914E5C85
:105590005E4FFA0104910023C1F0222311F0822F03
:1055A00072DFE02FF0E0EE0FFF1FE250FF4FA591FA
:1055B000B4919FB7F894FF2021F48C91109581232A
:1055C00002C08C91812B8C939FBF1F910F91FF90F4
:1055D00008950F931F93482F50E0CA0182549E4FA5
:1055E000FC012491CA0188589E4FFC0104914E5C35
:1055F0005E4FFA011491112319F420E030E014C039
:10560000222311F0822F3FDF812F90E0880F991F16
:10561000885E9E4FFC01A591B4918C9120E030E012
:10562000802311F021E030E0C9011F910F9108950E
:105630000895CF93DF9374DDFBDF0E94541EC0E01A
:10564000D0E00E94491E2097E1F30E940000F9CFAC
:105650000895CF92DF92EF92FF920F931F93CF9313
:10566000DF937C016B018A01C0E0D0E00FC0D6015E
:105670006D916D01D701ED91FC910190F081E02DCC
:10568000C7011995C80FD91F015010400115110508
:1056900071F7CE01DF91CF911F910F91FF90EF90A5
:1056A000DF90CF900895CF93DF93EC0161157105E2
:1056B00019F420E030E00FC0DB010D900020E9F785
:1056C0001197A61BB70BE881F9810280F381E02DC9
:1056D000AD0119959C01C901DF91CF9108954F92B9
:1056E0005F927F928F929F92AF92BF92CF92DF9202
:1056F000EF92FF920F931F93DF93CF93CDB7DEB757
:10570000A1970FB6F894DEBF0FBECDBF2C01742E4B
:10571000CB01223008F42AE019A231E2C32ED12CA9
:10572000CC0EDD1E822E9924AA24BB24672D752F52
:10573000A5019401D7D079018A01C801B701A5015B
:1057400094019ED0472D461B0894C108D1084A30C9
:1057500014F4405D01C0495CF6014083E114F1049A
:105760000105110521F07E2C5F2DC801DFCFC2019C
:10577000B60199DFA1960FB6F894DEBF0FBECDBF7C
:10578000CF91DF911F910F91FF90EF90DF90CF901D
:10579000BF90AF909F908F907F905F904F900895B3
:1057A000DC012115310541F4ED91FC910190F0816E
:1057B000E02D642F1995089592CFEF92FF920F93E9
:1057C0001F939A01E62EFF2400E010E0B801A70124
:1057D000E7DF1F910F91FF90EF900895CF92DF9236
:1057E000EF92FF920F931F93CF93DF93EC016A0127
:1057F0007B012115310541F4E881F9810190F081A7
:10580000E02D642F19951DC02A303105C9F477FFAA
:1058100016C0E881F9810190F081E02D6DE21995C3
:105820008C0144275527BA014C195D096E097F097F
:10583000CE012AE054DF9801280F391F03C02AE067
:105840004EDF9C01C901DF91CF911F910F91FF9015
:10585000EF90DF90CF900895EF92FF920F931F93F8
:105860007B019A010027F7FC0095102FB801A701D2
:10587000B5DF1F910F91FF90EF90089514CF089519
:10588000629FD001739FF001829FE00DF11D649F24
:10589000E00DF11D929FF00D839FF00D749FF00DB0
:1058A000659FF00D9927729FB00DE11DF91F639F51
:1058B000B00DE11DF91FBD01CF011124089597FB23
:1058C000092E07260AD077FD04D02ED006D000205E
:1058D0001AF4709561957F4F0895F6F7909581952C
:1058E0009F4F0895A1E21A2EAA1BBB1BFD010DC0FC
:1058F000AA1FBB1FEE1FFF1FA217B307E407F50780
:1059000020F0A21BB30BE40BF50B661F771F881F5B
:10591000991F1A9469F760957095809590959B01F1
:10592000AC01BD01CF010895AA1BBB1B51E107C00B
:10593000AA1FBB1FA617B70710F0A61BB70B881F1F
:10594000991F5A95A9F780959095BC01CD010895AE
:10595000EE0FFF1F0590F491E02D1994F894FFCFFE
:10596000303030006100202020005F5F5F004D6517
:105970006D6F727920456D707469656421004261B4
:105980006E6B3A2052414D0041726475696E6F2012
:10599000444D582D3531320054657374657220269C
:1059A00020436F6E74726F6C6C6572004669726D25
:1059B0002076002E00486172642076004F70656E7C
:1059C0002048617264776172652100687474703A6E
:1059D0002F2F676F6F2E676C2F356E714A4B7400D7
:1059E0003E002B002D2D2D002D0020004D656D6FEC
:1059F00072792042616E6B3A0042616E6B312020F9
:105A000042616E6B34202042616E6B370042616EE2
:105A10006B32202042616E6B35202042616E6B3804
:105A20000042616E6B33202042616E6B3620204550
:105A30007869740053617665004C6F616400436C53
:105A4000656172004D656D6F7279204C6F616465A0
:105A500064210042616E6B3A20004D656D6F727972
:105A600020436C65616E696E672E2E2E004D656D4C
:105A70006F727920436C65616E656421004D656DC0
:105A80006F727920536176696E672E2E2E004D65F8
:105A90006D6F727920536176656421004D656D6F7D
:105AA0007279204F7074696F6E733A202020620003
:105AB000456D70747900426C61636B0043616E6385
:105AC000656C004C434420436F6E6669673A004141
:105AD000626F7574004261636B204C696768743A49
