:1000000004C100002FC100002DC100002BC1000061
:1000100029C1000027C1000025C1000023C1000044
:1000200021C100001FC100001DC100001BC1000054
:1000300019C1000017C1000015C1000013C1000064
:1000400011C100000FC100000DC100000BC1000074
:1000500009C1000007C1000005C100000C942A2757
:1000600001C100000C942224FDC000000C94C224A5
:10007000F9C00000F7C00000F5C00000F3C00000A8
:10008000F1C00000EFC00000EDC00000EBC00000B8
:10009000E9C00000E7C00000E5C000000C94582251
:1000A000E1C00000DFC00000DDC00000DBC00000D8
:1000B000D9C00000D7C00000D5C00000D3C00000E8
:1000C000D1C00000CFC00000CDC00000CBC00000F8
:1000D000C9C00000C7C00000C5C00000C3C0000008
:1000E000C1C0000000002100240027002A002D00CC
:1000F0003000330001010000040107010A01000083
:100100002200250028002B002E00310034000201BF
:100110000000050108010B0100002000230026005B
:1001200029002C002F00320000010000030106010D
:10013000090105050505070508080808020202026D
:100140000A0A080804040404010101010101010173
:100150000303030303030303040707070C0C0C0C3E
:100160000C0C0C0C02020202060606060606060627
:100170000B0B0B0B0B0B0B0B0102102020080810B4
:100180002040102040800201020108040201010207
:1001900004081020408080402010080402018004E0
:1001A000020180402010080402010804020101023B
:1001B0000408102040800102040810204080000044
:1001C000090A02080B0C0D070603040100000000D9
:1001D000000000000000000000000000000000001F
:1001E0000000000000000000000011100F000000DF
:1001F00000000000000000000000000000000000FF
:10020000000000003A01C7213A2511241FBECFEF9C
:10021000D1E2DEBFCDBF00E00CBF15E0A0E0B2E050
:10022000EAEEF7E500E00BBF02C007900D92A23A9C
:10023000B107D9F71BBE1BE0A2EAB5E001C01D92D1
:10024000AC30B107E1F712E0CAE0D2E004C0229777
:10025000FE010E94EF2BC430D107C9F70E945E2A2D
:100260000C94F32BCDCEDC0101C06D934150504076
:10027000E0F70895CF92EF920F938FEF99E060919E
:100280004F05409151052091530500915505E0908F
:100290005705C09059050E945B210F91EF90CF90B8
:1002A00008953F924F925F926F927F928F929F92AA
:1002B000AF92BF92CF92DF92EF92FF920F931F9374
:1002C00081E18093480555245394B4E04B2EA7E078
:1002D0003A2EFFE09F2EE2E08E2E75E0772E68E04A
:1002E000662E53E0C52E46E0B42E39E0A32E1EE064
:1002F0000AE02BE0F22E9CE0E92E8DE0D82EBAC168
:100300008091380560E00E94FC29809140050E94A0
:100310002E2A892B61F4509248056091490570910D
:100320004A0580914B0590914C050E94722765E02B
:1003300070E080E090E00E947227809142050E9468
:100340002E2A892B61F440924805609149057091ED
:100350004A0580914B0590914C050E94722765E0FB
:1003600070E080E090E00E947227809144050E9436
:100370002E2A892B61F430924805609149057091CD
:100380004A0580914B0590914C050E94722765E0CB
:1003900070E080E090E00E947227809146050E9404
:1003A0002E2A892B61F4909248056091490570913D
:1003B0004A0580914B0590914C050E94722765E09B
:1003C00070E080E090E00E9472278091380561E043
:1003D0000E94FC2980913A0560E00E94FC298091EE
:1003E00040050E942E2A892B61F480924805609175
:1003F000490570914A0580914B0590914C050E94EA
:10040000722765E070E080E090E00E9472278091A2
:1004100042050E942E2A892B61F470924805609152
:10042000490570914A0580914B0590914C050E94B9
:10043000722765E070E080E090E00E947227809172
:1004400044050E942E2A892B61F460924805609130
:10045000490570914A0580914B0590914C050E9489
:10046000722765E070E080E090E00E947227809142
:1004700046050E942E2A892B61F41092480560914E
:10048000490570914A0580914B0590914C050E9459
:10049000722765E070E080E090E00E947227809112
:1004A0003A0561E00E94FC2980913C0560E00E94D1
:1004B000FC29809140050E942E2A892B61F4C0926C
:1004C00048056091490570914A0580914B059091CE
:1004D0004C050E94722765E070E080E090E00E9489
:1004E0007227809142050E942E2A892B61F4B092D6
:1004F00048056091490570914A0580914B0590919E
:100500004C050E94722765E070E080E090E00E9458
:100510007227809144050E942E2A892B61F4A092B3
:1005200048056091490570914A0580914B0590916D
:100530004C050E94722765E070E080E090E00E9428
:100540007227809146050E942E2A892B61F4109310
:1005500048056091490570914A0580914B0590913D
:100560004C050E94722765E070E080E090E00E94F8
:10057000722780913C0561E00E94FC2980913E0534
:1005800060E00E94FC29809140050E942E2A892B60
:1005900061F4009348056091490570914A05809186
:1005A0004B0590914C050E94722765E070E080E059
:1005B00090E00E947227809142050E942E2A892B8A
:1005C00061F4F09248056091490570914A05809167
:1005D0004B0590914C050E94722765E070E080E029
:1005E00090E00E947227809144050E942E2A892B58
:1005F00061F4E09248056091490570914A05809147
:100600004B0590914C050E94722765E070E080E0F8
:1006100090E00E947227809146050E942E2A892B25
:1006200061F4D09248056091490570914A05809126
:100630004B0590914C050E94722765E070E080E0C8
:1006400090E00E94722780913E0561E00E94FC29A3
:10065000809136050E942E2A892B61F4109348055B
:100660006091490570914A0580914B0590914C0528
:100670000E94722780914805813109F441CE1F9173
:100680000F91FF90EF90DF90CF90BF90AF909F9031
:100690008F907F906F905F904F903F9008958FEF75
:1006A00099E063E142E00E947A1F8FEF99E00E9497
:1006B000641F80E090E0E091D90AF091DA0AE80F37
:1006C000F91F1082019622E080309207A1F78091F5
:1006D00036050E942E2A0197D1F36CE271E080E08A
:1006E00090E00E947227A4EAB5E020E030E0E091BB
:1006F000D90AF091DA0AE20FF31F8C9180832F5F01
:100700003F4F129682E02030380789F78FEF99E04B
:100710006DE042E00E947A1F8FEF99E00C946C1F0D
:100720000F931F93CF93DF93EC01162F042F8FEFBE
:1007300099E00E947A1F8FEF99E060E072E00E94DA
:10074000832BCA30D1053CF4612F6E5F8FEF99E0A7
:10075000402F0E947A1FCE010A978A35910538F4FE
:10076000612F6F5F8FEF99E0402F0E947A1FC43690
:10077000D10534F08FEF99E0612F402F0E947A1F4E
:100780008FEF99E0BE014AE050E00E94712BDF91AB
:10079000CF911F910F910895DF92EF92FF920F93E7
:1007A0001F93CF93DF93D82E062F682F61508FEFC2
:1007B00099E0402F0E947A1F8FEF99E064E072E089
:1007C0000E94832B80913C0560E00E94FC298FEF02
:1007D00099E00E94641FEE24FF241EC08C2F912FED
:1007E0006D2D70E0402F50E09BDF80912C059091A3
:1007F0002D050197E091D90AF091DA0AE80FF91F67
:10080000C083E0912C05F0912D05EE0FFF1FEE55F2
:10081000FA4FC08311837E01809146050E942E2AE3
:100820000197D9F4809136050E942E2A0197A9F4E8
:1008300080914D050E94372864E070E00E94A42B4F
:10084000172FC62FD72F62E370E080E090E00E9460
:100850007227EC16FD0601F3C1CF8FEF99E00E94DD
:100860006C1F80913C0561E00E94FC296CE271E004
:1008700080E090E00E947227DF91CF911F910F914D
:10088000FF90EF90DF9008951F9380913E0560E008
:100890000E94FC291FEF809144050E942E2A019797
:1008A00009F046C0809136050E942E2A019709F072
:1008B0003FC080912C0590912D050197E091D90AB8
:1008C000F091DA0AE80FF91F10836091FB0970E0DC
:1008D000625070404091FC098FEF90E050E020DFC3
:1008E00064E670E080E090E00E94722780912C0521
:1008F00090912D050197E091D90AF091DA0AE80F5D
:10090000F91F10826091FB0962508FEF99E04091CE
:10091000FC090E947A1F8FEF99E066E072E00E9466
:10092000832B64E670E080E090E00E947227B3CFF2
:1009300080913E0561E00E94FC296CE271E080E05C
:1009400090E00E9472278FEF99E06091FB0940913F
:10095000FC090E947A1F1F910895CF92DF92EF92B7
:10096000FF920F931F938C016DE070E040E050E028
:10097000D7DE7EE0C72ED12CC00ED11EC60161E1AC
:1009800070E040E050E0CCDE62EAE62E65E0F62E54
:10099000F801EE0FFF1FEE0DFF1D8081918161E0D8
:1009A00070E041E050E0BCDEF8013196EE0FFF1F31
:1009B000EE0DFF1D8081918165E070E041E050E027
:1009C000AFDEF8013296EE0FFF1FEE0DFF1D8081A6
:1009D000918169E070E041E050E0A2DEF8013396D9
:1009E000EE0FFF1FEE0DFF1D808191816DE070E025
:1009F00041E050E095DEF8013496EE0FFF1FEE0D5A
:100A0000FF1D8081918161E170E041E050E088DE6E
:100A1000F8013596EE0FFF1FEE0DFF1D80819181CD
:100A200061E070E042E050E07BDEF8013696EE0FC8
:100A3000FF1FEE0DFF1D8081918165E070E042E0B7
:100A400050E06EDEF8013796EE0FFF1FEE0DFF1D32
:100A50008081918169E070E042E050E061DEF80160
:100A60003896EE0FFF1FEE0DFF1D808191816DE026
:100A700070E042E050E054DEF8013996EE0FFF1FBF
:100A8000EE0DFF1D8081918161E170E042E050E058
:100A900047DEF8013A96EE0FFF1FEE0DFF1D808135
:100AA000918161E070E043E050E03ADEF8013B966E
:100AB000EE0FFF1FEE0DFF1D8081918165E070E05C
:100AC00043E050E02DDE045F1F4FF801EE0FFF1FE3
:100AD000EE0DFF1D8081918169E070E043E050E000
:100AE0001FDE0F5F1F4F000F111F0E0D1F1DF8019E
:100AF000808191816DE070E043E050E011DECC0C2C
:100B0000DD1CEC0CFD1CF7018081918161E170E03E
:100B100043E050E005DE1F910F91FF90EF90DF90D2
:100B2000CF900895FF920F931F93CF93DF93F82EEA
:100B30008FEF99E06091FB094091FC090E947A1FB8
:100B40008FEF99E06AE072E00E94832B8FEF99E0CB
:100B50000E94641F6091FB096E5F6093FB098FEF39
:100B600099E04091FC090E947A1F9BDB6091480547
:100B70006A3018F000E010E016C08FEF99E04AE00C
:100B800050E00E94222B8FEF99E06091FB09409189
:100B9000FC090E947A1F80914805082F10E01093ED
:100BA000FE090093FD09809148058E3009F4D8C0F4
:100BB00091E0F91691F48A3009F470C08B3009F491
:100BC00076C08C3009F47AC08D3039F488EC92E02C
:100BD0009093FE098093FD09DFC063DB8091480597
:100BE0008E3029F41093FE090093FD09B9C091E0FD
:100BF000F91659F48A3009F451C08B3009F457C002
:100C00008C3009F45BC08D3009F38A3018F0C0E0F5
:100C1000D0E029C06091FB0961506093FB098FEF20
:100C200099E04091FC090E947A1F8FEF99E0B8018A
:100C30004AE050E00E94712B8FEF99E060914805E7
:100C40004AE050E00E94222B80914805C82FD0E056
:100C50006091FB096F5F6093FB098FEF99E0409112
:100C6000FC090E947A1F1DDB809148058E3089F4B3
:100C7000C801B3E0880F991FBA95E1F7000F111F63
:100C8000800F911FC80FD91FD093FE09C093FD0993
:100C900067C091E0F916C1F48A3039F48FEF90E023
:100CA0009093FE098093FD095BC08B3029F410926C
:100CB000FE091092FD0954C08C3019F484E692E0CC
:100CC00087CF8D3009F482CF8A3008F049C0609117
:100CD000FB0962506093FB098FEF99E04091FC099A
:100CE0000E947A1F8FEF99E0B8014AE050E00E941D
:100CF000712B8FEF99E0BE014AE050E00E94712B0A
:100D00006091FB096E5F6093FB098FEF99E0409162
:100D1000FC090E947A1F8FEF99E0609148054AE034
:100D200050E00E94222B84E690E0089F9001099FEA
:100D3000300D189F300D112480914805280F311D6A
:100D4000CE01F3E0880F991FFA95E1F7CC0FDD1F74
:100D50008C0F9D1F280F391F3093FE092093FD092A
:100D60008FEF99E00E946C1F6091FB0970E0625068
:100D700070404091FC098091FD099091FE0950E07E
:100D8000CFDC6091FB0964506093FB098FEF99E021
:100D90004091FC090E947A1F8FEF99E00E946C1F1E
:100DA0008FEF99E06091FB094091FC090E947A1F46
:100DB0006CE271E080E090E00E947227DF91CF91B9
:100DC0001F910F91FF9008958FEF99E00E94A21F4D
:100DD000A2EAB5E080E090E01D921D92E091D90A70
:100DE000F091DA0AE80FF91F1082019622E08130B3
:100DF000920791F78FEF99E00E94A21F8FEF99E081
:100E000063E041E00E947A1F8FEF99E06EE072E0AC
:100E10000E94832B8FEF99E063E042E00E947A1FEB
:100E20008FEF99E06EE172E00E94832B8FEF99E0E3
:100E300063E143E00E947A1F8FEF99E00E94641FF4
:100E400060ED77E080E090E00E9472278FEF99E0FC
:100E50000C946C1FCF93DF938FEF99E00E94A21F39
:100E6000C0E0D0E08FEF99E0BE0142E050E00E9488
:100E7000712B219682E0C130D807A1F78FEF99E05E
:100E80000E94A21F8FEF99E00E94641F8FEF99E0EC
:100E900063E040E00E947A1F8FEF99E068E272E021
:100EA0000E94832B8FEF99E061E041E00E947A1F5E
:100EB0008FEF99E068E372E00E94832B8FEF99E057
:100EC00060E043E00E947A1F8FEF99E06CE472E0EB
:100ED0000E94832B8FEF99E060E04AE050E00E948F
:100EE000222B8FEF99E063E572E00E94832B8FEF56
:100EF00099E069E04AE050E00E94222B8FEF99E0F0
:100F00006BE043E00E947A1F8FEF99E065E572E0A5
:100F10000E94832B8FEF99E060E04AE050E00E944E
:100F2000222B8FEF99E063E572E00E94832B8FEF15
:100F300099E064E04AE050E00E94222B8FEF99E0B4
:100F400062E040E00E947A1F809136050E942E2ABE
:100F50000197D1F36CE271E080E090E00E9472278B
:100F60008FEF99E00E94A21F8FEF99E063E041E0CC
:100F70000E947A1F8FEF99E06CE572E00E94832B4C
:100F80008FEF99E060E043E00E947A1F8FEF99E0D5
:100F90006BE672E00E94832B8FEF99E062E041E004
:100FA0000E947A1F809136050E942E2A0197D1F364
:100FB0006CE271E080E090E00E9472278FEF99E090
:100FC0000E946C1FDF91CF91089586ED9AE061E059
:100FD00072E00E94ED23682F8091160A882361F445
:100FE0006623D1F480915B056FE770E00E946B2867
:100FF00081E08093160A0AC0813041F480915B053C
:1010000060E070E00E946B281092160A6CE271E0BA
:1010100080E090E00C94722780915B0570E0E6CF51
:101020002F923F924F925F926F927F928F929F92F8
:10103000AF92BF92CF92DF92EF92FF920F931F93E6
:10104000DF93CF93CDB7DEB763970FB6F894DEBFCB
:101050000FBECDBF89837B8B6A8B0091A90910914C
:10106000AA098FEF99E0602F412F0E947A1F8FEF1E
:1010700099E060E872E00E94832B8A899B890D9633
:101080009B838A83EA89FB893896FD83EC838A896E
:101090009B8903969F838E83EA89FB893E96F98715
:1010A000E8878A899B8909969B878A87EA89FB89D1
:1010B0003496FD87EC876AE0262E312C8A899B893D
:1010C000280E391E0B969F878E87EA89FB893C96EE
:1010D000F98BE88B57E0852E912C8A899B89880EA5
:1010E000991E46E0642E712C680E791E35E0432E61
:1010F000512C480E591E6C010894C11CD11C22E0D1
:10110000A22EB12CA80EB91E84E1E82EF12C8091FC
:10111000380560E00E94FC29809146050E942E2A35
:10112000892B59F46091490570914A0580914B05CE
:1011300090914C050E94722748DF8091380561E04C
:101140000E94FC29809132050E942E2A892BF9F4F5
:101150006CE271E080E090E00E9472272091A90982
:101160008091AA0990E08E9DA0018F9D500D9E9DBB
:10117000500D1124222309F424E12150FA01E20F39
:10118000F11DE555F64F80818130A1F724C0809193
:1011900034050E942E2A892B09F56CE271E080E06B
:1011A00090E00E9472272091A9098091AA0990E0FD
:1011B0008E9DA0018F9D500D9E9D500D11242F5F7F
:1011C000243108F020E0FA01E20FF11DE555F64F59
:1011D00080818130A1F72093A9094EC1809130050B
:1011E0000E942E2A892B09F56CE271E080E090E0E4
:1011F0000E9472272091AA098091A909482F50E0E6
:101200002F5F243008F020E0822F90E08E9DF001C7
:101210008F9DF00D9E9DF00D1124E40FF51FE555F7
:10122000F64F8081813061F726C080912E050E94A3
:101230002E2A892B19F56CE271E080E090E00E9483
:1012400072272091AA098091A909482F50E02223F2
:1012500009F424E02150822F90E08E9DF0018F9DB3
:10126000F00D9E9DF00D1124E40FF51FE555F64F8E
:101270008081813061F72093AA09FEC080913605F4
:101280000E942E2A892B09F042CF6CE271E080E0A7
:1012900090E00E9472274091AA096091A909842FC9
:1012A00090E08E9DF0018F9DF00D9E9DF00D11241C
:1012B000E60FF11DE555F64F8081813009F0FAC047
:1012C0008FEF99E00E947A1F8FEF99E062E872E059
:1012D0000E94832B82E0C8C09091A9099C3031F410
:1012E0008091AA09882309F048C01FC0903181F479
:1012F0008091AA09882309F049C08FEF99E061E045
:1013000040E00E947A1F8FEF99E064E872E0A9C084
:10131000943029F48091AA098823F9F406C0983002
:1013200089F48091AA09882301F58FEF99E061E0A3
:1013300040E00E947A1F8FEF99E064E872E00E941B
:10134000832B85C0992339F48091AA09813039F51E
:101350008A899B8977C0943031F48091AA098130C1
:10136000E1F4C6016FC0983031F48091AA09813050
:10137000E1F4C50167C09C3039F48091AA0981303D
:1013800031F58E819F815EC0903139F48091AA0938
:10139000813031F58C859D8555C0992331F480913C
:1013A000AA09823031F5C2014DC0943031F48091E8
:1013B000AA09823031F5C30145C0983031F48091DB
:1013C000AA09823039F5C4013DC09C3039F48091BE
:1013D000AA09823041F58C819D8134C0903139F465
:1013E0008091AA09823041F58A859B852BC099237B
:1013F00031F48091AA09833051F5C10123C09430A2
:1014000039F48091AA09833011F58E859F851AC021
:10141000983039F48091AA098330C9F48889998970
:1014200011C09C3039F48091AA09833081F48A81FB
:101430009B8108C0903159F48091AA09833039F416
:101440008885998561E070E040E050E069D98FEFD0
:1014500099E060E140E00E947A1F8FEF99E068E830
:1014600072E00E94832B81E00091A9091091AA09E2
:10147000823009F04CCE1FC08FEF99E0602F412FD2
:101480000E947A1F8FEF99E06AE872E00E94832B36
:101490008FEF99E06091A9094091AA090E947A1FF3
:1014A0008FEF99E060E872E00E94832B9981913080
:1014B000D1F612CFFFCF63960FB6F894DEBF0FBE02
:1014C000CDBFCF91DF911F910F91FF90EF90DF90F3
:1014D000CF90BF90AF909F908F907F906F905F90D4
:1014E0004F903F902F9008951F93182F8FEF99E002
:1014F0000E94A21F68EC70E080E090E00E947227DA
:101500008FEF99E066E040E00E947A1F8FEF99E04C
:101510006CE872E00E94832B8FEF99E061E041E07C
:101520000E947A1F8FEF99E069E972E00E94832B95
:101530008FEF99E061E042E00E947A1F8FEF99E01F
:101540006DEA72E00E94832B8FEF99E061E043E047
:101550000E947A1F8FEF99E061EC72E00E94832B6A
:10156000123079F01330C1F0113011F58FEF99E09E
:1015700061E040E00E947A1F8FEF99E064ED72E035
:1015800015C08FEF99E061E040E00E947A1F8FEF75
:1015900099E069ED72E00AC08FEF99E060E040E009
:1015A0000E947A1F8FEF99E06EED72E00E94832B0C
:1015B0008FEF99E063E140E00E947A1F6091A809F3
:1015C000662339F48FEF99E068E872E00E94832B7C
:1015D00006C08FEF99E04AE050E00E94222B109263
:1015E000A90981E08093AA09EBEAF9E0DF01989666
:1015F0001082148A1C9254961C925497319611961C
:1016000089E0EF3BF807A1F781E08083848B80A716
:101610008783838F87A7868782A386AB80E060E07D
:1016200070E0FEDC8091A909882349F48091AA0921
:10163000813001F18230F1F0833031F51BC0873009
:1016400071F48091AA09813011F484E013C08230D2
:1016500011F485E00FC08330B9F486E00BC08E3002
:1016600099F48091AA09813011F487E003C0823097
:1016700021F488E08093A80907C020E030E083309F
:1016800029F421E030E002C020E030E0C9011F91E0
:101690000895EF92FF920F931F93CF93DF9382E011
:1016A00023DF019719F421E030E099C08FEF99E032
:1016B0000E94A21F74EAE72E75E0F72E00E010E00A
:1016C000C1E0D0E08091A8098430E1F0853038F4A1
:1016D000823081F0833090F4813069F509C0863022
:1016E000C9F0863098F08730C9F0883021F51AC0EB
:1016F0008E0121C08E0100501E4F1DC08E01005072
:101700001C4F19C08E0100501A4F15C08E01005099
:10171000184F11C08E010050164F0DC08E010050A1
:10172000144F09C08E010050124F8FE00E3F180772
:1017300014F00DEF1FE086ED9AE0B8010E94ED2352
:10174000F701808311822197E091D90AF091DA0A9A
:10175000EC0FFD1F8083229682E090E0E80EF91ED8
:1017600092E0C130D90709F0ADCF8FEF99E00E9428
:10177000A21F8FEF99E063E041E00E947A1F8FEF94
:1017800099E064EE72E00E94832B8FEF99E063E0B2
:1017900042E00E947A1F8FEF99E063EF72E00E94AF
:1017A000832B8FEF99E06091A8094AE050E00E94F6
:1017B000222B8FEF99E063E143E00E947A1F8FEFC5
:1017C00099E00E94641F60ED77E080E090E00E9465
:1017D00072278FEF99E00E946C1F20E030E0C90172
:1017E000DF91CF911F910F91FF90EF90089560913D
:1017F00061057091620586ED9AE00E94ED23682FE5
:10180000863908F466E980915D0570E00C946B28D8
:101810001F9360915F057091600586ED9AE00E94CC
:10182000ED23182F80915B05612F70E00E946B28DB
:10183000112319F41092160A03C081E08093160A4E
:101840001F910895EF92FF920F931F93CF93DF9311
:1018500083E04ADE019719F421E030E0C5C08FEF44
:1018600099E00E94A21F8FEF99E061E041E00E94A1
:101870007A1F8FEF99E06AEF72E00E94832B8FEF5F
:1018800099E061E042E00E947A1F8FEF99E063EFF8
:1018900072E00E94832B8FEF99E067E042E00E94A4
:1018A0007A1F8FEF99E06091A8094AE050E00E940A
:1018B000222B8FEF99E063E143E00E947A1F8FEFC4
:1018C00099E00E94641FE2EAEE2EE5E0FE2E00E0C1
:1018D00010E0C0E0D0E0F70111821082E091D90A57
:1018E000F091DA0AEC0FFD1F10828091A809843074
:1018F000E1F0853038F4823081F0833090F481302B
:1019000069F509C08630C9F0863098F08730C9F093
:10191000883021F51AC08E0121C08E0100501E4F63
:101920001DC08E0100501C4F19C08E0100501A4F6F
:1019300015C08E010050184F11C08E010050164F77
:101940000DC08E010050144F09C08E010050124F7F
:10195000FFE00E3F1F0714F00DEF1FE086ED9AE049
:10196000B80140E00E94F423219682E090E0E80E66
:10197000F91E92E0C130D90709F0ADCF8FEF99E0A1
:101980000E94A21F8FEF99E062E041E00E947A1F5F
:101990008FEF99E06DE073E00E94832B8FEF99E069
:1019A00062E042E00E947A1F8FEF99E063EF72E0FD
:1019B0000E94832B8FEF99E06091A8094AE050E0E4
:1019C0000E94222B8FEF99E063E143E00E947A1F8F
:1019D00060ED77E080E090E00E9472278FEF99E061
:1019E0000E946C1F20E030E0C901DF91CF911F9170
:1019F0000F91FF90EF900895EF92FF920F931F9336
:101A0000CF93DF9381E070DD019719F421E030E09E
:101A1000BDC08FEF99E00E94A21F8FEF99E061E0B7
:101A200041E00E947A1F8FEF99E06DE173E00E9420
:101A3000832B8FEF99E061E042E00E947A1F8FEFE5
:101A400099E063EF72E00E94832B8FEF99E067E0EB
:101A500042E00E947A1F8FEF99E06091A8094AE066
:101A600050E00E94222B8FEF99E063E143E00E9457
:101A70007A1F8FEF99E00E94641FF4EAEF2EF5E0E1
:101A8000FF2EC0E0D0E001E010E08091A809843092
:101A9000E1F0853038F4823081F0833090F4813089
:101AA00069F509C08630C9F0863098F08730C9F0F2
:101AB000883021F51AC0E80121C0E801C050DE4F8E
:101AC0001DC0E801C050DC4F19C0E801C050DA4F1A
:101AD00015C0E801C050D84F11C0E801C050D64F22
:101AE0000DC0E801C050D44F09C0E801C050D24F2A
:101AF0008FE0CE3FD80714F0CDEFDFE086ED9AE01F
:101B0000BE01F70140810E94F4230F5F1F4F82E066
:101B100090E0E80EF91E92E00130190709F0B5CF08
:101B20008FEF99E00E94A21F8FEF99E063E041E000
:101B30000E947A1F8FEF99E06EE273E00E94832B80
:101B40008FEF99E063E042E00E947A1F8FEF99E007
:101B500063EF72E00E94832B8FEF99E06091A809F8
:101B60004AE050E00E94222B8FEF99E063E143E0CE
:101B70000E947A1F60ED77E080E090E00E9472277B
:101B80008FEF99E00E946C1F20E030E0C901DF91E7
:101B9000CF911F910F91FF90EF9008958FEF99E0F3
:101BA0000E94A21F8FEF99E060E040E00E947A1F40
:101BB0008FEF99E06CE373E00E94832B6091A8099A
:101BC000662339F48FEF99E068E872E00E94832B76
:101BD00006C08FEF99E04AE050E00E94222B8FEF81
:101BE00099E061E042E00E947A1F8FEF99E064ED96
:101BF00072E00E94832B8FEF99E061E043E00E9446
:101C00007A1F8FEF99E069ED72E00E94832B8FEFCE
:101C100099E067E042E00E947A1F8FEF99E060E56B
:101C200073E00E94832B8FEF99E067E043E00E940E
:101C30007A1F8FEF99E06EED72E00E94832B8FEF99
:101C400099E06EE042E00E947A1F8FEF99E066E52E
:101C500073E00E94832B8FEF99E06EE043E00E94D7
:101C60007A1F8FEF99E06CE573E00E94832B10924E
:101C7000A90982E08093AA09EBEAF9E0DF019896CE
:101C80001082148A1C9254961C9254973196119685
:101C900089E0EF3BF807A1F781E0848B80A786A756
:101CA000828F81A385AB80E060E070E0B9D980913C
:101CB000A909882349F48091AA09833081F4E9DCD9
:101CC000019709F46BCF0895863099F48091AA09A1
:101CD000833061F4B7DD019709F460CF0895823055
:101CE00089F48ADE019709F459CF0895823051F4BE
:101CF0006BC88D3039F48091AA09823019F40E94A2
:101D00004F03D1CF0895CF92DF92EF92FF920F93BE
:101D10001F93CF93DF931EE0C12EBFE0DB2ECFEFEA
:101D2000D0E0A6E9EA2EF12C60915F057091600584
:101D300086ED9AE00E94ED23182F60916105709165
:101D4000620586ED9AE00E94ED23082F8FEF99E05F
:101D50000E94A21F8FEF99E060E040E00E947A1F8E
:101D60008FEF99E063E673E00E94832B8FEF99E099
:101D70006FE040E00E947A1F8FEF99E06FE673E01A
:101D80000E94832B8FEF99E063E041E00E947A1F6D
:101D90008FEF99E065E773E00E94832B812F90E03D
:101DA0006FE070E041E050E00E9490038FEF99E017
:101DB00065E042E00E947A1F8FEF99E061E873E0EE
:101DC0000E94832B802F90E06FE070E042E050E0B3
:101DD0000E9490038FEF99E06FE043E00E947A1F2A
:101DE0008FEF99E06BE873E00E94832BC092A90902
:101DF00082E08093AA09EBEAF9E0DF01989610826D
:101E0000148A1C9254961C9254973196119629E08C
:101E1000EF3BF207A1F781E0868782A386AB809330
:101E2000B90980E060E070E0FBD88091A9098E30AC
:101E3000C1F78091AA09813009F083C08093FC0921
:101E4000D092FB090E9492058091FD099091FE09B4
:101E500022E0883C920709F045C08FEF99E06EE0E0
:101E600041E00E947A1F8FEF99E064E072E00E94E7
:101E7000832B80913C0560E00E94FC298FEF99E064
:101E80000E94641F809146050E942E2A019709F046
:101E900003C1809136050E942E2A019709F0FCC0EB
:101EA00080914D050E94372864E070E00E94A42BC9
:101EB000CB016093FD099093FE096FE070E041E073
:101EC00050E00E9490036091FD097091FE0980919D
:101ED0005B050E946B2862E370E080E090E00E9466
:101EE0007227D0CF8F3F910569F064F0D093FE093F
:101EF000C093FD098FEF90E06FE070E041E050E0AB
:101F00000E9490036091FD097091FE0980915B052C
:101F10000E946B284091FD095091FE094115510521
:101F200019F41092160A06C0141615061CF481E066
:101F30008093160A60915F057091600586ED9AE0C6
:101F40009EC0823009F09EC08093FC09D092FB09AC
:101F500081E00E9492058091FD099091FE0922E0A6
:101F6000883C920709F058C08FEF99E06EE042E09C
:101F70000E947A1F8FEF99E064E072E00E94832B49
:101F800080913C0560E00E94FC298FEF99E00E945F
:101F9000641F23C06FE070E042E050E00E949003B5
:101FA0006091FD097091FE0980915D050E946B288A
:101FB0008091FD099091FE098539910544F486E9E7
:101FC00090E06FE070E042E050E00E94900362E336
:101FD00070E080E090E00E947227809146050E94A8
:101FE0002E2A019709F068C0809136050E942E2A9A
:101FF000019709F061C080914D050E94372864E087
:1020000070E00E94A42BCB017093FE096093FD0940
:10201000663971056CF2BECF8F3F910569F064F0AF
:10202000D093FE09C093FD098FEF90E06FE070E060
:1020300042E050E00E9490038091FD099091FE09DA
:102040008639910564F4F092FE09E092FD0986E973
:1020500090E06FE070E042E050E00E9490036091F9
:10206000FD097091FE0980915D050E946B286091C9
:1020700061057091620586ED9AE04091FD090E942C
:10208000F423CFCE833011F427D0CBCE882309F0B0
:10209000C8CE0E942A0748CE8FEF99E00E946C1F9D
:1020A00080913C0561E00E94FC296CE271E080E0D7
:1020B00090E00E9472272ECF8FEF99E00E946C1F54
:1020C00080913C0561E00E94FC296CE271E080E0B7
:1020D00090E00E947227CBCF8FEF99E00E94A21F61
:1020E0008FEF99E060E040E00E947A1F8FEF99E067
:1020F00060E973E00E94832B6091A809662339F49C
:102100008FEF99E068E872E00E94832B06C08FEFA2
:1021100099E04AE050E00E94222B8FEF99E062E0C4
:1021200041E00E947A1F8FEF99E064EA73E00E9419
:10213000832B8FEF99E062E042E00E947A1F8FEFDD
:1021400099E06CEA73E00E94832B8FEF99E062E0E4
:1021500043E00E947A1F8FEF99E063EB73E00E94E7
:10216000832B8FEF99E06BE043E00E947A1F8FEFA3
:1021700099E06AEB73E00E94832B8FEF99E06BE0AC
:1021800041E00E947A1F8FEF99E063EC73E00E94B8
:10219000832B8FEF99E06BE042E00E947A1F8FEF74
:1021A00099E06AEC73E00E94832B81E08093A90997
:1021B0008093AA09EBEAF9E0DF0198961082148A6D
:1021C0001C9254961C9254973196119689E0EF3BDD
:1021D000F807A1F781E08183858B81A782AB828795
:1021E000868F80E060E070E00E9410088091A9096D
:1021F000813029F48091AA09813009F485D2809137
:10220000A909813029F48091AA09823009F426D0E5
:102210008091A909813029F48091AA09833009F4B9
:10222000D4D38091A9098A3029F48091AA098330F6
:1022300009F4CED58091A9098A3029F48091AA09A0
:10224000813009F460DD8091A9098A3031F48091F0
:10225000AA09823011F40C944F1908952F923F92DD
:102260004F925F926F927F928F929F92AF92BF92A6
:10227000CF92DF92EF92FF920F931F93DF93CF9352
:10228000CDB7DEB760970FB6F894DEBF0FBECDBFF7
:1022900081E090E090932D0580932C05988B8F879B
:1022A00011E00DE004C021E030E0388B2F878FEF84
:1022B00099E00E94A21F8FEF99E060E040E00E9449
:1022C0007A1F8FEF99E064ED73E00E94832B8FEF0C
:1022D00099E067E040E00E947A1F6091A8096623B8
:1022E00039F48FEF99E068E872E00E94832B06C012
:1022F0008FEF99E04AE050E00E94222B8F85988969
:102300000E94AD043CE03093A9091092AA09EBEABF
:10231000F9E0DF0198961082148A1C9254961C9260
:1023200054973196119689E0EF3BF807A1F7109387
:10233000AF091093B3091093B7091093BB09108329
:10234000148310871487108B148B108F148F10A395
:1023500014A310A714A710AB14AB10AFEF85F88926
:102360003C96FA83E9832F853889295F3F4F3C8368
:102370002B838F85988902969E838D83EF85F889BC
:102380003D96F887EF832F853889285F3F4F3A873E
:1023900029878F85988903969C878B87EF85F88995
:1023A0003E96FE87ED87F9E02F2E312C2F85388958
:1023B000220E331EE4E04E2E512C420E531E7AE0C4
:1023C000672E712C620E731E65E0862E912C820E94
:1023D000931E59010894A11CB11C56E0C52ED12CA6
:1023E000C20ED31E4BE0E42EF12CE20EF31E81E070
:1023F0006F8578890E9410089091A909943039F46A
:102400008091AA09882309F080C0C8DB50CF98309A
:1024100039F48091AA09882309F082C05DDE47CF94
:102420009C3091F58091AA09882309F082C010920E
:10243000FC090093FB098F8598899093FE0980938E
:10244000FD0980E00E9492058091FD099091FE09AE
:10245000835F914034F022EF31E03093FE09209306
:10246000FD098091FD099091FE09892B31F481E0ED
:1024700090E09093FE098093FD09E091FD09F091B1
:10248000FE09F88BEF8713CF9031A1F58091AA094F
:10249000882309F05BC01092FC09F1E1F093FB097D
:1024A0002F8538892130310539F48FE090E0909301
:1024B000FE098093FD0907C0EF85F8893E97F093E8
:1024C000FE09E093FD0980E00E9492056091FD09FC
:1024D0007091FE09F2E061307F071CF022EF31E0DD
:1024E000E4CE6F3071050CF4DECECB010E97988BE5
:1024F0008F87DDCE992339F48091AA09813089F53F
:10250000EF85F8891CC0943049F48091AA09813084
:1025100099F5B0922D05A0922C0588C0983039F419
:102520008091AA09813099F52D813E817BC09C3034
:1025300059F48091AA09813099F5EB85FC85F093D7
:102540002D05E0932C0572C0903149F48091AA09C1
:10255000813079F550922D0540922C0567C0992362
:1025600049F48091AA09823079F590922D058092E4
:102570002C055CC0943049F48091AA09823079F529
:10258000D0922D05C0922C0551C0983039F480911D
:10259000AA09823079F52B813C8144C09C3039F402
:1025A0008091AA09823079F5E985FA85C8CF903102
:1025B00049F48091AA09823079F530922D05209254
:1025C0002C0534C0992349F48091AA09833071F510
:1025D00070922D0560922C0529C0943049F48091A9
:1025E000AA09833019F5F0922D05E0922C051EC042
:1025F000983039F48091AA098330C1F429813A8155
:1026000011C09C3039F48091AA09833079F4EF81AC
:10261000F88595CF903151F48091AA09833031F437
:102620002D853E8530932D0520932C058091AA0998
:102630008093FC099F5F9093FB09E0912C05F0913A
:102640002D05EE0FFF1FEE55FA4F8081918190937B
:10265000FE098093FD0981E00E9492058091FD09A9
:102660009091FE098456924039F40E94440480916E
:10267000FB0984508093FB098091FD099091FE092C
:10268000E2E0883C9E0769F48091FB0982506091EA
:10269000FC090E94CC038091FB0984508093FB09C4
:1026A000A6CE8F3F910599F094F02FEF30E0309354
:1026B000FE092093FD096091FB0970E06E5F7F4F7A
:1026C0004091FC098FEF90E050E00E9490038091D0
:1026D0002C0590912D050197E091D90AF091DA0A25
:1026E000E80FF91F8091FD098083E0912C05F0919E
:1026F0002D05EE0FFF1FEE55FA4F8091FD099091C9
:10270000FE099183808373CEAF92BF92CF92DF9206
:10271000EF92FF920F931F93CF93DF93C1E0D0E02E
:1027200038E0A32E01E029E0B22EC12C92E0D92E90
:102730008FEFE82EF12CD0932D05C0932C058FEF51
:1027400099E00E94A21F8FEF99E060E040E00E94B4
:102750007A1F8FEF99E066EE73E00E94832B609101
:10276000A809662339F48FEF99E068E872E00E94C7
:10277000832B06C08FEF99E04AE050E00E94222BA5
:102780008FEF99E06EE042E00E947A1F8FEF99E0B0
:102790006BE873E00E94832B8FEF99E06EE043E0DB
:1027A0000E947A1F8FEF99E06AEF73E00E94832BFB
:1027B0008FEF99E060E042E00E947A1F8FEF99E08E
:1027C00061E074E00E94832B8FEF99E062E043E0C8
:1027D0000E947A1F8FEF99E06EE074E00E94832BD5
:1027E0008091A4059091A50569E070E043E050E078
:1027F0000E949003A092A90982E08093AA09EBEAC3
:10280000F9E0DF0198961082148A1C9254961C926B
:1028100054973196119629E0EF3BF207A1F7048F08
:1028200000AB01A305AB80E060E070E00E941008FF
:102830008091A909883009F058C01091AA09123076
:1028400009F053C080912C0590912D0569E070E04E
:1028500042E050E00E9490031093FC09B092FB0903
:1028600080912C0590912D059093FE098093FD0990
:1028700080E00E9492058091FD099091FE098150AF
:10288000924064F0D092FE09C092FD0980E092E08F
:1028900069E070E042E050E00E9490038091FD0901
:1028A0009091FE091816190664F0D093FE09C093A2
:1028B000FD0981E090E069E070E042E050E00E94B4
:1028C0009003E091FD09F091FE09F0932D05E0934E
:1028D0002C05EE0FFF1FEE55FA4F8081918169E0C4
:1028E00070E043E050E00E9490038091A909883095
:1028F00009F05DC08091AA09833009F094CF8093DC
:10290000FC09B092FB09E0912C05F0912D05EE0F2A
:10291000FF1FEE55FA4F808191819093FE098093BD
:10292000FD0981E00E9492058091FD099091FE09C8
:102930008456924011F40E9444048091FD099091C4
:10294000FE0922E0883C920729F489E063E00E94B6
:10295000CC0369CF8F3F910569F064F0F092FE09D6
:10296000E092FD098FEF90E069E070E043E050E015
:102970000E94900380912C0590912D050197E09184
:10298000D90AF091DA0AE80FF91F8091FD098083D6
:10299000E0912C05F0912D05EE0FFF1FEE55FA4F3B
:1029A0008091FD099091FE09918380833CCF8D3009
:1029B00009F039CF8091AA09833011F4EFD8BBCE4A
:1029C000823009F030CF88DB2ECF2F923F924F928A
:1029D0005F926F927F928F929F92AF92BF92CF92AF
:1029E000DF92EF92FF920F931F93DF93CF9300D06C
:1029F00000D0CDB7DEB78FEF99E00E94A21F8FEF16
:102A000099E060E040E00E947A1F8FEF99E065E175
:102A100074E00E94832B8FEF99E063E041E00E9415
:102A20007A1F8FEF99E062E274E00E94832B8FEFB0
:102A300099E060E042E00E947A1F8FEF99E062E344
:102A400074E00E94832B8FEF99E060E043E00E94E6
:102A50007A1F8FEF99E066E474E00E94832B81E097
:102A600090E069E070E041E050E00E94900381E076
:102A700090E069E070E042E050E00E94900380E066
:102A800090E069E070E043E050E00E94900388E04D
:102A90008093A90981E08093AA0921E030E040E019
:102AA00050E029833A834B835C83E1E08E2E912CA6
:102AB000A12CB12C442455243201EBEAF9E0DF01CA
:102AC00098961082148A1C9254961C9254973196B0
:102AD000119639E0EF3BF307A1F741E04087448FBF
:102AE00040AB42A346AB80E060E070E00E9410087B
:102AF0008091A9098E30C1F48091AA098230A1F495
:102B0000A4EAB5E020E030E0E091D90AF091DA0AD9
:102B1000E20FF31F8C9180832F5F3F4F129652E09C
:102B20002030350789F7D8DA8091A9098E3009F06D
:102B30009DC08091AA09833009F0B9C014018FEFBC
:102B400099E06FE043E00E947A1F8FEF99E06BE518
:102B500074E00E94832B8FEF99E00E94641F80E055
:102B600090E0E091D90AF091DA0AE80FF91F10829B
:102B70000196A2E081309A07A1F7610154C0ED816E
:102B8000FE813196FE83ED83E451F54009F050C09B
:102B90000894E11CF11C011D111D89819A81AB81F2
:102BA000BC81E816F9060A071B0709F03FC0C601F9
:102BB000AA2797FDA095BA2F481659066A067B06E4
:102BC0000CF46101C60169E070E040E050E00E9451
:102BD00090038FEF99E063E143E00E947A1FA50123
:102BE00094010DC0C9010197E091D90AF091DA0A68
:102BF000E80FF91F10822F5F3F4F4F4F5F4F421674
:102C000053066406750674F70894C108D108E0916C
:102C1000D90AF091DA0AEC0DFD1D9FEF9083A2E036
:102C2000B0E0CA0EDB1EEE24FF2487011E821D8247
:102C3000809136050E942E2A019709F4A0CF8FEFCC
:102C400099E00E946C1F8FEF99E06FE043E00E94D3
:102C50007A1F8FEF99E061E674E00E94832B6CE2AB
:102C600071E080E090E00E94722727CF8830F9F46D
:102C70008091AA098130D9F48093FC09B9E0B0931E
:102C8000FB09E981FA81F093FE09E093FD0980E0F8
:102C90000E9492058091FD099091FE099C014427B4
:102CA00037FD4095542F29833A834B835C83809171
:102CB000A909883009F042C08091AA098230F1F553
:102CC0008093FC0939E03093FB099092FE098092D1
:102CD000FD0980E00E9492058091FD099091FE0916
:102CE0004C01AA2497FCA094BA2C81149104A1044D
:102CF000B10471F481E090E069E070E042E050E0FE
:102D00000E94900371E0872E912CA12CB12C16C04B
:102D100041E0841642E0940640E0A40640E0B40698
:102D20006CF080E092E069E070E042E050E00E94E8
:102D30009003812C62E0962EA12CB12C8091A909E0
:102D4000883009F0BACE8091AA09833009F0B5CE57
:102D50008093FC0959E05093FB095092FE09409280
:102D6000FD0980E00E9492058091FD099091FE0985
:102D70002C01662457FC6094762C411451046104A4
:102D8000710471F481E090E069E070E043E050E0AC
:102D90000E94900351E0452E512C612C712C8DCE58
:102DA00081E0481682E0580680E0680680E07806F8
:102DB0000CF483CE80E092E069E070E043E050E004
:102DC0000E949003412C42E0542E612C712C75CE50
:102DD0002F923F924F925F926F927F928F929F922B
:102DE000AF92BF92CF92DF92EF92FF920F931F9319
:102DF000DF93CF93CDB7DEB728970FB6F894DEBF39
:102E00000FBECDBF81E090E098878F836624772442
:102E10004301AA24BB246501AFEFB0E0BA83A983C4
:102E20008FEF99E00E94A21F8FEF99E060E040E0F1
:102E30000E947A1F8FEF99E067E674E00E94832B6F
:102E40008FEF99E061E040E00E947A1F6091A8094D
:102E5000662339F48FEF99E068E872E00E94832BD3
:102E600006C08FEF99E04AE050E00E94222B8FEFDE
:102E700099E060E041E00E947A1F8FEF99E060E7FF
:102E800074E00E94832B8FEF99E060E042E00E94A3
:102E90007A1F8FEF99E063E874E00E94832B8FEF35
:102EA00099E060E043E00E947A1F8FEF99E068E9C3
:102EB00074E00E94832B89819A8169E070E040E090
:102EC00050E00E9490038F81988569E070E041E0B6
:102ED00050E00E949003C30169E070E042E050E0DE
:102EE0000E949003C50169E070E043E050E00E9459
:102EF0009003B8E0B093A9091092AA09EBEAF9E0AF
:102F0000DF0198961082148A1C9254961C92549752
:102F10003196119629E0EF3BF207A1F781E0808717
:102F200080AB848F858781A385AB8093B30980E0D4
:102F300060E070E00E9410088091A9098D3029F4AA
:102F40008091AA09813009F4C7D88091A9098D30F0
:102F500009F0A8C08091AA09823019F40E94CE0D10
:102F60005FCF833009F0D8C0C601B501A401930139
:102F70000E94852B615072408040904054F08FEF4A
:102F800099E06DE040E0B6D78FEF99E06CEA74E02D
:102F900086C08FEF99E06DE040E0ACD78FEF99E00D
:102FA00064EB74E00E94832B8FEF99E06EE043E0C6
:102FB000A1D78FEF99E06CEB74E00E94832B91E036
:102FC000E92EF12C012D112D8F819885AA2797FDCF
:102FD000A095BA2F8B839C83AD83BE8346C091E0BE
:102FE000E916F1040105110509F054C12B803C805C
:102FF0004D805E80A1E02A16A2E03A06A0E04A06D3
:10300000A0E05A0634F02618370848085908860107
:1030100075018FEF99E061E140E06CD78FEF99E0A7
:10302000B201A1012AE030E00E94332B65E070E09C
:1030300080E090E00E947227C10101972091D90A97
:103040003091DA0A280F391F8981F9018083F10153
:10305000EE0FFF1FEE55FA4FA981BA81B183A0830D
:103060000894E11CF11C011D111DAE14BF04C00623
:10307000D1060CF0B4CF8FEF99E06DE040E03AD785
:103080008FEF99E063EC74E00E94832B8FEF99E05F
:103090006EE043E02FD78FEF99E067EC74E00E9479
:1030A000832B2CCF8830C1F58091AA098130A1F5FE
:1030B0008093FC09B9E0B093FB09EF81F885F093A8
:1030C000FE09E093FD0980E00E9492058091FD09D0
:1030D0009091FE0998878F83892B69F481E090E0B5
:1030E00069E070E041E050E00E949003A1E0B0E0B0
:1030F000B887AF8311C0EF81F885E150F24064F0EA
:1031000080E092E069E070E041E050E00E949003CE
:1031100080E092E098878F838091A909883009F038
:1031200042C08091AA098230F1F58093FC0999E0B0
:103130009093FB097092FE096092FD0980E00E9465
:1031400092058091FD099091FE093C01882477FC4D
:103150008094982C611471048104910471F481E0CD
:1031600090E069E070E042E050E00E94900311E0DE
:10317000612E712C812C912C16C0A1E06A16A2E060
:103180007A06A0E08A06A0E09A066CF080E092E061
:1031900069E070E042E050E00E949003612CB2E0F0
:1031A0007B2E812C912C8091A909883009F042C096
:1031B0008091AA098330F1F58093FC09B9E0B093BE
:1031C000FB09B092FE09A092FD0980E00E949205E1
:1031D0008091FD099091FE095C01CC24B7FCC0945C
:1031E000DC2CA114B104C104D10471F481E090E09D
:1031F00069E070E043E050E00E949003A1E0AA2E55
:10320000B12CC12CD12C16C0E1E0AE16E2E0BE0616
:10321000E0E0CE06E0E0DE066CF080E092E069E0FF
:1032200070E043E050E00E949003A12CF2E0BF2E3A
:10323000C12CD12C8091A909883009F05FCE8091F2
:10324000AA09882309F05ACE1092FC09F9E0F093FC
:10325000FB0989819A819093FE098093FD0981E0A1
:103260000E949205A091FD09B091FE09BA83A9833D
:10327000AF3FB10509F00CF441CE8FEF90E069E06B
:1032800070E040E050E00E949003EFEFF0E0FA833E
:10329000E98334CE260C371C481C591CABCE2F9228
:1032A0003F924F925F926F927F928F929F92AF92D6
:1032B000BF92DF92EF92FF920F931F93DF93CF9312
:1032C000CDB7DEB760970FB6F894DEBF0FBECDBFA7
:1032D0008FEF99E037D68FEF99E060E040E00AD6B3
:1032E0008FEF99E06EEC74E00E94832B6091A80947
:1032F000662339F48FEF99E068E872E00E94832B2F
:1033000006C08FEF99E04AE050E00E94222B8FEF39
:1033100099E064E041E0EED58FEF99E062EE74E071
:103320000E94832B8FEF99E060E042E0E3D58FEFBE
:1033300099E063EF74E00E94832B8FEF99E060E0E7
:1033400043E0D8D58FEF99E067E075E00E94832BCA
:1033500089E08093A90981E08093AA09EBEAF9E06A
:10336000DF0198961082148A1C9254961C925497EE
:103370003196119629E0EF3BF207A1F781E08187B2
:10338000858F81AB82A386AB41E050E05E874D879D
:103390005C874B8788E090E09A8789878FEF99E078
:1033A0006FE043E0A7D58FEF99E061E674E00E94FB
:1033B000832B8FEF99E090D580E060E070E00E9471
:1033C00010088091A909893009F0B5C08091AA0937
:1033D000813009F03FC08093FC098AE08093FB09AB
:1033E000AD85BE85B093FE09A093FD0980E00E94E3
:1033F0009205E091FD09F091FE09FE87ED87EF2B24
:10340000A1F481E090E06AE070E041E050E00E94C9
:10341000900381E090E06AE070E041E050E00E94BB
:10342000900321E030E03E872D878091FD09909147
:10343000FE09853691050CF4B1CF84E690E06AE090
:1034400070E041E050E00E94900344E650E05E8767
:103450004D87A4CF8230B1F58093FC098AE0809338
:10346000FB098B859C859093FE098093FD0980E084
:103470000E949205A091FD09B091FE09BC87AB871F
:10348000AB2B61F481E090E06AE070E042E050E054
:103490000E949003E1E0F0E0FC87EB878091FD095A
:1034A0009091FE0909970CF479CF88E090E06AE0EA
:1034B00070E042E050E00E94900328E030E03C875A
:1034C0002B876CCF833009F051C08093FC098AE0D0
:1034D0008093FB0949855A855093FE094093FD0965
:1034E00080E00E9492058091FD099091FE099A87E3
:1034F0008987892B61F481E090E06AE070E043E025
:1035000050E00E949003A1E0B0E0BA87A9878091C3
:10351000FD099091FE0909970CF440CF88E090E0F6
:103520006AE070E042E050E00E949003E8E0F0E0E2
:10353000FA87E98733CF8E30C9F48091AA098230A7
:10354000A9F4A2EAB5E020E030E0E091D90AF091D8
:10355000DA0AE20FF31F8C9180832F5F3F4F1296A0
:10356000F2E021303F0789F70E946C108091A90991
:103570008E3009F013CF8091AA09833009F00ECF65
:103580002B853C8549855A8524173507C9F481E088
:1035900090E06AE070E042E050E00E94900388E032
:1035A00090E06AE070E042E050E00E94900381E029
:1035B00090E09C878B87A8E0B0E0BA87A987EECE21
:1035C0008FEF99E06EE043E095D48FEF99E062E8E9
:1035D00072E00E94832B8FEF99E06FE043E08AD482
:1035E0008FEF99E06BE574E00E94832B8FEF99E0F9
:1035F0006BD4EB85FC8529853A852E173F07B4F4FB
:1036000084E690E04D855E85DC014A9FC0014B9FBA
:10361000900D5A9F900D11249C01442737FD409531
:10362000542F29833A834B835C83FDC184E690E069
:103630004D855E85DC014A9FC0014B9F900D5A9FCE
:10364000900D11249C01442737FD4095542F2D8364
:103650003E834F835887DD24D3948FEF99E063E155
:1036600040E048D48FEF99E06D2D4AE050E00E9491
:10367000222B8FEF99E063E143E03CD400E010E0BF
:10368000212C22E0322E412C94E0592E612C86E030
:10369000782E812CB8E09B2EA12CAAE0BA2EE12C2A
:1036A000FCE0FF2E40E05EE0588B4F8754E0D516DB
:1036B00009F43FC05D1550F082E0D81611F18D1568
:1036C00060F191E0D91609F073C00FC0A6E0DA16D8
:1036D00009F447C0DA16C8F1B7E0DB1609F44DC0AB
:1036E000E8E0DE1609F064C054C086ED9AE0B80147
:1036F0000E94ED23E091D90AF091DA0AE00FF11F60
:1037000056C086ED9AE0B1010E94ED23E091D90AFE
:10371000F091DA0AE20DF31D4AC086ED9AE0B2019B
:103720000E94ED23E091D90AF091DA0AE40DF51D2B
:103730003EC086ED9AE0B3010E94ED23E091D90AE4
:10374000F091DA0AE60DF71D32C086ED9AE0B40179
:103750000E94ED23E091D90AF091DA0AE80DF91DF3
:1037600026C086ED9AE0B5010E94ED23E091D90ACA
:10377000F091DA0AEA0DFB1D1AC086ED9AE0B70156
:103780000E94ED23E091D90AF091DA0AEE0DFF1DB7
:103790000EC086ED9AE06F8578890E94ED23E09156
:1037A000D90AF091DA0A2F853889E20FF31F808356
:1037B0000F5F1F4F0894211C311C0894411C511CA1
:1037C0000894611C711C0894811C911C0894A11C14
:1037D000B11C0894E11CF11C4F8558894F5F5F4F65
:1037E000588B4F8752E00030150709F05FCF80916A
:1037F00036050E942E2A019709F00BC1EE24FF2402
:10380000870112C061E070E080E090E00E947227C2
:10381000809136050E942E2A892B09F4FAC008945B
:10382000E11CF11C011D111D8D819E81AF81B885A8
:103830008E159F05A007B1072CF7D39498E09D152E
:1038400008F409CF0ACF8FEF99E063E140E052D34B
:103850008FEF99E06D2D4AE050E00E94222B8FEF10
:1038600099E063E143E046D300E010E0212CE2E080
:103870003E2E412C74E0572E612C66E0762E812C72
:1038800058E0952EA12C4AE0B42EE12C3CE0F32E1A
:10389000A0E0BEE0B88BAF87B4E0DB1609F43CC013
:1038A000BD1550F0E2E0DE1609F1ED1550F1F1E042
:1038B000DF1609F06BC00FC026E0D21609F442C033
:1038C000D216A8F137E0D31609F447C048E0D41661
:1038D00009F05CC04DC086ED9AE0B8017ED7E0915A
:1038E000D90AF091DA0AE00FF11F4FC086ED9AE095
:1038F000B10173D7E091D90AF091DA0AE20DF31D14
:1039000044C086ED9AE0B20168D7E091D90AF091FF
:10391000DA0AE40DF51D39C086ED9AE0B3015DD7F2
:10392000E091D90AF091DA0AE60DF71D2EC086ED76
:103930009AE0B40152D7E091D90AF091DA0AE80D81
:10394000F91D23C086ED9AE0B50147D7E091D90A69
:10395000F091DA0AEA0DFB1D18C086ED9AE0B70176
:103960003CD7E091D90AF091DA0AEE0DFF1D0DC0A7
:1039700086ED9AE06F85788930D7E091D90AF09189
:10398000DA0AAF85B889EA0FFB1F80830F5F1F4FEC
:103990000894211C311C0894411C511C0894611C82
:1039A000711C0894811C911C0894A11CB11C0894E2
:1039B000E11CF11CEF85F8893196F88BEF87F2E076
:1039C00000301F0709F068CF809136050E942E2A2B
:1039D0000197F9F4EE24FF24870111C061E070E043
:1039E00080E090E00E947227809136050E942E2A86
:1039F000892B79F00894E11CF11C011D111D29810E
:103A00003A814B815C812E153F054007510734F701
:103A100007C064EF71E080E090E00E947227BECCA6
:103A2000DA9409F010CF28E0D22E0DCF1F9311E0C9
:103A30008FEF99E087D28FEF99E060E040E05AD2B3
:103A40008FEF99E06CE175E00E94832B8FEF99E096
:103A500062E042E04FD28FEF99E060E573E00E94B0
:103A6000832B8FEF99E069E042E044D28FEF99E039
:103A700069ED72E00E94832B8FEF99E06FE042E0E6
:103A800039D28FEF99E06EED72E00E94832B109394
:103A9000A90982E08093AA09EBEAF9E0DF01989690
:103AA0001082148A1C9254961C9254973196119647
:103AB00089E0EF3BF807A1F7158B148F12A380E084
:103AC00060E070E00E9410088091A909883059F4E4
:103AD0008091AA09823039F40E94490B019709F4B8
:103AE000A7CF0E946C108091A9098E3059F4809163
:103AF000AA09823039F40E94220C019709F498CF68
:103B00000E946C108091A909813031F48091AA093A
:103B1000823011F40E946C101F91089582E061E0E0
:103B20000E94FC290E94080C0E94F70B0E942A07A1
:103B30007DCF80912E0562E00E9449298091300559
:103B400062E00E9449298091320562E00E94492981
:103B50008091340562E00E9449298BE062E00E9476
:103B600049298091380561E00E94492980913A05F0
:103B700061E00E94492980913C0561E00E94492949
:103B800080913E0561E00E9449298091400562E0F4
:103B90000E9449298091420562E00E944929809152
:103BA000440562E00E9449298091460562E00E9436
:103BB00049298091380561E00E94FC2980913A05ED
:103BC00061E00E94FC2980913C0561E00E94FC2993
:103BD00080913E0561E00E94FC2980914F0561E0E3
:103BE0000E9449298091510561E00E9449298091F4
:103BF000590561E00E9449298091570561E00E94C2
:103C000049298091550561E00E9449298091530519
:103C100061E00E94492980915B0561E00E94492989
:103C20008FEF99E064E144E020E092D181E090E000
:103C30009093EF0A8093EE0A80E092E09093EB0A73
:103C40008093EA0A87ED9AE060E02BD785E061E097
:103C50000E94492985E060E00E94FC2986E061E03D
:103C60000E94492986E060E00E94FC2987E061E02B
:103C70000E94492987E060E00E94FC2986E161E01A
:103C80000E94492986E160E00E94FC2987E161E009
:103C90000E94492987E160E00E94FC2988E161E0F7
:103CA0000E94492988E160E00E94FC2989E161E0E5
:103CB0000E94492989E160E00E94FC298AE161E0D3
:103CC0000E9449298AE160E00E94FC298BE161E0C1
:103CD0000E9449298BE160E00E94FC298CE161E0AF
:103CE0000E9449298CE160E00E94FC298DE161E09D
:103CF0000E9449298DE160E00E94FC298FE161E08A
:103D00000E9449298FE160E00E94FC2981E261E084
:103D10000E94492981E260E00E94FC2983E261E07F
:103D20000E94492983E260E00E94FC2985E261E06B
:103D30000E94492985E260E00E94FC2987E261E057
:103D40000E94492987E260E00E94FC2989E261E043
:103D50000E94492989E260E00E94FC298EE261E02C
:103D60000E9449298EE260E00E94FC2980E361E024
:103D70000E94492980E360E00E94FC2982E361E01F
:103D80000E94492982E360E00E94FC2984E361E00B
:103D90000E94492984E360E00E94FC2986E361E0F7
:103DA0000E94492986E360E00E94FC2987E361E0E4
:103DB0000E94492987E360E00E94FC2988E361E0D2
:103DC0000E94492988E360E00E94FC2989E361E0C0
:103DD0000E94492989E360E00E94FC298AE361E0AE
:103DE0000E9449298AE360E00E94FC298BE361E09C
:103DF0000E9449298BE360E00E94FC298CE361E08A
:103E00000E9449298CE360E00E94FC298DE361E077
:103E10000E9449298DE360E00E94FC298EE361E065
:103E20000E9449298EE360E00E94FC298FE361E053
:103E30000E9449298FE360E00E94FC2980E461E050
:103E40000E94492980E460E00E94FC2981E461E04D
:103E50000E94492981E460E00E94FC2982E461E03B
:103E60000E94492982E460E00E94FC2983E461E029
:103E70000E94492983E460E00E94FC2984E461E017
:103E80000E94492984E460E00C94FC290895089577
:103E9000FC01138212828EE695E09183808308955F
:103EA000FC01A081B18118962D913C9119976FEF7B
:103EB000F90119950895DC01ED91FC910284F385D7
:103EC000E02D40E019950895FC016581862F816001
:103ED00085836960CF01EFCFFC0165816E7F6583CB
:103EE0006860E9CFFC016581862F846085836C6002
:103EF000CF01E1CFDC0117969C911797491710F07D
:103F0000492F415018968C911897803139F494308C
:103F100029F4E42FF0E0E658FA4F04C0E42FF0E073
:103F2000E258FA4F8081680F6068CD01C4CFDC0190
:103F3000ED91FC910284F385E02D41E0199581E03B
:103F400090E0089561E0B7DF80ED97E00C94CB2717
:103F5000CF93DF93EC01423018F08C8188608C8322
:103F60004F836887222329F0413019F48C818460C3
:103F70008C8364E670E080E090E0B4D76C8164FDEF
:103F80002EC0E881F9810284F385E02DCE0163E043
:103F900042E0199584E991E1FED7E881F981028434
:103FA000F385E02DCE0163E042E0199584E991E1CB
:103FB000F2D7E881F9810284F385E02DCE0163E038
:103FC00042E0199586E990E0E6D7E881F98102841C
:103FD000F385E02DCE0162E042E0199511C06062E8
:103FE000CE0169DF84E991E1D6D76C816062CE01B0
:103FF00062DF86E990E0CFD76C816062CE015BDF43
:104000006C816062CE0157DF84E08D83CE016ADF70
:10401000CE0198DF82E08E83CE0166E04CDFCE01D8
:104020003FDFDF91CF9108950F931F938C01FC0127
:10403000858561E00E94FC29F801858560E00E9489
:10404000FC291F910F910895BF92CF92DF92EF92BA
:10405000FF920F931F93CF93DF93D82EC92EB42EC8
:10406000282F392FC9018C01C0E0D0E0E62EFF24B3
:104070000DC0B7010C2E02C0759567950A94E2F742
:104080006170F80185850E94FC2921960F5F1F4F02
:10409000CB1578F38D2D9C2DC7DFDF91CF911F912C
:1040A0000F91FF90EF90DF90CF90BF9008950F9306
:1040B0001F93CF93DF93EC01162F042F60E0413064
:1040C00009F461E08B850E94FC298C858F3F19F0F3
:1040D00060E00E94FC29023089F08C8184FF04C0DA
:1040E000CE01612F48E00DC0612F70E084E075952E
:1040F00067958A95E1F7CE0144E0A6DFCE01612FF6
:1041000044E0A2DFDF91CF911F910F9108956F924C
:104110007F928F92AF92CF92EF920F931F93DF9384
:10412000CF93CDB7DEB73C01162F8E2DF301438719
:1041300024870587E686C786A08A818A9E85928B1A
:104140009F85938B9889948B9989958B61E00E94C8
:104150004929F301878561E00E944929F30180899B
:1041600061E00E944929F301818961E00E944929A7
:104170001123A1F4F301828961E00E944929F3012E
:10418000838961E00E944929F301848961E00E94EA
:104190004929F301858961E00E944929F30183855A
:1041A00061E00E944929F30184858F3F19F061E0A5
:1041B0000E944929F301858561E00E944929112364
:1041C00019F0F301148203C080E1F3018483F30149
:1041D000838560E00E94FC29F301858560E00E94F0
:1041E000FC29F30184858F3F19F060E00E94FC29CF
:1041F0008FEFF301868B12861186CF91DF911F918D
:104200000F91EF90CF90AF908F907F906F90089527
:10421000DF92EF92FF920F931F938C01D62E7A01BB
:10422000862F61E00E944929D8015696DC92569764
:104230001A96FC92EE921997ED91FC910084F1850B
:10424000E02DC80160E019951F910F91FF90EF904C
:10425000DF900895DC01362F56962C9156972F3F0C
:1042600049F1E22FF0E0E254FE4FE491EE2379F0C1
:1042700019968D919C911A97892B19F4822F70E0D1
:1042800005C06FEF70E0631B7109822F24C7199678
:104290008D919C911A97662319F0892B39F402C0ED
:1042A000019721F4822F61E00C94FC29822F60E0B9
:1042B0000C94FC2908956F927F928F92AF92BF92D7
:1042C000CF92DF92EF92FF920F931F933C01162F34
:1042D000F42ED22EB02EAE2C8C2CDADD86E895E0B2
:1042E000D3018D939C9300D00F92EDB7FEB731961A
:1042F000ADB7BEB711961C92118212821382C30110
:1043000061E0412F2FEF0F2DED2CCB2C00DF0F9014
:104310000F900F900F901F910F91FF90EF90DF90F3
:10432000CF90BF90AF908F907F906F900895209125
:10433000380A30E08091370A281B3109C9010895F5
:104340004091370A8091380A481718F02FEF3FEF55
:104350000AC0E42FF0E0E95EF54F8081282F30E0BD
:104360004F5F4093370AC9010895E091370A809161
:10437000380AE81718F0EFEFFFEF06C0F0E0E95E4B
:10438000F54F8081E82FF0E0CF0108950895109255
:104390005F0A10925E0A88EE93E0A0E0B0E080939E
:1043A000600A9093610AA093620AB093630A86E957
:1043B00095E090935D0A80935C0A0895CF92DF9216
:1043C000EF92FF920F931F93CF93DF937C016B01CA
:1043D0008A0180915B0A8823A1F0C0E0D0E00DC083
:1043E000D701ED91FC91D601AC0FBD1F0190F0817A
:1043F000E02DC7016C9119952196C017D10780F364
:1044000003C0CB01642F39D0C801DF91CF911F9138
:104410000F91FF90EF90DF90CF900895DF93CF93AF
:104420000F92CDB7DEB7FC01698380915B0A8823C8
:10443000C9F080915A0A803238F081E090E093838D
:10444000828320E030E014C08091590AE82FF0E028
:10445000E75CF54F998190838F5F8093590A809331
:104460005A0A04C0CE01019661E007D021E030E095
:10447000C9010F90CF91DF910895482F613210F05C
:1044800081E008958091680A843011F082E00895F7
:104490006093B30AA2E9BAE0842F9C01F90102C03B
:1044A00081918D938E2F841B8617D0F380E0089521
:1044B0001F920F920FB60F920BB60F9211242F93EB
:1044C0003F934F935F936F937F938F939F93AF939C
:1044D000BF93EF93FF938091B90090E0887F907035
:1044E0008036910509F4F2C081369105CCF5883209
:1044F000910509F47BC089329105B4F480319105AE
:1045000009F46FC0813191053CF4009709F447C16B
:10451000089709F04FC165C08831910509F466C05C
:10452000809709F047C182C08034910509F4A4C086
:104530008134910544F48033910509F482C0C89711
:1045400009F038C189C08035910509F489C08835E2
:10455000910509F496C08834910509F02BC1AEC0CD
:104560008839910509F413C189399105ECF488372C
:10457000910509F4ABC0893791054CF48836910553
:1045800009F4A4C08037910509F014C19FC0883890
:10459000910509F4FCC08039910509F49DC080386B
:1045A000910509F007C198C0803B910509F4C6C088
:1045B000813B91054CF4803A910509F49FC0883AFB
:1045C000910509F0F7C0BAC0803C910509F4E3C039
:1045D000883C910509F4DFC0883B910509F0EAC0E9
:1045E000C2C08091690A8093BB00CFC09091900AAD
:1045F0008091910A981768F49091900AE92FF0E061
:10460000E059F54F80818093BB009F5F9093900AA3
:10461000BCC080916A0A882309F44BC085ED809361
:10462000BC008091BC0084FDFCCFC2C080E28093BE
:10463000D50A85ED8093BC008091BC0084FDFCCF41
:10464000B7C080E38093D50A85ED8093BC0080914C
:10465000BC0084FDFCCFACC088E38093D50A9BC02E
:104660008091900A9091BB00E82FF0E0E059F54F5F
:1046700090838F5F8093900A9091900A8091910A25
:1046800082C08091900A9091BB00E82FF0E0E05941
:10469000F54F90838F5F8093900A80916A0A8823F8
:1046A00041F085ED8093BC008091BC0084FDFCCF7F
:1046B0007FC081E080936B0A84EA6EC085ED8093B1
:1046C000BC008091BC0084FDFCCF72C083E080936D
:1046D000680A1092D40A59C08091D40A803208F036
:1046E00056C08091D40A9091BB00E82FF0E0EC54C2
:1046F000F54F90838F5F8093D40A47C08091D40A8E
:10470000803230F4E091D40AF0E0EC54F54F10829E
:1047100085ED8093BC008091BC0084FDFCCF10929D
:10472000680A6091D40AE0916E0AF0916F0A84EBF6
:104730009AE070E019951092D40A2DC084E080931D
:10474000680A1092B20A1092B30AE0916C0AF091D2
:104750006D0A19958091B30A882329F481E080932A
:10476000B30A1092920A9091B20AE92FF0E0EE5645
:10477000F54F80818093BB009F5F9093B20A909128
:10478000B20A8091B30A981710F485EC01C085E84D
:104790008093BC000FC085EC8093BC0009C01092D0
:1047A000D50A85ED8093BC008091BC0084FDFCCFD0
:1047B0001092680AFF91EF91BF91AF919F918F91F5
:1047C0007F916F915F914F913F912F910F900BBE11
:1047D0000F900FBE0F901F901895F999FECF72BDE4
:1047E00061BDF89A80B50895F999FECF1FBA72BDE0
:1047F00061BD40BD0FB6F894FA9AF99A0FBE0895BC
:10480000FC018385882331F48091C10087728093F5
:10481000C1000895813031F48091C900877280937E
:10482000C9000895823031F48091D100877280935D
:10483000D1000895833029F48091310187728093EB
:10484000310108951F920F920FB60F920BB60F927F
:1048500011242F933F934F935F936F937F938F9385
:104860009F93AF93BF93EF93FF938091C00080938A
:10487000DF0A3091C6003093E00A2091DB0A2093D2
:10488000E10A84FF10C08091C0008F7E8093C00039
:104890008091EC0A9091ED0A9093E50A8093E40AE6
:1048A00081E08093DB0A213091F4332369F482E0C4
:1048B0008093DB0A8091D70A9091D80A0196909351
:1048C000DD0A8093DC0A4BC01092DB0A48C022301C
:1048D000A1F48091E40A9091E50A01979093E50A8A
:1048E0008093E40A892BD9F583E08093DB0AE09179
:1048F000D70AF091D80A308332C0233081F5E09195
:10490000DC0AF091DD0AF093FA0AE093F90A3083A9
:104910004091F90A5091FA0A4F5F5F4F5093FA0A9B
:104920004093F90A8091D70A9091D80A2091E80A19
:104930003091E90A820F931F4817590760F01092CF
:10494000DB0AE091FD0AF091FE0A309741F0809178
:10495000E20A199504C05093DD0A4093DC0AFF91E6
:10496000EF91BF91AF919F918F917F916F915F91E7
:104970004F913F912F910F900BBE0F900FBE0F9054
:104980001F9018951F920F920FB60F920BB60F92B1
:1049900011242F933F934F935F936F937F938F9344
:1049A0009F93AF93BF93EF93FF938091E30A80931C
:1049B000F80A882361F41092C5008091F50A80936B
:1049C000C4001092C60081E08093E30A40C08130A9
:1049D00081F41092C5008091F40A8093C400109273
:1049E000C60082E08093E30A1092E70A1092E60A7A
:1049F0002EC08091E60A9091E70A9093F70A80937F
:104A0000F60AE091D90AF091DA0AE80FF91F20813D
:104A10002093C6009C012F5F3F4F3093F70A2093ED
:104A2000F60A8091EA0A9091EB0A2817390759F49F
:104A3000E091FB0AF091FC0A309711F080E01995A3
:104A40001092E30A04C03093E70A2093E60AFF912C
:104A5000EF91BF91AF919F918F917F916F915F91F6
:104A60004F913F912F910F900BBE0F900FBE0F9063
:104A70001F90189521E030E03093ED0A2093EC0A66
:104A800088E090E09093E90A8093E80A3093EF0A77
:104A90002093EE0A9093EB0A8093EA0A1092E20ABE
:104AA00008951F93CF93DF93EC01162FF894A8DE9F
:104AB0001C8F112321F487E08D8F84E10BC011300E
:104AC00021F483E08D8F8AE005C0123021F481E06B
:104AD0008D8F85E08E8F8B8D8F3F29F061E0D9D34C
:104AE0008B8D61E089D48B858823D1F481E061E0EE
:104AF000D0D31092C5008D8D8093C4008091C000EA
:104B000082608093C0008091C2008E608093C2005A
:104B10008091C10088648093C1001092C60053C088
:104B20008130D1F482E161E0B4D31092CD008D8D5B
:104B30008093CC008091C80082608093C8008091EF
:104B4000CA008E608093CA008091C90088648093F7
:104B5000C9001092CE0037C08230D1F480E161E00C
:104B600098D31092D5008D8D8093D4008091D00081
:104B700082608093D0008091D2008E608093D200BA
:104B80008091D10088648093D1001092D6001BC020
:104B90008330C9F48EE061E07CD3109235018D8DB5
:104BA0008093340180913001826080933001809144
:104BB00032018E608093320180913101886480934C
:104BC00031011092360181E08C878B899C890DD050
:104BD0008A839B834B895C8960E070E00E9433018B
:104BE0007894DF91CF911F9108950F931F93CF93E6
:104BF000DF93BC018230910510F462E070E0E09137
:104C00000A0BF0910B0B40E050E0A0E0B0E024C0B4
:104C10008081918186179707D0F08617970771F4E6
:104C200082819381109729F013969C938E9312970B
:104C30002CC090930B0B80930A0B27C04115510594
:104C400019F08417950718F48D01AC01EF01DF010D
:104C5000828193819C01F9013097D1F6411551056C
:104C6000F9F0CA01861B970B8430910580F48A8184
:104C70009B810115110521F0F8019383828304C003
:104C800090930B0B80930A0BFE01329645C0FE01F8
:104C9000E80FF91F619371930297998388833CC051
:104CA0008091080B9091090B892B41F48091650547
:104CB000909166059093090B8093080B40916705CE
:104CC000509168054115510541F44DB75EB780918B
:104CD000630590916405481B590B2091080B309196
:104CE000090B24173507B0F4CA01821B930B8617F2
:104CF000970780F0AB014E5F5F4F8417950750F028
:104D0000420F531F5093090B4093080BF901619315
:104D1000719302C0E0E0F0E0CF01DF91CF911F91ED
:104D20000F910895CF93DF939C01009709F48FC0F2
:104D3000EC0122971B821A8260910A0B70910B0B77
:104D40006115710581F488819981820F931F2091EB
:104D5000080B3091090B2817390739F5D093090B47
:104D6000C093080B74C0DB0140E050E0AC17BD07F6
:104D700008F1BB83AA83FE0121913191E20FF31F59
:104D8000AE17BF0779F48D919C911197280F391FA9
:104D90002E5F3F4F3983288312968D919C911397F4
:104DA0009B838A834115510571F4D0930B0BC093FB
:104DB0000A0B4DC012968D919C911397AD010097EF
:104DC00011F0DC01D3CFDA011396DC93CE93129766
:104DD000FA0121913191E20FF31FCE17DF0769F439
:104DE00088819981280F391F2E5F3F4FFA01318347
:104DF00020838A819B8193838283E0E0F0E0DB0162
:104E000012968D919C911397009719F0BC01FD01AA
:104E1000F6CFAB014E5F5F4FDB018D919C91840F0C
:104E2000951F2091080B3091090B2817390779F449
:104E3000309729F410920B0B10920A0B02C01382C8
:104E40001282425050405093090B4093080BDF915F
:104E5000CF9108951F920F920FB60F9211242F93A6
:104E60003F938F939F93AF93BF938091030B909148
:104E7000040BA091050BB091060B3091070B019626
:104E8000A11DB11D232F2D5F2D3720F02D57019629
:104E9000A11DB11D2093070B8093030B9093040B6E
:104EA000A093050BB093060B8091FF0A9091000B25
:104EB000A091010BB091020B0196A11DB11D809331
:104EC000FF0A9093000BA093010BB093020BBF91CC
:104ED000AF919F918F913F912F910F900FBE0F90A7
:104EE0001F9018959B01AC017FB7F8948091FF0A41
:104EF0009091000BA091010BB091020B66B5A89B9D
:104F000005C06F3F19F00196A11DB11D7FBFBA2FDB
:104F1000A92F982F8827860F911DA11DB11D62E032
:104F2000880F991FAA1FBB1F6A95D1F7BC012DC01E
:104F3000FFB7F8948091FF0A9091000BA091010BAC
:104F4000B091020BE6B5A89B05C0EF3F19F00196A2
:104F5000A11DB11DFFBFBA2FA92F982F88278E0F33
:104F6000911DA11DB11DE2E0880F991FAA1FBB1F53
:104F7000EA95D1F7861B970B885E9340C8F22150C3
:104F800030404040504068517C4F2115310541056B
:104F9000510571F60895019739F0880F991F880F10
:104FA000991F02970197F1F70895789484B582606C
:104FB00084BD84B5816084BD85B5826085BD85B5BD
:104FC000816085BDEEE6F0E0808181608083E1E86C
:104FD000F0E01082808182608083808181608083A4
:104FE000E0E8F0E0808181608083E1EBF0E08081A7
:104FF00084608083E0EBF0E0808181608083E1E980
:10500000F0E0808182608083808181608083E0E93C
:10501000F0E0808181608083E1EAF0E0808182605D
:105020008083808181608083E0EAF0E0808181601C
:105030008083E1E2F1E08081826080838081816011
:105040008083E0E2F1E0808181608083EAE7F0E044
:1050500080818460808380818260808380818160A0
:1050600080838081806880831092C1000895382FEA
:10507000863308F0365320917B00832F86958695E2
:10508000869590E08170907043E0880F991F4A9553
:10509000E1F7277F282B20937B00377080916905EB
:1050A0008295880F880F807C832B80937C00809171
:1050B0007A00806480937A0080917A0086FDFCCF2C
:1050C0002091780040917900942F80E030E0282BE7
:1050D000392BC90108951F93CF93DF93182FEB014C
:1050E00061E0D7D0209709F4CAC0CF3FD10509F4B9
:1050F000C9C0E12FF0E0E254FE4F8491893009F4F9
:1051000066C08A30B0F48430F1F1853040F48230EA
:1051100059F1833070F5813009F0AEC020C087307E
:1051200009F443C0883008F048C0863009F0A4C0B4
:1051300034C08D3009F478C08E3038F48B3009F4E7
:105140005AC08C3008F066C04CC0803109F480C071
:10515000813109F487C08F3009F08EC06FC084B5EB
:10516000806884BDC7BD91C084B5806284BDC8BD60
:105170008CC080918000806880938000D0938900EB
:10518000C093880082C080918000806280938000FC
:10519000D0938B00C0938A0078C08091B000806863
:1051A0008093B000C093B30070C08091B000806263
:1051B0008093B000C093B40068C080919000806874
:1051C00080939000D0939900C09398005EC0809126
:1051D0009000806280939000D0939B00C0939A00CF
:1051E00054C080919000886080939000D0939D007F
:1051F000C0939C004AC08091A00080688093A0006A
:105200008091A0008F7B8093A000D093A900C093D1
:10521000A8003BC08091A00080628093A000D09342
:10522000AB00C093AA0031C08091A0008860809339
:10523000A000D093AD00C093AC0027C080912001A6
:10524000806880932001D0932901C09328011DC05C
:1052500080912001806280932001D0932B01C09324
:105260002A0113C080912001886080932001D0938F
:105270002D01C0932C0109C0C038D1051CF4812F29
:1052800060E002C0812F61E0B7D0DF91CF911F9124
:105290000895CF93DF93482F50E0CA0188589E4F5E
:1052A000FC0134914E5C5E4FFA018491882369F1D0
:1052B00090E0880F991FFC01EC51FF4FA591B4912C
:1052C000FC01E250FF4FC591D491662351F42FB7F2
:1052D000F8948C91932F909589238C9388818923BE
:1052E0000BC0623061F42FB7F8948C91932F909596
:1052F00089238C938881832B88832FBF06C09FB717
:10530000F8948C91832B8C939FBFDF91CF9108955C
:10531000893009F449C08A30A0F4843051F18530D5
:1053200040F4823079F1833000F5813009F063C0B8
:1053300026C0873079F1883098F5863009F05BC057
:1053400025C08D3009F442C08E3028F48B30B1F185
:105350008C30C0F52DC0803109F442C0813109F490
:1053600045C08F3009F047C037C0809180008F77EB
:1053700003C0809180008F7D80938000089584B564
:105380008F7702C084B58F7D84BD08958091B00071
:105390008F7703C08091B0008F7D8093B000089517
:1053A000809190008F7707C0809190008F7D03C01F
:1053B00080919000877F8093900008958091A00055
:1053C0008F7707C08091A0008F7D03C08091A000DF
:1053D000877F8093A0000895809120018F7703C07C
:1053E000809120018F7D809320010895809120017C
:1053F000877F809320010895FF920F931F93F62ECD
:10540000482F50E0CA0182549E4FFC012491CA01EA
:1054100088589E4FFC0114914E5C5E4FFA01049136
:105420000023C1F0222311F0822F72DFE02FF0E081
:10543000EE0FFF1FE250FF4FA591B4919FB7F89474
:10544000FF2021F48C911095812302C08C91812B37
:105450008C939FBF1F910F91FF9008950F931F93FF
:10546000482F50E0CA0182549E4FFC012491CA018A
:1054700088589E4FFC0104914E5C5E4FFA011491D6
:10548000112319F420E030E014C0222311F0822F00
:105490003FDF812F90E0880F991F885E9E4FFC01AF
:1054A000A591B4918C9120E030E0802311F021E0AF
:1054B00030E0C9011F910F9108950895CF93DF93B4
:1054C00074DDFBDF0E94991DC0E0D0E00E948E1DBC
:1054D0002097E1F30E940000F9CF0895CF92DF9268
:1054E000EF92FF920F931F93CF93DF937C016B0199
:1054F0008A01C0E0D0E00FC0D6016D916D01D701E7
:10550000ED91FC910190F081E02DC7011995C80F34
:10551000D91F015010400115110571F7CE01DF911F
:10552000CF911F910F91FF90EF90DF90CF90089552
:10553000CF93DF93EC016115710519F420E030E0A1
:105540000FC0DB010D900020E9F71197A61BB70BE8
:10555000E881F9810280F381E02DAD0119959C016C
:10556000C901DF91CF9108954F925F927F928F9200
:105570009F92AF92BF92CF92DF92EF92FF920F93E2
:105580001F93DF93CF93CDB7DEB7A1970FB6F894F3
:10559000DEBF0FBECDBF2C01742ECB01223008F42C
:1055A0002AE019A231E2C32ED12CCC0EDD1E822EB0
:1055B0009924AA24BB24672D752FA5019401D7D067
:1055C00079018A01C801B701A50194019ED0472D38
:1055D000461B0894C108D1084A3014F4405D01C04C
:1055E000495CF6014083E114F1040105110521F045
:1055F0007E2C5F2DC801DFCFC201B60199DFA196D5
:105600000FB6F894DEBF0FBECDBFCF91DF911F91D3
:105610000F91FF90EF90DF90CF90BF90AF909F9051
:105620008F907F905F904F900895DC012115310598
:1056300041F4ED91FC910190F081E02D642F1995DA
:10564000089592CFEF92FF920F931F939A01E62E47
:10565000FF2400E010E0B801A701E7DF1F910F91E0
:10566000FF90EF900895CF92DF92EF92FF920F9309
:105670001F93CF93DF93EC016A017B012115310564
:1056800041F4E881F9810190F081E02D642F1995B2
:105690001DC02A303105C9F477FF16C0E881F981B1
:1056A0000190F081E02D6DE219958C01442755277A
:1056B000BA014C195D096E097F09CE012AE054DF59
:1056C0009801280F391F03C02AE04EDF9C01C90151
:1056D000DF91CF911F910F91FF90EF90DF90CF90CE
:1056E0000895EF92FF920F931F937B019A01002779
:1056F000F7FC0095102FB801A701B5DF1F910F919E
:10570000FF90EF90089514CF0895629FD001739F8A
:10571000F001829FE00DF11D649FE00DF11D929F4D
:10572000F00D839FF00D749FF00D659FF00D99278C
:10573000729FB00DE11DF91F639FB00DE11DF91FB0
:10574000BD01CF011124089597FB092E07260AD029
:1057500077FD04D02ED006D000201AF47095619504
:105760007F4F0895F6F7909581959F4F0895A1E298
:105770001A2EAA1BBB1BFD010DC0AA1FBB1FEE1FCB
:10578000FF1FA217B307E407F50720F0A21BB30B16
:10579000E40BF50B661F771F881F991F1A9469F792
:1057A00060957095809590959B01AC01BD01CF01EE
:1057B0000895AA1BBB1B51E107C0AA1FBB1FA61758
:1057C000B70710F0A61BB70B881F991F5A95A9F7AA
:1057D00080959095BC01CD010895EE0FFF1F0590B7
:0A57E000F491E02D1994F894FFCF26
:1057EA00303030006100202020005F5F5F004D658F
:1057FA006D6F727920456D7074696564210042612C
:10580A006E6B3A2052414D0041726475696E6F2089
:10581A00444D582D35313200546573746572202613
:10582A0020436F6E74726F6C6C6572004669726D9C
:10583A002076002E00486172642076004F70656EF3
:10584A002048617264776172652100687474703AE5
:10585A002F2F676F6F2E676C2F356E714A4B74004E
:10586A003E002B002D2D2D002D0020004D656D6F63
:10587A0072792042616E6B3A0042616E6B31202070
:10588A0042616E6B34202042616E6B370042616E5A
:10589A006B32202042616E6B35202042616E6B387C
:1058AA000042616E6B33202042616E6B36202045C8
:1058BA007869740053617665004C6F616400436CCB
:1058CA00656172004D656D6F7279204C6F61646518
:1058DA0064210042616E6B3A20004D656D6F7279EA
:1058EA0020436C65616E696E672E2E2E004D656DC4
:1058FA006F727920436C65616E656421004D656D38
:10590A006F727920536176696E672E2E2E004D656F
:10591A006D6F727920536176656421004D656D6FF4
:10592A007279204F7074696F6E733A20202062007A
:10593A00456D70747900426C61636B0043616E63FC
:10594A00656C004C434420436F6E6669673A0041B8
:10595A00626F7574004261636B204C696768743AC0
:10596A0000436F6E74726173743A004374726C0010
:10597A00436F6E74726F6C204F7074696F6E733AF6
:10598A0020206200556E6974617279004D617472EB
:10599A00697800436861736572004D756C7469704B
:1059AA006C7900436F6E6669670053656375656E4F
:1059BA0063657200632D2D2D204D62202043747281
:1059CA00202020202D00556E697461727920436F62
:1059DA006E74726F6C3A202062004D656D6F727939
:1059EA00004368616E6E656C3A2030303100566152
:1059FA006C75653A004368617365724348202D2DC2
:105A0A002D0044656C6179202020207831303D6D6D
:105A1A0053004669727374204348202020202020B6
:105A2A00204374726C0046696E616C2043482020E2
:105A3A00202020202053746172740053746F7020E8
:105A4A000053746172740062202056616C7565009F
:105A5A004669727374204348202020202020437412
:105A6A00726C004D756C7469706C7920202020204E
:105A7A00204D656D6F7279005175616E7469747924
:105A8A002020202020204170706C79004572726FAE
:105A9A0072212000202020202020200043616C63F6
:105AAA002E2E004F6B21004170706C7920005365D7
:105ABA006375656E6365722042616E6B733A20206E
:105ACA00620044656C617920303031783130303D84
