:1000000004C100002FC100002DC100002BC1000061
:1000100029C1000027C1000025C1000023C1000044
:1000200021C100001FC100001DC100001BC1000054
:1000300019C1000017C1000015C1000013C1000064
:1000400011C100000FC100000DC100000BC1000074
:1000500009C1000007C1000005C100000C94180B85
:1000600001C100002DC30000FDC00000C9C3000095
:10007000F9C00000F7C00000F5C00000F3C00000A8
:10008000F1C00000EFC00000EDC00000EBC00000B8
:10009000E9C00000E7C00000E5C00000FFC70000A5
:1000A000E1C00000DFC00000DDC00000DBC00000D8
:1000B000D9C00000D7C00000D5C00000D3C00000E8
:1000C000D1C00000CFC00000CDC00000CBC00000F8
:1000D000C9C00000C7C00000C5C00000C3C0000008
:1000E000C1C0000000002100240027002A002D00CC
:1000F0003000330001010000040107010A01000083
:100100002200250028002B002E00310034000201BF
:100110000000050108010B0100002000230026005B
:1001200029002C002F00320000010000030106010D
:10013000090105050505070508080808020202026D
:100140000A0A080804040404010101010101010173
:100150000303030303030303040707070C0C0C0C3E
:100160000C0C0C0C02020202060606060606060627
:100170000B0B0B0B0B0B0B0B0102102020080810B4
:100180002040102040800201020108040201010207
:1001900004081020408080402010080402018004E0
:1001A000020180402010080402010804020101023B
:1001B0000408102040800102040810204080000044
:1001C000090A02080B0C0D070603040100000000D9
:1001D000000000000000000000000000000000001F
:1001E0000000000000000000000011100F000000DF
:1001F00000000000000000000000000000000000FF
:10020000000000003A017804BD0711241FBECFEFA3
:10021000D1E2DEBFCDBF00E00CBF13E0A0E0B2E052
:10022000ECEEFCE100E00BBF02C007900D92AC3297
:10023000B107D9F71BBE16E0ACE2B3E001C01D92D6
:10024000A733B107E1F712E0CAE0D2E004C0229779
:10025000FE010E94700EC430D107C9F70E94170E2C
:100260000C94740ECDCEDC0101C06D934150504012
:10027000E0F708958F92AF92CF92EF920F9300D054
:10028000EDB7FEB731968BE1ADB7BEB711968C9343
:100290008CE181838DE182838CE293E06EE14FE11A
:1002A00020E206E1E7E1EE2E78E1C72E59E1A52E26
:1002B0003AE1832EE4D50F900F900F900F91EF90BD
:1002C000CF90AF908F9008950F931F930CE213E09F
:1002D000C80133D4C80160E040E002D4C80160E046
:1002E00072E00E946C0EC80162E042E0F9D3C801DE
:1002F00061E172E00E946C0EC8016BE042E0F0D355
:10030000C80167E172E00E946C0E1F910F91089581
:100310001F938CE293E011D48CE293E06DE172E0E4
:100320000E946C0E11E08CE293E061E0412FD8D383
:100330008CE293E06EE272E00E946C0E1F5F14305C
:1003400091F71F910895CF93DF938CE293E0F5D35B
:100350008CE293E061E041E0C3D38CE293E062E49D
:1003600072E00E946C0EC0E0D0E08AE695E0BE012B
:1003700040E084D36091EC027091ED02882777FD14
:100380008095982F0E94600BE0914405F0914505FF
:10039000EC0FFD1F809143038083219682E0C030E3
:1003A000D80719F78CE293E0C8D38CE293E061E0C0
:1003B00041E096D38CE293E065E572E00E946C0E1A
:1003C0006CE271E080E090E00E94600BA1DFDF91C1
:1003D000CF910895CF93DF93C0E0D0E08AE695E017
:1003E000BE0145D3FE01ED5BFC4F8083E0914405E7
:1003F000F0914505EC0FFD1F8083219682E0C0300F
:10040000D80761F78CE293E098D38CE293E063E045
:1004100041E066D38CE293E065E672E00E946C0EE8
:100420006CE271E080E090E00E94600B71DFDF9190
:10043000CF9108951F938CE293E064E772E00E94ED
:100440006C0E8CE293E060E042E04AD38CE293E0F1
:1004500061E872E00E946C0E8CE293E068E042E09A
:100460003FD38CE293E068E872E00E946C0E8CE26D
:1004700093E06EE042E034D38CE293E06DE872E00A
:100480000E946C0E11E085E20E94E80D892B69F450
:100490006091EA027091EB02882777FD8095982F92
:1004A0000E94600B123049F577C083E20E94E80D8C
:1004B000892B79F46091EA027091EB02882777FD2D
:1004C0008095982F0E94600B1230E9F01330D9F616
:1004D0002FC084E20E94E80D892BA9F66091EA0200
:1004E0007091EB02882777FD8095982F0E94600B12
:1004F000113011F1123039F637C0133009F44EC003
:10050000113009F64DC08CE293E067E042E0E8D29A
:100510008CE293E063E972E00E946C0E8CE293E05F
:1005200060E042E0DDD28CE293E065E972E0A8CFC2
:100530008CE293E06DE003C08CE293E060E042E087
:10054000CFD28CE293E063E972E00E946C0E8CE201
:1005500093E067E042E0C4D28CE293E065E972E0A8
:100560000E946C0E12E08FCF8CE293E067E042E0D5
:10057000B7D28CE293E063E972E00E946C0E8CE2E9
:1005800093E06DE042E0ACD28CE293E065E972E08A
:100590000E946C0E13E077CF1DDF75CFD4DE73CFD2
:1005A0001F9108950F931F930CE213E0C80167E9B0
:1005B00072E00E946C0EC80160E041E091D2C80177
:1005C0006BEA72E00E946C0EC80160E042E088D2E3
:1005D000C80160EC72E00E946C0EC80160E043E06C
:1005E0007FD2C80165ED72E00E946C0E68EC70E08D
:1005F00080E090E00E94600BC8019FD2C80198D2B1
:100600001F910F910895CEDF15DF5EDE60E27EE47C
:1006100080E090E00C94600B0F931F9381E090E0DA
:1006200090935A058093590580E092E09093560587
:100630008093550582E495E060E071D10CE213E00F
:10064000C80164E144E020E07DD2C80171D281E2BA
:1006500062E00E94030D82E262E00E94030D83E2E9
:1006600062E00E94030D84E262E00E94030D85E2D5
:1006700062E00E94030D1F910F910895FC01838594
:10068000882331F48091C10087728093C10008955E
:10069000813031F48091C90087728093C900089538
:1006A000823031F48091D10087728093D100089517
:1006B000833029F48091310187728093310108954C
:1006C0001F920F920FB60F920BB60F9211242F9319
:1006D0003F934F935F936F937F938F939F93AF93CA
:1006E000BF93EF93FF938091C00080934A053091B0
:1006F000C60030934B052091460520934C0584FF9E
:1007000010C08091C0008F7E8093C00080915705FB
:10071000909158059093500580934F0581E0809308
:100720004605213091F4332369F482E08093460535
:1007300080914205909143050196909348058093DE
:1007400047054BC01092460548C02230A1F4809165
:100750004F059091500501979093500580934F0558
:10076000892BD9F583E080934605E0914205F0910D
:100770004305308332C0233081F5E0914705F09185
:100780004805F0936505E093640530834091640566
:10079000509165054F5F5F4F509365054093640529
:1007A0008091420590914305209153053091540565
:1007B000820F931F4817590760F010924605E09189
:1007C0006805F0916905309741F080914D051995C4
:1007D00004C05093480540934705FF91EF91BF91A6
:1007E000AF919F918F917F916F915F914F913F91C9
:1007F0002F910F900BBE0F900FBE0F901F9018956A
:100800001F920F920FB60F920BB60F9211242F93D7
:100810003F934F935F936F937F938F939F93AF9388
:10082000BF93EF93FF9380914E05809363058823D8
:1008300061F41092C500809160058093C40010920D
:10084000C60081E080934E0540C0813081F4109253
:10085000C50080915F058093C4001092C60082E0BD
:1008600080934E0510925205109251052EC0809132
:100870005105909152059093620580936105E09136
:100880004405F0914505E80FF91F20812093C6002B
:100890009C012F5F3F4F309362052093610580914B
:1008A0005505909156052817390759F4E0916605CA
:1008B000F0916705309711F080E0199510924E0580
:1008C00004C03093520520935105FF91EF91BF91E1
:1008D000AF919F918F917F916F915F914F913F91D8
:1008E0002F910F900BBE0F900FBE0F901F90189579
:1008F00021E030E0309358052093570588E090E0E0
:10090000909354058093530530935A0520935905CD
:10091000909356058093550510924D0508951F93A9
:10092000CF93DF93EC01162FF894A8DE1C8F1123D0
:1009300021F487E08D8F84E10BC0113021F483E036
:100940008D8F8AE005C0123021F481E08D8F85E023
:100950008E8F8B8D8F3F39F061E00E94030D8B8D60
:1009600061E00E94B60D8B858823D9F481E061E0B7
:100970000E94030D1092C5008D8D8093C40080915C
:10098000C00082608093C0008091C2008E6080931E
:10099000C2008091C10088648093C1001092C6009B
:1009A00055C08130D9F482E161E00E94030D1092BC
:1009B000CD008D8D8093CC008091C80082608093A3
:1009C000C8008091CA008E608093CA008091C900DF
:1009D00088648093C9001092CE0038C08230D9F468
:1009E00080E161E00E94030D1092D5008D8D80930F
:1009F000D4008091D00082608093D0008091D2009A
:100A00008E608093D2008091D10088648093D10061
:100A10001092D6001BC08330C9F48EE061E0F3D79A
:100A2000109235018D8D8093340180913001826068
:100A300080933001809132018E60809332018091E9
:100A400031018864809331011092360181E08C87F6
:100A50008B899C89B8D48A839B834B895C8960E0AD
:100A600070E001DC7894DF91CF911F910895F9999E
:100A7000FECF72BD61BDF89A80B50895F999FECF99
:100A80001FBA72BD61BD40BD0FB6F894FA9AF99ACB
:100A90000FBE089508950895FC011382128288EF15
:100AA00092E0918380830895FC01A081B181189622
:100AB0002D913C9119976FEFF90119950895DC017B
:100AC000ED91FC910284F385E02D40E019950895A5
:100AD000FC016581862F846085836C60CF01EFCF38
:100AE000DC0117969C911797491710F0492F415038
:100AF00018968C911897803139F4943029F4E42FAA
:100B0000F0E0EC5FFC4F04C0E42FF0E0E85FFC4F46
:100B10008081680F6068CD01D2CFDC01ED91FC913E
:100B20000284F385E02D41E0199581E090E008957D
:100B300062E0C5DF80ED97E01CC661E0C0DF80EDBC
:100B400097E017C6CF93DF93EC01423018F08C8109
:100B500088608C834F836887222329F0413019F401
:100B60008C8184608C8364E670E080E090E0A8D59E
:100B70006C8164FD2EC0E881F9810284F385E02D4B
:100B8000CE0163E042E0199584E991E1F2D5E88174
:100B9000F9810284F385E02DCE0163E042E01995EE
:100BA00084E991E1E6D5E881F9810284F385E02DBD
:100BB000CE0163E042E0199586E990E0DAD5E8815C
:100BC000F9810284F385E02DCE0162E042E01995BF
:100BD00011C06062CE0173DF84E991E1CAD56C81F6
:100BE0006062CE016CDF86E990E0C3D56C81606203
:100BF000CE0165DF6C816062CE0161DF84E08D83B0
:100C0000CE0166DFCE0199DF82E08E83CE0166E001
:100C100056DFCE0149DFDF91CF9108950F931F93E7
:100C20008C01FC01858561E0A1D7F801858560E034
:100C30009DD71F910F910895BF92CF92DF92EF92AF
:100C4000FF920F931F93CF93DF93D82EC92EB42E0C
:100C5000282F392FC9018C01C0E0D0E0E62EFF24F7
:100C60000CC0B7010C2E02C0759567950A94E2F787
:100C70006170F80185857AD721960F5F1F4FCB15DC
:100C800080F38D2D9C2DCADFDF91CF911F910F91A5
:100C9000FF90EF90DF90CF90BF9008950F931F9338
:100CA000CF93DF93EC01162F042F60E0413009F45D
:100CB00061E08B855BD78C858F3F11F060E056D764
:100CC000023089F08C8184FF04C0CE01612F48E09E
:100CD0000DC0612F70E084E0759567958A95E1F706
:100CE000CE0144E0A9DFCE01612F44E0A5DFDF9112
:100CF000CF911F910F9108956F927F928F92AF9233
:100D0000CF92EF920F931F93DF93CF93CDB7DEB7C0
:100D10003C01162F8E2DF301438724870587E68635
:100D2000C786A08A818A9E85928B9F85938B98899E
:100D3000948B9989958B61E066D6F301878561E094
:100D400062D6F301808961E05ED6F301818961E0BA
:100D50005AD6112381F4F301828961E054D6F3015C
:100D6000838961E050D6F301848961E04CD6F301B8
:100D7000858961E048D6F301838561E044D6F301BB
:100D800084858F3F11F061E03ED6F301858561E0F7
:100D90003AD6112319F0F301148203C080E1F30164
:100DA0008483F301838560E0E1D6F301858560E00B
:100DB000DDD6F30184858F3F11F060E0D7D68FEF49
:100DC000F301868B12861186CF91DF911F910F91CF
:100DD000EF90CF90AF908F907F906F900895DF92BB
:100DE000EF92FF920F931F938C01D62E7A01862FDC
:100DF00061E009D6D8015696DC9256971A96FC9275
:100E0000EE921997ED91FC910084F185E02DC801D7
:100E100060E019951F910F91FF90EF90DF9008957A
:100E2000DC01362F56962C9156972F3F39F1E22F41
:100E3000F0E0E254FE4FE491EE2379F019968D91A3
:100E40009C911A97892B19F4822F70E005C06FEFDF
:100E500070E0631B7109822FF8C419968D919C91E3
:100E60001A97662319F0892B31F402C0019719F4FF
:100E7000822F61E07BC6822F60E078C608954F9292
:100E80005F926F927F928F929F92AF92BF92CF921A
:100E9000DF92EF92FF920F931F93DF93CF93CDB723
:100EA000DEB73C01162FF42ED22EB02E9E2C5C2CD9
:100EB0004A2CF2DD80E193E0D3018D939C9300D026
:100EC0000F92EDB7FEB73196ADB7BEB711968C92C3
:100ED0008C8981838D8982838E898383C30160E0BD
:100EE000412F2F2D0D2DEB2CC92CA52C842C04DF8C
:100EF0000F900F900F900F90CF91DF911F910F9156
:100F0000FF90EF90DF90CF90BF90AF909F908F9029
:100F10007F906F905F904F90089520918C0530E006
:100F200080918B05281B3109C901089540918B05DB
:100F300080918C05481718F02FEF3FEF0AC0E42F7F
:100F4000F0E0E559FA4F8081282F30E04F5F409361
:100F50008B05C9010895E0918B0580918C05E817F8
:100F600018F0EFEFFFEF06C0F0E0E559FA4F80818F
:100F7000E82FF0E0CF01089508951092B305109284
:100F8000B20588EE93E0A0E0B0E08093B4059093C2
:100F9000B505A093B605B093B70580E293E09093B2
:100FA000B1058093B0050895CF92DF92EF92FF9242
:100FB0000F931F93CF93DF937C016B018A01809184
:100FC000AF058823A1F0C0E0D0E00DC0D701ED91BE
:100FD000FC91D601AC0FBD1F0190F081E02DC7013F
:100FE0006C9119952196C017D10780F303C0CB01EE
:100FF000642F39D0C801DF91CF911F910F91FF90DD
:10100000EF90DF90CF900895DF93CF930F92CDB7FD
:10101000DEB7FC0169838091AF058823C9F0809118
:10102000AE05803238F081E090E09383828320E047
:1010300030E014C08091AD05E82FF0E0E357FA4F9F
:10104000998190838F5F8093AD058093AE0504C036
:10105000CE01019661E007D021E030E0C9010F9098
:10106000CF91DF910895482F613210F081E008950B
:101070008091BC05843011F082E0089560930706EA
:10108000A6EEB5E0842F9C01F90102C081918D93F9
:101090008E2F841B8617D0F380E008951F920F9245
:1010A0000FB60F920BB60F9211242F933F934F93CD
:1010B0005F936F937F938F939F93AF93BF93EF93C0
:1010C000FF938091B90090E0887F90708036910501
:1010D00009F4F2C081369105CCF58832910509F406
:1010E0007BC089329105B4F48031910509F46FC059
:1010F000813191053CF4009709F447C1089709F044
:101100004FC165C08831910509F466C0809709F028
:1011100047C182C08034910509F4A4C0813491058F
:1011200044F48033910509F482C0C89709F038C1AE
:1011300089C08035910509F489C08835910509F485
:1011400096C08834910509F02BC1AEC0883991054D
:1011500009F413C189399105ECF48837910509F434
:10116000ABC0893791054CF48836910509F4A4C0C9
:101170008037910509F014C19FC08838910509F4A2
:10118000FCC08039910509F49DC08038910509F0B3
:1011900007C198C0803B910509F4C6C0813B910509
:1011A0004CF4803A910509F49FC0883A910509F002
:1011B000F7C0BAC0803C910509F4E3C0883C9105B2
:1011C00009F4DFC0883B910509F0EAC0C2C08091F4
:1011D000BD058093BB00CFC09091E4058091E505EB
:1011E000981768F49091E405E92FF0E0EC53FA4F7A
:1011F00080818093BB009F5F9093E405BCC0809189
:10120000BE05882309F44BC085ED8093BC00809116
:10121000BC0084FDFCCFC2C080E28093290685ED2E
:101220008093BC008091BC0084FDFCCFB7C080E3FC
:101230008093290685ED8093BC008091BC0084FDDD
:10124000FCCFACC088E3809329069BC08091E40565
:101250009091BB00E82FF0E0EC53FA4F90838F5F42
:101260008093E4059091E4058091E50582C080912A
:10127000E4059091BB00E82FF0E0EC53FA4F908327
:101280008F5F8093E4058091BE05882341F085ED52
:101290008093BC008091BC0084FDFCCF7FC081E0C6
:1012A0008093BF0584EA6EC085ED8093BC00809179
:1012B000BC0084FDFCCF72C083E08093BC0510921B
:1012C000280659C080912806803208F056C08091C7
:1012D00028069091BB00E82FF0E0E85FF94F90837B
:1012E0008F5F8093280647C080912806803230F4B3
:1012F000E0912806F0E0E85FF94F108285ED8093D9
:10130000BC008091BC0084FDFCCF1092BC056091B4
:101310002806E091C205F091C30588E096E070E0F0
:101320001995109228062DC084E08093BC05109278
:10133000060610920706E091C005F091C1051995C7
:1013400080910706882329F481E080930706109294
:10135000E60590910606E92FF0E0EA51FA4F808108
:101360008093BB009F5F9093060690910606809144
:101370000706981710F485EC01C085E88093BC003F
:101380000FC085EC8093BC0009C01092290685ED42
:101390008093BC008091BC0084FDFCCF1092BC0502
:1013A000FF91EF91BF91AF919F918F917F916F913D
:1013B0005F914F913F912F910F900BBE0F900FBEF9
:1013C0000F901F9018950F931F93CF93DF93BC013D
:1013D0008230910510F462E070E0E0913506F09102
:1013E000360640E050E0A0E0B0E024C0808191816A
:1013F00086179707D0F08617970771F4828193813B
:10140000109729F013969C938E9312972CC090936B
:1014100036068093350627C04115510519F084170B
:10142000950718F48D01AC01EF01DF0182819381F2
:101430009C01F9013097D1F641155105F9F0CA0127
:10144000861B970B8430910580F48A819B8101155E
:10145000110521F0F8019383828304C0909336062E
:1014600080933506FE01329645C0FE01E80FF91F54
:10147000619371930297998388833CC0809133066E
:1014800090913406892B41F48091F0029091F10201
:1014900090933406809333064091F2025091F30208
:1014A0004115510541F44DB75EB78091EE02909120
:1014B000EF02481B590B2091330630913406241754
:1014C0003507B0F4CA01821B930B8617970780F08B
:1014D000AB014E5F5F4F8417950750F0420F531FCB
:1014E0005093340640933306F9016193719302C01F
:1014F000E0E0F0E0CF01DF91CF911F910F910895CF
:10150000CF93DF939C01009709F48FC0EC012297E1
:101510001B821A826091350670913606611571053D
:1015200081F488819981820F931F20913306309135
:1015300034062817390739F5D0933406C09333069B
:1015400074C0DB0140E050E0AC17BD0708F1BB837D
:10155000AA83FE0121913191E20FF31FAE17BF075D
:1015600079F48D919C911197280F391F2E5F3F4F71
:101570003983288312968D919C9113979B838A833C
:101580004115510571F4D0933606C09335064DC010
:1015900012968D919C911397AD01009711F0DC018B
:1015A000D3CFDA011396DC93CE931297FA012191EF
:1015B0003191E20FF31FCE17DF0769F4888199811B
:1015C000280F391F2E5F3F4FFA01318320838A8114
:1015D0009B8193838283E0E0F0E0DB0112968D91A2
:1015E0009C911397009719F0BC01FD01F6CFAB0158
:1015F0004E5F5F4FDB018D919C91840F951F209171
:101600003306309134062817390779F4309729F4D6
:10161000109236061092350602C013821282425092
:1016200050405093340640933306DF91CF91089594
:101630001F920F920FB60F9211242F933F938F9307
:101640009F93AF93BF9380912E0690912F06A09108
:101650003006B0913106309132060196A11DB11DC0
:10166000232F2D5F2D3720F02D570196A11DB11D81
:101670002093320680932E0690932F06A093300677
:10168000B093310680912A0690912B06A0912C06EA
:10169000B0912D060196A11DB11D80932A0690934D
:1016A0002B06A0932C06B0932D06BF91AF919F916E
:1016B0008F913F912F910F900FBE0F901F90189513
:1016C0009B01AC017FB7F89480912A0690912B067C
:1016D000A0912C06B0912D0666B5A89B05C06F3F62
:1016E00019F00196A11DB11D7FBFBA2FA92F982F08
:1016F0008827860F911DA11DB11D62E0880F991FDB
:10170000AA1FBB1F6A95D1F7BC012DC0FFB7F89483
:1017100080912A0690912B06A0912C06B0912D065F
:10172000E6B5A89B05C0EF3F19F00196A11DB11DBC
:10173000FFBFBA2FA92F982F88278E0F911DA11DAB
:10174000B11DE2E0880F991FAA1FBB1FEA95D1F7D0
:10175000861B970B885E9340C8F221503040404072
:10176000504068517C4F211531054105510571F6F6
:101770000895019739F0880F991F880F991F0297D4
:101780000197F1F70895789484B5826084BD84B59B
:10179000816084BD85B5826085BD85B5816085BD6C
:1017A000EEE6F0E0808181608083E1E8F0E0108285
:1017B000808182608083808181608083E0E8F0E0C6
:1017C000808181608083E1EBF0E0808184608083B0
:1017D000E0EBF0E0808181608083E1E9F0E08081EE
:1017E00082608083808181608083E0E9F0E0808195
:1017F00081608083E1EAF0E0808182608083808183
:1018000081608083E0EAF0E0808181608083E1E2B2
:10181000F1E0808182608083808181608083E0E26A
:10182000F1E0808181608083EAE7F0E0808184607C
:1018300080838081826080838081816080838081D9
:10184000806880831092C10008951F93CF93DF9327
:10185000182FEB0161E0D7D0209709F4CAC0CF3F21
:10186000D10509F4C9C0E12FF0E0E254FE4F8491A4
:10187000893009F466C08A30B0F48430F1F18530E3
:1018800040F4823059F1833070F5813009F0AEC0F8
:1018900020C0873009F443C0883008F048C0863043
:1018A00009F0A4C034C08D3009F478C08E3038F40B
:1018B0008B3009F45AC08C3008F066C04CC08031BF
:1018C00009F480C0813109F487C08F3009F08EC0DF
:1018D0006FC084B5806884BDC7BD91C084B5806287
:1018E00084BDC8BD8CC080918000806880938000DA
:1018F000D0938900C093880082C08091800080626C
:1019000080938000D0938B00C0938A0078C0809130
:10191000B00080688093B000C093B30070C0809125
:10192000B00080628093B000C093B40068C0809122
:101930009000806880939000D0939900C0939800A5
:101940005EC080919000806280939000D0939B0055
:10195000C0939A0054C0809190008860809390005A
:10196000D0939D00C0939C004AC08091A0008068E5
:101970008093A0008091A0008F7B8093A000D093E3
:10198000A900C093A8003BC08091A0008062809312
:10199000A000D093AB00C093AA0031C08091A000FA
:1019A00088608093A000D093AD00C093AC0027C0A6
:1019B00080912001806880932001D0932901C093F9
:1019C00028011DC080912001806280932001D09366
:1019D0002B01C0932A0113C080912001886080935D
:1019E0002001D0932D01C0932C0109C0C038D1052E
:1019F0001CF4812F60E002C0812F61E0B7D0DF913D
:101A0000CF911F910895CF93DF93482F50E0CA01E3
:101A100088589E4FFC0134914E5C5E4FFA018491D0
:101A2000882369F190E0880F991FFC01EC51FF4F6A
:101A3000A591B491FC01E250FF4FC591D49166236A
:101A400051F42FB7F8948C91932F909589238C9310
:101A5000888189230BC0623061F42FB7F8948C9190
:101A6000932F909589238C938881832B88832FBF14
:101A700006C09FB7F8948C91832B8C939FBFDF9106
:101A8000CF910895893009F449C08A30A0F4843098
:101A900051F1853040F4823079F1833000F58130A6
:101AA00009F063C026C0873079F1883098F5863018
:101AB00009F05BC025C08D3009F442C08E3028F497
:101AC0008B30B1F18C30C0F52DC0803109F442C0AB
:101AD000813109F445C08F3009F047C037C080918B
:101AE00080008F7703C0809180008F7D809380007D
:101AF000089584B58F7702C084B58F7D84BD089525
:101B00008091B0008F7703C08091B0008F7D80936B
:101B1000B0000895809190008F7707C08091900069
:101B20008F7D03C080919000877F809390000895FF
:101B30008091A0008F7707C08091A0008F7D03C0A7
:101B40008091A000877F8093A0000895809120015C
:101B50008F7703C0809120018F7D809320010895AD
:101B600080912001877F809320010895FF920F9339
:101B70001F93F62E482F50E0CA0182549E4FFC015D
:101B80002491CA0188589E4FFC0114914E5C5E4F0F
:101B9000FA0104910023C1F0222311F0822F72DF99
:101BA000E02FF0E0EE0FFF1FE250FF4FA591B49140
:101BB0009FB7F894FF2021F48C911095812302C0E7
:101BC0008C91812B8C939FBF1F910F91FF90089553
:101BD0000F931F93482F50E0CA0182549E4FFC017F
:101BE0002491CA0188589E4FFC0104914E5C5E4FBF
:101BF000FA011491112319F420E030E014C02223DB
:101C000011F0822F3FDF812F90E0880F991F885EAF
:101C10009E4FFC01A591B4918C9120E030E080238F
:101C200011F021E030E0C9011F910F910895CF9389
:101C3000DF93A9DD0E940C03C0E0D0E00E94030303
:101C40002097E1F30E940000F9CF0895CF92DF9230
:101C5000EF92FF920F931F93CF93DF937C016B0161
:101C60008A01C0E0D0E00FC0D6016D916D01D701AF
:101C7000ED91FC910190F081E02DC7011995C80FFD
:101C8000D91F015010400115110571F7CE01DF91E8
:101C9000CF911F910F91FF90EF90DF90CF9008951B
:101CA000CF93DF93EC016115710519F420E030E06A
:101CB0000FC0DB010D900020E9F71197A61BB70BB1
:101CC000E881F9810280F381E02DAD0119959C0135
:101CD000C901DF91CF910895E3CF0895EE0FFF1F63
:0C1CE0000590F491E02D1994F894FFCFCA
:101CEC00436F6E74726F6C204F7074696F6E733AC1
:101CFC00003E556E6974004D756C746900436861E3
:101D0C006E6E656C3A203030312D3031350030300C
:101D1C0030203030302030303020303030203030F7
:101D2C003000454550524F4D20436C65616E696ED5
:101D3C00672E2E2E00454550524F4D20436C656149
:101D4C006E65642100454550524F4D204C6F6164C7
:101D5C0065642100454550524F4D20496E69743AD7
:101D6C00003E456D707479004C6F616400436C6586
:101D7C0061720020003E00205465636820496E7338
:101D8C006964652E636F6D2E6D7800444D582D354A
:101D9C003132202020436F6E74726F6C6C65720050
:101DAC002020202020202020202020536F6674200B
:101DBC0076302E300049443A32302020202020202A
:101DCC00486172642076302E30005E011400800071
:101DDC0037060000000000008D05260EA2054A05FE
:101DEC004B05250E0040105000401454000000001C
:101DFC008D05260EA205EF0610074E06000000000A
:0C1E0C000408D4078D079607AB07BC073D
:00000001FF
