:1000000004C100002FC100002DC100002BC1000061
:1000100029C1000027C1000025C1000023C1000044
:1000200021C100001FC100001DC100001BC1000054
:1000300019C1000017C1000015C1000013C1000064
:1000400011C100000FC100000DC100000BC1000074
:1000500009C1000007C1000005C100000C942D1368
:1000600001C100000C942510FDC000000C94C510C7
:10007000F9C00000F7C00000F5C00000F3C00000A8
:10008000F1C00000EFC00000EDC00000EBC00000B8
:10009000E9C00000E7C00000E5C000000C945B0E62
:1000A000E1C00000DFC00000DDC00000DBC00000D8
:1000B000D9C00000D7C00000D5C00000D3C00000E8
:1000C000D1C00000CFC00000CDC00000CBC00000F8
:1000D000C9C00000C7C00000C5C00000C3C0000008
:1000E000C1C0000000002100240027002A002D00CC
:1000F0003000330001010000040107010A01000083
:100100002200250028002B002E00310034000201BF
:100110000000050108010B0100002000230026005B
:1001200029002C002F00320000010000030106010D
:10013000090105050505070508080808020202026D
:100140000A0A080804040404010101010101010173
:100150000303030303030303040707070C0C0C0C3E
:100160000C0C0C0C02020202060606060606060627
:100170000B0B0B0B0B0B0B0B0102102020080810B4
:100180002040102040800201020108040201010207
:1001900004081020408080402010080402018004E0
:1001A000020180402010080402010804020101023B
:1001B0000408102040800102040810204080000044
:1001C000090A02080B0C0D070603040100000000D9
:1001D000000000000000000000000000000000001F
:1001E0000000000000000000000011100F000000DF
:1001F00000000000000000000000000000000000FF
:10020000000000003A01CA0D3D1111241FBECFEFBE
:10021000D1E2DEBFCDBF00E00CBF13E0A0E0B2E052
:10022000EAE3FFE200E00BBF02C007900D92AE3898
:10023000B107D9F71BBE16E0AEE8B3E001C01D92CE
:10024000A33FB107E1F712E0CAE0D2E004C0229771
:10025000FE010E949717C430D107C9F70E942D16DE
:100260000C949B17CDCEDC0101C06D9341505040E2
:10027000E0F70895CF92EF920F9387EE95E06091AB
:100280004403409146032091480300914A03E090C3
:100290004C03C0904E030E945E0D0F91EF90CF90E3
:1002A00008953F924F925F926F927F928F929F92AA
:1002B000AF92BF92CF92DF92EF92FF920F931F9374
:1002C00081E18093430344244394B4E03B2EA7E0B0
:1002D0008A2EFFE07F2EE2E06E2E75E0572E68E05A
:1002E000B62E53E0A52E46E0942E39E0E32E2EE004
:1002F000D22E9AE0C92E1BE00CE08DE0F82E68C1EA
:100300008091330360E00E94CB1580913B030E94F3
:10031000FD15892B41F44092430364E670E080E0D0
:1003200090E00E94751365E070E080E090E00E942C
:10033000751380913D030E94FD15892B41F4309285
:10034000430364E670E080E090E00E94751365E08E
:1003500070E080E090E00E94751380913F030E945E
:10036000FD15892B41F48092430364E670E080E040
:1003700090E00E94751365E070E080E090E00E94DC
:100380007513809141030E94FD15892B41F47092F1
:10039000430364E670E080E090E00E94751365E03E
:1003A00070E080E090E00E9475138091330361E07B
:1003B0000E94CB158091350360E00E94CB1580919F
:1003C0003B030E94FD15892B41F46092430364E6D0
:1003D00070E080E090E00E94751365E070E080E0DE
:1003E00090E00E94751380913D030E94FD15892BBA
:1003F00041F45092430364E670E080E090E00E9494
:10040000751365E070E080E090E00E9475138091C4
:100410003F030E94FD15892B41F4B092430364E62B
:1004200070E080E090E00E94751365E070E080E08D
:1004300090E00E947513809141030E94FD15892B65
:1004400041F41092430364E670E080E090E00E9483
:10045000751365E070E080E090E00E947513809174
:10046000350361E00E94CB158091370360E00E9464
:10047000CB1580913B030E94FD15892B41F4A0927E
:10048000430364E670E080E090E00E94751365E04D
:1004900070E080E090E00E94751380913D030E941F
:1004A000FD15892B41F49092430364E670E080E0EF
:1004B00090E00E94751365E070E080E090E00E949B
:1004C000751380913F030E94FD15892B41F4E09242
:1004D000430364E670E080E090E00E94751365E0FD
:1004E00070E080E090E00E947513809141030E94CB
:1004F000FD15892B41F4D092430364E670E080E05F
:1005000090E00E94751365E070E080E090E00E944A
:1005100075138091370361E00E94CB1580913903F8
:1005200060E00E94CB1580913B030E94FD15892B52
:1005300041F4C092430364E670E080E090E00E94E2
:10054000751365E070E080E090E00E947513809183
:100550003D030E94FD15892B41F41093430364E68B
:1005600070E080E090E00E94751365E070E080E04C
:1005700090E00E94751380913F030E94FD15892B26
:1005800041F40093430364E670E080E090E00E9451
:10059000751365E070E080E090E00E947513809133
:1005A00041030E94FD15892B41F4F092430364E658
:1005B00070E080E090E00E94751365E070E080E0FC
:1005C00090E00E9475138091390361E00E94CB1581
:1005D00080914303813109F493CE1F910F91FF90D5
:1005E000EF90DF90CF90BF90AF909F908F907F90D3
:1005F0006F905F904F903F9008950F931F93CF930C
:10060000DF93009191051091920587EE95E0602FA0
:10061000412F0E947D0B87EE95E060E072E00E9422
:100620005217C4E1D0E080912D030E94FD15892B63
:10063000F9F468EC70E080E090E00E94751320917E
:1006400091058091920590E08C9FA0018D9F500DA7
:100650009C9F500D1124222309F424E12150FA011A
:10066000E20FF11DED56FA4F80818130A1F724C0D1
:1006700080912F030E94FD15892B09F568EC70E02D
:1006800080E090E00E947513209191058091920581
:1006900090E08C9FA0018D9F500D9C9F500D1124C8
:1006A0002F5F243108F020E0FA01E20FF11DED5632
:1006B000FA4F80818130A1F72093910583C080910A
:1006C0002B030E94FD15892B09F568EC70E080E092
:1006D00090E00E9475132091920580919105482F1A
:1006E00050E02F5F243008F020E0822F90E08C9FB4
:1006F000F0018D9FF00D9C9FF00D1124E40FF51F6C
:10070000ED56FA4F8081813061F726C08091290330
:100710000E94FD15892B19F568EC70E080E090E0EF
:100720000E9475132091920580919105482F50E009
:10073000222309F424E02150822F90E08C9FF001C5
:100740008D9FF00D9C9FF00D1124E40FF51FED56C9
:10075000FA4F8081813061F72093920533C08091F8
:1007600031030E94FD15892B09F05DCF68EC70E024
:1007700080E090E00E947513409192056091910590
:10078000842F90E08C9FF0018D9FF00D9C9FF00DC9
:100790001124E60FF11DED56FA4F8081813061F58D
:1007A00087EE95E0AAD787EE95E062E072E00E94BE
:1007B000521782E00091910510919205823009F064
:1007C00032CF1BC087EE95E0602F412F96D787EE82
:1007D00095E064E072E00E94521787EE95E0609128
:1007E00091054091920589D787EE95E060E072E02F
:1007F0000E94521781E0DECFFFCFDF91CF911F9192
:100800000F9108950F931F93CF93DF93EC01162F51
:10081000042F87EE95E071D787EE95E066E072E0F1
:100820000E945217CA30D10534F4612F6E5F87EEF3
:1008300095E0402F62D7CE010A978A35910530F4B2
:10084000612F6F5F87EE95E0402F57D7C436D105F3
:100850002CF087EE95E0612F402F4FD787EE95E083
:10086000BE014AE050E00E944017DF91CF911F91F6
:100870000F910895CF92DF92EF92FF920F931F9303
:100880008C016DE070E040E050E0BCDF9EE0C92EDE
:10089000D12CC00ED11EC60161E170E040E050E0F5
:1008A000B1DF8EE8E82E83E0F82E0E0D1F1DF80153
:1008B000808190E061E070E041E050E0A3DFF8016A
:1008C000818190E065E070E041E050E09BDFF8015D
:1008D000828190E069E070E041E050E093DFF80150
:1008E000838190E06DE070E041E050E08BDFF80143
:1008F000848190E061E170E041E050E083DFF80145
:10090000858190E061E070E042E050E07BDFF8013B
:10091000868190E065E070E042E050E073DFF8012E
:10092000878190E069E070E042E050E06BDFF80121
:10093000808590E06DE070E042E050E063DFF80118
:10094000818590E061E170E042E050E05BDFF8011A
:10095000828590E061E070E043E050E053DFF80111
:10096000838590E065E070E043E050E04BDFF80104
:10097000848590E069E070E043E050E043DFF801F7
:10098000858590E06DE070E043E050E03BDFEC0CEB
:10099000FD1CF701808190E061E170E043E050E0F0
:1009A00031DF1F910F91FF90EF90DF90CF9008956E
:1009B0000F931F93CF93DF9387EE95E06091E3054C
:1009C0004091E4059AD687EE95E066E072E00E94D9
:1009D000521787EE95E07BD61092E6051092E5055A
:1009E0006091E3056E5F6093E30587EE95E04091CB
:1009F000E40583D656DC609143036A3018F000E0CA
:100A000010E015C087EE95E04AE050E00E94F11634
:100A100087EE95E06091E3054091E4056ED6809104
:100A20004303082F10E01093E6050093E50580913D
:100A300043038E3009F496C034DC809143038E303A
:100A400029F41093E6050093E5058CC08A3018F070
:100A5000C0E0D0E027C06091E30561506093E305FA
:100A600087EE95E04091E40548D687EE95E0B80121
:100A70004AE050E00E94401787EE95E06091430302
:100A80004AE050E00E94F11680914303C82FD0E065
:100A90006091E3056F5F6093E30587EE95E0409119
:100AA000E4052BD6FEDB809143038E3089F4C80128
:100AB00073E0880F991F7A95E1F7000F111F800FDF
:100AC000911FC80FD91FD093E605C093E5054AC012
:100AD0008A3008F047C06091E30562506093E305F7
:100AE00087EE95E04091E40508D687EE95E0B801E1
:100AF0004AE050E00E94401787EE95E0BE014AE0D0
:100B000050E00E9440176091E3056E5F6093E3053B
:100B100087EE95E04091E405F0D587EE95E0609191
:100B200043034AE050E00E94F11684E690E0089FFB
:100B30009001099F300D189F300D112480914303BF
:100B4000280F311DCE0153E0880F991F5A95E1F708
:100B5000CC0FDD1F8C0F9D1F280F391F3093E6052A
:100B60002093E50587EE95E0BAD56091E3056450E2
:100B70006093E30587EE95E04091E405BED5DF91F3
:100B8000CF911F910F910895EF92FF920F931F93B2
:100B900007EE15E0C801D9D5C801A1D5C80161E0AB
:100BA00040E0ABD5C8016AE072E00E945217C8016C
:100BB00060E041E0A2D5C8016DE172E00E945217E9
:100BC000C8016AE041E099D5C80165E272E00E947F
:100BD0005217C80167E042E090D5C80160E372E0B7
:100BE0000E945217C80160E04AE050E00E94F116EE
:100BF000EBE3EE2EE2E0FE2EC801B7010E94521791
:100C0000C80165E04AE050E00E94F116C80167E0C3
:100C100043E073D5C8016DE372E00E945217C8012A
:100C200060E04AE050E00E94F116C801B7010E945E
:100C30005217C80160E04AE050E00E94F116C80176
:100C400060E043E05AD5C80168E472E00E945217A0
:100C5000C80164E14AE050E00E94F1166CED75E0D5
:100C600080E090E00E9475131F910F91FF90EF902C
:100C70000895CF93DF9387EE95E067D587EE95E0F3
:100C800060E041E03AD587EE95E06CE472E00E94C6
:100C90005217C0E0D0E0FE01E257FC4F1082E09115
:100CA000C006F091C106EC0FFD1F10828DEB96E09F
:100CB000BE0140E00E94F70F87EE95E061E141E060
:100CC0001CD587EE95E0BE014AE050E00E94401737
:100CD000219682E0C130D807F1F687EE95E035D550
:100CE00087EE95E063E041E008D587EE95E06DE59D
:100CF00072E00E94521768EE73E080E090E00E947C
:100D00007513DF91CF910895CF93DF9387EE95E030
:100D10001CD587EE95E060E041E0EFD487EE95E0EA
:100D20006DE672E00E945217C1E0D0E0FE01E2578A
:100D3000FC4F8DEB96E0BE0140810E94F70F87EEDD
:100D400095E061E141E0D9D487EE95E0BE014AE04B
:100D500050E00E94401761E070E080E090E00E9467
:100D60007513219682E0C130D80701F787EE95E030
:100D7000ECD487EE95E063E041E0BFD487EE95E0E8
:100D80006CE772E00E94521768EE73E080E090E03A
:100D90000E947513DF91CF910895CF93DF9387EE73
:100DA00095E0D3D487EE95E060E041E0A6D487EEED
:100DB00095E06AE872E00E945217C1E0D0E08DEB46
:100DC00096E0BE010E94F00FFE01E257FC4F8083C7
:100DD0002197E091C006F091C106EC0FFD1F21960E
:100DE000808387EE95E061E141E087D487EE95E06E
:100DF000BE014AE050E00E94401761E070E080E0F0
:100E000090E00E947513219682E0C130D807B9F6B0
:100E100087EE95E09AD487EE95E063E041E06DD4EB
:100E200087EE95E06AE972E00E94521768EE73E07F
:100E300080E090E00E947513DF91CF91089587EED6
:100E400095E083D487EE95E060E040E056D487EEED
:100E500095E069EA72E00E94521787EE95E061E042
:100E600042E04BD487EE95E061EB72E00E945217AE
:100E700087EE95E068E042E040D487EE95E066EBCF
:100E800072E00E94521787EE95E06FE042E035D4A1
:100E900087EE95E06BEB72E00E945217109291057D
:100EA00082E080939205E3E9F5E0DF0198961082F5
:100EB000148A1C9254961C9254973196119685E090
:100EC000E73AF807A1F781E0848B838F82A395DB53
:100ED00080919105873029F480919205823009F440
:100EE0005CDF809191058E3029F4809192058230EB
:100EF00009F4BFDE80919105882329F48091920541
:100F0000823009F401CF08958F929F92AF92BF92E1
:100F1000CF92DF92EF92FF920F931F93CF93DF93C5
:100F200008E0802E01E019E0912EB1E0AB2EB12C4B
:100F3000C12CA2E0DA2EFFEFEF2EF12C87EE95E028
:100F400004D487EE95E060E040E0D7D387EE95E0EB
:100F500061EC72E00E94521787EE95E06EE042E08D
:100F6000CCD387EE95E06FEC72E00E94521787EECB
:100F700095E06EE043E0C1D387EE95E065ED72E069
:100F80000E94521787EE95E060E042E0B6D387EE0C
:100F900095E06CED72E00E94521787EE95E062E0FA
:100FA00043E0ABD387EE95E069EE72E00E94521702
:100FB00080918F0390E069E070E043E050E022DC34
:100FC0008092910582E080939205E3E9F5E0DF01EC
:100FD00098961082148A1C9254961C9254973196BB
:100FE000119625E0E73AF207A1F7048F00AB01A3C1
:100FF00005ABC1E0D0E001DB80919105883099F527
:1010000010919205123079F5CE0169E070E042E06E
:1010100050E0F8DB1093E4059092E305C9DC809181
:10102000E5059091E6058150924024F0D092E605C6
:10103000C092E5058091E5059091E6051816190620
:1010400024F0B092E605A092E505C091E505D091A7
:10105000E605FE01E257FC4F808190E069E070E018
:1010600043E050E0CFDB80919105883031F58091ED
:101070009205833011F58093E4059092E30598DCA6
:101080008091E5059091E6058F3F910529F024F0C8
:10109000F092E605E092E5052197E091C006F09117
:1010A000C106EC0FFD1F21968091E5058083FE01AE
:1010B000E257FC4F8091E5058083809191058D304A
:1010C00009F099CF80919205833011F4B8DE36CFC4
:1010D000823009F090CF01D08ECF2F923F924F9265
:1010E0005F926F927F928F929F92AF92BF92CF92B8
:1010F000DF92EF92FF920F931F93DF93CF93CDB7C1
:10110000DEB762970FB6F894DEBF0FBECDBF01E029
:1011100010E01A8B098BFF24F3945DE0E52E87EE37
:1011200095E013D387EE95E060E040E0E6D287EEED
:1011300095E060EF72E00E945217C8019BDB2CE043
:101140002093910510929205E3E9F5E0DF0198966E
:101150001082148A1C9254961C92549731961196C0
:1011600035E0E73AF307A1F7F0929705F0929B0577
:10117000F0929F05F082F482F086F486F08AF48A79
:10118000F08EF48EF0A2F4A2F0A6F4A6F0AAF4AACF
:10119000F0AEC8010B969A838983F8013696FC83DA
:1011A000EB839801235F3F4F3E832D83C8010A964E
:1011B00098878F83F8013896FA87E98798012B5F23
:1011C0003F4F3C872B87C80103969E878D87F80188
:1011D0003E96F88BEF8749E0242E312C200E311EED
:1011E0003CE0432E512C400E511E27E0622E712C04
:1011F000600E711E94E0892E912C800E911E82E06B
:10120000A82EB12CA00EB11E68010894C11CD11CDF
:10121000F4D990919105943039F480919205882306
:1012200009F03CC00CDE7BCF983031F48091920500
:101230008823D9F569DE73CF9C3039F5809192050A
:101240008823E1F51092E405E092E305B1DB80919B
:10125000E5059091E605835F914034F022EF31E09F
:101260003093E6052093E5058091E5059091E6052C
:10127000892B31F481E090E09093E6058093E505B9
:101280000091E5051091E6054ACF992361F480911C
:101290009205813029F51A8B098B7DC0813049F583
:1012A000DA8AC98A78C0983039F480919205813001
:1012B00019F4BA8AA98A6FC09C3039F480919205DA
:1012C000813059F5ED85FE851AC0903139F4809151
:1012D0009205813059F59A8A898A5DC0992339F43B
:1012E00080919205823059F52B853C8552C094300F
:1012F00049F480919205823059F5EB81FC81FA8B9B
:10130000E98B49C0983039F480919205823049F5D3
:101310007A8A698A40C09C3039F480919205823083
:1013200049F529853A8535C0903139F48091920587
:10133000823049F53A8A298A2EC0992339F480915E
:101340009205833041F5EF81F885D9CF943039F497
:10135000809192058330F9F429813A811AC098303E
:1013600039F4809192058330B1F45A8A498A13C0C6
:101370009C3039F480919205833069F4ED81FE81CF
:10138000BECF903141F480919205833021F42F85B6
:1013900038893A8B298B809192058093E4059F5F71
:1013A0009093E30505DB8091E5059091E6058F3F7D
:1013B000910539F034F08FEF90E09093E60580933B
:1013C000E505E989FA893197FA8BE98BE091C00646
:1013D000F091C10629893A89E20FF31F2F5F3F4F31
:1013E0003A8B298B8091E5058083F901E257FC4F08
:1013F0008091E50580830CCF87EE95E0A6D187EE3E
:1014000095E060E040E079D187EE95E062E073E03E
:101410000E94521787EE95E063E042E06ED187EEBE
:1014200095E063E173E00E94521782E0809391059A
:1014300080939205E3E9F5E0DF0198961082148A23
:101440001C9254961C9254973196119685E0E73A77
:10145000F807A1F781E0868B868FCFD88091910520
:10146000823059F480919205823039F44DDD60E18B
:1014700077E280E090E00E947513809191058A30B8
:1014800059F480919205823039F427DE60E177E2E9
:1014900080E090E00C947513089587EE95E055D1A7
:1014A00087EE95E060E040E028D187EE95E069EABC
:1014B00072E00E94521787EE95E062E042E01DD193
:1014C00087EE95E061E273E00E94521787EE95E0A7
:1014D00069E042E012D187EE95E066EB72E00E948F
:1014E000521787EE95E06FE042E007D187EE95E076
:1014F0006BEB72E00E94521781E08093910582E0CD
:1015000080939205E3E9F5E0DF0198961082148A52
:101510001C9254961C9254973196119685E0E73AA6
:10152000F807A1F781E0858B848F82A366D880912C
:101530009105883031F480919205823011F42DDCD0
:101540005BDF809191058E3031F48091920582307D
:1015500011F48FDB51DF80919105813029F4809166
:101560009205823009F448CF089582E061E00E943C
:10157000CB150ADB92CF8091270361E00E941815FA
:101580008091290362E00E94181580912B0362E08C
:101590000E94181580912D0362E00E941815809119
:1015A0002F0362E00E9418158091310362E00E94CF
:1015B00018158091330361E00E941815809135035E
:1015C00061E00E9418158091370361E00E941815B0
:1015D0008091390361E00E94181580913B0362E01D
:1015E0000E94181580913D0362E00E9418158091B9
:1015F0003F0362E00E9418158091410362E00E945F
:1016000018158091330361E00E94CB15809135035A
:1016100061E00E94CB158091370361E00E94CB15F9
:101620008091390361E00E94CB158091440361E011
:101630000E9418158091460361E00E941815809160
:101640004E0361E00E94181580914C0361E00E94F6
:10165000181580914A0361E00E9418158091480393
:1016600061E00E94181587EE95E064E144E020E017
:1016700072D081E090E09093D6068093D50680E00A
:1016800092E09093D2068093D1068EEB96E060E0D4
:101690000BC608950895FC01138212828AE593E037
:1016A000918380830895FC01A081B18118962D91CA
:1016B0003C9119976FEFF90119950895DC01ED91AF
:1016C000FC910284F385E02D40E019950895FC011A
:1016D0006581862F816085836960CF01EFCFFC0132
:1016E00065816E7F65836860E9CFFC016581862F27
:1016F000846085836C60CF01E1CFDC0117969C91FB
:101700001797491710F0492F415018968C91189748
:10171000803139F4943029F4E42FF0E0EA59FC4F99
:1017200004C0E42FF0E0E659FC4F8081680F606848
:10173000CD01C4CFDC01ED91FC910284F385E02D55
:1017400041E0199581E090E0089561E0B7DF80ED18
:1017500097E00C94CE13CF93DF93EC01423018F056
:101760008C8188608C834F836887222329F04130E5
:1017700019F48C8184608C8364E670E080E090E0F2
:10178000B4D76C8164FD2EC0E881F9810284F385B1
:10179000E02DCE0163E042E0199584E991E1FED7A6
:1017A000E881F9810284F385E02DCE0163E042E017
:1017B000199584E991E1F2D7E881F9810284F385F2
:1017C000E02DCE0163E042E0199586E990E0E6D78E
:1017D000E881F9810284F385E02DCE0162E042E0E8
:1017E000199511C06062CE0169DF84E991E1D6D715
:1017F0006C816062CE0162DF86E990E0CFD76C81B8
:101800006062CE015BDF6C816062CE0157DF84E0F5
:101810008D83CE016ADFCE0198DF82E08E83CE0118
:1018200066E04CDFCE013FDFDF91CF9108950F934B
:101830001F938C01FC01858561E00E94CB15F801A6
:10184000858560E00E94CB151F910F910895BF928E
:10185000CF92DF92EF92FF920F931F93CF93DF937C
:10186000D82EC92EB42E282F392FC9018C01C0E0E3
:10187000D0E0E62EFF240DC0B7010C2E02C07595F6
:1018800067950A94E2F76170F80185850E94CB158F
:1018900021960F5F1F4FCB1578F38D2D9C2DC7DF41
:1018A000DF91CF911F910F91FF90EF90DF90CF903C
:1018B000BF9008950F931F93CF93DF93EC01162FE2
:1018C000042F60E0413009F461E08B850E94CB1564
:1018D0008C858F3F19F060E00E94CB15023089F0B3
:1018E0008C8184FF04C0CE01612F48E00DC0612FC0
:1018F00070E084E0759567958A95E1F7CE0144E044
:10190000A6DFCE01612F44E0A2DFDF91CF911F91CE
:101910000F9108956F927F928F92AF92CF92EF9234
:101920000F931F93DF93CF93CDB7DEB73C01162FF4
:101930008E2DF301438724870587E686C786A08A14
:10194000818A9E85928B9F85938B9889948B9989A8
:10195000958B61E00E941815F301878561E00E9474
:101960001815F301808961E00E941815F30181893F
:1019700061E00E9418151123A1F4F301828961E04E
:101980000E941815F301838961E00E941815F30184
:10199000848961E00E941815F301858961E00E9445
:1019A0001815F301838561E00E941815F301848501
:1019B0008F3F19F061E00E941815F301858561E001
:1019C0000E941815112319F0F301148203C080E15D
:1019D000F3018483F301838560E00E94CB15F3015A
:1019E000858560E00E94CB15F30184858F3F19F057
:1019F00060E00E94CB158FEFF301868B1286118673
:101A0000CF91DF911F910F91EF90CF90AF908F907A
:101A10007F906F900895DF92EF92FF920F931F9344
:101A20008C01D62E7A01862F61E00E941815D8010C
:101A30005696DC9256971A96FC92EE921997ED9173
:101A4000FC910084F185E02DC80160E019951F919B
:101A50000F91FF90EF90DF900895DC01362F56969E
:101A60002C9156972F3F49F1E22FF0E0E254FE4FC0
:101A7000E491EE2379F019968D919C911A97892B18
:101A800019F4822F70E005C06FEF70E0631B7109DD
:101A9000822FF0C619968D919C911A97662319F0A2
:101AA000892B39F402C0019721F4822F61E00C9454
:101AB000CB15822F60E00C94CB1508956F927F9226
:101AC0008F92AF92BF92CF92DF92EF92FF920F93DD
:101AD0001F933C01162FF42ED22EB02EAE2C8C2C40
:101AE000DADD82E793E0D3018D939C9300D00F92CF
:101AF000EDB7FEB73196ADB7BEB711961C92118205
:101B000012821382C30161E0412F2FEF0F2DED2CC4
:101B1000CB2C00DF0F900F900F900F901F910F9123
:101B2000FF90EF90DF90CF90BF90AF908F907F901D
:101B30006F90089520911F0630E080911E06281BAB
:101B40003109C901089540911E0680911F0648176A
:101B500018F02FEF3FEF0AC0E42FF0E0E250FA4F09
:101B60008081282F30E04F5F40931E06C901089501
:101B7000E0911E0680911F06E81718F0EFEFFFEFC7
:101B800006C0F0E0E250FA4F8081E82FF0E0CF018C
:101B900008950895109246061092450688EE93E047
:101BA000A0E0B0E08093470690934806A0934906D2
:101BB000B0934A0682E893E09093440680934306EC
:101BC0000895CF92DF92EF92FF920F931F93CF93DE
:101BD000DF937C016B018A01809142068823A1F08A
:101BE000C0E0D0E00DC0D701ED91FC91D601AC0F63
:101BF000BD1F0190F081E02DC7016C9119952196D0
:101C0000C017D10780F303C0CB01642F39D0C801BE
:101C1000DF91CF911F910F91FF90EF90DF90CF90C8
:101C20000895DF93CF930F92CDB7DEB7FC016983A0
:101C3000809142068823C9F080914106803238F0B5
:101C400081E090E09383828320E030E014C08091B3
:101C50004006E82FF0E0E05EF94F998190838F5FB6
:101C6000809340068093410604C0CE01019661E056
:101C700007D021E030E0C9010F90CF91DF910895A6
:101C8000482F613210F081E0089580914F06843032
:101C900011F082E0089560939A06A9E7B6E0842FD8
:101CA0009C01F90102C081918D938E2F841B8617B0
:101CB000D0F380E008951F920F920FB60F920BB6EB
:101CC0000F9211242F933F934F935F936F937F93C2
:101CD0008F939F93AF93BF93EF93FF938091B9003E
:101CE00090E0887F90708036910509F4F2C08136CB
:101CF0009105CCF58832910509F47BC089329105B4
:101D0000B4F48031910509F46FC0813191053CF440
:101D1000009709F447C1089709F04FC165C08831A1
:101D2000910509F466C0809709F047C182C08034EC
:101D3000910509F4A4C08134910544F480339105E0
:101D400009F482C0C89709F038C189C0803591056F
:101D500009F489C08835910509F496C08834910545
:101D600009F02BC1AEC08839910509F413C1893936
:101D70009105ECF48837910509F4ABC089379105DA
:101D80004CF48836910509F4A4C08037910509F018
:101D900014C19FC08838910509F4FCC080399105B1
:101DA00009F49DC08038910509F007C198C0803BB7
:101DB000910509F4C6C0813B91054CF4803A910528
:101DC00009F49FC0883A910509F0F7C0BAC0803C79
:101DD000910509F4E3C0883C910509F4DFC0883B14
:101DE000910509F0EAC0C2C0809150068093BB0003
:101DF000CFC09091770680917806981768F49091FB
:101E00007706E92FF0E0E95AF94F80818093BB0013
:101E10009F5F90937706BCC080915106882309F498
:101E20004BC085ED8093BC008091BC0084FDFCCF4D
:101E3000C2C080E28093BC0685ED8093BC00809197
:101E4000BC0084FDFCCFB7C080E38093BC0685ED69
:101E50008093BC008091BC0084FDFCCFACC088E3C3
:101E60008093BC069BC0809177069091BB00E82FC1
:101E7000F0E0E95AF94F90838F5F80937706909155
:101E800077068091780682C0809177069091BB009A
:101E9000E82FF0E0E95AF94F90838F5F809377063F
:101EA00080915106882341F085ED8093BC0080919C
:101EB000BC0084FDFCCF7FC081E08093520684EAA1
:101EC0006EC085ED8093BC008091BC0084FDFCCF8A
:101ED00072C083E080934F061092BB0659C0809178
:101EE000BB06803208F056C08091BB069091BB00C3
:101EF000E82FF0E0E556F94F90838F5F8093BB06A3
:101F000047C08091BB06803230F4E091BB06F0E020
:101F1000E556F94F108285ED8093BC008091BC009E
:101F200084FDFCCF10924F066091BB06E0915506F0
:101F3000F09156068BE996E070E019951092BB0679
:101F40002DC084E080934F061092990610929A0655
:101F5000E0915306F0915406199580919A068823D2
:101F600029F481E080939A0610927906909199065F
:101F7000E92FF0E0E758F94F80818093BB009F5F25
:101F8000909399069091990680919A06981710F46B
:101F900085EC01C085E88093BC000FC085EC809380
:101FA000BC0009C01092BC0685ED8093BC008091F6
:101FB000BC0084FDFCCF10924F06FF91EF91BF91C2
:101FC000AF919F918F917F916F915F914F913F91D1
:101FD0002F910F900BBE0F900FBE0F901F90189572
:101FE000F999FECF72BD61BDF89A80B50895F9994F
:101FF000FECF1FBA72BD61BD40BD0FB6F894FA9A0C
:10200000F99A0FBE0895FC018385882331F48091ED
:10201000C10087728093C1000895813031F48091AE
:10202000C90087728093C9000895823031F480918D
:10203000D10087728093D1000895833029F4809174
:10204000310187728093310108951F920F920FB66C
:102050000F920BB60F9211242F933F934F935F93E0
:102060006F937F938F939F93AF93BF93EF93FF9360
:102070008091C0008093C6063091C6003093C70699
:102080002091C2062093C80684FF10C08091C00032
:102090008F7E8093C0008091D3069091D406909358
:1020A000CC068093CB0681E08093C206213091F468
:1020B000332369F482E08093C2068091BE0690913A
:1020C000BF0601969093C4068093C3064BC010923E
:1020D000C20648C02230A1F48091CB069091CC0674
:1020E00001979093CC068093CB06892BD9F583E09A
:1020F0008093C206E091BE06F091BF06308332C0E5
:10210000233081F5E091C306F091C406F093E10617
:10211000E093E00630834091E0065091E1064F5F86
:102120005F4F5093E1064093E0068091BE06909188
:10213000BF062091CF063091D006820F931F48171B
:10214000590760F01092C206E091E406F091E506AE
:10215000309741F08091C906199504C05093C40688
:102160004093C306FF91EF91BF91AF919F918F91E3
:102170007F916F915F914F913F912F910F900BBE87
:102180000F900FBE0F901F9018951F920F920FB6D1
:102190000F920BB60F9211242F933F934F935F939F
:1021A0006F937F938F939F93AF93BF93EF93FF931F
:1021B0008091CA068093DF06882361F41092C500DF
:1021C0008091DC068093C4001092C60081E0809369
:1021D000CA0640C0813081F41092C5008091DB06B0
:1021E0008093C4001092C60082E08093CA061092C9
:1021F000CE061092CD062EC08091CD069091CE06CF
:102200009093DE068093DD06E091C006F091C10652
:10221000E80FF91F20812093C6009C012F5F3F4FDC
:102220003093DE062093DD068091D1069091D20690
:102230002817390759F4E091E206F091E306309748
:1022400011F080E019951092CA0604C03093CE06B2
:102250002093CD06FF91EF91BF91AF919F918F9108
:102260007F916F915F914F913F912F910F900BBE96
:102270000F900FBE0F901F90189521E030E0309323
:10228000D4062093D30688E090E09093D006809304
:10229000CF063093D6062093D5069093D20680932E
:1022A000D1061092C90608951F93CF93DF93EC01D6
:1022B000162FF894A8DE1C8F112321F487E08D8F50
:1022C00084E10BC0113021F483E08D8F8AE005C0DA
:1022D000123021F481E08D8F85E08E8F8B8D8F3FC2
:1022E00029F061E0A5D38B8D61E055D48B858823DF
:1022F000D1F481E061E09CD31092C5008D8D809374
:10230000C4008091C00082608093C0008091C200B0
:102310008E608093C2008091C10088648093C10068
:102320001092C60053C08130D1F482E161E080D3C5
:102330001092CD008D8D8093CC008091C80082607A
:102340008093C8008091CA008E608093CA008091FB
:10235000C90088648093C9001092CE0037C08230D3
:10236000D1F480E161E064D31092D5008D8D80932B
:10237000D4008091D00082608093D0008091D20000
:102380008E608093D2008091D10088648093D100C8
:102390001092D6001BC08330C9F48EE061E048D3B0
:1023A000109235018D8D80933401809130018260CF
:1023B00080933001809132018E6080933201809150
:1023C00031018864809331011092360181E08C875D
:1023D0008B899C890DD08A839B834B895C8960E0C3
:1023E00070E00E9433017894DF91CF911F9108959E
:1023F0000F931F93CF93DF93BC018230910510F4AC
:1024000062E070E0E091F106F091F20640E050E009
:10241000A0E0B0E024C08081918186179707D0F0BA
:102420008617970771F482819381109729F013968C
:102430009C938E9312972CC09093F2068093F10692
:1024400027C04115510519F08417950718F48D011F
:10245000AC01EF01DF01828193819C01F90130978A
:10246000D1F641155105F9F0CA01861B970B84304E
:10247000910580F48A819B810115110521F0F801F5
:102480009383828304C09093F2068093F106FE0149
:10249000329645C0FE01E80FF91F619371930297D0
:1024A000998388833CC08091EF069091F006892B38
:1024B00041F480915203909153039093F0068093DE
:1024C000EF0640915403509155034115510541F4D5
:1024D0004DB75EB78091500390915103481B590B43
:1024E0002091EF063091F00624173507B0F4CA01A9
:1024F000821B930B8617970780F0AB014E5F5F4FEF
:102500008417950750F0420F531F5093F0064093E5
:10251000EF06F9016193719302C0E0E0F0E0CF01B2
:10252000DF91CF911F910F910895CF93DF939C017D
:10253000009709F48FC0EC0122971B821A826091E8
:10254000F1067091F2066115710581F48881998117
:10255000820F931F2091EF063091F006281739075C
:1025600039F5D093F006C093EF0674C0DB0140E06C
:1025700050E0AC17BD0708F1BB83AA83FE0121918F
:102580003191E20FF31FAE17BF0779F48D919C9143
:102590001197280F391F2E5F3F4F398328831296DA
:1025A0008D919C9113979B838A834115510571F4FA
:1025B000D093F206C093F1064DC012968D919C9176
:1025C0001397AD01009711F0DC01D3CFDA01139618
:1025D000DC93CE931297FA0121913191E20FF31F10
:1025E000CE17DF0769F488819981280F391F2E5F84
:1025F0003F4FFA01318320838A819B8193838283B9
:10260000E0E0F0E0DB0112968D919C91139700972A
:1026100019F0BC01FD01F6CFAB014E5F5F4FDB014E
:102620008D919C91840F951F2091EF063091F006BB
:102630002817390779F4309729F41092F20610928E
:10264000F10602C013821282425050405093F006AD
:102650004093EF06DF91CF9108951F920F920FB62E
:102660000F9211242F933F938F939F93AF93BF9318
:102670008091EA069091EB06A091EC06B091ED06F0
:102680003091EE060196A11DB11D232F2D5F2D3730
:1026900020F02D570196A11DB11D2093EE068093C9
:1026A000EA069093EB06A093EC06B093ED068091BA
:1026B000E6069091E706A091E806B091E90601963A
:1026C000A11DB11D8093E6069093E706A093E8064E
:1026D000B093E906BF91AF919F918F913F912F9158
:1026E0000F900FBE0F901F9018959B01AC017FB704
:1026F000F8948091E6069091E706A091E806B091E3
:10270000E90666B5A89B05C06F3F19F00196A11DAB
:10271000B11D7FBFBA2FA92F982F8827860F911D33
:10272000A11DB11D62E0880F991FAA1FBB1F6A95EA
:10273000D1F7BC012DC0FFB7F8948091E6069091C7
:10274000E706A091E806B091E906E6B5A89B05C0AA
:10275000EF3F19F00196A11DB11DFFBFBA2FA92FA0
:10276000982F88278E0F911DA11DB11DE2E0880FC3
:10277000991FAA1FBB1FEA95D1F7861B970B885E8E
:102780009340C8F2215030404040504068517C4F47
:10279000211531054105510571F60895019739F06C
:1027A000880F991F880F991F02970197F1F70895D5
:1027B000789484B5826084BD84B5816084BD85B51C
:1027C000826085BD85B5816085BDEEE6F0E08081E3
:1027D00081608083E1E8F0E0108280818260808304
:1027E000808181608083E0E8F0E080818160808387
:1027F000E1EBF0E0808184608083E0EBF0E08081B9
:1028000081608083E1E9F0E0808182608083808163
:1028100081608083E0E9F0E0808181608083E1EA8B
:10282000F0E0808182608083808181608083E0EA43
:10283000F0E0808181608083E1E2F1E0808182606C
:102840008083808181608083E0E2F1E0808181602B
:102850008083EAE7F0E08081846080838081826009
:1028600080838081816080838081806880831092F2
:10287000C10008951F93CF93DF93182FEB0161E000
:10288000D7D0209709F4CAC0CF3FD10509F4C9C0F9
:10289000E12FF0E0E254FE4F8491893009F466C0E4
:1028A0008A30B0F48430F1F1853040F4823059F14F
:1028B000833070F5813009F0AEC020C0873009F454
:1028C00043C0883008F048C0863009F0A4C034C046
:1028D0008D3009F478C08E3038F48B3009F45AC04A
:1028E0008C3008F066C04CC0803109F480C0813162
:1028F00009F487C08F3009F08EC06FC084B580683E
:1029000084BDC7BD91C084B5806284BDC8BD8CC084
:1029100080918000806880938000D0938900C0936C
:10292000880082C080918000806280938000D09374
:102930008B00C0938A0078C08091B000806880933B
:10294000B000C093B30070C08091B00080628093EB
:10295000B000C093B40068C08091900080688093FC
:102960009000D0939900C09398005EC08091900031
:10297000806280939000D0939B00C0939A0054C0D3
:1029800080919000886080939000D0939D00C093C8
:102990009C004AC08091A00080688093A000809134
:1029A000A0008F7B8093A000D093A900C093A800C3
:1029B0003BC08091A00080628093A000D093AB00C8
:1029C000C093AA0031C08091A00088608093A000CD
:1029D000D093AD00C093AC0027C0809120018068E7
:1029E00080932001D0932901C09328011DC08091BC
:1029F0002001806280932001D0932B01C0932A0193
:102A000013C080912001886080932001D0932D0114
:102A1000C0932C0109C0C038D1051CF4812F60E09F
:102A200002C0812F61E0B7D0DF91CF911F9108954F
:102A3000CF93DF93482F50E0CA0188589E4FFC0186
:102A400034914E5C5E4FFA018491882369F190E0E5
:102A5000880F991FFC01EC51FF4FA591B491FC0127
:102A6000E250FF4FC591D491662351F42FB7F894EB
:102A70008C91932F909589238C93888189230BC007
:102A8000623061F42FB7F8948C91932F909589233D
:102A90008C938881832B88832FBF06C09FB7F894BF
:102AA0008C91832B8C939FBFDF91CF9108958930B8
:102AB00009F449C08A30A0F4843051F1853040F4E3
:102AC000823079F1833000F5813009F063C026C08F
:102AD000873079F1883098F5863009F05BC025C0E1
:102AE0008D3009F442C08E3028F48B30B1F18C3037
:102AF000C0F52DC0803109F442C0813109F445C0D0
:102B00008F3009F047C037C0809180008F7703C0B5
:102B1000809180008F7D80938000089584B58F77A9
:102B200002C084B58F7D84BD08958091B0008F77F9
:102B300003C08091B0008F7D8093B0000895809194
:102B400090008F7707C0809190008F7D03C08091A7
:102B50009000877F8093900008958091A0008F77E8
:102B600007C08091A0008F7D03C08091A000877F67
:102B70008093A0000895809120018F7703C08091F9
:102B800020018F7D80932001089580912001877F0F
:102B9000809320010895FF920F931F93F62E482FE4
:102BA00050E0CA0182549E4FFC012491CA0188580A
:102BB0009E4FFC0114914E5C5E4FFA01049100237C
:102BC000C1F0222311F0822F72DFE02FF0E0EE0F30
:102BD000FF1FE250FF4FA591B4919FB7F894FF20DB
:102BE00021F48C911095812302C08C91812B8C93C0
:102BF0009FBF1F910F91FF9008950F931F93482F30
:102C000050E0CA0182549E4FFC012491CA018858A9
:102C10009E4FFC0104914E5C5E4FFA01149111230A
:102C200019F420E030E014C0222311F0822F3FDF9E
:102C3000812F90E0880F991F885E9E4FFC01A5911F
:102C4000B4918C9120E030E0802311F021E030E05D
:102C5000C9011F910F9108950895CF93DF93A8DDC7
:102C6000FBDF0E94BB0AC0E0D0E00E94B50A2097BB
:102C7000E1F30E940000F9CF0895CF92DF92EF9226
:102C8000FF920F931F93CF93DF937C016B018A0117
:102C9000C0E0D0E00FC0D6016D916D01D701ED917C
:102CA000FC910190F081E02DC7011995C80FD91F43
:102CB000015010400115110571F7CE01DF91CF9140
:102CC0001F910F91FF90EF90DF90CF900895CF93D9
:102CD000DF93EC016115710519F420E030E00FC0BD
:102CE000DB010D900020E9F71197A61BB70BE881D7
:102CF000F9810280F381E02DAD0119959C01C90194
:102D0000DF91CF9108954F925F927F928F929F9221
:102D1000AF92BF92CF92DF92EF92FF920F931F93E9
:102D2000DF93CF93CDB7DEB7A1970FB6F894DEBF90
:102D30000FBECDBF2C01742ECB01223008F42AE047
:102D400019A231E2C32ED12CCC0EDD1E822E992485
:102D5000AA24BB24672D752FA5019401C4D0790145
:102D60008A01C801B701A50194019ED0472D461BD9
:102D70000894C108D1084A3014F4405D01C0495C90
:102D8000F6014083E114F1040105110521F07E2CC8
:102D90005F2DC801DFCFC201B60199DFA1960FB642
:102DA000F894DEBF0FBECDBFCF91DF911F910F9181
:102DB000FF90EF90DF90CF90BF90AF909F908F905B
:102DC0007F905F904F900895DC012115310541F40B
:102DD000ED91FC910190F081E02D642F19950895FB
:102DE00092CFEF92FF920F931F939A01E62EFF244A
:102DF00000E010E0B801A701E7DF1F910F91FF90FD
:102E0000EF900895CF92DF92EF92FF920F931F936E
:102E1000CF93DF93EC016A017B012115310541F469
:102E2000E881F9810190F081E02D642F19951DC092
:102E30002A303105C9F477FF16C0E881F981019085
:102E4000F081E02D6DE219958C0144275527BA01D8
:102E50004C195D096E097F09CE012AE054DF980103
:102E6000280F391F03C02AE04EDF9C01C901DF9102
:102E7000CF911F910F91FF90EF90DF90CF90089529
:102E8000EF92FF920F931F937B019A010027F7FCAB
:102E90000095102FB801A701B5DF1F910F91FF908A
:102EA000EF90089514CF0895629FD001739FF001B1
:102EB000829FE00DF11D649FE00DF11D929FF00DCA
:102EC000839FF00D749FF00D659FF00D9927729F01
:102ED000B00DE11DF91F639FB00DE11DF91FBD018C
:102EE000CF0111240895A1E21A2EAA1BBB1BFD01DC
:102EF0000DC0AA1FBB1FEE1FFF1FA217B307E407D9
:102F0000F50720F0A21BB30BE40BF50B661F771F30
:102F1000881F991F1A9469F7609570958095909510
:102F20009B01AC01BD01CF010895EE0FFF1F05907D
:0A2F3000F491E02D1994F894FFCFFE
:102F3A003E002B0020003030300054656368204981
:102F4A006E736964652E636F6D2E6D7800444D58FB
:102F5A002D35313200436F6E74726F6C6C6572007E
:102F6A004669726D776172652076002E004861723B
:102F7A00647761726520760049443A004D656D6F49
:102F8A00727920436C65616E696E673A004D656DB2
:102F9A006F727920436C65616E656421004D656DC1
:102FAA006F727920536176696E673A004D656D6F6D
:102FBA00727920536176656421004D656D6F72796F
:102FCA00204C6F6164696E673A004D656D6F727966
:102FDA00204C6F6164656421004D656D6F72793AAA
:102FEA000053617665004C6F616400436C656172E1
:102FFA0000436F6E74726F6C20556E69743A004D9F
:10300A00756C7469004D656D6F7279004368616E05
:10301A006E656C3A203030310056616C75653A0045
:10302A00432D2D2D204D656D20556E6920202020C1
:10303A002D00436F6E74726F6C204F7074696F6EDF
:10304A00733A00556E6974202020204D756C74699E
:10305A0000456D70747900020033002D003500318F
:10306A00002F002400220020001E002C002A002825
:10307A0000260011080009000A000B000C000D00D0
:10308A008000F3060000000000009A0B3D16AB0B0F
:10309A00490B4A0B3C1600401050004014540000E3
:1030AA0000009A0B3D16AB0B0B0D2D0D5A0C0000B0
:0E30BA000000110EE10D9A0DA30DB80DC90D09
:00000001FF
