:1000000004C100002FC100002DC100002BC1000061
:1000100029C1000027C1000025C1000023C1000044
:1000200021C100001FC100001DC100001BC1000054
:1000300019C1000017C1000015C1000013C1000064
:1000400011C100000FC100000DC100000BC1000074
:1000500009C1000007C1000005C100000C94BD1FCC
:1000600001C100000C94B51CFDC000000C94551D8E
:10007000F9C00000F7C00000F5C00000F3C00000A8
:10008000F1C00000EFC00000EDC00000EBC00000B8
:10009000E9C00000E7C00000E5C000000C94EB1AC6
:1000A000E1C00000DFC00000DDC00000DBC00000D8
:1000B000D9C00000D7C00000D5C00000D3C00000E8
:1000C000D1C00000CFC00000CDC00000CBC00000F8
:1000D000C9C00000C7C00000C5C00000C3C0000008
:1000E000C1C0000000002100240027002A002D00CC
:1000F0003000330001010000040107010A01000083
:100100002200250028002B002E00310034000201BF
:100110000000050108010B0100002000230026005B
:1001200029002C002F00320000010000030106010D
:10013000090105050505070508080808020202026D
:100140000A0A080804040404010101010101010173
:100150000303030303030303040707070C0C0C0C3E
:100160000C0C0C0C02020202060606060606060627
:100170000B0B0B0B0B0B0B0B0102102020080810B4
:100180002040102040800201020108040201010207
:1001900004081020408080402010080402018004E0
:1001A000020180402010080402010804020101023B
:1001B0000408102040800102040810204080000044
:1001C000090A02080B0C0D070603040100000000D9
:1001D000000000000000000000000000000000001F
:1001E0000000000000000000000011100F000000DF
:1001F00000000000000000000000000000000000FF
:10020000000000003A015A1ACD1D11241FBECFEF85
:10021000D1E2DEBFCDBF00E00CBF14E0A0E0B2E051
:10022000E0E1F9E400E00BBF02C007900D92A63AAE
:10023000B107D9F71BBE1AE0A6EAB4E001C01D92CF
:10024000AF30B107E1F712E0CAE0D2E004C0229774
:10025000FE010E948224C430D107C9F70E94F12216
:100260000C948624CDCEDC0101C06D9341505040EA
:10027000E0F70895CF92EF920F9382E099E06091BA
:1002800057044091590420915B0400915D04E09073
:100290005F04C09061040E94EE190F91EF90CF901F
:1002A00008953F924F925F926F927F928F929F92AA
:1002B000AF92BF92CF92DF92EF92FF920F931F9374
:1002C00081E18093500455245394B4E04B2EA7E071
:1002D0003A2EFFE09F2EE2E08E2E75E0772E68E04A
:1002E000662E53E0C52E46E0B42E39E0A32E1EE064
:1002F0000AE02BE0F22E9CE0E92E8DE0D82EBAC168
:100300008091400460E00E948F22809148040E9406
:10031000C122892B61F45092500460915104709174
:10032000520480915304909154040E94052065E08A
:1003300070E080E090E00E94052080914A040E94D5
:10034000C122892B61F44092500460915104709154
:10035000520480915304909154040E94052065E05A
:1003600070E080E090E00E94052080914C040E94A3
:10037000C122892B61F43092500460915104709134
:10038000520480915304909154040E94052065E02A
:1003900070E080E090E00E94052080914E040E9471
:1003A000C122892B61F490925004609151047091A4
:1003B000520480915304909154040E94052065E0FA
:1003C00070E080E090E00E9405208091400461E0B0
:1003D0000E948F228091420460E00E948F228091CF
:1003E00048040E94C122892B61F4809250046091DC
:1003F00051047091520480915304909154040E94CE
:10040000052065E070E080E090E00E94052080918A
:100410004A040E94C122892B61F4709250046091B9
:1004200051047091520480915304909154040E949D
:10043000052065E070E080E090E00E94052080915A
:100440004C040E94C122892B61F460925004609197
:1004500051047091520480915304909154040E946D
:10046000052065E070E080E090E00E94052080912A
:100470004E040E94C122892B61F4109250046091B5
:1004800051047091520480915304909154040E943D
:10049000052065E070E080E090E00E9405208091FA
:1004A000420461E00E948F228091440460E00E9437
:1004B0008F22809148040E94C122892B61F4C0924E
:1004C00050046091510470915204809153049091B2
:1004D00054040E94052065E070E080E090E00E94F6
:1004E000052080914A040E94C122892B61F4B092B8
:1004F0005004609151047091520480915304909182
:1005000054040E94052065E070E080E090E00E94C5
:10051000052080914C040E94C122892B61F4A09295
:100520005004609151047091520480915304909151
:1005300054040E94052065E070E080E090E00E9495
:10054000052080914E040E94C122892B61F41093F2
:100550005004609151047091520480915304909121
:1005600054040E94052065E070E080E090E00E9465
:1005700005208091440461E00E948F22809146040E
:1005800060E00E948F22809148040E94C122892B42
:1005900061F4009350046091510470915204809171
:1005A0005304909154040E94052065E070E080E0BF
:1005B00090E00E94052080914A040E94C122892B6C
:1005C00061F4F09250046091510470915204809152
:1005D0005304909154040E94052065E070E080E08F
:1005E00090E00E94052080914C040E94C122892B3A
:1005F00061F4E09250046091510470915204809132
:100600005304909154040E94052065E070E080E05E
:1006100090E00E94052080914E040E94C122892B07
:1006200061F4D09250046091510470915204809111
:100630005304909154040E94052065E070E080E02E
:1006400090E00E9405208091460461E00E948F2284
:1006500080913E040E94C122892B61F410935004C2
:10066000609151047091520480915304909154040C
:100670000E94052080915004813109F441CE1F91E0
:100680000F91FF90EF90DF90CF90BF90AF909F9031
:100690008F907F906F905F904F903F9008950F9351
:1006A0001F93CF93DF93EC01162F042F82E099E084
:1006B0000E940D1882E099E060E072E00E9416242A
:1006C000CA30D1053CF4612F6E5F82E099E0402F83
:1006D0000E940D18CE010A978A35910538F4612FD2
:1006E0006F5F82E099E0402F0E940D18C436D1055B
:1006F00034F082E099E0612F402F0E940D1882E0D3
:1007000099E0BE014AE050E00E940424DF91CF91BD
:100710001F910F910895EF92FF920F931F93E82E70
:10072000F62E682F615082E099E04F2D0E940D183F
:1007300082E099E064E072E00E9416248091440413
:1007400060E00E948F2282E099E00E94F71780917A
:100750004E040E94C1220197A1F580913E040E949F
:10076000C122019771F5809155040E94CA2064E06E
:1007700070E00E943724162F072F862F972F6E2D9B
:1007800070E04F2D50E08BDF68EC70E080E090E08F
:100790000E94052080913404909135040197E091E6
:1007A000DC09F091DD09E80FF91F1083E0913404B2
:1007B000F0913504EE0FFF1FEA55FB4F10830183C4
:1007C000C6CF82E099E00E94FF178091440461E067
:1007D0000E948F226CE271E080E090E00E94052090
:1007E0001F910F91FF90EF9008951F938091460401
:1007F00060E00E948F221FEF3EC0809134049091F0
:1008000035040197E091DC09F091DD09E80FF91F4B
:1008100010836091FE0870E0625070404091FF08C4
:100820008FEF90E050E03BDF64E670E080E090E026
:100830000E94052080913404909135040197E09145
:10084000DC09F091DD09E80FF91F10826091FE08C4
:10085000625082E099E04091FF080E940D1882E00A
:1008600099E066E072E00E94162464E670E080E0A1
:1008700090E00E94052080914C040E94C1220197C3
:1008800009F4BBCF8091460461E00E948F2282E090
:1008900099E06091FE084091FF080E940D181F9199
:1008A0000895CF92DF92EF92FF920F931F938C01E6
:1008B0006DE070E040E050E0F2DE7EE0C72ED12C2B
:1008C000C00ED11EC60161E170E040E050E0E7DEFD
:1008D00066EAE62E64E0F62EF801EE0FFF1FEE0D3D
:1008E000FF1D8081918161E070E041E050E0D7DE42
:1008F000F8013196EE0FFF1FEE0DFF1D80819181F3
:1009000065E070E041E050E0CADEF8013296EE0F9B
:10091000FF1FEE0DFF1D8081918169E070E041E0D5
:1009200050E0BDDEF8013396EE0FFF1FEE0DFF1D08
:10093000808191816DE070E041E050E0B0DEF8012F
:100940003496EE0FFF1FEE0DFF1D8081918161E156
:1009500070E041E050E0A3DEF8013596EE0FFF1F96
:10096000EE0DFF1D8081918161E070E042E050E07A
:1009700096DEF8013696EE0FFF1FEE0DFF1D80810B
:10098000918165E070E042E050E089DEF801379641
:10099000EE0FFF1FEE0DFF1D8081918169E070E079
:1009A00042E050E07CDEF8013896EE0FFF1FEE0DBE
:1009B000FF1D808191816DE070E042E050E06FDECC
:1009C000F8013996EE0FFF1FEE0DFF1D808191811A
:1009D00061E170E042E050E062DEF8013A96EE0F2D
:1009E000FF1FEE0DFF1D8081918161E070E043E00B
:1009F00050E055DEF8013B96EE0FFF1FEE0DFF1D98
:100A00008081918165E070E043E050E048DE045F62
:100A10001F4FF801EE0FFF1FEE0DFF1D808191812A
:100A200069E070E043E050E03ADE0F5F1F4F000FD7
:100A3000111F0E0D1F1DF801808191816DE070E086
:100A400043E050E02CDECC0CDD1CEC0CFD1CF7016F
:100A50008081918161E170E043E050E020DE1F91F0
:100A60000F91FF90EF90DF90CF900895FF920F933A
:100A70001F93CF93DF93F82E82E099E06091FE08F8
:100A80004091FF080E940D1882E099E06AE072E050
:100A90000E94162482E099E00E94F7176091FE08F8
:100AA0006E5F6093FE0882E099E04091FF080E942B
:100AB0000D18F7DB609150046A3018F000E010E088
:100AC00016C082E099E04AE050E00E94B52382E03F
:100AD00099E06091FE084091FF080E940D188091F6
:100AE0005004082F10E01093010900930009809131
:100AF00050048E3009F4D8C091E0F91691F48A3090
:100B000009F470C08B3009F476C08C3009F47AC0D7
:100B10008D3039F488EC92E09093010980930009BC
:100B2000DFC0BFDB809150048E3029F4109301099F
:100B300000930009B9C091E0F91659F48A3009F41C
:100B400051C08B3009F457C08C3009F45BC08D3034
:100B500009F38A3018F0C0E0D0E029C06091FE08A7
:100B600061506093FE0882E099E04091FF080E9486
:100B70000D1882E099E0B8014AE050E00E94042498
:100B800082E099E0609150044AE050E00E94B52371
:100B900080915004C82FD0E06091FE086F5F609391
:100BA000FE0882E099E04091FF080E940D1879DB71
:100BB000809150048E3089F4C801B3E0880F991FEA
:100BC000BA95E1F7000F111F800F911FC80FD91FB1
:100BD000D0930109C093000967C091E0F916C1F4F0
:100BE0008A3039F48FEF90E09093010980930009E7
:100BF0005BC08B3029F4109201091092000954C097
:100C00008C3019F484E692E087CF8D3009F482CFDE
:100C10008A3008F049C06091FE0862506093FE0877
:100C200082E099E04091FF080E940D1882E099E06F
:100C3000B8014AE050E00E94042482E099E0BE013D
:100C40004AE050E00E9404246091FE086E5F6093C9
:100C5000FE0882E099E04091FF080E940D1882E0B2
:100C600099E0609150044AE050E00E94B52384E688
:100C700090E0089F9001099F300D189F300D1124BE
:100C800080915004280F311DCE01F3E0880F991F89
:100C9000FA95E1F7CC0FDD1F8C0F9D1F280F391F30
:100CA000309301092093000982E099E00E94FF1728
:100CB0006091FE0870E0625070404091FF088091A2
:100CC00000099091010950E0EADC6091FE0864504F
:100CD0006093FE0882E099E04091FF080E940D18A1
:100CE00082E099E00E94FF1782E099E06091FE089F
:100CF0004091FF080E940D186CE271E080E090E0E6
:100D00000E940520DF91CF911F910F91FF900895D0
:100D10000F931F93CF93DF9382E099E00E943518E1
:100D200082E099E061E141E00E940D1806EA14E0DA
:100D3000C0E0D0E0F801119211928F01E091DC093E
:100D4000F091DD09EC0FFD1F108282E099E0BE01F9
:100D500042E050E00E9404242196F2E0C130DF0717
:100D600049F782E099E00E94351882E099E063E05B
:100D700041E00E940D1882E099E06EE072E00E946E
:100D8000162468EE73E080E090E00E940520DF9179
:100D9000CF911F910F910895CF93DF9382E099E057
:100DA0000E94351882E099E00E94FF1782E099E0E6
:100DB00060E040E00E940D18C0E0D0E082E099E0E1
:100DC000BE0142E050E00E940424219682E0C1303E
:100DD000D807A1F782E099E00E94351882E099E0F7
:100DE00060E043E00E940D1882E099E06EE172E05D
:100DF0000E94162482E099E063E040E00E940D1812
:100E000082E099E063E372E00E94162482E099E0B8
:100E100061E041E00E940D1882E099E063E472E035
:100E20000E94162482E099E060E042E00E940D18E2
:100E300082E099E067E572E00E94162482E099E082
:100E400060E04AE050E00E94B52382E099E06EE560
:100E500072E00E94162482E099E065E04AE050E0EA
:100E60000E94B52382E099E06BE042E00E940D18F9
:100E700082E099E060E672E00E94162482E099E048
:100E800060E04AE050E00E94B52382E099E06EE520
:100E900072E00E94162482E099E060E04AE050E0AF
:100EA0000E94B52360ED77E080E090E00E9405208D
:100EB000DF91CF9108950F931F93CF93DF9382E03B
:100EC00099E00E94351882E099E061E141E00E94DA
:100ED0000D1808EA14E0C1E0D0E089ED99E0BE0108
:100EE0000E94801CF801808311822197E091DC0927
:100EF000F091DD09EC0FFD1F2196808382E099E0DF
:100F0000BE0142E050E00E94042421960E5F1F4F74
:100F1000F2E0C130DF0709F782E099E00E9435185E
:100F200082E099E063E041E00E940D1882E099E0E0
:100F300067E672E00E94162468EE73E080E090E0BD
:100F40000E940520DF91CF911F910F91089589EDA7
:100F500099E061E072E00E94801C682F809119097D
:100F6000882361F46623A9F4809163046FE770E03D
:100F70000E94FE2081E0809319090895813069F470
:100F80008091630460E070E00E94FE2010921909D5
:100F900008958091630470E0EBCF08952F923F9203
:100FA0004F925F926F927F928F929F92AF92BF9279
:100FB000CF92DF92EF92FF920F931F93DF93CF9325
:100FC000CDB7DEB763970FB6F894DEBF0FBECDBFC7
:100FD00089837B8B6A8B0091AC081091AD0882E00D
:100FE00099E0602F412F0E940D1882E099E066E79A
:100FF00072E00E9416248A899B890D969B838A83BE
:10100000EA89FB893896FD83EC838A899B8903965C
:101010009F838E83EA89FB893E96F987E8878A89D0
:101020009B8909969B878A87EA89FB893496FD8785
:10103000EC876AE0262E312C8A899B89280E391E7E
:101040000B969F878E87EA89FB893C96F98BE88B04
:1010500057E0852E912C8A899B89880E991E46E03F
:10106000642E712C680E791E35E0432E512C480EEB
:10107000591E6C010894C11CD11C22E0A22EB12C77
:10108000A80EB91E84E1E82EF12C8091400460E0A6
:101090000E948F2280914E040E94C122892B59F414
:1010A00060915104709152048091530490915404C2
:1010B0000E9405204CDF8091400461E00E948F2255
:1010C00080913A040E94C122892BF9F46CE271E00C
:1010D00080E090E00E9405202091AC088091AD084E
:1010E00090E08E9DA0018F9D500D9E9D500D11246E
:1010F000222309F424E12150FA01E20FF11DE25507
:10110000F74F80818130A1F724C080913C040E9478
:10111000C122892B09F56CE271E080E090E00E9429
:1011200005202091AC088091AD0890E08E9DA00133
:101130008F9D500D9E9D500D11242F5F243108F07E
:1011400020E0FA01E20FF11DE255F74F8081813076
:10115000A1F72093AC084EC1809138040E94C122AF
:10116000892B09F56CE271E080E090E00E94052097
:101170002091AD088091AC08482F50E02F5F2430BB
:1011800008F020E0822F90E08E9DF0018F9DF00D01
:101190009E9DF00D1124E40FF51FE255F74F80815D
:1011A000813061F726C0809136040E94C122892BCC
:1011B00019F56CE271E080E090E00E94052020913A
:1011C000AD088091AC08482F50E0222309F424E0B8
:1011D0002150822F90E08E9DF0018F9DF00D9E9DFD
:1011E000F00D1124E40FF51FE255F74F8081813097
:1011F00061F72093AD08FEC080913E040E94C12299
:10120000892B09F042CF6CE271E080E090E00E940F
:1012100005204091AD086091AC08842F90E08E9D30
:10122000F0018F9DF00D9E9DF00D1124E60FF11D34
:10123000E255F74F8081813009F0FAC082E099E0F1
:101240000E940D1882E099E068E772E00E9416247F
:1012500082E0C8C09091AC089C3031F48091AD0818
:10126000882309F048C01FC0903181F48091AD08F7
:10127000882309F049C082E099E061E040E00E94E3
:101280000D1882E099E06AE772E0A9C0943029F471
:101290008091AD088823F9F406C0983089F48091D4
:1012A000AD08882301F582E099E061E040E00E940A
:1012B0000D1882E099E06AE772E00E94162485C06A
:1012C000992339F48091AD08813039F58A899B8959
:1012D00077C0943031F48091AD088130E1F4C601DB
:1012E0006FC0983031F48091AD088130E1F4C501D0
:1012F00067C09C3039F48091AD08813031F58E8122
:101300009F815EC0903139F48091AD08813031F514
:101310008C859D8555C0992331F48091AD0882302C
:1013200031F5C2014DC0943031F48091AD08823066
:1013300031F5C30145C0983031F48091AD08823059
:1013400039F5C4013DC09C3039F48091AD0882303C
:1013500041F58C819D8134C0903139F48091AD0884
:10136000823041F58A859B852BC0992331F4809189
:10137000AD08833051F5C10123C0943039F4809118
:10138000AD08833011F58E859F851AC0983039F4E9
:101390008091AD088330C9F48889998911C09C3047
:1013A00039F48091AD08833081F48A819B8108C033
:1013B000903159F48091AD08833039F4888599854E
:1013C00061E070E040E050E06AD982E099E060E1DD
:1013D00040E00E940D1882E099E06EE772E00E9402
:1013E000162481E00091AC081091AD08823009F01C
:1013F0004CCE1FC082E099E0602F412F0E940D1853
:1014000082E099E060E872E00E94162482E099E0B0
:101410006091AC084091AD080E940D1882E099E0FF
:1014200066E772E00E94162499819130D1F612CFBE
:10143000FFCF63960FB6F894DEBF0FBECDBFCF913E
:10144000DF911F910F91FF90EF90DF90CF90BF90B1
:10145000AF909F908F907F906F905F904F903F9054
:101460002F90089589ED99E062E072E00E94801C5F
:10147000682F8091650470E00C94FE201F9389ED25
:1014800099E061E072E00E94801C182F8091630453
:10149000612F70E00E94FE20112319F410921909A7
:1014A00003C081E0809319091F9108950F931F9342
:1014B000CF93DF9382E099E00E94351882E099E0B3
:1014C00061E141E00E940D1806EA14E0C0E0D0E0BE
:1014D000F801119211928F01E091DC09F091DD0980
:1014E000EC0FFD1F108289ED99E0BE0140E00E94E3
:1014F000871C82E099E0BE0142E050E00E94042493
:101500002196F2E0C130DF0719F782E099E00E94EE
:10151000351882E099E063E041E00E940D1882E016
:1015200099E062E872E00E94162468EE73E080E0C1
:1015300090E00E940520DF91CF911F910F910895B7
:101540000F931F93CF93DF9382E099E00E943518A9
:1015500082E099E061E141E00E940D1808EA14E0A0
:10156000C1E0D0E089ED99E0BE01F80140810E9420
:10157000871C82E099E0BE0142E050E00E94042412
:1015800021960E5F1F4FF2E0C130DF0759F782E06E
:1015900099E00E94351882E099E063E041E00E9402
:1015A0000D1882E099E062E972E00E94162468EE6C
:1015B00073E080E090E00E940520DF91CF911F91C1
:1015C0000F91089582E099E00E94351882E099E039
:1015D00060E040E00E940D1882E099E060EA72E06D
:1015E0000E94162482E099E061E042E00E940D181A
:1015F00082E099E060EB72E00E94162482E099E0BC
:1016000061E043E00E940D1882E099E065EB72E032
:101610000E94162482E099E067E042E00E940D18E3
:1016200082E099E06AEB72E00E94162482E099E081
:1016300067E043E00E940D1882E099E060EC72E000
:101640000E94162482E099E06EE043E00E940D18AB
:1016500082E099E066EC72E00E9416241092AC08D9
:1016600082E08093AD08EEEAF8E0DF019896108200
:10167000148A1C9254961C9254973196119688E0C5
:10168000E23CF807A1F781E0848B80A786A7828FD0
:1016900085AB80E060E070E081DC8091AC0888235D
:1016A00029F48091AD08833009F405DC8091AC0801
:1016B000863029F48091AD08833009F4F7DE8091FB
:1016C000AC08882329F48091AD08823009F438DF12
:1016D0008091AC08863029F48091AD08823009F4FD
:1016E00017CB0895EF92FF920F931F93CF93DF9341
:1016F000EEE0EE2E7FE0F72ECFEFD0E089ED99E01F
:1017000061E072E00E94801C182F89ED99E062E090
:1017100072E00E94801C082F82E099E00E94351838
:1017200082E099E060E040E00E940D1882E099E0DC
:101730006DEC72E00E94162482E099E06FE040E0D8
:101740000E940D1882E099E069ED72E00E94162473
:1017500082E099E063E041E00E940D1882E099E0A8
:101760006FED72E00E941624812F90E06FE070E030
:1017700041E050E00E944F0382E099E065E042E0E2
:101780000E940D1882E099E06BEE72E00E94162430
:10179000802F90E06FE070E042E050E00E944F0345
:1017A00082E099E060E043E00E940D1882E099E059
:1017B00065EF72E00E94162482E099E06FE043E05A
:1017C0000E940D1882E099E062E073E00E94162406
:1017D000E092AC0882E08093AD08EEEAF8E0DF0129
:1017E00098961082148A1C9254961C9254973196A3
:1017F000119628E0E23CF207A1F781E0868782A3F8
:1018000086AB8093BC0880E060E070E0C7DB80912D
:10181000AC088E30C1F78091AD08813009F080C0EE
:101820008093FF08F092FE0821D9809100099091E1
:10183000010922E0883C920709F045C082E099E066
:101840006EE041E00E940D1882E099E064E072E0F1
:101850000E9416248091440460E00E948F2282E05E
:1018600099E00E94F71780914E040E94C1220197CF
:1018700009F0E3C080913E040E94C122019709F063
:10188000DCC0809155040E94CA2064E070E00E9490
:101890003724CB0160930009909301096FE070E059
:1018A00041E050E00E944F036091000970910109EE
:1018B000809163040E94FE2068EC70E080E090E07C
:1018C0000E940520D0CF8F3F910569F064F0D0933E
:1018D0000109C09300098FEF90E060E170E042E001
:1018E00050E00E944F0360910009709101098091BE
:1018F00063040E94FE2040910009509101094115A6
:10190000510519F41092190906C0141615061CF495
:1019100081E08093190989ED99E061E072E075C07A
:10192000823009F075C08093FF08F092FE0881E0D4
:101930009DD8809100099091010922E0883C92078E
:1019400009F045C082E099E06EE042E00E940D1887
:1019500082E099E064E072E00E94162480914404E1
:1019600060E00E948F2282E099E00E94F717809148
:101970004E040E94C122019709F06FC080913E047D
:101980000E94C122019709F068C0809155040E940D
:10199000CA2064E070E00E943724CB016093000904
:1019A000909301096FE070E042E050E00E944F0325
:1019B0006091000970910109809165040E94FE20E8
:1019C00068EC70E080E090E00E940520D0CF8F3F6F
:1019D000910569F064F0D0930109C09300098FEF7D
:1019E00090E060E170E042E050E00E944F036091BF
:1019F000000970910109809165040E94FE2089ED23
:101A000099E062E072E0409100090E94871CFBCEE1
:101A1000833011F432D0F7CE882309F0F4CEBCD94C
:101A200080913E040E94C1220197D1F36CE271E0E3
:101A300080E090E00E94052061CE82E099E00E9463
:101A4000FF178091440461E00E948F226CE271E0F4
:101A500080E090E00E9405204ECF82E099E00E9455
:101A6000FF178091440461E00E948F226CE271E0D4
:101A700080E090E00E940520C2CF82E099E00E94C1
:101A8000351882E099E060E040E00E940D1882E0A5
:101A900099E067E073E00E94162482E099E062E03A
:101AA00042E00E940D1882E099E068E173E00E9434
:101AB000162482E099E062E043E00E940D1882E083
:101AC00099E060E273E00E94162482E099E06CE005
:101AD00042E00E940D1882E099E067E273E00E9404
:101AE000162482E099E06CE043E00E940D1882E049
:101AF00099E06EE273E00E94162482E099E06CE0C7
:101B000041E00E940D1882E099E067E373E00E94D3
:101B1000162482E099E062E041E00E940D1882E024
:101B200099E06EE373E00E94162481E08093AC0894
:101B300082E08093AD08EEEAF8E0DF01989610822B
:101B4000148A1C9254961C9254973196119688E0F0
:101B5000E23CF807A1F781E0858B81A7878F83ABF3
:101B60008387818380E060E070E018DA8091AC08C0
:101B7000813029F48091AD08823009F46AD28091D5
:101B8000AC08813029F48091AD08833009F426D067
:101B90008091AC088B3029F48091AD08823009F433
:101BA000A2D38091AC088B3029F48091AD088330AA
:101BB00009F498D58091AC088B3029F48091AD0858
:101BC000813009F48FDD8091AC08813031F480914F
:101BD000AD08813011F4F6DC50CF08952F923F927A
:101BE0004F925F926F927F928F929F92AF92BF922D
:101BF000CF92DF92EF92FF920F931F93DF93CF93D9
:101C0000CDB7DEB760970FB6F894DEBF0FBECDBF7D
:101C100081E090E09093350480933404988B8F8713
:101C20000CE011E004C021E030E0388B2F8782E027
:101C300099E00E94351882E099E060E040E00E945F
:101C40000D1882E099E065E473E00E9416248F8508
:101C500098890E9451040093AC081092AD08EEEAF6
:101C6000F8E0DF0198961082148A1C9254961C9218
:101C700054973196119638E0E23CF307A1F71093A0
:101C8000B2081093B6081093BA081093BE081083D8
:101C9000148310871487108B148B108F148F10A34C
:101CA00014A310A714A710AB14AB10AF8F8598899D
:101CB0000C969A838983EF85F8893796FC83EB83AA
:101CC0002F8538892E5F3F4F3E832D838F859889DE
:101CD0000D9698878F83EF85F8893896FA87E9877C
:101CE0002F8538892D5F3F4F3C872B878F859889BB
:101CF0000E969E878D8759E0252E312CEF85F88929
:101D00002E0E3F1E44E0442E512C4E0E5F1E3AE034
:101D1000632E712C6E0E7F1E25E0822E912C8E0E6E
:101D20009F1E5F010894A11CB11C96E0C92ED12C06
:101D3000CE0EDF1E8BE0E82EF12CEE0EFF1E81E0B2
:101D40006F8578892BD99091AC08943039F48091C3
:101D5000AD08882309F080C035DC69CF983039F4AC
:101D60008091AD08882309F082C087DE60CF9C3067
:101D700081F58091AD08882309F082C01092FF0898
:101D8000FDE0F093FE082F853889309301092093F8
:101D900000090E9436058091000990910109835F36
:101DA000914034F082EF91E0909301098093000913
:101DB0008091000990910109892B31F4E1E0F0E074
:101DC000F0930109E0930009209100093091010985
:101DD0002CCF9031B1F58091AD08882309F05DC01A
:101DE0001092FF0831E13093FE088F8598890197A2
:101DF00039F4EFE0F0E0F0930109E093000908C046
:101E00002F8538892E5030403093010920930009E6
:101E100080E00E943605609100097091010932E06E
:101E2000613073072CF082EF91E0988B8F87FFCEA3
:101E30006F3071050CF4F7CEFB013E97F88BEF87FE
:101E4000F6CE992339F48091AD08813089F52F853C
:101E500038891CC0943049F48091AD08813099F5DF
:101E6000B0923504A092340488C0983039F480913F
:101E7000AD08813099F5ED81FE817BC09C3059F42D
:101E80008091AD08813099F52B853C8530933504E0
:101E90002093340472C0903149F48091AD088130B0
:101EA00079F5509235044092340467C0992349F47F
:101EB0008091AD08823079F5909235048092340497
:101EC0005CC0943049F48091AD08823079F5D092AD
:101ED0003504C092340451C0983039F48091AD0873
:101EE000823079F5EB81FC8144C09C3039F48091DB
:101EF000AD08823079F529853A85C8CF903149F40B
:101F00008091AD08823079F5309235042092340406
:101F100034C0992349F48091AD08833071F57092F3
:101F200035046092340429C0943049F48091AD089E
:101F3000833019F5F0923504E09234041EC09830D5
:101F400039F48091AD088330C1F4E981FA8111C080
:101F50009C3039F48091AD08833079F42F81388535
:101F600095CF903151F48091AD08833031F4ED85F7
:101F7000FE85F0933504E09334048091AD0880939E
:101F8000FF089F5F9093FE08E0913404F0913504C0
:101F9000EE0FFF1FEA55FB4F80819181909301095D
:101FA0008093000981E00E9436058091000990919C
:101FB00001098456924039F40E94F5038091FE088D
:101FC00084508093FE08809100099091010922E0DD
:101FD000883C920769F48091FE0882506091FF0866
:101FE0000E948B038091FE0884508093FE08A7CE48
:101FF0008F3F910589F084F08FEF90E09093010975
:10200000809300096091FE0870E06E5F7F4F409101
:10201000FF0850E00E944F038091340490913504F2
:102020000197E091DC09F091DD09E80FF91F80913B
:1020300000098083E0913404F0913504EE0FFF1F16
:10204000EA55FB4F809100099091010991838083AB
:1020500076CEAF92BF92CF92DF92EF92FF920F9324
:102060001F93CF93DF93C1E0D0E098E0A92E01E069
:1020700089E0B82EE12C12E0F12EBFEFCB2ED12C4F
:10208000D0933504C093340482E099E0EED782E027
:1020900099E060E040E0C1D782E099E067E573E055
:1020A0000E94162482E099E06EE042E0B6D782E01A
:1020B00099E062E073E00E94162482E099E06EE00D
:1020C00043E0ABD782E099E06EE373E00E94162410
:1020D00082E099E060E042E0A0D782E099E068E623
:1020E00073E00E94162482E099E062E043E095D715
:1020F00082E099E065E773E00E9416248091A804CD
:102100009091A90469E070E043E050E00E944F0321
:10211000A092AC0882E08093AD08EEEAF8E0DF011F
:1021200098961082148A1C9254961C925497319659
:10213000119628E0E23CF207A1F7048F00AB01A35F
:1021400005AB80E060E070E00E94CE078091AC08B3
:10215000883009F058C01091AD08123009F053C012
:10216000809134049091350469E070E042E050E0E1
:102170000E944F031093FF08B092FE088091340430
:1021800090913504909301098093000980E00E94AA
:10219000360580910009909101098150924064F0C8
:1021A000F0920109E092000980E092E069E070E0BD
:1021B00042E050E00E944F03809100099091010994
:1021C0001816190664F0D0930109C093000981E044
:1021D00090E069E070E042E050E00E944F03E0913F
:1021E0000009F0910109F0933504E0933404EE0FF7
:1021F000FF1FEA55FB4F8081918169E070E043E069
:1022000050E00E944F038091AC08883009F05DC017
:102210008091AD08833009F094CF8093FF08B0928D
:10222000FE08E0913404F0913504EE0FFF1FEA55EB
:10223000FB4F80819181909301098093000981E097
:102240000E943605809100099091010984569240C0
:1022500011F40E94F503809100099091010922E098
:10226000883C920729F489E063E00E948B0369CFE0
:102270008F3F910569F064F0D0920109C092000986
:102280008FEF90E069E070E043E050E00E944F0380
:1022900080913404909135040197E091DC09F0912C
:1022A000DD09E80FF91F809100098083E091340473
:1022B000F0913504EE0FFF1FEA55FB4F80910009A6
:1022C00090910109918380833CCF8D3009F039CF03
:1022D0008091AD08833011F475D9D2CE823009F0E7
:1022E00030CFCBDB2ECF2F923F924F925F926F92E7
:1022F0007F928F929F92AF92BF92CF92DF92EF9296
:10230000FF920F931F93DF93CF93CDB7DEB728973C
:102310000FB6F894DEBF0FBECDBF82E099E0A5D620
:1023200082E099E060E040E078D682E099E06CE7F6
:1023300073E00E94162482E099E063E041E06DD6EC
:1023400082E099E069E873E00E94162482E099E057
:1023500060E042E062D682E099E069E973E00E94C1
:10236000162482E099E060E043E057D682E099E0ED
:102370006DEA73E00E94162481E090E069E070E06D
:1023800041E050E00E944F0381E090E069E070E09E
:1023900042E050E00E944F0380E090E069E070E08E
:1023A00043E050E00E944F0388E08093AC0881E056
:1023B0008093AD0821E030E040E050E029833A838B
:1023C0004B835C83E1E08E2E912CA12CB12C442414
:1023D00055243201EEEAF8E0DF0198961082148A63
:1023E0001C9254961C9254973196119638E0E23C18
:1023F000F307A1F741E04087448F40AB42A346ABCF
:1024000080E060E070E00E94CE078091AC088E30E2
:1024100029F48091AD08823009F42FDB8091AC085B
:102420008E3009F0ADC08091AD08833009F0C9C08D
:102430008D829E8282E099E06FE043E0EED582E0FB
:1024400099E062EC73E00E941624A6EAB4E080E012
:1024500090E01D921D92E091DC09F091DD09E80FFA
:10246000F91F1082019652E08130950791F78D8116
:102470009E819C0169011401220C331C86EA94E0C0
:10248000280E391E5FC0AF81B8851196B887AF831B
:10249000A451B54009F05BC00894E11CF11C011D7A
:1024A000111D29813A814B815C81E216F3060407F4
:1024B000150709F04AC0C601AA2797FDA095BA2FB3
:1024C000481659066A067B0624F48D819E819C017C
:1024D0006901C60169E070E040E050E00E944F03EE
:1024E000D101A50194010FC0C9010197E091DC0958
:1024F000F091DD09E80FF91F10821D921D922F5FE8
:102500003F4F4F4F5F4F421653066406750664F700
:102510000894C108D108E091DC09F091DD09EC0DC7
:10252000FD1D0894C11CD11C3FEF3083F601EE0F56
:10253000FF1FEA55FB4F4FEF50E051834083089453
:10254000C11CD11CEE24FF24870118861F828091B4
:102550003E040E94C122019709F495CF82E099E0E0
:102560006FE043E05AD582E099E068EC73E00E94A6
:1025700016246CE271E080E090E00E9405202ACFF2
:102580008830F9F48091AD088130D9F48093FF0848
:1025900059E05093FE0889819A81909301098093B4
:1025A000000980E00E9436058091000990910109A0
:1025B0009C01442737FD4095542F29833A834B8350
:1025C0005C838091AC08883009F042C08091AD08EE
:1025D0008230F1F58093FF0839E03093FE08909245
:1025E00001098092000980E00E943605809100096F
:1025F000909101094C01AA2497FCA094BA2C811453
:102600009104A104B10471F481E090E069E070E00C
:1026100042E050E00E944F0351E0852E912CA12C06
:10262000B12C16C041E0841642E0940640E0A406B6
:1026300040E0B4066CF080E092E069E070E042E0D7
:1026400050E00E944F03812C42E0942EA12CB12C2B
:102650008091AC08883009F0BDCE8091AD08833000
:1026600009F0B8CE8093FF0859E05093FE085092CD
:1026700001094092000980E00E943605809100091E
:10268000909101092C01662457FC6094762C41142A
:1026900051046104710471F481E090E069E070E03C
:1026A00043E050E00E944F0331E0432E512C612C57
:1026B000712C90CE81E0481682E0580680E06806D2
:1026C00080E078060CF486CE80E092E069E070E06D
:1026D00043E050E00E944F03412C22E0522E612C37
:1026E000712C78CE2F923F924F925F926F927F9291
:1026F0008F929F92AF92BF92CF92DF92EF92FF9212
:102700000F931F93DF93CF93CDB7DEB728970FB604
:10271000F894DEBF0FBECDBF81E090E098878F8335
:10272000662477244301AA24BB246501AFEFB0E0FF
:10273000BA83A98382E099E098D482E099E063E0CB
:1027400040E06BD482E099E06EEC73E00E941624C6
:1027500082E099E060E041E060D482E099E064EDDD
:1027600073E00E94162482E099E060E042E055D4D4
:1027700082E099E067EE73E00E94162482E099E01F
:1027800060E043E04AD482E099E06CEF73E00E949D
:10279000162489819A8169E070E040E050E00E944F
:1027A0004F038F81988569E070E041E050E00E941E
:1027B0004F03C30169E070E042E050E00E944F0324
:1027C000C50169E070E043E050E00E944F03B8E0CB
:1027D000B093AC081092AD08EEEAF8E0DF019896ED
:1027E0001082148A1C9254961C925497319611961A
:1027F00028E0E23CF207A1F781E0808780AB848F7C
:10280000858781A385AB8093B60880E060E070E0A7
:102810000E94CE078091AC088D3029F48091AD08DC
:10282000813009F42AD98091AC088D3009F092C02A
:102830008091AD08823019F40E94E20A7BCF833088
:1028400009F0C2C0C601B501A40193010E94182479
:10285000615072408040904054F082E099E06DE019
:1028600040E0DBD382E099E060E174E070C082E098
:1028700099E06DE040E0D1D382E099E068E174E056
:102880000E94162491E0E92EF12C012D112D8F814B
:102890009885AA2797FDA095BA2F8B839C83AD833B
:1028A000BE8346C091E0E916F1040105110509F067
:1028B00049C12B803C804D805E80A1E02A16A2E0B9
:1028C0003A06A0E04A06A0E05A0634F02618370877
:1028D000480859088601750182E099E061E140E00D
:1028E0009CD382E099E0B201A1012AE030E00E948D
:1028F000C62365E070E080E090E00E940520C10101
:1029000001972091DC093091DD09280F391F898159
:10291000F9018083F101EE0FFF1FEA55FB4FA981FA
:10292000BA81B183A0830894E11CF11C011D111D23
:10293000AE14BF04C006D1060CF0B4CF82E099E01B
:102940006DE040E06AD382E099E060E274E00E94CA
:10295000162442CF8830C1F58091AD088130A1F5B1
:102960008093FF08B9E0B093FE08EF81F885F093FB
:102970000109E093000980E00E943605809100097A
:102980009091010998878F83892B69F481E090E009
:1029900069E070E041E050E00E944F03A1E0B0E048
:1029A000B887AF8311C0EF81F885E150F24064F041
:1029B00080E092E069E070E041E050E00E944F0367
:1029C00080E092E098878F838091AC08883009F08E
:1029D00042C08091AD088230F1F58093FF0899E004
:1029E0009093FE08709201096092000980E00E94B5
:1029F000360580910009909101093C01882477FCFB
:102A00008094982C611471048104910471F481E024
:102A100090E069E070E042E050E00E944F0311E076
:102A2000612E712C812C912C16C0A1E06A16A2E0B7
:102A30007A06A0E08A06A0E09A066CF080E092E0B8
:102A400069E070E042E050E00E944F03612CB2E088
:102A50007B2E812C912C8091AC08883009F042C0EB
:102A60008091AD088330F1F58093FF08B9E0B09311
:102A7000FE08B0920109A092000980E00E9436058C
:102A800080910009909101095C01CC24B7FCC094AD
:102A9000DC2CA114B104C104D10471F481E090E0F4
:102AA00069E070E043E050E00E944F03A1E0AA2EED
:102AB000B12CC12CD12C16C0E1E0AE16E2E0BE066E
:102AC000E0E0CE06E0E0DE066CF080E092E069E057
:102AD00070E043E050E00E944F03A12CF2E0BF2ED3
:102AE000C12CD12C8091AC08883009F075CE809132
:102AF000AD08882309F070CE1092FF08F9E0F0933A
:102B0000FE0889819A81909301098093000981E0F0
:102B10000E943605A0910009B0910109BA83A983EA
:102B2000AF3FB10509F00CF457CE8FEF90E069E0AC
:102B300070E040E050E00E944F03EFEFF0E0FA83D6
:102B4000E9834ACE260C371C481C591CB6CE82E0BD
:102B500099E08BD282E099E060E040E05ED282E0D2
:102B600099E064E274E00E94162482E099E062E059
:102B700042E053D282E099E06AEB72E00E941624B0
:102B800082E099E069E042E048D282E099E065EBBA
:102B900072E00E94162482E099E06FE042E03DD2AC
:102BA00082E099E060EC72E00E94162481E080935C
:102BB000AC0882E08093AD08EEEAF8E0DF01989679
:102BC0001082148A1C9254961C9254973196119636
:102BD00088E0E23CF807A1F781E0858B848F82A32F
:102BE00080E060E070E00E94CE078091AC08883001
:102BF00041F48091AD08823021F40E945B070E946D
:102C00003D0D8091AC088E3041F48091AD0882304A
:102C100021F40E94560A0E943D0D8091AC0881303B
:102C200031F48091AD08823011F40C943D0D08957B
:102C300082E061E00E948F220E943E0A0E94320AD6
:102C40000E94CC0684CF8091360462E00E94DC2191
:102C50008091380462E00E94DC2180913A0462E0B5
:102C60000E94DC2180913C0462E00E94DC21809182
:102C70003E0462E00E94DC218091400461E00E94F9
:102C8000DC218091420461E00E94DC2180914404B7
:102C900061E00E94DC218091460461E00E94DC2119
:102CA0008091480462E00E94DC2180914A0462E045
:102CB0000E94DC2180914C0462E00E94DC21809122
:102CC0004E0462E00E94DC218091400461E00E9499
:102CD0008F228091420461E00E948F2280914404FF
:102CE00061E00E948F228091460461E00E948F2261
:102CF0008091570461E00E94DC218091590461E0D9
:102D00000E94DC218091610461E00E94DC218091BD
:102D10005F0461E00E94DC2180915D0461E00E941B
:102D2000DC2180915B0461E00E94DC2180916304DE
:102D300061E00E94DC2182E099E064E144E020E06F
:102D40009AD181E090E09093F2098093F10980E0BC
:102D500092E09093EE098093ED098AED99E060E0AE
:102D600033D785E061E00E94DC2185E060E00E94CD
:102D70008F2286E061E00E94DC2186E060E00E9414
:102D80008F2287E061E00E94DC2187E060E00E9402
:102D90008F2286E161E00E94DC2186E160E00E94F2
:102DA0008F2287E161E00E94DC2187E160E00E94E0
:102DB0008F2288E161E00E94DC2188E160E00E94CE
:102DC0008F2289E161E00E94DC2189E160E00E94BC
:102DD0008F228AE161E00E94DC218AE160E00E94AA
:102DE0008F228BE161E00E94DC218BE160E00E9498
:102DF0008F228CE161E00E94DC218CE160E00E9486
:102E00008F228DE161E00E94DC218DE160E00E9473
:102E10008F228FE161E00E94DC218FE160E00E945F
:102E20008F2281E261E00E94DC2181E260E00E9469
:102E30008F2283E261E00E94DC2183E260E00E9455
:102E40008F2285E261E00E94DC2185E260E00E9441
:102E50008F2287E261E00E94DC2187E260E00E942D
:102E60008F2289E261E00E94DC2189E260E00E9419
:102E70008F228BE261E00E94DC218BE260E00E9405
:102E80008F228EE261E00E94DC218EE260E00E94EF
:102E90008F2280E361E00E94DC2180E360E00E94F9
:102EA0008F2282E361E00E94DC2182E360E00E94E5
:102EB0008F2284E361E00E94DC2184E360E00E94D1
:102EC0008F2286E361E00E94DC2186E360E00E94BD
:102ED0008F2287E361E00E94DC2187E360E00E94AB
:102EE0008F2288E361E00E94DC2188E360E00E9499
:102EF0008F2289E361E00E94DC2189E360E00E9487
:102F00008F228AE361E00E94DC218AE360E00E9474
:102F10008F228BE361E00E94DC218BE360E00E9462
:102F20008F228CE361E00E94DC218CE360E00E9450
:102F30008F228DE361E00E94DC218DE360E00E943E
:102F40008F228EE361E00E94DC218EE360E00E942C
:102F50008F228FE361E00E94DC218FE360E00E941A
:102F60008F2280E461E00E94DC2180E460E00E9426
:102F70008F2281E461E00E94DC2181E460E00E9414
:102F80008F2282E461E00E94DC2182E460E00E9402
:102F90008F2283E461E00E94DC2183E460E00E94F0
:102FA0008F2284E461E00E94DC2184E460E00C94E0
:102FB0008F2208950895FC011382128282E794E023
:102FC000918380830895FC01A081B18118962D9191
:102FD0003C9119976FEFF90119950895DC01ED9176
:102FE000FC910284F385E02D40E019950895FC01E1
:102FF0006581862F816085836960CF01EFCFFC01F9
:1030000065816E7F65836860E9CFFC016581862FED
:10301000846085836C60CF01E1CFDC0117969C91C1
:103020001797491710F0492F415018968C9118970F
:10303000803139F4943029F4E42FF0E0E258FB4F6A
:1030400004C0E42FF0E0EE57FB4F8081680F60680A
:10305000CD01C4CFDC01ED91FC910284F385E02D1C
:1030600041E0199581E090E0089561E0B7DF80EDDF
:1030700097E00C945E20CF93DF93EC01423018F080
:103080008C8188608C834F836887222329F04130AC
:1030900019F48C8184608C8364E670E080E090E0B9
:1030A000B4D76C8164FD2EC0E881F9810284F38578
:1030B000E02DCE0163E042E0199584E991E1FED76D
:1030C000E881F9810284F385E02DCE0163E042E0DE
:1030D000199584E991E1F2D7E881F9810284F385B9
:1030E000E02DCE0163E042E0199586E990E0E6D755
:1030F000E881F9810284F385E02DCE0162E042E0AF
:10310000199511C06062CE0169DF84E991E1D6D7DB
:103110006C816062CE0162DF86E990E0CFD76C817E
:103120006062CE015BDF6C816062CE0157DF84E0BC
:103130008D83CE016ADFCE0198DF82E08E83CE01DF
:1031400066E04CDFCE013FDFDF91CF9108950F9312
:103150001F938C01FC01858561E00E948F22F8019C
:10316000858560E00E948F221F910F910895BF9284
:10317000CF92DF92EF92FF920F931F93CF93DF9343
:10318000D82EC92EB42E282F392FC9018C01C0E0AA
:10319000D0E0E62EFF240DC0B7010C2E02C07595BD
:1031A00067950A94E2F76170F80185850E948F2285
:1031B00021960F5F1F4FCB1578F38D2D9C2DC7DF08
:1031C000DF91CF911F910F91FF90EF90DF90CF9003
:1031D000BF9008950F931F93CF93DF93EC01162FA9
:1031E000042F60E0413009F461E08B850E948F225A
:1031F0008C858F3F19F060E00E948F22023089F0A9
:103200008C8184FF04C0CE01612F48E00DC0612F86
:1032100070E084E0759567958A95E1F7CE0144E00A
:10322000A6DFCE01612F44E0A2DFDF91CF911F9195
:103230000F9108956F927F928F92AF92CF92EF92FB
:103240000F931F93DF93CF93CDB7DEB73C01162FBB
:103250008E2DF301438724870587E686C786A08ADB
:10326000818A9E85928B9F85938B9889948B99896F
:10327000958B61E00E94DC21F301878561E00E946B
:10328000DC21F301808961E00E94DC21F301818966
:1032900061E00E94DC211123A1F4F301828961E045
:1032A0000E94DC21F301838961E00E94DC21F301AB
:1032B000848961E00E94DC21F301858961E00E943C
:1032C000DC21F301838561E00E94DC21F301848528
:1032D0008F3F19F061E00E94DC21F301858561E0F8
:1032E0000E94DC21112319F0F301148203C080E154
:1032F000F3018483F301838560E00E948F22F30150
:10330000858560E00E948F22F30184858F3F19F04C
:1033100060E00E948F228FEFF301868B1286118668
:10332000CF91DF911F910F91EF90CF90AF908F9041
:103330007F906F900895DF92EF92FF920F931F930B
:103340008C01D62E7A01862F61E00E94DC21D80103
:103350005696DC9256971A96FC92EE921997ED913A
:10336000FC910084F185E02DC80160E019951F9162
:103370000F91FF90EF90DF900895DC01362F569665
:103380002C9156972F3F49F1E22FF0E0E254FE4F87
:10339000E491EE2379F019968D919C911A97892BDF
:1033A00019F4822F70E005C06FEF70E0631B7109A4
:1033B000822F24C719968D919C911A97662319F034
:1033C000892B39F402C0019721F4822F61E00C941B
:1033D0008F22822F60E00C948F2208956F927F924B
:1033E0008F92AF92BF92CF92DF92EF92FF920F93A4
:1033F0001F933C01162FF42ED22EB02EAE2C8C2C07
:10340000DADD8AE894E0D3018D939C9300D00F928B
:10341000EDB7FEB73196ADB7BEB711961C921182CB
:1034200012821382C30161E0412F2FEF0F2DED2C8B
:10343000CB2C00DF0F900F900F900F901F910F91EA
:10344000FF90EF90DF90CF90BF90AF908F907F90E4
:103450006F90089520913B0930E080913A09281B34
:103460003109C901089540913A0980913B094817F3
:1034700018F02FEF3FEF0AC0E42FF0E0E65EF64FC2
:103480008081282F30E04F5F40933A09C9010895A9
:10349000E0913A0980913B09E81718F0EFEFFFEF50
:1034A00006C0F0E0E65EF64F8081E82FF0E0CF0145
:1034B00008950895109262091092610988EE93E0D0
:1034C000A0E0B0E08093630990936409A09365093C
:1034D000B09366098AE994E09093600980935F094C
:1034E0000895CF92DF92EF92FF920F931F93CF93A5
:1034F000DF937C016B018A0180915E098823A1F032
:10350000C0E0D0E00DC0D701ED91FC91D601AC0F29
:10351000BD1F0190F081E02DC7016C911995219696
:10352000C017D10780F303C0CB01642F39D0C80185
:10353000DF91CF911F910F91FF90EF90DF90CF908F
:103540000895DF93CF930F92CDB7DEB7FC01698367
:1035500080915E098823C9F080915D09803238F03E
:1035600081E090E09383828320E030E014C080917A
:103570005C09E82FF0E0E45CF64F998190838F5F5F
:1035800080935C0980935D0904C0CE01019661E0DF
:1035900007D021E030E0C9010F90CF91DF9108956D
:1035A000482F613210F081E0089580916B098430DA
:1035B00011F082E008956093B609A5E9B9E0842F7F
:1035C0009C01F90102C081918D938E2F841B861777
:1035D000D0F380E008951F920F920FB60F920BB6B2
:1035E0000F9211242F933F934F935F936F937F9389
:1035F0008F939F93AF93BF93EF93FF938091B90005
:1036000090E0887F90708036910509F4F2C0813691
:103610009105CCF58832910509F47BC0893291057A
:10362000B4F48031910509F46FC0813191053CF407
:10363000009709F447C1089709F04FC165C0883168
:10364000910509F466C0809709F047C182C08034B3
:10365000910509F4A4C08134910544F480339105A7
:1036600009F482C0C89709F038C189C08035910536
:1036700009F489C08835910509F496C0883491050C
:1036800009F02BC1AEC08839910509F413C18939FD
:103690009105ECF48837910509F4ABC089379105A1
:1036A0004CF48836910509F4A4C08037910509F0DF
:1036B00014C19FC08838910509F4FCC08039910578
:1036C00009F49DC08038910509F007C198C0803B7E
:1036D000910509F4C6C0813B91054CF4803A9105EF
:1036E00009F49FC0883A910509F0F7C0BAC0803C40
:1036F000910509F4E3C0883C910509F4DFC0883BDB
:10370000910509F0EAC0C2C080916C098093BB00AA
:10371000CFC09091930980919409981768F4909183
:103720009309E92FF0E0ED58F64F80818093BB00BC
:103730009F5F90939309BCC080916D09882309F421
:103740004BC085ED8093BC008091BC0084FDFCCF14
:10375000C2C080E28093D80985ED8093BC0080913F
:10376000BC0084FDFCCFB7C080E38093D80985ED11
:103770008093BC008091BC0084FDFCCFACC088E38A
:103780008093D8099BC0809193099091BB00E82F4A
:10379000F0E0ED58F64F90838F5F809393099091FE
:1037A00093098091940982C0809193099091BB0004
:1037B000E82FF0E0ED58F64F90838F5F80939309E8
:1037C00080916D09882341F085ED8093BC00809144
:1037D000BC0084FDFCCF7FC081E080936E0984EA49
:1037E0006EC085ED8093BC008091BC0084FDFCCF51
:1037F00072C083E080936B091092D70959C0809101
:10380000D709803208F056C08091D7099091BB004B
:10381000E82FF0E0E954F64F90838F5F8093D7094B
:1038200047C08091D709803230F4E091D709F0E0A9
:10383000E954F64F108285ED8093BC008091BC0066
:1038400084FDFCCF10926B096091D709E09171095A
:10385000F091720987EB99E070E019951092D70901
:103860002DC084E080936B091092B5091092B609BF
:10387000E0916F09F091700919958091B60988233C
:1038800029F481E08093B609109295099091B509C9
:10389000E92FF0E0EB56F64F80818093BB009F5FED
:1038A0009093B5099091B5098091B609981710F4D5
:1038B00085EC01C085E88093BC000FC085EC809347
:1038C000BC0009C01092D80985ED8093BC0080919E
:1038D000BC0084FDFCCF10926B09FF91EF91BF916A
:1038E000AF919F918F917F916F915F914F913F9198
:1038F0002F910F900BBE0F900FBE0F901F90189539
:10390000F999FECF72BD61BDF89A80B50895F99915
:10391000FECF1FBA72BD61BD40BD0FB6F894FA9AD2
:10392000F99A0FBE0895FC018385882331F48091B4
:10393000C10087728093C1000895813031F4809175
:10394000C90087728093C9000895823031F4809154
:10395000D10087728093D1000895833029F480913B
:10396000310187728093310108951F920F920FB633
:103970000F920BB60F9211242F933F934F935F93A7
:103980006F937F938F939F93AF93BF93EF93FF9327
:103990008091C0008093E2093091C6003093E30922
:1039A0002091DE092093E40984FF10C08091C000BB
:1039B0008F7E8093C0008091EF099091F0099093E1
:1039C000E8098093E70981E08093DE09213091F4D2
:1039D000332369F482E08093DE098091DA099091C3
:1039E000DB0901969093E0098093DF094BC01092A8
:1039F000DE0948C02230A1F48091E7099091E809DE
:103A000001979093E8098093E709892BD9F583E022
:103A10008093DE09E091DA09F091DB09308332C04E
:103A2000233081F5E091DF09F091E009F093FD0981
:103A3000E093FC0930834091FC095091FD094F5FF0
:103A40005F4F5093FD094093FC098091DA099091F2
:103A5000DB092091EB093091EC09820F931F481785
:103A6000590760F01092DE09E091000AF091010A16
:103A7000309741F08091E509199504C05093E00911
:103A80004093DF09FF91EF91BF91AF919F918F918B
:103A90007F916F915F914F913F912F910F900BBE4E
:103AA0000F900FBE0F901F9018951F920F920FB698
:103AB0000F920BB60F9211242F933F934F935F9366
:103AC0006F937F938F939F93AF93BF93EF93FF93E6
:103AD0008091E6098093FB09882361F41092C50068
:103AE0008091F8098093C4001092C60081E0809311
:103AF000E60940C0813081F41092C5008091F70939
:103B00008093C4001092C60082E08093E609109270
:103B1000EA091092E9092EC08091E9099091EA0919
:103B20009093FA098093F909E091DC09F091DD099D
:103B3000E80FF91F20812093C6009C012F5F3F4FA3
:103B40003093FA092093F9098091ED099091EE09DB
:103B50002817390759F4E091FE09F091FF093097D1
:103B600011F080E019951092E60904C03093EA093B
:103B70002093E909FF91EF91BF91AF919F918F91B0
:103B80007F916F915F914F913F912F910F900BBE5D
:103B90000F900FBE0F901F90189521E030E03093EA
:103BA000F0092093EF0988E090E09093EC0980936E
:103BB000EB093093F2092093F1099093EE09809379
:103BC000ED091092E50908951F93CF93DF93EC015F
:103BD000162FF894A8DE1C8F112321F487E08D8F17
:103BE00084E10BC0113021F483E08D8F8AE005C0A1
:103BF000123021F481E08D8F85E08E8F8B8D8F3F89
:103C000029F061E0D9D38B8D61E089D48B8588233D
:103C1000D1F481E061E0D0D31092C5008D8D809306
:103C2000C4008091C00082608093C0008091C20077
:103C30008E608093C2008091C10088648093C1002F
:103C40001092C60053C08130D1F482E161E0B4D358
:103C50001092CD008D8D8093CC008091C800826041
:103C60008093C8008091CA008E608093CA008091C2
:103C7000C90088648093C9001092CE0037C082309A
:103C8000D1F480E161E098D31092D5008D8D8093BE
:103C9000D4008091D00082608093D0008091D200C7
:103CA0008E608093D2008091D10088648093D1008F
:103CB0001092D6001BC08330C9F48EE061E07CD343
:103CC000109235018D8D8093340180913001826096
:103CD00080933001809132018E6080933201809117
:103CE00031018864809331011092360181E08C8724
:103CF0008B899C890DD08A839B834B895C8960E08A
:103D000070E00E9433017894DF91CF911F91089564
:103D10000F931F93CF93DF93BC018230910510F472
:103D200062E070E0E0910D0AF0910E0A40E050E090
:103D3000A0E0B0E024C08081918186179707D0F081
:103D40008617970771F482819381109729F0139653
:103D50009C938E9312972CC090930E0A80930D0A19
:103D600027C04115510519F08417950718F48D01E6
:103D7000AC01EF01DF01828193819C01F901309751
:103D8000D1F641155105F9F0CA01861B970B843015
:103D9000910580F48A819B810115110521F0F801BC
:103DA0009383828304C090930E0A80930D0AFE01D0
:103DB000329645C0FE01E80FF91F61937193029797
:103DC000998388833CC080910B0A90910C0A892BBF
:103DD00041F48091690490916A0490930C0A809355
:103DE0000B0A40916B0450916C044115510541F44C
:103DF0004DB75EB78091670490916804481B590BDA
:103E000020910B0A30910C0A24173507B0F4CA012F
:103E1000821B930B8617970780F0AB014E5F5F4FB5
:103E20008417950750F0420F531F50930C0A40938C
:103E30000B0AF9016193719302C0E0E0F0E0CF0159
:103E4000DF91CF911F910F910895CF93DF939C0144
:103E5000009709F48FC0EC0122971B821A826091AF
:103E60000D0A70910E0A6115710581F4888199819E
:103E7000820F931F20910B0A30910C0A28173907E3
:103E800039F5D0930C0AC0930B0A74C0DB0140E0F3
:103E900050E0AC17BD0708F1BB83AA83FE01219156
:103EA0003191E20FF31FAE17BF0779F48D919C910A
:103EB0001197280F391F2E5F3F4F398328831296A1
:103EC0008D919C9113979B838A834115510571F4C1
:103ED000D0930E0AC0930D0A4DC012968D919C91FD
:103EE0001397AD01009711F0DC01D3CFDA011396DF
:103EF000DC93CE931297FA0121913191E20FF31FD7
:103F0000CE17DF0769F488819981280F391F2E5F4A
:103F10003F4FFA01318320838A819B81938382837F
:103F2000E0E0F0E0DB0112968D919C9113970097F1
:103F300019F0BC01FD01F6CFAB014E5F5F4FDB0115
:103F40008D919C91840F951F20910B0A30910C0A42
:103F50002817390779F4309729F410920E0A109235
:103F60000D0A02C0138212824250504050930C0A34
:103F700040930B0ADF91CF9108951F920F920FB6D5
:103F80000F9211242F933F938F939F93AF93BF93DF
:103F90008091060A9091070AA091080AB091090A37
:103FA00030910A0A0196A11DB11D232F2D5F2D37D7
:103FB00020F02D570196A11DB11D20930A0A809370
:103FC000060A9093070AA093080AB093090A809101
:103FD000020A9091030AA091040AB091050A019681
:103FE000A11DB11D8093020A9093030AA093040AB5
:103FF000B093050ABF91AF919F918F913F912F91FF
:104000000F900FBE0F901F9018959B01AC017FB7CA
:10401000F8948091020A9091030AA091040AB09149
:10402000050A66B5A89B05C06F3F19F00196A11D52
:10403000B11D7FBFBA2FA92F982F8827860F911DFA
:10404000A11DB11D62E0880F991FAA1FBB1F6A95B1
:10405000D1F7BC012DC0FFB7F8948091020A90916E
:10406000030AA091040AB091050AE6B5A89B05C011
:10407000EF3F19F00196A11DB11DFFBFBA2FA92F67
:10408000982F88278E0F911DA11DB11DE2E0880F8A
:10409000991FAA1FBB1FEA95D1F7861B970B885E55
:1040A0009340C8F2215030404040504068517C4F0E
:1040B000211531054105510571F60895019739F033
:1040C000880F991F880F991F02970197F1F708959C
:1040D000789484B5826084BD84B5816084BD85B5E3
:1040E000826085BD85B5816085BDEEE6F0E08081AA
:1040F00081608083E1E8F0E01082808182608083CB
:10410000808181608083E0E8F0E08081816080834D
:10411000E1EBF0E0808184608083E0EBF0E080817F
:1041200081608083E1E9F0E080818260808380812A
:1041300081608083E0E9F0E0808181608083E1EA52
:10414000F0E0808182608083808181608083E0EA0A
:10415000F0E0808181608083E1E2F1E08081826033
:104160008083808181608083E0E2F1E080818160F2
:104170008083EAE7F0E080818460808380818260D0
:1041800080838081816080838081806880831092B9
:10419000C1000895382F863308F0365320917B00F4
:1041A000832F86958695869590E08170907043E088
:1041B000880F991F4A95E1F7277F282B20937B00D2
:1041C000377080916D048295880F880F807C832BD7
:1041D00080937C0080917A00806480937A00809143
:1041E0007A0086FDFCCF2091780040917900942FD1
:1041F00080E030E0282B392BC90108951F93CF931D
:10420000DF93182FEB0161E0D7D0209709F4CAC0E3
:10421000CF3FD10509F4C9C0E12FF0E0E254FE4FD1
:104220008491893009F466C08A30B0F48430F1F1A9
:10423000853040F4823059F1833070F5813009F0D7
:10424000AEC020C0873009F443C0883008F048C0B1
:10425000863009F0A4C034C08D3009F478C08E30A7
:1042600038F48B3009F45AC08C3008F066C04CC06A
:10427000803109F480C0813109F487C08F3009F0A2
:104280008EC06FC084B5806884BDC7BD91C084B541
:10429000806284BDC8BD8CC080918000806880939E
:1042A0008000D0938900C093880082C080918000F4
:1042B000806280938000D0938B00C0938A0078C086
:1042C0008091B00080688093B000C093B30070C04C
:1042D0008091B00080628093B000C093B40068C049
:1042E00080919000806880939000D0939900C09353
:1042F00098005EC080919000806280939000D0937F
:104300009B00C0939A0054C0809190008860809375
:104310009000D0939D00C0939C004AC08091A00063
:1043200080688093A0008091A0008F7B8093A00084
:10433000D093A900C093A8003BC08091A0008062E8
:104340008093A000D093AB00C093AA0031C08091AD
:10435000A00088608093A000D093AD00C093AC0013
:1043600027C080912001806880932001D09329018B
:10437000C09328011DC0809120018062809320019C
:10438000D0932B01C0932A0113C080912001886033
:1043900080932001D0932D01C0932C0109C0C03817
:1043A000D1051CF4812F60E002C0812F61E0B7D0FD
:1043B000DF91CF911F910895CF93DF93482F50E065
:1043C000CA0188589E4FFC0134914E5C5E4FFA0141
:1043D0008491882369F190E0880F991FFC01EC51CA
:1043E000FF4FA591B491FC01E250FF4FC591D491CC
:1043F000662351F42FB7F8948C91932F90958923CD
:104400008C93888189230BC0623061F42FB7F894B4
:104410008C91932F909589238C938881832B88830B
:104420002FBF06C09FB7F8948C91832B8C939FBFAE
:10443000DF91CF910895893009F449C08A30A0F402
:10444000843051F1853040F4823079F1833000F5C9
:10445000813009F063C026C0873079F1883098F543
:10446000863009F05BC025C08D3009F442C08E3023
:1044700028F48B30B1F18C30C0F52DC0803109F4B7
:1044800042C0813109F445C08F3009F047C037C0C0
:10449000809180008F7703C0809180008F7D809312
:1044A0008000089584B58F7702C084B58F7D84BD68
:1044B00008958091B0008F7703C08091B0008F7D08
:1044C0008093B0000895809190008F7707C080910D
:1044D00090008F7D03C080919000877F8093900033
:1044E00008958091A0008F7707C08091A0008F7DF4
:1044F00003C08091A000877F8093A00008958091E1
:1045000020018F7703C0809120018F7D809320014F
:10451000089580912001877F809320010895FF9264
:104520000F931F93F62E482F50E0CA0182549E4FDE
:10453000FC012491CA0188589E4FFC0114914E5CE5
:104540005E4FFA0104910023C1F0222311F0822F63
:1045500072DFE02FF0E0EE0FFF1FE250FF4FA5915A
:10456000B4919FB7F894FF2021F48C91109581238A
:1045700002C08C91812B8C939FBF1F910F91FF9054
:1045800008950F931F93482F50E0CA0182549E4F05
:10459000FC012491CA0188589E4FFC0104914E5C95
:1045A0005E4FFA011491112319F420E030E014C099
:1045B000222311F0822F3FDF812F90E0880F991F77
:1045C000885E9E4FFC01A591B4918C9120E030E073
:1045D000802311F021E030E0C9011F910F9108956F
:1045E0000895CF93DF9374DDFBDF0E942316C0E0B4
:1045F000D0E00E9418162097E1F30E940000F9CF46
:104600000895CF92DF92EF92FF920F931F93CF9373
:10461000DF937C016B018A01C0E0D0E00FC0D601BE
:104620006D916D01D701ED91FC910190F081E02D2C
:10463000C7011995C80FD91F015010400115110568
:1046400071F7CE01DF91CF911F910F91FF90EF9005
:10465000DF90CF900895CF93DF93EC016115710542
:1046600019F420E030E00FC0DB010D900020E9F7E5
:104670001197A61BB70BE881F9810280F381E02D29
:10468000AD0119959C01C901DF91CF9108954F9219
:104690005F927F928F929F92AF92BF92CF92DF9262
:1046A000EF92FF920F931F93DF93CF93CDB7DEB7B7
:1046B000A1970FB6F894DEBF0FBECDBF2C01742EAC
:1046C000CB01223008F42AE019A231E2C32ED12C0A
:1046D000CC0EDD1E822E9924AA24BB24672D752FB3
:1046E000A5019401D7D079018A01C801B701A501BC
:1046F00094019ED0472D461B0894C108D1084A302A
:1047000014F4405D01C0495CF6014083E114F104FA
:104710000105110521F07E2C5F2DC801DFCFC201FC
:10472000B60199DFA1960FB6F894DEBF0FBECDBFDC
:10473000CF91DF911F910F91FF90EF90DF90CF907D
:10474000BF90AF909F908F907F905F904F90089513
:10475000DC012115310541F4ED91FC910190F081CE
:10476000E02D642F1995089592CFEF92FF920F9349
:104770001F939A01E62EFF2400E010E0B801A70184
:10478000E7DF1F910F91FF90EF900895CF92DF9296
:10479000EF92FF920F931F93CF93DF93EC016A0187
:1047A0007B012115310541F4E881F9810190F08107
:1047B000E02D642F19951DC02A303105C9F477FF0B
:1047C00016C0E881F9810190F081E02D6DE2199524
:1047D0008C0144275527BA014C195D096E097F09E0
:1047E000CE012AE054DF9801280F391F03C02AE0C8
:1047F0004EDF9C01C901DF91CF911F910F91FF9076
:10480000EF90DF90CF900895EF92FF920F931F9358
:104810007B019A010027F7FC0095102FB801A70132
:10482000B5DF1F910F91FF90EF90089514CF089579
:10483000629FD001739FF001829FE00DF11D649F84
:10484000E00DF11D929FF00D839FF00D749FF00D10
:10485000659FF00D9927729FB00DE11DF91F639FB1
:10486000B00DE11DF91FBD01CF011124089597FB83
:10487000092E07260AD077FD04D02ED006D00020BE
:104880001AF4709561957F4F0895F6F7909581958C
:104890009F4F0895A1E21A2EAA1BBB1BFD010DC05C
:1048A000AA1FBB1FEE1FFF1FA217B307E407F507E0
:1048B00020F0A21BB30BE40BF50B661F771F881FBC
:1048C000991F1A9469F760957095809590959B0152
:1048D000AC01BD01CF010895AA1BBB1B51E107C06C
:1048E000AA1FBB1FA617B70710F0A61BB70B881F80
:1048F000991F5A95A9F780959095BC01CD0108950F
:10490000EE0FFF1F0590F491E02D1994F894FFCF5E
:10491000303030006100202020005F5F5F004D6577
:104920006D6F727920456D707469656421006874DB
:1049300074703A2F2F676F6F2E676C2F6B64596CF2
:104940006A370041726475696E6F20444D582D3589
:10495000313200546573746572202620436F6E7483
:10496000726F6C6C6572004669726D2076002E0065
:10497000486172642076004D656D6F7279204C6FCE
:104980006164656421003E002B002D2D2D002D005B
:1049900020004D656D6F727920436C65616E6564B2
:1049A00021004D656D6F7279205361766564210039
:1049B0004D656D6F7279204F7074696F6E733A0038
:1049C00053617665004C6F616400456D70747900C9
:1049D000436C6561720043616E63656C004C4344D7
:1049E00020436F6E6669673A0041626F75740042DA
:1049F00061636B204C696768743A00436F6E747230
:104A00006173743A0064696D6D657220302D3235C2
:104A100035004374726C00436F6E74726F6C204F7C
:104A20007074696F6E733A00556E697461727900C3
:104A30004D617472697800436861736572004D75E9
:104A40006C7469706C7900436F6E666967004D65C0
:104A50006D6F727900632D2D2D204D656D2043748F
:104A600072202020202D00556E69746172792043D8
:104A70006F6E74726F6C3A004368616E6E656C3A6B
:104A8000203030310056616C75653A0043686173BF
:104A900065724348202D2D2D0044656C61792020DE
:104AA00020207831303D6D53004669727374204385
:104AB00048202020202020204374726C0046696E1C
:104AC000616C2043482020202020202053746172F4
:104AD000740053746F7020005374617274005661D7
:104AE0006C7565004669727374204348202020204D
:104AF00020204374726C004D756C7469706C792061
:104B000020202020204D656D6F7279005175616EF7
:104B1000746974792020202020204170706C790005
:104B20004572726F7221200020202020202020005A
:104B30004F6B2100496E697469616C204D656D6F22
:104B400072793A00010033002D00350031002F004A
:104B50002400220020001E002C002A00280026002D
:104B600011640000004500080009000A000B000C59
:104B7000000D000300040080000F0A000001000087
:104B800000002A1801233B18D917DA170023004028
:104B9000105000401454000000002A1801233B1854
:104BA0009B19BD19EA1800000000A11A711A2A1AEF
:064BB000331A481A591ADD
:00000001FF
