:1000000004C100002FC100002DC100002BC1000061
:1000100029C1000027C1000025C1000023C1000044
:1000200021C100001FC100001DC100001BC1000054
:1000300019C1000017C1000015C1000013C1000064
:1000400011C100000FC100000DC100000BC1000074
:1000500009C1000007C1000005C100000C941F1C6D
:1000600001C100000C941719FDC000000C94B719D1
:10007000F9C00000F7C00000F5C00000F3C00000A8
:10008000F1C00000EFC00000EDC00000EBC00000B8
:10009000E9C00000E7C00000E5C000000C944D1767
:1000A000E1C00000DFC00000DDC00000DBC00000D8
:1000B000D9C00000D7C00000D5C00000D3C00000E8
:1000C000D1C00000CFC00000CDC00000CBC00000F8
:1000D000C9C00000C7C00000C5C00000C3C0000008
:1000E000C1C0000000002100240027002A002D00CC
:1000F0003000330001010000040107010A01000083
:100100002200250028002B002E00310034000201BF
:100110000000050108010B0100002000230026005B
:1001200029002C002F00320000010000030106010D
:10013000090105050505070508080808020202026D
:100140000A0A080804040404010101010101010173
:100150000303030303030303040707070C0C0C0C3E
:100160000C0C0C0C02020202060606060606060627
:100170000B0B0B0B0B0B0B0B0102102020080810B4
:100180002040102040800201020108040201010207
:1001900004081020408080402010080402018004E0
:1001A000020180402010080402010804020101023B
:1001B0000408102040800102040810204080000044
:1001C000090A02080B0C0D070603040100000000D9
:1001D000000000000000000000000000000000001F
:1001E0000000000000000000000011100F000000DF
:1001F00000000000000000000000000000000000FF
:10020000000000003A01BC162F1A11241FBECFEFC8
:10021000D1E2DEBFCDBF00E00CBF14E0A0E0B2E051
:10022000EEE1F1E400E00BBF02C007900D92A639A9
:10023000B107D9F71BBE17E0A6E9B4E001C01D92D3
:10024000AC3FB107E1F712E0CAE0D2E004C0229768
:10025000FE010E948920C430D107C9F70E941F1FE8
:100260000C948D20CDCEDC0101C06D9341505040E7
:10027000E0F70895CF92EF920F938FEE96E06091A2
:100280004A0440914C0420914E0400915004E090A7
:100290005204C09054040E9450160F91EF90CF90DA
:1002A00008953F924F925F926F927F928F929F92AA
:1002B000AF92BF92CF92DF92EF92FF920F931F9374
:1002C00081E18093450455245394B4E04B2EA7E07C
:1002D0003A2EFFE09F2EE2E08E2E75E0772E68E04A
:1002E000662E53E0D52E46E0C42E39E0B32E2EE024
:1002F000A22E1AE00BE09CE0F92E8DE0E82EA8C1BA
:100300008091350460E00E94BD1E80913D040E94F2
:10031000EF1E892B61F45092450460914604709160
:10032000470480914804909149040E94671C65E04D
:1003300070E080E090E00E94671C80913F040E9482
:10034000EF1E892B61F44092450460914604709140
:10035000470480914804909149040E94671C65E01D
:1003600070E080E090E00E94671C809141040E9450
:10037000EF1E892B61F43092450460914604709120
:10038000470480914804909149040E94671C65E0ED
:1003900070E080E090E00E94671C809143040E941E
:1003A000EF1E892B61F49092450460914604709190
:1003B000470480914804909149040E94671C65E0BD
:1003C00070E080E090E00E94671C8091350461E05D
:1003D0000E94BD1E8091370460E00E94BD1E809186
:1003E0003D040E94EF1E892B61F4809245046091C8
:1003F00046047091470480914804909149040E94FA
:10040000671C65E070E080E090E00E94671C8091CE
:100410003F040E94EF1E892B61F4709245046091A5
:1004200046047091470480914804909149040E94C9
:10043000671C65E070E080E090E00E94671C80919E
:1004400041040E94EF1E892B61F460924504609183
:1004500046047091470480914804909149040E9499
:10046000671C65E070E080E090E00E94671C80916E
:1004700043040E94EF1E892B61F4109245046091A1
:1004800046047091470480914804909149040E9469
:10049000671C65E070E080E090E00E94671C80913E
:1004A000370461E00E94BD1E8091390460E00E9423
:1004B000BD1E80913D040E94EF1E892B61F4D092F5
:1004C00045046091460470914704809148049091DE
:1004D00049040E94671C65E070E080E090E00E94A3
:1004E000671C80913F040E94EF1E892B61F4C0922B
:1004F00045046091460470914704809148049091AE
:1005000049040E94671C65E070E080E090E00E9472
:10051000671C809141040E94EF1E892B61F4B09208
:10052000450460914604709147048091480490917D
:1005300049040E94671C65E070E080E090E00E9442
:10054000671C809143040E94EF1E892B61F4A092E6
:10055000450460914604709147048091480490914D
:1005600049040E94671C65E070E080E090E00E9412
:10057000671C8091390461E00E94BD1E80913B049C
:1005800060E00E94BD1E80913D040E94EF1E892BF9
:1005900061F4109345046091460470914704809182
:1005A0004804909149040E94671C65E070E080E077
:1005B00090E00E94671C80913F040E94EF1E892BEF
:1005C00061F4009345046091460470914704809162
:1005D0004804909149040E94671C65E070E080E047
:1005E00090E00E94671C809141040E94EF1E892BBD
:1005F00061F4F09245046091460470914704809143
:100600004804909149040E94671C65E070E080E016
:1006100090E00E94671C809143040E94EF1E892B8A
:1006200061F4E09245046091460470914704809122
:100630004804909149040E94671C65E070E080E0E6
:1006400090E00E94671C80913B0461E00E94BD1E07
:1006500080914504813109F453CE1F910F91FF9091
:10066000EF90DF90CF90BF90AF909F908F907F9052
:100670006F905F904F903F9008950F931F93CF938B
:10068000DF93EC01162F042F8FEE96E00E946F147B
:100690008FEE96E060E072E00E944420CA30D105FF
:1006A0003CF4612F6E5F8FEE96E0402F0E946F1436
:1006B000CE010A978A35910538F4612F6F5F8FEE6E
:1006C00096E0402F0E946F14C436D10534F08FEEAF
:1006D00096E0612F402F0E946F148FEE96E0BE01CE
:1006E0004AE050E00E943220DF91CF911F910F919C
:1006F00008951F9380913B0460E00E94BD1E1FEF90
:100700003EC08091290490912A040197E091C90785
:10071000F091CA07E80FF91F10836091EB0670E0B3
:10072000625070404091EC068FEF90E050E0A5DF02
:1007300064E670E080E090E00E94671C80912904EC
:1007400090912A040197E091C907F091CA07E80F38
:10075000F91F10826091EB0662508FEE96E0409197
:10076000EC060E946F148FEE96E064E072E00E9447
:10077000442064E670E080E090E00E94671C809175
:1007800041040E94EF1E019709F4BBCF80913B0406
:1007900061E00E94BD1E8FEE96E06091EB064091F5
:1007A000EC060E946F141F910895CF92DF92EF9292
:1007B000FF920F931F938C016DE070E040E050E0DA
:1007C0005CDF9EE0C92ED12CC00ED11EC60161E1B6
:1007D00070E040E050E051DF86E9E82E84E0F82E3A
:1007E0000E0D1F1DF801808190E061E070E041E096
:1007F00050E043DFF801818190E065E070E041E086
:1008000050E03BDFF801828190E069E070E041E078
:1008100050E033DFF801838190E06DE070E041E06B
:1008200050E02BDFF801848190E061E170E041E06D
:1008300050E023DFF801858190E061E070E042E064
:1008400050E01BDFF801868190E065E070E042E057
:1008500050E013DFF801878190E069E070E042E04A
:1008600050E00BDFF801808590E06DE070E042E041
:1008700050E003DFF801818590E061E170E042E043
:1008800050E0FBDEF801828590E061E070E043E03B
:1008900050E0F3DEF801838590E065E070E043E02E
:1008A00050E0EBDEF801848590E069E070E043E021
:1008B00050E0E3DEF801858590E06DE070E043E014
:1008C00050E0DBDEEC0CFD1CF701808190E061E183
:1008D00070E043E050E0D1DE1F910F91FF90EF9068
:1008E000DF90CF900895FF920F931F93CF93DF93E4
:1008F000F82E8FEE96E06091EB064091EC060E9498
:100900006F148FEE96E068E072E00E9444208FEE54
:1009100096E00E9459141092EE061092ED06609136
:10092000EB066E5F6093EB068FEE96E04091EC066F
:100930000E946F14B6DC609145046A3018F000E044
:1009400010E016C08FEE96E04AE050E00E94E31FF0
:100950008FEE96E06091EB064091EC060E946F14DA
:1009600080914504082F10E01093EE060093ED06E9
:10097000809145048E3009F4CEC091E0F91649F417
:100980008A3009F465C08B3009F46BC08C3009F4EF
:100990006FC087DC809145048E3029F41093EE06F9
:1009A0000093ED06B8C091E0F91649F48A3009F4D5
:1009B0004FC08B3009F455C08C3009F459C08A30CF
:1009C00018F0C0E0D0E029C06091EB066150609360
:1009D000EB068FEE96E04091EC060E946F148FEECE
:1009E00096E0B8014AE050E00E9432208FEE96E097
:1009F000609145044AE050E00E94E31F8091450465
:100A0000C82FD0E06091EB066F5F6093EB068FEE2E
:100A100096E04091EC060E946F1443DC80914504FF
:100A20008E3089F4C80173E0880F991F7A95E1F739
:100A3000000F111F800F911FC80FD91FD093EE0612
:100A4000C093ED0668C091E0F916C9F48A3039F414
:100A50008FEF90E09093EE068093ED065CC08B30B4
:100A600029F41092EE061092ED0655C08C3039F440
:100A700084E692E09093EE068093ED0668C08A309B
:100A800008F049C06091EB0662506093EB068FEE70
:100A900096E04091EC060E946F148FEE96E0B8014C
:100AA0004AE050E00E9432208FEE96E0BE014AE01C
:100AB00050E00E9432206091EB066E5F6093EB067F
:100AC0008FEE96E04091EC060E946F148FEE96E058
:100AD000609145044AE050E00E94E31F84E690E004
:100AE000089F9001099F300D189F300D11248091AF
:100AF0004504280F311DCE0153E0880F991F5A95E8
:100B0000E1F7CC0FDD1F8C0F9D1F280F391F30938D
:100B1000EE062093ED068FEE96E00E946114609140
:100B2000EB0670E0625070404091EC068091ED065B
:100B30009091EE0650E0A1DD6091EB066450609369
:100B4000EB068FEE96E04091EC060E946F148FEE5C
:100B500096E00E9461148FEE96E06091EB06409162
:100B6000EC060E946F146CE271E080E090E00E945D
:100B7000671CDF91CF911F910F91FF900895CF9344
:100B8000DF938FEE96E00E9497148FEE96E061E17E
:100B900041E00E946F14C0E0D0E0FE01EA56FB4F36
:100BA0001082E091C907F091CA07EC0FFD1F108277
:100BB0008FEE96E0BE0142E050E00E943220219686
:100BC00082E0C130D80749F78FEE96E00E94971473
:100BD0008FEE96E063E041E00E946F148FEE96E0A6
:100BE0006CE072E00E94442068EE73E080E090E0E8
:100BF0000E94671CDF91CF910895CF93DF938FEE12
:100C000096E00E9497148FEE96E00E9461148FEE9A
:100C100096E060E040E00E946F14C0E0D0E08FEE0C
:100C200096E0BE0142E050E00E943220219682E030
:100C3000C130D807A1F78FEE96E00E9497148FEE8F
:100C400096E060E043E00E946F148FEE96E06CE166
:100C500072E00E9444208FEE96E063E040E00E9444
:100C60006F148FEE96E061E372E00E9444208FEEF5
:100C700096E061E041E00E946F148FEE96E061E43F
:100C800072E00E9444208FEE96E060E042E00E9415
:100C90006F148FEE96E065E572E00E9444208FEEBF
:100CA00096E060E04AE050E00E94E31F8FEE96E09D
:100CB0006CE572E00E9444208FEE96E063E04AE02B
:100CC00050E00E94E31F8FEE96E06BE042E00E944E
:100CD0006F148FEE96E06EE572E00E9444208FEE76
:100CE00096E060E04AE050E00E94E31F8FEE96E05D
:100CF0006CE572E00E9444208FEE96E060E04AE0EE
:100D000050E00E94E31F60ED77E080E090E00E94F9
:100D1000671CDF91CF910895CF93DF938FEE96E01C
:100D20000E9497148FEE96E061E141E00E946F14FB
:100D3000C1E0D0E086EC97E0BE010E94E218FE011F
:100D4000EA56FB4F80832197E091C907F091CA07CB
:100D5000EC0FFD1F219680838FEE96E0BE0142E0EE
:100D600050E00E943220219682E0C130D80711F76E
:100D70008FEE96E00E9497148FEE96E063E041E0DC
:100D80000E946F148FEE96E065E672E00E944420A8
:100D900068EE73E080E090E00E94671CDF91CF91E5
:100DA0000895CF93DF938FEE96E00E9497148FEE15
:100DB00096E061E141E00E946F14C0E0D0E0FE01E6
:100DC000EA56FB4F1082E091C907F091CA07EC0F79
:100DD000FD1F108286EC97E0BE0140E00E94E918FA
:100DE0008FEE96E0BE0142E050E00E943220219654
:100DF00082E0C130D80719F78FEE96E00E94971471
:100E00008FEE96E063E041E00E946F148FEE96E073
:100E100064E772E00E94442068EE73E080E090E0B6
:100E20000E94671CDF91CF910895CF93DF938FEEDF
:100E300096E00E9497148FEE96E061E141E00E94F7
:100E40006F14C1E0D0E0FE01EA56FB4F86EC97E05C
:100E5000BE0140810E94E9188FEE96E0BE0142E09B
:100E600050E00E943220219682E0C130D80759F725
:100E70008FEE96E00E9497148FEE96E063E041E0DB
:100E80000E946F148FEE96E064E872E00E944420A6
:100E900068EE73E080E090E00E94671CDF91CF91E4
:100EA000089586EC97E061E072E00E94E218682FF6
:100EB00080910607882361F46623A9F48091560483
:100EC0006FE770E00E942C1D81E080930607089573
:100ED000813069F48091560460E070E00E942C1D1E
:100EE0001092060708958091560470E0EBCF0895A4
:100EF0002F923F924F925F926F927F928F929F922A
:100F0000AF92BF92CF92DF92EF92FF920F931F9317
:100F1000DF93CF93CDB7DEB763970FB6F894DEBFFC
:100F20000FBECDBF89837B8B6A8B00919906109190
:100F30009A068FEE96E0602F412F0E946F148FEE7D
:100F400096E062E972E00E9444208A899B890D96AE
:100F50009B838A83EA89FB893896FD83EC838A899F
:100F60009B8903969F838E83EA89FB893E96F98746
:100F7000E8878A899B8909969B878A87EA89FB8902
:100F80003496FD87EC879AE0292E312C8A899B893B
:100F9000280E391E0B969F878E87EA89FB893C961F
:100FA000F98BE88B87E0882E912C8A899B89880EA3
:100FB000991EB6E06B2E712C680E791EA5E04A2EA4
:100FC000512C480E591E6C010894C11CD11CF2E032
:100FD000AF2EB12CA80EB91EE4E1EE2EF12C8091BB
:100FE000350460E00E94BD1E809143040E94EF1E04
:100FF000892B59F46091460470914704809148040C
:10100000909149040E94671C4CDF8091350461E097
:101010000E94BD1E80912F040E94EF1E892BF9F4BF
:101020006CE271E080E090E00E94671C20919906DC
:1010300080919A0690E08E9DA0018F9D500D9E9DFF
:10104000500D1124222309F424E12150FA01E20F6A
:10105000F11DE556F94F80818130A1F724C08091C0
:1010600031040E94EF1E892B09F56CE271E080E0EB
:1010700090E00E94671C2091990680919A0690E06A
:101080008E9DA0018F9D500D9E9D500D11242F5FB0
:10109000243108F020E0FA01E20FF11DE556F94F86
:1010A00080818130A1F7209399064EC180912D0453
:1010B0000E94EF1E892B09F56CE271E080E090E060
:1010C0000E94671C20919A0680919906482F50E053
:1010D0002F5F243008F020E0822F90E08E9DF001F9
:1010E0008F9DF00D9E9DF00D1124E40FF51FE55628
:1010F000F94F8081813061F726C080912B040E94D6
:10110000EF1E892B19F56CE271E080E090E00E94FF
:10111000671C20919A0680919906482F50E022235F
:1011200009F424E02150822F90E08E9DF0018F9DE4
:10113000F00D9E9DF00D1124E40FF51FE556F94FBB
:101140008081813061F720939A06FEC0809133043C
:101150000E94EF1E892B09F042CF6CE271E080E023
:1011600090E00E94671C40919A0660919906842F36
:1011700090E08E9DF0018F9DF00D9E9DF00D11244D
:10118000E60FF11DE556F94F8081813009F0FAC074
:101190008FEE96E00E946F148FEE96E064E972E0A5
:1011A0000E94442082E0C8C0909199069C3031F49E
:1011B00080919A06882309F048C01FC0903181F4BD
:1011C00080919A06882309F049C08FEE96E061E08D
:1011D00040E00E946F148FEE96E066E972E0A9C0CD
:1011E000943029F480919A068823F9F406C0983047
:1011F00089F480919A06882301F58FEE96E061E0EC
:1012000040E00E946F148FEE96E066E972E00E9463
:10121000442085C0992339F480919A06813039F5AC
:101220008A899B8977C0943031F480919A06813005
:10123000E1F4C6016FC0983031F480919A06813094
:10124000E1F4C50167C09C3039F480919A06813081
:1012500031F58E819F815EC0903139F480919A067C
:10126000813031F58C859D8555C0992331F480916D
:101270009A06823031F5C2014DC0943031F480912C
:101280009A06823031F5C30145C0983031F480911F
:101290009A06823039F5C4013DC09C3039F4809102
:1012A0009A06823041F58C819D8134C0903139F4A9
:1012B00080919A06823041F58A859B852BC09923BF
:1012C00031F480919A06833051F5C10123C09430E6
:1012D00039F480919A06833011F58E859F851AC066
:1012E000983039F480919A068330C9F488899989B5
:1012F00011C09C3039F480919A06833081F48A8140
:101300009B8108C0903159F480919A06833039F45A
:101310008885998561E070E040E050E0AED98FEEBD
:1013200096E060E140E00E946F148FEE96E06AE97B
:1013300072E00E94442081E00091990610919A0683
:10134000823009F04CCE1FC08FEE96E0602F412F07
:101350000E946F148FEE96E06CE972E00E944420C8
:101360008FEE96E06091990640919A060E946F1464
:101370008FEE96E062E972E00E94442099819130FC
:10138000D1F612CFFFCF63960FB6F894DEBF0FBE33
:10139000CDBFCF91DF911F910F91FF90EF90DF9024
:1013A000CF90BF90AF909F908F907F906F905F9005
:1013B0004F903F902F9008958FEE96E00E949714E3
:1013C0008FEE96E060E040E00E946F148FEE96E0B2
:1013D0006EE972E00E9444208FEE96E061E042E008
:1013E0000E946F148FEE96E06EEA72E00E94442035
:1013F0008FEE96E061E043E00E946F148FEE96E07E
:1014000063EB72E00E9444208FEE96E067E042E0DA
:101410000E946F148FEE96E068EB72E00E94442009
:101420008FEE96E067E043E00E946F148FEE96E047
:101430006EEB72E00E9444208FEE96E06EE043E097
:101440000E946F148FEE96E064EC72E00E944420DC
:101450001092990682E080939A06EBE9F6E0DF01AC
:1014600098961082148A1C9254961C925497319626
:10147000119686E0EF3AF807A1F781E0848B80A708
:1014800086A7828F85AB80E060E070E031DD8091DF
:101490009906882329F480919A06833009F43CDC6C
:1014A00080919906863029F480919A06833009F458
:1014B00078DC80919906882329F480919A068230FD
:1014C00009F4B3DC80919906863029F480919A065C
:1014D000823009F454CB0895EF92FF920F931F933B
:1014E000CF93DF933EE0E32E01E02FE0F22ECFEF2B
:1014F000D0E086EC97E061E072E00E94E218182FDD
:101500008FEE96E00E9497148FEE96E060E040E048
:101510000E946F148FEE96E06BEC72E00E94442004
:101520008FEE96E060E042E00E946F148FEE96E04E
:1015300063ED72E00E944420812F90E06FE070E044
:1015400042E050E09AD88FEE96E060E043E00E94DF
:101550006F148FEE96E062EE72E00E9444208FEEF0
:1015600096E06FE043E00E946F148FEE96E06FEE1E
:1015700072E00E9444208FEE96E06FE040E00E940F
:101580006F148FEE96E064EF72E00E944420E092C8
:10159000990682E080939A06EBE9F6E0DF019896DF
:1015A0001082148A1C9254961C925497319611966C
:1015B00086E0EF3AF807A1F702A306AB0093A9066D
:1015C00080E060E070E094DC809199068E30D9F57F
:1015D00080919A068230B9F58093EC06F092EB0682
:1015E00081E081D98091ED069091EE068F3F9105C3
:1015F00061F05CF0D093EE06C093ED068FEF90E0C3
:1016000060E170E042E050E038D886EC97E061E0BD
:1016100072E04091ED060E94E9186091ED0670912C
:10162000EE06809156040E942C1D8091ED0690914B
:10163000EE06009719F41092060705C01816190651
:1016400014F400930607809199068E3029F4809156
:101650009A06833009F418D0809199068E3009F0EB
:10166000AFCF80919A06882309F0AACFC6DA80917D
:1016700033040E94EF1E0197D1F36CE271E080E029
:1016800090E00E94671C35CF8FEE96E00E94971481
:101690008FEE96E060E040E00E946F148FEE96E0DF
:1016A0006AEF72E00E9444208FEE96E062E042E032
:1016B0000E946F148FEE96E06BE073E00E9444206E
:1016C0008FEE96E062E043E00E946F148FEE96E0AA
:1016D00063E173E00E9444208FEE96E06CE042E00C
:1016E0000E946F148FEE96E06AE173E00E9444203E
:1016F0008FEE96E06CE043E00E946F148FEE96E070
:1017000061E273E00E9444208FEE96E06CE041E0DD
:101710000E946F148FEE96E06AE273E00E9444200C
:101720008FEE96E062E041E00E946F148FEE96E04B
:1017300061E373E00E94442081E08093990682E097
:1017400080939A06EBE9F6E0DF0198961082148AFE
:101750001C9254961C9254973196119686E0EF3A5B
:10176000F807A1F781E0858B81A7878F83AB8387FB
:10177000818380E060E070E0BBDB8091990681307E
:1017800029F480919A06823009F42CD2809199062E
:10179000813029F480919A06833009F426D0809113
:1017A00099068B3029F480919A06823009F43CD353
:1017B000809199068B3029F480919A06833009F440
:1017C0001CD5809199068B3029F480919A0681303E
:1017D00009F482DE80919906813031F480919A0675
:1017E000813011F4E9DD50CF08952F923F924F924E
:1017F0005F926F927F928F929F92AF92BF92CF92A1
:10180000DF92EF92FF920F931F93DF93CF93CDB7A9
:10181000DEB760970FB6F894DEBF0FBECDBF81E094
:1018200090E090932A0480932904988B8F8711E08D
:101830000DE004C021E030E0388B2F878FEE96E07A
:101840000E9497148FEE96E060E040E00E946F14D3
:101850008FEE96E068E373E00E9444208F859889BC
:101860000E94D5033CE03093990610929A06EBE96A
:10187000F6E0DF0198961082148A1C9254961C920E
:1018800054973196119686E0EF3AF807A1F7109336
:101890009F061093A3061093A7061093AB06108320
:1018A000148310871487108B148B108F148F10A340
:1018B00014A310A714A710AB14AB10AFEF85F889D1
:1018C0003B96FA83E9832F8538892A5F3F4F3C8313
:1018D0002B838F85988901969E838D83EF85F88968
:1018E0003C96F887EF832F853889295F3F4F3A87E9
:1018F00029878F85988902969C878B87EF85F88941
:101900003D96FE87ED87A8E02A2E312C2F85388959
:10191000220E331EF3E04F2E512C420E531EEEE0EA
:101920006E2E712C620E731E79E0872E912C820E22
:10193000931E64E0A62EB12CA20EB31E5AE0C52E53
:10194000D12CC20ED31E45E0E42EF12CE20EF31E84
:1019500081E06F857889CCDA90919906943039F4DA
:1019600080919A06882309F064C026DD67CF9830FD
:1019700039F480919A06882309F064C085DE5ECF31
:101980009C3049F580919A06882309F068C010922E
:10199000EC060093EB060E9473048091ED06909193
:1019A000EE06835F914034F082EF91E09093EE0673
:1019B0008093ED068091ED069091EE06892B31F42F
:1019C000E1E0F0E0F093EE06E093ED062091ED0605
:1019D0003091EE0631CF903109F580919A06882337
:1019E00009F048C01092EC0631E13093EB060E94FA
:1019F00073046091ED067091EE0682E06130780725
:101A00002CF0E2EFF1E0F88BEF8718CF6F30710523
:101A10000CF410CF9B012E5030400ECF992339F497
:101A200080919A06813089F5EF85F88911C094304C
:101A300039F480919A06813099F52D813E817BC0E1
:101A4000983059F480919A06813099F5EB85FC85A0
:101A5000F0932A04E09329047DC09C3049F48091DE
:101A60009A06813079F550922A044092290472C076
:101A7000903149F480919A06813079F5B0922A0428
:101A8000A092290467C0992349F480919A06823074
:101A900079F5F0922A04E09229045CC0943039F47C
:101AA00080919A06823079F52B813C8144C0983030
:101AB00039F480919A06823079F5E985FA85C8CFA4
:101AC0009C3049F480919A06823079F530922A044C
:101AD000209229043FC0903149F480919A068230C7
:101AE00089F590922A048092290434C0992349F4FC
:101AF00080919A06833071F5D0922A04C09229040D
:101B000029C0943039F480919A06833019F52981DF
:101B10003A8111C0983039F480919A068330D1F41B
:101B2000EF81F88595CF9C3059F480919A068330E7
:101B300089F42D853E8530932A04209329040AC018
:101B4000903141F480919A06833021F470922A04F6
:101B50006092290480919A068093EC069F5F90938F
:101B6000EB0681E00E9473048091ED069091EE06F1
:101B70008456924039F40E9479038091EB06845098
:101B80008093EB068091ED069091EE068F3F9105D4
:101B900089F084F08FEF90E09093EE068093ED064D
:101BA0006091EB0670E06E5F7F4F4091EC0650E075
:101BB0000E943D038091290490912A040197E091AD
:101BC000C907F091CA07E80FF91F8091ED068083DD
:101BD000E0912904F0912A04EA56FB4F8091ED062A
:101BE0008083B6CEAF92BF92CF92DF92EF92FF92F8
:101BF0000F931F93CF93DF93C1E0D0E098E0A92E1D
:101C000001E089E0B82EE12C12E0F12EBFEFCB2EDF
:101C1000D12CD0932A04C09329048FEE96E087D666
:101C20008FEE96E060E040E05AD68FEE96E06AE4F0
:101C300073E00E9444208FEE96E06EE042E04FD6C3
:101C40008FEE96E06FEE72E00E9444208FEE96E0F9
:101C50006EE043E044D68FEE96E061E373E00E94CD
:101C600044208FEE96E060E042E039D68FEE96E0B9
:101C70006BE573E00E9444208FEE96E062E043E063
:101C80002ED68FEE96E068E673E00E9444208091A5
:101C9000970490E069E070E043E050E00E943D036B
:101CA000A092990682E080939A06EBE9F6E0DF01C4
:101CB00098961082148A1C9254961C9254973196CE
:101CC000119626E0EF3AF207A1F7048F00AB01A3CB
:101CD00005AB80E060E070E00BD980919906883018
:101CE00009F04EC010919A06123009F049C0809157
:101CF000290490912A0469E070E042E050E00E94DB
:101D00003D031093EC06B092EB0680E00E94730452
:101D10008091ED069091EE068150924064F0F09231
:101D2000EE06E092ED0680E092E069E070E042E0CD
:101D300050E00E943D038091ED069091EE0618164A
:101D4000190664F0D093EE06C093ED0681E090E0B2
:101D500069E070E042E050E00E943D03E091ED0652
:101D6000F091EE06F0932A04E0932904EA56FB4F23
:101D7000808190E069E070E043E050E00E943D0324
:101D800080919906883009F041C080919A0683308D
:101D900009F09FCF8093EC06B092EB0681E00E94A1
:101DA00073048091ED069091EE068456924011F4F2
:101DB0000E9479038091ED069091EE068F3F910588
:101DC00069F064F0D092EE06C092ED068FEF90E0DD
:101DD00069E070E043E050E00E943D0380912904F7
:101DE00090912A040197E091C907F091CA07E80F82
:101DF000F91F8091ED068083E0912904F0912A0477
:101E0000EA56FB4F8091ED06808363CF8D3009F059
:101E100060CF80919A06833011F4CEDAFACE823008
:101E200009F057CF31DC55CF2F923F924F925F92FE
:101E30006F927F928F929F92AF92BF92CF92DF92DA
:101E4000EF92FF920F931F93DF93CF93CDB7DEB73F
:101E500028970FB6F894DEBF0FBECDBF8FEE96E089
:101E600066D58FEE96E060E040E039D58FEE96E0E3
:101E70006FE673E00E9444208FEE96E063E041E05D
:101E80002ED58FEE96E06CE773E00E9444208FEE33
:101E900096E060E042E023D58FEE96E06CE873E0D8
:101EA0000E9444208FEE96E060E043E018D58FEE6C
:101EB00096E060EA73E00E94442081E090E069E0EF
:101EC00070E041E050E00E943D0381E090E069E075
:101ED00070E042E050E00E943D0380E090E069E065
:101EE00070E043E050E00E943D0388E08093990653
:101EF00081E080939A0621E030E040E050E02983C1
:101F00003A834B835C8371E0872E912CA12CB12CFA
:101F1000442455243201EBE9F6E0DF019896108263
:101F2000148A1C9254961C9254973196119636E05E
:101F3000EF3AF307A1F741E04087448F40AB42A35B
:101F400046AB80E060E070E00E94780780919906DF
:101F50008E3029F480919A06823009F495DB8091C5
:101F600099068E3009F0A6C080919A06833009F058
:101F7000BCC08D829E828FEE96E06FE043E0AFD4CE
:101F80008FEE96E065EB73E00E94442080E090E0E5
:101F9000FC01EA56FB4F1082E091C907F091CA0795
:101FA000E80FF91F1082019652E08130950781F702
:101FB0008D819E819C01690166E9262E64E0362EA2
:101FC000280C391C59C08F819885019698878F837A
:101FD0008451954009F055C00894E11CF11C011D85
:101FE000111D29813A814B815C81E216F3060407B9
:101FF000150709F044C0C601AA2797FDA095BA2F7E
:10200000481659066A067B0624F48D819E819C0140
:102010006901C60169E070E040E050E00E943D03C4
:10202000D101A50194010EC0C9010197E091C90732
:10203000F091CA07E80FF91F10821D922F5F3F4FE2
:102040004F4F5F4F42165306640675066CF70894AF
:10205000C108D108E091C907F091CA07EC0DFD1D38
:102060000894C11CD11C3FEF3083F601EA56FB4FA8
:1020700030830894C11CD11CEE24FF2487011886EC
:102080001F82809133040E94EF1E019709F49BCFB9
:102090008FEE96E06FE043E022D48FEE96E06BEB9C
:1020A00073E00E9444206CE271E080E090E00E94C6
:1020B000671C31CF8830C9F480919A068130A9F429
:1020C0008093EC0649E04093EB0680E00E947304A5
:1020D0008091ED069091EE069C01442737FD4095D6
:1020E000542F29833A834B835C83809199068830EF
:1020F000F1F580919A068230D1F58093EC0639E0B3
:102100003093EB0680E00E9473048091ED0690917D
:10211000EE064C01AA2497FCA094BA2C81149104D9
:10212000A104B10471F481E090E069E070E042E064
:1021300050E00E943D0351E0852E912CA12CB12C42
:1021400016C041E0841642E0940640E0A40640E058
:10215000B4066CF080E092E069E070E042E050E0AC
:102160000E943D03812C42E0942EA12CB12C809141
:102170009906883009F0CFCE80919A06833009F015
:10218000CACE8093EC0659E05093EB0680E00E94A3
:1021900073048091ED069091EE062C01662457FCA5
:1021A0006094762C411451046104710471F481E04F
:1021B00090E069E070E043E050E00E943D0331E0D0
:1021C000432E512C612C712CA6CE81E0481682E062
:1021D000580680E0680680E078060CF49CCE80E02B
:1021E00092E069E070E043E050E00E943D03412C42
:1021F00022E0522E612C712C8ECE2F923F924F9264
:102200005F926F927F928F929F92AF92BF92CF9286
:10221000DF92EF92FF920F931F93DF93CF93CDB78F
:10222000DEB728970FB6F894DEBF0FBECDBF81E0B2
:1022300090E098878F83662477244301AA24BB24E7
:102240006501AFEFB0E0BA83A9838FEE96E06FD35C
:102250008FEE96E063E040E042D38FEE96E061ECD3
:1022600073E00E9444208FEE96E060E041E037D3B7
:102270008FEE96E067EC73E00E9444208FEE96E0CC
:1022800060E042E02CD38FEE96E06AED73E00E94AE
:1022900044208FEE96E060E043E021D38FEE96E09D
:1022A0006FEE73E00E94442089819A8169E070E0BA
:1022B00040E050E00E943D038F81988569E070E026
:1022C00041E050E00E943D03C30169E070E042E05C
:1022D00050E00E943D03C50169E070E043E050E03A
:1022E0000E943D03B8E0B093990610929A06EBE97C
:1022F000F6E0DF0198961082148A1C9254961C9284
:1023000054973196119626E0EF3AF207A1F781E053
:10231000808780AB848F858781A385AB8093A3065C
:1023200080E060E070E00E947807809199068D302F
:1023300029F480919A06813009F4A6D980919906F2
:102340008D3009F08EC080919A06823011F434D815
:102350007CCF833009F0B9C0C601B501A401930157
:102360000E944620615072408040904054F08FEEB1
:1023700096E06DE040E0B3D28FEE96E063E074E06B
:102380006DC08FEE96E06DE040E0A9D28FEE96E052
:102390006BE074E00E94442011E0E12EF12C012D4D
:1023A000112D8F819885AA2797FDA095BA2F8B8331
:1023B0009C83AD83BE8343C091E0E916F10401051F
:1023C000110509F030C12B803C804D805E80A1E07A
:1023D0002A16A2E03A06A0E04A06A0E05A0634F027
:1023E0002618370848085908860175018FEE96E0CF
:1023F00061E140E074D28FEE96E0B201A1012AE0E3
:1024000030E00E94F41F65E070E080E090E00E9400
:10241000671CC10101972091C9073091CA07280F95
:10242000391F8981F901808391012A563B4FE98147
:10243000D901EC930894E11CF11C011D111DAE148F
:10244000BF04C006D1060CF0B7CF8FEE96E06DE06A
:1024500040E045D28FEE96E063E174E00E944420B4
:1024600046CF883091F580919A06813071F580933E
:10247000EC06F9E0F093EB0680E00E947304809193
:10248000ED069091EE0698878F83892B69F481E0A1
:1024900090E069E070E041E050E00E943D03A1E07F
:1024A000B0E0B887AF8311C0EF81F885E150F2400A
:1024B00064F080E092E069E070E041E050E00E946A
:1024C0003D0380E092E098878F8380919906883061
:1024D000F1F580919A068230D1F58093EC0699E06F
:1024E0009093EB0680E00E9473048091ED0690913A
:1024F000EE063C01882477FC8094982C61147104CA
:102500008104910471F481E090E069E070E042E0C0
:1025100050E00E943D03B1E06B2E712C812C912C78
:1025200016C0A1E06A16A2E07A06A0E08A06A0E042
:102530009A066CF080E092E069E070E042E050E0E2
:102540000E943D03612CA2E07A2E812C912C809177
:1025500099068830F1F580919A068330D1F5809301
:10256000EC06B9E0B093EB0680E00E947304809122
:10257000ED069091EE065C01CC24B7FCC094DC2CF7
:10258000A114B104C104D10471F481E090E069E0C8
:1025900070E043E050E00E943D03F1E0AF2EB12C2B
:1025A000C12CD12C16C0E1E0AE16E2E0BE06E0E0A0
:1025B000CE06E0E0DE066CF080E092E069E070E0DC
:1025C00043E050E00E943D03A12CE2E0BE2EC12C6E
:1025D000D12C80919906883009F089CE80919A0695
:1025E000882309F084CE1092EC06F9E0F093EB0614
:1025F00081E00E9473048091ED069091EE069A832B
:1026000089838F3F910509F00CF471CE8FEF90E034
:1026100069E070E040E050E00E943D03AFEFB0E0C1
:10262000BA83A98364CE260C371C481C591CCFCE14
:102630008FEE96E07CD18FEE96E060E040E04FD1E7
:102640008FEE96E067E174E00E9444208FEE96E002
:1026500062E042E044D18FEE96E068EB72E00E94C7
:1026600044208FEE96E069E042E039D18FEE96E0AB
:1026700063EB72E00E9444208FEE96E06FE042E050
:102680002ED18FEE96E06EEB72E00E94442081E046
:102690008093990682E080939A06EBE9F6E0DF01E9
:1026A00098961082148A1C9254961C9254973196D4
:1026B000119686E0EF3AF807A1F781E0858B848FC9
:1026C00082A380E060E070E00E9478078091990624
:1026D000883041F480919A06823021F40E948C0661
:1026E0000E94440B809199068E3041F480919A06A5
:1026F000823021F40E94D1060E94440B80919906F9
:10270000813031F480919A06823011F40C94440B9C
:1027100008951F9386EC97E061E072E053D5182F7F
:1027200080915604612F70E00E942C1D112319F432
:102730001092060703C081E0809306071F91089559
:1027400082E061E00E94BD1EE4DF0E94FD0570CFC3
:102750008091270461E00E940A1E80912B0462E0B0
:102760000E940A1E80912D0462E00E940A1E809140
:102770002F0462E00E940A1E8091310462E00E94F0
:102780000A1E8091330462E00E940A1E8091350483
:1027900061E00E940A1E8091370461E00E940A1ED7
:1027A0008091390461E00E940A1E80913B0461E03F
:1027B0000E940A1E80913D0462E00E940A1E8091E0
:1027C0003F0462E00E940A1E8091410462E00E9480
:1027D0000A1E8091430462E00E940A1E8091350423
:1027E00061E00E94BD1E8091370461E00E94BD1E21
:1027F0008091390461E00E94BD1E80913B0461E03C
:102800000E94BD1E80914A0461E00E940A1E8091D0
:102810004C0461E00E940A1E8091540461E00E9411
:102820000A1E8091520461E00E940A1E80915004A9
:1028300061E00E940A1E80914E0461E00E940A1E1F
:102840008091560461E00E940A1E8FEE96E064E1DA
:1028500044E020E072D081E090E09093DF07809325
:10286000DE0780E092E09093DB078093DA0787EC45
:1028700097E060E00BC608950895FC011382128270
:1028800082E694E0918380830895FC01A081B18168
:1028900018962D913C9119976FEFF90119950895AC
:1028A000DC01ED91FC910284F385E02D40E0199567
:1028B0000895FC016581862F816085836960CF0161
:1028C000EFCFFC0165816E7F65836860E9CFFC0115
:1028D0006581862F846085836C60CF01E1CFDC0148
:1028E00017969C911797491710F0492F4150189649
:1028F0008C911897803139F4943029F4E42FF0E06A
:10290000E259FB4F04C0E42FF0E0EE58FB4F80810A
:10291000680F6068CD01C4CFDC01ED91FC910284A9
:10292000F385E02D41E0199581E090E0089561E0A4
:10293000B7DF80ED97E00C94C01CCF93DF93EC01E0
:10294000423018F08C8188608C834F836887222303
:1029500029F0413019F48C8184608C8364E670E046
:1029600080E090E0B4D76C8164FD2EC0E881F981ED
:102970000284F385E02DCE0163E042E0199584E9FD
:1029800091E1FED7E881F9810284F385E02DCE0143
:1029900063E042E0199584E991E1F2D7E881F98199
:1029A0000284F385E02DCE0163E042E0199586E9CB
:1029B00090E0E6D7E881F9810284F385E02DCE012D
:1029C00062E042E0199511C06062CE0169DF84E9DE
:1029D00091E1D6D76C816062CE0162DF86E990E03A
:1029E000CFD76C816062CE015BDF6C816062CE010B
:1029F00057DF84E08D83CE016ADFCE0198DF82E06D
:102A00008E83CE0166E04CDFCE013FDFDF91CF91B8
:102A100008950F931F938C01FC01858561E00E944E
:102A2000BD1EF801858560E00E94BD1E1F910F91BB
:102A30000895BF92CF92DF92EF92FF920F931F9370
:102A4000CF93DF93D82EC92EB42E282F392FC9014A
:102A50008C01C0E0D0E0E62EFF240DC0B7010C2EA3
:102A600002C0759567950A94E2F76170F801858553
:102A70000E94BD1E21960F5F1F4FCB1578F38D2D41
:102A80009C2DC7DFDF91CF911F910F91FF90EF90A9
:102A9000DF90CF90BF9008950F931F93CF93DF9354
:102AA000EC01162F042F60E0413009F461E08B85C2
:102AB0000E94BD1E8C858F3F19F060E00E94BD1EF4
:102AC000023089F08C8184FF04C0CE01612F48E080
:102AD0000DC0612F70E084E0759567958A95E1F7E8
:102AE000CE0144E0A6DFCE01612F44E0A2DFDF91FA
:102AF000CF911F910F9108956F927F928F92AF9215
:102B0000CF92EF920F931F93DF93CF93CDB7DEB7A2
:102B10003C01162F8E2DF301438724870587E68617
:102B2000C786A08A818A9E85928B9F85938B988980
:102B3000948B9989958B61E00E940A1EF301878529
:102B400061E00E940A1EF301808961E00E940A1E72
:102B5000F301818961E00E940A1E1123A1F4F301AF
:102B6000828961E00E940A1EF301838961E00E946C
:102B70000A1EF301848961E00E940A1EF30185891F
:102B800061E00E940A1EF301838561E00E940A1E33
:102B9000F30184858F3F19F061E00E940A1EF30162
:102BA000858561E00E940A1E112319F0F301148249
:102BB00003C080E1F3018483F301838560E00E9418
:102BC000BD1EF301858560E00E94BD1EF301848572
:102BD0008F3F19F060E00E94BD1E8FEFF301868BDE
:102BE00012861186CF91DF911F910F91EF90CF90B8
:102BF000AF908F907F906F900895DF92EF92FF9249
:102C00000F931F938C01D62E7A01862F61E00E94CC
:102C10000A1ED8015696DC9256971A96FC92EE92AE
:102C20001997ED91FC910084F185E02DC80160E0D9
:102C300019951F910F91FF90EF90DF900895DC019F
:102C4000362F56962C9156972F3F49F1E22FF0E000
:102C5000E254FE4FE491EE2379F019968D919C9108
:102C60001A97892B19F4822F70E005C06FEF70E07E
:102C7000631B7109822FF0C619968D919C911A974A
:102C8000662319F0892B39F402C0019721F4822FB1
:102C900061E00C94BD1E822F60E00C94BD1E08956F
:102CA0006F927F928F92AF92BF92CF92DF92EF920C
:102CB000FF920F931F933C01162FF42ED22EB02EAD
:102CC000AE2C8C2CDADD8AE794E0D3018D939C93B3
:102CD00000D00F92EDB7FEB73196ADB7BEB71196E3
:102CE0001C92118212821382C30161E0412F2FEFE7
:102CF0000F2DED2CCB2C00DF0F900F900F900F902D
:102D00001F910F91FF90EF90DF90CF90BF90AF9009
:102D10008F907F906F9008952091280730E08091E8
:102D20002707281B3109C901089540912707809181
:102D30002807481718F02FEF3FEF0AC0E42FF0E004
:102D4000E95FF84F8081282F30E04F5F40932707DD
:102D5000C9010895E091270780912807E81718F026
:102D6000EFEFFFEF06C0F0E0E95FF84F8081E82F5A
:102D7000F0E0CF010895089510924F0710924E078A
:102D800088EE93E0A0E0B0E0809350079093510765
:102D9000A0935207B09353078AE894E090934D07AD
:102DA00080934C070895CF92DF92EF92FF920F939A
:102DB0001F93CF93DF937C016B018A0180914B07B6
:102DC0008823A1F0C0E0D0E00DC0D701ED91FC91C7
:102DD000D601AC0FBD1F0190F081E02DC7016C91B1
:102DE00019952196C017D10780F303C0CB01642F3A
:102DF00039D0C801DF91CF911F910F91FF90EF90D3
:102E0000DF90CF900895DF93CF930F92CDB7DEB7C9
:102E1000FC01698380914B078823C9F080914A07A0
:102E2000803238F081E090E09383828320E030E0CC
:102E300014C080914907E82FF0E0E75DF84F9981D1
:102E400090838F5F8093490780934A0704C0CE0127
:102E5000019661E007D021E030E0C9010F90CF91E9
:102E6000DF910895482F613210F081E0089580913C
:102E70005807843011F082E008956093A307A2E818
:102E8000B7E0842F9C01F90102C081918D938E2FB0
:102E9000841B8617D0F380E008951F920F920FB61F
:102EA0000F920BB60F9211242F933F934F935F9382
:102EB0006F937F938F939F93AF93BF93EF93FF9302
:102EC0008091B90090E0887F90708036910509F478
:102ED000F2C081369105CCF58832910509F47BC0AA
:102EE00089329105B4F48031910509F46FC08131C4
:102EF00091053CF4009709F447C1089709F04FC1C8
:102F000065C08831910509F466C0809709F047C112
:102F100082C08034910509F4A4C08134910544F441
:102F20008033910509F482C0C89709F038C189C07F
:102F30008035910509F489C08835910509F496C05A
:102F40008834910509F02BC1AEC08839910509F488
:102F500013C189399105ECF48837910509F4ABC0A8
:102F6000893791054CF48836910509F4A4C080375F
:102F7000910509F014C19FC08838910509F4FCC07F
:102F80008039910509F49DC08038910509F007C189
:102F900098C0803B910509F4C6C0813B91054CF473
:102FA000803A910509F49FC0883A910509F0F7C06D
:102FB000BAC0803C910509F4E3C0883C910509F44E
:102FC000DFC0883B910509F0EAC0C2C08091590773
:102FD0008093BB00CFC090918007809181079817A4
:102FE00068F490918007E92FF0E0E05AF84F808173
:102FF0008093BB009F5F90938007BCC080915A076D
:10300000882309F44BC085ED8093BC008091BC00FF
:1030100084FDFCCFC2C080E28093C50785ED80931C
:10302000BC008091BC0084FDFCCFB7C080E38093DE
:10303000C50785ED8093BC008091BC0084FDFCCF6A
:10304000ACC088E38093C5079BC0809180079091B6
:10305000BB00E82FF0E0E05AF84F90838F5F809339
:103060008007909180078091810782C080918007BE
:103070009091BB00E82FF0E0E05AF84F90838F5F0B
:103080008093800780915A07882341F085ED8093D3
:10309000BC008091BC0084FDFCCF7FC081E08093A8
:1030A0005B0784EA6EC085ED8093BC008091BC0014
:1030B00084FDFCCF72C083E0809358071092C40750
:1030C00059C08091C407803208F056C08091C4076F
:1030D0009091BB00E82FF0E0EC55F84F90838F5FA4
:1030E0008093C40747C08091C407803230F4E091D8
:1030F000C407F0E0EC55F84F108285ED8093BC00DA
:103100008091BC0084FDFCCF109258076091C407E9
:10311000E0915E07F0915F0784EA97E070E019950F
:103120001092C4072DC084E0809358071092A20724
:103130001092A307E0915C07F0915D0719958091CB
:10314000A307882329F481E08093A30710928207C4
:103150009091A207E92FF0E0EE57F84F808180931D
:10316000BB009F5F9093A2079091A2078091A30755
:10317000981710F485EC01C085E88093BC000FC05F
:1031800085EC8093BC0009C01092C50785ED809343
:10319000BC008091BC0084FDFCCF10925807FF91C9
:1031A000EF91BF91AF919F918F917F916F915F91BF
:1031B0004F913F912F910F900BBE0F900FBE0F902C
:1031C0001F901895F999FECF72BD61BDF89A80B530
:1031D0000895F999FECF1FBA72BD61BD40BD0FB60B
:1031E000F894FA9AF99A0FBE0895FC018385882312
:1031F00031F48091C10087728093C10008958130BD
:1032000031F48091C90087728093C900089582309B
:1032100031F48091D10087728093D100089583307A
:1032200029F48091310187728093310108951F92B2
:103230000F920FB60F920BB60F9211242F933F935C
:103240004F935F936F937F938F939F93AF93BF93AE
:10325000EF93FF938091C0008093CF073091C60019
:103260003093D0072091CB072093D10784FF10C063
:103270008091C0008F7E8093C0008091DC07909188
:10328000DD079093D5078093D40781E08093CB0727
:10329000213091F4332369F482E08093CB0780914D
:1032A000C7079091C80701969093CD078093CC07EC
:1032B0004BC01092CB0748C02230A1F48091D407B4
:1032C0009091D50701979093D5078093D407892BC8
:1032D000D9F583E08093CB07E091C707F091C80749
:1032E000308332C0233081F5E091CC07F091CD07D7
:1032F000F093EA07E093E90730834091E9075091A2
:10330000EA074F5F5F4F5093EA074093E9078091C8
:10331000C7079091C8072091D8073091D907820F2D
:10332000931F4817590760F01092CB07E091ED0703
:10333000F091EE07309741F08091D207199504C0C3
:103340005093CD074093CC07FF91EF91BF91AF9180
:103350009F918F917F916F915F914F913F912F91AD
:103360000F900BBE0F900FBE0F901F9018951F92DD
:103370000F920FB60F920BB60F9211242F933F931B
:103380004F935F936F937F938F939F93AF93BF936D
:10339000EF93FF938091D3078093E807882361F42C
:1033A0001092C5008091E5078093C4001092C6007A
:1033B00081E08093D30740C0813081F41092C50032
:1033C0008091E4078093C4001092C60082E080934D
:1033D000D3071092D7071092D6072EC08091D60738
:1033E0009091D7079093E7078093E607E091C9078C
:1033F000F091CA07E80FF91F20812093C6009C01B5
:103400002F5F3F4F3093E7072093E6078091DA075D
:103410009091DB072817390759F4E091EB07F091F9
:10342000EC07309711F080E019951092D30704C093
:103430003093D7072093D607FF91EF91BF91AF91BB
:103440009F918F917F916F915F914F913F912F91BC
:103450000F900BBE0F900FBE0F901F90189521E09C
:1034600030E03093DD072093DC0788E090E0909314
:10347000D9078093D8073093DF072093DE07909316
:10348000DB078093DA071092D20708951F93CF933A
:10349000DF93EC01162FF894A8DE1C8F112321F482
:1034A00087E08D8F84E10BC0113021F483E08D8F94
:1034B0008AE005C0123021F481E08D8F85E08E8F87
:1034C0008B8D8F3F29F061E0A5D38B8D61E055D4C2
:1034D0008B858823D1F481E061E09CD31092C500F4
:1034E0008D8D8093C4008091C00082608093C00065
:1034F0008091C2008E608093C2008091C100886478
:103500008093C1001092C60053C08130D1F482E193
:1035100061E080D31092CD008D8D8093CC0080919E
:10352000C80082608093C8008091CA008E6080933A
:10353000CA008091C90088648093C9001092CE00AF
:1035400037C08230D1F480E161E064D31092D500BD
:103550008D8D8093D4008091D00082608093D000C4
:103560008091D2008E608093D2008091D1008864D7
:103570008093D1001092D6001BC08330C9F48EE036
:1035800061E048D3109235018D8D80933401809194
:103590003001826080933001809132018E6080938F
:1035A000320180913101886480933101109236019B
:1035B00081E08C878B899C890DD08A839B834B8982
:1035C0005C8960E070E00E9433017894DF91CF91D4
:1035D0001F9108950F931F93CF93DF93BC01823007
:1035E000910510F462E070E0E091FA07F091FB07BA
:1035F00040E050E0A0E0B0E024C0808191818617D7
:103600009707D0F08617970771F4828193811097FE
:1036100029F013969C938E9312972CC09093FB07DE
:103620008093FA0727C04115510519F084179507B3
:1036300018F48D01AC01EF01DF01828193819C01BF
:10364000F9013097D1F641155105F9F0CA01861BF1
:10365000970B8430910580F48A819B8101151105B7
:1036600021F0F8019383828304C09093FB07809339
:10367000FA07FE01329645C0FE01E80FF91F61937B
:1036800071930297998388833CC08091F807909149
:10369000F907892B41F480915A0490915B0490932F
:1036A000F9078093F80740915C0450915D0441153F
:1036B000510541F44DB75EB780915804909159047B
:1036C000481B590B2091F8073091F907241735074B
:1036D000B0F4CA01821B930B8617970780F0AB01E9
:1036E0004E5F5F4F8417950750F0420F531F509362
:1036F000F9074093F807F9016193719302C0E0E084
:10370000F0E0CF01DF91CF911F910F910895CF93FA
:10371000DF939C01009709F48FC0EC0122971B8274
:103720001A826091FA077091FB076115710581F4A7
:1037300088819981820F931F2091F8073091F907B2
:103740002817390739F5D093F907C093F80774C0E3
:10375000DB0140E050E0AC17BD0708F1BB83AA8352
:10376000FE0121913191E20FF31FAE17BF0779F4EB
:103770008D919C911197280F391F2E5F3F4F3983F0
:10378000288312968D919C9113979B838A83411570
:10379000510571F4D093FB07C093FA074DC0129600
:1037A0008D919C911397AD01009711F0DC01D3CF5F
:1037B000DA011396DC93CE931297FA01219131919D
:1037C000E20FF31FCE17DF0769F488819981280F74
:1037D000391F2E5F3F4FFA01318320838A819B81FD
:1037E00093838283E0E0F0E0DB0112968D919C915F
:1037F0001397009719F0BC01FD01F6CFAB014E5FA6
:103800005F4FDB018D919C91840F951F2091F807EC
:103810003091F9072817390779F4309729F4109275
:10382000FB071092FA0702C01382128242505040E6
:103830005093F9074093F807DF91CF9108951F92B5
:103840000F920FB60F9211242F933F938F939F9354
:10385000AF93BF938091F3079091F407A091F50780
:10386000B091F6073091F7070196A11DB11D232FE6
:103870002D5F2D3720F02D570196A11DB11D2093EE
:10388000F7078093F3079093F407A093F507B0939D
:10389000F6078091EF079091F007A091F107B091A2
:1038A000F2070196A11DB11D8093EF079093F007D9
:1038B000A093F107B093F207BF91AF919F918F91C1
:1038C0003F912F910F900FBE0F901F9018959B0165
:1038D000AC017FB7F8948091EF079091F007A09129
:1038E000F107B091F20766B5A89B05C06F3F19F0CC
:1038F0000196A11DB11D7FBFBA2FA92F982F882730
:10390000860F911DA11DB11D62E0880F991FAA1F8E
:10391000BB1F6A95D1F7BC012DC0FFB7F894809109
:10392000EF079091F007A091F107B091F207E6B58B
:10393000A89B05C0EF3F19F00196A11DB11DFFBF67
:10394000BA2FA92F982F88278E0F911DA11DB11D69
:10395000E2E0880F991FAA1FBB1FEA95D1F7861BCB
:10396000970B885E9340C8F2215030404040504051
:1039700068517C4F211531054105510571F60895B7
:10398000019739F0880F991F880F991F02970197A7
:10399000F1F70895789484B5826084BD84B5816020
:1039A00084BD85B5826085BD85B5816085BDEEE647
:1039B000F0E0808181608083E1E8F0E01082808126
:1039C00082608083808181608083E0E8F0E0808194
:1039D00081608083E1EBF0E0808184608083E0EBB4
:1039E000F0E0808181608083E1E9F0E080818260A5
:1039F0008083808181608083E0E9F0E08081816064
:103A00008083E1EAF0E08081826080838081816050
:103A10008083E0EAF0E0808181608083E1E2F1E090
:103A2000808182608083808181608083E0E2F1E038
:103A3000808181608083EAE7F0E080818460808318
:103A400080818260808380818160808380818068C2
:103A500080831092C10008951F93CF93DF93182F96
:103A6000EB0161E0D7D0209709F4CAC0CF3FD10560
:103A700009F4C9C0E12FF0E0E254FE4F849189308F
:103A800009F466C08A30B0F48430F1F1853040F436
:103A9000823059F1833070F5813009F0AEC020C01A
:103AA000873009F443C0883008F048C0863009F0F8
:103AB000A4C034C08D3009F478C08E3038F48B3017
:103AC00009F45AC08C3008F066C04CC0803109F44B
:103AD00080C0813109F487C08F3009F08EC06FC07B
:103AE00084B5806884BDC7BD91C084B5806284BD43
:103AF000C8BD8CC080918000806880938000D09386
:103B00008900C093880082C0809180008062809389
:103B10008000D0938B00C0938A0078C08091B00061
:103B200080688093B000C093B30070C08091B000F3
:103B300080628093B000C093B40068C08091900010
:103B4000806880939000D0939900C09398005EC0E5
:103B500080919000806280939000D0939B00C093EE
:103B60009A0054C080919000886080939000D09318
:103B70009D00C0939C004AC08091A0008068809303
:103B8000A0008091A0008F7B8093A000D093A9001B
:103B9000C093A8003BC08091A00080628093A000E9
:103BA000D093AB00C093AA0031C08091A000886080
:103BB0008093A000D093AD00C093AC0027C080914B
:103BC0002001806880932001D0932901C0932801AF
:103BD0001DC080912001806280932001D0932B0131
:103BE000C0932A0113C08091200188608093200136
:103BF000D0932D01C0932C0109C0C038D1051CF40D
:103C0000812F60E002C0812F61E0B7D0DF91CF91BA
:103C10001F910895CF93DF93482F50E0CA01885831
:103C20009E4FFC0134914E5C5E4FFA0184918823D3
:103C300069F190E0880F991FFC01EC51FF4FA591AD
:103C4000B491FC01E250FF4FC591D491662351F429
:103C50002FB7F8948C91932F909589238C9388811A
:103C600089230BC0623061F42FB7F8948C91932FA5
:103C7000909589238C938881832B88832FBF06C0DE
:103C80009FB7F8948C91832B8C939FBFDF91CF913A
:103C90000895893009F449C08A30A0F4843051F184
:103CA000853040F4823079F1833000F5813009F0BD
:103CB00063C026C0873079F1883098F5863009F0E6
:103CC0005BC025C08D3009F442C08E3028F48B30A3
:103CD000B1F18C30C0F52DC0803109F442C0813182
:103CE00009F445C08F3009F047C037C0809180008B
:103CF0008F7703C0809180008F7D8093800008952E
:103D000084B58F7702C084B58F7D84BD089580917E
:103D1000B0008F7703C08091B0008F7D8093B0009A
:103D20000895809190008F7707C0809190008F7DDB
:103D300003C080919000877F8093900008958091C8
:103D4000A0008F7707C08091A0008F7D03C0809175
:103D5000A000877F8093A0000895809120018F7735
:103D600003C0809120018F7D809320010895809170
:103D70002001877F809320010895FF920F931F9366
:103D8000F62E482F50E0CA0182549E4FFC01249128
:103D9000CA0188589E4FFC0114914E5C5E4FFA0197
:103DA00004910023C1F0222311F0822F72DFE02F53
:103DB000F0E0EE0FFF1FE250FF4FA591B4919FB7C7
:103DC000F894FF2021F48C911095812302C08C91EE
:103DD000812B8C939FBF1F910F91FF9008950F939C
:103DE0001F93482F50E0CA0182549E4FFC0124913A
:103DF000CA0188589E4FFC0104914E5C5E4FFA0147
:103E00001491112319F420E030E014C0222311F0A2
:103E1000822F3FDF812F90E0880F991F885E9E4F91
:103E2000FC01A591B4918C9120E030E0802311F049
:103E300021E030E0C9011F910F9108950895CF93BB
:103E4000DF93A8DDFBDF0E94A813C0E0D0E00E9452
:103E5000A0132097E1F30E940000F9CF0895CF92BC
:103E6000DF92EF92FF920F931F93CF93DF937C012A
:103E70006B018A01C0E0D0E00FC0D6016D916D01E9
:103E8000D701ED91FC910190F081E02DC7011995CA
:103E9000C80FD91F015010400115110571F7CE014F
:103EA000DF91CF911F910F91FF90EF90DF90CF9016
:103EB0000895CF93DF93EC016115710519F420E0AB
:103EC00030E00FC0DB010D900020E9F71197A61B31
:103ED000B70BE881F9810280F381E02DAD011995DE
:103EE0009C01C901DF91CF9108954F925F927F921B
:103EF0008F929F92AF92BF92CF92DF92EF92FF92FA
:103F00000F931F93DF93CF93CDB7DEB7A1970FB673
:103F1000F894DEBF0FBECDBF2C01742ECB01223032
:103F200008F42AE019A231E2C32ED12CCC0EDD1EFA
:103F3000822E9924AA24BB24672D752FA5019401F4
:103F4000C4D079018A01C801B701A50194019ED0AE
:103F5000472D461B0894C108D1084A3014F4405D2F
:103F600001C0495CF6014083E114F104010511052B
:103F700021F07E2C5F2DC801DFCFC201B60199DF91
:103F8000A1960FB6F894DEBF0FBECDBFCF91DF91E3
:103F90001F910F91FF90EF90DF90CF90BF90AF9067
:103FA0009F908F907F905F904F900895DC01211536
:103FB000310541F4ED91FC910190F081E02D642FE9
:103FC0001995089592CFEF92FF920F931F939A0144
:103FD000E62EFF2400E010E0B801A701E7DF1F9103
:103FE0000F91FF90EF900895CF92DF92EF92FF92A2
:103FF0000F931F93CF93DF93EC016A017B0121158F
:10400000310541F4E881F9810190F081E02D642FC0
:1040100019951DC02A303105C9F477FF16C0E88113
:10402000F9810190F081E02D6DE219958C01442712
:104030005527BA014C195D096E097F09CE012AE0A6
:1040400054DF9801280F391F03C02AE04EDF9C017E
:10405000C901DF91CF911F910F91FF90EF90DF90F9
:10406000CF900895EF92FF920F931F937B019A01D7
:104070000027F7FC0095102FB801A701B5DF1F91AD
:104080000F91FF90EF90089514CF0895629FD00193
:10409000739FF001829FE00DF11D649FE00DF11D03
:1040A000929FF00D839FF00D749FF00D659FF00DB2
:1040B0009927729FB00DE11DF91F639FB00DE11D9F
:1040C000F91FBD01CF0111240895A1E21A2EAA1BE8
:1040D000BB1BFD010DC0AA1FBB1FEE1FFF1FA217B8
:1040E000B307E407F50720F0A21BB30BE40BF50BB5
:1040F000661F771F881F991F1A9469F7609570953E
:10410000809590959B01AC01BD01CF010895EE0F04
:0E411000FF1F0590F491E02D1994F894FFCF55
:10411E0030303000202020005F5F5F004D656D6FF6
:10412E00727920456D7074696564210068747470CD
:10413E003A2F2F676F6F2E676C2F6B64596C6A372F
:10414E000041726475696E6F20444D582D353132C1
:10415E0000546573746572202620436F6E74726FFF
:10416E006C6C6572004669726D2076002E00486197
:10417E0072642076004D656D6F7279204C6F6164AC
:10418E00656421004D656D6F727920436C65616EBB
:10419E00656421004D656D6F72792053617665649B
:1041AE0021003E002B002D2D2D002D0020004D65F1
:1041BE006D6F7279204F7074696F6E733A00536130
:1041CE007665004C6F616400456D70747900436CC8
:1041DE006561720043616E63656C00436F6E666964
:1041EE00673A004C4344204261636B4C69676874C4
:1041FE003A0064696D6D657220302D32353500439D
:10420E0074726C0041626F757400436F6E74726FDE
:10421E006C204F7074696F6E733A00556E697461DD
:10422E007279004D617472697800436861736572CA
:10423E00004D756C7469706C7900436F6E666967BA
:10424E00004D656D6F727900432D2D2D204D656DDE
:10425E0020437472202020202D00556E69746172E7
:10426E007920436F6E74726F6C3A004368616E6EA4
:10427E00656C3A203030310056616C75653A0043FA
:10428E0068617365724348202D2D2D0044656C6165
:10429E0079202020207831303D6D530046697273AD
:1042AE0074204348202020202020204374726C006C
:1042BE0046696E616C204348202020202020205328
:1042CE00746172740053746F702000537461727451
:1042DE000056616C75650046697273742043482000
:1042EE0020202020204374726C004D756C74697010
:1042FE006C792020202020204D656D6F7279005141
:10430E0075616E74697479202020202020417070B0
:10431E006C79004572726F722120002020202020BF
:10432E002020004F6B2100496E697469616C204D2D
:10433E00656D6F72793A000200010033002D003571
:10434E000031002F002400220020001E002C002A25
:10435E0000280026001164000000080009000A0071
:10436E000B000C000D0003008000FC070000000095
:10437E0000008C142F1F9D143B143C142E1F004064
:10438E00105000401454000000008C142F1F9D1478
:10439E00FD151F164C15000000000317D3168C16C2
:0643AE009516AA16BB16CD
:00000001FF
