:1000000004C100002FC100002DC100002BC1000061
:1000100029C1000027C1000025C1000023C1000044
:1000200021C100001FC100001DC100001BC1000054
:1000300019C1000017C1000015C1000013C1000064
:1000400011C100000FC100000DC100000BC1000074
:1000500009C1000007C1000005C100000C94701C1C
:1000600001C100000C946819FDC000000C94081A2E
:10007000F9C00000F7C00000F5C00000F3C00000A8
:10008000F1C00000EFC00000EDC00000EBC00000B8
:10009000E9C00000E7C00000E5C000000C949E1716
:1000A000E1C00000DFC00000DDC00000DBC00000D8
:1000B000D9C00000D7C00000D5C00000D3C00000E8
:1000C000D1C00000CFC00000CDC00000CBC00000F8
:1000D000C9C00000C7C00000C5C00000C3C0000008
:1000E000C1C0000000002100240027002A002D00CC
:1000F0003000330001010000040107010A01000083
:100100002200250028002B002E00310034000201BF
:100110000000050108010B0100002000230026005B
:1001200029002C002F00320000010000030106010D
:10013000090105050505070508080808020202026D
:100140000A0A080804040404010101010101010173
:100150000303030303030303040707070C0C0C0C3E
:100160000C0C0C0C02020202060606060606060627
:100170000B0B0B0B0B0B0B0B0102102020080810B4
:100180002040102040800201020108040201010207
:1001900004081020408080402010080402018004E0
:1001A000020180402010080402010804020101023B
:1001B0000408102040800102040810204080000044
:1001C000090A02080B0C0D070603040100000000D9
:1001D000000000000000000000000000000000001F
:1001E0000000000000000000000011100F000000DF
:1001F00000000000000000000000000000000000FF
:10020000000000003A010D17801A11241FBECFEF25
:10021000D1E2DEBFCDBF00E00CBF14E0A0E0B2E051
:10022000E0ECF1E400E00BBF02C007900D92A439AE
:10023000B107D9F71BBE17E0A4E9B4E001C01D92D5
:10024000AA3FB107E1F712E0CAE0D2E004C022976A
:10025000FE010E94DA20C430D107C9F70E94701F46
:100260000C94DE20CDCEDC0101C06D934150504096
:10027000E0F70895CF92EF920F938DEE96E06091A4
:10028000480440914A0420914C0400914E04E090AF
:100290005004C09052040E94A1160F91EF90CF908D
:1002A00008953F924F925F926F927F928F929F92AA
:1002B000AF92BF92CF92DF92EF92FF920F931F9374
:1002C00081E18093430455245394B4E04B2EA7E07E
:1002D0003A2EFFE09F2EE2E08E2E75E0772E68E04A
:1002E000662E53E0D52E46E0C42E39E0B32E2EE024
:1002F000A22E1AE00BE09CE0F92E8DE0E82EA8C1BA
:100300008091330460E00E940E1F80913B040E94A4
:10031000401F892B61F45092430460914404709112
:10032000450480914604909147040E94B81C65E002
:1003300070E080E090E00E94B81C80913D040E9433
:10034000401F892B61F440924304609144047091F2
:10035000450480914604909147040E94B81C65E0D2
:1003600070E080E090E00E94B81C80913F040E9401
:10037000401F892B61F430924304609144047091D2
:10038000450480914604909147040E94B81C65E0A2
:1003900070E080E090E00E94B81C809141040E94CF
:1003A000401F892B61F49092430460914404709142
:1003B000450480914604909147040E94B81C65E072
:1003C00070E080E090E00E94B81C8091330461E00E
:1003D0000E940E1F8091350460E00E940E1F8091E4
:1003E0003B040E94401F892B61F48092430460917A
:1003F00044047091450480914604909147040E9402
:10040000B81C65E070E080E090E00E94B81C80912C
:100410003D040E94401F892B61F470924304609157
:1004200044047091450480914604909147040E94D1
:10043000B81C65E070E080E090E00E94B81C8091FC
:100440003F040E94401F892B61F460924304609135
:1004500044047091450480914604909147040E94A1
:10046000B81C65E070E080E090E00E94B81C8091CC
:1004700041040E94401F892B61F410924304609153
:1004800044047091450480914604909147040E9471
:10049000B81C65E070E080E090E00E94B81C80919C
:1004A000350461E00E940E1F8091370460E00E94D5
:1004B0000E1F80913B040E94401F892B61F4D09253
:1004C00043046091440470914504809146049091E6
:1004D00047040E94B81C65E070E080E090E00E9454
:1004E000B81C80913D040E94401F892B61F4C0928A
:1004F00043046091440470914504809146049091B6
:1005000047040E94B81C65E070E080E090E00E9423
:10051000B81C80913F040E94401F892B61F4B09267
:100520004304609144047091450480914604909185
:1005300047040E94B81C65E070E080E090E00E94F3
:10054000B81C809141040E94401F892B61F4A09245
:100550004304609144047091450480914604909155
:1005600047040E94B81C65E070E080E090E00E94C3
:10057000B81C8091370461E00E940E1F80913904FD
:1005800060E00E940E1F80913B040E94401F892B57
:1005900061F4109343046091440470914504809188
:1005A0004604909147040E94B81C65E070E080E02A
:1005B00090E00E94B81C80913D040E94401F892B4E
:1005C00061F4009343046091440470914504809168
:1005D0004604909147040E94B81C65E070E080E0FA
:1005E00090E00E94B81C80913F040E94401F892B1C
:1005F00061F4F09243046091440470914504809149
:100600004604909147040E94B81C65E070E080E0C9
:1006100090E00E94B81C809141040E94401F892BE9
:1006200061F4E09243046091440470914504809128
:100630004604909147040E94B81C65E070E080E099
:1006400090E00E94B81C8091390461E00E940E1F66
:1006500080914304813109F453CE1F910F91FF9093
:10066000EF90DF90CF90BF90AF909F908F907F9052
:100670006F905F904F903F9008950F931F93CF938B
:10068000DF93EC01162F042F8DEE96E00E94C0142C
:100690008DEE96E060E072E00E949520CA30D105B0
:1006A0003CF4612F6E5F8DEE96E0402F0E94C014E7
:1006B000CE010A978A35910538F4612F6F5F8DEE70
:1006C00096E0402F0E94C014C436D10534F08DEE60
:1006D00096E0612F402F0E94C0148DEE96E0BE017F
:1006E0004AE050E00E948320DF91CF911F910F914B
:1006F00008951F938091390460E00E940E1F1FEF40
:100700003EC080912704909128040197E091C7078B
:10071000F091C807E80FF91F10836091E90670E0B7
:10072000625070404091EA068FEF90E050E0A5DF04
:1007300064E670E080E090E00E94B81C809127049D
:10074000909128040197E091C707F091C807E80F3E
:10075000F91F10826091E90662508DEE96E040919B
:10076000EA060E94C0148DEE96E064E072E00E94FA
:10077000952064E670E080E090E00E94B81C8091D3
:100780003F040E94401F019709F4BBCF80913904B8
:1007900061E00E940E1F8DEE96E06091E9064091A7
:1007A000EA060E94C0141F910895CF92DF92EF9243
:1007B000FF920F931F938C016DE070E040E050E0DA
:1007C0005CDF9EE0C92ED12CC00ED11EC60161E1B6
:1007D00070E040E050E051DF84E9E82E84E0F82E3C
:1007E0000E0D1F1DF801808190E061E070E041E096
:1007F00050E043DFF801818190E065E070E041E086
:1008000050E03BDFF801828190E069E070E041E078
:1008100050E033DFF801838190E06DE070E041E06B
:1008200050E02BDFF801848190E061E170E041E06D
:1008300050E023DFF801858190E061E070E042E064
:1008400050E01BDFF801868190E065E070E042E057
:1008500050E013DFF801878190E069E070E042E04A
:1008600050E00BDFF801808590E06DE070E042E041
:1008700050E003DFF801818590E061E170E042E043
:1008800050E0FBDEF801828590E061E070E043E03B
:1008900050E0F3DEF801838590E065E070E043E02E
:1008A00050E0EBDEF801848590E069E070E043E021
:1008B00050E0E3DEF801858590E06DE070E043E014
:1008C00050E0DBDEEC0CFD1CF701808190E061E183
:1008D00070E043E050E0D1DE1F910F91FF90EF9068
:1008E000DF90CF900895FF920F931F93CF93DF93E4
:1008F000F82E8DEE96E06091E9064091EA060E949E
:10090000C0148DEE96E068E072E00E9495208DEEB6
:1009100096E00E94AA141092EC061092EB066091E9
:10092000E9066E5F6093E9068DEE96E04091EA0677
:100930000E94C014B6DC609143046A3018F000E0F5
:1009400010E016C08DEE96E04AE050E00E943420A0
:100950008DEE96E06091E9064091EA060E94C0148F
:1009600080914304082F10E01093EC060093EB06EF
:10097000809143048E3009F4CEC091E0F91649F419
:100980008A3009F465C08B3009F46BC08C3009F4EF
:100990006FC087DC809143048E3029F41093EC06FD
:1009A0000093EB06B8C091E0F91649F48A3009F4D7
:1009B0004FC08B3009F455C08C3009F459C08A30CF
:1009C00018F0C0E0D0E029C06091E9066150609362
:1009D000E9068DEE96E04091EA060E94C0148DEE85
:1009E00096E0B8014AE050E00E9483208DEE96E048
:1009F000609143044AE050E00E9434208091430417
:100A0000C82FD0E06091E9066F5F6093E9068DEE34
:100A100096E04091EA060E94C01443DC80914304B2
:100A20008E3089F4C80173E0880F991F7A95E1F739
:100A3000000F111F800F911FC80FD91FD093EC0614
:100A4000C093EB0668C091E0F916C9F48A3039F416
:100A50008FEF90E09093EC068093EB065CC08B30B8
:100A600029F41092EC061092EB0655C08C3039F444
:100A700084E692E09093EC068093EB0668C08A309F
:100A800008F049C06091E90662506093E9068DEE76
:100A900096E04091EA060E94C0148DEE96E0B801FF
:100AA0004AE050E00E9483208DEE96E0BE014AE0CD
:100AB00050E00E9483206091E9066E5F6093E90632
:100AC0008DEE96E04091EA060E94C0148DEE96E00D
:100AD000609143044AE050E00E94342084E690E0B4
:100AE000089F9001099F300D189F300D11248091AF
:100AF0004304280F311DCE0153E0880F991F5A95EA
:100B0000E1F7CC0FDD1F8C0F9D1F280F391F30938D
:100B1000EC062093EB068DEE96E00E94B2146091F5
:100B2000E90670E0625070404091EA068091EB0661
:100B30009091EC0650E0A1DD6091E906645060936D
:100B4000E9068DEE96E04091EA060E94C0148DEE13
:100B500096E00E94B2148DEE96E06091E906409115
:100B6000EA060E94C0146CE271E080E090E00E940E
:100B7000B81CDF91CF911F910F91FF900895CF93F3
:100B8000DF938DEE96E00E94E8148DEE96E061E131
:100B900041E00E94C014C0E0D0E0FE01EC56FB4FE3
:100BA0001082E091C707F091C807EC0FFD1F10827B
:100BB0008DEE96E0BE0142E050E00E948320219637
:100BC00082E0C130D80749F78DEE96E00E94E81424
:100BD0008DEE96E063E041E00E94C0148DEE96E059
:100BE0006CE072E00E94952068EE73E080E090E097
:100BF0000E94B81CDF91CF910895CF93DF938DEEC3
:100C000096E00E94E8148DEE96E00E94B2148DEEFC
:100C100096E060E040E00E94C014C0E0D0E08DEEBD
:100C200096E0BE0142E050E00E948320219682E0DF
:100C3000C130D807A1F78DEE96E00E94E8148DEE42
:100C400096E060E043E00E94C0148DEE96E06CE117
:100C500072E00E9495208DEE96E063E040E00E94F5
:100C6000C0148DEE96E061E372E00E9495208DEE57
:100C700096E061E041E00E94C0148DEE96E061E4F0
:100C800072E00E9495208DEE96E060E042E00E94C6
:100C9000C0148DEE96E065E572E00E9495208DEE21
:100CA00096E060E04AE050E00E9434208DEE96E04D
:100CB0006CE572E00E9495208DEE96E063E04AE0DC
:100CC00050E00E9434208DEE96E06BE042E00E94FE
:100CD000C0148DEE96E06EE572E00E9495208DEED8
:100CE00096E060E04AE050E00E9434208DEE96E00D
:100CF0006CE572E00E9495208DEE96E060E04AE09F
:100D000050E00E94342060ED77E080E090E00E94A7
:100D1000B81CDF91CF910895CF93DF938DEE96E0CD
:100D20000E94E8148DEE96E061E141E00E94C0145B
:100D3000C1E0D0E084EC97E0BE010E943319FE01CF
:100D4000EC56FB4F80832197E091C707F091C807CD
:100D5000EC0FFD1F219680838DEE96E0BE0142E0F0
:100D600050E00E948320219682E0C130D80711F71D
:100D70008DEE96E00E94E8148DEE96E063E041E08F
:100D80000E94C0148DEE96E065E672E00E94952008
:100D900068EE73E080E090E00E94B81CDF91CF9194
:100DA0000895CF93DF938DEE96E00E94E8148DEEC8
:100DB00096E061E141E00E94C014C0E0D0E0FE0195
:100DC000EC56FB4F1082E091C707F091C807EC0F7B
:100DD000FD1F108284EC97E0BE0140E00E943A19AA
:100DE0008DEE96E0BE0142E050E00E948320219605
:100DF00082E0C130D80719F78DEE96E00E94E81422
:100E00008DEE96E063E041E00E94C0148DEE96E026
:100E100064E772E00E94952068EE73E080E090E065
:100E20000E94B81CDF91CF910895CF93DF938DEE90
:100E300096E00E94E8148DEE96E061E141E00E94A8
:100E4000C014C1E0D0E0FE01EC56FB4F84EC97E00B
:100E5000BE0140810E943A198DEE96E0BE0142E04B
:100E600050E00E948320219682E0C130D80759F7D4
:100E70008DEE96E00E94E8148DEE96E063E041E08E
:100E80000E94C0148DEE96E064E872E00E94952006
:100E900068EE73E080E090E00E94B81CDF91CF9193
:100EA000089584EC97E061E072E00E943319682FA6
:100EB00080910407882361F46623A9F48091540487
:100EC0006FE770E00E947D1D81E080930407089524
:100ED000813069F48091540460E070E00E947D1DCF
:100EE0001092040708958091540470E0EBCF0895A8
:100EF0002F923F924F925F926F927F928F929F922A
:100F0000AF92BF92CF92DF92EF92FF920F931F9317
:100F1000DF93CF93CDB7DEB763970FB6F894DEBFFC
:100F20000FBECDBF89837B8B6A8B00919706109192
:100F300098068DEE96E0602F412F0E94C0148DEE32
:100F400096E062E972E00E9495208A899B890E965C
:100F50009B838A83EA89FB893D96FD83EC838A899A
:100F60009B890C969F838E83EA89FB893B96F98740
:100F7000E8878A899B890A969B878A87EA89FB8901
:100F80003996FD87EC878A899B8908969F878E878B
:100F9000EA89FB893796F98BE88B36E0632E712C52
:100FA0008A899B89680E791E25E0422E512C480EB5
:100FB000591EB4E02B2E312C280E391EA3E0CA2E68
:100FC000D12CC80ED91EF2E0AF2EB12CA80EB91E3E
:100FD0004C010894811C911CE4E1EE2EF12C8091CF
:100FE000330460E00E940E1F809141040E94401F64
:100FF000892B59F460914404709145048091460412
:10100000909147040E94B81C4CDF8091330461E04A
:101010000E940E1F80912D040E94401F892BF9F41D
:101020006CE271E080E090E00E94B81C209197068D
:101030008091980690E08E9DA0018F9D500D9E9D01
:10104000500D1124222309F424E12150FA01E20F6A
:10105000F11DE756F94F80818130A1F724C08091BE
:101060002F040E94401F892B09F56CE271E080E09B
:1010700090E00E94B81C209197068091980690E01D
:101080008E9DA0018F9D500D9E9D500D11242F5FB0
:10109000243108F020E0FA01E20FF11DE756F94F84
:1010A00080818130A1F7209397069EC180912B0407
:1010B0000E94401F892B09F56CE271E080E090E00E
:1010C0000E94B81C2091980680919706482F50E006
:1010D0002F5F243008F020E0822F90E08E9DF001F9
:1010E0008F9DF00D9E9DF00D1124E40FF51FE75626
:1010F000F94F8081813061F726C0809129040E94D8
:10110000401F892B19F56CE271E080E090E00E94AD
:10111000B81C2091980680919706482F50E0222312
:1011200009F424E02150822F90E08E9DF0018F9DE4
:10113000F00D9E9DF00D1124E40FF51FE756F94FB9
:101140008081813061F7209398064EC180913104EF
:101150000E94401F892B09F042CF6CE271E080E0D1
:1011600090E00E94B81C4091980660919706842FE9
:1011700090E08E9DF0018F9DF00D9E9DF00D11244D
:10118000E60FF11DE756F94F8081813009F04AC121
:101190008DEE96E00E94C0148DEE96E064E972E058
:1011A0000E94952082E018C1809197068C3081F4CE
:1011B00080919806882361F48DEE96E061E040E02E
:1011C0000E94C0148DEE96E066E972E00E949520C0
:1011D00080919706843081F480919806882361F489
:1011E0008DEE96E061E040E00E94C0148DEE96E046
:1011F00066E972E00E94952080919706883081F41C
:1012000080919806882361F48DEE96E061E040E0DD
:101210000E94C0148DEE96E066E972E00E9495206F
:1012200080919706882359F480919806813039F48B
:101230008A899B8961E070E040E050E01EDA80918D
:101240009706843051F480919806813031F4C401BE
:1012500061E070E040E050E010DA8091970688305D
:1012600051F480919806813031F4C50161E070E05D
:1012700040E050E002DA809197068C3051F4809182
:101280009806813031F4C60161E070E040E050E042
:10129000F4D980919706803151F48091980681307D
:1012A00031F4C10161E070E040E050E0E6D98091A6
:1012B0009706882351F480919806823031F4C20158
:1012C00061E070E040E050E0D8D98091970684302A
:1012D00051F480919806823031F4C30161E070E0EE
:1012E00040E050E0CAD980919706883059F4809147
:1012F0009806823039F48889998961E070E040E08D
:1013000050E0BBD9809197068C3059F480919806B3
:10131000823039F48E859F8561E070E040E050E0D6
:10132000ACD980919706803159F48091980682302B
:1013300039F48C859D8561E070E040E050E09DD9F6
:1013400080919706882359F480919806833039F468
:101350008A859B8561E070E040E050E08ED9809105
:101360009706843059F480919806833039F4888543
:10137000998561E070E040E050E07FD98091970668
:10138000883059F480919806833039F48E819F819A
:1013900061E070E040E050E070D9809197068C30B9
:1013A00059F480919806833039F48C819D8161E0F5
:1013B00070E040E050E061D980919706803159F4A7
:1013C00080919806833039F48A819B8161E070E0D6
:1013D00040E050E052D981E00091970610919806C4
:1013E000823009F0FCCD1FC08DEE96E0602F412FBA
:1013F0000E94C0148DEE96E06AE972E00E9495208A
:101400008DEE96E060919706409198060E94C01478
:101410008DEE96E062E972E00E949520998191300C
:10142000D1F6C2CEFFCF63960FB6F894DEBF0FBEE3
:10143000CDBFCF91DF911F910F91FF90EF90DF9083
:10144000CF90BF90AF909F908F907F906F905F9064
:101450004F903F902F9008958DEE96E00E94E814F3
:101460008DEE96E060E040E00E94C0148DEE96E0C4
:101470006CE972E00E9495208DEE96E061E042E01A
:101480000E94C0148DEE96E06CEA72E00E949520F6
:101490008DEE96E061E043E00E94C0148DEE96E090
:1014A00061EB72E00E9495208DEE96E067E042E0ED
:1014B0000E94C0148DEE96E066EB72E00E949520CB
:1014C0008DEE96E067E043E00E94C0148DEE96E05A
:1014D0006CEB72E00E9495208DEE96E06EE043E0AA
:1014E0000E94C0148DEE96E062EC72E00E9495209E
:1014F0001092970682E080939806E9E9F6E0DF0112
:1015000098961082148A1C9254961C925497319685
:10151000119686E0ED3AF807A1F781E0848B80A769
:1015200086A7828F85AB80E060E070E0E1DC80918F
:101530009706882329F480919806833009F4ECDB20
:1015400080919706863029F480919806833009F4BB
:1015500028DC80919706882329F4809198068230B0
:1015600009F463DC80919706863029F4809198060F
:10157000823009F404CB0895EF92FF920F931F93EA
:10158000CF93DF935EE0E52E01E04FE0F42ECFEF46
:10159000D0E084EC97E061E072E00E943319182FEC
:1015A0008DEE96E00E94E8148DEE96E060E040E05B
:1015B0000E94C0148DEE96E069EC72E00E949520C6
:1015C0008DEE96E060E042E00E94C0148DEE96E061
:1015D00061ED72E00E949520812F90E06FE070E055
:1015E00042E050E04AD88DEE96E060E043E00E9491
:1015F000C0148DEE96E060EE72E00E9495208DEEB4
:1016000096E06FE043E00E94C0148DEE96E06DEE30
:1016100072E00E9495208DEE96E06FE040E00E941F
:10162000C0148DEE96E062EF72E00E949520E09289
:10163000970682E080939806E9E9F6E0DF01989644
:101640001082148A1C9254961C92549731961196CB
:1016500086E0ED3AF807A1F702A306AB0093A706D0
:1016600080E060E070E044DC809197068E30E1F528
:10167000809198068230C1F58093EA06F092E906DF
:1016800081E031D98091EB069091EC068F3F910576
:1016900069F064F0D093EC06C093EB068FEF90E016
:1016A00060E170E042E050E00E943D0384EC97E08E
:1016B00061E072E04091EB060E943A196091EB06FE
:1016C0007091EC06809154040E947D1D8091EB0680
:1016D0009091EC06009719F41092040705C01816B3
:1016E000190614F400930407809197068E3029F4AC
:1016F00080919806833009F418D0809197068E3037
:1017000009F0AECF80919806882309F0A9CF75DA49
:10171000809131040E94401F0197D1F36CE271E087
:1017200080E090E00E94B81C34CF8DEE96E00E94DD
:10173000E8148DEE96E060E040E00E94C0148DEE6B
:1017400096E068EF72E00E9495208DEE96E062E0F0
:1017500042E00E94C0148DEE96E069E073E00E94C2
:1017600095208DEE96E062E043E00E94C0148DEE7D
:1017700096E061E173E00E9495208DEE96E06CE0CA
:1017800042E00E94C0148DEE96E068E173E00E9492
:1017900095208DEE96E06CE043E00E94C0148DEE43
:1017A00096E06FE173E00E9495208DEE96E06CE08C
:1017B00041E00E94C0148DEE96E068E273E00E9462
:1017C00095208DEE96E062E041E00E94C0148DEE1F
:1017D00096E06FE273E00E94952081E08093970687
:1017E00082E080939806E9E9F6E0DF01989610829E
:1017F000148A1C9254961C9254973196119686E046
:10180000ED3AF807A1F781E0858B81A7878F83AB3D
:101810008387818380E060E070E06ADB80919706D7
:10182000813029F480919806823009F42CD280917D
:101830009706813029F480919806833009F426D0E8
:10184000809197068B3029F480919806823009F4B4
:101850003CD3809197068B3029F480919806833091
:1018600009F41CD5809197068B3029F48091980655
:10187000813009F481DE80919706813031F48091C6
:101880009806813011F4E8DD50CF08952F923F92F1
:101890004F925F926F927F928F929F92AF92BF9280
:1018A000CF92DF92EF92FF920F931F93DF93CF932C
:1018B000CDB7DEB760970FB6F894DEBF0FBECDBFD1
:1018C00081E090E09093280480932704988B8F8781
:1018D00011E00DE004C021E030E0388B2F878DEE61
:1018E00096E00E94E8148DEE96E060E040E00E94F1
:1018F000C0148DEE96E066E373E00E9495208F851C
:1019000098890E94D5033CE0309397061092980680
:10191000E9E9F6E0DF0198961082148A1C92549649
:101920001C9254973196119686E0ED3AF807A1F78C
:1019300010939D061093A1061093A5061093A90677
:101940001083148310871487108B148B108F148FBF
:1019500010A314A310A714A710AB14AB10AFEF85FE
:10196000F8893B96FA83E9832F8538892A5F3F4FB0
:101970003C832B838F85988901969E838D83EF8589
:10198000F8893C96F887EF832F853889295F3F4F88
:101990003A8729878F85988902969C878B87EF8560
:1019A000F8893D96FE87ED8788E0282E312C2F851B
:1019B0003889220E331EB3E04B2E512C420E531E9B
:1019C000AEE06A2E712C620E731EF9E08F2E912C00
:1019D000820E931EE4E0AE2EB12CA20EB31E7AE06E
:1019E000C72ED12CC20ED31E65E0E62EF12CE20EDE
:1019F000F31E81E06F8578897BDA909197069430A9
:101A000039F480919806882309F064C025DD67CFFA
:101A1000983039F480919806882309F064C085DEF7
:101A20005ECF9C3049F580919806882309F068C004
:101A30001092EA060093E9060E9473048091EB0677
:101A40009091EC06835F914034F082EF91E09093A7
:101A5000EC068093EB068091EB069091EC06892BC7
:101A600031F4E1E0F0E0F093EC06E093EB06209136
:101A7000EB063091EC0631CF903109F58091980654
:101A8000882309F048C01092EA0631E13093E90654
:101A90000E9473046091EB067091EC0682E0613065
:101AA00078072CF0E2EFF1E0F88BEF8718CF6F307A
:101AB00071050CF410CF9B012E5030400ECF9923AE
:101AC00039F480919806813089F5EF85F88911C045
:101AD000943039F480919806813099F52D813E81BA
:101AE0007BC0983059F480919806813099F5EB8548
:101AF000FC85F0932804E09327047DC09C3049F4D2
:101B000080919806813079F55092280440922704FC
:101B100072C0903149F480919806813079F5B09285
:101B20002804A092270467C0992349F4809198065D
:101B3000823079F5F0922804E09227045CC094305A
:101B400039F480919806823079F52B813C8144C02C
:101B5000983039F480919806823079F5E985FA85D4
:101B6000C8CF9C3049F480919806823079F5309244
:101B70002804209227043FC0903149F480919806B0
:101B8000823089F5909228048092270434C09923EA
:101B900049F480919806833071F5D0922804C09260
:101BA000270429C0943039F480919806833019F5C0
:101BB00029813A8111C0983039F480919806833098
:101BC000D1F4EF81F88595CF9C3059F48091980637
:101BD000833089F42D853E85309328042093270493
:101BE0000AC0903141F480919806833021F47092BC
:101BF000280460922704809198068093EA069F5FEC
:101C00009093E90681E00E9473048091EB06909125
:101C1000EC068456924039F40E9479038091E906DB
:101C200084508093E9068091EB069091EC068F3FFB
:101C3000910589F084F08FEF90E09093EC0680930B
:101C4000EB066091E90670E06E5F7F4F4091EA0617
:101C500050E00E943D038091270490912804019751
:101C6000E091C707F091C807E80FF91F8091EB06D4
:101C70008083E0912704F0912804EC56FB4F80917B
:101C8000EB068083B6CEAF92BF92CF92DF92EF92F7
:101C9000FF920F931F93CF93DF93C1E0D0E048E012
:101CA000A42E01E039E0B32EE12C22E0F22E9FEFCA
:101CB000C92ED12CD0932804C09327048DEE96E032
:101CC00087D68DEE96E060E040E05AD68DEE96E045
:101CD00068E473E00E9495208DEE96E06EE042E0AD
:101CE0004FD68DEE96E06DEE72E00E9495208DEE5F
:101CF00096E06EE043E044D68DEE96E06FE273E04E
:101D00000E9495208DEE96E060E042E039D68DEE9F
:101D100096E069E573E00E9495208DEE96E062E022
:101D200043E02ED68DEE96E066E673E00E949520A5
:101D30008091950490E069E070E043E050E00E94FB
:101D40003D03A092970682E080939806E9E9F6E0C9
:101D5000DF0198961082148A1C9254961C92549714
:101D60003196119626E0ED3AF207A1F7048F00AB09
:101D700001A305AB80E060E070E0BAD880919706DF
:101D8000883009F04EC010919806123009F049C011
:101D9000809127049091280469E070E042E050E0CF
:101DA0000E943D031093EA06B092E90680E00E948B
:101DB00073048091EB069091EC068150924064F0A0
:101DC000F092EC06E092EB0680E092E069E070E0D1
:101DD00042E050E00E943D038091EB069091EC06BA
:101DE0001816190664F0D093EC06C093EB0681E058
:101DF00090E069E070E042E050E00E943D03E09135
:101E0000EB06F091EC06F0932804E0932704EC56DF
:101E1000FB4F808190E069E070E043E050E00E9479
:101E20003D0380919706883009F041C08091980663
:101E3000833009F09FCF8093EA06B092E90681E0F3
:101E40000E9473048091EB069091EC0684569240B8
:101E500011F40E9479038091EB069091EC068F3F7C
:101E6000910569F064F0D092EC06C092EB068FEF1A
:101E700090E069E070E043E050E00E943D03809113
:101E80002704909128040197E091C707F091C807B3
:101E9000E80FF91F8091EB068083E0912704F09111
:101EA0002804EC56FB4F8091EB06808363CF8D3086
:101EB00009F060CF80919806833011F4CDDAFACE24
:101EC000823009F057CF31DC55CF2F923F924F929D
:101ED0005F926F927F928F929F92AF92BF92CF92BA
:101EE000DF92EF92FF920F931F93DF93CF93CDB7C3
:101EF000DEB728970FB6F894DEBF0FBECDBF8DEECC
:101F000096E066D58DEE96E060E040E039D58DEE46
:101F100096E06DE673E00E9495208DEE96E063E01A
:101F200041E02ED58DEE96E06AE773E00E949520A1
:101F30008DEE96E060E042E023D58DEE96E06AE813
:101F400073E00E9495208DEE96E060E043E018D5A6
:101F50008DEE96E06EE973E00E94952081E090E0BE
:101F600069E070E041E050E00E943D0381E090E0D4
:101F700069E070E042E050E00E943D0380E090E0C4
:101F800069E070E043E050E00E943D0388E0809308
:101F9000970681E08093980621E030E040E050E031
:101FA00029833A834B835C83A1E08A2E912CA12C58
:101FB000B12C442455243201E9E9F6E0DF0198967A
:101FC0001082148A1C9254961C9254973196119642
:101FD00036E0ED3AF307A1F741E04087448F40AB8C
:101FE00042A346AB80E060E070E00E9478078091F9
:101FF00097068E3029F480919806823009F495DB9B
:10200000809197068E3009F0A6C0809198068330A3
:1020100009F0BCC08D829E828DEE96E06FE043E0B9
:10202000AFD48DEE96E063EB73E00E94952080E0E4
:1020300090E0FC01EC56FB4F1082E091C707F09155
:10204000C807E80FF91F1082019652E0813095070A
:1020500081F78D819E819C016901F4E92F2EF4E0C6
:102060003F2E280C391C59C08F819885019698877E
:102070008F838451954009F055C00894E11CF11CF0
:10208000011D111D29813A814B815C81E216F30605
:102090000407150709F044C0C601AA2797FDA095BB
:1020A000BA2F481659066A067B0624F48D819E8154
:1020B0009C016901C60169E070E040E050E00E94C7
:1020C0003D03D101A50194010EC0C9010197E09122
:1020D000C707F091C807E80FF91F10821D922F5F04
:1020E0003F4F4F4F5F4F42165306640675066CF71D
:1020F0000894C108D108E091C707F091C807EC0D1A
:10210000FD1D0894C11CD11C3FEF3083F601EC5635
:10211000FB4F30830894C11CD11CEE24FF2487019F
:1021200018861F82809131040E94401F019709F494
:102130009BCF8DEE96E06FE043E022D48DEE96E0EB
:1021400069EB73E00E9495206CE271E080E090E022
:102150000E94B81C31CF8830C9F480919806813034
:10216000A9F48093EA0649E04093E90680E00E94E2
:1021700073048091EB069091EC069C01442737FD97
:102180004095542F29833A834B835C838091970633
:102190008830F1F5809198068230D1F58093EA0677
:1021A00039E03093E90680E00E9473048091EB06E9
:1021B0009091EC064C01AA2497FCA094BA2C8114AF
:1021C0009104A104B10471F481E090E069E070E051
:1021D00042E050E00E943D03E1E08E2E912CA12CC4
:1021E000B12C16C041E0841642E0940640E0A406FB
:1021F00040E0B4066CF080E092E069E070E042E01C
:1022000050E00E943D03812C72E0972EA12CB12C4E
:1022100080919706883009F0CFCE80919806833060
:1022200009F0CACE8093EA0659E05093E90680E0AF
:102230000E9473048091EB069091EC062C016624B9
:1022400057FC6094762C411451046104710471F4BC
:1022500081E090E069E070E043E050E00E943D03DF
:1022600061E0462E512C612C712CA6CE81E04816DF
:1022700082E0580680E0680680E078060CF49CCE88
:1022800080E092E069E070E043E050E00E943D03AE
:10229000412C52E0552E612C712C8ECE2F923F9204
:1022A0004F925F926F927F928F929F92AF92BF9266
:1022B000CF92DF92EF92FF920F931F93DF93CF9312
:1022C000CDB7DEB728970FB6F894DEBF0FBECDBFEF
:1022D00081E090E098878F83662477244301AA24C5
:1022E000BB246501AFEFB0E0BA83A9838DEE96E021
:1022F0006FD38DEE96E063E040E042D38DEE96E042
:102300006FEB73E00E9495208DEE96E060E041E077
:1023100037D38DEE96E065EC73E00E9495208DEE4C
:1023200096E060E042E02CD38DEE96E068ED73E03D
:102330000E9495208DEE96E060E043E021D38DEE83
:1023400096E06DEE73E00E94952089819A8169E0A4
:1023500070E040E050E00E943D038F81988569E085
:1023600070E041E050E00E943D03C30169E070E08D
:1023700042E050E00E943D03C50169E070E043E0A7
:1023800050E00E943D03B8E0B09397061092980683
:10239000E9E9F6E0DF0198961082148A1C925496BF
:1023A0001C9254973196119626E0ED3AF207A1F768
:1023B00081E0808780AB848F858781A385AB809304
:1023C000A10680E060E070E00E94780780919706A7
:1023D0008D3029F480919806813009F4A6D9809136
:1023E00097068D3009F08EC080919806823011F4E6
:1023F00033D87CCF833009F0B9C0C601B501A40140
:1024000093010E949720615072408040904054F0A8
:102410008DEE96E06DE040E0B3D28DEE96E061E0A7
:1024200074E06DC08DEE96E06DE040E0A9D28DEED7
:1024300096E069E074E00E94952091E0E92EF12C8D
:10244000012D112D8F819885AA2797FDA095BA2F70
:102450008B839C83AD83BE8343C091E0E916F10476
:102460000105110509F030C12B803C804D805E8054
:10247000A1E02A16A2E03A06A0E04A06A0E05A0629
:1024800034F02618370848085908860175018DEE82
:1024900096E061E140E074D28DEE96E0B201A101D8
:1024A0002AE030E00E94452065E070E080E090E0A6
:1024B0000E94B81CC10101972091C7073091C8073D
:1024C000280F391F8981F901808391012C563B4FD8
:1024D000E981D901EC930894E11CF11C011D111D47
:1024E000AE14BF04C006D1060CF0B7CF8DEE96E057
:1024F0006DE040E045D28DEE96E061E174E00E942F
:10250000952046CF883091F580919806813071F5FD
:102510008093EA06F9E0F093E90680E00E947304F4
:102520008091EB069091EC0698878F83892B69F454
:1025300081E090E069E070E041E050E00E943D03FE
:10254000A1E0B0E0B887AF8311C0EF81F885E1501A
:10255000F24064F080E092E069E070E041E050E039
:102560000E943D0380E092E098878F8380919706D8
:102570008830F1F5809198068230D1F58093EA0693
:1025800099E09093E90680E00E9473048091EB0645
:102590009091EC063C01882477FC8094982C61147F
:1025A00071048104910471F481E090E069E070E0CD
:1025B00042E050E00E943D0381E0682E712C812CA6
:1025C000912C16C0A1E06A16A2E07A06A0E08A0665
:1025D000A0E09A066CF080E092E069E070E042E0F2
:1025E00050E00E943D03612C02E0702E812C912C62
:1025F000809197068830F1F5809198068330D1F567
:102600008093EA06B9E0B093E90680E00E94730483
:102610008091EB069091EC065C01CC24B7FCC09451
:10262000DC2CA114B104C104D10471F481E090E068
:1026300069E070E043E050E00E943D0311E0A12E0C
:10264000B12CC12CD12C16C0E1E0AE16E2E0BE06E2
:10265000E0E0CE06E0E0DE066CF080E092E069E0CB
:1026600070E043E050E00E943D03A12CB2E0BB2E9D
:10267000C12CD12C80919706883009F089CE8091A9
:102680009806882309F084CE1092EA06F9E0F093C8
:10269000E90681E00E9473048091EB069091EC06BC
:1026A0009A8389838F3F910509F00CF471CE8FEFE7
:1026B00090E069E070E040E050E00E943D03AFEF41
:1026C000B0E0BA83A98364CE260C371C481C591C81
:1026D000CFCE8DEE96E07CD18DEE96E060E040E0CE
:1026E0004FD18DEE96E065E174E00E9495208DEE6D
:1026F00096E062E042E044D18DEE96E066EB72E057
:102700000E9495208DEE96E069E042E039D18DEE91
:1027100096E061EB72E00E9495208DEE96E06FE00E
:1027200042E02ED18DEE96E06CEB72E00E94952097
:1027300081E08093970682E080939806E9E9F6E0CD
:10274000DF0198961082148A1C9254961C9254971A
:102750003196119686E0ED3AF807A1F781E0858B76
:10276000848F82A380E060E070E00E94780780910F
:102770009706883041F480919806823021F40E94B7
:102780008C060E94950B809197068E3041F48091C3
:102790009806823021F40E94D1060E94950B809108
:1027A0009706813031F480919806823011F40C94B0
:1027B000950B08951F9384EC97E061E072E053D588
:1027C000182F80915404612F70E00E947D1D112309
:1027D00019F41092040703C081E0809304071F914D
:1027E000089582E061E00E940E1FE4DF0E94FD0573
:1027F00070CF8091250461E00E945B1E80912904C6
:1028000062E00E945B1E80912B0462E00E945B1ECE
:1028100080912D0462E00E945B1E80912F0462E093
:102820000E945B1E8091310462E00E945B1E8091D9
:10283000330461E00E945B1E8091350461E00E94D8
:102840005B1E8091370461E00E945B1E8091390419
:1028500061E00E945B1E80913B0462E00E945B1E6F
:1028600080913D0462E00E945B1E80913F0462E023
:102870000E945B1E8091410462E00E945B1E809179
:10288000330461E00E940E1F8091350461E00E94D4
:102890000E1F8091370461E00E940E1F8091390461
:1028A00061E00E940E1F8091480461E00E945B1E5F
:1028B00080914A0461E00E945B1E8091520461E0B5
:1028C0000E945B1E8091500461E00E945B1E80911B
:1028D0004E0461E00E945B1E80914C0461E00E9406
:1028E0005B1E8091540461E00E945B1E8DEE96E0B9
:1028F00064E144E020E072D081E090E09093DD0755
:102900008093DC0780E092E09093D9078093D8070A
:1029100085EC97E060E00BC608950895FC011382F2
:10292000128280E694E0918380830895FC01A08167
:10293000B18118962D913C9119976FEFF901199576
:102940000895DC01ED91FC910284F385E02D40E0D7
:1029500019950895FC016581862F816085836960E2
:10296000CF01EFCFFC0165816E7F65836860E9CFA1
:10297000FC016581862F846085836C60CF01E1CF87
:10298000DC0117969C911797491710F0492F415079
:1029900018968C911897803139F4943029F4E42FEB
:1029A000F0E0E459FB4F04C0E42FF0E0E059FB4FA6
:1029B0008081680F6068CD01C4CFDC01ED91FC918E
:1029C0000284F385E02D41E0199581E090E00895BF
:1029D00061E0B7DF80ED97E00C94111DCF93DF939A
:1029E000EC01423018F08C8188608C834F836887BB
:1029F000222329F0413019F48C8184608C8364E6B1
:102A000070E080E090E0B4D76C8164FD2EC0E88176
:102A1000F9810284F385E02DCE0163E042E019954F
:102A200084E991E1FED7E881F9810284F385E02D04
:102A3000CE0163E042E0199584E991E1F2D7E881A3
:102A4000F9810284F385E02DCE0163E042E019951F
:102A500086E990E0E6D7E881F9810284F385E02DEC
:102A6000CE0162E042E0199511C06062CE0169DFDB
:102A700084E991E1D6D76C816062CE0162DF86E99C
:102A800090E0CFD76C816062CE015BDF6C816062C9
:102A9000CE0157DF84E08D83CE016ADFCE0198DF5F
:102AA00082E08E83CE0166E04CDFCE013FDFDF9116
:102AB000CF9108950F931F938C01FC01858561E0F0
:102AC0000E940E1FF801858560E00E940E1F1F9175
:102AD0000F910895BF92CF92DF92EF92FF920F93E2
:102AE0001F93CF93DF93D82EC92EB42E282F392FC2
:102AF000C9018C01C0E0D0E0E62EFF240DC0B70173
:102B00000C2E02C0759567950A94E2F76170F80182
:102B100085850E940E1F21960F5F1F4FCB1578F3FE
:102B20008D2D9C2DC7DFDF91CF911F910F91FF90CD
:102B3000EF90DF90CF90BF9008950F931F93CF93A6
:102B4000DF93EC01162F042F60E0413009F461E0BF
:102B50008B850E940E1F8C858F3F19F060E00E94CC
:102B60000E1F023089F08C8184FF04C0CE01612FDA
:102B700048E00DC0612F70E084E0759567958A95F7
:102B8000E1F7CE0144E0A6DFCE01612F44E0A2DFF1
:102B9000DF91CF911F910F9108956F927F928F9245
:102BA000AF92CF92EF920F931F93DF93CF93CDB756
:102BB000DEB73C01162F8E2DF3014387248705874E
:102BC000E686C786A08A818A9E85928B9F85938B95
:102BD0009889948B9989958B61E00E945B1EF30123
:102BE000878561E00E945B1EF301808961E00E949D
:102BF0005B1EF301818961E00E945B1E1123A1F439
:102C0000F301828961E00E945B1EF301838961E028
:102C10000E945B1EF301848961E00E945B1EF30148
:102C2000858961E00E945B1EF301838561E00E945B
:102C30005B1EF30184858F3F19F061E00E945B1EEB
:102C4000F301858561E00E945B1E112319F0F301F9
:102C5000148203C080E1F3018483F301838560E083
:102C60000E940E1FF301858560E00E940E1FF30194
:102C700084858F3F19F060E00E940E1F8FEFF301F3
:102C8000868B12861186CF91DF911F910F91EF9065
:102C9000CF90AF908F907F906F900895DF92EF92DA
:102CA000FF920F931F938C01D62E7A01862F61E03D
:102CB0000E945B1ED8015696DC9256971A96FC929B
:102CC000EE921997ED91FC910084F185E02DC801F9
:102CD00060E019951F910F91FF90EF90DF9008959C
:102CE000DC01362F56962C9156972F3F49F1E22F53
:102CF000F0E0E254FE4FE491EE2379F019968D91C5
:102D00009C911A97892B19F4822F70E005C06FEF00
:102D100070E0631B7109822FF0C619968D919C910A
:102D20001A97662319F0892B39F402C0019721F410
:102D3000822F61E00C940E1F822F60E00C940E1F16
:102D400008956F927F928F92AF92BF92CF92DF924F
:102D5000EF92FF920F931F933C01162FF42ED22E69
:102D6000B02EAE2C8C2CDADD88E794E0D3018D9365
:102D70009C9300D00F92EDB7FEB73196ADB7BEB7BA
:102D800011961C92118212821382C30161E0412FBD
:102D90002FEF0F2DED2CCB2C00DF0F900F900F900D
:102DA0000F901F910F91FF90EF90DF90CF90BF9009
:102DB000AF908F907F906F9008952091260730E01C
:102DC00080912507281B3109C901089540912507E5
:102DD00080912607481718F02FEF3FEF0AC0E42F25
:102DE000F0E0EB5FF84F8081282F30E04F5F409399
:102DF0002507C9010895E091250780912607E81766
:102E000018F0EFEFFFEF06C0F0E0EB5FF84F8081C6
:102E1000E82FF0E0CF010895089510924D07109229
:102E20004C0788EE93E0A0E0B0E080934E079093CB
:102E30004F07A0935007B093510788E894E0909310
:102E40004B0780934A070895CF92DF92EF92FF924B
:102E50000F931F93CF93DF937C016B018A018091C5
:102E600049078823A1F0C0E0D0E00DC0D701ED9163
:102E7000FC91D601AC0FBD1F0190F081E02DC70180
:102E80006C9119952196C017D10780F303C0CB012F
:102E9000642F39D0C801DF91CF911F910F91FF901E
:102EA000EF90DF90CF900895DF93CF930F92CDB73F
:102EB000DEB7FC016983809149078823C9F08091BE
:102EC0004807803238F081E090E09383828320E0ED
:102ED00030E014C080914707E82FF0E0E95DF84F3B
:102EE000998190838F5F809347078093480704C040
:102EF000CE01019661E007D021E030E0C9010F90DA
:102F0000CF91DF910895482F613210F081E008954C
:102F100080915607843011F082E008956093A107F4
:102F2000A0E8B7E0842F9C01F90102C081918D9344
:102F30008E2F841B8617D0F380E008951F920F9286
:102F40000FB60F920BB60F9211242F933F934F930E
:102F50005F936F937F938F939F93AF93BF93EF9301
:102F6000FF938091B90090E0887F90708036910542
:102F700009F4F2C081369105CCF58832910509F447
:102F80007BC089329105B4F48031910509F46FC09A
:102F9000813191053CF4009709F447C1089709F085
:102FA0004FC165C08831910509F466C0809709F06A
:102FB00047C182C08034910509F4A4C081349105D1
:102FC00044F48033910509F482C0C89709F038C1F0
:102FD00089C08035910509F489C08835910509F4C7
:102FE00096C08834910509F02BC1AEC0883991058F
:102FF00009F413C189399105ECF48837910509F476
:10300000ABC0893791054CF48836910509F4A4C00A
:103010008037910509F014C19FC08838910509F4E3
:10302000FCC08039910509F49DC08038910509F0F4
:1030300007C198C0803B910509F4C6C0813B91054A
:103040004CF4803A910509F49FC0883A910509F043
:10305000F7C0BAC0803C910509F4E3C0883C9105F3
:1030600009F4DFC0883B910509F0EAC0C2C0809135
:1030700057078093BB00CFC090917E0780917F0758
:10308000981768F490917E07E92FF0E0E25AF84F24
:1030900080818093BB009F5F90937E07BCC080912E
:1030A0005807882309F44BC085ED8093BC008091BC
:1030B000BC0084FDFCCFC2C080E28093C30785EDD5
:1030C0008093BC008091BC0084FDFCCFB7C080E33E
:1030D0008093C30785ED8093BC008091BC0084FD84
:1030E000FCCFACC088E38093C3079BC080917E0770
:1030F0009091BB00E82FF0E0E25AF84F90838F5F89
:1031000080937E0790917E0780917F0782C0809197
:103110007E079091BB00E82FF0E0E25AF84F9083D1
:103120008F5F80937E0780915807882341F085ED5B
:103130008093BC008091BC0084FDFCCF7FC081E007
:103140008093590784EA6EC085ED8093BC0080911E
:10315000BC0084FDFCCF72C083E0809356071092C0
:10316000C20759C08091C207803208F056C08091D2
:10317000C2079091BB00E82FF0E0EE55F84F908326
:103180008F5F8093C20747C08091C207803230F4BE
:10319000E091C207F0E0EE55F84F108285ED809384
:1031A000BC008091BC0084FDFCCF1092560760915A
:1031B000C207E0915C07F0915D0782EA97E070E05A
:1031C00019951092C2072DC084E080935607109283
:1031D000A0071092A107E0915A07F0915B0719959B
:1031E0008091A107882329F481E08093A1071092A0
:1031F00080079091A007E92FF0E0E058F84F808118
:103200008093BB009F5F9093A0079091A00780914F
:10321000A107981710F485EC01C085E88093BC00E5
:103220000FC085EC8093BC0009C01092C30785EDE8
:103230008093BC008091BC0084FDFCCF10925607A7
:10324000FF91EF91BF91AF919F918F917F916F917E
:103250005F914F913F912F910F900BBE0F900FBE3A
:103260000F901F901895F999FECF72BD61BDF89A25
:1032700080B50895F999FECF1FBA72BD61BD40BDFA
:103280000FB6F894FA9AF99A0FBE0895FC01838557
:10329000882331F48091C10087728093C100089522
:1032A000813031F48091C90087728093C9000895FC
:1032B000823031F48091D10087728093D1000895DB
:1032C000833029F480913101877280933101089510
:1032D0001F920F920FB60F920BB60F9211242F93DD
:1032E0003F934F935F936F937F938F939F93AF938E
:1032F000BF93EF93FF938091C0008093CD073091EF
:10330000C6003093CE072091C9072093CF0784FFD2
:1033100010C08091C0008F7E8093C0008091DA073A
:103320009091DB079093D3078093D20781E080933D
:10333000C907213091F4332369F482E08093C907EF
:103340008091C5079091C60701969093CB07809313
:10335000CA074BC01092C90748C02230A1F480911F
:10336000D2079091D30701979093D3078093D20708
:10337000892BD9F583E08093C907E091C507F091C7
:10338000C607308332C0233081F5E091CA07F0913F
:10339000CB07F093E807E093E70730834091E70716
:1033A0005091E8074F5F5F4F5093E8074093E7075E
:1033B0008091C5079091C6072091D6073091D70715
:1033C000820F931F4817590760F01092C907E091C8
:1033D000EB07F091EC07309741F08091D0071995F9
:1033E00004C05093CB074093CA07FF91EF91BF9160
:1033F000AF919F918F917F916F915F914F913F918D
:103400002F910F900BBE0F900FBE0F901F9018952D
:103410001F920F920FB60F920BB60F9211242F939B
:103420003F934F935F936F937F938F939F93AF934C
:10343000BF93EF93FF938091D1078093E607882392
:1034400061F41092C5008091E3078093C40010924C
:10345000C60081E08093D10740C0813081F4109292
:10346000C5008091E2078093C4001092C60082E0FC
:103470008093D1071092D5071092D4072EC0809167
:10348000D4079091D5079093E5078093E407E091E6
:10349000C707F091C807E80FF91F20812093C600E5
:1034A0009C012F5F3F4F3093E5072093E407809105
:1034B000D8079091D9072817390759F4E091E907FF
:1034C000F091EA07309711F080E019951092D1073A
:1034D00004C03093D5072093D407FF91EF91BF919B
:1034E000AF919F918F917F916F915F914F913F919C
:1034F0002F910F900BBE0F900FBE0F901F9018953D
:1035000021E030E03093DB072093DA0788E090E099
:103510009093D7078093D6073093DD072093DC077D
:103520009093D9078093D8071092D00708951F93DE
:10353000CF93DF93EC01162FF894A8DE1C8F112394
:1035400021F487E08D8F84E10BC0113021F483E0FA
:103550008D8F8AE005C0123021F481E08D8F85E0E7
:103560008E8F8B8D8F3F29F061E0A5D38B8D61E02D
:1035700055D48B858823D1F481E061E09CD31092EF
:10358000C5008D8D8093C4008091C00082608093BF
:10359000C0008091C2008E608093C2008091C10003
:1035A00088648093C1001092C60053C08130D1F46A
:1035B00082E161E080D31092CD008D8D8093CC00AC
:1035C0008091C80082608093C8008091CA008E609C
:1035D0008093CA008091C90088648093C9001092CA
:1035E000CE0037C08230D1F480E161E064D3109224
:1035F000D5008D8D8093D4008091D000826080931F
:10360000D0008091D2008E608093D2008091D10052
:1036100088648093D1001092D6001BC08330C9F417
:103620008EE061E048D3109235018D8D8093340196
:1036300080913001826080933001809132018E60F0
:10364000809332018091310188648093310110921E
:10365000360181E08C878B899C890DD08A839B837E
:103660004B895C8960E070E00E9433017894DF91BF
:10367000CF911F9108950F931F93CF93DF93BC01B8
:103680008230910510F462E070E0E091F807F0916B
:10369000F90740E050E0A0E0B0E024C080819181D3
:1036A00086179707D0F08617970771F48281938168
:1036B000109729F013969C938E9312972CC0909399
:1036C000F9078093F80727C04115510519F08417B1
:1036D000950718F48D01AC01EF01DF018281938120
:1036E0009C01F9013097D1F641155105F9F0CA0155
:1036F000861B970B8430910580F48A819B8101158C
:10370000110521F0F8019383828304C09093F90797
:103710008093F807FE01329645C0FE01E80FF91FBD
:10372000619371930297998388833CC08091F607D7
:103730009091F707892B41F4809158049091590496
:103740009093F7078093F60740915A0450915B04D9
:103750004115510541F44DB75EB7809156049091E3
:103760005704481B590B2091F6073091F70724178F
:103770003507B0F4CA01821B930B8617970780F0B8
:10378000AB014E5F5F4F8417950750F0420F531FF8
:103790005093F7074093F607F9016193719302C0C4
:1037A000E0E0F0E0CF01DF91CF911F910F910895FC
:1037B000CF93DF939C01009709F48FC0EC0122970F
:1037C0001B821A826091F8077091F90761157105E3
:1037D00081F488819981820F931F2091F60730919F
:1037E000F7072817390739F5D093F707C093F6077D
:1037F00074C0DB0140E050E0AC17BD0708F1BB83AB
:10380000AA83FE0121913191E20FF31FAE17BF078A
:1038100079F48D919C911197280F391F2E5F3F4F9E
:103820003983288312968D919C9113979B838A8369
:103830004115510571F4D093F907C093F8074DC0B5
:1038400012968D919C911397AD01009711F0DC01B8
:10385000D3CFDA011396DC93CE931297FA0121911C
:103860003191E20FF31FCE17DF0769F48881998148
:10387000280F391F2E5F3F4FFA01318320838A8141
:103880009B8193838283E0E0F0E0DB0112968D91CF
:103890009C911397009719F0BC01FD01F6CFAB0185
:1038A0004E5F5F4FDB018D919C91840F951F20919E
:1038B000F6073091F7072817390779F4309729F47C
:1038C0001092F9071092F80702C013821282425038
:1038D00050405093F7074093F607DF91CF9108953A
:1038E0001F920F920FB60F9211242F933F938F9335
:1038F0009F93AF93BF938091F1079091F207A091AE
:10390000F307B091F4073091F5070196A11DB11DA1
:10391000232F2D5F2D3720F02D570196A11DB11DAE
:103920002093F5078093F1079093F207A093F30794
:10393000B093F4078091ED079091EE07A091EF0707
:10394000B091F0070196A11DB11D8093ED079093F2
:10395000EE07A093EF07B093F007BF91AF919F914F
:103960008F913F912F910F900FBE0F901F90189540
:103970009B01AC017FB7F8948091ED079091EE0721
:10398000A091EF07B091F00766B5A89B05C06F3F07
:1039900019F00196A11DB11D7FBFBA2FA92F982F35
:1039A0008827860F911DA11DB11D62E0880F991F08
:1039B000AA1FBB1F6A95D1F7BC012DC0FFB7F894B1
:1039C0008091ED079091EE07A091EF07B091F0077D
:1039D000E6B5A89B05C0EF3F19F00196A11DB11DEA
:1039E000FFBFBA2FA92F982F88278E0F911DA11DD9
:1039F000B11DE2E0880F991FAA1FBB1FEA95D1F7FE
:103A0000861B970B885E9340C8F22150304040409F
:103A1000504068517C4F211531054105510571F623
:103A20000895019739F0880F991F880F991F029701
:103A30000197F1F70895789484B5826084BD84B5C8
:103A4000816084BD85B5826085BD85B5816085BD99
:103A5000EEE6F0E0808181608083E1E8F0E01082B2
:103A6000808182608083808181608083E0E8F0E0F3
:103A7000808181608083E1EBF0E0808184608083DD
:103A8000E0EBF0E0808181608083E1E9F0E080811B
:103A900082608083808181608083E0E9F0E08081C2
:103AA00081608083E1EAF0E08081826080838081B0
:103AB00081608083E0EAF0E0808181608083E1E2E0
:103AC000F1E0808182608083808181608083E0E298
:103AD000F1E0808181608083EAE7F0E080818460AA
:103AE0008083808182608083808181608083808107
:103AF000806880831092C10008951F93CF93DF9355
:103B0000182FEB0161E0D7D0209709F4CAC0CF3F4E
:103B1000D10509F4C9C0E12FF0E0E254FE4F8491D1
:103B2000893009F466C08A30B0F48430F1F1853010
:103B300040F4823059F1833070F5813009F0AEC025
:103B400020C0873009F443C0883008F048C0863070
:103B500009F0A4C034C08D3009F478C08E3038F438
:103B60008B3009F45AC08C3008F066C04CC08031EC
:103B700009F480C0813109F487C08F3009F08EC00C
:103B80006FC084B5806884BDC7BD91C084B58062B4
:103B900084BDC8BD8CC08091800080688093800007
:103BA000D0938900C093880082C080918000806299
:103BB00080938000D0938B00C0938A0078C080915E
:103BC000B00080688093B000C093B30070C0809153
:103BD000B00080628093B000C093B40068C0809150
:103BE0009000806880939000D0939900C0939800D3
:103BF0005EC080919000806280939000D0939B0083
:103C0000C0939A0054C08091900088608093900087
:103C1000D0939D00C0939C004AC08091A000806812
:103C20008093A0008091A0008F7B8093A000D09310
:103C3000A900C093A8003BC08091A000806280933F
:103C4000A000D093AB00C093AA0031C08091A00027
:103C500088608093A000D093AD00C093AC0027C0D3
:103C600080912001806880932001D0932901C09326
:103C700028011DC080912001806280932001D09393
:103C80002B01C0932A0113C080912001886080938A
:103C90002001D0932D01C0932C0109C0C038D1055B
:103CA0001CF4812F60E002C0812F61E0B7D0DF916A
:103CB000CF911F910895CF93DF93482F50E0CA0111
:103CC00088589E4FFC0134914E5C5E4FFA018491FE
:103CD000882369F190E0880F991FFC01EC51FF4F98
:103CE000A591B491FC01E250FF4FC591D491662398
:103CF00051F42FB7F8948C91932F909589238C933E
:103D0000888189230BC0623061F42FB7F8948C91BD
:103D1000932F909589238C938881832B88832FBF41
:103D200006C09FB7F8948C91832B8C939FBFDF9133
:103D3000CF910895893009F449C08A30A0F48430C5
:103D400051F1853040F4823079F1833000F58130D3
:103D500009F063C026C0873079F1883098F5863045
:103D600009F05BC025C08D3009F442C08E3028F4C4
:103D70008B30B1F18C30C0F52DC0803109F442C0D8
:103D8000813109F445C08F3009F047C037C08091B8
:103D900080008F7703C0809180008F7D80938000AA
:103DA000089584B58F7702C084B58F7D84BD089552
:103DB0008091B0008F7703C08091B0008F7D809399
:103DC000B0000895809190008F7707C08091900097
:103DD0008F7D03C080919000877F8093900008952D
:103DE0008091A0008F7707C08091A0008F7D03C0D5
:103DF0008091A000877F8093A0000895809120018A
:103E00008F7703C0809120018F7D809320010895DA
:103E100080912001877F809320010895FF920F9366
:103E20001F93F62E482F50E0CA0182549E4FFC018A
:103E30002491CA0188589E4FFC0114914E5C5E4F3C
:103E4000FA0104910023C1F0222311F0822F72DFC6
:103E5000E02FF0E0EE0FFF1FE250FF4FA591B4916D
:103E60009FB7F894FF2021F48C911095812302C014
:103E70008C91812B8C939FBF1F910F91FF90089580
:103E80000F931F93482F50E0CA0182549E4FFC01AC
:103E90002491CA0188589E4FFC0104914E5C5E4FEC
:103EA000FA011491112319F420E030E014C0222308
:103EB00011F0822F3FDF812F90E0880F991F885EDD
:103EC0009E4FFC01A591B4918C9120E030E08023BD
:103ED00011F021E030E0C9011F910F91089508957C
:103EE000CF93DF93A8DDFBDF0E94F913C0E0D0E0A1
:103EF0000E94F1132097E1F30E940000F9CF08958A
:103F0000CF92DF92EF92FF920F931F93CF93DF93A5
:103F10007C016B018A01C0E0D0E00FC0D6016D9139
:103F20006D01D701ED91FC910190F081E02DC70169
:103F30001995C80FD91F015010400115110571F7CF
:103F4000CE01DF91CF911F910F91FF90EF90DF9005
:103F5000CF900895CF93DF93EC016115710519F4AB
:103F600020E030E00FC0DB010D900020E9F7119751
:103F7000A61BB70BE881F9810280F381E02DAD012A
:103F800019959C01C901DF91CF9108954F925F92DD
:103F90007F928F929F92AF92BF92CF92DF92EF92D9
:103FA000FF920F931F93DF93CF93CDB7DEB7A19707
:103FB0000FB6F894DEBF0FBECDBF2C01742ECB011F
:103FC000223008F42AE019A231E2C32ED12CCC0E03
:103FD000DD1E822E9924AA24BB24672D752FA501EE
:103FE0009401C4D079018A01C801B701A5019401E7
:103FF0009ED0472D461B0894C108D1084A3014F4BE
:10400000405D01C0495CF6014083E114F104010503
:10401000110521F07E2C5F2DC801DFCFC201B60152
:1040200099DFA1960FB6F894DEBF0FBECDBFCF913A
:10403000DF911F910F91FF90EF90DF90CF90BF9095
:10404000AF909F908F907F905F904F900895DC018C
:104050002115310541F4ED91FC910190F081E02DA5
:10406000642F1995089592CFEF92FF920F931F93AB
:104070009A01E62EFF2400E010E0B801A701E7DF77
:104080001F910F91FF90EF900895CF92DF92EF92E2
:10409000FF920F931F93CF93DF93EC016A017B0193
:1040A0002115310541F4E881F9810190F081E02D7D
:1040B000642F19951DC02A303105C9F477FF16C049
:1040C000E881F9810190F081E02D6DE219958C0174
:1040D00044275527BA014C195D096E097F09CE01A5
:1040E0002AE054DF9801280F391F03C02AE04EDF71
:1040F0009C01C901DF91CF911F910F91FF90EF902B
:10410000DF90CF900895EF92FF920F931F937B0162
:104110009A010027F7FC0095102FB801A701B5DF21
:104120001F910F91FF90EF90089514CF0895629F13
:10413000D001739FF001829FE00DF11D649FE00D9F
:10414000F11D929FF00D839FF00D749FF00D659F00
:10415000F00D9927729FB00DE11DF91F639FB00DFF
:10416000E11DF91FBD01CF0111240895A1E21A2E0E
:10417000AA1BBB1BFD010DC0AA1FBB1FEE1FFF1F0B
:10418000A217B307E407F50720F0A21BB30BE40B5B
:10419000F50B661F771F881F991F1A9469F76095A2
:1041A0007095809590959B01AC01BD01CF0108955C
:1041B000EE0FFF1F0590F491E02D1994F894FFCFB6
:1041C00030303000202020005F5F5F004D656D6F54
:1041D000727920456D70746965642100687474702B
:1041E0003A2F2F676F6F2E676C2F6B64596C6A378D
:1041F0000041726475696E6F20444D582D3531321F
:1042000000546573746572202620436F6E74726F5C
:104210006C6C6572004669726D2076002E004861F4
:1042200072642076004D656D6F7279204C6F616409
:10423000656421004D656D6F727920436C65616E18
:10424000656421004D656D6F7279205361766564F8
:1042500021003E002B002D2D2D0020004D656D6F9F
:104260007279204F7074696F6E733A00536176658E
:10427000004C6F616400456D70747900436C65613A
:10428000720043616E63656C00436F6E6669673AE6
:10429000004C4344204261636B4C696768743A0088
:1042A00064696D6D657220302D323535004374724E
:1042B0006C0041626F757400436F6E74726F6C2096
:1042C0004F7074696F6E733A00556E6974617279DC
:1042D000004D617472697800436861736572004DC6
:1042E000756C7469706C7900436F6E666967004D18
:1042F000656D6F727900432D2D2D204D656D204326
:104300007472202020202D00556E6974617279200E
:10431000436F6E74726F6C3A004368616E6E656CC9
:104320003A203030310056616C75653A004368615F
:104330007365724348202D2D2D0044656C617920F2
:104340002020207831303D6D53004669727374200F
:104350004348202020202020204374726C004669AE
:104360006E616C204348202020202020205374615F
:1043700072740053746F702000537461727400562D
:10438000616C756500466972737420434820202073
:104390002020204374726C004D756C7469706C79C8
:1043A0002020202020204D656D6F727900517561AD
:1043B0006E746974792020202020204170706C79FF
:1043C000004572726F7221200020202020202020C2
:1043D000004F6B2100496E697469616C204D656DF9
:1043E0006F72793A000200010033002D0035003170
:1043F000002F002400220020001E002C002A00288C
:104400000026001164000000080009000A000B00EB
:104410000C000D0003008000FA07000000000000FF
:10442000DD14801FEE148C148D147F1F004010507B
:104430000040145400000000DD14801FEE144E16DE
:1044400070169D150000000054172417DD16E6169F
:04445000FB160C1734
:00000001FF
