:1000000004C100002FC100002DC100002BC1000061
:1000100029C1000027C1000025C1000023C1000044
:1000200021C100001FC100001DC100001BC1000054
:1000300019C1000017C1000015C1000013C1000064
:1000400011C100000FC100000DC100000BC1000074
:1000500009C1000007C1000005C100000C94111C7B
:1000600001C100000C940919FDC000000C94A919ED
:10007000F9C00000F7C00000F5C00000F3C00000A8
:10008000F1C00000EFC00000EDC00000EBC00000B8
:10009000E9C00000E7C00000E5C000000C943F1775
:1000A000E1C00000DFC00000DDC00000DBC00000D8
:1000B000D9C00000D7C00000D5C00000D3C00000E8
:1000C000D1C00000CFC00000CDC00000CBC00000F8
:1000D000C9C00000C7C00000C5C00000C3C0000008
:1000E000C1C0000000002100240027002A002D00CC
:1000F0003000330001010000040107010A01000083
:100100002200250028002B002E00310034000201BF
:100110000000050108010B0100002000230026005B
:1001200029002C002F00320000010000030106010D
:10013000090105050505070508080808020202026D
:100140000A0A080804040404010101010101010173
:100150000303030303030303040707070C0C0C0C3E
:100160000C0C0C0C02020202060606060606060627
:100170000B0B0B0B0B0B0B0B0102102020080810B4
:100180002040102040800201020108040201010207
:1001900004081020408080402010080402018004E0
:1001A000020180402010080402010804020101023B
:1001B0000408102040800102040810204080000044
:1001C000090A02080B0C0D070603040100000000D9
:1001D000000000000000000000000000000000001F
:1001E0000000000000000000000011100F000000DF
:1001F00000000000000000000000000000000000FF
:10020000000000003A01AE16211A11241FBECFEFE4
:10021000D1E2DEBFCDBF00E00CBF14E0A0E0B2E051
:10022000E2E0F1E400E00BBF02C007900D92AC38B1
:10023000B107D9F71BBE17E0ACE8B4E001C01D92CE
:10024000A23FB107E1F712E0CAE0D2E004C0229772
:10025000FE010E947B20C430D107C9F70E94111F04
:100260000C947F20CDCEDC0101C06D9341505040F5
:10027000E0F70895CF92EF920F9385EE96E06091AC
:100280004004409142042091440400914604E090CF
:100290004804C0904A040E9442160F91EF90CF90FC
:1002A00008953F924F925F926F927F928F929F92AA
:1002B000AF92BF92CF92DF92EF92FF920F931F9374
:1002C00081E180933B0455245394B4E04B2EA7E086
:1002D0003A2EFFE09F2EE2E08E2E75E0772E68E04A
:1002E000662E53E0D52E46E0C42E39E0B32E2EE024
:1002F000A22E1AE00BE09CE0F92E8DE0E82EA8C1BA
:1003000080912B0460E00E94AF1E809133040E9414
:10031000E11E892B61F450923B0460913C04709182
:100320003D0480913E0490913F040E94591C65E079
:1003300070E080E090E00E94591C809135040E949A
:10034000E11E892B61F440923B0460913C04709162
:100350003D0480913E0490913F040E94591C65E049
:1003600070E080E090E00E94591C809137040E9468
:10037000E11E892B61F430923B0460913C04709142
:100380003D0480913E0490913F040E94591C65E019
:1003900070E080E090E00E94591C809139040E9436
:1003A000E11E892B61F490923B0460913C047091B2
:1003B0003D0480913E0490913F040E94591C65E0E9
:1003C00070E080E090E00E94591C80912B0461E075
:1003D0000E94AF1E80912D0460E00E94AF1E8091AC
:1003E00033040E94E11E892B61F480923B046091EA
:1003F0003C0470913D0480913E0490913F040E9422
:10040000591C65E070E080E090E00E94591C8091EA
:1004100035040E94E11E892B61F470923B046091C7
:100420003C0470913D0480913E0490913F040E94F1
:10043000591C65E070E080E090E00E94591C8091BA
:1004400037040E94E11E892B61F460923B046091A5
:100450003C0470913D0480913E0490913F040E94C1
:10046000591C65E070E080E090E00E94591C80918A
:1004700039040E94E11E892B61F410923B046091C3
:100480003C0470913D0480913E0490913F040E9491
:10049000591C65E070E080E090E00E94591C80915A
:1004A0002D0461E00E94AF1E80912F0460E00E9445
:1004B000AF1E809133040E94E11E892B61F4D0921B
:1004C0003B0460913C0470913D0480913E04909106
:1004D0003F040E94591C65E070E080E090E00E94BB
:1004E000591C809135040E94E11E892B61F4C09251
:1004F0003B0460913C0470913D0480913E049091D6
:100500003F040E94591C65E070E080E090E00E948A
:10051000591C809137040E94E11E892B61F4B0922E
:100520003B0460913C0470913D0480913E049091A5
:100530003F040E94591C65E070E080E090E00E945A
:10054000591C809139040E94E11E892B61F4A0920C
:100550003B0460913C0470913D0480913E04909175
:100560003F040E94591C65E070E080E090E00E942A
:10057000591C80912F0461E00E94AF1E80913104CC
:1005800060E00E94AF1E809133040E94E11E892B1F
:1005900061F410933B0460913C0470913D048091A0
:1005A0003E0490913F040E94591C65E070E080E099
:1005B00090E00E94591C809135040E94E11E892B15
:1005C00061F400933B0460913C0470913D04809180
:1005D0003E0490913F040E94591C65E070E080E069
:1005E00090E00E94591C809137040E94E11E892BE3
:1005F00061F4F0923B0460913C0470913D04809161
:100600003E0490913F040E94591C65E070E080E038
:1006100090E00E94591C809139040E94E11E892BB0
:1006200061F4E0923B0460913C0470913D04809140
:100630003E0490913F040E94591C65E070E080E008
:1006400090E00E94591C8091310461E00E94AF1E2D
:1006500080913B04813109F453CE1F910F91FF909B
:10066000EF90DF90CF90BF90AF909F908F907F9052
:100670006F905F904F903F9008950F931F93CF938B
:10068000DF93EC01162F042F85EE96E00E94611493
:1006900085EE96E060E072E00E943620CA30D10517
:1006A0003CF4612F6E5F85EE96E0402F0E9461144E
:1006B000CE010A978A35910538F4612F6F5F85EE78
:1006C00096E0402F0E946114C436D10534F085EEC7
:1006D00096E0612F402F0E94611485EE96E0BE01E6
:1006E0004AE050E00E942420DF91CF911F910F91AA
:1006F00008951F938091310460E00E94AF1E1FEFA8
:100700003EC080911F04909120040197E091BF07A3
:10071000F091C007E80FF91F10836091E10670E0C7
:10072000625070404091E2068FEF90E050E0A5DF0C
:1007300064E670E080E090E00E94591C80911F0404
:10074000909120040197E091BF07F091C007E80F56
:10075000F91F10826091E106625085EE96E04091AB
:10076000E2060E94611485EE96E064E072E00E9469
:10077000362064E670E080E090E00E94591C809191
:1007800037040E94E11E019709F4BBCF8091310428
:1007900061E00E94AF1E85EE96E06091E106409117
:1007A000E2060E9461141F910895CF92DF92EF92AA
:1007B000FF920F931F938C016DE070E040E050E0DA
:1007C0005CDF9EE0C92ED12CC00ED11EC60161E1B6
:1007D00070E040E050E051DF8CE8E82E84E0F82E35
:1007E0000E0D1F1DF801808190E061E070E041E096
:1007F00050E043DFF801818190E065E070E041E086
:1008000050E03BDFF801828190E069E070E041E078
:1008100050E033DFF801838190E06DE070E041E06B
:1008200050E02BDFF801848190E061E170E041E06D
:1008300050E023DFF801858190E061E070E042E064
:1008400050E01BDFF801868190E065E070E042E057
:1008500050E013DFF801878190E069E070E042E04A
:1008600050E00BDFF801808590E06DE070E042E041
:1008700050E003DFF801818590E061E170E042E043
:1008800050E0FBDEF801828590E061E070E043E03B
:1008900050E0F3DEF801838590E065E070E043E02E
:1008A00050E0EBDEF801848590E069E070E043E021
:1008B00050E0E3DEF801858590E06DE070E043E014
:1008C00050E0DBDEEC0CFD1CF701808190E061E183
:1008D00070E043E050E0D1DE1F910F91FF90EF9068
:1008E000DF90CF900895FF920F931F93CF93DF93E4
:1008F000F82E85EE96E06091E1064091E2060E94B6
:10090000611485EE96E068E072E00E94362085EE84
:1009100096E00E944B141092E4061092E306609158
:10092000E1066E5F6093E10685EE96E04091E20697
:100930000E946114B6DC60913B046A3018F000E05C
:1009400010E016C085EE96E04AE050E00E94D51F08
:1009500085EE96E06091E1064091E2060E94611406
:1009600080913B04082F10E01093E4060093E30607
:1009700080913B048E3009F4CEC091E0F91649F421
:100980008A3009F465C08B3009F46BC08C3009F4EF
:100990006FC087DC80913B048E3029F41093E4060D
:1009A0000093E306B8C091E0F91649F48A3009F4DF
:1009B0004FC08B3009F455C08C3009F459C08A30CF
:1009C00018F0C0E0D0E029C06091E106615060936A
:1009D000E10685EE96E04091E2060E94611485EE04
:1009E00096E0B8014AE050E00E94242085EE96E0AF
:1009F00060913B044AE050E00E94D51F80913B0487
:100A0000C82FD0E06091E1066F5F6093E10685EE4C
:100A100096E04091E2060E94611443DC80913B0421
:100A20008E3089F4C80173E0880F991F7A95E1F739
:100A3000000F111F800F911FC80FD91FD093E4061C
:100A4000C093E30668C091E0F916C9F48A3039F41E
:100A50008FEF90E09093E4068093E3065CC08B30C8
:100A600029F41092E4061092E30655C08C3039F454
:100A700084E692E09093E4068093E30668C08A30AF
:100A800008F049C06091E10662506093E10685EE8E
:100A900096E04091E2060E94611485EE96E0B8016E
:100AA0004AE050E00E94242085EE96E0BE014AE034
:100AB00050E00E9424206091E1066E5F6093E106A1
:100AC00085EE96E04091E2060E94611485EE96E084
:100AD00060913B044AE050E00E94D51F84E690E01C
:100AE000089F9001099F300D189F300D11248091AF
:100AF0003B04280F311DCE0153E0880F991F5A95F2
:100B0000E1F7CC0FDD1F8C0F9D1F280F391F30938D
:100B1000E4062093E30685EE96E00E94531460916C
:100B2000E10670E0625070404091E2068091E30679
:100B30009091E40650E0A1DD6091E106645060937D
:100B4000E10685EE96E04091E2060E94611485EE92
:100B500096E00E94531485EE96E06091E106409184
:100B6000E2060E9461146CE271E080E090E00E9475
:100B7000591CDF91CF911F910F91FF900895CF9352
:100B8000DF9385EE96E00E94891485EE96E061E1A0
:100B900041E00E946114C0E0D0E0FE01E457FB4F49
:100BA0001082E091BF07F091C007EC0FFD1F10828B
:100BB00085EE96E0BE0142E050E00E94242021969E
:100BC00082E0C130D80749F785EE96E00E9489148B
:100BD00085EE96E063E041E00E94611485EE96E0C8
:100BE0006CE072E00E94362068EE73E080E090E0F6
:100BF0000E94591CDF91CF910895CF93DF9385EE2A
:100C000096E00E94891485EE96E00E94531485EECA
:100C100096E060E040E00E946114C0E0D0E085EE24
:100C200096E0BE0142E050E00E942420219682E03E
:100C3000C130D807A1F785EE96E00E94891485EEB1
:100C400096E060E040E00E94611485EE96E06CE181
:100C500072E00E94362085EE96E060E041E00E945E
:100C6000611485EE96E061E372E00E94362085EE25
:100C700096E068E041E00E94611485EE96E069E349
:100C800072E00E94362085EE96E067E042E00E9426
:100C9000611485EE96E066E472E00E94362085EEEF
:100CA00096E060E04AE050E00E94D51F85EE96E0B5
:100CB00061E572E00E94362085EE96E063E04AE04E
:100CC00050E00E94D51F85EE96E067E043E00E9469
:100CD000611485EE96E063E572E00E94362085EEB1
:100CE00096E060E04AE050E00E94D51F85EE96E075
:100CF00061E572E00E94362085EE96E060E04AE011
:100D000050E00E94D51F85EE96E060E043E00E942F
:100D1000611485EE96E06EE572E00E94362085EE65
:100D200096E064E14AE050E00E94D51F60ED77E074
:100D300080E090E00E94591CDF91CF910895CF93FD
:100D4000DF9385EE96E00E94891485EE96E061E1DE
:100D500041E00E946114C1E0D0E08CEB97E0BE015D
:100D60000E94D418FE01E457FB4F80832197E09145
:100D7000BF07F091C007EC0FFD1F2196808385EE21
:100D800096E0BE0142E050E00E942420219682E0DD
:100D9000C130D80711F785EE96E00E94891485EEE0
:100DA00096E063E041E00E94611485EE96E062E621
:100DB00072E00E94362068EE73E080E090E00E94CE
:100DC000591CDF91CF910895CF93DF9385EE96E084
:100DD0000E94891485EE96E061E141E00E94611471
:100DE000C0E0D0E0FE01E457FB4F1082E091BF0766
:100DF000F091C007EC0FFD1F10828CEB97E0BE0155
:100E000040E00E94DB1885EE96E0BE0142E050E033
:100E10000E942420219682E0C130D80719F785EE80
:100E200096E00E94891485EE96E063E041E00E941E
:100E3000611485EE96E061E772E00E94362068EE6C
:100E400073E080E090E00E94591CDF91CF910895FB
:100E5000CF93DF9385EE96E00E94891485EE96E0AD
:100E600061E141E00E946114C1E0D0E0FE01E4577D
:100E7000FB4F8CEB97E0BE0140810E94DB1885EEB2
:100E800096E0BE0142E050E00E942420219682E0DC
:100E9000C130D80759F785EE96E00E94891485EE97
:100EA00096E063E041E00E94611485EE96E061E81F
:100EB00072E00E94362068EE73E080E090E00E94CD
:100EC000591CDF91CF9108958CEB97E061E072E0BF
:100ED0000E94D418682F8091FC06882361F4662351
:100EE000A9F480914C046FE770E00E941E1D81E020
:100EF0008093FC060895813069F480914C0460E091
:100F000070E00E941E1D1092FC06089580914C0412
:100F100070E0EBCF08952F923F924F925F926F92C5
:100F20007F928F929F92AF92BF92CF92DF92EF9279
:100F3000FF920F931F93DF93CF93CDB7DEB76397E5
:100F40000FB6F894DEBF0FBECDBF89837B8B6A8B53
:100F500000918F061091900685EE96E0602F412F4C
:100F60000E94611485EE96E06FE872E00E943620E0
:100F70008A899B890E969B838A83EA89FB893D96A1
:100F8000FD83EC838A899B890C969F838E83EA89F3
:100F9000FB893B96F987E8878A899B890A969B8714
:100FA0008A87EA89FB893996FD87EC878A899B893C
:100FB00008969F878E87EA89FB893796F98BE88B9D
:100FC00036E0632E712C8A899B89680E791E25E094
:100FD000422E512C480E591EB4E02B2E312C280ED7
:100FE000391EA3E0CA2ED12CC80ED91EF2E0AF2EB6
:100FF000B12CA80EB91E4C010894811C911CE4E18F
:10100000EE2EF12C80912B0460E00E94AF1E8091A7
:1010100039040E94E11E892B59F460913C047091BF
:101020003D0480913E0490913F040E94591C4CDF86
:1010300080912B0461E00E94AF1E809125040E94E4
:10104000E11E892BF9F46CE271E080E090E00E94EF
:10105000591C20918F068091900690E08E9DA001F2
:101060008F9D500D9E9D500D1124222309F424E1E3
:101070002150FA01E20FF11DEF56F94F80818130C6
:10108000A1F724C0809127040E94E11E892B09F555
:101090006CE271E080E090E00E94591C20918F0684
:1010A0008091900690E08E9DA0018F9D500D9E9D99
:1010B000500D11242F5F243108F020E0FA01E20FD7
:1010C000F11DEF56F94F80818130A1F720938F06F3
:1010D0009EC1809123040E94E11E892B09F56CE2D8
:1010E00071E080E090E00E94591C20919006809170
:1010F0008F06482F50E02F5F243008F020E0822F29
:1011000090E08E9DF0018F9DF00D9E9DF00D1124BD
:10111000E40FF51FEF56F94F8081813061F726C04B
:10112000809121040E94E11E892B19F56CE271E087
:1011300080E090E00E94591C2091900680918F06DB
:10114000482F50E0222309F424E02150822F90E020
:101150008E9DF0018F9DF00D9E9DF00D1124E40FEA
:10116000F51FEF56F94F8081813061F7209390068B
:101170004EC1809129040E94E11E892B09F042CFC3
:101180006CE271E080E090E00E94591C4091900672
:1011900060918F06842F90E08E9DF0018F9DF00D61
:1011A0009E9DF00D1124E60FF11DEF56F94F808141
:1011B000813009F04AC185EE96E00E94611485EE07
:1011C00096E061E972E00E94362082E018C18091C9
:1011D0008F068C3081F480919006882361F485EE2F
:1011E00096E061E040E00E94611485EE96E063E9DC
:1011F00072E00E94362080918F06843081F48091C5
:101200009006882361F485EE96E061E040E00E945C
:10121000611485EE96E063E972E00E9436208091C9
:101220008F06883081F480919006882361F485EEE2
:1012300096E061E040E00E94611485EE96E063E98B
:1012400072E00E94362080918F06882359F48091A5
:101250009006813039F48A899B8961E070E040E032
:1012600050E00BDA80918F06843051F48091900623
:10127000813031F4C40161E070E040E050E0FDD91C
:1012800080918F06883051F480919006813031F43E
:10129000C50161E070E040E050E0EFD980918F0639
:1012A0008C3051F480919006813031F4C60161E0B8
:1012B00070E040E050E0E1D980918F06803151F438
:1012C00080919006813031F4C10161E070E040E02E
:1012D00050E0D3D980918F06882351F480919006F5
:1012E000823031F4C20161E070E040E050E0C5D9E5
:1012F00080918F06843051F480919006823031F4D1
:10130000C30161E070E040E050E0B7D980918F0602
:10131000883059F480919006823039F4888999890F
:1013200061E070E040E050E0A8D980918F068C30F9
:1013300059F480919006823039F48E859F8561E062
:1013400070E040E050E099D980918F06803159F4E7
:1013500080919006823039F48C859D8561E070E043
:1013600040E050E08AD980918F06882359F480911B
:101370009006833039F48A859B8561E070E040E017
:1013800050E07BD980918F06843059F4809190068B
:10139000833039F48885998561E070E040E050E061
:1013A0006CD980918F06883059F4809190068330F3
:1013B00039F48E819F8161E070E040E050E05DD9BA
:1013C00080918F068C3059F480919006833039F4E7
:1013D0008C819D8161E070E040E050E04ED98091C9
:1013E0008F06803159F480919006833039F48A81D8
:1013F0009B8161E070E040E050E03FD981E00091E6
:101400008F0610919006823009F0FCCD1FC085EE4A
:1014100096E0602F412F0E94611485EE96E067E907
:1014200072E00E94362085EE96E060918F06409132
:1014300090060E94611485EE96E06FE872E00E94CB
:10144000362099819130D1F6C2CEFFCF63960FB688
:10145000F894DEBF0FBECDBFCF91DF911F910F91EA
:10146000FF90EF90DF90CF90BF90AF909F908F90C4
:101470007F906F905F904F903F902F90089585EEF2
:1014800096E00E94891485EE96E060E040E00E94BC
:10149000611485EE96E069E972E00E94362085EEDF
:1014A00096E061E042E00E94611485EE96E069EA10
:1014B00072E00E94362085EE96E061E043E00E94F3
:1014C000611485EE96E06EEA72E00E94362085EEA9
:1014D00096E067E042E00E94611485EE96E063EBDF
:1014E00072E00E94362085EE96E067E043E00E94BD
:1014F000611485EE96E069EB72E00E94362085EE7D
:1015000096E06EE043E00E94611485EE96E06FEB9A
:1015100072E00E94362010928F0682E0809390063F
:10152000E1E9F6E0DF0198961082148A1C92549645
:101530001C9254973196119686E0E53AF807A1F788
:1015400081E0848B80A786A7828F85AB80E060E0F6
:1015500070E0E1DC80918F06882329F48091900669
:10156000833009F4ECDB80918F06863029F480917A
:101570009006833009F428DC80918F06882329F4B3
:1015800080919006823009F463DC80918F0686306A
:1015900029F480919006823009F4F1CA08951F93CE
:1015A000CF93DF938CEB97E061E072E00E94D41858
:1015B000182F85EE96E00E94891485EE96E060E093
:1015C00040E00E94611485EE96E066EC72E00E94B5
:1015D000362085EE96E060E042E00E94611485EEE0
:1015E00096E06EEC72E00E943620812F90E060E180
:1015F00070E042E050E041D885EE96E060E043E0E4
:101600000E94611485EE96E06EED72E00E94362035
:1016100085EE96E060E143E00E94611485EE96E07D
:1016200066EE72E00E9436208FE080938F0682E0A3
:1016300080939006E1E9F6E0DF0198961082148A23
:101640001C9254961C9254973196119686E0E53A76
:10165000F807A1F781E083A387AB10E1CFEFD0E0DB
:1016600080E060E070E057DC80918F068F30E9F514
:10167000809190068230C9F58093E2061093E106CE
:1016800081E031D98091E3069091E4068F3F910586
:1016900069F064F0D093E406C093E3068FEF90E026
:1016A00060E170E042E050E00E943D038CEB97E087
:1016B00061E072E04091E3060E94DB186091E3066E
:1016C0007091E40680914C040E941E1D8091E306F7
:1016D0009091E406009719F41092FC0606C01816C3
:1016E00019061CF481E08093FC0680918F068F30F0
:1016F00009F0B6CF80919006833009F0B1CF01D0C8
:10170000AFCF85EE96E00E94891485EE96E060E00A
:1017100040E00E94611485EE96E06BEE72E00E945C
:10172000362085EE96E062E042E00E94611485EE8C
:1017300096E06CEF72E00E94362085EE96E062E063
:1017400043E00E94611485EE96E064E073E00E943D
:10175000362085EE96E06CE042E00E94611485EE52
:1017600096E06BE073E00E94362085EE96E06CE038
:1017700043E00E94611485EE96E062E173E00E940E
:10178000362085EE96E06CE041E00E94611485EE23
:1017900096E06BE173E00E94362081E080938F0633
:1017A00082E080939006E1E9F6E0DF0198961082EE
:1017B000148A1C9254961C9254973196119686E086
:1017C000E53AF807A1F781E0858B81A7878F83AB86
:1017D000838780E060E070E09EDB80918F0681303F
:1017E00029F480919006823009F4F5D180918F061A
:1017F000813029F480919006833009F41CD08091C7
:101800008F068B3029F480919006823009F405D33D
:1018100080918F068B3029F480919006833009F4F3
:10182000E1D480918F068B3029F48091900681302D
:1018300009F4B5CE08952F923F924F925F926F9226
:101840007F928F929F92AF92BF92CF92DF92EF9250
:10185000FF920F931F93DF93CF93CDB7DEB76097BF
:101860000FB6F894DEBF0FBECDBF81E090E090933D
:10187000200480931F04988B8F870CE011E085EE85
:1018800096E00E94891485EE96E060E040E00E94B8
:10189000611485EE96E062E273E00E9436208F8547
:1018A00098890E94D50300938F0610929006E1E973
:1018B000F6E0DF0198961082148A1C9254961C92CE
:1018C00054973196119626E0E53AF207A1F7109366
:1018D00095061093990610939D0610831483108724
:1018E0001487108B148B108F148F10A314A310A7C0
:1018F00014A710AB14AB10AF8F8598890B969A8301
:101900008983EF85F8893696FC83EB832F853889A8
:10191000235F3F4F3E832D838F8598890A96988752
:101920008F83EF85F8893896FA87E9872F8538897C
:101930002B5F3F4F3C872B878F8598890E969E871C
:101940008D87B9E02B2E312CEF85F8892E0E3F1EA6
:10195000ACE04A2E512C4E0E5F1E77E0672E712CA4
:101960006E0E7F1E64E0862E912C8E0E9F1E52E01E
:10197000A52EB12CAE0EBF1E43E0C42ED12CCE0E30
:10198000DF1E7F010894E11CF11C81E06F857889DE
:10199000C2DA90918F06943039F4809190068823B2
:1019A00009F042C06CDD6BCF983039F4809190061D
:1019B000882309F042C0A5DE62CF9C3061F580919A
:1019C0009006882309F044C01092E206FDE0F093EF
:1019D000E1060E9473048091E3069091E406835F20
:1019E000914034F082EF91E09093E4068093E30617
:1019F0008091E3069091E406892B31F4E1E0F0E078
:101A0000F093E406E093E3062091E3063091E406C8
:101A1000388B2F8734CF992371F4809190068130D1
:101A200069F5EF85F88939C0813089F5F092200495
:101A3000E0921F0488C0983049F48091900681306C
:101A400081F4B0922004A0921F047DC09C3049F420
:101A500080919006813099F5D0922004C0921F04A5
:101A600072C0903149F480919006813089F590924E
:101A7000200480921F0467C0992339F48091900656
:101A8000823089F52B853C855AC0943059F4809179
:101A90009006823089F5EB81FC81F0932004E0937D
:101AA0001F0451C0983049F480919006823069F546
:101AB0007092200460921F0446C09C3039F48091DB
:101AC0009006823069F529853A8539C0903149F40C
:101AD00080919006823069F53092200420921F0494
:101AE00032C0992339F480919006833061F5EF81FB
:101AF000F885D3CF943039F480919006833019F56E
:101B000029813A811CC0983049F480919006833035
:101B1000D1F45092200440921F0415C09C3039F437
:101B200080919006833079F4ED81FE81B6CF9031BB
:101B300051F480919006833031F42D853E853093A9
:101B4000200420931F04809190068093E2069F5FFB
:101B50009093E10681E00E9473048091E3069091E6
:101B6000E4068456924039F40E9479038091E1069C
:101B700084508093E1068091E3069091E4068F3FC4
:101B8000910589F084F08FEF90E09093E4068093C4
:101B9000E3066091E10670E06E5F7F4F4091E206E0
:101BA00050E00E943D0380911F0490912004019712
:101BB000E091BF07F091C007E80FF91F8091E3069D
:101BC0008083E0911F04F0912004E457FB4F809143
:101BD000E3068083DACEAF92BF92CF92DF92EF928C
:101BE000FF920F931F93CF93DF93C1E0D0E028E0E3
:101BF000A22E01E099E0B92EE12C82E0F82E1FEF31
:101C0000C12ED12CD0932004C0931F0485EE96E002
:101C100080D685EE96E060E040E053D685EE96E013
:101C200064E373E00E94362085EE96E06EE042E0C9
:101C300048D685EE96E065E473E00E94362085EE96
:101C400096E06EE043E03DD685EE96E06AE473E010
:101C50000E94362085EE96E060E042E032D685EEC6
:101C600096E061E573E00E94362085EE96E062E042
:101C700043E027D685EE96E06EE573E00E943620BD
:101C800080918D0490E069E070E043E050E00E94B4
:101C90003D03A0928F0682E080939006E1E9F6E092
:101CA000DF0198961082148A1C9254961C925497C5
:101CB0003196119626E0E53AF207A1F7048F00ABC2
:101CC00001A305AB80E060E070E025D980918F062C
:101CD000883009F04EC010919006123009F049C0CA
:101CE00080911F049091200469E070E042E050E090
:101CF0000E943D031093E206B092E10680E00E944C
:101D000073048091E3069091E4068150924064F060
:101D1000F092E406E092E30680E092E069E070E091
:101D200042E050E00E943D038091E3069091E4067A
:101D30001816190664F0D093E406C093E30681E018
:101D400090E069E070E042E050E00E943D03E091E5
:101D5000E306F091E406F0932004E0931F04E457B7
:101D6000FB4F808190E069E070E043E050E00E942A
:101D70003D0380918F06883009F041C08091900624
:101D8000833009F09FCF8093E206B092E10681E0B4
:101D90000E9473048091E3069091E4068456924079
:101DA00011F40E9479038091E3069091E4068F3F3D
:101DB000910569F064F0D092E406C092E3068FEFDB
:101DC00090E069E070E043E050E00E943D038091C4
:101DD0001F04909120040197E091BF07F091C00784
:101DE000E80FF91F8091E3068083E0911F04F091D2
:101DF0002004E457FB4F8091E306808363CF8D304E
:101E000009F060CF80919006833011F438DBFACE70
:101E1000823009F057CF75DC55CF2F923F924F9209
:101E20005F926F927F928F929F92AF92BF92CF926A
:101E3000DF92EF92FF920F931F93DF93CF93CDB773
:101E4000DEB728970FB6F894DEBF0FBECDBF85EE84
:101E500096E05FD585EE96E060E040E032D585EE15
:101E600096E065E673E00E94362085EE96E063E03A
:101E700041E027D585EE96E062E773E00E943620C8
:101E800085EE96E060E042E01CD585EE96E062E8E3
:101E900073E00E94362085EE96E060E043E011D5C5
:101EA00085EE96E066E973E00E94362081E090E0DE
:101EB00069E070E041E050E00E943D0381E090E085
:101EC00069E070E042E050E00E943D0380E090E075
:101ED00069E070E043E050E00E943D0388E08093B9
:101EE0008F0681E080939006E1E08E2E912CA12C4C
:101EF000B12C89829A82AB82BC824424552432015F
:101F0000E1E9F6E0DF0198961082148A1C9254965B
:101F10001C9254973196119626E0E53AF207A1F704
:101F200031E03087348F30AB32A336AB80E060E0F5
:101F300070E00E948B0780918F068E3029F480918B
:101F40009006823009F4DDDB80918F068E3009F037
:101F5000A6C080919006833009F0BCC08D829E821D
:101F600085EE96E06FE043E0ACD485EE96E06BEA58
:101F700073E00E94362080E090E0FC01E457FB4FC4
:101F80001082E091BF07F091C007E80FF91F10829F
:101F9000019642E08130940781F78D819E819C01FA
:101FA00069017CE8272E74E0372E280C391C59C0B3
:101FB0008F819885019698878F838451954009F089
:101FC00055C00894E11CF11C011D111D29813A81A5
:101FD0004B815C81E216F3060407150709F044C043
:101FE000C601AA2797FDA095BA2F481659066A067A
:101FF0007B0624F48D819E819C016901C60169E004
:1020000070E040E050E00E943D03D101A501940141
:102010000EC0C9010197E091BF07F091C007E80F1A
:10202000F91F10821D922F5F3F4F4F4F5F4F421697
:102030005306640675066CF70894C108D108E09150
:10204000BF07F091C007EC0DFD1D0894C11CD11C09
:102050003FEF3083F601E457FB4F30830894C11CF7
:10206000D11CEE24FF24870118861F828091290449
:102070000E94E11E019709F49BCF85EE96E06FE088
:1020800043E01FD485EE96E061EB73E00E943620BA
:102090006CE271E080E090E00E94591C31CF883002
:1020A000C9F4809190068130A9F48093E20649E05A
:1020B0004093E10680E00E9473048091E3069091D2
:1020C000E4069C01442737FD4095542F29833A8329
:1020D0004B835C8380918F068830F1F58091900668
:1020E0008230D1F58093E20639E03093E10680E05A
:1020F0000E9473048091E3069091E4064C01AA24A7
:1021000097FCA094BA2C81149104A104B10471F439
:1021100081E090E069E070E042E050E00E943D0321
:1021200061E0862E912CA12CB12C16C041E08416C2
:1021300042E0940640E0A40640E0B4066CF080E083
:1021400092E069E070E042E050E00E943D03812CA3
:1021500052E0952EA12CB12C80918F06883009F089
:10216000CFCE80919006833009F0CACE8093E206EC
:1021700059E05093E10680E00E9473048091E306E9
:102180009091E4062C01662457FC6094762C41144F
:1021900051046104710471F481E090E069E070E041
:1021A00043E050E00E943D0341E0442E512C612C5D
:1021B000712CA6CE81E0481682E0580680E06806C1
:1021C00080E078060CF49CCE80E092E069E070E05C
:1021D00043E050E00E943D03412C32E0532E612C3D
:1021E000712C8ECE2F923F924F925F926F927F9280
:1021F0008F929F92AF92BF92CF92DF92EF92FF9217
:102200000F931F93DF93CF93CDB7DEB728970FB609
:10221000F894DEBF0FBECDBF81E090E098878F833A
:10222000662477244301AA24BB246501AFEFB0E004
:10223000BA83A98385EE96E06CD385EE96E063E0E1
:1022400040E03FD385EE96E067EB73E00E943620D6
:1022500085EE96E060E041E034D385EE96E06DEBEC
:1022600073E00E94362085EE96E060E042E029D3DC
:1022700085EE96E060ED73E00E94362085EE96E0F4
:1022800060E043E01ED385EE96E065EE73E00E94C9
:10229000362089819A8169E070E040E050E00E9438
:1022A0003D038F81988569E070E041E050E00E9435
:1022B0003D03C30169E070E042E050E00E943D034D
:1022C000C50169E070E043E050E00E943D03B8E0E2
:1022D000B0938F0610929006E1E9F6E0DF01989640
:1022E0001082148A1C9254961C925497319611961F
:1022F00026E0E53AF207A1F781E0808780AB848F82
:10230000858781A385AB8093990680E060E070E0CB
:102310000E948B0780918F068D3029F48091900662
:10232000813009F4EED980918F068D3009F08EC08E
:1023300080919006823011F4A2D87CCF833009F0CE
:10234000B9C0C601B501A40193010E9438206150B3
:1023500072408040904054F085EE96E06DE040E0A1
:10236000B0D285EE96E069EF73E06DC085EE96E041
:102370006DE040E0A6D285EE96E061E074E00E9458
:10238000362001E0E02EF12C012D112D8F81988552
:10239000AA2797FDA095BA2F8B839C83AD83BE831C
:1023A00043C091E0E916F1040105110509F030C1BF
:1023B0002B803C804D805E80A1E02A16A2E03A0688
:1023C000A0E04A06A0E05A0634F02618370848086C
:1023D00059088601750185EE96E061E140E071D211
:1023E00085EE96E0B201A1012AE030E00E94E61FEE
:1023F00065E070E080E090E00E94591CC101019707
:102400002091BF073091C007280F391F8981F9013A
:102410008083910124573B4FE981D901EC930894C3
:10242000E11CF11C011D111DAE14BF04C006D10634
:102430000CF0B7CF85EE96E06DE040E042D285EE3D
:1024400096E069E074E00E94362046CF883091F52E
:1024500080919006813071F58093E206F9E0F09367
:10246000E10680E00E9473048091E3069091E40607
:1024700098878F83892B69F481E090E069E070E0B0
:1024800041E050E00E943D03A1E0B0E0B887AF8397
:1024900011C0EF81F885E150F24064F080E092E0F5
:1024A00069E070E041E050E00E943D0380E092E08E
:1024B00098878F8380918F068830F1F58091900600
:1024C0008230D1F58093E20699E09093E10680E0B6
:1024D0000E9473048091E3069091E4063C018824F5
:1024E00077FC8094982C611471048104910471F438
:1024F00081E090E069E070E042E050E00E943D033E
:1025000011E0612E712C812C912C16C0A1E06A166D
:10251000A2E07A06A0E08A06A0E09A066CF080E0CD
:1025200092E069E070E042E050E00E943D03612CDF
:10253000B2E07B2E812C912C80918F068830F1F5B2
:10254000809190068330D1F58093E206B9E0B09394
:10255000E10680E00E9473048091E3069091E40616
:102560005C01CC24B7FCC094DC2CA114B104C104E0
:10257000D10471F481E090E069E070E043E050E064
:102580000E943D03A1E0AA2EB12CC12CD12C16C073
:10259000E1E0AE16E2E0BE06E0E0CE06E0E0DE06F8
:1025A0006CF080E092E069E070E043E050E00E946F
:1025B0003D03A12CF2E0BF2EC12CD12C80918F06BF
:1025C000883009F089CE80919006882309F084CE66
:1025D0001092E206F9E0F093E10681E00E947304B4
:1025E0008091E3069091E4069A8389838F3F910559
:1025F00009F00CF471CE8FEF90E069E070E040E0FC
:1026000050E00E943D03AFEFB0E0BA83A98364CEEF
:10261000260C371C481C591CCFCE85EE96E079D18C
:1026200085EE96E060E040E04CD185EE96E06DE00E
:1026300074E00E94362085EE96E062E042E041D1EF
:1026400085EE96E063EB72E00E94362085EE96E020
:1026500069E042E036D185EE96E06EEA72E00E94D3
:10266000362085EE96E06FE042E02BD185EE96E0D5
:1026700069EB72E00E94362081E080938F0682E051
:1026800080939006E1E9F6E0DF0198961082148AC3
:102690001C9254961C9254973196119686E0E53A16
:1026A000F807A1F781E0858B848F82A380E060E04A
:1026B00070E00E948B0780918F06883039F48091FA
:1026C0009006823019F40E949F061BD880918F06D5
:1026D0008E3039F480919006823019F40E94E4061D
:1026E00010D880918F06813029F480919006823035
:1026F00009F407C808951F938CEB97E061E072E03E
:1027000053D5182F80914C04612F70E00E941E1D3C
:10271000112319F41092FC0603C081E08093FC069B
:102720001F91089582E061E00E94AF1EE4DF0E94E5
:10273000FD0573CF80911D0461E00E94FC1D809116
:10274000210462E00E94FC1D8091230462E00E944B
:10275000FC1D8091250462E00E94FC1D80912704ED
:1027600062E00E94FC1D8091290462E00E94FC1D31
:1027700080912B0461E00E94FC1D80912D0461E09A
:102780000E94FC1D80912F0461E00E94FC1D80913D
:10279000310461E00E94FC1D8091330462E00E94DC
:1027A000FC1D8091350462E00E94FC1D809137047D
:1027B00062E00E94FC1D8091390462E00E94FC1DD1
:1027C00080912B0461E00E94AF1E80912D0461E096
:1027D0000E94AF1E80912F0461E00E94AF1E809185
:1027E000310461E00E94AF1E8091400461E00E94CC
:1027F000FC1D8091420461E00E94FC1D80914A040E
:1028000061E00E94FC1D8091480461E00E94FC1D73
:102810008091460461E00E94FC1D8091440461E0C7
:102820000E94FC1D80914C0461E00E94FC1D85EE1D
:1028300096E064E144E020E072D081E090E0909383
:10284000D5078093D40780E092E09093D1078093DE
:10285000D0078DEB97E060E00BC608950895FC016A
:102860001382128288E594E0918380830895FC01AD
:10287000A081B18118962D913C9119976FEFF901C4
:1028800019950895DC01ED91FC910284F385E02D0A
:1028900040E019950895FC016581862F816085834C
:1028A0006960CF01EFCFFC0165816E7F6583686051
:1028B000E9CFFC016581862F846085836C60CF0140
:1028C000E1CFDC0117969C911797491710F0492F1B
:1028D000415018968C911897803139F4943029F42E
:1028E000E42FF0E0EC59FB4F04C0E42FF0E0E8598E
:1028F000FB4F8081680F6068CD01C4CFDC01ED9192
:10290000FC910284F385E02D41E0199581E090E08F
:10291000089561E0B7DF80ED97E00C94B21CCF938F
:10292000DF93EC01423018F08C8188608C834F83F8
:102930006887222329F0413019F48C8184608C83CC
:1029400064E670E080E090E0B4D76C8164FD2EC056
:10295000E881F9810284F385E02DCE0163E042E055
:10296000199584E991E1FED7E881F9810284F38524
:10297000E02DCE0163E042E0199584E991E1F2D7C0
:10298000E881F9810284F385E02DCE0163E042E025
:10299000199586E990E0E6D7E881F9810284F3850C
:1029A000E02DCE0162E042E0199511C06062CE01D7
:1029B00069DF84E991E1D6D76C816062CE0162DF84
:1029C00086E990E0CFD76C816062CE015BDF6C81DD
:1029D0006062CE0157DF84E08D83CE016ADFCE01D5
:1029E00098DF82E08E83CE0166E04CDFCE013FDFD0
:1029F000DF91CF9108950F931F938C01FC01858582
:102A000061E00E94AF1EF801858560E00E94AF1E64
:102A10001F910F910895BF92CF92DF92EF92FF9294
:102A20000F931F93CF93DF93D82EC92EB42E282F48
:102A3000392FC9018C01C0E0D0E0E62EFF240DC083
:102A4000B7010C2E02C0759567950A94E2F7617084
:102A5000F80185850E94AF1E21960F5F1F4FCB1591
:102A600078F38D2D9C2DC7DFDF91CF911F910F91B2
:102A7000FF90EF90DF90CF90BF9008950F931F933A
:102A8000CF93DF93EC01162F042F60E0413009F45F
:102A900061E08B850E94AF1E8C858F3F19F060E04E
:102AA0000E94AF1E023089F08C8184FF04C0CE01E9
:102AB000612F48E00DC0612F70E084E07595679547
:102AC0008A95E1F7CE0144E0A6DFCE01612F44E014
:102AD000A2DFDF91CF911F910F9108956F927F92A6
:102AE0008F92AF92CF92EF920F931F93DF93CF937A
:102AF000CDB7DEB73C01162F8E2DF3014387248717
:102B00000587E686C786A08A818A9E85928B9F85E7
:102B1000938B9889948B9989958B61E00E94FC1D19
:102B2000F301878561E00E94FC1DF301808961E06B
:102B30000E94FC1DF301818961E00E94FC1D1123AC
:102B4000A1F4F301828961E00E94FC1DF3018389F5
:102B500061E00E94FC1DF301848961E00E94FC1D7C
:102B6000F301858961E00E94FC1DF301838561E02A
:102B70000E94FC1DF30184858F3F19F061E00E94E3
:102B8000FC1DF301858561E00E94FC1D112319F0F5
:102B9000F301148203C080E1F3018483F301838590
:102BA00060E00E94AF1EF301858560E00E94AF1EC9
:102BB000F30184858F3F19F060E00E94AF1E8FEF14
:102BC000F301868B12861186CF91DF911F910F91B1
:102BD000EF90CF90AF908F907F906F900895DF929D
:102BE000EF92FF920F931F938C01D62E7A01862FBE
:102BF00061E00E94FC1DD8015696DC9256971A9609
:102C0000FC92EE921997ED91FC910084F185E02DF4
:102C1000C80160E019951F910F91FF90EF90DF9030
:102C20000895DC01362F56962C9156972F3F49F187
:102C3000E22FF0E0E254FE4FE491EE2379F0199692
:102C40008D919C911A97892B19F4822F70E005C001
:102C50006FEF70E0631B7109822FF0C619968D919A
:102C60009C911A97662319F0892B39F402C00197B9
:102C700021F4822F61E00C94AF1E822F60E00C944F
:102C8000AF1E08956F927F928F92AF92BF92CF92B4
:102C9000DF92EF92FF920F931F933C01162FF42EB9
:102CA000D22EB02EAE2C8C2CDADD80E794E0D3014E
:102CB0008D939C9300D00F92EDB7FEB73196ADB7D0
:102CC000BEB711961C92118212821382C30161E079
:102CD000412F2FEF0F2DED2CCB2C00DF0F900F90FD
:102CE0000F900F901F910F91FF90EF90DF90CF907A
:102CF000BF90AF908F907F906F90089520911E07A6
:102D000030E080911D07281B3109C90108954091C9
:102D10001D0780911E07481718F02FEF3FEF0AC0DC
:102D2000E42FF0E0E350F94F8081282F30E04F5F2F
:102D300040931D07C9010895E0911D0780911E076A
:102D4000E81718F0EFEFFFEF06C0F0E0E350F94F9F
:102D50008081E82FF0E0CF01089508951092450793
:102D60001092440788EE93E0A0E0B0E0809346071D
:102D700090934707A0934807B093490780E894E0F1
:102D800090934307809342070895CF92DF92EF928A
:102D9000FF920F931F93CF93DF937C016B018A0106
:102DA000809141078823A1F0C0E0D0E00DC0D70199
:102DB000ED91FC91D601AC0FBD1F0190F081E02D8B
:102DC000C7016C9119952196C017D10780F303C0F4
:102DD000CB01642F39D0C801DF91CF911F910F91A2
:102DE000FF90EF90DF90CF900895DF93CF930F92F5
:102DF000CDB7DEB7FC016983809141078823C9F014
:102E000080914007803238F081E090E093838283A4
:102E100020E030E014C080913F07E82FF0E0E15E51
:102E2000F84F998190838F5F80933F07809340078D
:102E300004C0CE01019661E007D021E030E0C90175
:102E40000F90CF91DF910895482F613210F081E00B
:102E5000089580914E07843011F082E008956093C8
:102E60009907A8E7B7E0842F9C01F90102C081917E
:102E70008D938E2F841B8617D0F380E008951F92C8
:102E80000F920FB60F920BB60F9211242F933F9310
:102E90004F935F936F937F938F939F93AF93BF9362
:102EA000EF93FF938091B90090E0887F9070803617
:102EB000910509F4F2C081369105CCF5883291056F
:102EC00009F47BC089329105B4F48031910509F48D
:102ED0006FC0813191053CF4009709F447C1089710
:102EE00009F04FC165C08831910509F466C080972B
:102EF00009F047C182C08034910509F4A4C081342F
:102F0000910544F48033910509F482C0C89709F013
:102F100038C189C08035910509F489C0883591058B
:102F200009F496C08834910509F02BC1AEC08839E8
:102F3000910509F413C189399105ECF4883791059D
:102F400009F4ABC0893791054CF48836910509F432
:102F5000A4C08037910509F014C19FC0883891053D
:102F600009F4FCC08039910509F49DC080389105B1
:102F700009F007C198C0803B910509F4C6C0813BA8
:102F800091054CF4803A910509F49FC0883A910567
:102F900009F0F7C0BAC0803C910509F4E3C0883C51
:102FA000910509F4DFC0883B910509F0EAC0C2C071
:102FB00080914F078093BB00CFC09091760780919E
:102FC0007707981768F490917607E92FF0E0EA5AAE
:102FD000F84F80818093BB009F5F90937607BCC0C1
:102FE00080915007882309F44BC085ED8093BC0085
:102FF0008091BC0084FDFCCFC2C080E28093BB07FF
:1030000085ED8093BC008091BC0084FDFCCFB7C0EF
:1030100080E38093BB0785ED8093BC008091BC006A
:1030200084FDFCCFACC088E38093BB079BC080913C
:1030300076079091BB00E82FF0E0EA5AF84F9083B2
:103040008F5F80937607909176078091770782C093
:10305000809176079091BB00E82FF0E0EA5AF84F94
:1030600090838F5F8093760780915007882341F08B
:1030700085ED8093BC008091BC0084FDFCCF7FC0B7
:1030800081E08093510784EA6EC085ED8093BC0097
:103090008091BC0084FDFCCF72C083E080934E071A
:1030A0001092BA0759C08091BA07803208F056C012
:1030B0008091BA079091BB00E82FF0E0E656F84FF8
:1030C00090838F5F8093BA0747C08091BA078032A0
:1030D00030F4E091BA07F0E0E656F84F108285ED43
:1030E0008093BC008091BC0084FDFCCF10924E0701
:1030F0006091BA07E0915407F09155078AE997E08B
:1031000070E019951092BA072DC084E080934E07A5
:103110001092980710929907E0915207F091530787
:10312000199580919907882329F481E08093990764
:103130001092780790919807E92FF0E0E858F84F3F
:1031400080818093BB009F5F909398079091980730
:1031500080919907981710F485EC01C085E8809359
:10316000BC000FC085EC8093BC0009C01092BB0767
:1031700085ED8093BC008091BC0084FDFCCF109253
:103180004E07FF91EF91BF91AF919F918F917F91EA
:103190006F915F914F913F912F910F900BBE0F90C8
:1031A0000FBE0F901F901895F999FECF72BD61BDAB
:1031B000F89A80B50895F999FECF1FBA72BD61BD26
:1031C00040BD0FB6F894FA9AF99A0FBE0895FC0123
:1031D0008385882331F48091C10087728093C10078
:1031E0000895813031F48091C90087728093C900BD
:1031F0000895823031F48091D10087728093D1009C
:103200000895833029F480913101877280933101D0
:1032100008951F920F920FB60F920BB60F921124C2
:103220002F933F934F935F936F937F938F939F93CE
:10323000AF93BF93EF93FF938091C0008093C50736
:103240003091C6003093C6072091C1072093C7076D
:1032500084FF10C08091C0008F7E8093C000809159
:10326000D2079091D3079093CB078093CA0781E050
:103270008093C107213091F4332369F482E0809375
:10328000C1078091BD079091BE0701969093C30737
:103290008093C2074BC01092C10748C02230A1F4EE
:1032A0008091CA079091CB0701979093CB078093A9
:1032B000CA07892BD9F583E08093C107E091BD0748
:1032C000F091BE07308332C0233081F5E091C20710
:1032D000F091C307F093E007E093DF07308340915C
:1032E000DF075091E0074F5F5F4F5093E007409337
:1032F000DF078091BD079091BE072091CE073091E6
:10330000CF07820F931F4817590760F01092C1072B
:10331000E091E307F091E407309741F08091C8070E
:10332000199504C05093C3074093C207FF91EF91D2
:10333000BF91AF919F918F917F916F915F914F91CD
:103340003F912F910F900BBE0F900FBE0F901F90CB
:1033500018951F920F920FB60F920BB60F92112471
:103360002F933F934F935F936F937F938F939F938D
:10337000AF93BF93EF93FF938091C9078093DE07CC
:10338000882361F41092C5008091DB078093C4000C
:103390001092C60081E08093C90740C0813081F45B
:1033A0001092C5008091DA078093C4001092C60085
:1033B00082E08093C9071092CD071092CC072EC0EF
:1033C0008091CC079091CD079093DD078093DC0727
:1033D000E091BF07F091C007E80FF91F208120930B
:1033E000C6009C012F5F3F4F3093DD072093DC0721
:1033F0008091D0079091D1072817390759F4E091AF
:10340000E107F091E207309711F080E019951092F2
:10341000C90704C03093CD072093CC07FF91EF91EB
:10342000BF91AF919F918F917F916F915F914F91DC
:103430003F912F910F900BBE0F900FBE0F901F90DA
:10344000189521E030E03093D3072093D20788E02D
:1034500090E09093CF078093CE073093D5072093C9
:10346000D4079093D1078093D0071092C80708958E
:103470001F93CF93DF93EC01162FF894A8DE1C8FD7
:10348000112321F487E08D8F84E10BC0113021F4EA
:1034900083E08D8F8AE005C0123021F481E08D8FAA
:1034A00085E08E8F8B8D8F3F29F061E0A5D38B8DCA
:1034B00061E055D48B858823D1F481E061E09CD311
:1034C0001092C5008D8D8093C4008091C0008260F1
:1034D0008093C0008091C2008E608093C200809172
:1034E000C10088648093C1001092C60053C081302F
:1034F000D1F482E161E080D31092CD008D8D809374
:10350000CC008091C80082608093C8008091CA007E
:103510008E608093CA008091C90088648093C9003E
:103520001092CE0037C08230D1F480E161E064D3E4
:103530001092D5008D8D8093D4008091D000826050
:103540008093D0008091D2008E608093D2008091D1
:10355000D10088648093D1001092D6001BC08330C4
:10356000C9F48EE061E048D3109235018D8D8093CF
:10357000340180913001826080933001809132016A
:103580008E60809332018091310188648093310193
:103590001092360181E08C878B899C890DD08A83BB
:1035A0009B834B895C8960E070E00E9433017894D2
:1035B000DF91CF911F9108950F931F93CF93DF93C6
:1035C000BC018230910510F462E070E0E091F007F8
:1035D000F091F10740E050E0A0E0B0E024C080812D
:1035E000918186179707D0F08617970771F482812B
:1035F0009381109729F013969C938E9312972CC069
:103600009093F1078093F00727C04115510519F0F9
:103610008417950718F48D01AC01EF01DF01828159
:1036200093819C01F9013097D1F641155105F9F0CC
:10363000CA01861B970B8430910580F48A819B8197
:103640000115110521F0F8019383828304C0909342
:10365000F1078093F007FE01329645C0FE01E80FA6
:10366000F91F619371930297998388833CC080917D
:10367000EE079091EF07892B41F4809150049091CF
:1036800051049093EF078093EE07409152045091BC
:1036900053044115510541F44DB75EB780914E0476
:1036A00090914F04481B590B2091EE073091EF0782
:1036B00024173507B0F4CA01821B930B86179707AE
:1036C00080F0AB014E5F5F4F8417950750F0420FBB
:1036D000531F5093EF074093EE07F90161937193E5
:1036E00002C0E0E0F0E0CF01DF91CF911F910F9198
:1036F0000895CF93DF939C01009709F48FC0EC01EC
:1037000022971B821A826091F0077091F107611570
:10371000710581F488819981820F931F2091EE07B2
:103720003091EF072817390739F5D093EF07C09389
:10373000EE0774C0DB0140E050E0AC17BD0708F1B4
:10374000BB83AA83FE0121913191E20FF31FAE17D3
:10375000BF0779F48D919C911197280F391F2E5F27
:103760003F4F3983288312968D919C9113979B83A9
:103770008A834115510571F4D093F107C093F00786
:103780004DC012968D919C911397AD01009711F049
:10379000DC01D3CFDA011396DC93CE931297FA01B2
:1037A00021913191E20FF31FCE17DF0769F4888171
:1037B0009981280F391F2E5F3F4FFA0131832083F3
:1037C0008A819B8193838283E0E0F0E0DB011296A3
:1037D0008D919C911397009719F0BC01FD01F6CFD4
:1037E000AB014E5F5F4FDB018D919C91840F951F64
:1037F0002091EE073091EF072817390779F43097B9
:1038000029F41092F1071092F00702C0138212827D
:10381000425050405093EF074093EE07DF91CF9115
:1038200008951F920F920FB60F9211242F933F937A
:103830008F939F93AF93BF938091E9079091EA078D
:10384000A091EB07B091EC073091ED070196A11D17
:10385000B11D232F2D5F2D3720F02D570196A11D6F
:10386000B11D2093ED078093E9079093EA07A09399
:10387000EB07B093EC078091E5079091E607A091E4
:10388000E707B091E8070196A11DB11D8093E507F8
:103890009093E607A093E707B093E807BF91AF9135
:1038A0009F918F913F912F910F900FBE0F901F907E
:1038B00018959B01AC017FB7F8948091E507909132
:1038C000E607A091E707B091E80766B5A89B05C099
:1038D0006F3F19F00196A11DB11D7FBFBA2FA92F0F
:1038E000982F8827860F911DA11DB11D62E0880FBA
:1038F000991FAA1FBB1F6A95D1F7BC012DC0FFB746
:10390000F8948091E5079091E607A091E707B091C0
:10391000E807E6B5A89B05C0EF3F19F00196A11D89
:10392000B11DFFBFBA2FA92F982F88278E0F911D89
:10393000A11DB11DE2E0880F991FAA1FBB1FEA95C8
:10394000D1F7861B970B885E9340C8F22150304018
:103950004040504068517C4F2115310541055105CB
:1039600071F60895019739F0880F991F880F991FF4
:1039700002970197F1F70895789484B5826084BD29
:1039800084B5816084BD85B5826085BD85B5816063
:1039900085BDEEE6F0E0808181608083E1E8F0E0C3
:1039A0001082808182608083808181608083E0E8F2
:1039B000F0E0808181608083E1EBF0E080818460D1
:1039C0008083E0EBF0E0808181608083E1E9F0E0DA
:1039D000808182608083808181608083E0E9F0E083
:1039E000808181608083E1EAF0E080818260808371
:1039F000808181608083E0EAF0E080818160808363
:103A0000E1E2F1E080818260808380818160808357
:103A1000E0E2F1E0808181608083EAE7F0E080818C
:103A200084608083808182608083808181608083E4
:103A30008081806880831092C10008951F93CF9386
:103A4000DF93182FEB0161E0D7D0209709F4CAC0AB
:103A5000CF3FD10509F4C9C0E12FF0E0E254FE4F99
:103A60008491893009F466C08A30B0F48430F1F171
:103A7000853040F4823059F1833070F5813009F09F
:103A8000AEC020C0873009F443C0883008F048C079
:103A9000863009F0A4C034C08D3009F478C08E306F
:103AA00038F48B3009F45AC08C3008F066C04CC032
:103AB000803109F480C0813109F487C08F3009F06A
:103AC0008EC06FC084B5806884BDC7BD91C084B509
:103AD000806284BDC8BD8CC0809180008068809366
:103AE0008000D0938900C093880082C080918000BC
:103AF000806280938000D0938B00C0938A0078C04E
:103B00008091B00080688093B000C093B30070C013
:103B10008091B00080628093B000C093B40068C010
:103B200080919000806880939000D0939900C0931A
:103B300098005EC080919000806280939000D09346
:103B40009B00C0939A0054C080919000886080933D
:103B50009000D0939D00C0939C004AC08091A0002B
:103B600080688093A0008091A0008F7B8093A0004C
:103B7000D093A900C093A8003BC08091A0008062B0
:103B80008093A000D093AB00C093AA0031C0809175
:103B9000A00088608093A000D093AD00C093AC00DB
:103BA00027C080912001806880932001D093290153
:103BB000C09328011DC08091200180628093200164
:103BC000D0932B01C0932A0113C0809120018860FB
:103BD00080932001D0932D01C0932C0109C0C038DF
:103BE000D1051CF4812F60E002C0812F61E0B7D0C5
:103BF000DF91CF911F910895CF93DF93482F50E02D
:103C0000CA0188589E4FFC0134914E5C5E4FFA0108
:103C10008491882369F190E0880F991FFC01EC5191
:103C2000FF4FA591B491FC01E250FF4FC591D49193
:103C3000662351F42FB7F8948C91932F9095892394
:103C40008C93888189230BC0623061F42FB7F8947C
:103C50008C91932F909589238C938881832B8883D3
:103C60002FBF06C09FB7F8948C91832B8C939FBF76
:103C7000DF91CF910895893009F449C08A30A0F4CA
:103C8000843051F1853040F4823079F1833000F591
:103C9000813009F063C026C0873079F1883098F50B
:103CA000863009F05BC025C08D3009F442C08E30EB
:103CB00028F48B30B1F18C30C0F52DC0803109F47F
:103CC00042C0813109F445C08F3009F047C037C088
:103CD000809180008F7703C0809180008F7D8093DA
:103CE0008000089584B58F7702C084B58F7D84BD30
:103CF00008958091B0008F7703C08091B0008F7DD0
:103D00008093B0000895809190008F7707C08091D4
:103D100090008F7D03C080919000877F80939000FA
:103D200008958091A0008F7707C08091A0008F7DBB
:103D300003C08091A000877F8093A00008958091A8
:103D400020018F7703C0809120018F7D8093200117
:103D5000089580912001877F809320010895FF922C
:103D60000F931F93F62E482F50E0CA0182549E4FA6
:103D7000FC012491CA0188589E4FFC0114914E5CAD
:103D80005E4FFA0104910023C1F0222311F0822F2B
:103D900072DFE02FF0E0EE0FFF1FE250FF4FA59122
:103DA000B4919FB7F894FF2021F48C911095812352
:103DB00002C08C91812B8C939FBF1F910F91FF901C
:103DC00008950F931F93482F50E0CA0182549E4FCD
:103DD000FC012491CA0188589E4FFC0104914E5C5D
:103DE0005E4FFA011491112319F420E030E014C061
:103DF000222311F0822F3FDF812F90E0880F991F3F
:103E0000885E9E4FFC01A591B4918C9120E030E03A
:103E1000802311F021E030E0C9011F910F91089536
:103E20000895CF93DF93A8DDFBDF0E949A13C0E0D3
:103E3000D0E00E9492132097E1F30E940000F9CF96
:103E40000895CF92DF92EF92FF920F931F93CF933B
:103E5000DF937C016B018A01C0E0D0E00FC0D60186
:103E60006D916D01D701ED91FC910190F081E02DF4
:103E7000C7011995C80FD91F015010400115110530
:103E800071F7CE01DF91CF911F910F91FF90EF90CD
:103E9000DF90CF900895CF93DF93EC01611571050A
:103EA00019F420E030E00FC0DB010D900020E9F7AD
:103EB0001197A61BB70BE881F9810280F381E02DF1
:103EC000AD0119959C01C901DF91CF9108954F92E1
:103ED0005F927F928F929F92AF92BF92CF92DF922A
:103EE000EF92FF920F931F93DF93CF93CDB7DEB77F
:103EF000A1970FB6F894DEBF0FBECDBF2C01742E74
:103F0000CB01223008F42AE019A231E2C32ED12CD1
:103F1000CC0EDD1E822E9924AA24BB24672D752F7A
:103F2000A5019401C4D079018A01C801B701A50196
:103F300094019ED0472D461B0894C108D1084A30F1
:103F400014F4405D01C0495CF6014083E114F104C2
:103F50000105110521F07E2C5F2DC801DFCFC201C4
:103F6000B60199DFA1960FB6F894DEBF0FBECDBFA4
:103F7000CF91DF911F910F91FF90EF90DF90CF9045
:103F8000BF90AF909F908F907F905F904F900895DB
:103F9000DC012115310541F4ED91FC910190F08196
:103FA000E02D642F1995089592CFEF92FF920F9311
:103FB0001F939A01E62EFF2400E010E0B801A7014C
:103FC000E7DF1F910F91FF90EF900895CF92DF925E
:103FD000EF92FF920F931F93CF93DF93EC016A014F
:103FE0007B012115310541F4E881F9810190F081CF
:103FF000E02D642F19951DC02A303105C9F477FFD3
:1040000016C0E881F9810190F081E02D6DE21995EB
:104010008C0144275527BA014C195D096E097F09A7
:10402000CE012AE054DF9801280F391F03C02AE08F
:104030004EDF9C01C901DF91CF911F910F91FF903D
:10404000EF90DF90CF900895EF92FF920F931F9320
:104050007B019A010027F7FC0095102FB801A701FA
:10406000B5DF1F910F91FF90EF90089514CF089541
:10407000629FD001739FF001829FE00DF11D649F4C
:10408000E00DF11D929FF00D839FF00D749FF00DD8
:10409000659FF00D9927729FB00DE11DF91F639F79
:1040A000B00DE11DF91FBD01CF0111240895A1E25A
:1040B0001A2EAA1BBB1BFD010DC0AA1FBB1FEE1FA2
:1040C000FF1FA217B307E407F50720F0A21BB30BED
:1040D000E40BF50B661F771F881F991F1A9469F769
:1040E00060957095809590959B01AC01BD01CF01C5
:1040F0000895EE0FFF1F0590F491E02D1994F894A8
:02410000FFCFEF
:1041020030303000202020005F5F5F004D656D6F12
:10411200727920456D7074696564210068747470E9
:104122003A2F2F676F6F2E676C2F6B64596C6A374B
:1041320000444D582D353132003C436F6E74726F1E
:104142006C6C65723E004669726D776172652076AD
:10415200002E0048617264776172652076004944DE
:104162003A004D656D6F7279204C6F616465642110
:10417200004D656D6F727920436C65616E656421D7
:10418200004D656D6F727920536176656421003E42
:10419200002B002D2D2D0020004D656D6F727920B2
:1041A2004F7074696F6E733A0053617665004C6F9D
:1041B200616400456D70747900436C6561720043FF
:1041C200616E63656C00436F6E6669673A004C43CB
:1041D20044204261636B204C696768743A00303056
:1041E200302D323535004578697400436F6E747234
:1041F2006F6C204F7074696F6E733A00556E6974FC
:10420200617279004D617472697800436861736507
:1042120072004D756C7469706C7900436F6E6669DB
:104222006700432D2D2D204D656D20437472202093
:1042320020202D00556E697461727920436F6E746F
:10424200726F6C3A004374726C004D656D6F7279D7
:10425200004368616E6E656C3A2030303100566101
:104262006C75653A004368617365724348202D2D71
:104272002D0044656C6179202020207831303D6D1D
:104282005300466972737420434820202020202066
:10429200204374726C0046696E616C204348202092
:1042A200202020202053746172740053746F702098
:1042B2000053746172740056616C756500466972D0
:1042C20073742043482020202020204374726C0005
:1042D2004D756C7469706C792020202020204D650A
:1042E2006D6F7279005175616E7469747920202046
:1042F2002020204170706C79004572726F7221200B
:104302000020202020202020004F6B2100496E69D0
:104312007469616C204D656D6F72793A000200011B
:104322000033002D00350031002F00240022002030
:10433200001E002C002A0028002600116400000044
:10434200080009000A000B000C000D0003008000A9
:10435200F2070000000000007E14211F8F142D14AC
:104362002E14201F00401050004014540000000082
:104372007E14211F8F14EF1511163E150000000048
:0C438200F516C5167E1687169C16AD16A3
:00000001FF
