:1000000003C100002EC100002CC100002AC1000065
:1000100028C1000026C1000024C1000022C1000048
:1000200020C100001EC100001CC100001AC1000058
:1000300018C1000016C1000014C1000012C1000068
:1000400010C100000EC100000CC100000AC1000078
:1000500008C1000006C1000004C1000096C60000EF
:1000600000C10000FEC00000FCC0000057C200003C
:10007000F8C00000F6C00000F4C00000F2C00000AC
:10008000F0C00000EEC00000ECC00000EAC00000BC
:10009000E8C00000E6C00000E4C00000E2C00000CC
:1000A000E0C00000DEC00000DCC00000DAC00000DC
:1000B000D8C00000D6C00000D4C00000D2C00000EC
:1000C000D0C00000CEC00000CCC00000CAC00000FC
:1000D000C8C00000C6C00000C4C00000C2C000000C
:1000E000C0C0000000002100240027002A002D00CD
:1000F0003000330001010000040107010A01000083
:100100002200250028002B002E00310034000201BF
:100110000000050108010B0100002000230026005B
:1001200029002C002F00320000010000030106010D
:10013000090105050505070508080808020202026D
:100140000A0A080804040404010101010101010173
:100150000303030303030303040707070C0C0C0C3E
:100160000C0C0C0C02020202060606060606060627
:100170000B0B0B0B0B0B0B0B0102102020080810B4
:100180002040102040800201020108040201010207
:1001900004081020408080402010080402018004E0
:1001A000020180402010080402010804020101023B
:1001B0000408102040800102040810204080000044
:1001C000090A02080B0C0D070603040100000000D9
:1001D000000000000000000000000000000000001F
:1001E0000000000000000000000011100F000000DF
:1001F00000000000000000000000000000000000FF
:10020000000000003901060311241FBECFEFD1E228
:10021000DEBFCDBF00E00CBF12E0A0E0B2E0E8E638
:10022000F5E100E00BBF02C007900D92A43BB107BF
:10023000D9F71BBE13E0A4EBB2E001C01D92A135BB
:10024000B107E1F712E0C8E0D2E004C02297FE0156
:100250000E94AE0AC430D107C9F70E9496090C94D7
:10026000B20ACECEDC0101C06D9341505040E0F7A0
:100270000895CF92EF920F9384EB92E060917A020F
:1002800040917C0220917E0200918002E0908202E7
:10029000C090840209D40F91EF90CF90089560919F
:1002A000CB02643110F080E001C0862F962F94516C
:1002B000943118F0982F40E001C041E0862F885219
:1002C000843110F0892F01C042E06C53643110F08A
:1002D000682F01C043E084EB92E01CD28091CC02F5
:1002E000813029F484EB92E060E072E004C084EB9A
:1002F00092E062E072E00C94690A1F9384EB92E052
:1003000061E040E007D284EB92E064E072E00E949A
:10031000690A11E084EB92E061E0412FFBD184EBAC
:1003200092E068E172E00E94690A1F5F143091F761
:100330008CE08093CB0281E08093CC02B0DFEDECC7
:10034000F2E0119283E0ED31F807D9F781E0809374
:10035000CD028093D1028093D5028093D9028093FD
:10036000E1028093E5028093E9028093ED0280939D
:10037000F1028093F5028093F9028093FD0280934D
:100380000103809305038093090380930D038093F9
:10039000110380931503809319031F910895EF9221
:1003A000FF920F931F9304EB12E0C80161E040E05D
:1003B000B1D1C8016CE272E00E94690AC80160E034
:1003C00041E0A8D1C8016FE372E00E94690AC80148
:1003D0006AE041E09FD1C80167E472E00E94690AC7
:1003E000C80167E042E096D1C80162E572E00E9470
:1003F000690AC80160E04AE050E00E94580A8DE5B1
:10040000E82E82E0F82EC801B7010E94690AC801EF
:1004100062E04AE050E00E94580AC80167E043E009
:1004200079D1C8016FE572E00E94690AC80160E0F5
:100430004AE050E00E94580AC801B7010E94690AC8
:10044000C80160E04AE050E00E94580AC80160E03C
:1004500043E060D1C8016AE672E00E94690AC801FF
:1004600064E14AE050E00E94580A64E670E080E0EF
:1004700090E0D3D4C80176D11F910F91FF90EF90F7
:1004800008958DDF3ADF68E873E180E090E0C5C44D
:1004900080916E0261E064D68091700262E060D665
:1004A0008091720262E05CD68091740262E058D65C
:1004B0008091760262E054D68091780262E050D654
:1004C00080917A0261E04CD680917C0261E048D64E
:1004D0008091840261E044D68091820261E040D63E
:1004E0008091800261E03CD680917E0261E038D646
:1004F00084EB92E064E144E020E039D181E090E0D7
:10050000909334038093330380E092E09093300320
:1005100080932F038CE193E060E08FC01F920F92D5
:100520000FB60F920BB60F9211242F933F934F9358
:100530005F936F937F938F939F93AF93BF93EF934B
:10054000FF938091280380933D03882361F41092E8
:10055000C50080913A038093C4001092C60081E0E8
:100560008093280340C0813081F41092C5008091AF
:1005700039038093C4001092C60082E08093280360
:1005800010922C0310922B032EC080912B0390917C
:100590002C0390933C0380933B03E0911E03F09166
:1005A0001F03E80FF91F20812093C6009C012F5FD5
:1005B0003F4F30933C0320933B0380912F03909156
:1005C00030032817390759F4E0914003F0914103B3
:1005D000309711F080E019951092280304C03093F1
:1005E0002C0320932B03FF91EF91BF91AF919F912B
:1005F0008F917F916F915F914F913F912F910F90CC
:100600000BBE0F900FBE0F901F90189521E030E0A9
:10061000309332032093310388E090E090932E03CF
:1006200080932D033093340320933303909330034E
:1006300080932F03109227030895CF93DF93EC014B
:10064000F8948B85882329F48091C1008772809368
:10065000C1006C8F662321F487E08D8F84E18E8F3B
:100660008B8D8F3F29F061E07BD58B8D61E02BD6A0
:100670008B858823C9F481E061E072D51092C500B2
:100680008D8D8093C4008091C00082608093C000F3
:100690008091C2008E608093C2008091C100886406
:1006A0008093C1001092C60081E08C878B899C8961
:1006B00037D28A839B834B895C8960E070E0D2DD0E
:1006C0007894DF91CF91089508950895FC011382E5
:1006D000128280E992E0918380830895FC01A081D9
:1006E000B18118962D913C9119976FEFF9011995E9
:1006F0000895DC01ED91FC910284F385E02D40E04A
:1007000019950895FC016581862F846085836C604E
:10071000CF01EFCFDC0117969C911797491710F086
:10072000492F415018968C911897803139F49430A4
:1007300029F4E42FF0E0E456FD4F04C0E42FF0E08C
:10074000E056FD4F8081680F6068CD01D2CFDC019B
:10075000ED91FC910284F385E02D41E0199581E053
:1007600090E0089561E0C5DF80ED97E0AFC3CF93DF
:10077000DF93EC01423018F08C8188608C834F83CA
:100780006887222329F0413019F48C8184608C839E
:1007900064E670E080E090E040D36C8164FD2EC0A0
:1007A000E881F9810284F385E02DCE0163E042E027
:1007B000199584E991E18AD3E881F9810284F3856E
:1007C000E02DCE0163E042E0199584E991E17ED30A
:1007D000E881F9810284F385E02DCE0163E042E0F7
:1007E000199586E990E072D3E881F9810284F38556
:1007F000E02DCE0162E042E0199511C06062CE01A9
:1008000078DF84E991E162D36C816062CE0171DFAF
:1008100086E990E05BD36C816062CE016ADF6C8117
:100820006062CE0166DF84E08D83CE016BDFCE0196
:1008300099DF82E08E83CE0166E05BDFCE014EDF82
:10084000DF91CF9108950F931F938C01FC01858553
:1008500061E039D5F801858560E035D51F910F91AC
:100860000895BF92CF92DF92EF92FF920F931F9362
:10087000CF93DF93D82EC92EB42E282F392FC9013C
:100880008C01C0E0D0E0E62EFF240CC0B7010C2E96
:1008900002C0759567950A94E2F76170F801858545
:1008A00012D521960F5F1F4FCB1580F38D2D9C2DF8
:1008B000CADFDF91CF911F910F91FF90EF90DF90F2
:1008C000CF90BF9008950F931F93CF93DF93EC01C8
:1008D000162F042F60E0413009F461E08B85F3D4DA
:1008E0008C858F3F11F060E0EED4023089F08C816E
:1008F00084FF04C0CE01612F48E00DC0612F70E07D
:1009000084E0759567958A95E1F7CE0144E0A9DF0B
:10091000CE01612F44E0A5DFDF91CF911F910F91B0
:1009200008956F927F928F92AF92CF92EF920F9332
:100930001F93DF93CF93CDB7DEB73C01162F8E2DDB
:10094000F301438724870587E686C786A08A818AC4
:100950009E85928B9F85938B9889948B9989958B93
:1009600061E0FED3F301878561E0FAD3F30180896A
:1009700061E0F6D3F301818961E0F2D3112381F4C0
:10098000F301828961E0ECD3F301838961E0E8D36C
:10099000F301848961E0E4D3F301858961E0E0D368
:1009A000F301838561E0DCD3F30184858F3F11F08F
:1009B00061E0D6D3F301858561E0D2D3112319F02C
:1009C000F301148203C080E1F3018483F301838582
:1009D00060E079D4F301858560E075D4F301848506
:1009E0008F3F11F060E06FD48FEFF301868B12869A
:1009F0001186CF91DF911F910F91EF90CF90AF9023
:100A00008F907F906F900895DF92EF92FF920F93F7
:100A10001F938C01D62E7A01862F61E0A1D3D801D5
:100A20005696DC9256971A96FC92EE921997ED9193
:100A3000FC910084F185E02DC80160E019951F91BB
:100A40000F91FF90EF90DF900895DC01362F5696BE
:100A50002C9156972F3F39F1E22FF0E0E254FE4FF0
:100A6000E491EE2379F019968D919C911A97892B38
:100A700019F4822F70E005C06FEF70E0631B7109FD
:100A8000822F90C219968D919C911A97662319F026
:100A9000892B31F402C0019719F4822F61E013C44D
:100AA000822F60E010C408956F927F928F92AF9270
:100AB000BF92CF92DF92EF92FF920F931F933C0170
:100AC000162FF42ED22EB02EAE2C8C2CFFDD88EA01
:100AD00092E0D3018D939C9300D00F92EDB7FEB7B7
:100AE0003196ADB7BEB711961C9211821282138255
:100AF000C30161E0412F2FEF0F2DED2CCB2C11DF27
:100B00000F900F900F900F901F910F91FF90EF900B
:100B1000DF90CF90BF90AF908F907F906F900895AF
:100B20000F931F93CF93DF93BC018230910510F494
:100B300062E070E0E0914F03F091500340E050E03C
:100B4000A0E0B0E024C08081918186179707D0F0A3
:100B50008617970771F482819381109729F0139675
:100B60009C938E9312972CC09093500380934F03C5
:100B700027C04115510519F08417950718F48D0108
:100B8000AC01EF01DF01828193819C01F901309773
:100B9000D1F641155105F9F0CA01861B970B843037
:100BA000910580F48A819B810115110521F0F801DE
:100BB0009383828304C09093500380934F03FE017C
:100BC000329645C0FE01E80FF91F619371930297B9
:100BD000998388833CC080914D0390914E03892B6B
:100BE00041F4809188029091890290934E03809302
:100BF0004D0340918A0250918B024115510541F4F9
:100C00004DB75EB78091860290918702481B590BC1
:100C100020914D0330914E0324173507B0F4CA01DB
:100C2000821B930B8617970780F0AB014E5F5F4FD7
:100C30008417950750F0420F531F50934E03409373
:100C40004D03F9016193719302C0E0E0F0E0CF0140
:100C5000DF91CF911F910F910895CF93DF939C0166
:100C6000009709F48FC0EC0122971B821A826091D1
:100C70004F03709150036115710581F4888199814A
:100C8000820F931F20914D0330914E03281739078F
:100C900039F5D0934E03C0934D0374C0DB0140E09F
:100CA00050E0AC17BD0708F1BB83AA83FE01219178
:100CB0003191E20FF31FAE17BF0779F48D919C912C
:100CC0001197280F391F2E5F3F4F398328831296C3
:100CD0008D919C9113979B838A834115510571F4E3
:100CE000D0935003C0934F034DC012968D919C91A9
:100CF0001397AD01009711F0DC01D3CFDA01139601
:100D0000DC93CE931297FA0121913191E20FF31FF8
:100D1000CE17DF0769F488819981280F391F2E5F6C
:100D20003F4FFA01318320838A819B8193838283A1
:100D3000E0E0F0E0DB0112968D919C911397009713
:100D400019F0BC01FD01F6CFAB014E5F5F4FDB0137
:100D50008D919C91840F951F20914D0330914E03EE
:100D60002817390779F4309729F41092500310921C
:100D70004F0302C0138212824250504050934E03E0
:100D800040934D03DF91CF9108951F920F920FB6BC
:100D90000F9211242F933F938F939F93AF93BF9301
:100DA0008091480390914903A0914A03B0914B036D
:100DB00030914C030196A11DB11D232F2D5F2D37BE
:100DC00020F02D570196A11DB11D20934C03809357
:100DD000480390934903A0934A03B0934B03809137
:100DE000440390914503A0914603B09147030196B7
:100DF000A11DB11D8093440390934503A093460326
:100E0000B0934703BF91AF919F918F913F912F91E5
:100E10000F900FBE0F901F9018959B01AC017FB7EC
:100E2000F8948091440390914503A0914603B091BA
:100E3000470366B5A89B05C06F3F19F00196A11D39
:100E4000B11D7FBFBA2FA92F982F8827860F911D1C
:100E5000A11DB11D62E0880F991FAA1FBB1F6A95D3
:100E6000D1F7BC012DC0FFB7F89480914403909155
:100E70004503A0914603B0914703E6B5A89B05C082
:100E8000EF3F19F00196A11DB11DFFBFBA2FA92F89
:100E9000982F88278E0F911DA11DB11DE2E0880FAC
:100EA000991FAA1FBB1FEA95D1F7861B970B885E77
:100EB0009340C8F2215030404040504068517C4F30
:100EC000211531054105510571F60895019739F055
:100ED000880F991F880F991F02970197F1F70895BE
:100EE000789484B5826084BD84B5816084BD85B505
:100EF000826085BD85B5816085BDEEE6F0E08081CC
:100F000081608083E1E8F0E01082808182608083EC
:100F1000808181608083E0E8F0E08081816080836F
:100F2000E1EBF0E0808184608083E0EBF0E08081A1
:100F300081608083E1E9F0E080818260808380814C
:100F400081608083E0E9F0E0808181608083E1EA74
:100F5000F0E0808182608083808181608083E0EA2C
:100F6000F0E0808181608083E1E2F1E08081826055
:100F70008083808181608083E0E2F1E08081816014
:100F80008083EAE7F0E080818460808380818260F2
:100F900080838081816080838081806880831092DB
:100FA000C10008951F93CF93DF93182FEB0161E0E9
:100FB000D7D0209709F4CAC0CF3FD10509F4C9C0E2
:100FC000E12FF0E0E254FE4F8491893009F466C0CD
:100FD0008A30B0F48430F1F1853040F4823059F138
:100FE000833070F5813009F0AEC020C0873009F43D
:100FF00043C0883008F048C0863009F0A4C034C02F
:101000008D3009F478C08E3038F48B3009F45AC032
:101010008C3008F066C04CC0803109F480C081314A
:1010200009F487C08F3009F08EC06FC084B5806826
:1010300084BDC7BD91C084B5806284BDC8BD8CC06D
:1010400080918000806880938000D0938900C09355
:10105000880082C080918000806280938000D0935D
:101060008B00C0938A0078C08091B0008068809324
:10107000B000C093B30070C08091B00080628093D4
:10108000B000C093B40068C08091900080688093E5
:101090009000D0939900C09398005EC0809190001A
:1010A000806280939000D0939B00C0939A0054C0BC
:1010B00080919000886080939000D0939D00C093B1
:1010C0009C004AC08091A00080688093A00080911D
:1010D000A0008F7B8093A000D093A900C093A800AC
:1010E0003BC08091A00080628093A000D093AB00B1
:1010F000C093AA0031C08091A00088608093A000B6
:10110000D093AD00C093AC0027C0809120018068CF
:1011100080932001D0932901C09328011DC08091A4
:101120002001806280932001D0932B01C0932A017B
:1011300013C080912001886080932001D0932D01FD
:10114000C0932C0109C0C038D1051CF4812F60E088
:1011500002C0812F61E0B7D0DF91CF911F91089538
:10116000CF93DF93482F50E0CA0188589E4FFC016F
:1011700034914E5C5E4FFA018491882369F190E0CE
:10118000880F991FFC01EC51FF4FA591B491FC0110
:10119000E250FF4FC591D491662351F42FB7F894D4
:1011A0008C91932F909589238C93888189230BC0F0
:1011B000623061F42FB7F8948C91932F9095892326
:1011C0008C938881832B88832FBF06C09FB7F894A8
:1011D0008C91832B8C939FBFDF91CF9108958930A1
:1011E00009F449C08A30A0F4843051F1853040F4CC
:1011F000823079F1833000F5813009F063C026C078
:10120000873079F1883098F5863009F05BC025C0C9
:101210008D3009F442C08E3028F48B30B1F18C301F
:10122000C0F52DC0803109F442C0813109F445C0B8
:101230008F3009F047C037C0809180008F7703C09E
:10124000809180008F7D80938000089584B58F7792
:1012500002C084B58F7D84BD08958091B0008F77E2
:1012600003C08091B0008F7D8093B000089580917D
:1012700090008F7707C0809190008F7D03C0809190
:101280009000877F8093900008958091A0008F77D1
:1012900007C08091A0008F7D03C08091A000877F50
:1012A0008093A0000895809120018F7703C08091E2
:1012B00020018F7D80932001089580912001877FF8
:1012C000809320010895FF920F931F93F62E482FCD
:1012D00050E0CA0182549E4FFC012491CA018858F3
:1012E0009E4FFC0114914E5C5E4FFA010491002365
:1012F000C1F0222311F0822F72DFE02FF0E0EE0F19
:10130000FF1FE250FF4FA591B4919FB7F894FF20C3
:1013100021F48C911095812302C08C91812B8C93A8
:101320009FBF1F910F91FF9008950895CF93DF9372
:10133000D7DDFBDFADD8C0E0D0E0A3D82097E9F33C
:101340000E940000FACF0895CF92DF92EF92FF92B1
:101350000F931F93CF93DF937C016B018A01C0E051
:10136000D0E00FC0D6016D916D01D701ED91FC91D8
:101370000190F081E02DC7011995C80FD91F0150C8
:1013800010400115110571F7CE01DF91CF911F912A
:101390000F91FF90EF90DF90CF900895CF93DF9360
:1013A000EC016115710519F420E030E00FC0DB019C
:1013B0000D900020E9F71197A61BB70BE881F98182
:1013C0000280F381E02DAD0119959C01C901DF91E7
:1013D000CF9108954F925F927F928F929F92AF929A
:1013E000BF92CF92DF92EF92FF920F931F93DF9302
:1013F000CF93CDB7DEB7A1970FB6F894DEBF0FBE7F
:10140000CDBF2C01742ECB01223008F42AE019A2A2
:1014100031E2C32ED12CCC0EDD1E822E9924AA24BB
:10142000BB24672D752FA501940174D079018A0121
:10143000C801B701A50194014ED0472D461B089461
:10144000C108D1084A3014F4405D01C0495CF6017E
:101450004083E114F1040105110521F07E2C5F2D7C
:10146000C801DFCFC201B60199DFA1960FB6F8948B
:10147000DEBF0FBECDBFCF91DF911F910F91FF90C7
:10148000EF90DF90CF90BF90AF909F908F907F9024
:101490005F904F900895DC012115310541F4ED91E5
:1014A000FC910190F081E02D642F1995089592CF61
:1014B000EF92FF920F931F939A01E62EFF2400E014
:1014C00010E0B801A701E7DF1F910F91FF90EF90A7
:1014D000089564CF0895629FD001739FF001829FA9
:1014E000E00DF11D649FE00DF11D929FF00D839FB3
:1014F000F00D749FF00D659FF00D9927729FB00D50
:10150000E11DF91F639FB00DE11DF91FBD01CF0162
:1015100011240895A1E21A2EAA1BBB1BFD010DC0C8
:10152000AA1FBB1FEE1FFF1FA217B307E407F50793
:1015300020F0A21BB30BE40BF50B661F771F881F6F
:10154000991F1A9469F760957095809590959B0105
:10155000AC01BD01CF010895EE0FFF1F0590F4917E
:08156000E02D1994F894FFCF6F
:101568003E002000426163204E6578204D656D2065
:101578003030302D303030003030302030303020B6
:1015880030303020303030203030300054656368DF
:1015980020496E736964652E636F6D2E6D78004403
:1015A8004D582D35313200436F6E74726F6C6C6517
:1015B80072004669726D776172652076002E004868
:1015C80061726477617265207600494420002600C4
:1015D800210022002300240025001E001F001A00FD
:1015E8001B001C001D0080005103000000000000CB
:1015F800A703A409B70364036503A30900401050B7
:101608000040145400000000A703A409B703040510
:04161800250563043D
:00000001FF
