:1000000004C100002FC100002DC100002BC1000061
:1000100029C1000027C1000025C1000023C1000044
:1000200021C100001FC100001DC100001BC1000054
:1000300019C1000017C1000015C1000013C1000064
:1000400011C100000FC100000DC100000BC1000074
:1000500009C1000007C1000005C100000C9454292B
:1000600001C100000C944C26FDC000000C94EC264D
:10007000F9C00000F7C00000F5C00000F3C00000A8
:10008000F1C00000EFC00000EDC00000EBC00000B8
:10009000E9C00000E7C00000E5C000000C94822425
:1000A000E1C00000DFC00000DDC00000DBC00000D8
:1000B000D9C00000D7C00000D5C00000D3C00000E8
:1000C000D1C00000CFC00000CDC00000CBC00000F8
:1000D000C9C00000C7C00000C5C00000C3C0000008
:1000E000C1C0000000002100240027002A002D00CC
:1000F0003000330001010000040107010A01000083
:100100002200250028002B002E00310034000201BF
:100110000000050108010B0100002000230026005B
:1001200029002C002F00320000010000030106010D
:10013000090105050505070508080808020202026D
:100140000A0A080804040404010101010101010173
:100150000303030303030303040707070C0C0C0C3E
:100160000C0C0C0C02020202060606060606060627
:100170000B0B0B0B0B0B0B0B0102102020080810B4
:100180002040102040800201020108040201010207
:1001900004081020408080402010080402018004E0
:1001A000020180402010080402010804020101023B
:1001B0000408102040800102040810204080000044
:1001C000090A02080B0C0D070603040100000000D9
:1001D000000000000000000000000000000000001F
:1001E0000000000000000000000011100F000000DF
:1001F00000000000000000000000000000000000FF
:10020000000000003A01F123642711241FBECFEF44
:10021000D1E2DEBFCDBF00E00CBF15E0A0E0B2E050
:10022000EEE3FCE500E00BBF02C007900D92A03F9B
:10023000B107D9F71BBE1BE0A0EFB5E001C01D92CE
:10024000AA35B107E1F712E0CAE0D2E004C0229774
:10025000FE010E94192EC430D107C9F70E94882CD4
:100260000C941D2ECDCEDC0101C06D934150504049
:10027000E0F70895CF92EF920F938DE49AE06091AA
:100280009B0540919D0520919F050091A105E0905F
:10029000A305C090A5050E9485230F91EF90CF90F4
:1002A00008953F924F925F926F927F928F929F92AA
:1002B000AF92BF92CF92DF92EF92FF920F931F9374
:1002C00081E18093940555245394B4E04B2EA7E02C
:1002D0003A2EFFE09F2EE2E08E2E75E0772E68E04A
:1002E000662E53E0C52E46E0B42E39E0A32E1EE064
:1002F0000AE02BE0F22E9CE0E92E8DE0D82EBAC168
:100300008091840560E00E94262C80918C050E94DB
:10031000582C892B61F45092940560919505709149
:10032000960580919705909198050E949C2965E01B
:1003300070E080E090E00E949C2980918E050E94F0
:10034000582C892B61F44092940560919505709129
:10035000960580919705909198050E949C2965E0EB
:1003600070E080E090E00E949C29809190050E94BE
:10037000582C892B61F43092940560919505709109
:10038000960580919705909198050E949C2965E0BB
:1003900070E080E090E00E949C29809192050E948C
:1003A000582C892B61F49092940560919505709179
:1003B000960580919705909198050E949C2965E08B
:1003C00070E080E090E00E949C298091840561E0CB
:1003D0000E94262C8091860560E00E94262C809148
:1003E0008C050E94582C892B61F4809294056091B1
:1003F00095057091960580919705909198050E94BA
:100400009C2965E070E080E090E00E949C2980914A
:100410008E050E94582C892B61F47092940560918E
:1004200095057091960580919705909198050E9489
:100430009C2965E070E080E090E00E949C2980911A
:1004400090050E94582C892B61F46092940560916C
:1004500095057091960580919705909198050E9459
:100460009C2965E070E080E090E00E949C298091EA
:1004700092050E94582C892B61F41092940560918A
:1004800095057091960580919705909198050E9429
:100490009C2965E070E080E090E00E949C298091BA
:1004A000860561E00E94262C8091880560E00E940C
:1004B000262C80918C050E94582C892B61F4C092C7
:1004C000940560919505709196058091970590919E
:1004D00098050E949C2965E070E080E090E00E9411
:1004E0009C2980918E050E94582C892B61F4B09232
:1004F000940560919505709196058091970590916E
:1005000098050E949C2965E070E080E090E00E94E0
:100510009C29809190050E94582C892B61F4A0920F
:10052000940560919505709196058091970590913D
:1005300098050E949C2965E070E080E090E00E94B0
:100540009C29809192050E94582C892B61F410936C
:10055000940560919505709196058091970590910D
:1005600098050E949C2965E070E080E090E00E9480
:100570009C298091880561E00E94262C80918A0543
:1005800060E00E94262C80918C050E94582C892BBB
:1005900061F40093940560919505709196058091A2
:1005A0009705909198050E949C2965E070E080E095
:1005B00090E00E949C2980918E050E94582C892BE6
:1005C00061F4F09294056091950570919605809183
:1005D0009705909198050E949C2965E070E080E065
:1005E00090E00E949C29809190050E94582C892BB4
:1005F00061F4E09294056091950570919605809163
:100600009705909198050E949C2965E070E080E034
:1006100090E00E949C29809192050E94582C892B81
:1006200061F4D09294056091950570919605809142
:100630009705909198050E949C2965E070E080E004
:1006400090E00E949C2980918A0561E00E94262CFE
:10065000809182050E94582C892B61F41093940597
:1006600060919505709196058091970590919805F8
:100670000E949C2980919405813109F441CE1F91FB
:100680000F91FF90EF90DF90CF90BF90AF909F9031
:100690008F907F906F905F904F903F9008958DE482
:1006A0009AE06FE041E00E94A4218DE49AE00E946C
:1006B0008E2180E090E0E091270BF091280BE80F6D
:1006C000F91F1082019622E080309207A1F78091F5
:1006D00082050E94582C0197D1F36CE271E080E012
:1006E00090E00E949C29A2EFB5E020E030E0E0918C
:1006F000270BF091280BE20FF31F8C9180832F5F63
:100700003F4F129682E02030380789F78DE49AE057
:1007100066E042E00E94A4218DE49AE00C949621C8
:100720000F931F93CF93DF93EC01162F042F8DE4CB
:100730009AE00E94A4218DE49AE060E072E00E94B9
:10074000AD2DCA30D1053CF4612F6E5F8DE49AE087
:10075000402F0E94A421CE010A978A35910538F4D2
:10076000612F6F5F8DE49AE0402F0E94A421C43670
:10077000D10534F08DE49AE0612F402F0E94A4212E
:100780008DE49AE0BE014AE050E00E949B2DDF918B
:10079000CF911F910F910895DF92EF92FF920F93E7
:1007A0001F93CF93DF93D82E062F682F61508DE4CF
:1007B0009AE0402F0E94A4218DE49AE064E072E068
:1007C0000E94AD2D8091880560E00E94262C8DE46A
:1007D0009AE00E948E21EE24FF241EC08C2F912FC0
:1007E0006D2D70E0402F50E09BDF80917805909157
:1007F00079050197E091270BF091280BE80FF91F7D
:10080000C083E0917805F0917905EE0FFF1FE0516C
:10081000FA4FC08311837E01809192050E94582C6B
:100820000197D9F4809182050E94582C0197A9F470
:10083000809199050E94612A64E070E00E94CE2DAB
:10084000172FC62FD72F62E370E080E090E00E9460
:100850009C29EC16FD0601F3C1CF8DE49AE00E94BD
:1008600096218091880561E00E94262C6CE271E05F
:1008700080E090E00E949C29DF91CF911F910F9121
:10088000FF90EF90DF9008951F9380918A0560E0BC
:100890000E94262C1FEF809190050E94582C0197F2
:1008A00009F046C0809182050E94582C019709F0FA
:1008B0003FC080917805909179050197E091270BD1
:1008C000F091280BE80FF91F10836091490A70E03E
:1008D0006250704040914A0A8FEF90E050E020DF74
:1008E00064E670E080E090E00E949C2980917805A9
:1008F000909179050197E091270BF091280BE80F73
:10090000F91F10826091490A62508DE49AE040918B
:100910004A0A0E94A4218DE49AE066E072E00E94F7
:10092000AD2D64E670E080E090E00E949C29B3CF9A
:1009300080918A0561E00E94262C6CE271E080E0E3
:1009400090E00E949C298DE49AE06091490A4091D0
:100950004A0A0E94A4211F910895CF92DF92EF923C
:10096000FF920F931F938C016DE070E040E050E028
:10097000D7DE7EE0C72ED12CC00ED11EC60161E1AC
:1009800070E040E050E0CCDE60EFE62E65E0F62E51
:10099000F801EE0FFF1FEE0DFF1D8081918161E0D8
:1009A00070E041E050E0BCDEF8013196EE0FFF1F31
:1009B000EE0DFF1D8081918165E070E041E050E027
:1009C000AFDEF8013296EE0FFF1FEE0DFF1D8081A6
:1009D000918169E070E041E050E0A2DEF8013396D9
:1009E000EE0FFF1FEE0DFF1D808191816DE070E025
:1009F00041E050E095DEF8013496EE0FFF1FEE0D5A
:100A0000FF1D8081918161E170E041E050E088DE6E
:100A1000F8013596EE0FFF1FEE0DFF1D80819181CD
:100A200061E070E042E050E07BDEF8013696EE0FC8
:100A3000FF1FEE0DFF1D8081918165E070E042E0B7
:100A400050E06EDEF8013796EE0FFF1FEE0DFF1D32
:100A50008081918169E070E042E050E061DEF80160
:100A60003896EE0FFF1FEE0DFF1D808191816DE026
:100A700070E042E050E054DEF8013996EE0FFF1FBF
:100A8000EE0DFF1D8081918161E170E042E050E058
:100A900047DEF8013A96EE0FFF1FEE0DFF1D808135
:100AA000918161E070E043E050E03ADEF8013B966E
:100AB000EE0FFF1FEE0DFF1D8081918165E070E05C
:100AC00043E050E02DDE045F1F4FF801EE0FFF1FE3
:100AD000EE0DFF1D8081918169E070E043E050E000
:100AE0001FDE0F5F1F4F000F111F0E0D1F1DF8019E
:100AF000808191816DE070E043E050E011DECC0C2C
:100B0000DD1CEC0CFD1CF7018081918161E170E03E
:100B100043E050E005DE1F910F91FF90EF90DF90D2
:100B2000CF900895FF920F931F93CF93DF93F82EEA
:100B30008DE49AE06091490A40914A0A0E94A421FA
:100B40008DE49AE06AE072E00E94AD2D8DE49AE0B7
:100B50000E948E216091490A6E5F6093490A8DE47C
:100B60009AE040914A0A0E94A4219BDB609194057F
:100B70006A3018F000E010E016C08DE49AE04AE018
:100B800050E00E944C2D8DE49AE06091490A40911A
:100B90004A0A0E94A42180919405082F10E0109326
:100BA0004C0A00934B0A809194058E3009F4D8C00A
:100BB00091E0F91691F48A3009F470C08B3009F491
:100BC00076C08C3009F47AC08D3039F488EC92E02C
:100BD00090934C0A80934B0ADFC063DB80919405AD
:100BE0008E3029F410934C0A00934B0AB9C091E05F
:100BF000F91659F48A3009F451C08B3009F457C002
:100C00008C3009F45BC08D3009F38A3018F0C0E0F5
:100C1000D0E029C06091490A61506093490A8DE48F
:100C20009AE040914A0A0E94A4218DE49AE0B8011A
:100C30004AE050E00E949B2D8DE49AE0609194057B
:100C40004AE050E00E944C2D80919405C82FD0E0DE
:100C50006091490A6F5F6093490A8DE49AE0409180
:100C60004A0A0E94A4211DDB809194058E3089F4EC
:100C7000C801B3E0880F991FBA95E1F7000F111F63
:100C8000800F911FC80FD91FD0934C0AC0934B0AF5
:100C900067C091E0F916C1F48A3039F48FEF90E023
:100CA00090934C0A80934B0A5BC08B3029F41092CE
:100CB0004C0A10924B0A54C08C3019F484E692E02E
:100CC00087CF8D3009F482CF8A3008F049C0609117
:100CD000490A62506093490A8DE49AE040914A0AB9
:100CE0000E94A4218DE49AE0B8014AE050E00E94FD
:100CF0009B2D8DE49AE0BE014AE050E00E949B2DBE
:100D00006091490A6E5F6093490A8DE49AE04091D0
:100D10004A0A0E94A4218DE49AE0609194054AE079
:100D200050E00E944C2D84E690E0089F9001099FBE
:100D3000300D189F300D112480919405280F311D1E
:100D4000CE01F3E0880F991FFA95E1F7CC0FDD1F74
:100D50008C0F9D1F280F391F30934C0A20934B0A8C
:100D60008DE49AE00E9496216091490A70E06250F9
:100D7000704040914A0A80914B0A90914C0A50E091
:100D8000CFDC6091490A64506093490A8DE49AE08F
:100D900040914A0A0E94A4218DE49AE00E94962183
:100DA0008DE49AE06091490A40914A0A0E94A42188
:100DB0006CE271E080E090E00E949C29DF91CF918D
:100DC0001F910F91FF9008958DE49AE00E94CC212D
:100DD000A2EFB5E080E090E01D921D92E091270B1C
:100DE000F091280BE80FF91F1082019622E0803065
:100DF000920791F78DE49AE00E94CC218DE49AE06D
:100E000063E041E00E94A4218DE49AE06EE072E08C
:100E10000E94AD2D8DE49AE063E042E00E94A4219F
:100E20008DE49AE06EE172E00E94AD2D8DE49AE0CF
:100E300063E143E00E94A4218DE49AE00E948E21A8
:100E400068EE73E080E090E00E949C298DE49AE0D7
:100E50000C949621CF93DF938DE49AE00E94CC21ED
:100E6000C0E0D0E08DE49AE0BE0142E050E00E9494
:100E70009B2D219682E0C130D807A1F78DE49AE03E
:100E80000E94CC218DE49AE00E948E218DE49AE0AC
:100E900063E040E00E94A4218DE49AE068E272E001
:100EA0000E94AD2D8DE49AE061E041E00E94A42112
:100EB0008DE49AE068E372E00E94AD2D8DE49AE043
:100EC00060E043E00E94A4218DE49AE06CE472E0CB
:100ED0000E94AD2D8DE49AE061E04AE050E00E946E
:100EE0004C2D8DE49AE063E572E00E94AD2D8DE417
:100EF0009AE062E04AE050E00E944C2D8DE49AE0D6
:100F00006BE043E00E94A4218DE49AE065E572E085
:100F10000E94AD2D8DE49AE060E04AE050E00E942E
:100F20004C2D8DE49AE063E572E00E94AD2D8DE4D6
:100F30009AE064E04AE050E00E944C2D8DE49AE093
:100F400069E042E00E94A4218DE49AE06CE572E041
:100F50000E94AD2D6091F609662339F48DE49AE084
:100F60006EE572E00E94AD2D06C08DE49AE04AE085
:100F700050E00E944C2D8DE49AE06AE042E00E942D
:100F8000A421809182050E94582C0197D1F36CE234
:100F900071E080E090E00E949C298DE49AE00E943C
:100FA000CC218DE49AE063E040E00E94A4218DE42E
:100FB0009AE060E672E00E94AD2D8DE49AE060E078
:100FC00041E00E94A4218DE49AE06FE672E00E9465
:100FD000AD2D8DE49AE060E042E00E94A4218DE412
:100FE0009AE060E872E00E94AD2D8DE49AE060E046
:100FF00043E00E94A4218DE49AE061E972E00E943E
:10100000AD2D8DE49AE062E041E00E94A4218DE4E0
:101010009AE062E141E00E94A4218DE49AE06CE54F
:1010200072E00E94AD2D6091F609662339F48DE4DB
:101030009AE06EE572E00E94AD2D06C08DE49AE064
:101040004AE050E00E944C2D8DE49AE063E141E0DB
:101050000E94A421809182050E94582C0197D1F30F
:101060006CE271E080E090E00E949C298DE49AE0BF
:101070000E949621DF91CF910895EF92FF920F93F6
:101080001F93CF93DF936091AF057091B00584E219
:101090009BE00E9417268093F609882309F492C0EA
:1010A00012EFE12E15E0F12E00E010E0C0E0D0E0FC
:1010B0008091F6098430E1F0853038F4823081F097
:1010C000833090F4813069F509C08630C9F08630EC
:1010D00098F08730C9F0883021F51AC08E0121C000
:1010E0008E0100501E4F1DC08E0100501C4F19C0B4
:1010F0008E0100501A4F15C08E010050184F11C0BC
:101100008E010050164F0DC08E010050144F09C0C3
:101110008E010050124F8FE00D3F180714F00CEFB6
:101120001FE084E29BE0B8010E941726F70180834C
:101130001182E091270BF091280BEC0FFD1F8083AB
:10114000219682E090E0E80EF91E92E0C030D907C7
:1011500009F0AECF8DE49AE00E94CC218DE49AE0B4
:1011600063E041E00E94A4218DE49AE065EA72E028
:101170000E94AD2D8DE49AE063E042E00E94A4213C
:101180008DE49AE064EB72E00E94AD2D8DE49AE06C
:101190006091F6094AE050E00E944C2D8DE49AE0FF
:1011A0006AE042E00E94A4218DE49AE00E948E2130
:1011B00060ED77E080E090E00E949C298DE49AE069
:1011C0000E949621DF91CF911F910F91FF90EF9098
:1011D000089584E29BE061E072E00E941726682F88
:1011E0008091640A882361F46623D1F48091A70575
:1011F0006FE770E00E94952A81E08093640A0AC03C
:10120000813041F48091A70560E070E00E94952A4A
:101210001092640A6CE271E080E090E00C949C29EA
:101220008091A70570E0E6CF2F923F924F925F9298
:101230006F927F928F929F92AF92BF92CF92DF92E6
:10124000EF92FF920F931F93DF93CF93CDB7DEB74B
:1012500063970FB6F894DEBF0FBECDBF89837B8B3B
:101260006A8B0091F7091091F8098DE49AE0602FDC
:10127000412F0E94A4218DE49AE06BEB72E00E9462
:10128000AD2D8A899B890D969B838A83EA89FB8988
:101290003896FD83EC838A899B8903969F838E838E
:1012A000EA89FB893E96F987E8878A899B890996AE
:1012B0009B878A87EA89FB893496FD87EC876AE0F9
:1012C000262E312C8A899B89280E391E0B969F87E2
:1012D0008E87EA89FB893C96F98BE88B57E0852E4F
:1012E000912C8A899B89880E991E46E0642E712C68
:1012F000680E791E35E0432E512C480E591E6C01A4
:101300000894C11CD11C22E0A22EB12CA80EB91E3B
:1013100084E1E82EF12C8091840560E00E94262C67
:10132000809192050E94582C892B59F46091950563
:101330007091960580919705909198050E949C293F
:1013400048DF8091840561E00E94262C80917E0513
:101350000E94582C892BF9F46CE271E080E090E057
:101360000E949C292091F7098091F80990E08E9DB8
:10137000A0018F9D500D9E9D500D1124222309F434
:1013800024E12150FA01E20FF11DE750F64F808170
:101390008130A1F724C0809180050E94582C892BB0
:1013A00009F56CE271E080E090E00E949C292091B8
:1013B000F7098091F80990E08E9DA0018F9D500D56
:1013C0009E9D500D11242F5F243108F020E0FA017A
:1013D000E20FF11DE750F64F80818130A1F7209395
:1013E000F7094EC180917C050E94582C892B09F584
:1013F0006CE271E080E090E00E949C292091F80965
:101400008091F709482F50E02F5F243008F020E04A
:10141000822F90E08E9DF0018F9DF00D9E9DF00D2E
:101420001124E40FF51FE750F64F8081813061F7FA
:1014300026C080917A050E94582C892B19F56CE200
:1014400071E080E090E00E949C292091F809809151
:10145000F709482F50E0222309F424E02150822F7D
:1014600090E08E9DF0018F9DF00D9E9DF00D11245A
:10147000E40FF51FE750F64F8081813061F720932C
:10148000F809FEC0809182050E94582C892B09F032
:1014900042CF6CE271E080E090E00E949C29409194
:1014A000F8096091F709842F90E08E9DF0018F9DDF
:1014B000F00D9E9DF00D1124E60FF11DE750F64F43
:1014C0008081813009F0FAC08DE49AE00E94A42165
:1014D0008DE49AE06DEB72E00E94AD2D82E0C8C011
:1014E0009091F7099C3031F48091F809882309F034
:1014F00048C01FC0903181F48091F809882309F019
:1015000049C08DE49AE061E040E00E94A4218DE4AE
:101510009AE06FEB72E0A9C0943029F48091F80949
:101520008823F9F406C0983089F48091F80988235B
:1015300001F58DE49AE061E040E00E94A4218DE491
:101540009AE06FEB72E00E94AD2D85C0992339F4CB
:101550008091F809813039F58A899B8977C0943068
:1015600031F48091F8098130E1F4C6016FC0983000
:1015700031F48091F8098130E1F4C50167C09C30F5
:1015800039F48091F809813031F58E819F815EC0F8
:10159000903139F48091F809813031F58C859D8541
:1015A00055C0992331F48091F809823031F5C20198
:1015B0004DC0943031F48091F809823031F5C30187
:1015C00045C0983031F48091F809823039F5C40172
:1015D0003DC09C3039F48091F809823041F58C810E
:1015E0009D8134C0903139F48091F809823041F501
:1015F0008A859B852BC0992331F48091F80983302B
:1016000051F5C10123C0943039F48091F809833039
:1016100011F58E859F851AC0983039F48091F809AC
:101620008330C9F48889998911C09C3039F480913C
:10163000F809833081F48A819B8108C0903159F484
:101640008091F809833039F48885998561E070E0EC
:1016500040E050E065D88DE49AE060E140E00E940F
:10166000A4218DE49AE06EE572E00E94AD2D81E048
:101670000091F7091091F809823009F04CCE1FC093
:101680008DE49AE0602F412F0E94A4218DE49AE01E
:1016900063EC72E00E94AD2D8DE49AE06091F70951
:1016A0004091F8090E94A4218DE49AE06BEB72E06E
:1016B0000E94AD2D99819130D1F612CFFFCF639664
:1016C0000FB6F894DEBF0FBECDBFCF91DF911F9153
:1016D0000F91FF90EF90DF90CF90BF90AF909F90D1
:1016E0008F907F906F905F904F903F902F900895D4
:1016F0001F93182F8DE49AE00E94CC2168EC70E0D3
:1017000080E090E00E949C298DE49AE066E040E051
:101710000E94A4218DE49AE065EC72E00E94AD2D58
:101720008DE49AE061E041E00E94A4218DE49AE01A
:1017300062ED72E00E94AD2D8DE49AE061E042E03E
:101740000E94A4218DE49AE066EE72E00E94AD2D25
:101750008DE49AE061E043E00E94A4218DE49AE0E8
:101760006AEF72E00E94AD2D123079F01330C1F0B3
:10177000113011F58DE49AE061E040E00E94A4216F
:101780008DE49AE06DE073E015C08DE49AE061E0CD
:1017900040E00E94A4218DE49AE062E173E00AC077
:1017A0008DE49AE060E040E00E94A4218DE49AE09C
:1017B00067E173E00E94AD2D8DE49AE063E140E0C3
:1017C0000E94A4216091F609662339F48DE49AE021
:1017D0006EE572E00E94AD2D06C08DE49AE04AE00D
:1017E00050E00E944C2D1092F70981E08093F80997
:1017F000E9EFF9E0DF0198961082148A1C92549662
:101800001C925497319611968AE0ED30F807A1F7B3
:1018100081E08083848B80A78783838F87A78687D7
:1018200082A386AB80E060E070E0FEDC8091F70987
:10183000882349F48091F809813001F18230F1F078
:10184000833031F51BC0873071F48091F809813005
:1018500011F484E013C0823011F485E00FC08330AE
:10186000B9F486E00BC08E3099F48091F80981308C
:1018700011F487E003C0823021F488E08093F609F8
:1018800007C020E030E0833029F421E030E002C0DE
:1018900020E030E0C9011F910895EF92FF920F936D
:1018A0001F93CF93DF9382E023DF019719F421E0A8
:1018B00030E098C08DE49AE00E94CC2172EFE72ED0
:1018C00075E0F72E00E010E0C0E0D0E08091F6096E
:1018D0008430E1F0853038F4823081F0833090F448
:1018E000813069F509C08630C9F0863098F08730BC
:1018F000C9F0883021F51AC08E0121C08E01005038
:101900001E4F1DC08E0100501C4F19C08E0100508B
:101910001A4F15C08E010050184F11C08E01005093
:10192000164F0DC08E010050144F09C08E0100509B
:10193000124F8FE00D3F180714F00CEF1FE084E208
:101940009BE0B8010E941726F70180831182E09185
:10195000270BF091280BEC0FFD1F8083219682E06E
:1019600090E0E80EF91E92E0C030D90709F0AECF42
:101970008DE49AE00E94CC218DE49AE063E041E09E
:101980000E94A4218DE49AE065EA72E00E94AD2DE8
:101990008DE49AE063E042E00E94A4218DE49AE0A5
:1019A00064EB72E00E94AD2D8DE49AE06091F6093F
:1019B0004AE050E00E944C2D8DE49AE063E143E060
:1019C0000E94A4218DE49AE00E948E2168EE73E0CB
:1019D00080E090E00E949C298DE49AE00E9496218C
:1019E00020E030E0C901DF91CF911F910F91FF906E
:1019F000EF9008956091AD057091AE0584E29BE093
:101A00000E941726682F863908F466E98091A90597
:101A100070E00C94952A1F936091AB057091AC0512
:101A200084E29BE00E941726182F8091A705612F62
:101A300070E00E94952A112319F41092640A03C0E1
:101A400081E08093640A1F9108950F931F93CF93B1
:101A5000DF938DE49AE00E94CC218DE49AE061E06E
:101A600041E00E94A4218DE49AE06DE173E00E94C0
:101A7000AD2D8DE49AE061E042E00E94A4218DE466
:101A80009AE061E273E00E94AD2D8DE49AE063E19B
:101A900042E00E94A4218DE49AE00E948E2102EF90
:101AA00015E0C0E0D0E084E29BE0BE0140E00E948F
:101AB0001E2682E0C030D80754F4F801118210824B
:101AC000E091270BF091280BEC0FFD1F108221965F
:101AD0000E5F1F4FFFE0CE3FDF0729F78DE49AE04E
:101AE0000E94CC218DE49AE00E9496218DE49AE038
:101AF00062E042E00E94A4218DE49AE064E373E096
:101B00000E94AD2D8DE49AE062E041E00E94A421A4
:101B10008DE49AE06DE173E00E94AD2D1092F6091C
:101B200068EE73E080E090E00E949C29DF91CF9105
:101B30001F910F910895EF92FF920F931F93CF93F0
:101B4000DF9383E0D5DD019719F421E030E0C5C0D3
:101B50008DE49AE00E94CC218DE49AE061E041E0BE
:101B60000E94A4218DE49AE061E273E00E94AD2D11
:101B70008DE49AE061E042E00E94A4218DE49AE0C5
:101B800064EB72E00E94AD2D8DE49AE067E042E0E4
:101B90000E94A4218DE49AE06091F6094AE050E0A9
:101BA0000E944C2D8DE49AE063E143E00E94A42161
:101BB0008DE49AE00E948E21E0EFEE2EE5E0FE2E0D
:101BC00000E010E0C0E0D0E0F70111821082E09167
:101BD000270BF091280BEC0FFD1F10828091F60966
:101BE0008430E1F0853038F4823081F0833090F435
:101BF000813069F509C08630C9F0863098F08730A9
:101C0000C9F0883021F51AC08E0121C08E01005024
:101C10001E4F1DC08E0100501C4F19C08E01005078
:101C20001A4F15C08E010050184F11C08E01005080
:101C3000164F0DC08E010050144F09C08E01005088
:101C4000124FFFE00E3F1F0714F00DEF1FE084E27C
:101C50009BE0B80140E00E941E26219682E090E0C1
:101C6000E80EF91E92E0C030D90709F0ADCF8DE43F
:101C70009AE00E94CC218DE49AE062E041E00E946B
:101C8000A4218DE49AE064E373E00E94AD2D8DE41D
:101C90009AE062E042E00E94A4218DE49AE064EBC5
:101CA00072E00E94AD2D8DE49AE06091F6094AE061
:101CB00050E00E944C2D8DE49AE063E143E00E94E5
:101CC000A42168EE73E080E090E00E949C298DE4FE
:101CD0009AE00E94962120E030E0C901DF91CF9187
:101CE0001F910F91FF90EF900895EF92FF920F9345
:101CF0001F93CF93DF9381E0FBDC019719F421E080
:101D000030E0BDC08DE49AE00E94CC218DE49AE0E1
:101D100061E041E00E94A4218DE49AE064E473E074
:101D20000E94AD2D8DE49AE061E042E00E94A42182
:101D30008DE49AE064EB72E00E94AD2D8DE49AE0B0
:101D400067E042E00E94A4218DE49AE06091F609E8
:101D50004AE050E00E944C2D8DE49AE063E143E0BC
:101D60000E94A4218DE49AE00E948E21F2EFEF2ED2
:101D7000F5E0FF2EC0E0D0E000E010E08091F60931
:101D80008430E1F0853038F4823081F0833090F493
:101D9000813069F509C08630C9F0863098F0873007
:101DA000C9F0883021F51AC0E80121C0E801C0500F
:101DB000DE4F1DC0E801C050DC4F19C0E801C05023
:101DC000DA4F15C0E801C050D84F11C0E801C0502B
:101DD000D64F0DC0E801C050D44F09C0E801C05033
:101DE000D24F8FE0CD3FD80714F0CCEFDFE00F5F8C
:101DF0001F4F84E29BE0BE01F70140810E941E2636
:101E000082E090E0E80EF91E92E00030190709F038
:101E1000B5CF8DE49AE00E94CC218DE49AE063E096
:101E200041E00E94A4218DE49AE065E573E00E9400
:101E3000AD2D8DE49AE063E042E00E94A4218DE4A0
:101E40009AE064EB72E00E94AD2D8DE49AE060911F
:101E5000F6094AE050E00E944C2D8DE49AE063E1DF
:101E600043E00E94A42168EE73E080E090E00E94CD
:101E70009C298DE49AE00E94962120E030E0C9017F
:101E8000DF91CF911F910F91FF90EF9008958DE416
:101E90009AE00E94CC218DE49AE060E040E00E944C
:101EA000A4218DE49AE063E673E00E94AD2D609179
:101EB000F609662339F48DE49AE06EE572E00E943B
:101EC000AD2D06C08DE49AE04AE050E00E944C2D12
:101ED0008DE49AE061E041E00E94A4218DE49AE063
:101EE0006DE073E00E94AD2D8DE49AE061E042E088
:101EF0000E94A4218DE49AE062E173E00E94AD2D7E
:101F00008DE49AE061E043E00E94A4218DE49AE030
:101F100067E173E00E94AD2D8DE49AE067E042E056
:101F20000E94A4218DE49AE066E773E00E94AD2D43
:101F30008DE49AE067E041E00E94A4218DE49AE0FC
:101F40006FE773E00E94AD2D8DE49AE060E143E01D
:101F50000E94A4218DE49AE068E873E00E94AD2D10
:101F60008DE49AE067E043E00E94A4218DE49AE0CA
:101F70006DE873E00E94AD2D1092F70981E0809327
:101F8000F809E9EFF9E0DF0198961082148A1C92B3
:101F900054961C925497319611968AE0ED30F807CA
:101FA000A1F781E08083848B80A7828F86A78683B8
:101FB00087AB80E060E070E037D98091F709882333
:101FC00081F48091F809823029F467DC019709F4E3
:101FD0005ECF0895833061F4AEDD019709F457CFE9
:101FE00008958630A9F48091F809823041F42DCD0E
:101FF000813071F47ADE019709F449CF0895833076
:1020000011F40C94E406813019F40E944F03D1CFEF
:1020100008959F92AF92BF92CF92DF92EF92FF927C
:102020000F931F93CF93DF930AE0902E1BE0E12ED6
:10203000B8E0CB2ED12CA6E9AA2EB12CCFEFD0E060
:102040006091AB057091AC0584E29BE00E9417267D
:10205000182F6091AD057091AE0584E29BE00E945F
:102060001726082F6091AF057091B00584E29BE0C0
:102070000E941726F82E8DE49AE00E94CC218DE470
:102080009AE060E040E00E94A4218DE49AE066E9D5
:1020900073E00E94AD2D8DE49AE06FE042E00E9473
:1020A000A4218DE49AE06EE973E00E94AD2D8DE4E9
:1020B0009AE060E041E00E94A4218DE49AE064EAA5
:1020C00073E00E94AD2D812F90E06BE070E041E065
:1020D00050E00E9490038DE49AE061E042E00E94AB
:1020E000A4218DE49AE06FEA73E00E94AD2D802F69
:1020F00090E06BE070E042E050E00E9490038DE4DD
:102100009AE06FE043E00E94A4218DE49AE068E841
:1021100073E00E94AD2D8DE49AE061E043E00E94FF
:10212000A4218DE49AE069EB73E00E94AD2D8F2D20
:102130008150883068F08DE49AE06BE043E00E94C3
:10214000A4218DE49AE06FEB72E00E94AD2D08C0EF
:102150008F2D90E06BE070E043E050E00E94900330
:102160009092F70981E08093F809E9EFF9E0DF0147
:1021700098961082148A1C9254961C925497319609
:1021800011962AE0ED30F207A1F781E08287868F71
:1021900082AB86AB82A380E060E070E045D880919E
:1021A000F7098A3009F05CC18091F809813009F0A3
:1021B00083C080934A0AE092490A0E949205809166
:1021C0004B0A90914C0A22E0883C920709F045C0E6
:1021D0008DE49AE06AE041E00E94A4218DE49AE057
:1021E00064E072E00E94AD2D8091880560E00E945D
:1021F000262C8DE49AE00E948E21809192050E9407
:10220000582C019709F03BC1809182050E94582CFF
:10221000019709F034C1809199050E94612A64E018
:1022200070E00E94CE2DCB0160934B0A90934C0A34
:102230006BE070E041E050E00E94900360914B0A37
:1022400070914C0A8091A7050E94952A62E370E084
:1022500080E090E00E949C29D0CF8F3F910569F0EB
:1022600064F0D0934C0AC0934B0A8FEF90E06BE080
:1022700070E041E050E00E94900360914B0A709141
:102280004C0A8091A7050E94952A40914B0A5091D3
:102290004C0A4115510519F41092640A06C014162F
:1022A00015061CF481E08093640A6091AB0570917F
:1022B000AC0584E29BE0D1C0823009F098C08093E5
:1022C0004A0AE092490A81E00E94920580914B0AF5
:1022D00090914C0A22E0883C920709F058C08DE4A6
:1022E0009AE06AE042E00E94A4218DE49AE064E072
:1022F00072E00E94AD2D8091880560E00E94262C3E
:102300008DE49AE00E948E2123C06BE070E042E0F1
:1023100050E00E94900360914B0A70914C0A8091AA
:10232000A9050E94952A80914B0A90914C0A853903
:10233000910544F486E990E06BE070E042E050E003
:102340000E94900362E370E080E090E00E949C298C
:10235000809192050E94582C019709F0A0C08091AD
:1023600082050E94582C019709F099C08091990527
:102370000E94612A64E070E00E94CE2DCB01709330
:102380004C0A60934B0A663971056CF2BECF8F3FE1
:10239000910569F064F0D0934C0AC0934B0A8FEF1B
:1023A00090E06BE070E042E050E00E94900380918A
:1023B0004B0A90914C0A8639910564F4B0924C0A0C
:1023C000A0924B0A86E990E06BE070E042E050E0BA
:1023D0000E94900360914B0A70914C0A8091A9056C
:1023E0000E94952A6091AD057091AE0532C0833090
:1023F00009F0D1CE80934A0AE092490A81E00E9416
:10240000920580914B0A90914C0A099764F0D09202
:102410004C0AC0924B0A88E090E06BE070E043E029
:1024200050E00E94900380914B0A90914C0A892BB6
:1024300061F48DE49AE06BE043E00E94A4218DE416
:102440009AE06FEB72E00E94AD2D6091AF05709144
:10245000B00584E29BE040914B0A0E941E269BCE71
:102460008E3009F098CE8091F809833011F427D08E
:1024700092CE823009F08FCE0E942A07E1CD8DE402
:102480009AE00E9496218091880561E00E94262CA6
:102490006CE271E080E090E00E949C29F6CE8DE431
:1024A0009AE00E9496218091880561E00E94262C86
:1024B0006CE271E080E090E00E949C2993CF8DE473
:1024C0009AE00E94CC218DE49AE060E040E00E9416
:1024D000A4218DE49AE063EC73E00E94AD2D60913D
:1024E000F609662339F48DE49AE06EE572E00E9405
:1024F000AD2D06C08DE49AE04AE050E00E944C2DDC
:102500008DE49AE062E041E00E94A4218DE49AE02B
:1025100067ED73E00E94AD2D8DE49AE062E042E049
:102520000E94A4218DE49AE06FED73E00E94AD2D2E
:102530008DE49AE062E043E00E94A4218DE49AE0F9
:1025400066EE73E00E94AD2D8DE49AE06BE043E00F
:102550000E94A4218DE49AE06DEE73E00E94AD2DFF
:102560008DE49AE06BE040E00E94A4218DE49AE0C3
:1025700066EF73E00E94AD2D8DE49AE06BE042E0DF
:102580000E94A4218DE49AE06DEF73E00E94AD2DCE
:102590008DE49AE06BE041E00E94A4218DE49AE092
:1025A00067E074E00E94AD2D81E08093F70982E03E
:1025B0008093F809E9EFF9E0DF0198961082148A18
:1025C0001C9254961C925497319611968AE0ED30E5
:1025D000F807A1F781E08183858B81A782AB809387
:1025E000030A868F828780E060E070E00E94140911
:1025F0008091F709813029F48091F809813009F43C
:102600008FD28091F709813029F48091F8098230C6
:1026100009F430D08091F709813029F48091F809CC
:10262000833009F49AD48091F7098A3029F4809193
:10263000F809833009F494D68091F7098A3029F497
:102640008091F809882309F4E4DC8091F7098A3045
:1026500031F48091F809823011F40E94121C8091AB
:10266000F7098A3031F48091F809813011F40FDCD8
:1026700026CF08952F923F924F925F926F927F9252
:102680008F929F92AF92BF92CF92DF92EF92FF9282
:102690000F931F93DF93CF93CDB7DEB760970FB63D
:1026A000F894DEBF0FBECDBF81E090E09093790536
:1026B00080937805988B8F8711E00DE004C021E0AE
:1026C00030E0388B2F878DE49AE00E94CC218DE496
:1026D0009AE060E040E00E94A4218DE49AE06EE080
:1026E00074E00E94AD2D8DE49AE067E040E00E9426
:1026F000A4216091F609662339F48DE49AE06EE531
:1027000072E00E94AD2D06C08DE49AE04AE050E0F0
:102710000E944C2D8F8598890E94AD043CE0309337
:10272000F7091092F809E9EFF9E0DF0198961082B5
:10273000148A1C9254961C925497319611968AE0F2
:10274000ED30F807A1F71093FD091093010A1093DB
:10275000050A1093090A1083148310871487108BBD
:10276000148B108F148F10A314A310A714A710ABF1
:1027700014AB10AFEF85F8893C96FA83E9832F8577
:102780003889295F3F4F3C832B838F859889029638
:102790009E838D83EF85F8893D96F887EF832F859B
:1027A0003889285F3F4F3A8729878F859889039614
:1027B0009C878B87EF85F8893E96FE87ED87F9E049
:1027C0002F2E312C2F853889220E331EE4E04E2E19
:1027D000512C420E531E7AE0672E712C620E731E2E
:1027E00065E0862E912C820E931E59010894A11C3F
:1027F000B11C56E0C52ED12CC20ED31E4BE0E42EE8
:10280000F12CE20EF31E81E06F8578890E94140995
:102810009091F709943039F48091F809882309F0F0
:1028200080C035DB50CF983039F48091F809882387
:1028300009F082C044DE47CF9C3091F58091F809C1
:10284000882309F082C010924A0A0093490A8F85B2
:10285000988990934C0A80934B0A80E00E949205DD
:1028600080914B0A90914C0A835F914034F022EFA3
:1028700031E030934C0A20934B0A80914B0A90919F
:102880004C0A892B31F481E090E090934C0A8093BC
:102890004B0AE0914B0AF0914C0AF88BEF8713CF6B
:1028A0009031A1F58091F809882309F05BC010925E
:1028B0004A0AF1E1F093490A2F8538892130310520
:1028C00039F48FE090E090934C0A80934B0A0AC051
:1028D000EF85F8893E97F0934C0AE0934B0A80E02D
:1028E0000E94920560914B0A70914C0AF2E06130AF
:1028F0007F071CF022EF31E0E4CE6F3071050CF45D
:10290000DECECB010E97988B8F87DDCE992339F4DD
:102910008091F809813089F5EF85F8891CC09430E1
:1029200049F48091F809813099F5B0927905A09227
:10293000780588C0983039F48091F809813099F58C
:102940002D813E817BC09C3059F48091F809813003
:1029500099F5EB85FC85F0937905E093780572C0D5
:10296000903149F48091F809813079F550927905D8
:102970004092780567C0992349F48091F809823024
:1029800079F590927905809278055CC0943049F48D
:102990008091F809823079F5D0927905C092780556
:1029A00051C0983039F48091F809823079F52B8143
:1029B0003C8144C09C3039F48091F809823079F52B
:1029C000E985FA85C8CF903149F48091F8098230C1
:1029D00079F5309279052092780534C0992349F42D
:1029E0008091F809833071F57092790560927805CD
:1029F00029C0943049F48091F809833019F5F09298
:102A00007905E09278051EC0983039F48091F80974
:102A10008330C1F429813A8111C09C3039F480910E
:102A2000F809833079F4EF81F88595CF903151F42E
:102A30008091F809833031F42D853E8530937905F6
:102A4000209378058091F80980934A0A9F5F9093BC
:102A5000490AE0917805F0917905EE0FFF1FE051EA
:102A6000FA4F8081918190934C0A80934B0A81E0C8
:102A70000E94920580914B0A90914C0A8456924094
:102A800039F40E9444048091490A84508093490A91
:102A900080914B0A90914C0AE2E0883C9E0769F4D1
:102AA0008091490A825060914A0A0E94CC03809129
:102AB000490A84508093490AA6CE8F3F910599F028
:102AC00094F02FEF30E030934C0A20934B0A609142
:102AD000490A70E06E5F7F4F40914A0A8FEF90E0A5
:102AE00050E00E94900380917805909179050197BC
:102AF000E091270BF091280BE80FF91F80914B0A0A
:102B00008083E0917805F0917905EE0FFF1FE05189
:102B1000FA4F80914B0A90914C0A9183808373CE37
:102B2000BF92CF92DF92EF92FF920F931F93CF93BA
:102B3000DF93C1E0D0E048E0B42E09E0E12C32E0C0
:102B4000F32E2FEFC22ED12CD0937905C0937805A8
:102B50008DE49AE00E94CC218DE49AE060E040E0B0
:102B60000E94A4218DE49AE060E274E00E94AD2D01
:102B70006091F609662339F48DE49AE06EE572E01F
:102B80000E94AD2D06C08DE49AE04AE050E00E941C
:102B90004C2D8DE49AE06EE042E00E94A4218DE489
:102BA0009AE064E374E00E94AD2D8DE49AE06EE05B
:102BB00043E00E94A4218DE49AE067E074E00E9463
:102BC000AD2D8DE49AE060E042E00E94A4218DE406
:102BD0009AE069E374E00E94AD2D8DE49AE062E032
:102BE00043E00E94A4218DE49AE066E474E00E9430
:102BF000AD2D8091F2059091F30569E070E043E01E
:102C000050E00E9490038DE49AE060E041E00E9471
:102C1000A4218DE49AE06DE474E00E94AD2D8091D2
:102C2000F4059091F50566E070E041E050E00E9407
:102C300090038DE49AE06BE041E00E94A4218DE4D2
:102C40009AE064E574E00E94AD2D8091F6059091C4
:102C5000F70561E170E041E050E00E949003B0921E
:102C6000F70982E08093F809E9EFF9E0DF0198962F
:102C70001082148A1C9254961C9254973196119685
:102C80002AE0ED30F207A1F781E0848F80AB81A3C9
:102C900085AB80E060E070E00E9414098091F70944
:102CA000883009F0E9C01091F809123009F0E4C049
:102CB000809178059091790569E070E042E050E0FC
:102CC0000E94900310934A0A0093490A8091780564
:102CD0009091790590934C0A80934B0A80E00E9472
:102CE000920580914B0A90914C0A8150924064F079
:102CF000F0924C0AE0924B0A80E092E069E070E0CA
:102D000042E050E00E94900380914B0A90914C0A5F
:102D10001816190664F0D0934C0AC0934B0A81E050
:102D200090E069E070E042E050E00E949003E091A2
:102D30004B0AF0914C0AF0937905E0937805EE0F79
:102D4000FF1FE051FA4F8081918169E070E043E01C
:102D500050E00E9490038091780590917905019749
:102D600021F582E090E061E070E041E050E00E94F7
:102D700090038091F4059091F50566E070E041E0E4
:102D800050E00E94900383E090E06CE070E041E04E
:102D900050E00E9490038091F6059091F70561E163
:102DA00070E041E050E00E9490038091780590919E
:102DB00079058050924021F58EEF91E061E070E05E
:102DC00041E050E00E9490038091EC099091ED0960
:102DD00066E070E041E050E00E9490038FEF91E0E8
:102DE0006CE070E041E050E00E9490038091EE09B9
:102DF0009091EF0961E170E041E050E00E949003A2
:102E00002091780530917905C90102978E5F914034
:102E100098F5C901019761E070E041E050E00E943F
:102E20009003E0917805F0917905EE0FFF1FE251D4
:102E3000FA4F8081918166E070E041E050E00E94AD
:102E40009003809178059091790501966CE070E08F
:102E500041E050E00E949003E0917805F0917905FF
:102E6000EE0FFF1FEE50FA4F8081918161E170E01B
:102E700041E050E00E9490038091F709883009F00A
:102E80005DC08091F809833009F003CF80934A0A2E
:102E90000093490AE0917805F0917905EE0FFF1F44
:102EA000E051FA4F8081918190934C0A80934B0AB4
:102EB00081E00E94920580914B0A90914C0A8456C1
:102EC000924011F40E94440480914B0A90914C0A64
:102ED00042E0883C940729F489E063E00E94CC0337
:102EE000D8CE8F3F910569F064F0D0924C0AC09221
:102EF0004B0A8FEF90E069E070E043E050E00E9401
:102F0000900380917805909179050197E091270BC6
:102F1000F091280BE80FF91F80914B0A8083E09114
:102F20007805F0917905EE0FFF1FE051FA4F80917F
:102F30004B0A90914C0A91838083ABCE8D3009F07F
:102F4000A8CE8091F809833019F40E94470FFCCD78
:102F5000823009F09ECEB3DA9CCE2F923F924F92F0
:102F60005F926F927F928F929F92AF92BF92CF9219
:102F7000DF92EF92FF920F931F93DF93CF9300D0D6
:102F800000D0CDB7DEB78DE49AE00E94CC218DE46D
:102F90009AE060E040E00E94A4218DE49AE06BE5B5
:102FA00074E00E94AD2D8DE49AE063E041E00E9460
:102FB000A4218DE49AE068E674E00E94AD2D8DE4D2
:102FC0009AE060E042E00E94A4218DE49AE068E784
:102FD00074E00E94AD2D8DE49AE060E043E00E9431
:102FE000A4218DE49AE06CE874E00E94AD2D81E0AC
:102FF00090E069E070E041E050E00E94900381E0E1
:1030000090E069E070E042E050E00E94900380E0D0
:1030100090E069E070E043E050E00E94900388E0B7
:103020008093F70981E08093F80921E030E040E0E7
:1030300050E029833A834B835C83F1E08F2E912CFF
:10304000A12CB12C442455243201E9EFF9E0DF0131
:1030500098961082148A1C9254961C92549731961A
:1030600011963AE0ED30F307A1F741E04087448F35
:1030700040AB42A346AB80E060E070E00E941409E0
:103080008091F7098E30C1F48091F8098230A1F463
:10309000A2EFB5E020E030E0E091270BF091280BA3
:1030A000E20FF31F8C9180832F5F3F4F129652E007
:1030B0002030350789F703DA8091F7098E3009F05F
:1030C0009DC08091F809833009F0B9C014018DE4E6
:1030D0009AE06FE043E00E94A4218DE49AE061EA67
:1030E00074E00E94AD2D8DE49AE00E948E2180E074
:1030F00090E0E091270BF091280BE80FF91F108268
:103100000196A2E081309A07A1F7610154C0ED81D8
:10311000FE813196FE83ED83E451F54009F050C005
:103120000894E11CF11C011D111D89819A81AB815C
:10313000BC81E816F9060A071B0709F03FC0C60163
:10314000AA2797FDA095BA2F481659066A067B064E
:103150000CF46101C60169E070E040E050E00E94BB
:1031600090038DE49AE063E143E00E94A421A5016D
:1031700094010DC0C9010197E091270BF091280B34
:10318000E80FF91F10822F5F3F4F4F4F5F4F4216DE
:1031900053066406750674F70894C108D108E091D7
:1031A000270BF091280BEC0DFD1D9FEF9083A2E003
:1031B000B0E0CA0EDB1EEE24FF2487011E821D82B2
:1031C000809182050E94582C019709F4A0CF8DE4CC
:1031D0009AE00E9496218DE49AE06FE043E00E941D
:1031E000A4218DE49AE067EA74E00E94AD2D6CE2C0
:1031F00071E080E090E00E949C2927CF8830F9F4AC
:103200008091F8098130D9F480934A0AB9E0B093EB
:10321000490AE981FA81F0934C0AE0934B0A80E075
:103220000E94920580914B0A90914C0A9C01442780
:1032300037FD4095542F29833A834B835C838091DB
:10324000F709883009F042C08091F8098230F1F521
:1032500080934A0A39E03093490A90924C0A80924E
:103260004B0A80E00E94920580914B0A90914C0A93
:103270004C01AA2497FCA094BA2C81149104A104B7
:10328000B10471F481E090E069E070E042E050E068
:103290000E949003E1E08E2E912CA12CB12C16C03F
:1032A00041E0841642E0940640E0A40640E0B40603
:1032B0006CF080E092E069E070E042E050E00E9453
:1032C0009003812C72E0972EA12CB12C8091F709EC
:1032D000883009F0BACE8091F809833009F0B5CE74
:1032E00080934A0A59E05093490A50924C0A4092FE
:1032F0004B0A80E00E94920580914B0A90914C0A03
:103300002C01662457FC6094762C4114510461040E
:10331000710471F481E090E069E070E043E050E016
:103320000E94900361E0462E512C612C712C8DCEB1
:1033300081E0481682E0580680E0680680E0780662
:103340000CF483CE80E092E069E070E043E050E06E
:103350000E949003412C52E0552E612C712C75CEA9
:103360002F923F924F925F926F927F928F929F9295
:10337000AF92BF92CF92DF92EF92FF920F931F9383
:10338000DF93CF93CDB7DEB728970FB6F894DEBFA3
:103390000FBECDBF81E090E098878F8366247724AD
:1033A0004301AA24BB246501AFEFB0E0BA83A9832F
:1033B0008DE49AE0F1D78DE49AE060E040E0C4D774
:1033C0008DE49AE06DEA74E00E94AD2D8DE49AE000
:1033D00061E040E0B9D76091F609662339F48DE4E5
:1033E0009AE06EE572E00E94AD2D06C08DE49AE091
:1033F0004AE050E00E944C2D8DE49AE060E041E00C
:10340000A3D78DE49AE066EB74E00E94AD2D8DE4C5
:103410009AE060E042E098D78DE49AE069EC74E0CD
:103420000E94AD2D8DE49AE060E043E08DD78DE4FD
:103430009AE06EED74E00E94AD2D89819A8169E079
:1034400070E040E050E00E9490038F81988569E031
:1034500070E041E050E00E949003C30169E070E039
:1034600042E050E00E949003C50169E070E043E053
:1034700050E00E949003B8E0B093F7091092F80969
:10348000E9EFF9E0DF0198961082148A1C925496B5
:103490001C925497319611962AE0ED30F207A1F76D
:1034A00081E0808780AB848F858781A385AB809303
:1034B000010A80E060E070E00E9414098091F70941
:1034C0008D3031F48091F809813011F40E945F123F
:1034D0008091F7098D3009F0A8C08091F8098230F9
:1034E00019F40E94470F64CF833009F0D8C0C60199
:1034F000B501A40193010E94AF2D6150724080403C
:10350000904054F08DE49AE06DE040E01DD78DE4EA
:103510009AE062EF74E086C08DE49AE06DE040E0EE
:1035200013D78DE49AE06AEF74E00E94AD2D8DE42C
:103530009AE06EE043E008D78DE49AE062E075E03F
:103540000E94AD2D91E0E92EF12C012D112D8F81DE
:103550009885AA2797FDA095BA2F8B839C83AD836E
:10356000BE8346C091E0E916F1040105110509F09A
:1035700054C12B803C804D805E80A1E02A16A2E0E1
:103580003A06A0E04A06A0E05A0634F026183708AA
:1035900048085908860175018DE49AE061E140E030
:1035A000D3D68DE49AE0B201A1012AE030E00E9476
:1035B0005D2D65E070E080E090E00E949C29C101F3
:1035C00001972091270B3091280B280F391F8981F3
:1035D000F9018083F101EE0FFF1FE051FA4FA9813D
:1035E000BA81B183A0830894E11CF11C011D111D57
:1035F000AE14BF04C006D1060CF0B4CF8DE49AE03F
:103600006DE040E0A1D68DE49AE069E075E00E94AB
:10361000AD2D8DE49AE06EE043E096D68DE49AE01D
:103620006DE075E00E94AD2D2BCF8830C1F5809103
:10363000F8098130A1F580934A0AB9E0B093490AAC
:10364000EF81F885F0934C0AE0934B0A80E00E94EA
:10365000920580914B0A90914C0A98878F83892B11
:1036600069F481E090E069E070E041E050E00E94A0
:103670009003A1E0B0E0B887AF8311C0EF81F88577
:10368000E150F24064F080E092E069E070E041E0F7
:1036900050E00E94900380E092E098878F838091B1
:1036A000F709883009F042C08091F8098230F1F5BD
:1036B00080934A0A99E09093490A70924C0A60926A
:1036C0004B0A80E00E94920580914B0A90914C0A2F
:1036D0003C01882477FC8094982C61147104810447
:1036E000910471F481E090E069E070E042E050E024
:1036F0000E94900301E0602E712C812C912C16C049
:10370000A1E06A16A2E07A06A0E08A06A0E09A0686
:103710006CF080E092E069E070E042E050E00E94EE
:103720009003612C12E0712E812C912C8091F7096D
:10373000883009F042C08091F8098330F1F5809318
:103740004A0AB9E0B093490AB0924C0AA0924B0AD7
:1037500080E00E94920580914B0A90914C0A5C0196
:10376000CC24B7FCC094DC2CA114B104C104D10456
:1037700071F481E090E069E070E043E050E00E9485
:103780009003B1E0AB2EB12CC12CD12C16C0E1E0DE
:10379000AE16E2E0BE06E0E0CE06E0E0DE066CF04B
:1037A00080E092E069E070E043E050E00E94900326
:1037B000A12CA2E0BA2EC12CD12C8091F70988301F
:1037C00009F05ECE8091F809882309F059CE109255
:1037D0004A0AF9E0F093490A89819A8190934C0A48
:1037E00080934B0A81E00E949205A0914B0AB09110
:1037F0004C0ABA83A983AF3FB10509F00CF440CE5F
:103800008FEF90E069E070E040E050E00E949003AC
:10381000EFEFF0E0FA83E98333CE260C371C481C27
:10382000591CABCE2F923F924F925F926F927F9234
:103830008F929F92AF92BF92CF92DF92EF92FF92C0
:103840000F931F93DF93CF93CDB7DEB72B970FB6B0
:10385000F894DEBF0FBECDBF8DE49AE09DD58DE418
:103860009AE060E040E070D58DE49AE064E175E0B4
:103870000E94AD2D6091F609662339F48DE49AE03B
:103880006EE572E00E94AD2D06C08DE49AE04AE03C
:1038900050E00E944C2D8DE49AE064E041E054D564
:1038A0008DE49AE068E275E00E94AD2D8DE49AE027
:1038B00060E042E049D58DE49AE069E375E00E945A
:1038C000AD2D8DE49AE060E043E03ED58DE49AE0D2
:1038D0006DE475E00E94AD2D89E08093F70981E0E9
:1038E0008093F809E9EFF9E0DF0198961082148AD5
:1038F0001C9254961C925497319611962AE0ED3002
:10390000F207A1F781E08187858F81AB82A386AB27
:1039100001E0802E912C11E0612E712CB8E0AB2ECD
:10392000B12CAAE0CA2ECE0101969B878A878DE42E
:103930009AE06FE043E008D58DE49AE067EA74E02E
:103940000E94AD2D8DE49AE0F1D480E060E070E05B
:103950000E9414098091F709893009F09FC0809175
:10396000F8098130C9F580934A0AC092490A7092D9
:103970004C0A60924B0A80E00E94920560904B0ACC
:1039800070904C0A6114710499F481E090E06AE04F
:1039900070E041E050E00E94900381E090E06AE036
:1039A00070E041E050E00E949003F1E06F2E712C36
:1039B00080914B0A90914C0A853691050CF4B7CF53
:1039C00084E690E06AE070E041E050E00E949003FD
:1039D000E4E66E2E712CABCF823081F580934A0ADB
:1039E000C092490A90924C0A80924B0A80E00E9451
:1039F000920580904B0A90904C0A8114910459F4DE
:103A000081E090E06AE070E042E050E00E949003C4
:103A100071E0872E912C80914B0A90914C0A099766
:103A20000CF485CF88E090E06AE070E042E050E07E
:103A30000E94900368E0862E912C79CF833009F0A4
:103A400048C080934A0AC092490AB0924C0AA09298
:103A50004B0A80E00E949205A0904B0AB0904C0A5D
:103A6000A114B10459F481E090E06AE070E043E011
:103A700050E00E94900351E0A52EB12C80914B0A9A
:103A800090914C0A09970CF452CF88E090E06AE0DC
:103A900070E042E050E00E9490033BC08E30C9F4D9
:103AA0008091F8098230A9F4A0EFB5E020E030E081
:103AB000E091270BF091280BE20FF31F8C9180838C
:103AC0002F5F3F4F129692E02130390789F70E940D
:103AD0005F128091F7098E3009F029CF8091F809A3
:103AE000833009F024CF8A149B04B9F481E090E07C
:103AF0006AE070E042E050E00E94900388E090E0CD
:103B00006AE070E042E050E00E94900341E0842EC1
:103B1000912C38E0A32EB12C0ACF8DE49AE06EE010
:103B200043E012D48DE49AE06DEB72E00E94AD2D7B
:103B30008DE49AE06FE043E007D48DE49AE061EA17
:103B400074E00E94AD2D10E0A814B9040CF411E04B
:103B5000EA85FB8529E011922A95E9F71123A9F45A
:103B600081E090E0881599055CF0A816B90644F04C
:103B7000E1E0F0E0EC0FFD1FE80FF91F31E03083CA
:103B800001968930910571F713C088E090E088169E
:103B900099065CF08A159B0544F0E1E0F0E0EC0F3B
:103BA000FD1FE80FF91F21E020830197882379F793
:103BB0008DE49AE0B3D3112381F084E690E0FC0118
:103BC0006E9EC0016F9E900D7E9E900D11241C0173
:103BD000442437FC4094542C32C184E690E09C018C
:103BE000629EC001639E900D729E900D11241C0177
:103BF000442437FC4094542CDD24D394E1E0F0E0DD
:103C0000EC0FFD1FED0DF11D8081813009F07FC0AB
:103C10008DE49AE063E140E097D38DE49AE06D2D66
:103C20004AE050E00E944C2D8DE49AE063E143E0CD
:103C30008BD300E010E034E0D31619F13D1548F0C5
:103C400082E0D816B1F08D15C0F091E0D916B1F52B
:103C50000CC0E6E0DE16E9F0DE16B8F0F7E0DF169D
:103C6000E1F028E0D21651F51CC084E29BE0B801D7
:103C70001DC0B80160507E4F17C0B80160507C4F26
:103C800013C0B80160507A4F0FC0B8016050784F30
:103C90000BC0B8016050764F07C0B8016050744F38
:103CA00003C0B8016050724F84E29BE0C0D7E0913E
:103CB000270BF091280BE00FF11F80830F5F1F4F40
:103CC00032E00030130709F0B6CF809182050E94E0
:103CD000582C019709F0A9C0EE24FF24870112C0D7
:103CE00061E070E080E090E00E949C298091820574
:103CF0000E94582C892B09F498C00894E11CF11CEF
:103D0000011D111D2E143F04400651064CF7D3949B
:103D100088E08D1508F470CF71CFE1E0F0E0EC0F92
:103D2000FD1FED0DF11D8081813009F085C08DE40E
:103D30009AE063E140E008D38DE49AE06D2D4AE01B
:103D400050E00E944C2D8DE49AE063E143E0FCD208
:103D500000E010E094E0D91619F19D1548F0E2E07A
:103D6000DE16B1F0ED15C0F0F1E0DF16B1F50CC0D4
:103D700026E0D216E9F0D216B8F037E0D316E1F01B
:103D800088E0D81651F51CC084E29BE0B8011DC044
:103D9000B80160507E4F17C0B80160507C4F13C00F
:103DA000B80160507A4F0FC0B8016050784F0BC017
:103DB000B8016050764F07C0B8016050744F03C01F
:103DC000B8016050724F84E29BE031D7E091270B3D
:103DD000F091280BE00FF11F80830F5F1F4F92E0DF
:103DE0000030190709F0B6CF809182050E94582C47
:103DF0000197D9F4EE24FF24870111C061E070E03F
:103E000080E090E00E949C29809182050E94582CBD
:103E1000892B59F00894E11CF11C011D111D2E1471
:103E20003F044006510654F707C064EF71E080E09C
:103E300090E00E949C297BCDDA9409F06ECF28E0B7
:103E4000D22E6BCF1F9311E08DE49AE0A5D28DE4C2
:103E50009AE060E040E078D28DE49AE062E675E0B6
:103E60000E94AD2D8DE49AE062E042E06DD28DE4D7
:103E70009AE062E775E00E94AD2D8DE49AE069E07A
:103E800042E062D28DE49AE062E173E00E94AD2DDF
:103E90008DE49AE06FE042E057D28DE49AE067E16A
:103EA00073E00E94AD2D8DE49AE062E140E04CD2D7
:103EB0008DE49AE06CE572E00E94AD2D6091F60908
:103EC000662339F48DE49AE06EE572E00E94AD2D30
:103ED00006C08DE49AE04AE050E00E944C2D109319
:103EE000F70982E08093F809E9EFF9E0DF0198969D
:103EF0001082148A1C9254961C92549731961196F3
:103F00008AE0ED30F807A1F7158B148F12A380E03B
:103F100060E070E00E9414098091F709883059F43C
:103F20008091F809823039F40E944D0C019709F410
:103F30008BCF0E945F128091F7098E3059F48091E7
:103F4000F809823039F40E949B0D019709F47CCF67
:103F50000E945F128091F709813031F48091F80955
:103F6000823011F40E945F121F91089582E061E097
:103F70000E94262C0E940B0D0E94FA0C0E943D0804
:103F80000E942A075FCF80917A0562E00E94732B1E
:103F900080917C0562E00E94732B80917E0562E037
:103FA0000E94732B8091800562E00E94732B8BE04E
:103FB00062E00E94732B8091840561E00E94732B64
:103FC0008091860561E00E94732B8091880561E0F5
:103FD0000E94732B80918A0561E00E94732B80916F
:103FE0008C0562E00E94732B80918E0562E00E9436
:103FF000732B8091900562E00E94732B8091920553
:1040000062E00E94732B8091840561E00E94262C5F
:104010008091860561E00E94262C8091880561E0F0
:104020000E94262C80918A0561E00E94262C8091B6
:104030009B0561E00E94732B80919D0561E00E94C9
:10404000732B8091A50561E00E94732B8091A305DD
:1040500061E00E94732B8091A10561E00E94732BA7
:1040600080919F0561E00E94732B8091A70561E01C
:104070000E94732B8DE49AE064E144E020E092D149
:1040800081E090E090933D0B80933C0B80E092E0C8
:104090009093390B8093380B85E29BE060E02BD73F
:1040A00085E061E00E94732B85E060E00E94262C91
:1040B00086E061E00E94732B86E060E00E94262C7F
:1040C00087E061E00E94732B87E060E00E94262C6D
:1040D00086E161E00E94732B86E160E00E94262C5D
:1040E00087E161E00E94732B87E160E00E94262C4B
:1040F00088E161E00E94732B88E160E00E94262C39
:1041000089E161E00E94732B89E160E00E94262C26
:104110008AE161E00E94732B8AE160E00E94262C14
:104120008BE161E00E94732B8BE160E00E94262C02
:104130008CE161E00E94732B8CE160E00E94262CF0
:104140008DE161E00E94732B8DE160E00E94262CDE
:104150008FE161E00E94732B8FE160E00E94262CCA
:1041600081E261E00E94732B81E260E00E94262CD4
:1041700083E261E00E94732B83E260E00E94262CC0
:1041800085E261E00E94732B85E260E00E94262CAC
:1041900087E261E00E94732B87E260E00E94262C98
:1041A00089E261E00E94732B89E260E00E94262C84
:1041B0008EE261E00E94732B8EE260E00E94262C6A
:1041C00080E361E00E94732B80E360E00E94262C74
:1041D00082E361E00E94732B82E360E00E94262C60
:1041E00084E361E00E94732B84E360E00E94262C4C
:1041F00086E361E00E94732B86E360E00E94262C38
:1042000087E361E00E94732B87E360E00E94262C25
:1042100088E361E00E94732B88E360E00E94262C13
:1042200089E361E00E94732B89E360E00E94262C01
:104230008AE361E00E94732B8AE360E00E94262CEF
:104240008BE361E00E94732B8BE360E00E94262CDD
:104250008CE361E00E94732B8CE360E00E94262CCB
:104260008DE361E00E94732B8DE360E00E94262CB9
:104270008EE361E00E94732B8EE360E00E94262CA7
:104280008FE361E00E94732B8FE360E00E94262C95
:1042900080E461E00E94732B80E460E00E94262CA1
:1042A00081E461E00E94732B81E460E00E94262C8F
:1042B00082E461E00E94732B82E460E00E94262C7D
:1042C00083E461E00E94732B83E460E00E94262C6B
:1042D00084E461E00E94732B84E460E00C94262C5B
:1042E00008950895FC01138212828CEB95E091836E
:1042F00080830895FC01A081B18118962D913C9195
:1043000019976FEFF90119950895DC01ED91FC9172
:104310000284F385E02D40E019950895FC01658144
:10432000862F816085836960CF01EFCFFC016581B5
:104330006E7F65836860E9CFFC016581862F8460AC
:1043400085836C60CF01E1CFDC0117969C911797B4
:10435000491710F0492F415018968C9118978031C9
:1043600039F4943029F4E42FF0E0E853FA4F04C014
:10437000E42FF0E0E453FA4F8081680F6068CD01CC
:10438000C4CFDC01ED91FC910284F385E02D41E086
:10439000199581E090E0089561E0B7DF80ED97E046
:1043A0000C94F529CF93DF93EC01423018F08C8107
:1043B00088608C834F836887222329F0413019F469
:1043C0008C8184608C8364E670E080E090E0B4D7F8
:1043D0006C8164FD2EC0E881F9810284F385E02DB3
:1043E000CE0163E042E0199584E991E1FED7E881CE
:1043F000F9810284F385E02DCE0163E042E0199556
:1044000084E991E1F2D7E881F9810284F385E02D16
:10441000CE0163E042E0199586E990E0E6D7E881B5
:10442000F9810284F385E02DCE0162E042E0199526
:1044300011C06062CE0169DF84E991E1D6D76C8159
:104440006062CE0162DF86E990E0CFD76C81606266
:10445000CE015BDF6C816062CE0157DF84E08D832B
:10446000CE016ADFCE0198DF82E08E83CE0166E066
:104470004CDFCE013FDFDF91CF9108950F931F9363
:104480008C01FC01858561E00E94262CF801858560
:1044900060E00E94262C1F910F910895BF92CF9249
:1044A000DF92EF92FF920F931F93CF93DF93D82E5B
:1044B000C92EB42E282F392FC9018C01C0E0D0E0BD
:1044C000E62EFF240DC0B7010C2E02C0759567952E
:1044D0000A94E2F76170F80185850E94262C2196E6
:1044E0000F5F1F4FCB1578F38D2D9C2DC7DFDF910C
:1044F000CF911F910F91FF90EF90DF90CF90BF90E1
:1045000008950F931F93CF93DF93EC01162F042F81
:1045100060E0413009F461E08B850E94262C8C8597
:104520008F3F19F060E00E94262C023089F08C81C8
:1045300084FF04C0CE01612F48E00DC0612F70E000
:1045400084E0759567958A95E1F7CE0144E0A6DF92
:10455000CE01612F44E0A2DFDF91CF911F910F9137
:1045600008956F927F928F92AF92CF92EF920F93B6
:104570001F93DF93CF93CDB7DEB73C01162F8E2D5F
:10458000F301438724870587E686C786A08A818A48
:104590009E85928B9F85938B9889948B9989958B17
:1045A00061E00E94732BF301878561E00E94732B09
:1045B000F301808961E00E94732BF301818961E03E
:1045C0000E94732B1123A1F4F301828961E00E9400
:1045D000732BF301838961E00E94732BF3018489BB
:1045E00061E00E94732BF301858961E00E94732BC7
:1045F000F301838561E00E94732BF30184858F3F73
:1046000019F061E00E94732BF301858561E00E943F
:10461000732B112319F0F301148203C080E1F3011D
:104620008483F301838560E00E94262CF301858555
:1046300060E00E94262CF30184858F3F19F060E032
:104640000E94262C8FEFF301868B12861186CF9164
:10465000DF911F910F91EF90CF90AF908F907F904F
:104660006F900895DF92EF92FF920F931F938C014A
:10467000D62E7A01862F61E00E94732BD8015696C0
:10468000DC9256971A96FC92EE921997ED91FC9156
:104690000084F185E02DC80160E019951F910F910C
:1046A000FF90EF90DF900895DC01362F56962C9105
:1046B00056972F3F49F1E22FF0E0E254FE4FE4918C
:1046C000EE2379F019968D919C911A97892B19F404
:1046D000822F70E005C06FEF70E0631B7109822FBD
:1046E00024C719968D919C911A97662319F0892BEE
:1046F00039F402C0019721F4822F61E00C94262C3A
:10470000822F60E00C94262C08956F927F928F92F6
:10471000AF92BF92CF92DF92EF92FF920F931F93CF
:104720003C01162FF42ED22EB02EAE2C8C2CDADDBE
:1047300084ED95E0D3018D939C9300D00F92EDB75B
:10474000FEB73196ADB7BEB711961C921182128298
:104750001382C30161E0412F2FEF0F2DED2CCB2CE5
:1047600000DF0F900F900F900F901F910F91FF900F
:10477000EF90DF90CF90BF90AF908F907F906F9031
:1047800008952091860A30E08091850A281B31091E
:10479000C90108954091850A8091860A481718F04A
:1047A0002FEF3FEF0AC0E42FF0E0EB59F54F808187
:1047B000282F30E04F5F4093850AC9010895E091AA
:1047C000850A8091860AE81718F0EFEFFFEF06C020
:1047D000F0E0EB59F54F8081E82FF0E0CF0108952C
:1047E00008951092AD0A1092AC0A88EE93E0A0E012
:1047F000B0E08093AE0A9093AF0AA093B00AB09352
:10480000B10A84EE95E09093AB0A8093AA0A0895CA
:10481000CF92DF92EF92FF920F931F93CF93DF938C
:104820007C016B018A018091A90A8823A1F0C0E074
:10483000D0E00DC0D701ED91FC91D601AC0FBD1FAA
:104840000190F081E02DC7016C9119952196C01758
:10485000D10780F303C0CB01642F39D0C801DF91A9
:10486000CF911F910F91FF90EF90DF90CF9008951F
:10487000DF93CF930F92CDB7DEB7FC0169838091B0
:10488000A90A8823C9F08091A80A803238F081E013
:1048900090E09383828320E030E014C08091A70AE7
:1048A000E82FF0E0E957F54F998190838F5F80936F
:1048B000A70A8093A80A04C0CE01019661E007D040
:1048C00021E030E0C9010F90CF91DF910895482F8A
:1048D000613210F081E008958091B60A843011F0C1
:1048E00082E008956093010BA0EEBAE0842F9C0152
:1048F000F90102C081918D938E2F841B8617D0F30E
:1049000080E008951F920F920FB60F920BB60F9290
:1049100011242F933F934F935F936F937F938F93C4
:104920009F93AF93BF93EF93FF938091B90090E073
:10493000887F90708036910509F4F2C08136910528
:10494000CCF58832910509F47BC089329105B4F425
:104950008031910509F46FC0813191053CF40097D5
:1049600009F447C1089709F04FC165C08831910526
:1049700009F466C0809709F047C182C08034910570
:1049800009F4A4C08134910544F48033910509F4FD
:1049900082C0C89709F038C189C08035910509F4F3
:1049A00089C08835910509F496C08834910509F0CD
:1049B0002BC1AEC08839910509F413C1893991051D
:1049C000ECF48837910509F4ABC0893791054CF4B4
:1049D0008836910509F4A4C08037910509F014C107
:1049E0009FC08838910509F4FCC08039910509F40D
:1049F0009DC08038910509F007C198C0803B9105A2
:104A000009F4C6C0813B91054CF4803A910509F444
:104A10009FC0883A910509F0F7C0BAC0803C910563
:104A200009F4E3C0883C910509F4DFC0883B910597
:104A300009F0EAC0C2C08091B70A8093BB00CFC022
:104A40009091DE0A8091DF0A981768F49091DE0A4F
:104A5000E92FF0E0E254F54F80818093BB009F5F27
:104A60009093DE0ABCC08091B80A882309F44BC039
:104A700085ED8093BC008091BC0084FDFCCFC2C05A
:104A800080E28093230B85ED8093BC008091BC0075
:104A900084FDFCCFB7C080E38093230B85ED80932A
:104AA000BC008091BC0084FDFCCFACC088E3809347
:104AB000230B9BC08091DE0A9091BB00E82FF0E0B1
:104AC000E254F54F90838F5F8093DE0A9091DE0A67
:104AD0008091DF0A82C08091DE0A9091BB00E82FAE
:104AE000F0E0E254F54F90838F5F8093DE0A80916F
:104AF000B80A882341F085ED8093BC008091BC000A
:104B000084FDFCCF7FC081E08093B90A84EA6EC047
:104B100085ED8093BC008091BC0084FDFCCF72C009
:104B200083E08093B60A1092220B59C08091220B29
:104B3000803208F056C08091220B9091BB00E82F84
:104B4000F0E0EE5FF44F90838F5F8093220B47C0BD
:104B50008091220B803230F4E091220BF0E0EE5F86
:104B6000F44F108285ED8093BC008091BC0084FDE1
:104B7000FCCF1092B60A6091220BE091BC0AF09132
:104B8000BD0A82E09BE070E019951092220B2DC0C7
:104B900084E08093B60A1092000B1092010BE09112
:104BA000BA0AF091BB0A19958091010B882329F468
:104BB00081E08093010B1092E00A9091000BE92FA5
:104BC000F0E0E052F54F80818093BB009F5F9093AF
:104BD000000B9091000B8091010B981710F485EC5D
:104BE00001C085E88093BC000FC085EC8093BC00B9
:104BF00009C01092230B85ED8093BC008091BC000E
:104C000084FDFCCF1092B60AFF91EF91BF91AF9156
:104C10009F918F917F916F915F914F913F912F91D4
:104C20000F900BBE0F900FBE0F901F901895F99923
:104C3000FECF72BD61BDF89A80B50895F999FECF97
:104C40001FBA72BD61BD40BD0FB6F894FA9AF99AC9
:104C50000FBE0895FC018385882331F48091C10043
:104C600087728093C1000895813031F48091C9002A
:104C700087728093C9000895823031F48091D10009
:104C800087728093D1000895833029F48091310197
:104C900087728093310108951F920F920FB60F9281
:104CA0000BB60F9211242F933F934F935F936F9303
:104CB0007F938F939F93AF93BF93EF93FF938091D5
:104CC000C00080932D0B3091C60030932E0B2091A5
:104CD000290B20932F0B84FF10C08091C0008F7E82
:104CE0008093C00080913A0B90913B0B9093330BD3
:104CF0008093320B81E08093290B213091F4332390
:104D000069F482E08093290B8091250B9091260B0A
:104D1000019690932B0B80932A0B4BC01092290B7A
:104D200048C02230A1F48091320B9091330B01974F
:104D30009093330B8093320B892BD9F583E08093CA
:104D4000290BE091250BF091260B308332C02330E4
:104D500081F5E0912A0BF0912B0BF093480BE09337
:104D6000470B30834091470B5091480B4F5F5F4F8B
:104D70005093480B4093470B8091250B9091260B45
:104D80002091360B3091370B820F931F481759072C
:104D900060F01092290BE0914B0BF0914C0B309787
:104DA00041F08091300B199504C050932B0B409328
:104DB0002A0BFF91EF91BF91AF919F918F917F91BE
:104DC0006F915F914F913F912F910F900BBE0F907C
:104DD0000FBE0F901F9018951F920F920FB60F9253
:104DE0000BB60F9211242F933F934F935F936F93C2
:104DF0007F938F939F93AF93BF93EF93FF93809194
:104E0000310B8093460B882361F41092C50080918A
:104E1000430B8093C4001092C60081E08093310B55
:104E200040C0813081F41092C5008091420B809384
:104E3000C4001092C60082E08093310B1092350BB3
:104E40001092340B2EC08091340B9091350B9093BF
:104E5000450B8093440BE091270BF091280BE80F52
:104E6000F91F20812093C6009C012F5F3F4F309394
:104E7000450B2093440B8091380B9091390B2817E8
:104E8000390759F4E091490BF0914A0B309711F032
:104E900080E019951092310B04C03093350B2093AC
:104EA000340BFF91EF91BF91AF919F918F917F91C3
:104EB0006F915F914F913F912F910F900BBE0F908B
:104EC0000FBE0F901F90189521E030E030933B0B00
:104ED00020933A0B88E090E09093370B8093360B49
:104EE00030933D0B20933C0B9093390B8093380B00
:104EF0001092300B08951F93CF93DF93EC01162F80
:104F0000F894A8DE1C8F112321F487E08D8F84E1B3
:104F10000BC0113021F483E08D8F8AE005C0123080
:104F200021F481E08D8F85E08E8F8B8D8F3F29F06E
:104F300061E0D9D38B8D61E089D48B858823D1F44E
:104F400081E061E0D0D31092C5008D8D8093C400C4
:104F50008091C00082608093C0008091C2008E600A
:104F60008093C2008091C10088648093C100109238
:104F7000C60053C08130D1F482E161E0B4D3109215
:104F8000CD008D8D8093CC008091C800826080938D
:104F9000C8008091CA008E608093CA008091C900C9
:104FA00088648093C9001092CE0037C08230D1F45B
:104FB00080E161E098D31092D5008D8D8093D4006C
:104FC0008091D00082608093D0008091D2008E606A
:104FD0008093D2008091D10088648093D100109298
:104FE000D6001BC08330C9F48EE061E07CD3109200
:104FF00035018D8D809334018091300182608093E2
:105000003001809132018E608093320180913101B4
:105010008864809331011092360181E08C878B89FE
:105020009C890DD08A839B834B895C8960E070E00A
:105030000E9433017894DF91CF911F9108950F93CF
:105040001F93CF93DF93BC018230910510F462E08F
:1050500070E0E091580BF091590B40E050E0A0E077
:10506000B0E024C08081918186179707D0F0861721
:10507000970771F482819381109729F013969C937E
:105080008E9312972CC09093590B8093580B27C086
:105090004115510519F08417950718F48D01AC01DD
:1050A000EF01DF01828193819C01F9013097D1F6F4
:1050B00041155105F9F0CA01861B970B8430910503
:1050C00080F48A819B810115110521F0F8019383F9
:1050D000828304C09093590B8093580BFE01329643
:1050E00045C0FE01E80FF91F619371930297998300
:1050F00088833CC08091560B9091570B892B41F4CB
:105100008091B3059091B4059093570B8093560B03
:105110004091B5055091B6054115510541F44DB783
:105120005EB78091B1059091B205481B590B209153
:10513000560B3091570B24173507B0F4CA01821B68
:10514000930B8617970780F0AB014E5F5F4F841774
:10515000950750F0420F531F5093570B4093560B37
:10516000F9016193719302C0E0E0F0E0CF01DF91BB
:10517000CF911F910F910895CF93DF939C010097DA
:1051800009F48FC0EC0122971B821A826091580BA0
:105190007091590B6115710581F488819981820F95
:1051A000931F2091560B3091570B2817390739F56B
:1051B000D093570BC093560B74C0DB0140E050E016
:1051C000AC17BD0708F1BB83AA83FE012191319181
:1051D000E20FF31FAE17BF0779F48D919C911197E1
:1051E000280F391F2E5F3F4F3983288312968D91E8
:1051F0009C9113979B838A834115510571F4D09339
:10520000590BC093580B4DC012968D919C911397DA
:10521000AD01009711F0DC01D3CFDA011396DC93D6
:10522000CE931297FA0121913191E20FF31FCE171D
:10523000DF0769F488819981280F391F2E5F3F4F5E
:10524000FA01318320838A819B8193838283E0E00A
:10525000F0E0DB0112968D919C911397009719F065
:10526000BC01FD01F6CFAB014E5F5F4FDB018D91BD
:105270009C91840F951F2091560B3091570B281746
:10528000390779F4309729F41092590B1092580B82
:1052900002C013821282425050405093570B4093E9
:1052A000560BDF91CF9108951F920F920FB60F9278
:1052B00011242F933F938F939F93AF93BF9380912C
:1052C000510B9091520BA091530BB091540B309114
:1052D000550B0196A11DB11D232F2D5F2D3720F0F9
:1052E0002D570196A11DB11D2093550B8093510B95
:1052F0009093520BA093530BB093540B80914D0B92
:1053000090914E0BA0914F0BB091500B0196A11DA7
:10531000B11D80934D0B90934E0BA0934F0BB09308
:10532000500BBF91AF919F918F913F912F910F9013
:105330000FBE0F901F9018959B01AC017FB7F8949A
:1053400080914D0B90914E0BA0914F0BB091500B53
:1053500066B5A89B05C06F3F19F00196A11DB11D50
:105360007FBFBA2FA92F982F8827860F911DA11DC7
:10537000B11D62E0880F991FAA1FBB1F6A95D1F764
:10538000BC012DC0FFB7F89480914D0B90914E0B4E
:10539000A0914F0BB091500BE6B5A89B05C0EF3F15
:1053A00019F00196A11DB11DFFBFBA2FA92F982F8B
:1053B00088278E0F911DA11DB11DE2E0880F991F56
:1053C000AA1FBB1FEA95D1F7861B970B885E9340F7
:1053D000C8F2215030404040504068517C4F211568
:1053E00031054105510571F60895019739F0880F8F
:1053F000991F880F991F02970197F1F708957894E4
:1054000084B5826084BD84B5816084BD85B58260C9
:1054100085BD85B5816085BDEEE6F0E08081816067
:105420008083E1E8F0E01082808182608083808167
:1054300081608083E0E8F0E0808181608083E1EB3F
:10544000F0E0808184608083E0EBF0E08081816027
:105450008083E1E9F0E080818260808380818160E7
:105460008083E0E9F0E0808181608083E1EAF0E020
:10547000808182608083808181608083E0EAF0E0C7
:10548000808181608083E1E2F1E0808182608083BD
:10549000808181608083E0E2F1E0808181608083AF
:1054A000EAE7F0E08081846080838081826080838D
:1054B0008081816080838081806880831092C100B8
:1054C0000895382F863308F0365320917B00832FC0
:1054D00086958695869590E08170907043E0880F60
:1054E000991F4A95E1F7277F282B20937B0037707F
:1054F0008091B7058295880F880F807C832B8093DD
:105500007C0080917A00806480937A0080917A0098
:1055100086FDFCCF2091780040917900942F80E0A7
:1055200030E0282B392BC90108951F93CF93DF93C7
:10553000182FEB0161E0D7D0209709F4CAC0CF3F04
:10554000D10509F4C9C0E12FF0E0E254FE4F849187
:10555000893009F466C08A30B0F48430F1F18530C6
:1055600040F4823059F1833070F5813009F0AEC0DB
:1055700020C0873009F443C0883008F048C0863026
:1055800009F0A4C034C08D3009F478C08E3038F4EE
:105590008B3009F45AC08C3008F066C04CC08031A2
:1055A00009F480C0813109F487C08F3009F08EC0C2
:1055B0006FC084B5806884BDC7BD91C084B580626A
:1055C00084BDC8BD8CC080918000806880938000BD
:1055D000D0938900C093880082C08091800080624F
:1055E00080938000D0938B00C0938A0078C0809114
:1055F000B00080688093B000C093B30070C0809109
:10560000B00080628093B000C093B40068C0809105
:105610009000806880939000D0939900C093980088
:105620005EC080919000806280939000D0939B0038
:10563000C0939A0054C0809190008860809390003D
:10564000D0939D00C0939C004AC08091A0008068C8
:105650008093A0008091A0008F7B8093A000D093C6
:10566000A900C093A8003BC08091A00080628093F5
:10567000A000D093AB00C093AA0031C08091A000DD
:1056800088608093A000D093AD00C093AC0027C089
:1056900080912001806880932001D0932901C093DC
:1056A00028011DC080912001806280932001D09349
:1056B0002B01C0932A0113C0809120018860809340
:1056C0002001D0932D01C0932C0109C0C038D10511
:1056D0001CF4812F60E002C0812F61E0B7D0DF9120
:1056E000CF911F910895CF93DF93482F50E0CA01C7
:1056F00088589E4FFC0134914E5C5E4FFA018491B4
:10570000882369F190E0880F991FFC01EC51FF4F4D
:10571000A591B491FC01E250FF4FC591D49166234D
:1057200051F42FB7F8948C91932F909589238C93F3
:10573000888189230BC0623061F42FB7F8948C9173
:10574000932F909589238C938881832B88832FBFF7
:1057500006C09FB7F8948C91832B8C939FBFDF91E9
:10576000CF910895893009F449C08A30A0F484307B
:1057700051F1853040F4823079F1833000F5813089
:1057800009F063C026C0873079F1883098F58630FB
:1057900009F05BC025C08D3009F442C08E3028F47A
:1057A0008B30B1F18C30C0F52DC0803109F442C08E
:1057B000813109F445C08F3009F047C037C080916E
:1057C00080008F7703C0809180008F7D8093800060
:1057D000089584B58F7702C084B58F7D84BD089508
:1057E0008091B0008F7703C08091B0008F7D80934F
:1057F000B0000895809190008F7707C0809190004D
:105800008F7D03C080919000877F809390000895E2
:105810008091A0008F7707C08091A0008F7D03C08A
:105820008091A000877F8093A0000895809120013F
:105830008F7703C0809120018F7D80932001089590
:1058400080912001877F809320010895FF920F931C
:105850001F93F62E482F50E0CA0182549E4FFC0140
:105860002491CA0188589E4FFC0114914E5C5E4FF2
:10587000FA0104910023C1F0222311F0822F72DF7C
:10588000E02FF0E0EE0FFF1FE250FF4FA591B49123
:105890009FB7F894FF2021F48C911095812302C0CA
:1058A0008C91812B8C939FBF1F910F91FF90089536
:1058B0000F931F93482F50E0CA0182549E4FFC0162
:1058C0002491CA0188589E4FFC0104914E5C5E4FA2
:1058D000FA011491112319F420E030E014C02223BE
:1058E00011F0822F3FDF812F90E0880F991F885E93
:1058F0009E4FFC01A591B4918C9120E030E0802373
:1059000011F021E030E0C9011F910F910895089531
:10591000CF93DF9374DDFBDF0E94C31FC0E0D0E0B4
:105920000E94B61F2097E1F30E940000F9CF08956E
:10593000CF92DF92EF92FF920F931F93CF93DF935B
:105940007C016B018A01C0E0D0E00FC0D6016D91EF
:105950006D01D701ED91FC910190F081E02DC7011F
:105960001995C80FD91F015010400115110571F785
:10597000CE01DF91CF911F910F91FF90EF90DF90BB
:10598000CF900895CF93DF93EC016115710519F461
:1059900020E030E00FC0DB010D900020E9F7119707
:1059A000A61BB70BE881F9810280F381E02DAD01E0
:1059B00019959C01C901DF91CF9108954F925F9293
:1059C0007F928F929F92AF92BF92CF92DF92EF928F
:1059D000FF920F931F93DF93CF93CDB7DEB7A197BD
:1059E0000FB6F894DEBF0FBECDBF2C01742ECB01D5
:1059F000223008F42AE019A231E2C32ED12CCC0EB9
:105A0000DD1E822E9924AA24BB24672D752FA501A3
:105A10009401D7D079018A01C801B701A501940189
:105A20009ED0472D461B0894C108D1084A3014F473
:105A3000405D01C0495CF6014083E114F1040105B9
:105A4000110521F07E2C5F2DC801DFCFC201B60108
:105A500099DFA1960FB6F894DEBF0FBECDBFCF91F0
:105A6000DF911F910F91FF90EF90DF90CF90BF904B
:105A7000AF909F908F907F905F904F900895DC0142
:105A80002115310541F4ED91FC910190F081E02D5B
:105A9000642F1995089592CFEF92FF920F931F9361
:105AA0009A01E62EFF2400E010E0B801A701E7DF2D
:105AB0001F910F91FF90EF900895CF92DF92EF9298
:105AC000FF920F931F93CF93DF93EC016A017B0149
:105AD0002115310541F4E881F9810190F081E02D33
