:1000000004C100002FC100002DC100002BC1000061
:1000100029C1000027C1000025C1000023C1000044
:1000200021C100001FC100001DC100001BC1000054
:1000300019C1000017C1000015C1000013C1000064
:1000400011C100000FC100000DC100000BC1000074
:1000500009C1000007C1000005C100000C9454292B
:1000600001C100000C944C26FDC000000C94EC264D
:10007000F9C00000F7C00000F5C00000F3C00000A8
:10008000F1C00000EFC00000EDC00000EBC00000B8
:10009000E9C00000E7C00000E5C000000C94822425
:1000A000E1C00000DFC00000DDC00000DBC00000D8
:1000B000D9C00000D7C00000D5C00000D3C00000E8
:1000C000D1C00000CFC00000CDC00000CBC00000F8
:1000D000C9C00000C7C00000C5C00000C3C0000008
:1000E000C1C0000000002100240027002A002D00CC
:1000F0003000330001010000040107010A01000083
:100100002200250028002B002E00310034000201BF
:100110000000050108010B0100002000230026005B
:1001200029002C002F00320000010000030106010D
:10013000090105050505070508080808020202026D
:100140000A0A080804040404010101010101010173
:100150000303030303030303040707070C0C0C0C3E
:100160000C0C0C0C02020202060606060606060627
:100170000B0B0B0B0B0B0B0B0102102020080810B4
:100180002040102040800201020108040201010207
:1001900004081020408080402010080402018004E0
:1001A000020180402010080402010804020101023B
:1001B0000408102040800102040810204080000044
:1001C000090A02080B0C0D070603040100000000D9
:1001D000000000000000000000000000000000001F
:1001E0000000000000000000000011100F000000DF
:1001F00000000000000000000000000000000000FF
:10020000000000003A01F123642711241FBECFEF44
:10021000D1E2DEBFCDBF00E00CBF15E0A0E0B2E050
:10022000EEE3FCE500E00BBF02C007900D92A43F97
:10023000B107D9F71BBE1BE0A4EFB5E001C01D92CA
:10024000AE35B107E1F712E0CAE0D2E004C0229770
:10025000FE010E94192EC430D107C9F70E94882CD4
:100260000C941D2ECDCEDC0101C06D934150504049
:10027000E0F70895CF92EF920F9381E59AE06091B5
:100280009E054091A0052091A2050091A405E09053
:10029000A605C090A8050E9485230F91EF90CF90EE
:1002A00008953F924F925F926F927F928F929F92AA
:1002B000AF92BF92CF92DF92EF92FF920F931F9374
:1002C00081E18093970555245394B4E04B2EA7E029
:1002D0003A2EFFE09F2EE2E08E2E75E0772E68E04A
:1002E000662E53E0C52E46E0B42E39E0A32E1EE064
:1002F0000AE02BE0F22E9CE0E92E8DE0D82EBAC168
:100300008091870560E00E94262C80918F050E94D5
:10031000582C892B61F45092970560919805709143
:10032000990580919A0590919B050E949C2965E012
:1003300070E080E090E00E949C29809191050E94ED
:10034000582C892B61F44092970560919805709123
:10035000990580919A0590919B050E949C2965E0E2
:1003600070E080E090E00E949C29809193050E94BB
:10037000582C892B61F43092970560919805709103
:10038000990580919A0590919B050E949C2965E0B2
:1003900070E080E090E00E949C29809195050E9489
:1003A000582C892B61F49092970560919805709173
:1003B000990580919A0590919B050E949C2965E082
:1003C00070E080E090E00E949C298091870561E0C8
:1003D0000E94262C8091890560E00E94262C809145
:1003E0008F050E94582C892B61F4809297056091AB
:1003F00098057091990580919A0590919B050E94AE
:100400009C2965E070E080E090E00E949C2980914A
:1004100091050E94582C892B61F470929705609188
:1004200098057091990580919A0590919B050E947D
:100430009C2965E070E080E090E00E949C2980911A
:1004400093050E94582C892B61F460929705609166
:1004500098057091990580919A0590919B050E944D
:100460009C2965E070E080E090E00E949C298091EA
:1004700095050E94582C892B61F410929705609184
:1004800098057091990580919A0590919B050E941D
:100490009C2965E070E080E090E00E949C298091BA
:1004A000890561E00E94262C80918B0560E00E9406
:1004B000262C80918F050E94582C892B61F4C092C4
:1004C0009705609198057091990580919A05909192
:1004D0009B050E949C2965E070E080E090E00E940E
:1004E0009C29809191050E94582C892B61F4B0922F
:1004F0009705609198057091990580919A05909162
:100500009B050E949C2965E070E080E090E00E94DD
:100510009C29809193050E94582C892B61F4A0920C
:100520009705609198057091990580919A05909131
:100530009B050E949C2965E070E080E090E00E94AD
:100540009C29809195050E94582C892B61F4109369
:100550009705609198057091990580919A05909101
:100560009B050E949C2965E070E080E090E00E947D
:100570009C2980918B0561E00E94262C80918D053D
:1005800060E00E94262C80918F050E94582C892BB8
:1005900061F4009397056091980570919905809199
:1005A0009A0590919B050E949C2965E070E080E08F
:1005B00090E00E949C29809191050E94582C892BE3
:1005C00061F4F0929705609198057091990580917A
:1005D0009A0590919B050E949C2965E070E080E05F
:1005E00090E00E949C29809193050E94582C892BB1
:1005F00061F4E0929705609198057091990580915A
:100600009A0590919B050E949C2965E070E080E02E
:1006100090E00E949C29809195050E94582C892B7E
:1006200061F4D09297056091980570919905809139
:100630009A0590919B050E949C2965E070E080E0FE
:1006400090E00E949C2980918D0561E00E94262CFB
:10065000809185050E94582C892B61F41093970591
:10066000609198057091990580919A0590919B05EC
:100670000E949C2980919705813109F441CE1F91F8
:100680000F91FF90EF90DF90CF90BF90AF909F9031
:100690008F907F906F905F904F903F90089581E58D
:1006A0009AE06FE041E00E94A42181E59AE00E9477
:1006B0008E2180E090E0E0912B0BF0912C0BE80F65
:1006C000F91F1082019622E080309207A1F78091F5
:1006D00085050E94582C0197D1F36CE271E080E00F
:1006E00090E00E949C29A6EFB5E020E030E0E09188
:1006F0002B0BF0912C0BE20FF31F8C9180832F5F5B
:100700003F4F129682E02030380789F781E59AE062
:1007100066E042E00E94A42181E59AE00C949621D3
:100720000F931F93CF93DF93EC01162F042F81E5D6
:100730009AE00E94A42181E59AE060E072E00E94C4
:10074000AD2DCA30D1053CF4612F6E5F81E59AE092
:10075000402F0E94A421CE010A978A35910538F4D2
:10076000612F6F5F81E59AE0402F0E94A421C4367B
:10077000D10534F081E59AE0612F402F0E94A42139
:1007800081E59AE0BE014AE050E00E949B2DDF9196
:10079000CF911F910F910895DF92EF92FF920F93E7
:1007A0001F93CF93DF93D82E062F682F615081E5DA
:1007B0009AE0402F0E94A42181E59AE064E072E073
:1007C0000E94AD2D80918B0560E00E94262C81E572
:1007D0009AE00E948E21EE24FF241EC08C2F912FC0
:1007E0006D2D70E0402F50E09BDF80917B05909154
:1007F0007C050197E0912B0BF0912C0BE80FF91F72
:10080000C083E0917B05F0917C05EE0FFF1FEC505B
:10081000FA4FC08311837E01809195050E94582C68
:100820000197D9F4809185050E94582C0197A9F46D
:1008300080919C050E94612A64E070E00E94CE2DA8
:10084000172FC62FD72F62E370E080E090E00E9460
:100850009C29EC16FD0601F3C1CF81E59AE00E94C8
:10086000962180918B0561E00E94262C6CE271E05C
:1008700080E090E00E949C29DF91CF911F910F9121
:10088000FF90EF90DF9008951F9380918D0560E0B9
:100890000E94262C1FEF809193050E94582C0197EF
:1008A00009F046C0809185050E94582C019709F0F7
:1008B0003FC080917B0590917C050197E0912B0BC7
:1008C000F0912C0BE80FF91F108360914D0A70E036
:1008D0006250704040914E0A8FEF90E050E020DF70
:1008E00064E670E080E090E00E949C2980917B05A6
:1008F00090917C050197E0912B0BF0912C0BE80F68
:10090000F91F108260914D0A625081E59AE0409192
:100910004E0A0E94A42181E59AE066E072E00E94FE
:10092000AD2D64E670E080E090E00E949C29B3CF9A
:1009300080918D0561E00E94262C6CE271E080E0E0
:1009400090E00E949C2981E59AE060914D0A4091D7
:100950004E0A0E94A4211F910895CF92DF92EF9238
:10096000FF920F931F938C016DE070E040E050E028
:10097000D7DE7EE0C72ED12CC00ED11EC60161E1AC
:1009800070E040E050E0CCDE64EFE62E65E0F62E4D
:10099000F801EE0FFF1FEE0DFF1D8081918161E0D8
:1009A00070E041E050E0BCDEF8013196EE0FFF1F31
:1009B000EE0DFF1D8081918165E070E041E050E027
:1009C000AFDEF8013296EE0FFF1FEE0DFF1D8081A6
:1009D000918169E070E041E050E0A2DEF8013396D9
:1009E000EE0FFF1FEE0DFF1D808191816DE070E025
:1009F00041E050E095DEF8013496EE0FFF1FEE0D5A
:100A0000FF1D8081918161E170E041E050E088DE6E
:100A1000F8013596EE0FFF1FEE0DFF1D80819181CD
:100A200061E070E042E050E07BDEF8013696EE0FC8
:100A3000FF1FEE0DFF1D8081918165E070E042E0B7
:100A400050E06EDEF8013796EE0FFF1FEE0DFF1D32
:100A50008081918169E070E042E050E061DEF80160
:100A60003896EE0FFF1FEE0DFF1D808191816DE026
:100A700070E042E050E054DEF8013996EE0FFF1FBF
:100A8000EE0DFF1D8081918161E170E042E050E058
:100A900047DEF8013A96EE0FFF1FEE0DFF1D808135
:100AA000918161E070E043E050E03ADEF8013B966E
:100AB000EE0FFF1FEE0DFF1D8081918165E070E05C
:100AC00043E050E02DDE045F1F4FF801EE0FFF1FE3
:100AD000EE0DFF1D8081918169E070E043E050E000
:100AE0001FDE0F5F1F4F000F111F0E0D1F1DF8019E
:100AF000808191816DE070E043E050E011DECC0C2C
:100B0000DD1CEC0CFD1CF7018081918161E170E03E
:100B100043E050E005DE1F910F91FF90EF90DF90D2
:100B2000CF900895FF920F931F93CF93DF93F82EEA
:100B300081E59AE060914D0A40914E0A0E94A421FD
:100B400081E59AE06AE072E00E94AD2D81E59AE0CD
:100B50000E948E2160914D0A6E5F60934D0A81E57F
:100B60009AE040914E0A0E94A4219BDB6091970578
:100B70006A3018F000E010E016C081E59AE04AE023
:100B800050E00E944C2D81E59AE060914D0A409121
:100B90004E0A0E94A42180919705082F10E010931F
:100BA000500A00934F0A809197058E3009F4D8C0FF
:100BB00091E0F91691F48A3009F470C08B3009F491
:100BC00076C08C3009F47AC08D3039F488EC92E02C
:100BD0009093500A80934F0ADFC063DB80919705A2
:100BE0008E3029F41093500A00934F0AB9C091E057
:100BF000F91659F48A3009F451C08B3009F457C002
:100C00008C3009F45BC08D3009F38A3018F0C0E0F5
:100C1000D0E029C060914D0A615060934D0A81E592
:100C20009AE040914E0A0E94A42181E59AE0B80121
:100C30004AE050E00E949B2D81E59AE06091970583
:100C40004AE050E00E944C2D80919705C82FD0E0DB
:100C500060914D0A6F5F60934D0A81E59AE0409183
:100C60004E0A0E94A4211DDB809197058E3089F4E5
:100C7000C801B3E0880F991FBA95E1F7000F111F63
:100C8000800F911FC80FD91FD093500AC0934F0AED
:100C900067C091E0F916C1F48A3039F48FEF90E023
:100CA0009093500A80934F0A5BC08B3029F41092C6
:100CB000500A10924F0A54C08C3019F484E692E026
:100CC00087CF8D3009F482CF8A3008F049C0609117
:100CD0004D0A625060934D0A81E59AE040914E0AB8
:100CE0000E94A42181E59AE0B8014AE050E00E9408
:100CF0009B2D81E59AE0BE014AE050E00E949B2DC9
:100D000060914D0A6E5F60934D0A81E59AE04091D3
:100D10004E0A0E94A42181E59AE0609197054AE07D
:100D200050E00E944C2D84E690E0089F9001099FBE
:100D3000300D189F300D112480919705280F311D1B
:100D4000CE01F3E0880F991FFA95E1F7CC0FDD1F74
:100D50008C0F9D1F280F391F3093500A20934F0A84
:100D600081E59AE00E94962160914D0A70E0625000
:100D7000704040914E0A80914F0A9091500A50E085
:100D8000CFDC60914D0A645060934D0A81E59AE092
:100D900040914E0A0E94A42181E59AE00E9496218A
:100DA00081E59AE060914D0A40914E0A0E94A4218B
:100DB0006CE271E080E090E00E949C29DF91CF918D
:100DC0001F910F91FF90089581E59AE00E94CC2138
:100DD000A6EFB5E080E090E01D921D92E0912B0B14
:100DE000F0912C0BE80FF91F1082019622E0803061
:100DF000920791F781E59AE00E94CC2181E59AE083
:100E000063E041E00E94A42181E59AE06EE072E097
:100E10000E94AD2D81E59AE063E042E00E94A421AA
:100E200081E59AE06EE172E00E94AD2D81E59AE0E5
:100E300063E143E00E94A42181E59AE00E948E21B3
:100E400068EE73E080E090E00E949C2981E59AE0E2
:100E50000C949621CF93DF9381E59AE00E94CC21F8
:100E6000C0E0D0E081E59AE0BE0142E050E00E949F
:100E70009B2D219682E0C130D807A1F781E59AE049
:100E80000E94CC2181E59AE00E948E2181E59AE0C2
:100E900063E040E00E94A42181E59AE068E272E00C
:100EA0000E94AD2D81E59AE061E041E00E94A4211D
:100EB00081E59AE068E372E00E94AD2D81E59AE059
:100EC00060E043E00E94A42181E59AE06CE472E0D6
:100ED0000E94AD2D81E59AE061E04AE050E00E9479
:100EE0004C2D81E59AE063E572E00E94AD2D81E52D
:100EF0009AE062E04AE050E00E944C2D81E59AE0E1
:100F00006BE043E00E94A42181E59AE065E572E090
:100F10000E94AD2D81E59AE060E04AE050E00E9439
:100F20004C2D81E59AE063E572E00E94AD2D81E5EC
:100F30009AE064E04AE050E00E944C2D81E59AE09E
:100F400069E042E00E94A42181E59AE06CE572E04C
:100F50000E94AD2D6091FA09662339F481E59AE08B
:100F60006EE572E00E94AD2D06C081E59AE04AE090
:100F700050E00E944C2D81E59AE06AE042E00E9438
:100F8000A421809185050E94582C0197D1F36CE231
:100F900071E080E090E00E949C2981E59AE00E9447
:100FA000CC2181E59AE063E040E00E94A42181E544
:100FB0009AE060E672E00E94AD2D81E59AE060E083
:100FC00041E00E94A42181E59AE06FE672E00E9470
:100FD000AD2D81E59AE060E042E00E94A42181E528
:100FE0009AE061E872E00E94AD2D81E59AE060E050
:100FF00043E00E94A42181E59AE063E972E00E9447
:10100000AD2D81E59AE062E041E00E94A42181E5F6
:101010009AE062E141E00E94A42181E59AE06CE55A
:1010200072E00E94AD2D6091FA09662339F481E5E2
:101030009AE06EE572E00E94AD2D06C081E59AE06F
:101040004AE050E00E944C2D81E59AE063E141E0E6
:101050000E94A421809185050E94582C0197D1F30C
:101060006CE271E080E090E00E949C2981E59AE0CA
:101070000E949621DF91CF910895EF92FF920F93F6
:101080001F93CF93DF936091B2057091B30588E20F
:101090009BE00E9417268093FA09882309F492C0E6
:1010A00016EFE12E15E0F12E00E010E0C0E0D0E0F8
:1010B0008091FA098430E1F0853038F4823081F093
:1010C000833090F4813069F509C08630C9F08630EC
:1010D00098F08730C9F0883021F51AC08E0121C000
:1010E0008E0100501E4F1DC08E0100501C4F19C0B4
:1010F0008E0100501A4F15C08E010050184F11C0BC
:101100008E010050164F0DC08E010050144F09C0C3
:101110008E010050124F8FE00D3F180714F00CEFB6
:101120001FE088E29BE0B8010E941726F701808348
:101130001182E0912B0BF0912C0BEC0FFD1F8083A3
:10114000219682E090E0E80EF91E92E0C030D907C7
:1011500009F0AECF81E59AE00E94CC2181E59AE0CA
:1011600063E041E00E94A42181E59AE068EA72E030
:101170000E94AD2D81E59AE063E042E00E94A42147
:1011800081E59AE067EB72E00E94AD2D81E59AE07F
:101190006091FA094AE050E00E944C2D81E59AE006
:1011A00063E143E00E94A42181E59AE00E948E2140
:1011B00060ED77E080E090E00E949C2981E59AE074
:1011C0000E949621DF91CF911F910F91FF90EF9098
:1011D000089588E29BE061E072E00E941726682F84
:1011E0008091680A882361F46623D1F48091AA056E
:1011F0006FE770E00E94952A81E08093680A0AC038
:10120000813041F48091AA0560E070E00E94952A47
:101210001092680A6CE271E080E090E00C949C29E6
:101220008091AA0570E0E6CF2F923F924F925F9295
:101230006F927F928F929F92AF92BF92CF92DF92E6
:10124000EF92FF920F931F93DF93CF93CDB7DEB74B
:1012500063970FB6F894DEBF0FBECDBF89837B8B3B
:101260006A8B0091FB091091FC0981E59AE0602FDF
:10127000412F0E94A42181E59AE06EEB72E00E946A
:10128000AD2D8A899B890D969B838A83EA89FB8988
:101290003896FD83EC838A899B8903969F838E838E
:1012A000EA89FB893E96F987E8878A899B890996AE
:1012B0009B878A87EA89FB893496FD87EC876AE0F9
:1012C000262E312C8A899B89280E391E0B969F87E2
:1012D0008E87EA89FB893C96F98BE88B57E0852E4F
:1012E000912C8A899B89880E991E46E0642E712C68
:1012F000680E791E35E0432E512C480E591E6C01A4
:101300000894C11CD11C22E0A22EB12CA80EB91E3B
:1013100084E1E82EF12C8091870560E00E94262C64
:10132000809195050E94582C892B59F4609198055D
:101330007091990580919A0590919B050E949C2936
:1013400048DF8091870561E00E94262C809181050D
:101350000E94582C892BF9F46CE271E080E090E057
:101360000E949C292091FB098091FC0990E08E9DB0
:10137000A0018F9D500D9E9D500D1124222309F434
:1013800024E12150FA01E20FF11DE350F64F808174
:101390008130A1F724C0809183050E94582C892BAD
:1013A00009F56CE271E080E090E00E949C292091B8
:1013B000FB098091FC0990E08E9DA0018F9D500D4E
:1013C0009E9D500D11242F5F243108F020E0FA017A
:1013D000E20FF11DE350F64F80818130A1F7209399
:1013E000FB094EC180917F050E94582C892B09F57D
:1013F0006CE271E080E090E00E949C292091FC0961
:101400008091FB09482F50E02F5F243008F020E046
:10141000822F90E08E9DF0018F9DF00D9E9DF00D2E
:101420001124E40FF51FE350F64F8081813061F7FE
:1014300026C080917D050E94582C892B19F56CE2FD
:1014400071E080E090E00E949C292091FC0980914D
:10145000FB09482F50E0222309F424E02150822F79
:1014600090E08E9DF0018F9DF00D9E9DF00D11245A
:10147000E40FF51FE350F64F8081813061F7209330
:10148000FC09FEC0809185050E94582C892B09F02B
:1014900042CF6CE271E080E090E00E949C29409194
:1014A000FC096091FB09842F90E08E9DF0018F9DD7
:1014B000F00D9E9DF00D1124E60FF11DE350F64F47
:1014C0008081813009F0FAC081E59AE00E94A42170
:1014D00081E59AE060EC72E00E94AD2D82E0C8C028
:1014E0009091FB099C3031F48091FC09882309F02C
:1014F00048C01FC0903181F48091FC09882309F015
:1015000049C081E59AE061E040E00E94A42181E5C4
:101510009AE062EC72E0A9C0943029F48091FC0951
:101520008823F9F406C0983089F48091FC09882357
:1015300001F581E59AE061E040E00E94A42181E5A7
:101540009AE062EC72E00E94AD2D85C0992339F4D7
:101550008091FC09813039F58A899B8977C0943064
:1015600031F48091FC098130E1F4C6016FC09830FC
:1015700031F48091FC098130E1F4C50167C09C30F1
:1015800039F48091FC09813031F58E819F815EC0F4
:10159000903139F48091FC09813031F58C859D853D
:1015A00055C0992331F48091FC09823031F5C20194
:1015B0004DC0943031F48091FC09823031F5C30183
:1015C00045C0983031F48091FC09823039F5C4016E
:1015D0003DC09C3039F48091FC09823041F58C810A
:1015E0009D8134C0903139F48091FC09823041F5FD
:1015F0008A859B852BC0992331F48091FC09833027
:1016000051F5C10123C0943039F48091FC09833035
:1016100011F58E859F851AC0983039F48091FC09A8
:101620008330C9F48889998911C09C3039F480913C
:10163000FC09833081F48A819B8108C0903159F480
:101640008091FC09833039F48885998561E070E0E8
:1016500040E050E065D881E59AE060E140E00E941A
:10166000A42181E59AE06EE572E00E94AD2D81E053
:101670000091FB091091FC09823009F04CCE1FC08B
:1016800081E59AE0602F412F0E94A42181E59AE034
:1016900066EC72E00E94AD2D81E59AE06091FB0955
:1016A0004091FC090E94A42181E59AE06EEB72E072
:1016B0000E94AD2D99819130D1F612CFFFCF639664
:1016C0000FB6F894DEBF0FBECDBFCF91DF911F9153
:1016D0000F91FF90EF90DF90CF90BF90AF909F90D1
:1016E0008F907F906F905F904F903F902F900895D4
:1016F0001F93182F81E59AE00E94CC2168EC70E0DE
:1017000080E090E00E949C2981E59AE066E040E05C
:101710000E94A42181E59AE068EC72E00E94AD2D60
:1017200081E59AE061E041E00E94A42181E59AE030
:1017300065ED72E00E94AD2D81E59AE061E042E046
:101740000E94A42181E59AE069EE72E00E94AD2D2D
:1017500081E59AE061E043E00E94A42181E59AE0FE
:101760006DEF72E00E94AD2D123079F01330C1F0B0
:10177000113011F581E59AE061E040E00E94A4217A
:1017800081E59AE060E173E015C081E59AE061E0EF
:1017900040E00E94A42181E59AE065E173E00AC07F
:1017A00081E59AE060E040E00E94A42181E59AE0B2
:1017B0006AE173E00E94AD2D81E59AE063E140E0CB
:1017C0000E94A4216091FA09662339F481E59AE028
:1017D0006EE572E00E94AD2D06C081E59AE04AE018
:1017E00050E00E944C2D1092FB0981E08093FC098F
:1017F000EDEFF9E0DF0198961082148A1C9254965E
:101800001C925497319611968AE0E131F807A1F7BE
:1018100081E08083848B80A78783838F87A78687D7
:1018200082A386AB80E060E070E0FEDC8091FB0983
:10183000882349F48091FC09813001F18230F1F074
:10184000833031F51BC0873071F48091FC09813001
:1018500011F484E013C0823011F485E00FC08330AE
:10186000B9F486E00BC08E3099F48091FC09813088
:1018700011F487E003C0823021F488E08093FA09F4
:1018800007C020E030E0833029F421E030E002C0DE
:1018900020E030E0C9011F910895EF92FF920F936D
:1018A0001F93CF93DF9382E023DF019719F421E0A8
:1018B00030E098C081E59AE00E94CC2176EFE72ED7
:1018C00075E0F72E00E010E0C0E0D0E08091FA096A
:1018D0008430E1F0853038F4823081F0833090F448
:1018E000813069F509C08630C9F0863098F08730BC
:1018F000C9F0883021F51AC08E0121C08E01005038
:101900001E4F1DC08E0100501C4F19C08E0100508B
:101910001A4F15C08E010050184F11C08E01005093
:10192000164F0DC08E010050144F09C08E0100509B
:10193000124F8FE00D3F180714F00CEF1FE088E204
:101940009BE0B8010E941726F70180831182E09185
:101950002B0BF0912C0BEC0FFD1F8083219682E066
:1019600090E0E80EF91E92E0C030D90709F0AECF42
:1019700081E59AE00E94CC2181E59AE063E041E0B4
:101980000E94A42181E59AE068EA72E00E94AD2DF0
:1019900081E59AE063E042E00E94A42181E59AE0BB
:1019A00067EB72E00E94AD2D81E59AE06091FA0943
:1019B0004AE050E00E944C2D81E59AE063E143E06B
:1019C0000E94A42181E59AE00E948E2168EE73E0D6
:1019D00080E090E00E949C2981E59AE00E94962197
:1019E00020E030E0C901DF91CF911F910F91FF906E
:1019F000EF9008956091B0057091B10588E29BE089
:101A00000E941726682F863908F466E98091AC0594
:101A100070E00C94952A1F936091AE057091AF050C
:101A200088E29BE00E941726182F8091AA05612F5B
:101A300070E00E94952A112319F41092680A03C0DD
:101A400081E08093680A1F9108950F931F93CF93AD
:101A5000DF9381E59AE00E94CC2181E59AE061E084
:101A600041E00E94A42181E59AE060E273E00E94D7
:101A7000AD2D81E59AE061E042E00E94A42181E57C
:101A80009AE064E273E00E94AD2D81E59AE063E1A3
:101A900042E00E94A42181E59AE00E948E2106EF97
:101AA00015E0C0E0D0E088E29BE0BE0140E00E948B
:101AB0001E2682E0C030D80754F4F801118210824B
:101AC000E0912B0BF0912C0BEC0FFD1F1082219657
:101AD0000E5F1F4FFFE0CE3FDF0729F781E59AE059
:101AE0000E94CC2181E59AE00E94962181E59AE04E
:101AF00062E042E00E94A42181E59AE067E373E09E
:101B00000E94AD2D81E59AE062E041E00E94A421AF
:101B100081E59AE060E273E00E94AD2D1092FA092F
:101B200068EE73E080E090E00E949C29DF91CF9105
:101B30001F910F910895EF92FF920F931F93CF93F0
:101B4000DF9383E0D5DD019719F421E030E0C5C0D3
:101B500081E59AE00E94CC2181E59AE061E041E0D4
:101B60000E94A42181E59AE064E273E00E94AD2D19
:101B700081E59AE061E042E00E94A42181E59AE0DB
:101B800067EB72E00E94AD2D81E59AE067E042E0EC
:101B90000E94A42181E59AE06091FA094AE050E0B0
:101BA0000E944C2D81E59AE063E143E00E94A4216C
:101BB00081E59AE00E948E21E4EFEE2EE5E0FE2E14
:101BC00000E010E0C0E0D0E0F70111821082E09167
:101BD0002B0BF0912C0BEC0FFD1F10828091FA095A
:101BE0008430E1F0853038F4823081F0833090F435
:101BF000813069F509C08630C9F0863098F08730A9
:101C0000C9F0883021F51AC08E0121C08E01005024
:101C10001E4F1DC08E0100501C4F19C08E01005078
:101C20001A4F15C08E010050184F11C08E01005080
:101C3000164F0DC08E010050144F09C08E01005088
:101C4000124FFFE00E3F1F0714F00DEF1FE088E278
:101C50009BE0B80140E00E941E26219682E090E0C1
:101C6000E80EF91E92E0C030D90709F0ADCF81E54A
:101C70009AE00E94CC2181E59AE062E041E00E9476
:101C8000A42181E59AE067E373E00E94AD2D81E530
:101C90009AE062E042E00E94A42181E59AE067EBCD
:101CA00072E00E94AD2D81E59AE06091FA094AE068
:101CB00050E00E944C2D81E59AE063E143E00E94F0
:101CC000A42168EE73E080E090E00E949C2981E509
:101CD0009AE00E94962120E030E0C901DF91CF9187
:101CE0001F910F91FF90EF900895EF92FF920F9345
:101CF0001F93CF93DF9381E0FBDC019719F421E080
:101D000030E0BDC081E59AE00E94CC2181E59AE0F7
:101D100061E041E00E94A42181E59AE067E473E07C
:101D20000E94AD2D81E59AE061E042E00E94A4218D
:101D300081E59AE067EB72E00E94AD2D81E59AE0C3
:101D400067E042E00E94A42181E59AE06091FA09EF
:101D50004AE050E00E944C2D81E59AE063E143E0C7
:101D60000E94A42181E59AE00E948E21F6EFEF2ED9
:101D7000F5E0FF2EC0E0D0E000E010E08091FA092D
:101D80008430E1F0853038F4823081F0833090F493
:101D9000813069F509C08630C9F0863098F0873007
:101DA000C9F0883021F51AC0E80121C0E801C0500F
:101DB000DE4F1DC0E801C050DC4F19C0E801C05023
:101DC000DA4F15C0E801C050D84F11C0E801C0502B
:101DD000D64F0DC0E801C050D44F09C0E801C05033
:101DE000D24F8FE0CD3FD80714F0CCEFDFE00F5F8C
:101DF0001F4F88E29BE0BE01F70140810E941E2632
:101E000082E090E0E80EF91E92E00030190709F038
:101E1000B5CF81E59AE00E94CC2181E59AE063E0AC
:101E200041E00E94A42181E59AE068E573E00E9408
:101E3000AD2D81E59AE063E042E00E94A42181E5B6
:101E40009AE067EB72E00E94AD2D81E59AE0609127
:101E5000FA094AE050E00E944C2D81E59AE063E1E6
:101E600043E00E94A42168EE73E080E090E00E94CD
:101E70009C2981E59AE00E94962120E030E0C9018A
:101E8000DF91CF911F910F91FF90EF90089581E521
:101E90009AE00E94CC2181E59AE060E040E00E9457
:101EA000A42181E59AE066E673E00E94AD2D609181
:101EB000FA09662339F481E59AE06EE572E00E9442
:101EC000AD2D06C081E59AE04AE050E00E944C2D1D
:101ED00081E59AE061E041E00E94A42181E59AE079
:101EE00060E173E00E94AD2D81E59AE061E042E09F
:101EF0000E94A42181E59AE065E173E00E94AD2D86
:101F000081E59AE061E043E00E94A42181E59AE046
:101F10006AE173E00E94AD2D81E59AE067E042E05E
:101F20000E94A42181E59AE069E773E00E94AD2D4B
:101F300081E59AE067E041E00E94A42181E59AE012
:101F400062E873E00E94AD2D81E59AE060E143E034
:101F50000E94A42181E59AE06BE873E00E94AD2D18
:101F600081E59AE067E043E00E94A42181E59AE0E0
:101F700060E973E00E94AD2D1092FB0981E080932F
:101F8000FC09EDEFF9E0DF0198961082148A1C92AB
:101F900054961C925497319611968AE0E131F807D5
:101FA000A1F781E08083848B80A7828F86A78683B8
:101FB00087AB80E060E070E037D98091FB0988232F
:101FC00081F48091FC09823029F467DC019709F4DF
:101FD0005ECF0895833061F4AEDD019709F457CFE9
:101FE00008958630A9F48091FC09823041F42DCD0A
:101FF000813071F47ADE019709F449CF0895833076
:1020000011F40C94E406813019F40E944F03D1CFEF
:1020100008959F92AF92BF92CF92DF92EF92FF927C
:102020000F931F93CF93DF930AE0902E1BE0E12ED6
:10203000B8E0CB2ED12CA6E9AA2EB12CCFEFD0E060
:102040006091AE057091AF0588E29BE00E94172673
:10205000182F6091B0057091B10588E29BE00E9455
:102060001726082F6091B2057091B30588E29BE0B6
:102070000E941726F82E81E59AE00E94CC2181E586
:102080009AE060E040E00E94A42181E59AE069E9DD
:1020900073E00E94AD2D81E59AE06FE042E00E947E
:1020A000A42181E59AE061EA73E00E94AD2D81E50B
:1020B0009AE060E041E00E94A42181E59AE067EAAD
:1020C00073E00E94AD2D812F90E06BE070E041E065
:1020D00050E00E94900381E59AE061E042E00E94B6
:1020E000A42181E59AE062EB73E00E94AD2D802F80
:1020F00090E06BE070E042E050E00E94900381E5E8
:102100009AE06FE043E00E94A42181E59AE06BE849
:1021100073E00E94AD2D81E59AE061E043E00E940A
:10212000A42181E59AE06CEB73E00E94AD2D8F2D28
:102130008150883068F081E59AE06BE043E00E94CE
:10214000A42181E59AE062EC72E00E94AD2D08C006
:102150008F2D90E06BE070E043E050E00E94900330
:102160009092FB0981E08093FC09EDEFF9E0DF013B
:1021700098961082148A1C9254961C925497319609
:1021800011962AE0E131F207A1F781E08287868F7C
:1021900082AB86AB82A380E060E070E045D880919E
:1021A000FB098A3009F05CC18091FC09813009F09B
:1021B00083C080934E0AE0924D0A0E94920580915E
:1021C0004F0A9091500A22E0883C920709F045C0DE
:1021D00081E59AE06AE041E00E94A42181E59AE06D
:1021E00064E072E00E94AD2D80918B0560E00E945A
:1021F000262C81E59AE00E948E21809195050E940F
:10220000582C019709F03BC1809185050E94582CFC
:10221000019709F034C180919C050E94612A64E015
:1022200070E00E94CE2DCB0160934F0A9093500A2C
:102230006BE070E041E050E00E94900360914F0A33
:102240007091500A8091AA050E94952A62E370E07D
:1022500080E090E00E949C29D0CF8F3F910569F0EB
:1022600064F0D093500AC0934F0A8FEF90E06BE078
:1022700070E041E050E00E94900360914F0A70913D
:10228000500A8091AA050E94952A40914F0A5091C8
:10229000500A4115510519F41092680A06C0141627
:1022A00015061CF481E08093680A6091AE05709178
:1022B000AF0588E29BE0D1C0823009F098C08093DE
:1022C0004E0AE0924D0A81E00E94920580914F0AE9
:1022D0009091500A22E0883C920709F058C081E5AD
:1022E0009AE06AE042E00E94A42181E59AE064E07D
:1022F00072E00E94AD2D80918B0560E00E94262C3B
:1023000081E59AE00E948E2123C06BE070E042E0FC
:1023100050E00E94900360914F0A7091500A8091A2
:10232000AC050E94952A80914F0A9091500A8539F8
:10233000910544F486E990E06BE070E042E050E003
:102340000E94900362E370E080E090E00E949C298C
:10235000809195050E94582C019709F0A0C08091AA
:1023600085050E94582C019709F099C080919C0521
:102370000E94612A64E070E00E94CE2DCB01709330
:10238000500A60934F0A663971056CF2BECF8F3FD9
:10239000910569F064F0D093500AC0934F0A8FEF13
:1023A00090E06BE070E042E050E00E94900380918A
:1023B0004F0A9091500A8639910564F4B092500A00
:1023C000A0924F0A86E990E06BE070E042E050E0B6
:1023D0000E94900360914F0A7091500A8091AC0561
:1023E0000E94952A6091B0057091B10532C083308A
:1023F00009F0D1CE80934E0AE0924D0A81E00E940E
:10240000920580914F0A9091500A099764F0D092FA
:10241000500AC0924F0A88E090E06BE070E043E021
:1024200050E00E94900380914F0A9091500A892BAE
:1024300061F481E59AE06BE043E00E94A42181E52C
:102440009AE062EC72E00E94AD2D6091B20570914D
:10245000B30588E29BE040914F0A0E941E269BCE66
:102460008E3009F098CE8091FC09833011F427D08A
:1024700092CE823009F08FCE0E942A07E1CD81E50D
:102480009AE00E94962180918B0561E00E94262CA3
:102490006CE271E080E090E00E949C29F6CE81E53C
:1024A0009AE00E94962180918B0561E00E94262C83
:1024B0006CE271E080E090E00E949C2993CF81E57E
:1024C0009AE00E94CC2181E59AE060E040E00E9421
:1024D000A42181E59AE066EC73E00E94AD2D609145
:1024E000FA09662339F481E59AE06EE572E00E940C
:1024F000AD2D06C081E59AE04AE050E00E944C2DE7
:1025000081E59AE062E041E00E94A42181E59AE041
:102510006AED73E00E94AD2D81E59AE062E042E051
:102520000E94A42181E59AE062EE73E00E94AD2D45
:1025300081E59AE062E043E00E94A42181E59AE00F
:1025400069EE73E00E94AD2D81E59AE06BE043E017
:102550000E94A42181E59AE060EF73E00E94AD2D16
:1025600081E59AE06BE040E00E94A42181E59AE0D9
:1025700069EF73E00E94AD2D81E59AE06BE042E0E7
:102580000E94A42181E59AE060E074E00E94AD2DF4
:1025900081E59AE06BE041E00E94A42181E59AE0A8
:1025A0006AE074E00E94AD2D81E08093FB0982E037
:1025B0008093FC09EDEFF9E0DF0198961082148A10
:1025C0001C9254961C925497319611968AE0E131F0
:1025D000F807A1F781E08183858B81A782AB809387
:1025E000070A868F828780E060E070E00E9414090D
:1025F0008091FB09813029F48091FC09813009F434
:102600008FD28091FB09813029F48091FC098230BE
:1026100009F430D08091FB09813029F48091FC09C4
:10262000833009F49AD48091FB098A3029F480918F
:10263000FC09833009F494D68091FB098A3029F48F
:102640008091FC09882309F4E4DC8091FB098A303D
:1026500031F48091FC09823011F40E94121C8091A7
:10266000FB098A3031F48091FC09813011F40FDCD0
:1026700026CF08952F923F924F925F926F927F9252
:102680008F929F92AF92BF92CF92DF92EF92FF9282
:102690000F931F93DF93CF93CDB7DEB760970FB63D
:1026A000F894DEBF0FBECDBF81E090E090937C0533
:1026B00080937B05988B8F8711E00DE004C021E0AB
:1026C00030E0388B2F8781E59AE00E94CC2181E5AC
:1026D0009AE060E040E00E94A42181E59AE061E197
:1026E00074E00E94AD2D81E59AE067E040E00E9431
:1026F000A4216091FA09662339F481E59AE06EE538
:1027000072E00E94AD2D06C081E59AE04AE050E0FB
:102710000E944C2D8F8598890E94AD043CE0309337
:10272000FB091092FC09EDEFF9E0DF0198961082A9
:10273000148A1C9254961C925497319611968AE0F2
:10274000E131F807A1F71093010A1093050A1093DD
:10275000090A10930D0A1083148310871487108BB5
:10276000148B108F148F10A314A310A714A710ABF1
:1027700014AB10AFEF85F8893C96FA83E9832F8577
:102780003889295F3F4F3C832B838F859889029638
:102790009E838D83EF85F8893D96F887EF832F859B
:1027A0003889285F3F4F3A8729878F859889039614
:1027B0009C878B87EF85F8893E96FE87ED87F9E049
:1027C0002F2E312C2F853889220E331EE4E04E2E19
:1027D000512C420E531E7AE0672E712C620E731E2E
:1027E00065E0862E912C820E931E59010894A11C3F
:1027F000B11C56E0C52ED12CC20ED31E4BE0E42EE8
:10280000F12CE20EF31E81E06F8578890E94140995
:102810009091FB09943039F48091FC09882309F0E8
:1028200080C035DB50CF983039F48091FC09882383
:1028300009F082C044DE47CF9C3091F58091FC09BD
:10284000882309F082C010924E0A00934D0A8F85AA
:1028500098899093500A80934F0A80E00E949205D5
:1028600080914F0A9091500A835F914034F022EF9B
:1028700031E03093500A20934F0A80914F0A909193
:10288000500A892B31F481E090E09093500A8093B4
:102890004F0AE0914F0AF091500AF88BEF8713CF5F
:1028A0009031A1F58091FC09882309F05BC010925A
:1028B0004E0AF1E1F0934D0A2F8538892130310518
:1028C00039F48FE090E09093500A80934F0A0AC049
:1028D000EF85F8893E97F093500AE0934F0A80E025
:1028E0000E94920560914F0A7091500AF2E06130A7
:1028F0007F071CF022EF31E0E4CE6F3071050CF45D
:10290000DECECB010E97988B8F87DDCE992339F4DD
:102910008091FC09813089F5EF85F8891CC09430DD
:1029200049F48091FC09813099F5B0927C05A09220
:102930007B0588C0983039F48091FC09813099F585
:102940002D813E817BC09C3059F48091FC098130FF
:1029500099F5EB85FC85F0937C05E0937B0572C0CF
:10296000903149F48091FC09813079F550927C05D1
:1029700040927B0567C0992349F48091FC0982301D
:1029800079F590927C0580927B055CC0943049F487
:102990008091FC09823079F5D0927C05C0927B054C
:1029A00051C0983039F48091FC09823079F52B813F
:1029B0003C8144C09C3039F48091FC09823079F527
:1029C000E985FA85C8CF903149F48091FC098230BD
:1029D00079F530927C0520927B0534C0992349F427
:1029E0008091FC09833071F570927C0560927B05C3
:1029F00029C0943049F48091FC09833019F5F09294
:102A00007C05E0927B051EC0983039F48091FC096A
:102A10008330C1F429813A8111C09C3039F480910E
:102A2000FC09833079F4EF81F88595CF903151F42A
:102A30008091FC09833031F42D853E8530937C05EF
:102A400020937B058091FC0980934E0A9F5F9093B1
:102A50004D0AE0917B05F0917C05EE0FFF1FEC50D5
:102A6000FA4F808191819093500A80934F0A81E0C0
:102A70000E94920580914F0A9091500A845692408C
:102A800039F40E94440480914D0A845080934D0A89
:102A900080914F0A9091500AE2E0883C9E0769F4C9
:102AA00080914D0A825060914E0A0E94CC03809121
:102AB0004D0A845080934D0AA6CE8F3F910599F020
:102AC00094F02FEF30E03093500A20934F0A60913A
:102AD0004D0A70E06E5F7F4F40914E0A8FEF90E09D
:102AE00050E00E94900380917B0590917C050197B6
:102AF000E0912B0BF0912C0BE80FF91F80914F0AFE
:102B00008083E0917B05F0917C05EE0FFF1FEC5078
:102B1000FA4F80914F0A9091500A9183808373CE2F
:102B2000BF92CF92DF92EF92FF920F931F93CF93BA
:102B3000DF93C1E0D0E048E0B42E09E0E12C32E0C0
:102B4000F32E2FEFC22ED12CD0937C05C0937B05A2
:102B500081E59AE00E94CC2181E59AE060E040E0C6
:102B60000E94A42181E59AE063E274E00E94AD2D09
:102B70006091FA09662339F481E59AE06EE572E026
:102B80000E94AD2D06C081E59AE04AE050E00E9427
:102B90004C2D81E59AE06EE042E00E94A42181E59F
:102BA0009AE067E374E00E94AD2D81E59AE06EE063
:102BB00043E00E94A42181E59AE06AE074E00E946B
:102BC000AD2D81E59AE060E042E00E94A42181E51C
:102BD0009AE06CE374E00E94AD2D81E59AE062E03A
:102BE00043E00E94A42181E59AE069E474E00E9438
:102BF000AD2D8091F6059091F70569E070E043E016
:102C000050E00E94900381E59AE060E041E00E947C
:102C1000A42181E59AE060E574E00E94AD2D8091E9
:102C2000F8059091F90566E070E041E050E00E94FF
:102C3000900381E59AE06BE041E00E94A42181E5E8
:102C40009AE067E574E00E94AD2D8091FA059091BD
:102C5000FB0561E170E041E050E00E949003B0921A
:102C6000FB0982E08093FC09EDEFF9E0DF01989623
:102C70001082148A1C9254961C9254973196119685
:102C80002AE0E131F207A1F781E0848F80AB81A3D4
:102C900085AB80E060E070E00E9414098091FB0940
:102CA000883009F0E9C01091FC09123009F0E4C045
:102CB00080917B0590917C0569E070E042E050E0F6
:102CC0000E94900310934E0A00934D0A80917B0559
:102CD00090917C059093500A80934F0A80E00E9467
:102CE000920580914F0A9091500A8150924064F071
:102CF000F092500AE0924F0A80E092E069E070E0C2
:102D000042E050E00E94900380914F0A9091500A57
:102D10001816190664F0D093500AC0934F0A81E048
:102D200090E069E070E042E050E00E949003E091A2
:102D30004F0AF091500AF0937C05E0937B05EE0F6B
:102D4000FF1FEC50FA4F8081918169E070E043E011
:102D500050E00E94900380917B0590917C05019743
:102D600021F582E090E061E070E041E050E00E94F7
:102D700090038091F8059091F90566E070E041E0DC
:102D800050E00E94900383E090E06CE070E041E04E
:102D900050E00E9490038091FA059091FB0561E15B
:102DA00070E041E050E00E94900380917B0590919B
:102DB0007C058050924021F58EEF91E061E070E05B
:102DC00041E050E00E9490038091F0099091F10958
:102DD00066E070E041E050E00E9490038FEF91E0E8
:102DE0006CE070E041E050E00E9490038091F209B5
:102DF0009091F30961E170E041E050E00E9490039E
:102E000020917B0530917C05C90102978E5F91402E
:102E100098F5C901019761E070E041E050E00E943F
:102E20009003E0917B05F0917C05EE0FFF1FEE50C3
:102E3000FA4F8081918166E070E041E050E00E94AD
:102E4000900380917B0590917C0501966CE070E089
:102E500041E050E00E949003E0917B05F0917C05F9
:102E6000EE0FFF1FEA50FA4F8081918161E170E01F
:102E700041E050E00E9490038091FB09883009F006
:102E80005DC08091FC09833009F003CF80934E0A26
:102E900000934D0AE0917B05F0917C05EE0FFF1F3A
:102EA000EC50FA4F808191819093500A80934F0AA1
:102EB00081E00E94920580914F0A9091500A8456B9
:102EC000924011F40E94440480914F0A9091500A5C
:102ED00042E0883C940729F489E063E00E94CC0337
:102EE000D8CE8F3F910569F064F0D092500AC0921D
:102EF0004F0A8FEF90E069E070E043E050E00E94FD
:102F0000900380917B0590917C050197E0912B0BBC
:102F1000F0912C0BE80FF91F80914F0A8083E0910C
:102F20007B05F0917C05EE0FFF1FEC50FA4F80916E
:102F30004F0A9091500A91838083ABCE8D3009F077
:102F4000A8CE8091FC09833019F40E94470FFCCD74
:102F5000823009F09ECEB3DA9CCE2F923F924F92F0
:102F60005F926F927F928F929F92AF92BF92CF9219
:102F7000DF92EF92FF920F931F93DF93CF9300D0D6
:102F800000D0CDB7DEB781E59AE00E94CC2181E583
:102F90009AE060E040E00E94A42181E59AE06EE5BD
:102FA00074E00E94AD2D81E59AE063E041E00E946B
:102FB000A42181E59AE06BE674E00E94AD2D81E5E5
:102FC0009AE060E042E00E94A42181E59AE06BE78C
:102FD00074E00E94AD2D81E59AE060E043E00E943C
:102FE000A42181E59AE06FE874E00E94AD2D81E0B4
:102FF00090E069E070E041E050E00E94900381E0E1
:1030000090E069E070E042E050E00E94900380E0D0
:1030100090E069E070E043E050E00E94900388E0B7
:103020008093FB0981E08093FC0921E030E040E0DF
:1030300050E029833A834B835C83F1E08F2E912CFF
:10304000A12CB12C442455243201EDEFF9E0DF012D
:1030500098961082148A1C9254961C92549731961A
:1030600011963AE0E131F307A1F741E04087448F40
:1030700040AB42A346AB80E060E070E00E941409E0
:103080008091FB098E30C1F48091FC098230A1F45B
:10309000A6EFB5E020E030E0E0912B0BF0912C0B97
:1030A000E20FF31F8C9180832F5F3F4F129652E007
:1030B0002030350789F703DA8091FB098E3009F05B
:1030C0009DC08091FC09833009F0B9C0140181E5ED
:1030D0009AE06FE043E00E94A42181E59AE064EA6F
:1030E00074E00E94AD2D81E59AE00E948E2180E07F
:1030F00090E0E0912B0BF0912C0BE80FF91F108260
:103100000196A2E081309A07A1F7610154C0ED81D8
:10311000FE813196FE83ED83E451F54009F050C005
:103120000894E11CF11C011D111D89819A81AB815C
:10313000BC81E816F9060A071B0709F03FC0C60163
:10314000AA2797FDA095BA2F481659066A067B064E
:103150000CF46101C60169E070E040E050E00E94BB
:10316000900381E59AE063E143E00E94A421A50178
:1031700094010DC0C9010197E0912B0BF0912C0B2C
:10318000E80FF91F10822F5F3F4F4F4F5F4F4216DE
:1031900053066406750674F70894C108D108E091D7
:1031A0002B0BF0912C0BEC0DFD1D9FEF9083A2E0FB
:1031B000B0E0CA0EDB1EEE24FF2487011E821D82B2
:1031C000809185050E94582C019709F4A0CF81E5D4
:1031D0009AE00E94962181E59AE06FE043E00E9428
:1031E000A42181E59AE06AEA74E00E94AD2D6CE2C8
:1031F00071E080E090E00E949C2927CF8830F9F4AC
:103200008091FC098130D9F480934E0AB9E0B093E3
:103210004D0AE981FA81F093500AE0934F0A80E069
:103220000E94920580914F0A9091500A9C01442778
:1032300037FD4095542F29833A834B835C838091DB
:10324000FB09883009F042C08091FC098230F1F519
:1032500080934E0A39E030934D0A9092500A809242
:103260004F0A80E00E94920580914F0A9091500A87
:103270004C01AA2497FCA094BA2C81149104A104B7
:10328000B10471F481E090E069E070E042E050E068
:103290000E949003E1E08E2E912CA12CB12C16C03F
:1032A00041E0841642E0940640E0A40640E0B40603
:1032B0006CF080E092E069E070E042E050E00E9453
:1032C0009003812C72E0972EA12CB12C8091FB09E8
:1032D000883009F0BACE8091FC09833009F0B5CE70
:1032E00080934E0A59E050934D0A5092500A4092F2
:1032F0004F0A80E00E94920580914F0A9091500AF7
:103300002C01662457FC6094762C4114510461040E
:10331000710471F481E090E069E070E043E050E016
:103320000E94900361E0462E512C612C712C8DCEB1
:1033300081E0481682E0580680E0680680E0780662
:103340000CF483CE80E092E069E070E043E050E06E
:103350000E949003412C52E0552E612C712C75CEA9
:103360002F923F924F925F926F927F928F929F9295
:10337000AF92BF92CF92DF92EF92FF920F931F9383
:10338000DF93CF93CDB7DEB728970FB6F894DEBFA3
:103390000FBECDBF81E090E098878F8366247724AD
:1033A0004301AA24BB246501AFEFB0E0BA83A9832F
:1033B00081E59AE0F1D781E59AE060E040E0C4D78A
:1033C00081E59AE060EB74E00E94AD2D81E59AE022
:1033D00061E040E0B9D76091FA09662339F481E5EC
:1033E0009AE06EE572E00E94AD2D06C081E59AE09C
:1033F0004AE050E00E944C2D81E59AE060E041E017
:10340000A3D781E59AE069EB74E00E94AD2D81E5D8
:103410009AE060E042E098D781E59AE06CEC74E0D5
:103420000E94AD2D81E59AE060E043E08DD781E513
:103430009AE061EE74E00E94AD2D89819A8169E085
:1034400070E040E050E00E9490038F81988569E031
:1034500070E041E050E00E949003C30169E070E039
:1034600042E050E00E949003C50169E070E043E053
:1034700050E00E949003B8E0B093FB091092FC0961
:10348000EDEFF9E0DF0198961082148A1C925496B1
:103490001C925497319611962AE0E131F207A1F778
:1034A00081E0808780AB848F858781A385AB809303
:1034B000050A80E060E070E00E9414098091FB0939
:1034C0008D3031F48091FC09813011F40E945F123B
:1034D0008091FB098D3009F0A8C08091FC098230F1
:1034E00019F40E94470F64CF833009F0D8C0C60199
:1034F000B501A40193010E94AF2D6150724080403C
:10350000904054F081E59AE06DE040E01DD781E500
:103510009AE065EF74E086C081E59AE06DE040E0F6
:1035200013D781E59AE06DEF74E00E94AD2D81E53F
:103530009AE06EE043E008D781E59AE065E075E047
:103540000E94AD2D91E0E92EF12C012D112D8F81DE
:103550009885AA2797FDA095BA2F8B839C83AD836E
:10356000BE8346C091E0E916F1040105110509F09A
:1035700054C12B803C804D805E80A1E02A16A2E0E1
:103580003A06A0E04A06A0E05A0634F026183708AA
:10359000480859088601750181E59AE061E140E03B
:1035A000D3D681E59AE0B201A1012AE030E00E9481
:1035B0005D2D65E070E080E090E00E949C29C101F3
:1035C000019720912B0B30912C0B280F391F8981EB
:1035D000F9018083F101EE0FFF1FEC50FA4FA98132
:1035E000BA81B183A0830894E11CF11C011D111D57
:1035F000AE14BF04C006D1060CF0B4CF81E59AE04A
:103600006DE040E0A1D681E59AE06CE075E00E94B3
:10361000AD2D81E59AE06EE043E096D681E59AE033
:1036200060E175E00E94AD2D2BCF8830C1F580910F
:10363000FC098130A1F580934E0AB9E0B0934D0AA0
:10364000EF81F885F093500AE0934F0A80E00E94E2
:10365000920580914F0A9091500A98878F83892B09
:1036600069F481E090E069E070E041E050E00E94A0
:103670009003A1E0B0E0B887AF8311C0EF81F88577
:10368000E150F24064F080E092E069E070E041E0F7
:1036900050E00E94900380E092E098878F838091B1
:1036A000FB09883009F042C08091FC098230F1F5B5
:1036B00080934E0A99E090934D0A7092500A60925E
:1036C0004F0A80E00E94920580914F0A9091500A23
:1036D0003C01882477FC8094982C61147104810447
:1036E000910471F481E090E069E070E042E050E024
:1036F0000E94900301E0602E712C812C912C16C049
:10370000A1E06A16A2E07A06A0E08A06A0E09A0686
:103710006CF080E092E069E070E042E050E00E94EE
:103720009003612C12E0712E812C912C8091FB0969
:10373000883009F042C08091FC098330F1F5809314
:103740004E0AB9E0B0934D0AB092500AA0924F0AC7
:1037500080E00E94920580914F0A9091500A5C018E
:10376000CC24B7FCC094DC2CA114B104C104D10456
:1037700071F481E090E069E070E043E050E00E9485
:103780009003B1E0AB2EB12CC12CD12C16C0E1E0DE
:10379000AE16E2E0BE06E0E0CE06E0E0DE066CF04B
:1037A00080E092E069E070E043E050E00E94900326
:1037B000A12CA2E0BA2EC12CD12C8091FB0988301B
:1037C00009F05ECE8091FC09882309F059CE109251
:1037D0004E0AF9E0F0934D0A89819A819093500A3C
:1037E00080934F0A81E00E949205A0914F0AB09108
:1037F000500ABA83A983AF3FB10509F00CF440CE5B
:103800008FEF90E069E070E040E050E00E949003AC
:10381000EFEFF0E0FA83E98333CE260C371C481C27
:10382000591CABCE2F923F924F925F926F927F9234
:103830008F929F92AF92BF92CF92DF92EF92FF92C0
:103840000F931F93DF93CF93CDB7DEB72B970FB6B0
:10385000F894DEBF0FBECDBF81E59AE09DD581E52E
:103860009AE060E040E070D581E59AE067E175E0BC
:103870000E94AD2D6091FA09662339F481E59AE042
:103880006EE572E00E94AD2D06C081E59AE04AE047
:1038900050E00E944C2D81E59AE064E041E054D56F
:1038A00081E59AE06BE275E00E94AD2D81E59AE03A
:1038B00060E042E049D581E59AE06CE375E00E9462
:1038C000AD2D81E59AE060E043E03ED581E59AE0E8
:1038D00060E575E00E94AD2D89E08093FB0981E0F1
:1038E0008093FC09EDEFF9E0DF0198961082148ACD
:1038F0001C9254961C925497319611962AE0E1310D
:10390000F207A1F781E08187858F81AB82A386AB27
:1039100001E0802E912C11E0612E712CB8E0AB2ECD
:10392000B12CAAE0CA2ECE0101969B878A8781E539
:103930009AE06FE043E008D581E59AE06AEA74E036
:103940000E94AD2D81E59AE0F1D480E060E070E066
:103950000E9414098091FB09893009F09FC0809171
:10396000FC098130C9F580934E0AC0924D0A7092CD
:10397000500A60924F0A80E00E94920560904F0AC0
:103980007090500A6114710499F481E090E06AE04B
:1039900070E041E050E00E94900381E090E06AE036
:1039A00070E041E050E00E949003F1E06F2E712C36
:1039B00080914F0A9091500A853691050CF4B7CF4B
:1039C00084E690E06AE070E041E050E00E949003FD
:1039D000E4E66E2E712CABCF823081F580934E0AD7
:1039E000C0924D0A9092500A80924F0A80E00E9445
:1039F000920580904F0A9090500A8114910459F4D6
:103A000081E090E06AE070E042E050E00E949003C4
:103A100071E0872E912C80914F0A9091500A09975E
:103A20000CF485CF88E090E06AE070E042E050E07E
:103A30000E94900368E0862E912C79CF833009F0A4
:103A400048C080934E0AC0924D0AB092500AA0928C
:103A50004F0A80E00E949205A0904F0AB090500A51
:103A6000A114B10459F481E090E06AE070E043E011
:103A700050E00E94900351E0A52EB12C80914F0A96
:103A80009091500A09970CF452CF88E090E06AE0D8
:103A900070E042E050E00E9490033BC08E30C9F4D9
:103AA0008091FC098230A9F4A4EFB5E020E030E079
:103AB000E0912B0BF0912C0BE20FF31F8C91808384
:103AC0002F5F3F4F129692E02130390789F70E940D
:103AD0005F128091FB098E3009F029CF8091FC099B
:103AE000833009F024CF8A149B04B9F481E090E07C
:103AF0006AE070E042E050E00E94900388E090E0CD
:103B00006AE070E042E050E00E94900341E0842EC1
:103B1000912C38E0A32EB12C0ACF81E59AE06EE01B
:103B200043E012D481E59AE060EC72E00E94AD2D92
:103B300081E59AE06FE043E007D481E59AE064EA2A
:103B400074E00E94AD2D10E0A814B9040CF411E04B
:103B5000EA85FB8529E011922A95E9F71123A9F45A
:103B600081E090E0881599055CF0A816B90644F04C
:103B7000E1E0F0E0EC0FFD1FE80FF91F31E03083CA
:103B800001968930910571F713C088E090E088169E
:103B900099065CF08A159B0544F0E1E0F0E0EC0F3B
:103BA000FD1FE80FF91F21E020830197882379F793
:103BB00081E59AE0B3D3112381F084E690E0FC0123
:103BC0006E9EC0016F9E900D7E9E900D11241C0173
:103BD000442437FC4094542C32C184E690E09C018C
:103BE000629EC001639E900D729E900D11241C0177
:103BF000442437FC4094542CDD24D394E1E0F0E0DD
:103C0000EC0FFD1FED0DF11D8081813009F07FC0AB
:103C100081E59AE063E140E097D381E59AE06D2D7C
:103C20004AE050E00E944C2D81E59AE063E143E0D8
:103C30008BD300E010E034E0D31619F13D1548F0C5
:103C400082E0D816B1F08D15C0F091E0D916B1F52B
:103C50000CC0E6E0DE16E9F0DE16B8F0F7E0DF169D
:103C6000E1F028E0D21651F51CC088E29BE0B801D3
:103C70001DC0B80160507E4F17C0B80160507C4F26
:103C800013C0B80160507A4F0FC0B8016050784F30
:103C90000BC0B8016050764F07C0B8016050744F38
:103CA00003C0B8016050724F88E29BE0C0D7E0913A
:103CB0002B0BF0912C0BE00FF11F80830F5F1F4F38
:103CC00032E00030130709F0B6CF809185050E94DD
:103CD000582C019709F0A9C0EE24FF24870112C0D7
:103CE00061E070E080E090E00E949C298091850571
:103CF0000E94582C892B09F498C00894E11CF11CEF
:103D0000011D111D2E143F04400651064CF7D3949B
:103D100088E08D1508F470CF71CFE1E0F0E0EC0F92
:103D2000FD1FED0DF11D8081813009F085C081E519
:103D30009AE063E140E008D381E59AE06D2D4AE026
:103D400050E00E944C2D81E59AE063E143E0FCD213
:103D500000E010E094E0D91619F19D1548F0E2E07A
:103D6000DE16B1F0ED15C0F0F1E0DF16B1F50CC0D4
:103D700026E0D216E9F0D216B8F037E0D316E1F01B
:103D800088E0D81651F51CC088E29BE0B8011DC040
:103D9000B80160507E4F17C0B80160507C4F13C00F
:103DA000B80160507A4F0FC0B8016050784F0BC017
:103DB000B8016050764F07C0B8016050744F03C01F
:103DC000B8016050724F88E29BE031D7E0912B0B35
:103DD000F0912C0BE00FF11F80830F5F1F4F92E0DB
:103DE0000030190709F0B6CF809185050E94582C44
:103DF0000197D9F4EE24FF24870111C061E070E03F
:103E000080E090E00E949C29809185050E94582CBA
:103E1000892B59F00894E11CF11C011D111D2E1471
:103E20003F044006510654F707C064EF71E080E09C
:103E300090E00E949C297BCDDA9409F06ECF28E0B7
:103E4000D22E6BCF1F9311E081E59AE0A5D281E5D8
:103E50009AE060E040E078D281E59AE065E675E0BE
:103E60000E94AD2D81E59AE062E042E06DD281E5ED
:103E70009AE065E775E00E94AD2D81E59AE069E082
:103E800042E062D281E59AE065E173E00E94AD2DE7
:103E900081E59AE06FE042E057D281E59AE06AE17D
:103EA00073E00E94AD2D81E59AE062E140E04CD2E2
:103EB00081E59AE06CE572E00E94AD2D6091FA090F
:103EC000662339F481E59AE06EE572E00E94AD2D3B
:103ED00006C081E59AE04AE050E00E944C2D109324
:103EE000FB0982E08093FC09EDEFF9E0DF01989691
:103EF0001082148A1C9254961C92549731961196F3
:103F00008AE0E131F807A1F7158B148F12A380E046
:103F100060E070E00E9414098091FB09883059F438
:103F20008091FC09823039F40E944D0C019709F40C
:103F30008BCF0E945F128091FB098E3059F48091E3
:103F4000FC09823039F40E949B0D019709F47CCF63
:103F50000E945F128091FB09813031F48091FC094D
:103F6000823011F40E945F121F91089582E061E097
:103F70000E94262C0E940B0D0E94FA0C0E943D0804
:103F80000E942A075FCF80917D0562E00E94732B1B
:103F900080917F0562E00E94732B8091810562E031
:103FA0000E94732B8091830562E00E94732B8BE04B
:103FB00062E00E94732B8091870561E00E94732B61
:103FC0008091890561E00E94732B80918B0561E0EF
:103FD0000E94732B80918D0561E00E94732B80916C
:103FE0008F0562E00E94732B8091910562E00E9430
:103FF000732B8091930562E00E94732B809195054D
:1040000062E00E94732B8091870561E00E94262C5C
:104010008091890561E00E94262C80918B0561E0EA
:104020000E94262C80918D0561E00E94262C8091B3
:104030009E0561E00E94732B8091A00561E00E94C3
:10404000732B8091A80561E00E94732B8091A605D7
:1040500061E00E94732B8091A40561E00E94732BA4
:104060008091A20561E00E94732B8091AA0561E016
:104070000E94732B81E59AE064E144E020E092D154
:1040800081E090E09093410B8093400B80E092E0C0
:1040900090933D0B80933C0B89E29BE060E02BD733
:1040A00085E061E00E94732B85E060E00E94262C91
:1040B00086E061E00E94732B86E060E00E94262C7F
:1040C00087E061E00E94732B87E060E00E94262C6D
:1040D00086E161E00E94732B86E160E00E94262C5D
:1040E00087E161E00E94732B87E160E00E94262C4B
:1040F00088E161E00E94732B88E160E00E94262C39
:1041000089E161E00E94732B89E160E00E94262C26
:104110008AE161E00E94732B8AE160E00E94262C14
:104120008BE161E00E94732B8BE160E00E94262C02
:104130008CE161E00E94732B8CE160E00E94262CF0
:104140008DE161E00E94732B8DE160E00E94262CDE
:104150008FE161E00E94732B8FE160E00E94262CCA
:1041600081E261E00E94732B81E260E00E94262CD4
:1041700083E261E00E94732B83E260E00E94262CC0
:1041800085E261E00E94732B85E260E00E94262CAC
:1041900087E261E00E94732B87E260E00E94262C98
:1041A00089E261E00E94732B89E260E00E94262C84
:1041B0008EE261E00E94732B8EE260E00E94262C6A
:1041C00080E361E00E94732B80E360E00E94262C74
:1041D00082E361E00E94732B82E360E00E94262C60
:1041E00084E361E00E94732B84E360E00E94262C4C
:1041F00086E361E00E94732B86E360E00E94262C38
:1042000087E361E00E94732B87E360E00E94262C25
:1042100088E361E00E94732B88E360E00E94262C13
:1042200089E361E00E94732B89E360E00E94262C01
:104230008AE361E00E94732B8AE360E00E94262CEF
:104240008BE361E00E94732B8BE360E00E94262CDD
:104250008CE361E00E94732B8CE360E00E94262CCB
:104260008DE361E00E94732B8DE360E00E94262CB9
:104270008EE361E00E94732B8EE360E00E94262CA7
:104280008FE361E00E94732B8FE360E00E94262C95
:1042900080E461E00E94732B80E460E00E94262CA1
:1042A00081E461E00E94732B81E460E00E94262C8F
:1042B00082E461E00E94732B82E460E00E94262C7D
:1042C00083E461E00E94732B83E460E00E94262C6B
:1042D00084E461E00E94732B84E460E00C94262C5B
:1042E00008950895FC01138212828FEB95E091836B
:1042F00080830895FC01A081B18118962D913C9195
:1043000019976FEFF90119950895DC01ED91FC9172
:104310000284F385E02D40E019950895FC01658144
:10432000862F816085836960CF01EFCFFC016581B5
:104330006E7F65836860E9CFFC016581862F8460AC
:1043400085836C60CF01E1CFDC0117969C911797B4
:10435000491710F0492F415018968C9118978031C9
:1043600039F4943029F4E42FF0E0E553FA4F04C017
:10437000E42FF0E0E153FA4F8081680F6068CD01CF
:10438000C4CFDC01ED91FC910284F385E02D41E086
:10439000199581E090E0089561E0B7DF80ED97E046
:1043A0000C94F529CF93DF93EC01423018F08C8107
:1043B00088608C834F836887222329F0413019F469
:1043C0008C8184608C8364E670E080E090E0B4D7F8
:1043D0006C8164FD2EC0E881F9810284F385E02DB3
:1043E000CE0163E042E0199584E991E1FED7E881CE
:1043F000F9810284F385E02DCE0163E042E0199556
:1044000084E991E1F2D7E881F9810284F385E02D16
:10441000CE0163E042E0199586E990E0E6D7E881B5
:10442000F9810284F385E02DCE0162E042E0199526
:1044300011C06062CE0169DF84E991E1D6D76C8159
:104440006062CE0162DF86E990E0CFD76C81606266
:10445000CE015BDF6C816062CE0157DF84E08D832B
:10446000CE016ADFCE0198DF82E08E83CE0166E066
:104470004CDFCE013FDFDF91CF9108950F931F9363
:104480008C01FC01858561E00E94262CF801858560
:1044900060E00E94262C1F910F910895BF92CF9249
:1044A000DF92EF92FF920F931F93CF93DF93D82E5B
:1044B000C92EB42E282F392FC9018C01C0E0D0E0BD
:1044C000E62EFF240DC0B7010C2E02C0759567952E
:1044D0000A94E2F76170F80185850E94262C2196E6
:1044E0000F5F1F4FCB1578F38D2D9C2DC7DFDF910C
:1044F000CF911F910F91FF90EF90DF90CF90BF90E1
:1045000008950F931F93CF93DF93EC01162F042F81
:1045100060E0413009F461E08B850E94262C8C8597
:104520008F3F19F060E00E94262C023089F08C81C8
:1045300084FF04C0CE01612F48E00DC0612F70E000
:1045400084E0759567958A95E1F7CE0144E0A6DF92
:10455000CE01612F44E0A2DFDF91CF911F910F9137
:1045600008956F927F928F92AF92CF92EF920F93B6
:104570001F93DF93CF93CDB7DEB73C01162F8E2D5F
:10458000F301438724870587E686C786A08A818A48
:104590009E85928B9F85938B9889948B9989958B17
:1045A00061E00E94732BF301878561E00E94732B09
:1045B000F301808961E00E94732BF301818961E03E
:1045C0000E94732B1123A1F4F301828961E00E9400
:1045D000732BF301838961E00E94732BF3018489BB
:1045E00061E00E94732BF301858961E00E94732BC7
:1045F000F301838561E00E94732BF30184858F3F73
:1046000019F061E00E94732BF301858561E00E943F
:10461000732B112319F0F301148203C080E1F3011D
:104620008483F301838560E00E94262CF301858555
:1046300060E00E94262CF30184858F3F19F060E032
:104640000E94262C8FEFF301868B12861186CF9164
:10465000DF911F910F91EF90CF90AF908F907F904F
:104660006F900895DF92EF92FF920F931F938C014A
:10467000D62E7A01862F61E00E94732BD8015696C0
:10468000DC9256971A96FC92EE921997ED91FC9156
:104690000084F185E02DC80160E019951F910F910C
:1046A000FF90EF90DF900895DC01362F56962C9105
:1046B00056972F3F49F1E22FF0E0E254FE4FE4918C
:1046C000EE2379F019968D919C911A97892B19F404
:1046D000822F70E005C06FEF70E0631B7109822FBD
:1046E00024C719968D919C911A97662319F0892BEE
:1046F00039F402C0019721F4822F61E00C94262C3A
:10470000822F60E00C94262C08956F927F928F92F6
:10471000AF92BF92CF92DF92EF92FF920F931F93CF
:104720003C01162FF42ED22EB02EAE2C8C2CDADDBE
:1047300087ED95E0D3018D939C9300D00F92EDB758
:10474000FEB73196ADB7BEB711961C921182128298
:104750001382C30161E0412F2FEF0F2DED2CCB2CE5
:1047600000DF0F900F900F900F901F910F91FF900F
:10477000EF90DF90CF90BF90AF908F907F906F9031
:10478000089520918A0A30E08091890A281B310916
:10479000C90108954091890A80918A0A481718F042
:1047A0002FEF3FEF0AC0E42FF0E0E759F54F80818B
:1047B000282F30E04F5F4093890AC9010895E091A6
:1047C000890A80918A0AE81718F0EFEFFFEF06C018
:1047D000F0E0E759F54F8081E82FF0E0CF01089530
:1047E00008951092B10A1092B00A88EE93E0A0E00A
:1047F000B0E08093B20A9093B30AA093B40AB09346
:10480000B50A87EE95E09093AF0A8093AE0A0895BB
:10481000CF92DF92EF92FF920F931F93CF93DF938C
:104820007C016B018A018091AD0A8823A1F0C0E070
:10483000D0E00DC0D701ED91FC91D601AC0FBD1FAA
:104840000190F081E02DC7016C9119952196C01758
:10485000D10780F303C0CB01642F39D0C801DF91A9
:10486000CF911F910F91FF90EF90DF90CF9008951F
:10487000DF93CF930F92CDB7DEB7FC0169838091B0
:10488000AD0A8823C9F08091AC0A803238F081E00B
:1048900090E09383828320E030E014C08091AB0AE3
:1048A000E82FF0E0E557F54F998190838F5F809373
:1048B000AB0A8093AC0A04C0CE01019661E007D038
:1048C00021E030E0C9010F90CF91DF910895482F8A
:1048D000613210F081E008958091BA0A843011F0BD
:1048E00082E008956093050BA4EEBAE0842F9C014A
:1048F000F90102C081918D938E2F841B8617D0F30E
:1049000080E008951F920F920FB60F920BB60F9290
:1049100011242F933F934F935F936F937F938F93C4
:104920009F93AF93BF93EF93FF938091B90090E073
:10493000887F90708036910509F4F2C08136910528
:10494000CCF58832910509F47BC089329105B4F425
:104950008031910509F46FC0813191053CF40097D5
:1049600009F447C1089709F04FC165C08831910526
:1049700009F466C0809709F047C182C08034910570
:1049800009F4A4C08134910544F48033910509F4FD
:1049900082C0C89709F038C189C08035910509F4F3
:1049A00089C08835910509F496C08834910509F0CD
:1049B0002BC1AEC08839910509F413C1893991051D
:1049C000ECF48837910509F4ABC0893791054CF4B4
:1049D0008836910509F4A4C08037910509F014C107
:1049E0009FC08838910509F4FCC08039910509F40D
:1049F0009DC08038910509F007C198C0803B9105A2
:104A000009F4C6C0813B91054CF4803A910509F444
:104A10009FC0883A910509F0F7C0BAC0803C910563
:104A200009F4E3C0883C910509F4DFC0883B910597
:104A300009F0EAC0C2C08091BB0A8093BB00CFC01E
:104A40009091E20A8091E30A981768F49091E20A43
:104A5000E92FF0E0EE53F54F80818093BB009F5F1C
:104A60009093E20ABCC08091BC0A882309F44BC031
:104A700085ED8093BC008091BC0084FDFCCFC2C05A
:104A800080E28093270B85ED8093BC008091BC0071
:104A900084FDFCCFB7C080E38093270B85ED809326
:104AA000BC008091BC0084FDFCCFACC088E3809347
:104AB000270B9BC08091E20A9091BB00E82FF0E0A9
:104AC000EE53F54F90838F5F8093E20A9091E20A54
:104AD0008091E30A82C08091E20A9091BB00E82FA6
:104AE000F0E0EE53F54F90838F5F8093E20A809160
:104AF000BC0A882341F085ED8093BC008091BC0006
:104B000084FDFCCF7FC081E08093BD0A84EA6EC043
:104B100085ED8093BC008091BC0084FDFCCF72C009
:104B200083E08093BA0A1092260B59C08091260B1D
:104B3000803208F056C08091260B9091BB00E82F80
:104B4000F0E0EA5FF44F90838F5F8093260B47C0BD
:104B50008091260B803230F4E091260BF0E0EA5F82
:104B6000F44F108285ED8093BC008091BC0084FDE1
:104B7000FCCF1092BA0A6091260BE091C00AF09126
:104B8000C10A86E09BE070E019951092260B2DC0BB
:104B900084E08093BA0A1092040B1092050BE09106
:104BA000BE0AF091BF0A19958091050B882329F45C
:104BB00081E08093050B1092E40A9091040BE92F99
:104BC000F0E0EC51F54F80818093BB009F5F9093A4
:104BD000040B9091040B8091050B981710F485EC51
:104BE00001C085E88093BC000FC085EC8093BC00B9
:104BF00009C01092270B85ED8093BC008091BC000A
:104C000084FDFCCF1092BA0AFF91EF91BF91AF9152
:104C10009F918F917F916F915F914F913F912F91D4
:104C20000F900BBE0F900FBE0F901F901895F99923
:104C3000FECF72BD61BDF89A80B50895F999FECF97
:104C40001FBA72BD61BD40BD0FB6F894FA9AF99AC9
:104C50000FBE0895FC018385882331F48091C10043
:104C600087728093C1000895813031F48091C9002A
:104C700087728093C9000895823031F48091D10009
:104C800087728093D1000895833029F48091310197
:104C900087728093310108951F920F920FB60F9281
:104CA0000BB60F9211242F933F934F935F936F9303
:104CB0007F938F939F93AF93BF93EF93FF938091D5
:104CC000C0008093310B3091C6003093320B20919D
:104CD0002D0B2093330B84FF10C08091C0008F7E7A
:104CE0008093C00080913E0B90913F0B9093370BC7
:104CF0008093360B81E080932D0B213091F4332388
:104D000069F482E080932D0B8091290B90912A0BFE
:104D1000019690932F0B80932E0B4BC010922D0B6E
:104D200048C02230A1F48091360B9091370B019747
:104D30009093370B8093360B892BD9F583E08093C2
:104D40002D0BE091290BF0912A0B308332C02330D8
:104D500081F5E0912E0BF0912F0BF0934C0BE0932B
:104D60004B0B308340914B0B50914C0B4F5F5F4F7F
:104D700050934C0B40934B0B8091290B90912A0B35
:104D800020913A0B30913B0B820F931F4817590724
:104D900060F010922D0BE0914F0BF091500B30977B
:104DA00041F08091340B199504C050932F0B409320
:104DB0002E0BFF91EF91BF91AF919F918F917F91BA
:104DC0006F915F914F913F912F910F900BBE0F907C
:104DD0000FBE0F901F9018951F920F920FB60F9253
:104DE0000BB60F9211242F933F934F935F936F93C2
:104DF0007F938F939F93AF93BF93EF93FF93809194
:104E0000350B80934A0B882361F41092C500809182
:104E1000470B8093C4001092C60081E08093350B4D
:104E200040C0813081F41092C5008091460B809380
:104E3000C4001092C60082E08093350B1092390BAB
:104E40001092380B2EC08091380B9091390B9093B3
:104E5000490B8093480BE0912B0BF0912C0BE80F42
:104E6000F91F20812093C6009C012F5F3F4F309394
:104E7000490B2093480B80913C0B90913D0B2817D8
:104E8000390759F4E0914D0BF0914E0B309711F02A
:104E900080E019951092350B04C03093390B2093A4
:104EA000380BFF91EF91BF91AF919F918F917F91BF
:104EB0006F915F914F913F912F910F900BBE0F908B
:104EC0000FBE0F901F90189521E030E030933F0BFC
:104ED00020933E0B88E090E090933B0B80933A0B3D
:104EE0003093410B2093400B90933D0B80933C0BF0
:104EF0001092340B08951F93CF93DF93EC01162F7C
:104F0000F894A8DE1C8F112321F487E08D8F84E1B3
:104F10000BC0113021F483E08D8F8AE005C0123080
:104F200021F481E08D8F85E08E8F8B8D8F3F29F06E
:104F300061E0D9D38B8D61E089D48B858823D1F44E
:104F400081E061E0D0D31092C5008D8D8093C400C4
:104F50008091C00082608093C0008091C2008E600A
:104F60008093C2008091C10088648093C100109238
:104F7000C60053C08130D1F482E161E0B4D3109215
:104F8000CD008D8D8093CC008091C800826080938D
:104F9000C8008091CA008E608093CA008091C900C9
:104FA00088648093C9001092CE0037C08230D1F45B
:104FB00080E161E098D31092D5008D8D8093D4006C
:104FC0008091D00082608093D0008091D2008E606A
:104FD0008093D2008091D10088648093D100109298
:104FE000D6001BC08330C9F48EE061E07CD3109200
:104FF00035018D8D809334018091300182608093E2
:105000003001809132018E608093320180913101B4
:105010008864809331011092360181E08C878B89FE
:105020009C890DD08A839B834B895C8960E070E00A
:105030000E9433017894DF91CF911F9108950F93CF
:105040001F93CF93DF93BC018230910510F462E08F
:1050500070E0E0915C0BF0915D0B40E050E0A0E06F
:10506000B0E024C08081918186179707D0F0861721
:10507000970771F482819381109729F013969C937E
:105080008E9312972CC090935D0B80935C0B27C07E
:105090004115510519F08417950718F48D01AC01DD
:1050A000EF01DF01828193819C01F9013097D1F6F4
:1050B00041155105F9F0CA01861B970B8430910503
:1050C00080F48A819B810115110521F0F8019383F9
:1050D000828304C090935D0B80935C0BFE0132963B
:1050E00045C0FE01E80FF91F619371930297998300
:1050F00088833CC080915A0B90915B0B892B41F4C3
:105100008091B6059091B70590935B0B80935A0BF5
:105110004091B8055091B9054115510541F44DB77D
:105120005EB78091B4059091B505481B590B20914D
:105130005A0B30915B0B24173507B0F4CA01821B60
:10514000930B8617970780F0AB014E5F5F4F841774
:10515000950750F0420F531F50935B0B40935A0B2F
:10516000F9016193719302C0E0E0F0E0CF01DF91BB
:10517000CF911F910F910895CF93DF939C010097DA
:1051800009F48FC0EC0122971B821A8260915C0B9C
:1051900070915D0B6115710581F488819981820F91
:1051A000931F20915A0B30915B0B2817390739F563
:1051B000D0935B0BC0935A0B74C0DB0140E050E00E
:1051C000AC17BD0708F1BB83AA83FE012191319181
:1051D000E20FF31FAE17BF0779F48D919C911197E1
:1051E000280F391F2E5F3F4F3983288312968D91E8
:1051F0009C9113979B838A834115510571F4D09339
:105200005D0BC0935C0B4DC012968D919C911397D2
:10521000AD01009711F0DC01D3CFDA011396DC93D6
:10522000CE931297FA0121913191E20FF31FCE171D
:10523000DF0769F488819981280F391F2E5F3F4F5E
:10524000FA01318320838A819B8193838283E0E00A
:10525000F0E0DB0112968D919C911397009719F065
:10526000BC01FD01F6CFAB014E5F5F4FDB018D91BD
:105270009C91840F951F20915A0B30915B0B28173E
:10528000390779F4309729F410925D0B10925C0B7A
:1052900002C0138212824250504050935B0B4093E5
:1052A0005A0BDF91CF9108951F920F920FB60F9274
:1052B00011242F933F938F939F93AF93BF9380912C
:1052C000550B9091560BA091570BB091580B309104
:1052D000590B0196A11DB11D232F2D5F2D3720F0F5
:1052E0002D570196A11DB11D2093590B8093550B8D
:1052F0009093560BA093570BB093580B8091510B82
:105300009091520BA091530BB091540B0196A11D9B
:10531000B11D8093510B9093520BA093530BB093FC
:10532000540BBF91AF919F918F913F912F910F900F
:105330000FBE0F901F9018959B01AC017FB7F8949A
:105340008091510B9091520BA091530BB091540B43
:1053500066B5A89B05C06F3F19F00196A11DB11D50
:105360007FBFBA2FA92F982F8827860F911DA11DC7
:10537000B11D62E0880F991FAA1FBB1F6A95D1F764
:10538000BC012DC0FFB7F8948091510B9091520B46
:10539000A091530BB091540BE6B5A89B05C0EF3F0D
:1053A00019F00196A11DB11DFFBFBA2FA92F982F8B
:1053B00088278E0F911DA11DB11DE2E0880F991F56
:1053C000AA1FBB1FEA95D1F7861B970B885E9340F7
:1053D000C8F2215030404040504068517C4F211568
:1053E00031054105510571F60895019739F0880F8F
:1053F000991F880F991F02970197F1F708957894E4
:1054000084B5826084BD84B5816084BD85B58260C9
:1054100085BD85B5816085BDEEE6F0E08081816067
:105420008083E1E8F0E01082808182608083808167
:1054300081608083E0E8F0E0808181608083E1EB3F
:10544000F0E0808184608083E0EBF0E08081816027
:105450008083E1E9F0E080818260808380818160E7
:105460008083E0E9F0E0808181608083E1EAF0E020
:10547000808182608083808181608083E0EAF0E0C7
:10548000808181608083E1E2F1E0808182608083BD
:10549000808181608083E0E2F1E0808181608083AF
:1054A000EAE7F0E08081846080838081826080838D
:1054B0008081816080838081806880831092C100B8
:1054C0000895382F863308F0365320917B00832FC0
:1054D00086958695869590E08170907043E0880F60
:1054E000991F4A95E1F7277F282B20937B0037707F
:1054F0008091BA058295880F880F807C832B8093DA
:105500007C0080917A00806480937A0080917A0098
:1055100086FDFCCF2091780040917900942F80E0A7
:1055200030E0282B392BC90108951F93CF93DF93C7
:10553000182FEB0161E0D7D0209709F4CAC0CF3F04
:10554000D10509F4C9C0E12FF0E0E254FE4F849187
:10555000893009F466C08A30B0F48430F1F18530C6
:1055600040F4823059F1833070F5813009F0AEC0DB
:1055700020C0873009F443C0883008F048C0863026
:1055800009F0A4C034C08D3009F478C08E3038F4EE
:105590008B3009F45AC08C3008F066C04CC08031A2
:1055A00009F480C0813109F487C08F3009F08EC0C2
:1055B0006FC084B5806884BDC7BD91C084B580626A
:1055C00084BDC8BD8CC080918000806880938000BD
:1055D000D0938900C093880082C08091800080624F
:1055E00080938000D0938B00C0938A0078C0809114
:1055F000B00080688093B000C093B30070C0809109
:10560000B00080628093B000C093B40068C0809105
:105610009000806880939000D0939900C093980088
:105620005EC080919000806280939000D0939B0038
:10563000C0939A0054C0809190008860809390003D
:10564000D0939D00C0939C004AC08091A0008068C8
:105650008093A0008091A0008F7B8093A000D093C6
:10566000A900C093A8003BC08091A00080628093F5
:10567000A000D093AB00C093AA0031C08091A000DD
:1056800088608093A000D093AD00C093AC0027C089
:1056900080912001806880932001D0932901C093DC
:1056A00028011DC080912001806280932001D09349
:1056B0002B01C0932A0113C0809120018860809340
:1056C0002001D0932D01C0932C0109C0C038D10511
:1056D0001CF4812F60E002C0812F61E0B7D0DF9120
:1056E000CF911F910895CF93DF93482F50E0CA01C7
:1056F00088589E4FFC0134914E5C5E4FFA018491B4
:10570000882369F190E0880F991FFC01EC51FF4F4D
:10571000A591B491FC01E250FF4FC591D49166234D
:1057200051F42FB7F8948C91932F909589238C93F3
:10573000888189230BC0623061F42FB7F8948C9173
:10574000932F909589238C938881832B88832FBFF7
:1057500006C09FB7F8948C91832B8C939FBFDF91E9
:10576000CF910895893009F449C08A30A0F484307B
:1057700051F1853040F4823079F1833000F5813089
:1057800009F063C026C0873079F1883098F58630FB
:1057900009F05BC025C08D3009F442C08E3028F47A
:1057A0008B30B1F18C30C0F52DC0803109F442C08E
:1057B000813109F445C08F3009F047C037C080916E
:1057C00080008F7703C0809180008F7D8093800060
:1057D000089584B58F7702C084B58F7D84BD089508
:1057E0008091B0008F7703C08091B0008F7D80934F
:1057F000B0000895809190008F7707C0809190004D
:105800008F7D03C080919000877F809390000895E2
:105810008091A0008F7707C08091A0008F7D03C08A
:105820008091A000877F8093A0000895809120013F
:105830008F7703C0809120018F7D80932001089590
:1058400080912001877F809320010895FF920F931C
:105850001F93F62E482F50E0CA0182549E4FFC0140
:105860002491CA0188589E4FFC0114914E5C5E4FF2
:10587000FA0104910023C1F0222311F0822F72DF7C
:10588000E02FF0E0EE0FFF1FE250FF4FA591B49123
:105890009FB7F894FF2021F48C911095812302C0CA
:1058A0008C91812B8C939FBF1F910F91FF90089536
:1058B0000F931F93482F50E0CA0182549E4FFC0162
:1058C0002491CA0188589E4FFC0104914E5C5E4FA2
:1058D000FA011491112319F420E030E014C02223BE
:1058E00011F0822F3FDF812F90E0880F991F885E93
:1058F0009E4FFC01A591B4918C9120E030E0802373
:1059000011F021E030E0C9011F910F910895089531
:10591000CF93DF9374DDFBDF0E94C31FC0E0D0E0B4
:105920000E94B61F2097E1F30E940000F9CF08956E
:10593000CF92DF92EF92FF920F931F93CF93DF935B
:105940007C016B018A01C0E0D0E00FC0D6016D91EF
:105950006D01D701ED91FC910190F081E02DC7011F
:105960001995C80FD91F015010400115110571F785
:10597000CE01DF91CF911F910F91FF90EF90DF90BB
:10598000CF900895CF93DF93EC016115710519F461
:1059900020E030E00FC0DB010D900020E9F7119707
:1059A000A61BB70BE881F9810280F381E02DAD01E0
:1059B00019959C01C901DF91CF9108954F925F9293
:1059C0007F928F929F92AF92BF92CF92DF92EF928F
:1059D000FF920F931F93DF93CF93CDB7DEB7A197BD
:1059E0000FB6F894DEBF0FBECDBF2C01742ECB01D5
:1059F000223008F42AE019A231E2C32ED12CCC0EB9
:105A0000DD1E822E9924AA24BB24672D752FA501A3
:105A10009401D7D079018A01C801B701A501940189
:105A20009ED0472D461B0894C108D1084A3014F473
:105A3000405D01C0495CF6014083E114F1040105B9
:105A4000110521F07E2C5F2DC801DFCFC201B60108
:105A500099DFA1960FB6F894DEBF0FBECDBFCF91F0
:105A6000DF911F910F91FF90EF90DF90CF90BF904B
:105A7000AF909F908F907F905F904F900895DC0142
:105A80002115310541F4ED91FC910190F081E02D5B
:105A9000642F1995089592CFEF92FF920F931F9361
:105AA0009A01E62EFF2400E010E0B801A701E7DF2D
:105AB0001F910F91FF90EF900895CF92DF92EF9298
:105AC000FF920F931F93CF93DF93EC016A017B0149
:105AD0002115310541F4E881F9810190F081E02D33
