:1000000004C100002FC100002DC100002BC1000061
:1000100029C1000027C1000025C1000023C1000044
:1000200021C100001FC100001DC100001BC1000054
:1000300019C1000017C1000015C1000013C1000064
:1000400011C100000FC100000DC100000BC1000074
:1000500009C1000007C1000005C100000C94512037
:1000600001C100000C94491DFDC000000C94E91D65
:10007000F9C00000F7C00000F5C00000F3C00000A8
:10008000F1C00000EFC00000EDC00000EBC00000B8
:10009000E9C00000E7C00000E5C000000C947F1B31
:1000A000E1C00000DFC00000DDC00000DBC00000D8
:1000B000D9C00000D7C00000D5C00000D3C00000E8
:1000C000D1C00000CFC00000CDC00000CBC00000F8
:1000D000C9C00000C7C00000C5C00000C3C0000008
:1000E000C1C0000000002100240027002A002D00CC
:1000F0003000330001010000040107010A01000083
:100100002200250028002B002E00310034000201BF
:100110000000050108010B0100002000230026005B
:1001200029002C002F00320000010000030106010D
:10013000090105050505070508080808020202026D
:100140000A0A080804040404010101010101010173
:100150000303030303030303040707070C0C0C0C3E
:100160000C0C0C0C02020202060606060606060627
:100170000B0B0B0B0B0B0B0B0102102020080810B4
:100180002040102040800201020108040201010207
:1001900004081020408080402010080402018004E0
:1001A000020180402010080402010804020101023B
:1001B0000408102040800102040810204080000044
:1001C000090A02080B0C0D070603040100000000D9
:1001D000000000000000000000000000000000001F
:1001E0000000000000000000000011100F000000DF
:1001F00000000000000000000000000000000000FF
:10020000000000003A01EE1A611E11241FBECFEF5C
:10021000D1E2DEBFCDBF00E00CBF14E0A0E0B2E051
:10022000E8E3FAE400E00BBF02C007900D92AE3A9B
:10023000B107D9F71BBE1AE0AEEAB4E001C01D92C7
:10024000A731B107E1F712E0CAE0D2E004C022977B
:10025000FE010E941625C430D107C9F70E948523EC
:100260000C941A25CDCEDC0101C06D934150504055
:10027000E0F70895CF92EF920F938AE099E06091B2
:100280005E04409160042091620400916404E09057
:100290006604C09068040E94821A0F91EF90CF907C
:1002A00008953F924F925F926F927F928F929F92AA
:1002B000AF92BF92CF92DF92EF92FF920F931F9374
:1002C00081E18093570455245394B4E04B2EA7E06A
:1002D0003A2EFFE09F2EE2E08E2E75E0772E68E04A
:1002E000662E53E0C52E46E0B42E39E0A32E1EE064
:1002F0000AE02BE0F22E9CE0E92E8DE0D82EBAC168
:100300008091470460E00E94232380914F040E9463
:100310005523892B61F450925704609158047091D1
:10032000590480915A0490915B040E94992065E0E1
:1003300070E080E090E00E949920809151040E943A
:100340005523892B61F440925704609158047091B1
:10035000590480915A0490915B040E94992065E0B1
:1003600070E080E090E00E949920809153040E9408
:100370005523892B61F43092570460915804709191
:10038000590480915A0490915B040E94992065E081
:1003900070E080E090E00E949920809155040E94D6
:1003A0005523892B61F49092570460915804709101
:1003B000590480915A0490915B040E94992065E051
:1003C00070E080E090E00E9499208091470461E015
:1003D0000E9423238091490460E00E94232380919E
:1003E0004F040E945523892B61F480925704609139
:1003F00058047091590480915A0490915B040E94B2
:10040000992065E070E080E090E00E949920809162
:1004100051040E945523892B61F470925704609116
:1004200058047091590480915A0490915B040E9481
:10043000992065E070E080E090E00E949920809132
:1004400053040E945523892B61F4609257046091F4
:1004500058047091590480915A0490915B040E9451
:10046000992065E070E080E090E00E949920809102
:1004700055040E945523892B61F410925704609112
:1004800058047091590480915A0490915B040E9421
:10049000992065E070E080E090E00E9499208091D2
:1004A000490461E00E94232380914B0460E00E9494
:1004B000232380914F040E945523892B61F4C0921D
:1004C0005704609158047091590480915A04909196
:1004D0005B040E94992065E070E080E090E00E945B
:1004E0009920809151040E945523892B61F4B09288
:1004F0005704609158047091590480915A04909166
:100500005B040E94992065E070E080E090E00E942A
:100510009920809153040E945523892B61F4A09265
:100520005704609158047091590480915A04909135
:100530005B040E94992065E070E080E090E00E94FA
:100540009920809155040E945523892B61F41093C2
:100550005704609158047091590480915A04909105
:100560005B040E94992065E070E080E090E00E94CA
:10057000992080914B0461E00E94232380914D04D7
:1005800060E00E94232380914F040E945523892B11
:1005900061F400935704609158047091590480915C
:1005A0005A0490915B040E94992065E070E080E01D
:1005B00090E00E949920809151040E945523892B3C
:1005C00061F4F0925704609158047091590480913D
:1005D0005A0490915B040E94992065E070E080E0ED
:1005E00090E00E949920809153040E945523892B0A
:1005F00061F4E0925704609158047091590480911D
:100600005A0490915B040E94992065E070E080E0BC
:1006100090E00E949920809155040E945523892BD7
:1006200061F4D092570460915804709159048091FC
:100630005A0490915B040E94992065E070E080E08C
:1006400090E00E94992080914D0461E00E94232354
:10065000809145040E945523892B61F4109357041F
:10066000609158047091590480915A0490915B04F0
:100670000E94992080915704813109F441CE1F9145
:100680000F91FF90EF90DF90CF90BF90AF909F9031
:100690008F907F906F905F904F903F9008958AE089
:1006A00099E063E142E00E94A1188AE099E00E948B
:1006B0008B1880E090E0E091E409F091E509E80F03
:1006C000F91F1082019622E080309207A1F78091F5
:1006D00045040E9455230197D1F36CE271E080E05C
:1006E00090E00E949920A0EBB4E020E030E0E0919F
:1006F000E409F091E509E20FF31F8C9180832F5FED
:100700003F4F129682E02030380789F78AE099E05F
:100710006DE042E00E94A1188AE099E00C949318E1
:100720000F931F93CF93DF93EC01162F042F8AE0D2
:1007300099E00E94A1188AE099E060E072E00E94CE
:10074000AA24CA30D1053CF4612F6E5F8AE099E09B
:10075000402F0E94A118CE010A978A35910538F4DE
:10076000612F6F5F8AE099E0402F0E94A118C43684
:10077000D10534F08AE099E0612F402F0E94A11842
:100780008AE099E0BE014AE050E00E949824DF919F
:10079000CF911F910F910895DF92EF92FF920F93E7
:1007A0001F93CF93DF93D82E062F682F61508AE0D6
:1007B00099E0402F0E94A1188AE099E064E072E07D
:1007C0000E94AA2480914B0460E00E9423238AE0C7
:1007D00099E00E948B18EE24FF241EC08C2F912FCD
:1007E0006D2D70E0402F50E09BDF80913B04909195
:1007F0003C040197E091E409F091E509E80FF91F45
:10080000C083E0913B04F0913C04EE0FFF1FE255E2
:10081000FB4FC08311837E01809155040E945523B4
:100820000197D9F4809145040E9455230197A9F4BA
:1008300080915C040E945E2164E070E00E94CB2401
:10084000172FC62FD72F62E370E080E090E00E9460
:100850009920EC16FD0601F3C1CF8AE099E00E94D1
:10086000931880914B0461E00E9423236CE271E0B5
:1008700080E090E00E949920DF91CF911F910F912D
:10088000FF90EF90DF9008951F9380914D0460E0FA
:100890000E9423231FEF3EC080913B0490913C04B3
:1008A0000197E091E409F091E509E80FF91F108341
:1008B0006091060970E062507040409107098FEF27
:1008C00090E050E02DDF64E670E080E090E00E9470
:1008D000992080913B0490913C040197E091E409B8
:1008E000F091E509E80FF91F108260910609625046
:1008F0008AE099E0409107090E94A1188AE099E0F6
:1009000066E072E00E94AA2464E670E080E090E075
:100910000E949920809153040E945523019709F465
:10092000BBCF80914D0461E00E9423238AE099E0CF
:1009300060910609409107090E94A1181F9108952E
:10094000CF92DF92EF92FF920F931F938C016DE095
:1009500070E040E050E0E4DE7EE0C72ED12CC00E17
:10096000D11EC60161E170E040E050E0D9DE6EEAE0
:10097000E62E64E0F62EF801EE0FFF1FEE0DFF1DD0
:100980008081918161E070E041E050E0C9DEF801D2
:100990003196EE0FFF1FEE0DFF1D8081918165E006
:1009A00070E041E050E0BCDEF8013296EE0FFF1F30
:1009B000EE0DFF1D8081918169E070E041E050E023
:1009C000AFDEF8013396EE0FFF1FEE0DFF1D8081A5
:1009D00091816DE070E041E050E0A2DEF8013496D4
:1009E000EE0FFF1FEE0DFF1D8081918161E170E030
:1009F00041E050E095DEF8013596EE0FFF1FEE0D59
:100A0000FF1D8081918161E070E042E050E088DE6E
:100A1000F8013696EE0FFF1FEE0DFF1D80819181CC
:100A200065E070E042E050E07BDEF8013796EE0FC3
:100A3000FF1FEE0DFF1D8081918169E070E042E0B3
:100A400050E06EDEF8013896EE0FFF1FEE0DFF1D31
:100A5000808191816DE070E042E050E061DEF8015C
:100A60003996EE0FFF1FEE0DFF1D8081918161E130
:100A700070E042E050E054DEF8013A96EE0FFF1FBE
:100A8000EE0DFF1D8081918161E070E043E050E058
:100A900047DEF8013B96EE0FFF1FEE0DFF1D808134
:100AA000918165E070E043E050E03ADE045F1F4F63
:100AB000F801EE0FFF1FEE0DFF1D8081918169E0AF
:100AC00070E043E050E02CDE0F5F1F4F000F111F5E
:100AD0000E0D1F1DF801808191816DE070E043E0F3
:100AE00050E01EDECC0CDD1CEC0CFD1CF7018081FF
:100AF000918161E170E043E050E012DE1F910F91BF
:100B0000FF90EF90DF90CF900895FF920F931F9387
:100B1000CF93DF93F82E8AE099E060910609409127
:100B200007090E94A1188AE099E06AE072E00E9439
:100B3000AA248AE099E00E948B18609106096E5FF2
:100B4000609306098AE099E0409107090E94A11884
:100B5000A8DB609157046A3018F000E010E016C07E
:100B60008AE099E04AE050E00E9449248AE099E056
:100B700060910609409107090E94A11880915704CD
:100B8000082F10E010930909009308098091570479
:100B90008E3009F4D8C091E0F91691F48A3009F446
:100BA00070C08B3009F476C08C3009F47AC08D3077
:100BB00039F488EC92E09093090980930809DFC02A
:100BC00070DB809157048E3029F41093090900934B
:100BD0000809B9C091E0F91659F48A3009F451C0F6
:100BE0008B3009F457C08C3009F45BC08D3009F3A9
:100BF0008A3018F0C0E0D0E029C060910609615049
:100C0000609306098AE099E0409107090E94A118C3
:100C10008AE099E0B8014AE050E00E9498248AE016
:100C200099E0609157044AE050E00E944924809185
:100C30005704C82FD0E0609106096F5F60930609E2
:100C40008AE099E0409107090E94A1182ADB80916F
:100C500057048E3089F4C801B3E0880F991FBA9504
:100C6000E1F7000F111F800F911FC80FD91FD093FC
:100C70000909C093080967C091E0F916C1F48A30E8
:100C800039F48FEF90E090930909809308095BC0D5
:100C90008B3029F4109209091092080954C08C3045
:100CA00019F484E692E087CF8D3009F482CF8A3040
:100CB00008F049C0609106096250609306098AE015
:100CC00099E0409107090E94A1188AE099E0B801D3
:100CD0004AE050E00E9498248AE099E0BE014AE090
:100CE00050E00E949824609106096E5F60930609A7
:100CF0008AE099E0409107090E94A1188AE099E0F2
:100D0000609157044AE050E00E94492484E690E054
:100D1000089F9001099F300D189F300D112480917C
:100D20005704280F311DCE01F3E0880F991FFA9563
:100D3000E1F7CC0FDD1F8C0F9D1F280F391F30935B
:100D40000909209308098AE099E00E9493186091AC
:100D5000060970E0625070404091070980910809CF
:100D60009091090950E0DCDC6091060964506093C1
:100D700006098AE099E0409107090E94A1188AE0DB
:100D800099E00E9493188AE099E0609106094091E9
:100D900007090E94A1186CE271E080E090E00E94D7
:100DA0009920DF91CF911F910F91FF9008950F939C
:100DB0001F93CF93DF938AE099E00E94C9188AE0DD
:100DC00099E061E141E00E94A1180EEA14E0C0E060
:100DD000D0E0F801119211928F01E091E409F091B5
:100DE000E509EC0FFD1F10828AE099E0BE0142E0A8
:100DF00050E00E9498242196F2E0C130DF0749F7C5
:100E00008AE099E00E94C9188AE099E063E041E035
:100E10000E94A1188AE099E06EE072E00E94AA2484
:100E200068EE73E080E090E00E949920DF91CF911E
:100E30001F910F910895CF93DF938AE099E00E946C
:100E4000C9188AE099E00E9493188AE099E060E06E
:100E500040E00E94A118C0E0D0E08AE099E0BE0125
:100E600042E050E00E949824219682E0C130D807E9
:100E7000A1F78AE099E00E94C9188AE099E060E051
:100E800043E00E94A1188AE099E06EE172E00E94BE
:100E9000AA248AE099E063E040E00E94A1188AE079
:100EA00099E063E372E00E94AA248AE099E061E09D
:100EB00041E00E94A1188AE099E063E472E00E9498
:100EC000AA248AE099E060E042E00E94A1188AE04A
:100ED00099E067E572E00E94AA248AE099E060E068
:100EE0004AE050E00E9449248AE099E06EE572E011
:100EF0000E94AA248AE099E066E04AE050E00E945D
:100F000049248AE099E06BE042E00E94A1188AE05F
:100F100099E060E672E00E94AA248AE099E060E02D
:100F20004AE050E00E9449248AE099E06EE572E0D0
:100F30000E94AA248AE099E060E04AE050E00E9422
:100F4000492460ED77E080E090E00E949920DF91F5
:100F5000CF9108950F931F93CF93DF938AE099E089
:100F60000E94C9188AE099E061E141E00E94A1185D
:100F700000EB14E0C1E0D0E081EE99E0BE010E94F8
:100F8000141DF801808311822197E091E409F0910A
:100F9000E509EC0FFD1F219680838AE099E0BE01F0
:100FA00042E050E00E94982421960E5F1F4FF2E02D
:100FB000C130DF0709F78AE099E00E94C9188AE08A
:100FC00099E063E041E00E94A1188AE099E067E6B9
:100FD00072E00E94AA2468EE73E080E090E00E9434
:100FE0009920DF91CF911F910F91089581EE99E0A3
:100FF00061E072E00E94141D682F8091210988230E
:1010000061F46623D1F480916A046FE770E00E9476
:10101000922181E0809321090AC0813041F48091BE
:101020006A0460E070E00E949221109221096CE253
:1010300071E080E090E00C94992080916A0470E067
:10104000E6CF2F923F924F925F926F927F928F9254
:101050009F92AF92BF92CF92DF92EF92FF920F9347
:101060001F93DF93CF93CDB7DEB763970FB6F89496
:10107000DEBF0FBECDBF89837B8B6A8B0091B40826
:101080001091B5088AE099E0602F412F0E94A118C5
:101090008AE099E066E772E00E94AA248A899B8927
:1010A0000D969B838A83EA89FB893896FD83EC83BE
:1010B0008A899B8903969F838E83EA89FB893E9662
:1010C000F987E8878A899B8909969B878A87EA89B5
:1010D000FB893496FD87EC876AE0262E312C8A89BD
:1010E0009B89280E391E0B969F878E87EA89FB897C
:1010F0003C96F98BE88B57E0852E912C8A899B8949
:10110000880E991E46E0642E712C680E791E35E01B
:10111000432E512C480E591E6C010894C11CD11C41
:1011200022E0A22EB12CA80EB91E84E1E82EF12CEB
:101130008091470460E00E942323809155040E941F
:101140005523892B59F4609158047091590480916A
:101150005A0490915B040E94992048DF80914704D3
:1011600061E00E942323809141040E945523892B32
:10117000F9F46CE271E080E090E00E949920209107
:10118000B4088091B50890E08E9DA0018F9D500D10
:101190009E9D500D1124222309F424E12150FA01CF
:1011A000E20FF11DEA54F74F80818130A1F724C08E
:1011B000809143040E945523892B09F56CE271E06C
:1011C00080E090E00E9499202091B4088091B508B9
:1011D00090E08E9DA0018F9D500D9E9D500D11247D
:1011E0002F5F243108F020E0FA01E20FF11DEA54EC
:1011F000F74F80818130A1F72093B4084EC18091D0
:101200003F040E945523892B09F56CE271E080E0D0
:1012100090E00E9499202091B5088091B408482F51
:1012200050E02F5F243008F020E0822F90E08E9D68
:10123000F0018F9DF00D9E9DF00D1124E40FF51F20
:10124000EA54F74F8081813061F726C080913D04D8
:101250000E945523892B19F56CE271E080E090E043
:101260000E9499202091B5088091B408482F50E041
:10127000222309F424E02150822F90E08E9DF0017A
:101280008F9DF00D9E9DF00D1124E40FF51FEA5483
:10129000F74F8081813061F72093B508FEC08091BF
:1012A00045040E945523892B09F042CF6CE271E07E
:1012B00080E090E00E9499204091B5086091B408C8
:1012C000842F90E08E9DF0018F9DF00D9E9DF00D7E
:1012D0001124E60FF11DEA54F74F8081813009F0A7
:1012E000FAC08AE099E00E94A1188AE099E068E7D4
:1012F00072E00E94AA2482E0C8C09091B4089C3099
:1013000031F48091B508882309F048C01FC090319E
:1013100081F48091B508882309F049C08AE099E0FA
:1013200061E040E00E94A1188AE099E06AE772E07B
:10133000A9C0943029F48091B5088823F9F406C037
:10134000983089F48091B508882301F58AE099E006
:1013500061E040E00E94A1188AE099E06AE772E04B
:101360000E94AA2485C0992339F48091B508813060
:1013700039F58A899B8977C0943031F48091B5081A
:101380008130E1F4C6016FC0983031F48091B50826
:101390008130E1F4C50167C09C3039F48091B50813
:1013A000813031F58E819F815EC0903139F480911A
:1013B000B508813031F58C859D8555C0992331F470
:1013C0008091B508823031F5C2014DC0943031F4BE
:1013D0008091B508823031F5C30145C0983031F4B1
:1013E0008091B508823039F5C4013DC09C3039F494
:1013F0008091B508823041F58C819D8134C0903157
:1014000039F48091B508823041F58A859B852BC0DF
:10141000992331F48091B508833051F5C10123C07F
:10142000943039F48091B508833011F58E859F850D
:101430001AC0983039F48091B5088330C9F488898E
:10144000998911C09C3039F48091B508833081F4BA
:101450008A819B8108C0903159F48091B50883300E
:1014600039F48885998561E070E040E050E058D912
:101470008AE099E060E140E00E94A1188AE099E0EA
:101480006EE772E00E94AA2481E00091B4081091F6
:10149000B508823009F04CCE1FC08AE099E0602F79
:1014A000412F0E94A1188AE099E060E872E00E9452
:1014B000AA248AE099E06091B4084091B5080E949E
:1014C000A1188AE099E066E772E00E94AA24998157
:1014D0009130D1F612CFFFCF63960FB6F894DEBFEE
:1014E0000FBECDBFCF91DF911F910F91FF90EF9075
:1014F000DF90CF90BF90AF909F908F907F906F9034
:101500005F904F903F902F90089581EE99E062E0B8
:1015100072E00E94141D682F80916C0470E00C949E
:1015200092211F9381EE99E061E072E00E94141D08
:10153000182F80916A04612F70E00E94922111237C
:1015400019F41092210903C081E0809321091F91B1
:1015500008950F931F93CF93DF938AE099E00E9441
:10156000C9188AE099E061E141E00E94A1180EEA01
:1015700014E0C0E0D0E0F801119211928F01E091E7
:10158000E409F091E509EC0FFD1F108281EE99E06E
:10159000BE0140E00E941B1D8AE099E0BE0142E0CE
:1015A00050E00E9498242196F2E0C130DF0719F73D
:1015B0008AE099E00E94C9188AE099E063E041E07E
:1015C0000E94A1188AE099E062E872E00E94AA24D1
:1015D00068EE73E080E090E00E949920DF91CF9167
:1015E0001F910F9108950F931F93CF93DF938AE07C
:1015F00099E00E94C9188AE099E061E141E00E9407
:10160000A11800EB14E0C1E0D0E081EE99E0BE014A
:10161000F80140810E941B1D8AE099E0BE0142E072
:1016200050E00E94982421960E5F1F4FF2E0C130D7
:10163000DF0759F78AE099E00E94C9188AE099E02B
:1016400063E041E00E94A1188AE099E062E972E05B
:101650000E94AA2468EE73E080E090E00E94992046
:10166000DF91CF911F910F9108958AE099E00E9438
:10167000C9188AE099E060E040E00E94A1188AE081
:1016800099E060EA72E00E94AA248AE099E061E0B1
:1016900042E00E94A1188AE099E060EB72E00E94AB
:1016A000AA248AE099E061E043E00E94A1188AE060
:1016B00099E065EB72E00E94AA248AE099E067E075
:1016C00042E00E94A1188AE099E06AEB72E00E9471
:1016D000AA248AE099E067E043E00E94A1188AE02A
:1016E00099E060EC72E00E94AA248AE099E06EE042
:1016F00042E00E94A1188AE099E066EC72E00E9444
:10170000AA248AE099E06EE043E00E94A1188AE0F2
:1017100099E06CEC72E00E94AA241092B40882E076
:101720008093B508E6EBF8E0DF0198961082148A02
:101730001C9254961C9254973196119688E0EA3C7C
:10174000F807A1F781E0848B80A786A7828F81A309
:1017500085AB80E060E070E074DC8091B4088823A1
:1017600029F48091B508833009F4F4DB8091B40842
:10177000863029F48091B508833009F4EADE80913F
:10178000B408882329F48091B508823009F42BDF4E
:101790008091B408863029F48091B508823009F42C
:1017A00006DB8091B4088D3039F48091B508823021
:1017B00019F40E944F03CDCF0895CF92DF92EF929C
:1017C000FF920F931F93CF93DF93FEE0CF2EEFE0B6
:1017D000DE2ECFEFD0E076E9E72EF12C81EE99E016
:1017E00061E072E00E94141D182F81EE99E062E022
:1017F00072E00E94141D082F8AE099E00E94C91827
:101800008AE099E060E040E00E94A1188AE099E057
:1018100063ED72E00E94AA248AE099E06FE040E064
:101820000E94A1188AE099E06FED72E00E94AA245C
:101830008AE099E063E041E00E94A1188AE099E023
:1018400065EE72E00E94AA24812F90E06FE070E0C4
:1018500041E050E00E9490038AE099E065E042E0B8
:101860000E94A1188AE099E061EF72E00E94AA2428
:10187000802F90E06FE070E042E050E00E94900323
:101880008AE099E06FE043E00E94A1188AE099E0C5
:101890006BEF72E00E94AA24C092B40882E08093A9
:1018A000B508E6EBF8E0DF0198961082148A1C92E6
:1018B00054961C9254973196119628E0EA3CF20710
:1018C000A1F781E0868782A386AB8093C40880E07D
:1018D00060E070E0B6DB8091B4088E30C1F7809193
:1018E000B508813009F080C080930709D0920609BD
:1018F0000CD9809108099091090922E0883C92074F
:1019000009F045C08AE099E06EE041E00E94A1182C
:101910008AE099E064E072E00E94AA2480914B047E
:1019200060E00E9423238AE099E00E948B18809156
:1019300055040E945523019709F009C1809145047F
:101940000E945523019709F002C180915C040E9416
:101950005E2164E070E00E94CB24CB016093080913
:10196000909309096FE070E041E050E00E9490031D
:10197000609108097091090980916A040E9492217E
:1019800062E370E080E090E00E949920D0CF8F3F2A
:10199000910569F064F0D0930909C09308098FEFAD
:1019A00090E06FE070E041E050E00E9490036091B1
:1019B00008097091090980916A040E94922140915E
:1019C0000809509109094115510519F4109221098E
:1019D00006C0141615061CF481E08093210981EEDF
:1019E00099E061E072E09BC0823009F09BC0809377
:1019F0000709D092060981E088D880910809909162
:101A0000090922E0883C920709F058C08AE099E071
:101A10006EE042E00E94A1188AE099E064E072E082
:101A20000E94AA2480914B0460E00E9423238AE054
:101A300099E00E948B1823C06FE070E042E050E014
:101A40000E949003609108097091090980916C04CB
:101A50000E94922180910809909109098539910588
:101A600044F486E990E06FE070E042E050E00E94CC
:101A7000900362E370E080E090E00E949920809102
:101A800055040E945523019709F071C080914504C7
:101A90000E945523019709F06AC080915C040E945E
:101AA0005E2164E070E00E94CB24CB0170930909B1
:101AB00060930809663971056CF2BECF8F3F9105BE
:101AC00069F064F0D0930909C09308098FEF90E0A2
:101AD0006FE070E042E050E00E94900380910809BE
:101AE000909109098639910564F4F0920909E09210
:101AF000080986E990E06FE070E042E050E00E9463
:101B00009003609108097091090980916C040E940A
:101B1000922181EE99E062E072E0409108090E9412
:101B20001B1DD5CE833011F432D0D1CE882309F0DD
:101B3000CECE81D9809145040E9455230197D1F3DF
:101B40006CE271E080E090E00E94992047CE8AE04C
:101B500099E00E94931880914B0461E00E94232336
:101B60006CE271E080E090E00E94992028CF8AE04A
:101B700099E00E94931880914B0461E00E94232316
:101B80006CE271E080E090E00E949920C2CF8AE090
:101B900099E00E94C9188AE099E060E040E00E9464
:101BA000A1188AE099E060E073E00E94AA248AE02C
:101BB00099E062E042E00E94A1188AE099E061E1C8
:101BC00073E00E94AA248AE099E062E043E00E9468
:101BD000A1188AE099E069E173E00E94AA248AE0F2
:101BE00099E06CE042E00E94A1188AE099E060E28E
:101BF00073E00E94AA248AE099E06CE043E00E942E
:101C0000A1188AE099E067E273E00E94AA248AE0C2
:101C100099E06CE041E00E94A1188AE099E060E35D
:101C200073E00E94AA248AE099E062E041E00E9409
:101C3000A1188AE099E067E373E00E94AA2481E09A
:101C40008093B40882E08093B508E6EBF8E0DF010A
:101C500098961082148A1C9254961C92549731962E
:101C6000119688E0EA3CF807A1F781E0858B81A70F
:101C7000878F83AB8387818380E060E070E0E1D968
:101C80008091B408813029F48091B508823009F43C
:101C90006AD28091B408813029F48091B5088330EC
:101CA00009F426D08091B4088B3029F48091B508CE
:101CB000823009F4A2D38091B4088B3029F480914A
:101CC000B508833009F48CD58091B4088B3029F4A1
:101CD0008091B508813009F470DD8091B4088130BD
:101CE00031F48091B508813011F4BFDC50CF0895F4
:101CF0002F923F924F925F926F927F928F929F921C
:101D0000AF92BF92CF92DF92EF92FF920F931F9309
:101D1000DF93CF93CDB7DEB760970FB6F894DEBFF1
:101D20000FBECDBF81E090E090933C0480933B04D4
:101D3000988B8F870CE011E004C021E030E0388BF5
:101D40002F878AE099E00E94C9188AE099E060E054
:101D500040E00E94A1188AE099E06EE373E00E94DF
:101D6000AA248F8598890E94A0040093B408109239
:101D7000B508E6EBF8E0DF0198961082148A1C9211
:101D800054961C9254973196119638E0EA3CF3072A
:101D9000A1F71093BA081093BE081093C2081093CD
:101DA000C6081083148310871487108B148B108F30
:101DB000148F10A314A310A714A710AB14AB10AF6B
:101DC0008F8598890C969A838983EF85F889379651
:101DD000FC83EB832F8538892E5F3F4F3E832D8315
:101DE0008F8598890D9698878F83EF85F889389627
:101DF000FA87E9872F8538892D5F3F4F3C872B87EE
:101E00008F8598890E969E878D8759E0252E312CD7
:101E1000EF85F8892E0E3F1E44E0442E512C4E0EC5
:101E20005F1E3AE0632E712C6E0E7F1E25E0822E1F
:101E3000912C8E0E9F1E5F010894A11CB11C96E090
:101E4000C92ED12CCE0EDF1E8BE0E82EF12CEE0E2B
:101E5000FF1E81E06F857889F4D89091B4089430A2
:101E600039F48091B508882309F080C0FEDB69CF82
:101E7000983039F48091B508882309F082C087DE54
:101E800060CF9C3081F58091B508882309F082C02D
:101E900010920709FDE0F09306092F8538893093E9
:101EA0000909209308090E948505809108099091ED
:101EB0000909835F914034F082EF91E09093090922
:101EC000809308098091080990910909892B31F4C0
:101ED000E1E0F0E0F0930909E09308092091080996
:101EE000309109092CCF9031B1F58091B508882344
:101EF00009F05DC01092070931E1309306098F8522
:101F00009889019739F4EFE0F0E0F0930909E09344
:101F1000080908C02F8538892E50304030930909B0
:101F20002093080980E00E9485056091080970915E
:101F3000090932E0613073072CF082EF91E0988B51
:101F40008F87FFCE6F3071050CF4F7CEFB013E9703
:101F5000F88BEF87F6CE992339F48091B50881305C
:101F600089F52F8538891CC0943049F48091B508D3
:101F7000813099F5B0923C04A0923B0488C098301F
:101F800039F48091B508813099F5ED81FE817BC0EF
:101F90009C3059F48091B508813099F52B853C85AA
:101FA00030933C0420933B0472C0903149F48091FB
:101FB000B508813079F550923C0440923B0467C0EB
:101FC000992349F48091B508823079F590923C04C8
:101FD00080923B045CC0943049F48091B508823013
:101FE00079F5D0923C04C0923B0451C0983039F44A
:101FF0008091B508823079F5EB81FC8144C09C303A
:1020000039F48091B508823079F529853A85C8CFB1
:10201000903149F48091B508823079F530923C04D2
:1020200020923B0434C0992349F48091B508833051
:1020300071F570923C0460923B0429C0943049F4DD
:102040008091B508833019F5F0923C04E0923B048E
:102050001EC0983039F48091B5088330C1F4E9810D
:10206000FA8111C09C3039F48091B508833079F43D
:102070002F81388595CF903151F48091B508833008
:1020800031F4ED85FE85F0933C04E0933B048091B0
:10209000B508809307099F5F90930609E0913B0480
:1020A000F0913C04EE0FFF1FE255FB4F80819181C0
:1020B000909309098093080981E00E948505809129
:1020C0000809909109098456924039F40E94440409
:1020D00080910609845080930609809108099091A7
:1020E000090922E0883C920769F480910609825030
:1020F000609107090E94CC03809106098450809367
:102100000609A7CE8F3F910589F084F08FEF90E00C
:1021100090930909809308096091060970E06E5F49
:102120007F4F4091070950E00E94900380913B044B
:1021300090913C040197E091E409F091E509E80FE2
:10214000F91F809108098083E0913B04F0913C04E1
:10215000EE0FFF1FE255FB4F80910809909109098E
:102160009183808376CEAF92BF92CF92DF92EF922F
:10217000FF920F931F93CF93DF93C1E0D0E098E0DD
:10218000A92E01E089E0B82EE12C12E0F12EBFEF7C
:10219000CB2ED12CD0933C04C0933B048AE099E031
:1021A000F8D78AE099E060E040E0CBD78AE099E098
:1021B00060E573E00E94AA248AE099E06EE042E0C4
:1021C000C0D78AE099E06BEF72E00E94AA248AE00F
:1021D00099E06EE043E0B5D78AE099E067E373E009
:1021E0000E94AA248AE099E060E042E0AAD78AE04F
:1021F00099E061E673E00E94AA248AE099E062E037
:1022000043E09FD78AE099E06EE673E00E94AA243B
:102210008091B0049091B10469E070E043E050E037
:102220000E949003A092B40882E08093B508E6EB88
:10223000F8E0DF0198961082148A1C9254961C9242
:1022400054973196119628E0EA3CF207A1F7048FE3
:1022500000AB01A305AB80E060E070E00E942108C4
:102260008091B408883009F058C01091B508123038
:1022700009F053C080913B0490913C0469E070E008
:1022800042E050E00E94900310930709B0920609C3
:1022900080913B0490913C04909309098093080934
:1022A00080E00E948505809108099091090981507C
:1022B000924064F0F0920909E092080980E092E00F
:1022C00069E070E042E050E00E94900380910809CC
:1022D000909109091816190664F0D0930909C09362
:1022E000080981E090E069E070E042E050E00E947F
:1022F0009003E0910809F0910909F0933C04E09300
:102300003B04EE0FFF1FE255FB4F8081918169E096
:1023100070E043E050E00E9490038091B408883060
:1023200009F05DC08091B508833009F094CF8093A7
:102330000709B0920609E0913B04F0913C04EE0FCE
:10234000FF1FE255FB4F8081918190930909809393
:10235000080981E00E94850580910809909109098A
:102360008456924011F40E9444048091080990918F
:10237000090922E0883C920729F489E063E00E9481
:10238000CC0369CF8F3F910569F064F0D0920909C1
:10239000C09208098FEF90E069E070E043E050E000
:1023A0000E94900380913B0490913C040197E0913E
:1023B000E409F091E509E80FF91F8091080980838D
:1023C000E0913B04F0913C04EE0FFF1FE255FB4F00
:1023D0008091080990910909918380833CCF8D30C9
:1023E00009F039CF8091B508833011F43ED9D2CEAF
:1023F000823009F030CFCBDB2ECF2F923F924F921D
:102400005F926F927F928F929F92AF92BF92CF9284
:10241000DF92EF92FF920F931F93DF93CF9300D041
:1024200000D0CDB7DEB78AE099E0B3D68AE099E074
:1024300060E040E086D68AE099E065E773E00E94BC
:10244000AA248AE099E063E041E07BD68AE099E043
:1024500062E873E00E94AA248AE099E060E042E02A
:1024600070D68AE099E062E973E00E94AA248AE0CB
:1024700099E060E043E065D68AE099E066EA73E0BF
:102480000E94AA2481E090E069E070E041E050E021
:102490000E94900381E090E069E070E042E050E04B
:1024A0000E94900380E090E069E070E043E050E03B
:1024B0000E94900388E08093B40881E08093B5087F
:1024C00021E030E040E050E029833A834B835C8395
:1024D00061E0862E912CA12CB12C4424552432018C
:1024E000E6EBF8E0DF0198961082148A1C9254966D
:1024F0001C9254973196119638E0EA3CF307A1F705
:1025000041E04087448F40AB42A346AB80E060E0AF
:1025100070E00E9421088091B4088E30C1F480914F
:10252000B5088230A1F4A0EBB4E020E030E0E09107
:10253000E409F091E509E20FF31F8C9180832F5F8E
:102540003F4F129652E02030350789F720DB80910B
:10255000B4088E3009F092C08091B508833009F03C
:10256000AEC014018AE099E06FE043E0EAD58AE06A
:1025700099E06BEB73E00E94AA248AE099E0CBD546
:1025800080E090E0E091E409F091E509E80FF91F9F
:1025900010820196A2E081309A07A1F761014DC037
:1025A000ED81FE813196FE83ED83E451F54009F023
:1025B00049C00894E11CF11C011D111D89819A81FB
:1025C000AB81BC81E816F9060A071B07C9F5C601ED
:1025D000AA2797FDA095BA2F481659066A067B06CA
:1025E0000CF46101C60169E070E040E050E00E9437
:1025F0009003A50194010DC0C9010197E091E40980
:10260000F091E509E80FF91F10822F5F3F4F4F4F00
:102610005F4F421653066406750674F70894C108A6
:10262000D108E091E409F091E509EC0DFD1D9FEF63
:102630009083A2E0B0E0CA0EDB1EEE24FF248701E7
:102640001E821D82809145040E945523019709F442
:10265000A7CF8AE099E067D58AE099E06FE043E090
:1026600070D58AE099E061EC73E00E94AA246CE2E4
:1026700071E080E090E00E94992032CF8830F9F438
:102680008091B5088130D9F480930709B9E0B093FF
:102690000609E981FA81F0930909E093080980E0CD
:1026A0000E94850580910809909109099C014427A1
:1026B00037FD4095542F29833A834B835C83809167
:1026C000B408883009F042C08091B5088230F1F535
:1026D0008093070939E030930609909209098092A6
:1026E000080980E00E9485058091080990910909F8
:1026F0004C01AA2497FCA094BA2C81149104A10443
:10270000B10471F481E090E069E070E042E050E0F3
:102710000E94900351E0852E912CA12CB12C16C063
:1027200041E0841642E0940640E0A40640E0B4068E
:102730006CF080E092E069E070E042E050E00E94DE
:102740009003812C42E0942EA12CB12C8091B408EE
:10275000883009F0C5CE8091B508833009F0C0CE2D
:102760008093070959E05093060950920909409255
:10277000080980E00E948505809108099091090967
:102780002C01662457FC6094762C4114510461049A
:10279000710471F481E090E069E070E043E050E0A2
:1027A0000E94900331E0432E512C612C712C98CE65
:1027B00081E0481682E0580680E0680680E07806EE
:1027C0000CF48ECE80E092E069E070E043E050E0EF
:1027D0000E949003412C22E0522E612C712C80CE5D
:1027E0002F923F924F925F926F927F928F929F9221
:1027F000AF92BF92CF92DF92EF92FF920F931F930F
:10280000DF93CF93CDB7DEB728970FB6F894DEBF2E
:102810000FBECDBF81E090E098878F836624772438
:102820004301AA24BB246501AFEFB0E0BA83A983BA
:102830008AE099E0AED48AE099E063E040E081D498
:102840008AE099E067EC73E00E94AA248AE099E0AC
:1028500060E041E076D48AE099E06DEC73E00E949C
:10286000AA248AE099E060E042E06BD48AE099E033
:1028700060EE73E00E94AA248AE099E060E043E001
:1028800060D48AE099E065EF73E00E94AA24898110
:102890009A8169E070E040E050E00E9490038F81EF
:1028A000988569E070E041E050E00E949003C30128
:1028B00069E070E042E050E00E949003C50169E0E9
:1028C00070E043E050E00E949003B8E0B093B40899
:1028D0001092B508E6EBF8E0DF0198961082148AB2
:1028E0001C9254961C9254973196119628E0EA3C1B
:1028F000F207A1F781E0808780AB848F858781A371
:1029000085AB8093BE0880E060E070E00E94210803
:102910008091B4088D3029F48091B508813009F494
:1029200036D98091B4088D3009F0A8C08091B508DF
:10293000823019F40E94350B7BCF833009F0D8C068
:10294000C601B501A40193010E94AC2461507240FC
:102950008040904054F08AE099E06DE040E0F1D38F
:102960008AE099E069E074E086C08AE099E06DE071
:1029700040E0E7D38AE099E061E174E00E94AA2494
:102980008AE099E06EE043E0DCD38AE099E069E117
:1029900074E00E94AA2411E0E12EF12C012D112DEA
:1029A0008F819885AA2797FDA095BA2F8B839C834A
:1029B000AD83BE8346C091E0E916F104010511051F
:1029C00009F054C12B803C804D805E80A1E02A1626
:1029D000A2E03A06A0E04A06A0E05A0634F0261823
:1029E000370848085908860175018AE099E061E1D5
:1029F00040E0A7D38AE099E0B201A1012AE030E0EB
:102A00000E945A2465E070E080E090E00E949920E6
:102A1000C10101972091E4093091E509280F391F80
:102A20008981F9018083F101EE0FFF1FE255FB4F11
:102A3000A981BA81B183A0830894E11CF11C011D16
:102A4000111DAE14BF04C006D1060CF0B4CF8AE04D
:102A500099E06DE040E075D38AE099E060E274E0CF
:102A60000E94AA248AE099E06EE043E06AD38AE0FB
:102A700099E064E274E00E94AA242CCF8830C1F56A
:102A80008091B5088130A1F580930709B9E0B09332
:102A90000609EF81F885F0930909E093080980E0C1
:102AA0000E948505809108099091090998878F8374
:102AB000892B69F481E090E069E070E041E050E04A
:102AC0000E949003A1E0B0E0B887AF8311C0EF810E
:102AD000F885E150F24064F080E092E069E070E057
:102AE00041E050E00E94900380E092E098878F835D
:102AF0008091B408883009F042C08091B5088230D6
:102B0000F1F58093070999E09093060970920909FD
:102B10006092080980E00E948505809108099091E3
:102B200009093C01882477FC8094982C6114710475
:102B30008104910471F481E090E069E070E042E08A
:102B400050E00E949003A1E06A2E712C812C912C00
:102B500016C0A1E06A16A2E07A06A0E08A06A0E00C
:102B60009A066CF080E092E069E070E042E050E0AC
:102B70000E949003612CF2E07F2E812C912C809199
:102B8000B408883009F042C08091B5088330F1F56F
:102B900080930709B9E0B0930609B0920909A092A1
:102BA000080980E00E948505809108099091090933
:102BB0005C01CC24B7FCC094DC2CA114B104C1048A
:102BC000D10471F481E090E069E070E043E050E00E
:102BD0000E949003E1E0AE2EB12CC12CD12C16C086
:102BE000E1E0AE16E2E0BE06E0E0CE06E0E0DE06A2
:102BF0006CF080E092E069E070E043E050E00E9419
:102C00009003A12C72E0B72EC12CD12C8091B40876
:102C1000883009F05FCE8091B508882309F05ACE3C
:102C200010920709F9E0F093060989819A8190933F
:102C300009098093080981E00E948505A09108098F
:102C4000B0910909BA83A983AF3FB10509F00CF42B
:102C500041CE8FEF90E069E070E040E050E00E94EC
:102C60009003EFEFF0E0FA83E98334CE260C371CB3
:102C7000481C591CABCE8AE099E08BD28AE099E0DF
:102C800060E040E05ED28AE099E06BE274E00E948E
:102C9000AA248AE099E062E042E053D28AE099E017
:102CA0006AEB72E00E94AA248AE099E069E042E0BF
:102CB00048D28AE099E065EB72E00E94AA248AE09B
:102CC00099E06FE042E03DD28AE099E060EC72E08A
:102CD0000E94AA2481E08093B40882E08093B50822
:102CE000E6EBF8E0DF0198961082148A1C92549665
:102CF0001C9254973196119688E0EA3CF807A1F7A8
:102D000081E0858B848F82A380E060E070E00E9488
:102D100021088091B408883041F48091B508823050
:102D200021F40E94AA070E94C70D8091B4088E303A
:102D300041F48091B508823021F40E94A90A0E94D2
:102D4000C70D8091B408813031F48091B50882308C
:102D500011F40C94C70D089582E061E00E942323D2
:102D60000E94910A0E94850A0E941B0784CF8091CD
:102D70003D0462E00E94702280913F0462E00E9464
:102D800070228091410462E00E947022809143048D
:102D900062E00E9470228091450462E00E947022ED
:102DA0008091470461E00E9470228091490461E0B3
:102DB0000E94702280914B0461E00E9470228091F9
:102DC0004D0461E00E94702280914F0462E00E94F5
:102DD00070228091510462E00E947022809153041D
:102DE00062E00E9470228091550462E00E9470228D
:102DF0008091470461E00E9423238091490461E0AF
:102E00000E94232380914B0461E00E942323809140
:102E10004D0461E00E94232380915E0461E00E94E2
:102E200070228091600461E00E94702280916804A9
:102E300061E00E9470228091660461E00E9470222D
:102E40008091640461E00E9470228091620461E0DC
:102E50000E94702280916A0461E00E9470228AE0E0
:102E600099E064E144E020E09AD181E090E0909321
:102E7000FA098093F90980E092E09093F609809333
:102E8000F50982EE99E060E033D785E061E00E94C9
:102E9000702285E060E00E94232386E061E00E94CA
:102EA000702286E060E00E94232387E061E00E94B8
:102EB000702287E060E00E94232386E161E00E94A7
:102EC000702286E160E00E94232387E161E00E9496
:102ED000702287E160E00E94232388E161E00E9484
:102EE000702288E160E00E94232389E161E00E9472
:102EF000702289E160E00E9423238AE161E00E9460
:102F000070228AE160E00E9423238BE161E00E944D
:102F100070228BE160E00E9423238CE161E00E943B
:102F200070228CE160E00E9423238DE161E00E9429
:102F300070228DE160E00E9423238FE161E00E9416
:102F400070228FE160E00E94232381E261E00E9411
:102F5000702281E260E00E94232383E261E00E940C
:102F6000702283E260E00E94232385E261E00E94F8
:102F7000702285E260E00E94232387E261E00E94E4
:102F8000702287E260E00E94232389E261E00E94D0
:102F9000702289E260E00E9423238BE261E00E94BC
:102FA00070228BE260E00E9423238EE261E00E94A7
:102FB00070228EE260E00E94232380E361E00E94A1
:102FC000702280E360E00E94232382E361E00E949C
:102FD000702282E360E00E94232384E361E00E9488
:102FE000702284E360E00E94232386E361E00E9474
:102FF000702286E360E00E94232387E361E00E9461
:10300000702287E360E00E94232388E361E00E944E
:10301000702288E360E00E94232389E361E00E943C
:10302000702289E360E00E9423238AE361E00E942A
:1030300070228AE360E00E9423238BE361E00E9418
:1030400070228BE360E00E9423238CE361E00E9406
:1030500070228CE360E00E9423238DE361E00E94F4
:1030600070228DE360E00E9423238EE361E00E94E2
:1030700070228EE360E00E9423238FE361E00E94D0
:1030800070228FE360E00E94232380E461E00E94CD
:10309000702280E460E00E94232381E461E00E94CA
:1030A000702281E460E00E94232382E461E00E94B8
:1030B000702282E460E00E94232383E461E00E94A6
:1030C000702283E460E00E94232384E461E00E9494
:1030D000702284E460E00C94232308950895FC0199
:1030E0001382128289E794E0918380830895FC0122
:1030F000A081B18118962D913C9119976FEFF9013C
:1031000019950895DC01ED91FC910284F385E02D81
:1031100040E019950895FC016581862F81608583C3
:103120006960CF01EFCFFC0165816E7F65836860C8
:10313000E9CFFC016581862F846085836C60CF01B7
:10314000E1CFDC0117969C911797491710F0492F92
:10315000415018968C911897803139F4943029F4A5
:10316000E42FF0E0EB57FB4F04C0E42FF0E0E7570B
:10317000FB4F8081680F6068CD01C4CFDC01ED9109
:10318000FC910284F385E02D41E0199581E090E007
:10319000089561E0B7DF80ED97E00C94F220CF93C3
:1031A000DF93EC01423018F08C8188608C834F8370
:1031B0006887222329F0413019F48C8184608C8344
:1031C00064E670E080E090E0B4D76C8164FD2EC0CE
:1031D000E881F9810284F385E02DCE0163E042E0CD
:1031E000199584E991E1FED7E881F9810284F3859C
:1031F000E02DCE0163E042E0199584E991E1F2D738
:10320000E881F9810284F385E02DCE0163E042E09C
:10321000199586E990E0E6D7E881F9810284F38583
:10322000E02DCE0162E042E0199511C06062CE014E
:1032300069DF84E991E1D6D76C816062CE0162DFFB
:1032400086E990E0CFD76C816062CE015BDF6C8154
:103250006062CE0157DF84E08D83CE016ADFCE014C
:1032600098DF82E08E83CE0166E04CDFCE013FDF47
:10327000DF91CF9108950F931F938C01FC018585F9
:1032800061E00E942323F801858560E00E942323EA
:103290001F910F910895BF92CF92DF92EF92FF920C
:1032A0000F931F93CF93DF93D82EC92EB42E282FC0
:1032B000392FC9018C01C0E0D0E0E62EFF240DC0FB
:1032C000B7010C2E02C0759567950A94E2F76170FC
:1032D000F80185850E94232321960F5F1F4FCB1590
:1032E00078F38D2D9C2DC7DFDF91CF911F910F912A
:1032F000FF90EF90DF90CF90BF9008950F931F93B2
:10330000CF93DF93EC01162F042F60E0413009F4D6
:1033100061E08B850E9423238C858F3F19F060E04C
:103320000E942323023089F08C8184FF04C0CE01E7
:10333000612F48E00DC0612F70E084E075956795BE
:103340008A95E1F7CE0144E0A6DFCE01612F44E08B
:10335000A2DFDF91CF911F910F9108956F927F921D
:103360008F92AF92CF92EF920F931F93DF93CF93F1
:10337000CDB7DEB73C01162F8E2DF301438724878E
:103380000587E686C786A08A818A9E85928B9F855F
:10339000938B9889948B9989958B61E00E94702218
:1033A000F301878561E00E947022F301808961E06A
:1033B0000E947022F301818961E00E947022112332
:1033C000A1F4F301828961E00E947022F3018389F4
:1033D00061E00E947022F301848961E00E94702202
:1033E000F301858961E00E947022F301838561E029
:1033F0000E947022F30184858F3F19F061E00E94E2
:103400007022F301858561E00E947022112319F07A
:10341000F301148203C080E1F3018483F301838507
:1034200060E00E942323F301858560E00E9423234E
:10343000F30184858F3F19F060E00E9423238FEF12
:10344000F301868B12861186CF91DF911F910F9128
:10345000EF90CF90AF908F907F906F900895DF9214
:10346000EF92FF920F931F938C01D62E7A01862F35
:1034700061E00E947022D8015696DC9256971A9607
:10348000FC92EE921997ED91FC910084F185E02D6C
:10349000C80160E019951F910F91FF90EF90DF90A8
:1034A0000895DC01362F56962C9156972F3F49F1FF
:1034B000E22FF0E0E254FE4FE491EE2379F019960A
:1034C0008D919C911A97892B19F4822F70E005C079
:1034D0006FEF70E0631B7109822F24C719968D91DD
:1034E0009C911A97662319F0892B39F402C0019731
:1034F00021F4822F61E00C942323822F60E00C944E
:10350000232308956F927F928F92AF92BF92CF92B2
:10351000DF92EF92FF920F931F933C01162FF42E30
:10352000D22EB02EAE2C8C2CDADD81E994E0D301C2
:103530008D939C9300D00F92EDB7FEB73196ADB747
:10354000BEB711961C92118212821382C30161E0F0
:10355000412F2FEF0F2DED2CCB2C00DF0F900F9074
:103560000F900F901F910F91FF90EF90DF90CF90F1
:10357000BF90AF908F907F906F90089520914309F6
:1035800030E080914209281B3109C901089540911A
:10359000420980914309481718F02FEF3FEF0AC006
:1035A000E42FF0E0EE5DF64F8081282F30E04F5F92
:1035B00040934209C9010895E0914209809143096D
:1035C000E81718F0EFEFFFEF06C0F0E0EE5DF64F02
:1035D0008081E82FF0E0CF010895089510926A09E4
:1035E0001092690988EE93E0A0E0B0E080936B0947
:1035F00090936C09A0936D09B0936E0981EA94E0F1
:1036000090936809809367090895CF92DF92EF92B3
:10361000FF920F931F93CF93DF937C016B018A017D
:10362000809166098823A1F0C0E0D0E00DC0D701E9
:10363000ED91FC91D601AC0FBD1F0190F081E02D02
:10364000C7016C9119952196C017D10780F303C06B
:10365000CB01642F39D0C801DF91CF911F910F9119
:10366000FF90EF90DF90CF900895DF93CF930F926C
:10367000CDB7DEB7FC016983809166098823C9F064
:1036800080916509803238F081E090E093838283F5
:1036900020E030E014C080916409E82FF0E0EC5B9A
:1036A000F64F998190838F5F8093640980936509B9
:1036B00004C0CE01019661E007D021E030E0C901ED
:1036C0000F90CF91DF910895482F613210F081E083
:1036D000089580917309843011F082E00895609319
:1036E000BE09ADE9B9E0842F9C01F90102C08191C6
:1036F0008D938E2F841B8617D0F380E008951F9240
:103700000F920FB60F920BB60F9211242F933F9387
:103710004F935F936F937F938F939F93AF93BF93D9
:10372000EF93FF938091B90090E0887F907080368E
:10373000910509F4F2C081369105CCF588329105E6
:1037400009F47BC089329105B4F48031910509F404
:103750006FC0813191053CF4009709F447C1089787
:1037600009F04FC165C08831910509F466C08097A2
:1037700009F047C182C08034910509F4A4C08134A6
:10378000910544F48033910509F482C0C89709F08B
:1037900038C189C08035910509F489C08835910503
:1037A00009F496C08834910509F02BC1AEC0883960
:1037B000910509F413C189399105ECF48837910515
:1037C00009F4ABC0893791054CF48836910509F4AA
:1037D000A4C08037910509F014C19FC088389105B5
:1037E00009F4FCC08039910509F49DC08038910529
:1037F00009F007C198C0803B910509F4C6C0813B20
:1038000091054CF4803A910509F49FC0883A9105DE
:1038100009F0F7C0BAC0803C910509F4E3C0883CC8
:10382000910509F4DFC0883B910509F0EAC0C2C0E8
:10383000809174098093BB00CFC090919B098091C7
:103840009C09981768F490919B09E92FF0E0E558DE
:10385000F64F80818093BB009F5F90939B09BCC013
:1038600080917509882309F44BC085ED8093BC00D5
:103870008091BC0084FDFCCFC2C080E28093E0094F
:1038800085ED8093BC008091BC0084FDFCCFB7C067
:1038900080E38093E00985ED8093BC008091BC00BB
:1038A00084FDFCCFACC088E38093E0099BC080918D
:1038B0009B099091BB00E82FF0E0E558F64F90830C
:1038C0008F5F80939B0990919B0980919C0982C096
:1038D00080919B099091BB00E82FF0E0E558F64FEE
:1038E00090838F5F80939B0980917509882341F0B5
:1038F00085ED8093BC008091BC0084FDFCCF7FC02F
:1039000081E08093760984EA6EC085ED8093BC00E7
:103910008091BC0084FDFCCF72C083E0809373096A
:103920001092DF0959C08091DF09803208F056C03B
:103930008091DF099091BB00E82FF0E0E154F64F51
:1039400090838F5F8093DF0947C08091DF098032C9
:1039500030F4E091DF09F0E0E154F64F108285ED9C
:103960008093BC008091BC0084FDFCCF1092730951
:103970006091DF09E0917909F0917A098FEB99E084
:1039800070E019951092DF092DC084E080937309CF
:103990001092BD091092BE09E0917709F091780963
:1039A00019958091BE09882329F481E08093BE098E
:1039B00010929D099091BD09E92FF0E0E356F64F72
:1039C00080818093BB009F5F9093BD099091BD095A
:1039D0008091BE09981710F485EC01C085E88093AA
:1039E000BC000FC085EC8093BC0009C01092E009B8
:1039F00085ED8093BC008091BC0084FDFCCF1092CB
:103A00007309FF91EF91BF91AF919F918F917F913A
:103A10006F915F914F913F912F910F900BBE0F903F
:103A20000FBE0F901F901895F999FECF72BD61BD22
:103A3000F89A80B50895F999FECF1FBA72BD61BD9D
:103A400040BD0FB6F894FA9AF99A0FBE0895FC019A
:103A50008385882331F48091C10087728093C100EF
:103A60000895813031F48091C90087728093C90034
:103A70000895823031F48091D10087728093D10013
:103A80000895833029F48091310187728093310148
:103A900008951F920F920FB60F920BB60F9211243A
:103AA0002F933F934F935F936F937F938F939F9346
:103AB000AF93BF93EF93FF938091C0008093EA0987
:103AC0003091C6003093EB092091E6092093EC0970
:103AD00084FF10C08091C0008F7E8093C0008091D1
:103AE000F7099091F8099093F0098093EF0981E02C
:103AF0008093E609213091F4332369F482E08093C6
:103B0000E6098091E2099091E30901969093E80912
:103B10008093E7094BC01092E60948C02230A1F417
:103B20008091EF099091F00901979093F0098093AB
:103B3000EF09892BD9F583E08093E609E091E2094A
:103B4000F091E309308332C0233081F5E091E70939
:103B5000F091E809F093050AE093040A308340915C
:103B6000040A5091050A4F5F5F4F5093050A409336
:103B7000040A8091E2099091E3092091F3093091C0
:103B8000F409820F931F4817590760F01092E60955
:103B9000E091080AF091090A309741F08091ED090F
:103BA000199504C05093E8094093E709FF91EF91FC
:103BB000BF91AF919F918F917F916F915F914F9145
:103BC0003F912F910F900BBE0F900FBE0F901F9043
:103BD00018951F920F920FB60F920BB60F921124E9
:103BE0002F933F934F935F936F937F938F939F9305
:103BF000AF93BF93EF93FF938091EE098093030AF5
:103C0000882361F41092C5008091000A8093C4005B
:103C10001092C60081E08093EE0940C0813081F4AB
:103C20001092C5008091FF098093C4001092C600D5
:103C300082E08093EE091092F2091092F1092EC0F1
:103C40008091F1099091F2099093020A8093010A00
:103C5000E091E409F091E509E80FF91F2081209334
:103C6000C6009C012F5F3F4F3093020A2093010A48
:103C70008091F5099091F6092817390759F4E091D8
:103C8000060AF091070A309711F080E0199510921A
:103C9000EE0904C03093F2092093F109FF91EF91EE
:103CA000BF91AF919F918F917F916F915F914F9154
:103CB0003F912F910F900BBE0F900FBE0F901F9052
:103CC000189521E030E03093F8092093F70988E057
:103CD00090E09093F4098093F3093093FA092093CC
:103CE000F9099093F6098093F5091092ED0908956A
:103CF0001F93CF93DF93EC01162FF894A8DE1C8F4F
:103D0000112321F487E08D8F84E10BC0113021F461
:103D100083E08D8F8AE005C0123021F481E08D8F21
:103D200085E08E8F8B8D8F3F29F061E0D9D38B8D0D
:103D300061E089D48B858823D1F481E061E0D0D320
:103D40001092C5008D8D8093C4008091C000826068
:103D50008093C0008091C2008E608093C2008091E9
:103D6000C10088648093C1001092C60053C08130A6
:103D7000D1F482E161E0B4D31092CD008D8D8093B7
:103D8000CC008091C80082608093C8008091CA00F6
:103D90008E608093CA008091C90088648093C900B6
:103DA0001092CE0037C08230D1F480E161E098D328
:103DB0001092D5008D8D8093D4008091D0008260C8
:103DC0008093D0008091D2008E608093D200809149
:103DD000D10088648093D1001092D6001BC083303C
:103DE000C9F48EE061E07CD3109235018D8D809313
:103DF00034018091300182608093300180913201E2
:103E00008E6080933201809131018864809331010A
:103E10001092360181E08C878B899C890DD08A8332
:103E20009B834B895C8960E070E00E943301789449
:103E3000DF91CF911F9108950F931F93CF93DF933D
:103E4000BC018230910510F462E070E0E091150A47
:103E5000F091160A40E050E0A0E0B0E024C080817C
:103E6000918186179707D0F08617970771F48281A2
:103E70009381109729F013969C938E9312972CC0E0
:103E80009093160A8093150A27C04115510519F021
:103E90008417950718F48D01AC01EF01DF018281D1
:103EA00093819C01F9013097D1F641155105F9F044
:103EB000CA01861B970B8430910580F48A819B810F
:103EC0000115110521F0F8019383828304C09093BA
:103ED000160A8093150AFE01329645C0FE01E80FCE
:103EE000F91F619371930297998388833CC08091F5
:103EF000130A9091140A892B41F4809170049091D7
:103F000071049093140A8093130A409172045091A3
:103F100073044115510541F44DB75EB780916E04AD
:103F200090916F04481B590B2091130A3091140A89
:103F300024173507B0F4CA01821B930B8617970725
:103F400080F0AB014E5F5F4F8417950750F0420F32
:103F5000531F5093140A4093130AF901619371930C
:103F600002C0E0E0F0E0CF01DF91CF911F910F910F
:103F70000895CF93DF939C01009709F48FC0EC0163
:103F800022971B821A826091150A7091160A611598
:103F9000710581F488819981820F931F2091130A02
:103FA0003091140A2817390739F5D093140AC093B1
:103FB000130A74C0DB0140E050E0AC17BD0708F104
:103FC000BB83AA83FE0121913191E20FF31FAE174B
:103FD000BF0779F48D919C911197280F391F2E5F9F
:103FE0003F4F3983288312968D919C9113979B8321
:103FF0008A834115510571F4D093160AC093150AAE
:104000004DC012968D919C911397AD01009711F0C0
:10401000DC01D3CFDA011396DC93CE931297FA0129
:1040200021913191E20FF31FCE17DF0769F48881E8
:104030009981280F391F2E5F3F4FFA01318320836A
:104040008A819B8193838283E0E0F0E0DB0112961A
:104050008D919C911397009719F0BC01FD01F6CF4B
:10406000AB014E5F5F4FDB018D919C91840F951FDB
:104070002091130A3091140A2817390779F43097E0
:1040800029F41092160A1092150A02C013821282A5
:10409000425050405093140A4093130ADF91CF913D
:1040A00008951F920F920FB60F9211242F933F93F2
:1040B0008F939F93AF93BF9380910E0A90910F0AB5
:1040C000A091100AB091110A3091120A0196A11D17
:1040D000B11D232F2D5F2D3720F02D570196A11DE7
:1040E000B11D2093120A80930E0A90930F0AA09399
:1040F000100AB093110A80910A0A90910B0AA091BC
:104100000C0AB0910D0A0196A11DB11D80930A0AF7
:1041100090930B0AA0930C0AB0930D0ABF91AF9134
:104120009F918F913F912F910F900FBE0F901F90F5
:1041300018959B01AC017FB7F89480910A0A909181
:104140000B0AA0910C0AB0910D0A66B5A89B05C098
:104150006F3F19F00196A11DB11D7FBFBA2FA92F86
:10416000982F8827860F911DA11DB11D62E0880F31
:10417000991FAA1FBB1F6A95D1F7BC012DC0FFB7BD
:10418000F89480910A0A90910B0AA0910C0AB091C0
:104190000D0AE6B5A89B05C0EF3F19F00196A11DD9
:1041A000B11DFFBFBA2FA92F982F88278E0F911D01
:1041B000A11DB11DE2E0880F991FAA1FBB1FEA9540
:1041C000D1F7861B970B885E9340C8F22150304090
:1041D0004040504068517C4F211531054105510543
:1041E00071F60895019739F0880F991F880F991F6C
:1041F00002970197F1F70895789484B5826084BDA1
:1042000084B5816084BD85B5826085BD85B58160DA
:1042100085BDEEE6F0E0808181608083E1E8F0E03A
:104220001082808182608083808181608083E0E869
:10423000F0E0808181608083E1EBF0E08081846048
:104240008083E0EBF0E0808181608083E1E9F0E051
:10425000808182608083808181608083E0E9F0E0FA
:10426000808181608083E1EAF0E0808182608083E8
:10427000808181608083E0EAF0E0808181608083DA
:10428000E1E2F1E0808182608083808181608083CF
:10429000E0E2F1E0808181608083EAE7F0E0808104
:1042A000846080838081826080838081816080835C
:1042B0008081806880831092C1000895382F8633F2
:1042C00008F0365320917B00832F8695869586953E
:1042D00090E08170907043E0880F991F4A95E1F754
:1042E000277F282B20937B00377080917404829560
:1042F000880F880F807C832B80937C0080917A00CC
:10430000806480937A0080917A0086FDFCCF2091B2
:10431000780040917900942F80E030E0282B392BF1
:10432000C90108951F93CF93DF93182FEB0161E02C
:10433000D7D0209709F4CAC0CF3FD10509F4C9C02E
:10434000E12FF0E0E254FE4F8491893009F466C019
:104350008A30B0F48430F1F1853040F4823059F184
:10436000833070F5813009F0AEC020C0873009F489
:1043700043C0883008F048C0863009F0A4C034C07B
:104380008D3009F478C08E3038F48B3009F45AC07F
:104390008C3008F066C04CC0803109F480C0813197
:1043A00009F487C08F3009F08EC06FC084B5806873
:1043B00084BDC7BD91C084B5806284BDC8BD8CC0BA
:1043C00080918000806880938000D0938900C093A2
:1043D000880082C080918000806280938000D093AA
:1043E0008B00C0938A0078C08091B0008068809371
:1043F000B000C093B30070C08091B0008062809321
:10440000B000C093B40068C0809190008068809331
:104410009000D0939900C09398005EC08091900066
:10442000806280939000D0939B00C0939A0054C008
:1044300080919000886080939000D0939D00C093FD
:104440009C004AC08091A00080688093A000809169
:10445000A0008F7B8093A000D093A900C093A800F8
:104460003BC08091A00080628093A000D093AB00FD
:10447000C093AA0031C08091A00088608093A00002
:10448000D093AD00C093AC0027C08091200180681C
:1044900080932001D0932901C09328011DC08091F1
:1044A0002001806280932001D0932B01C0932A01C8
:1044B00013C080912001886080932001D0932D014A
:1044C000C0932C0109C0C038D1051CF4812F60E0D5
:1044D00002C0812F61E0B7D0DF91CF911F91089585
:1044E000CF93DF93482F50E0CA0188589E4FFC01BC
:1044F00034914E5C5E4FFA018491882369F190E01B
:10450000880F991FFC01EC51FF4FA591B491FC015C
:10451000E250FF4FC591D491662351F42FB7F89420
:104520008C91932F909589238C93888189230BC03C
:10453000623061F42FB7F8948C91932F9095892372
:104540008C938881832B88832FBF06C09FB7F894F4
:104550008C91832B8C939FBFDF91CF9108958930ED
:1045600009F449C08A30A0F4843051F1853040F418
:10457000823079F1833000F5813009F063C026C0C4
:10458000873079F1883098F5863009F05BC025C016
:104590008D3009F442C08E3028F48B30B1F18C306C
:1045A000C0F52DC0803109F442C0813109F445C005
:1045B0008F3009F047C037C0809180008F7703C0EB
:1045C000809180008F7D80938000089584B58F77DF
:1045D00002C084B58F7D84BD08958091B0008F772F
:1045E00003C08091B0008F7D8093B00008958091CA
:1045F00090008F7707C0809190008F7D03C08091DD
:104600009000877F8093900008958091A0008F771D
:1046100007C08091A0008F7D03C08091A000877F9C
:104620008093A0000895809120018F7703C080912E
:1046300020018F7D80932001089580912001877F44
:10464000809320010895FF920F931F93F62E482F19
:1046500050E0CA0182549E4FFC012491CA0188583F
:104660009E4FFC0114914E5C5E4FFA0104910023B1
:10467000C1F0222311F0822F72DFE02FF0E0EE0F65
:10468000FF1FE250FF4FA591B4919FB7F894FF2010
:1046900021F48C911095812302C08C91812B8C93F5
:1046A0009FBF1F910F91FF9008950F931F93482F65
:1046B00050E0CA0182549E4FFC012491CA018858DF
:1046C0009E4FFC0104914E5C5E4FFA011491112340
:1046D00019F420E030E014C0222311F0822F3FDFD4
:1046E000812F90E0880F991F885E9E4FFC01A59155
:1046F000B4918C9120E030E0802311F021E030E093
:10470000C9011F910F9108950895CF93DF9374DD30
:10471000FBDF0E94B716C0E0D0E00E94AC162097E5
:10472000E1F30E940000F9CF0895CF92DF92EF925B
:10473000FF920F931F93CF93DF937C016B018A014C
:10474000C0E0D0E00FC0D6016D916D01D701ED91B1
:10475000FC910190F081E02DC7011995C80FD91F78
:10476000015010400115110571F7CE01DF91CF9175
:104770001F910F91FF90EF90DF90CF900895CF930E
:10478000DF93EC016115710519F420E030E00FC0F2
:10479000DB010D900020E9F71197A61BB70BE8810C
:1047A000F9810280F381E02DAD0119959C01C901C9
:1047B000DF91CF9108954F925F927F928F929F9257
:1047C000AF92BF92CF92DF92EF92FF920F931F931F
:1047D000DF93CF93CDB7DEB7A1970FB6F894DEBFC6
:1047E0000FBECDBF2C01742ECB01223008F42AE07D
:1047F00019A231E2C32ED12CCC0EDD1E822E9924BB
:10480000AA24BB24672D752FA5019401D7D0790167
:104810008A01C801B701A50194019ED0472D461B0E
:104820000894C108D1084A3014F4405D01C0495CC5
:10483000F6014083E114F1040105110521F07E2CFD
:104840005F2DC801DFCFC201B60199DFA1960FB677
:10485000F894DEBF0FBECDBFCF91DF911F910F91B6
:10486000FF90EF90DF90CF90BF90AF909F908F9090
:104870007F905F904F900895DC012115310541F440
:10488000ED91FC910190F081E02D642F1995089530
:1048900092CFEF92FF920F931F939A01E62EFF247F
:1048A00000E010E0B801A701E7DF1F910F91FF9032
:1048B000EF900895CF92DF92EF92FF920F931F93A4
:1048C000CF93DF93EC016A017B012115310541F49F
:1048D000E881F9810190F081E02D642F19951DC0C8
:1048E0002A303105C9F477FF16C0E881F9810190BB
:1048F000F081E02D6DE219958C0144275527BA010E
:104900004C195D096E097F09CE012AE054DF980138
:10491000280F391F03C02AE04EDF9C01C901DF9137
:10492000CF911F910F91FF90EF90DF90CF9008955E
:10493000EF92FF920F931F937B019A010027F7FCE0
:104940000095102FB801A701B5DF1F910F91FF90BF
:10495000EF90089514CF0895629FD001739FF001E6
:10496000829FE00DF11D649FE00DF11D929FF00DFF
:10497000839FF00D749FF00D659FF00D9927729F36
:10498000B00DE11DF91F639FB00DE11DF91FBD01C1
:10499000CF011124089597FB092E07260AD077FD31
:1049A00004D02ED006D000201AF4709561957F4F68
:1049B0000895F6F7909581959F4F0895A1E21A2EDC
:1049C000AA1BBB1BFD010DC0AA1FBB1FEE1FFF1FB3
:1049D000A217B307E407F50720F0A21BB30BE40B03
:1049E000F50B661F771F881F991F1A9469F760954A
:1049F0007095809590959B01AC01BD01CF01089504
:104A0000AA1BBB1B51E107C0AA1FBB1FA617B707F4
:104A100010F0A61BB70B881F991F5A95A9F7809510
:104A20009095BC01CD010895EE0FFF1F0590F49104
:084A3000E02D1994F894FFCF6A
:104A3800303030006100202020005F5F5F004D654E
:104A48006D6F727920456D707469656421006874B2
:104A580074703A2F2F676F6F2E676C2F6B64596CC9
:104A68006A370041726475696E6F20444D582D3560
:104A7800313200546573746572202620436F6E745A
:104A8800726F6C6C6572004669726D2076002E003C
:104A9800486172642076004D656D6F7279204C6FA5
:104AA8006164656421003E002B002D2D2D002D0032
:104AB80020004D656D6F727920436C65616E656489
:104AC80021004D656D6F7279205361766564210010
:104AD8004D656D6F7279204F7074696F6E733A000F
:104AE80053617665004C6F616400456D70747900A0
:104AF800436C65617200426C61636B0043616E6375
:104B0800656C004C434420436F6E6669673A004108
:104B1800626F7574004261636B204C696768743A10
:104B280000436F6E74726173743A004374726C0060
:104B3800436F6E74726F6C204F7074696F6E733A46
:104B480000556E6974617279004D617472697800FC
:104B5800436861736572004D756C7469706C790097
:104B6800436F6E666967004D656D6F727900632DDE
:104B78002D2D204D656D20437472202020202D009E
:104B8800556E697461727920436F6E74726F6C3AF6
:104B9800004368616E6E656C3A20303031005661B2
:104BA8006C75653A004368617365724348202D2D22
:104BB8002D0044656C6179202020207831303D6DCE
:104BC8005300466972737420434820202020202017
:104BD800204374726C0046696E616C204348202043
:104BE800202020202053746172740053746F702049
:104BF8000053746172740056616C75650046697281
:104C080073742043482020202020204374726C00B5
:104C18004D756C7469706C792020202020204D65BA
:104C28006D6F7279005175616E74697479202020F6
:104C38002020204170706C79004572726F722120BB
:104C480000202020202020200043616C632E2E00AD
:104C58004F6B21004170706C792000496E6974694E
:104C6800616C204D656D6F72793A00010033002D3B
:104C780000350031002F002400220020001E002CE7
:104C8800002A0028002600116400000045000800E2
:104C980009000A000B000C000D000300040080004E
:104CA800170A00000100000000BE189523CF186DF8
:104CB800186E18942300401050004014540000004F
:104CC80000BE189523CF182F1A511A7E190000001C
:0E4CD80000351B051BBE1AC71ADC1AED1A00A8
:00000001FF
