:1000000004C100002FC100002DC100002BC1000061
:1000100029C1000027C1000025C1000023C1000044
:1000200021C100001FC100001DC100001BC1000054
:1000300019C1000017C1000015C1000013C1000064
:1000400011C100000FC100000DC100000BC1000074
:1000500009C1000007C1000005C100000C94C527BC
:1000600001C100000C94BD24FDC000000C945D256E
:10007000F9C00000F7C00000F5C00000F3C00000A8
:10008000F1C00000EFC00000EDC00000EBC00000B8
:10009000E9C00000E7C00000E5C000000C94F322B6
:1000A000E1C00000DFC00000DDC00000DBC00000D8
:1000B000D9C00000D7C00000D5C00000D3C00000E8
:1000C000D1C00000CFC00000CDC00000CBC00000F8
:1000D000C9C00000C7C00000C5C00000C3C0000008
:1000E000C1C0000000002100240027002A002D00CC
:1000F0003000330001010000040107010A01000083
:100100002200250028002B002E00310034000201BF
:100110000000050108010B0100002000230026005B
:1001200029002C002F00320000010000030106010D
:10013000090105050505070508080808020202026D
:100140000A0A080804040404010101010101010173
:100150000303030303030303040707070C0C0C0C3E
:100160000C0C0C0C02020202060606060606060627
:100170000B0B0B0B0B0B0B0B0102102020080810B4
:100180002040102040800201020108040201010207
:1001900004081020408080402010080402018004E0
:1001A000020180402010080402010804020101023B
:1001B0000408102040800102040810204080000044
:1001C000090A02080B0C0D070603040100000000D9
:1001D000000000000000000000000000000000001F
:1001E0000000000000000000000011100F000000DF
:1001F00000000000000000000000000000000000FF
:10020000000000003A016222D52511241FBECFEF65
:10021000D1E2DEBFCDBF00E00CBF15E0A0E0B2E050
:10022000E0E2F9E500E00BBF02C007900D92A63CAA
:10023000B107D9F71BBE1BE0A6ECB5E001C01D92CB
:10024000A033B107E1F712E0CAE0D2E004C0229780
:10025000FE010E948A2CC430D107C9F70E94F92AF6
:100260000C948E2CCDCEDC0101C06D9341505040DA
:10027000E0F70895CF92EF920F9383E29AE06091B6
:100280007305409175052091770500917905E090FF
:100290007B05C0907D050E94F6210F91EF90CF90D5
:1002A00008953F924F925F926F927F928F929F92AA
:1002B000AF92BF92CF92DF92EF92FF920F931F9374
:1002C00081E180936C0555245394B4E04B2EA7E054
:1002D0003A2EFFE09F2EE2E08E2E75E0772E68E04A
:1002E000662E53E0C52E46E0B42E39E0A32E1EE064
:1002F0000AE02BE0F22E9CE0E92E8DE0D82EBAC168
:1003000080915C0560E00E94972A809164050E94BC
:10031000C92A892B61F450926C0560916D0570912A
:100320006E0580916F05909170050E940D2865E023
:1003300070E080E090E00E940D28809166050E94A8
:10034000C92A892B61F440926C0560916D0570910A
:100350006E0580916F05909170050E940D2865E0F3
:1003600070E080E090E00E940D28809168050E9476
:10037000C92A892B61F430926C0560916D057091EA
:100380006E0580916F05909170050E940D2865E0C3
:1003900070E080E090E00E940D2880916A050E9444
:1003A000C92A892B61F490926C0560916D0570915A
:1003B0006E0580916F05909170050E940D2865E093
:1003C00070E080E090E00E940D2880915C0561E083
:1003D0000E94972A80915E0560E00E94972A809192
:1003E00064050E94C92A892B61F480926C05609192
:1003F0006D0570916E0580916F05909170050E945A
:100400000D2865E070E080E090E00E940D2880916A
:1004100066050E94C92A892B61F470926C0560916F
:100420006D0570916E0580916F05909170050E9429
:100430000D2865E070E080E090E00E940D2880913A
:1004400068050E94C92A892B61F460926C0560914D
:100450006D0570916E0580916F05909170050E94F9
:100460000D2865E070E080E090E00E940D2880910A
:100470006A050E94C92A892B61F410926C0560916B
:100480006D0570916E0580916F05909170050E94C9
:100490000D2865E070E080E090E00E940D288091DA
:1004A0005E0561E00E94972A8091600560E00E94ED
:1004B000972A809164050E94C92A892B61F4C09211
:1004C0006C0560916D0570916E0580916F0590913E
:1004D00070050E940D2865E070E080E090E00E94C9
:1004E0000D28809166050E94C92A892B61F4B0927B
:1004F0006C0560916D0570916E0580916F0590910E
:1005000070050E940D2865E070E080E090E00E9498
:100510000D28809168050E94C92A892B61F4A09258
:100520006C0560916D0570916E0580916F059091DD
:1005300070050E940D2865E070E080E090E00E9468
:100540000D2880916A050E94C92A892B61F41093B5
:100550006C0560916D0570916E0580916F059091AD
:1005600070050E940D2865E070E080E090E00E9438
:100570000D288091600561E00E94972A80916205B4
:1005800060E00E94972A809164050E94C92A892B05
:1005900061F400936C0560916D0570916E0580911A
:1005A0006F05909170050E940D2865E070E080E075
:1005B00090E00E940D28809166050E94C92A892B2F
:1005C00061F4F0926C0560916D0570916E058091FB
:1005D0006F05909170050E940D2865E070E080E045
:1005E00090E00E940D28809168050E94C92A892BFD
:1005F00061F4E0926C0560916D0570916E058091DB
:100600006F05909170050E940D2865E070E080E014
:1006100090E00E940D2880916A050E94C92A892BCA
:1006200061F4D0926C0560916D0570916E058091BA
:100630006F05909170050E940D2865E070E080E0E4
:1006400090E00E940D288091620561E00E94972A47
:1006500080915A050E94C92A892B61F410936C0578
:1006600060916D0570916E0580916F059091700598
:100670000E940D2880916C05813109F441CE1F91B3
:100680000F91FF90EF90DF90CF90BF90AF909F9031
:100690008F907F906F905F904F903F90089583E28E
:1006A0009AE06FE041E00E94152083E29AE00E9408
:1006B000FF1F80E090E0E091FD0AF091FE0AE80F54
:1006C000F91F1082019622E080309207A1F78091F5
:1006D0005A050E94C92A0197D1F36CE271E080E0CB
:1006E00090E00E940D28A8ECB5E020E030E0E09119
:1006F000FD0AF091FE0AE20FF31F8C9180832F5FB9
:100700003F4F129682E02030380789F783E29AE063
:1007100066E042E00E94152083E29AE00C940720F4
:100720000F931F93CF93DF93EC01162F042F83E2D7
:100730009AE00E94152083E29AE060E072E00E9455
:100740001E2CCA30D1053CF4612F6E5F83E29AE023
:10075000402F0E941520CE010A978A35910538F462
:10076000612F6F5F83E29AE0402F0E941520C4360C
:10077000D10534F083E29AE0612F402F0E941520CA
:1007800083E29AE0BE014AE050E00E940C2CDF9127
:10079000CF911F910F910895DF92EF92FF920F93E7
:1007A0001F93CF93DF93D82E062F682F615083E2DB
:1007B0009AE0402F0E94152083E29AE064E072E004
:1007C0000E941E2C8091600560E00E94972A83E2BF
:1007D0009AE00E94FF1FEE24FF241EC08C2F912F51
:1007E0006D2D70E0402F50E09BDF8091500590917F
:1007F00051050197E091FD0AF091FE0AE80FF91FFB
:10080000C083E0915005F0915105EE0FFF1FEA53B0
:10081000FA4FC08311837E0180916A050E94C92A24
:100820000197D9F480915A050E94C92A0197A9F429
:10083000809171050E94D22864E070E00E943F2CF4
:10084000172FC62FD72F62E370E080E090E00E9460
:100850000D28EC16FD0601F3C1CF83E29AE00E9459
:1008600007208091600561E00E94972A6CE271E0A8
:1008700080E090E00E940D28DF91CF911F910F91B1
:10088000FF90EF90DF9008951F938091620560E0E4
:100890000E94972A1FEF809168050E94C92A01973C
:1008A00009F046C080915A050E94C92A019709F0B3
:1008B0003FC080915005909151050197E091FD0A4C
:1008C000F091FE0AE80FF91F108360911F0A70E093
:1008D000625070404091200A8FEF90E050E020DF9E
:1008E00064E670E080E090E00E940D288091500561
:1008F000909151050197E091FD0AF091FE0AE80FF1
:10090000F91F108260911F0A625083E29AE04091C1
:10091000200A0E94152083E29AE066E072E00E94BD
:100920001E2C64E670E080E090E00E940D28B3CFBA
:100930008091620561E00E94972A6CE271E080E09C
:1009400090E00E940D2883E29AE060911F0A409196
:10095000200A0E9415201F910895CF92DF92EF92F6
:10096000FF920F931F938C016DE070E040E050E028
:10097000D7DE7EE0C72ED12CC00ED11EC60161E1AC
:1009800070E040E050E0CCDE66ECE62E65E0F62E4E
:10099000F801EE0FFF1FEE0DFF1D8081918161E0D8
:1009A00070E041E050E0BCDEF8013196EE0FFF1F31
:1009B000EE0DFF1D8081918165E070E041E050E027
:1009C000AFDEF8013296EE0FFF1FEE0DFF1D8081A6
:1009D000918169E070E041E050E0A2DEF8013396D9
:1009E000EE0FFF1FEE0DFF1D808191816DE070E025
:1009F00041E050E095DEF8013496EE0FFF1FEE0D5A
:100A0000FF1D8081918161E170E041E050E088DE6E
:100A1000F8013596EE0FFF1FEE0DFF1D80819181CD
:100A200061E070E042E050E07BDEF8013696EE0FC8
:100A3000FF1FEE0DFF1D8081918165E070E042E0B7
:100A400050E06EDEF8013796EE0FFF1FEE0DFF1D32
:100A50008081918169E070E042E050E061DEF80160
:100A60003896EE0FFF1FEE0DFF1D808191816DE026
:100A700070E042E050E054DEF8013996EE0FFF1FBF
:100A8000EE0DFF1D8081918161E170E042E050E058
:100A900047DEF8013A96EE0FFF1FEE0DFF1D808135
:100AA000918161E070E043E050E03ADEF8013B966E
:100AB000EE0FFF1FEE0DFF1D8081918165E070E05C
:100AC00043E050E02DDE045F1F4FF801EE0FFF1FE3
:100AD000EE0DFF1D8081918169E070E043E050E000
:100AE0001FDE0F5F1F4F000F111F0E0D1F1DF8019E
:100AF000808191816DE070E043E050E011DECC0C2C
:100B0000DD1CEC0CFD1CF7018081918161E170E03E
:100B100043E050E005DE1F910F91FF90EF90DF90D2
:100B2000CF900895FF920F931F93CF93DF93F82EEA
:100B300083E29AE060911F0A4091200A0E941520EA
:100B400083E29AE06AE072E00E941E2C83E29AE05F
:100B50000E94FF1F60911F0A6E5F60931F0A83E26D
:100B60009AE04091200A0E9415209BDB60916C0561
:100B70006A3018F000E010E016C083E29AE04AE024
:100B800050E00E94BD2B83E29AE060911F0A4091E1
:100B9000200A0E94152080916C05082F10E0109308
:100BA000220A0093210A80916C058E3009F4D8C086
:100BB00091E0F91691F48A3009F470C08B3009F491
:100BC00076C08C3009F47AC08D3039F488EC92E02C
:100BD0009093220A8093210ADFC063DB80916C0529
:100BE0008E3029F41093220A0093210AB9C091E0B3
:100BF000F91659F48A3009F451C08B3009F457C002
:100C00008C3009F45BC08D3009F38A3018F0C0E0F5
:100C1000D0E029C060911F0A615060931F0A83E2EF
:100C20009AE04091200A0E94152083E29AE0B801E0
:100C30004AE050E00E940C2C83E29AE060916C053F
:100C40004AE050E00E94BD2B80916C05C82FD0E097
:100C500060911F0A6F5F60931F0A83E29AE04091E0
:100C6000200A0E9415201DDB80916C058E3089F4CE
:100C7000C801B3E0880F991FBA95E1F7000F111F63
:100C8000800F911FC80FD91FD093220AC093210A49
:100C900067C091E0F916C1F48A3039F48FEF90E023
:100CA0009093220A8093210A5BC08B3029F4109222
:100CB000220A1092210A54C08C3019F484E692E082
:100CC00087CF8D3009F482CF8A3008F049C0609117
:100CD0001F0A625060931F0A83E29AE04091200A43
:100CE0000E94152083E29AE0B8014AE050E00E9499
:100CF0000C2C83E29AE0BE014AE050E00E940C2CEA
:100D000060911F0A6E5F60931F0A83E29AE0409130
:100D1000200A0E94152083E29AE060916C054AE067
:100D200050E00E94BD2B84E690E0089F9001099F4F
:100D3000300D189F300D112480916C05280F311D46
:100D4000CE01F3E0880F991FFA95E1F7CC0FDD1F74
:100D50008C0F9D1F280F391F3093220A2093210AE0
:100D600083E29AE00E94072060911F0A70E06250BF
:100D700070404091200A8091210A9091220A50E00F
:100D8000CFDC60911F0A645060931F0A83E29AE0EF
:100D90004091200A0E94152083E29AE00E940720D9
:100DA00083E29AE060911F0A4091200A0E94152078
:100DB0006CE271E080E090E00E940D28DF91CF911D
:100DC0001F910F91FF90089583E29AE00E943D20C9
:100DD000A8ECB5E080E090E01D921D92E091FD0A44
:100DE000F091FE0AE80FF91F1082019622E0803090
:100DF000920791F783E29AE00E943D2083E29AE015
:100E000063E041E00E94152083E29AE06EE072E028
:100E10000E941E2C83E29AE063E042E00E941520CB
:100E200083E29AE06EE172E00E941E2C83E29AE077
:100E300063E143E00E94152083E29AE00E94FF1FD5
:100E400068EE73E080E090E00E940D2883E29AE073
:100E50000C940720CF93DF9383E29AE00E943D2019
:100E6000C0E0D0E083E29AE0BE0142E050E00E94A0
:100E70000C2C219682E0C130D807A1F783E29AE0DA
:100E80000E943D2083E29AE00E94FF1F83E29AE0E5
:100E900063E040E00E94152083E29AE068E272E09D
:100EA0000E941E2C83E29AE061E041E00E9415203E
:100EB00083E29AE068E372E00E941E2C83E29AE0EB
:100EC00060E043E00E94152083E29AE06CE472E067
:100ED0000E941E2C83E29AE061E04AE050E00E940A
:100EE000BD2B83E29AE063E572E00E941E2C83E250
:100EF0009AE061E04AE050E00E94BD2B83E29AE074
:100F00006BE043E00E94152083E29AE065E572E021
:100F10000E941E2C83E29AE060E04AE050E00E94CA
:100F2000BD2B83E29AE063E572E00E941E2C83E20F
:100F30009AE064E04AE050E00E94BD2B83E29AE030
:100F400062E040E00E94152080915A050E94C92A63
:100F50000197D1F36CE271E080E090E00E940D28EF
:100F600083E29AE00E943D2083E29AE063E041E060
:100F70000E94152083E29AE06CE572E00E941E2C2C
:100F800083E29AE060E043E00E94152083E29AE069
:100F90006BE672E00E941E2C83E29AE062E041E080
:100FA0000E94152080915A050E94C92A0197D1F309
:100FB0006CE271E080E090E00E940D2883E29AE00C
:100FC0000E940720DF91CF9108958AEF9AE061E0B7
:100FD00072E00E948824682F80913A0A882361F485
:100FE0006623D1F480917F056FE770E00E940629A7
:100FF00081E080933A0A0AC0813041F480917F05F4
:1010000060E070E00E94062910923A0A6CE271E0FA
:1010100080E090E00C940D2880917F0570E0E6CF91
:101020002F923F924F925F926F927F928F929F92F8
:10103000AF92BF92CF92DF92EF92FF920F931F93E6
:10104000DF93CF93CDB7DEB763970FB6F894DEBFCB
:101050000FBECDBF89837B8B6A8B0091CD09109128
:10106000CE0983E29AE0602F412F0E94152083E28F
:101070009AE060E872E00E941E2C8A899B890D9696
:101080009B838A83EA89FB893896FD83EC838A896E
:101090009B8903969F838E83EA89FB893E96F98715
:1010A000E8878A899B8909969B878A87EA89FB89D1
:1010B0003496FD87EC876AE0262E312C8A899B893D
:1010C000280E391E0B969F878E87EA89FB893C96EE
:1010D000F98BE88B57E0852E912C8A899B89880EA5
:1010E000991E46E0642E712C680E791E35E0432E61
:1010F000512C480E591E6C010894C11CD11C22E0D1
:10110000A22EB12CA80EB91E84E1E82EF12C8091FC
:101110005C0560E00E94972A80916A050E94C92AB6
:10112000892B59F460916D0570916E0580916F0562
:10113000909170050E940D2848DF80915C0561E068
:101140000E94972A809156050E94C92A892BF9F49A
:101150006CE271E080E090E00E940D282091CD09C2
:101160008091CE0990E08E9DA0018F9D500D9E9D97
:10117000500D1124222309F424E12150FA01E20F39
:10118000F11DE153F64F80818130A1F724C0809199
:1011900058050E94C92A892B09F56CE271E080E0AC
:1011A00090E00E940D282091CD098091CE0990E019
:1011B0008E9DA0018F9D500D9E9D500D11242F5F7F
:1011C000243108F020E0FA01E20FF11DE153F64F5F
:1011D00080818130A1F72093CD094EC180915405C3
:1011E0000E94C92A892B09F56CE271E080E090E049
:1011F0000E940D282091CE098091CD09482F50E002
:101200002F5F243008F020E0822F90E08E9DF001C7
:101210008F9DF00D9E9DF00D1124E40FF51FE153FD
:10122000F64F8081813061F726C0809152050E947F
:10123000C92A892B19F56CE271E080E090E00E94E8
:101240000D282091CE098091CD09482F50E022230E
:1012500009F424E02150822F90E08E9DF0018F9DB3
:10126000F00D9E9DF00D1124E40FF51FE153F64F94
:101270008081813061F72093CE09FEC080915A05AC
:101280000E94C92A892B09F042CF6CE271E080E00C
:1012900090E00E940D284091CE096091CD09842FE5
:1012A00090E08E9DF0018F9DF00D9E9DF00D11241C
:1012B000E60FF11DE153F64F8081813009F0FAC04D
:1012C00083E29AE00E94152083E29AE062E872E0ED
:1012D0000E941E2C82E0C8C09091CD099C3031F450
:1012E0008091CE09882309F048C01FC0903181F455
:1012F0008091CE09882309F049C083E29AE061E039
:1013000040E00E94152083E29AE064E872E0A9C000
:10131000943029F48091CE098823F9F406C09830DE
:1013200089F48091CE09882301F583E29AE061E097
:1013300040E00E94152083E29AE064E872E00E9497
:101340001E2C85C0992339F48091CE09813039F55E
:101350008A899B8977C0943031F48091CE0981309D
:10136000E1F4C6016FC0983031F48091CE0981302C
:10137000E1F4C50167C09C3039F48091CE09813019
:1013800031F58E819F815EC0903139F48091CE0914
:10139000813031F58C859D8555C0992331F480913C
:1013A000CE09823031F5C2014DC0943031F48091C4
:1013B000CE09823031F5C30145C0983031F48091B7
:1013C000CE09823039F5C4013DC09C3039F480919A
:1013D000CE09823041F58C819D8134C0903139F441
:1013E0008091CE09823041F58A859B852BC0992357
:1013F00031F48091CE09833051F5C10123C094307E
:1014000039F48091CE09833011F58E859F851AC0FD
:10141000983039F48091CE098330C9F4888999894C
:1014200011C09C3039F48091CE09833081F48A81D7
:101430009B8108C0903159F48091CE09833039F4F2
:101440008885998561E070E040E050E069D983E2E9
:101450009AE060E140E00E94152083E29AE068E8AB
:1014600072E00E941E2C81E00091CD091091CE09FE
:10147000823009F04CCE1FC083E29AE0602F412FEA
:101480000E94152083E29AE06AE872E00E941E2C16
:1014900083E29AE06091CD094091CE090E94152027
:1014A00083E29AE060E872E00E941E2C99819130FC
:1014B000D1F612CFFFCF63960FB6F894DEBF0FBE02
:1014C000CDBFCF91DF911F910F91FF90EF90DF90F3
:1014D000CF90BF90AF909F908F907F906F905F90D4
:1014E0004F903F902F9008951F93182F83E29AE01A
:1014F0000E943D2068EC70E080E090E00E940D28A2
:1015000083E29AE066E040E00E94152083E29AE0E0
:101510006CE872E00E941E2C83E29AE061E041E0F8
:101520000E94152083E29AE069E972E00E941E2C75
:1015300083E29AE061E042E00E94152083E29AE0B3
:101540006DEA72E00E941E2C83E29AE061E043E0C3
:101550000E94152083E29AE061EC72E00E941E2C4A
:10156000123079F01330C1F0113011F583E29AE0B6
:1015700061E040E00E94152083E29AE064ED72E0B1
:1015800015C083E29AE061E040E00E94152083E20A
:101590009AE069ED72E00AC083E29AE060E040E020
:1015A0000E94152083E29AE06EED72E00E941E2CEC
:1015B00083E29AE063E140E00E9415206091CC094B
:1015C000662339F483E29AE068E872E00E941E2CF8
:1015D00006C083E29AE04AE050E00E94BD2B1092E0
:1015E000CD0981E08093CE09EFECF9E0DF01989618
:1015F0001082148A1C9254961C925497319611961C
:1016000089E0E33EF807A1F781E08083848B80A71F
:101610008783838F87A7868782A386AB80E060E07D
:1016200070E0FEDC8091CD09882349F48091CE09D9
:10163000813001F18230F1F0833031F51BC0873009
:1016400071F48091CE09813011F484E013C08230AE
:1016500011F485E00FC08330B9F486E00BC08E3002
:1016600099F48091CE09813011F487E003C0823073
:1016700021F488E08093CC0907C020E030E083307B
:1016800029F421E030E002C020E030E0C9011F91E0
:101690000895EF92FF920F931F93CF93DF9382E011
:1016A00023DF019719F421E030E098C083E29AE04B
:1016B0000E943D2078ECE72E75E0F72E00E010E068
:1016C000C0E0D0E08091CC098430E1F0853038F47E
:1016D000823081F0833090F4813069F509C0863022
:1016E000C9F0863098F08730C9F0883021F51AC0EB
:1016F0008E0121C08E0100501E4F1DC08E01005072
:101700001C4F19C08E0100501A4F15C08E01005099
:10171000184F11C08E010050164F0DC08E010050A1
:10172000144F09C08E010050124F8FE00E3F180772
:1017300014F00DEF1FE08AEF9AE0B8010E948824B0
:10174000F70180831182E091FD0AF091FE0AEC0F0F
:10175000FD1F8083219682E090E0E80EF91E92E062
:10176000C030D90709F0AECF83E29AE00E943D2055
:1017700083E29AE063E041E00E94152083E29AE070
:1017800064EE72E00E941E2C83E29AE063E042E085
:101790000E94152083E29AE063EF72E00E941E2C03
:1017A00083E29AE06091CC094AE050E00E94BD2BB0
:1017B00083E29AE063E143E00E94152083E29AE02D
:1017C0000E94FF1F68EE73E080E090E00E940D2809
:1017D00083E29AE00E94072020E030E0C901DF9117
:1017E000CF911F910F91FF90EF9008956091850523
:1017F000709186058AEF9AE00E948824682F8639C6
:1018000008F466E98091810570E00C9406291F9325
:1018100060918305709184058AEF9AE00E94882484
:10182000182F80917F05612F70E00E9406291123F7
:1018300019F410923A0A03C081E080933A0A1F918A
:1018400008950F931F93CF93DF9383E29AE00E9452
:101850003D2083E29AE061E041E00E94152083E2AE
:101860009AE06AEF72E00E941E2C83E29AE061E047
:1018700042E00E94152083E29AE06EEF72E00E943F
:101880001E2C83E29AE063E142E00E94152083E28D
:101890009AE00E94FF1F08EC15E0C0E0D0E08AEF5C
:1018A0009AE060E070E040E00E948F2482E0C03067
:1018B000D80754F4F80111821082E091FD0AF091EA
:1018C000FE0AEC0FFD1F108221960E5F1F4FFFE0F6
:1018D000CE3FDF0721F783E29AE00E943D2083E2BA
:1018E0009AE00E94072083E29AE062E042E00E94D0
:1018F000152083E29AE061E173E00E941E2C83E2EE
:101900009AE062E041E00E94152083E29AE06AEFEB
:1019100072E00E941E2C1092CC0968EE73E080E009
:1019200090E00E940D28DF91CF911F910F910895B3
:10193000EF92FF920F931F93CF93DF9383E0D4DD59
:10194000019719F421E030E0C5C083E29AE00E94DB
:101950003D2083E29AE061E041E00E94152083E2AD
:101960009AE06EEF72E00E941E2C83E29AE061E042
:1019700042E00E94152083E29AE063EF72E00E9449
:101980001E2C83E29AE067E042E00E94152083E289
:101990009AE06091CC094AE050E00E94BD2B83E2BE
:1019A0009AE063E143E00E94152083E29AE00E94FE
:1019B000FF1FE6ECEE2EE5E0FE2E00E010E0C0E0BA
:1019C000D0E0F70111821082E091FD0AF091FE0A49
:1019D000EC0FFD1F10828091CC098430E1F085303E
:1019E00038F4823081F0833090F4813069F509C099
:1019F0008630C9F0863098F08730C9F0883021F5FC
:101A00001AC08E0121C08E0100501E4F1DC08E01D4
:101A100000501C4F19C08E0100501A4F15C08E0186
:101A20000050184F11C08E010050164F0DC08E018E
:101A30000050144F09C08E010050124FFFE00E3FBE
:101A40001F0714F00DEF1FE08AEF9AE0B80140E0A5
:101A50000E948F24219682E090E0E80EF91E92E029
:101A6000C030D90709F0ADCF83E29AE00E943D2053
:101A700083E29AE062E041E00E94152083E29AE06E
:101A800061E173E00E941E2C83E29AE062E042E092
:101A90000E94152083E29AE063EF72E00E941E2C00
:101AA00083E29AE06091CC094AE050E00E94BD2BAD
:101AB00083E29AE063E143E00E94152068EE73E060
:101AC00080E090E00E940D2883E29AE00E940720C7
:101AD00020E030E0C901DF91CF911F910F91FF907D
:101AE000EF900895EF92FF920F931F93CF93DF93A0
:101AF00081E0FADC019719F421E030E0BDC083E217
:101B00009AE00E943D2083E29AE061E041E00E9479
:101B1000152083E29AE061E273E00E941E2C83E2CA
:101B20009AE061E042E00E94152083E29AE063EFD0
:101B300072E00E941E2C83E29AE067E042E00E947D
:101B4000152083E29AE06091CC094AE050E00E94BF
:101B5000BD2B83E29AE063E143E00E94152083E21B
:101B60009AE00E94FF1FF8ECEF2EF5E0FF2EC0E098
:101B7000D0E000E010E08091CC098430E1F08530C5
:101B800038F4823081F0833090F4813069F509C0F7
:101B90008630C9F0863098F08730C9F0883021F55A
:101BA0001AC0E80121C0E801C050DE4F1DC0E801A5
:101BB000C050DC4F19C0E801C050DA4F15C0E80131
:101BC000C050D84F11C0E801C050D64F0DC0E80139
:101BD000C050D44F09C0E801C050D24F8FE0CE3F73
:101BE000D80714F0CDEFDFE00F5F1F4F8AEF9AE0C8
:101BF000BE01F70140810E948F2482E090E0E80E50
:101C0000F91E92E00030190709F0B5CF83E29AE09F
:101C10000E943D2083E29AE063E041E00E941520AB
:101C200083E29AE062E373E00E941E2C83E29AE072
:101C300063E042E00E94152083E29AE063EF72E0E5
:101C40000E941E2C83E29AE06091CC094AE050E0A9
:101C50000E94BD2B83E29AE063E143E00E941520DD
:101C600068EE73E080E090E00E940D2883E29AE045
:101C70000E94072020E030E0C901DF91CF911F9141
:101C80000F91FF90EF90089583E29AE00E943D202B
:101C900083E29AE060E040E00E94152083E29AE04F
:101CA00060E473E00E941E2C6091CC09662339F435
:101CB00083E29AE068E872E00E941E2C06C083E28C
:101CC0009AE04AE050E00E94BD2B83E29AE061E096
:101CD00041E00E94152083E29AE064ED72E00E94E8
:101CE0001E2C83E29AE061E042E00E94152083E22C
:101CF0009AE069ED72E00E941E2C83E29AE061E0B6
:101D000043E00E94152083E29AE06EED72E00E94AB
:101D10001E2C83E29AE067E042E00E94152083E2F5
:101D20009AE063E573E00E941E2C83E29AE067E08C
:101D300041E00E94152083E29AE06CE573E00E9486
:101D40001E2C83E29AE060E143E00E94152083E2CA
:101D50009AE065E673E00E941E2C83E29AE067E059
:101D600043E00E94152083E29AE06AE673E00E9455
:101D70001E2C1092CD0981E08093CE09EFECF9E0A2
:101D8000DF0198961082148A1C9254961C925497E4
:101D90003196119689E0E33EF807A1F781E0808350
:101DA000848B80A7828F86A7868387AB80E060E0E4
:101DB00070E036D98091CD09882381F48091CE09D5
:101DC000823029F466DC019709F45ECF08958330F0
:101DD00061F4AEDD019709F457CF08958630A9F478
:101DE0008091CE09823041F42CCD813071F47ADEBD
:101DF000019709F449CF0895833011F40C94E40657
:101E0000813019F40E944F03D1CF0895CF92DF9211
:101E1000EF92FF920F931F93CF93DF931EE0C12E9B
:101E2000BFE0DB2ECFEFD0E0A6E9EA2EF12C6091E7
:101E30008305709184058AEF9AE00E948824182F08
:101E400060918505709186058AEF9AE00E9488244A
:101E5000082F83E29AE00E943D2083E29AE060E04E
:101E600040E00E94152083E29AE063E773E00E945D
:101E70001E2C83E29AE06FE040E00E94152083E28E
:101E80009AE06FE773E00E941E2C83E29AE063E021
:101E900041E00E94152083E29AE065E873E00E9429
:101EA0001E2C812F90E06FE070E041E050E00E9436
:101EB000900383E29AE065E042E00E94152083E20D
:101EC0009AE061E973E00E941E2C802F90E06FE0A1
:101ED00070E042E050E00E94900383E29AE06FE0FD
:101EE00043E00E94152083E29AE06BE973E00E94D0
:101EF0001E2CC092CD0982E08093CE09EFECF9E070
:101F0000DF0198961082148A1C9254961C92549762
:101F10003196119629E0E33EF207A1F781E086872A
:101F200082A386AB8093DD0980E060E070E078D822
:101F30008091CD098E30C1F78091CE09813009F0B2
:101F400083C08093200AD0921F0A0E94920580913C
:101F5000210A9091220A22E0883C920709F045C0AC
:101F600083E29AE06EE041E00E94152083E29AE06D
:101F700064E072E00E941E2C8091600560E00E9487
:101F8000972A83E29AE00E94FF1F80916A050E94CF
:101F9000C92A019709F003C180915A050E94C92AF4
:101FA000019709F0FCC0809171050E94D22864E07D
:101FB00070E00E943F2CCB016093210A9093220A8B
:101FC0006FE070E041E050E00E9490036091210AD0
:101FD0007091220A80917F050E94062962E370E0D9
:101FE00080E090E00E940D28D0CF8F3F910569F0EE
:101FF00064F0D093220AC093210A8FEF90E06FE043
:1020000070E041E050E00E9490036091210A7091DD
:10201000220A80917F050E9406294091210A509151
:10202000220A4115510519F410923A0A06C01416F5
:1020300015061CF481E080933A0A60918305709143
:1020400084058AEF9AE09EC0823009F09EC080939A
:10205000200AD0921F0A81E00E9492058091210AF5
:102060009091220A22E0883C920709F058C083E24E
:102070009AE06EE042E00E94152083E29AE064E07C
:1020800072E00E941E2C8091600560E00E94972AF9
:1020900083E29AE00E94FF1F23C06FE070E042E0FD
:1020A00050E00E9490036091210A7091220A809171
:1020B00081050E9406298091210A9091220A853982
:1020C000910544F486E990E06FE070E042E050E072
:1020D0000E94900362E370E080E090E00E940D288F
:1020E00080916A050E94C92A019709F068C0809111
:1020F0005A050E94C92A019709F061C080917105B3
:102100000E94D22864E070E00E943F2CCB017093C3
:10211000220A6093210A663971056CF2BECF8F3FA7
:10212000910569F064F0D093220AC093210A8FEFE1
:1021300090E06FE070E042E050E00E9490038091F8
:10214000210A9091220A8639910564F4F092220ABC
:10215000E092210A86E990E06FE070E042E050E012
:102160000E9490036091210A7091220A809181055A
:102170000E94062960918505709186058AEF9AE094
:102180004091210A0E948F24CFCE833011F427D0B2
:10219000CBCE882309F0C8CE0E942A0748CE83E21E
:1021A0009AE00E9407208091600561E00E94972AD2
:1021B0006CE271E080E090E00E940D282ECF83E277
:1021C0009AE00E9407208091600561E00E94972AB2
:1021D0006CE271E080E090E00E940D28CBCF83E2BA
:1021E0009AE00E943D2083E29AE060E040E00E9495
:1021F000152083E29AE060EA73E00E941E2C609151
:10220000CC09662339F483E29AE068E872E00E9420
:102210001E2C06C083E29AE04AE050E00E94BD2BEB
:1022200083E29AE062E041E00E94152083E29AE0B6
:1022300064EB73E00E941E2C83E29AE062E042E0CD
:102240000E94152083E29AE06CEB73E00E941E2C42
:1022500083E29AE062E043E00E94152083E29AE084
:1022600063EC73E00E941E2C83E29AE06BE043E093
:102270000E94152083E29AE06AEC73E00E941E2C13
:1022800083E29AE06BE040E00E94152083E29AE04E
:1022900063ED73E00E941E2C83E29AE06BE042E063
:1022A0000E94152083E29AE06AED73E00E941E2CE2
:1022B00083E29AE06BE041E00E94152083E29AE01D
:1022C00064EE73E00E941E2C81E08093CD0982E0D1
:1022D0008093CE09EFECF9E0DF0198961082148A22
:1022E0001C9254961C9254973196119689E0E33EC5
:1022F000F807A1F781E08183858B81A782AB80936A
:10230000D909868F828780E060E070E00E94100823
:102310008091CD09813029F48091CE09813009F472
:102320008FD28091CD09813029F48091CE098230FD
:1023300009F430D08091CD09813029F48091CE0903
:10234000833009F499D48091CD098A3029F48091A1
:10235000CE09833009F493D68091CD098A3029F4CF
:102360008091CE09882309F451DD8091CD098A300E
:1023700031F48091CE09823011F40E94A11A80912B
:10238000CD098A3031F48091CE09813011F47CDCA2
:1023900026CF08952F923F924F925F926F927F9235
:1023A0008F929F92AF92BF92CF92DF92EF92FF9265
:1023B0000F931F93DF93CF93CDB7DEB760970FB620
:1023C000F894DEBF0FBECDBF81E090E09093510541
:1023D00080935005988B8F8711E00DE004C021E0B9
:1023E00030E0388B2F8783E29AE00E943D2083E221
:1023F0009AE060E040E00E94152083E29AE06BEEF4
:1024000073E00E941E2C83E29AE067E040E00E94A5
:1024100015206091CC09662339F483E29AE068E8DC
:1024200072E00E941E2C06C083E29AE04AE050E06F
:102430000E94BD2B8F8598890E94AD043CE03093AB
:10244000CD091092CE09EFECF9E0DF0198961082E9
:10245000148A1C9254961C9254973196119689E0D6
:10246000E33EF807A1F71093D3091093D70910930F
:10247000DB091093DF091083148310871487108BF6
:10248000148B108F148F10A314A310A714A710ABD4
:1024900014AB10AFEF85F8893C96FA83E9832F855A
:1024A0003889295F3F4F3C832B838F85988902961B
:1024B0009E838D83EF85F8893D96F887EF832F857E
:1024C0003889285F3F4F3A8729878F8598890396F7
:1024D0009C878B87EF85F8893E96FE87ED87F9E02C
:1024E0002F2E312C2F853889220E331EE4E04E2EFC
:1024F000512C420E531E7AE0672E712C620E731E11
:1025000065E0862E912C820E931E59010894A11C21
:10251000B11C56E0C52ED12CC20ED31E4BE0E42ECA
:10252000F12CE20EF31E81E06F8578890E9410087D
:102530009091CD09943039F48091CE09882309F027
:1025400080C0A2DB50CF983039F48091CE09882327
:1025500009F082C044DE47CF9C3091F58091CE09CE
:10256000882309F082C01092200A00931F0A8F85E9
:1025700098899093220A8093210A80E00E94920514
:102580008091210A9091220A835F914034F022EFDA
:1025900031E03093220A2093210A8091210A909100
:1025A000220A892B31F481E090E09093220A8093F3
:1025B000210AE091210AF091220AF88BEF8713CFCC
:1025C0009031A1F58091CE09882309F05BC010926B
:1025D000200AF1E1F0931F0A2F8538892130310557
:1025E00039F48FE090E09093220A8093210A0AC088
:1025F000EF85F8893E97F093220AE093210A80E064
:102600000E9492056091210A7091220AF2E06130E5
:102610007F071CF022EF31E0E4CE6F3071050CF43F
:10262000DECECB010E97988B8F87DDCE992339F4C0
:102630008091CE09813089F5EF85F8891CC09430EE
:1026400049F48091CE09813099F5B0925105A0925C
:10265000500588C0983039F48091CE09813099F5C1
:102660002D813E817BC09C3059F48091CE09813010
:1026700099F5EB85FC85F0935105E093500572C008
:10268000903149F48091CE09813079F5509251050D
:102690004092500567C0992349F48091CE09823059
:1026A00079F590925105809250055CC0943049F4C0
:1026B0008091CE09823079F5D0925105C0925005B3
:1026C00051C0983039F48091CE09823079F52B8150
:1026D0003C8144C09C3039F48091CE09823079F538
:1026E000E985FA85C8CF903149F48091CE098230CE
:1026F00079F5309251052092500534C0992349F460
:102700008091CE09833071F5709251056092500529
:1027100029C0943049F48091CE09833019F5F092A4
:102720005105E09250051EC0983039F48091CE09D1
:102730008330C1F429813A8111C09C3039F48091F1
:10274000CE09833079F4EF81F88595CF903151F43B
:102750008091CE09833031F42D853E85309351052B
:10276000209350058091CE098093200A9F5F90931B
:102770001F0AE0915005F0915105EE0FFF1FEA533B
:10278000FA4F808191819093220A8093210A81E0FF
:102790000E9492058091210A9091220A84569240CB
:1027A00039F40E94440480911F0A845080931F0AC8
:1027B0008091210A9091220AE2E0883C9E0769F408
:1027C00080911F0A82506091200A0E94CC03809160
:1027D0001F0A845080931F0AA6CE8F3F910599F05F
:1027E00094F02FEF30E03093220A2093210A609179
:1027F0001F0A70E06E5F7F4F4091200A8FEF90E0DC
:1028000050E00E94900380915005909151050197EE
:10281000E091FD0AF091FE0AE80FF91F8091210A6C
:102820008083E0915005F0915105EE0FFF1FEA53B0
:10283000FA4F8091210A9091220A9183808373CE6E
:10284000BF92CF92DF92EF92FF920F931F93CF939D
:10285000DF93C1E0D0E048E0B42E09E0E12C32E0A3
:10286000F32E2FEFC22ED12CD0935105C0935005DB
:1028700083E29AE00E943D2083E29AE060E040E03B
:102880000E94152083E29AE06DEF73E00E941E2CF7
:102890006091CC09662339F483E29AE068E872E03B
:1028A0000E941E2C06C083E29AE04AE050E00E949B
:1028B000BD2B83E29AE06EE042E00E94152083E2A5
:1028C0009AE06BE973E00E941E2C83E29AE06EE0CE
:1028D00043E00E94152083E29AE064EE73E00E94D8
:1028E0001E2C83E29AE060E042E00E94152083E221
:1028F0009AE061E174E00E941E2C83E29AE062E0BB
:1029000043E00E94152083E29AE06EE174E00E94A9
:102910001E2C8091C8059091C90569E070E043E0E4
:1029200050E00E94900383E29AE060E041E00E9460
:10293000152083E29AE065E274E00E941E2C8091EB
:10294000CA059091CB0566E070E041E050E00E943E
:10295000900383E29AE06BE041E00E94152083E25D
:102960009AE06CE274E00E941E2C8091CC0590915C
:10297000CD0561E170E041E050E00E949003B0922B
:10298000CD0982E08093CE09EFECF9E0DF01989663
:102990001082148A1C9254961C9254973196119668
:1029A00029E0E33EF207A1F781E0848F80AB81A3A9
:1029B00085AB80E060E070E00E9410088091CD0956
:1029C000883009F0E9C01091CE09123009F0E4C056
:1029D000809150059091510569E070E042E050E02F
:1029E0000E9490031093200A00931F0A80915005C3
:1029F000909151059093220A8093210A80E00E94D1
:102A000092058091210A9091220A8150924064F0AF
:102A1000F092220AE092210A80E092E069E070E000
:102A200042E050E00E9490038091210A9091220A96
:102A30001816190664F0D093220AC093210A81E087
:102A400090E069E070E042E050E00E949003E09185
:102A5000210AF091220AF0935105E0935005EE0F00
:102A6000FF1FEA53FA4F8081918169E070E043E0F3
:102A700050E00E949003809150059091510501977C
:102A800021F582E090E061E070E041E050E00E94DA
:102A900090038091CA059091CB0566E070E041E01B
:102AA00050E00E94900383E090E06CE070E041E031
:102AB00050E00E9490038091CC059091CD0561E19A
:102AC00070E041E050E00E949003809150059091A9
:102AD00051058050924021F58EEF91E061E070E069
:102AE00041E050E00E9490038091C2099091C30997
:102AF00066E070E041E050E00E9490038FEF91E0CB
:102B00006CE070E041E050E00E9490038091C409C5
:102B10009091C50961E170E041E050E00E949003AE
:102B20002091500530915105C90102978E5F914067
:102B300098F5C901019761E070E041E050E00E9422
:102B40009003E0915005F0915105EE0FFF1FEC53FB
:102B5000FA4F8081918166E070E041E050E00E9490
:102B60009003809150059091510501966CE070E0C2
:102B700041E050E00E949003E0915005F091510532
:102B8000EE0FFF1FE853FA4F8081918161E170E001
:102B900041E050E00E9490038091CD09883009F017
:102BA0005DC08091CE09833009F003CF8093200A65
:102BB00000931F0AE0915005F0915105EE0FFF1FA1
:102BC000EA53FA4F808191819093220A8093210ADF
:102BD00081E00E9492058091210A9091220A8456F8
:102BE000924011F40E9444048091210A9091220A9B
:102BF00042E0883C940729F489E063E00E94CC031A
:102C0000D8CE8F3F910569F064F0D092220AC0922D
:102C1000210A8FEF90E069E070E043E050E00E940D
:102C2000900380915005909151050197E091FD0A24
:102C3000F091FE0AE80FF91F8091210A8083E0914C
:102C40005005F0915105EE0FFF1FEA53FA4F8091A6
:102C5000210A9091220A91838083ABCE8D3009F0B6
:102C6000A8CE8091CE09833011F40ED8FDCD8230EC
:102C700009F09FCEB4DA9DCE2F923F924F925F9291
:102C80006F927F928F929F92AF92BF92CF92DF927C
:102C9000EF92FF920F931F93DF93CF9300D000D05A
:102CA000CDB7DEB783E29AE00E943D2083E29AE04E
:102CB00060E040E00E94152083E29AE063E374E064
:102CC0000E941E2C83E29AE063E041E00E941520FE
:102CD00083E29AE060E474E00E941E2C83E29AE0B2
:102CE00060E042E00E94152083E29AE060E574E033
:102CF0000E941E2C83E29AE060E043E00E941520CF
:102D000083E29AE064E674E00E941E2C81E090E089
:102D100069E070E041E050E00E94900381E090E0C3
:102D200069E070E042E050E00E94900380E090E0B3
:102D300069E070E043E050E00E94900388E08093F7
:102D4000CD0981E08093CE0921E030E040E050E001
:102D500029833A834B835C83F1E08F2E912CA12C45
:102D6000B12C442455243201EFECF9E0DF019896B0
:102D70001082148A1C9254961C9254973196119684
:102D800039E0E33EF307A1F741E04087448F40ABD1
:102D900042A346AB80E060E070E00E9410088091A2
:102DA000CD098E30C1F48091CE098230A1F4A8EC17
:102DB000B5E020E030E0E091FD0AF091FE0AE20F7C
:102DC000F31F8C9180832F5F3F4F129652E020308B
:102DD000350789F704DA8091CD098E3009F09DC05E
:102DE0008091CE09833009F0B9C0140183E29AE0E2
:102DF0006FE043E00E94152083E29AE069E774E007
:102E00000E941E2C83E29AE00E94FF1F80E090E067
:102E1000E091FD0AF091FE0AE80FF91F1082019679
:102E2000A2E081309A07A1F7610154C0ED81FE81D3
:102E30003196FE83ED83E451F54009F050C00894CB
:102E4000E11CF11C011D111D89819A81AB81BC819E
:102E5000E816F9060A071B0709F03FC0C601AA27B2
:102E600097FDA095BA2F481659066A067B060CF402
:102E70006101C60169E070E040E050E00E9490030B
:102E800083E29AE063E143E00E941520A5019401EA
:102E90000DC0C9010197E091FD0AF091FE0AE80F0B
:102EA000F91F10822F5F3F4F4F4F5F4F421653065F
:102EB0006406750674F70894C108D108E091FD0A0C
:102EC000F091FE0AEC0DFD1D9FEF9083A2E0B0E0B3
:102ED000CA0EDB1EEE24FF2487011E821D82809114
:102EE0005A050E94C92A019709F4A0CF83E29AE00B
:102EF0000E94072083E29AE06FE043E00E941520E1
:102F000083E29AE06FE774E00E941E2C6CE271E0AD
:102F100080E090E00E940D2827CF8830F9F480915E
:102F2000CE098130D9F48093200AB9E0B0931F0A0A
:102F3000E981FA81F093220AE093210A80E00E945D
:102F400092058091210A9091220A9C01442737FD25
:102F50004095542F29833A834B835C838091CD091C
:102F6000883009F042C08091CE098230F1F580931B
:102F7000200A39E030931F0A9092220A8092210A97
:102F800080E00E9492058091210A9091220A4C01D2
:102F9000AA2497FCA094BA2C81149104A104B10432
:102FA00071F481E090E069E070E042E050E00E945E
:102FB0009003E1E08E2E912CA12CB12C16C041E0A3
:102FC000841642E0940640E0A40640E0B4066CF0AB
:102FD00080E092E069E070E042E050E00E949003FF
:102FE000812C72E0972EA12CB12C8091CD098830D4
:102FF00009F0BACE8091CE09833009F0B5CE809326
:10300000200A59E050931F0A5092220A4092210A46
:1030100080E00E9492058091210A9091220A2C0161
:10302000662457FC6094762C4114510461047104A9
:1030300071F481E090E069E070E043E050E00E94CC
:10304000900361E0462E512C612C712C8DCE81E0D5
:10305000481682E0580680E0680680E078060CF4A6
:1030600083CE80E092E069E070E043E050E00E94AF
:103070009003412C52E0552E612C712C75CE2F926D
:103080003F924F925F926F927F928F929F92AF92F8
:10309000BF92CF92DF92EF92FF920F931F93DF9335
:1030A000CF93CDB7DEB728970FB6F894DEBF0FBE2B
:1030B000CDBF81E090E098878F8366247724430119
:1030C000AFEFB0E0BA83A983AA24BB24650183E2F1
:1030D0009AE0D3D783E29AE060E040E0A6D783E2AB
:1030E0009AE065E874E00E941E2C83E29AE061E0B9
:1030F00040E09BD76091CC09662339F483E29AE0E3
:1031000068E872E00E941E2C06C083E29AE04AE062
:1031100050E00E94BD2B83E29AE060E041E085D759
:1031200083E29AE06EE874E00E941E2C83E29AE04B
:1031300060E042E07AD783E29AE061EA74E00E94BC
:103140001E2C83E29AE060E043E06FD783E29AE0CE
:1031500066EB74E00E941E2C89819A8169E070E020
:1031600040E050E00E9490038F81988569E070E014
:1031700041E050E00E949003C50169E070E042E048
:1031800050E00E949003C30169E070E043E050E02A
:103190000E949003B8E0B093CD091092CE09EFECF5
:1031A000F9E0DF0198961082148A1C9254961C92C2
:1031B00054973196119629E0E33EF207A1F781E09A
:1031C000808780AB848F858781A385AB8093D70967
:1031D00080E060E070E00E9410088091CD098D30A1
:1031E00031F48091CE09813011F40E94EF1080916A
:1031F000CD098D3009F0A8C08091CE09823019F434
:103200000E94440E64CF833009F0D8C0C601B501D6
:10321000A40193010E94202C615072408040904094
:1032200054F083E29AE06DE040E0FFD683E29AE05A
:103230006AEC74E086C083E29AE06DE040E0F5D687
:1032400083E29AE062ED74E00E941E2C83E29AE031
:103250006EE043E0EAD683E29AE06AED74E00E9411
:103260001E2C91E0E92EF12C012D112D8F819885D6
:10327000AA2797FDA095BA2F8B839C83AD83BE832D
:1032800046C091E0E916F1040105110509F054C1A9
:103290002B803C804D805E80A1E02A16A2E03A0699
:1032A000A0E04A06A0E05A0634F02A183B084C0871
:1032B0005D088401730183E29AE061E140E0B5D6E4
:1032C00083E29AE0B201A1012AE030E00E94CE2B15
:1032D00065E070E080E090E00E940D28C101019758
:1032E0002091FD0A3091FE0A280F391F8981F901CA
:1032F0008083F101EE0FFF1FEA53FA4FA981BA81D3
:10330000B183A0830894E11CF11C011D111D6E14F2
:103310007F04800691060CF0B4CF83E29AE06DE062
:1033200040E083D683E29AE061EE74E00E941E2CB6
:1033300083E29AE06EE043E078D683E29AE065EEBD
:1033400074E00E941E2C2BCF8830C1F58091CE09ED
:103350008130A1F58093200AB9E0B0931F0AEF8174
:10336000F885F093220AE093210A80E00E949205FA
:103370008091210A9091220A98878F83892B69F482
:1033800081E090E069E070E041E050E00E9490034D
:10339000A1E0B0E0B887AF8311C0EF81F885E150BC
:1033A000F24064F080E092E069E070E041E050E0DB
:1033B0000E94900380E092E098878F838091CD09EE
:1033C000883009F042C08091CE098230F1F58093B7
:1033D000200A99E090931F0AB092220AA092210A33
:1033E00080E00E9492058091210A9091220A5C015E
:1033F000CC24B7FCC094DC2CA114B104C104D104CA
:1034000071F481E090E069E070E042E050E00E94F9
:10341000900301E0A02EB12CC12CD12C16C0A1E04C
:10342000AA16A2E0BA06A0E0CA06A0E0DA066CF08E
:1034300080E092E069E070E042E050E00E9490039A
:10344000A12C12E0B12EC12CD12C8091CD09883055
:1034500009F042C08091CE098330F1F58093200AB3
:10346000B9E0B0931F0A7092220A6092210A80E0AC
:103470000E9492058091210A9091220A3C018824A1
:1034800077FC8094982C611471048104910471F488
:1034900081E090E069E070E043E050E00E9490033A
:1034A000B1E06B2E712C812C912C16C0E1E06E16D0
:1034B000E2E07E06E0E08E06E0E09E066CF080E052
:1034C00092E069E070E043E050E00E949003612CDC
:1034D000A2E07A2E812C912C8091CD09883009F0C0
:1034E0005ECE8091CE09882309F059CE1092200A31
:1034F000F9E0F0931F0A89819A819093220A8093C0
:10350000210A81E00E949205A091210AB091220A2D
:10351000BA83A983AF3FB10509F00CF440CE8FEF19
:1035200090E069E070E040E050E00E949003EFEF2F
:10353000F0E0FA83E98333CE2A0C3B1C4C1C5D1C63
:10354000ABCE2F923F924F925F926F927F928F926B
:103550009F92AF92BF92CF92DF92EF92FF920F9322
:103560001F93DF93CF93CDB7DEB72B970FB6F894A9
:10357000DEBF0FBECDBF83E29AE07FD583E29AE043
:1035800060E040E052D583E29AE06CEE74E00E9485
:103590001E2C6091CC09662339F483E29AE068E836
:1035A00072E00E941E2C06C083E29AE04AE050E0DE
:1035B0000E94BD2B83E29AE064E041E036D583E2CD
:1035C0009AE060E075E00E941E2C83E29AE060E0E1
:1035D00042E02BD583E29AE061E175E00E941E2C67
:1035E00083E29AE060E043E020D583E29AE065E27E
:1035F00075E00E941E2C89E08093CD0981E08093C4
:10360000CE09EFECF9E0DF0198961082148A1C9243
:1036100054961C9254973196119629E0E33EF20796
:10362000A1F781E08187858F81AB82A386AB01E022
:10363000602E712C11E0812E912CB8E0AB2EB12CB4
:10364000AAE0CA2ECE0101969B878A8783E29AE080
:103650006FE043E0EAD483E29AE06FE774E00E940F
:103660001E2C83E29AE0D3D480E060E070E00E94F8
:1036700010088091CD09893009F09FC08091CE0952
:103680008130C9F58093200AC0921F0A7092220AE5
:103690006092210A80E00E9492056090210A709059
:1036A000220A6114710499F481E090E06AE070E00C
:1036B00041E050E00E94900381E090E06AE070E019
:1036C00041E050E00E949003F1E06F2E712C809158
:1036D000210A9091220A853691050CF4B7CF84E631
:1036E00090E06AE070E041E050E00E949003E4E680
:1036F0006E2E712CABCF823081F58093200AC09260
:103700001F0A9092220A8092210A80E00E9492056C
:103710008090210A9090220A8114910459F481E04A
:1037200090E06AE070E042E050E00E94900371E0B7
:10373000872E912C8091210A9091220A09970CF4EE
:1037400085CF88E090E06AE070E042E050E00E94BF
:10375000900368E0862E912C79CF833009F048C021
:103760008093200AC0921F0AB092220AA092210AD6
:1037700080E00E949205A090210AB090220AA11434
:10378000B10459F481E090E06AE070E043E050E079
:103790000E94900351E0A52EB12C8091210A9091B6
:1037A000220A09970CF452CF88E090E06AE070E0BA
:1037B00042E050E00E9490033BC08E30C9F48091FB
:1037C000CE098230A9F4A6ECB5E020E030E0E0912B
:1037D000FD0AF091FE0AE20FF31F8C9180832F5FA8
:1037E0003F4F129692E02130390789F70E94EF107F
:1037F0008091CD098E3009F029CF8091CE09833098
:1038000009F024CF8A149B04B9F481E090E06AE0C7
:1038100070E042E050E00E94900388E090E06AE0AF
:1038200070E042E050E00E94900341E0842E912C31
:1038300038E0A32EB12C0ACF83E29AE06EE043E099
:10384000F4D383E29AE062E872E00E941E2C83E2E5
:103850009AE06FE043E0E9D383E29AE069E774E03D
:103860000E941E2C10E0A814B9040CF411E0EA85A3
:10387000FB8529E011922A95E9F71123A9F481E04B
:1038800090E0881599055CF0A816B90644F0E1E0CF
:10389000F0E0EC0FFD1FE80FF91F31E030830196D7
:1038A0008930910571F713C088E090E08816990679
:1038B0005CF08A159B0544F0E1E0F0E0EC0FFD1FA1
:1038C000E80FF91F21E020830197882379F783E22D
:1038D0009AE095D3112381F084E690E0FC016E9E7E
:1038E000C0016F9E900D7E9E900D11241C014424FA
:1038F00037FC4094542C32C184E690E09C01629ED7
:10390000C001639E900D729E900D11241C014424F1
:1039100037FC4094542CDD24D394E1E0F0E0EC0F2C
:10392000FD1FED0DF11D8081813009F07FC083E224
:103930009AE063E140E079D383E29AE06D2D4AE0BA
:1039400050E00E94BD2B83E29AE063E143E06DD337
:1039500000E010E034E0D31619F13D1548F082E0A4
:10396000D816B1F08D15C0F091E0D916B1F50CC0A4
:10397000E6E0DE16E9F0DE16B8F0F7E0DF16E1F07B
:1039800028E0D21651F51CC08AEF9AE0B8011DC09C
:10399000B80160507E4F17C0B80160507C4F13C013
:1039A000B80160507A4F0FC0B8016050784F0BC01B
:1039B000B8016050764F07C0B8016050744F03C023
:1039C000B8016050724F8AEF9AE0A2D7E091FD0AE9
:1039D000F091FE0AE00FF11F80830F5F1F4F32E06E
:1039E0000030130709F0B6CF80915A050E94C92A0A
:1039F000019709F0A9C0EE24FF24870112C061E0FD
:103A000070E080E090E00E940D2880915A050E94AD
:103A1000C92A892B09F498C00894E11CF11C011DE6
:103A2000111D2E143F04400651064CF7D39488E034
:103A30008D1508F470CF71CFE1E0F0E0EC0FFD1FC1
:103A4000ED0DF11D8081813009F085C083E29AE09F
:103A500063E140E0EAD283E29AE06D2D4AE050E073
:103A60000E94BD2B83E29AE063E143E0DED200E0F6
:103A700010E094E0D91619F19D1548F0E2E0DE1649
:103A8000B1F0ED15C0F0F1E0DF16B1F50CC026E0A5
:103A9000D216E9F0D216B8F037E0D316E1F088E09C
:103AA000D81651F51CC08AEF9AE0B8011DC0B801C4
:103AB00060507E4F17C0B80160507C4F13C0B801F2
:103AC00060507A4F0FC0B8016050784F0BC0B801FA
:103AD0006050764F07C0B8016050744F03C0B80102
:103AE0006050724F8AEF9AE013D7E091FD0AF0918F
:103AF000FE0AE00FF11F80830F5F1F4F92E000303E
:103B0000190709F0B6CF80915A050E94C92A01977A
:103B1000D9F4EE24FF24870111C061E070E080E059
:103B200090E00E940D2880915A050E94C92A892B95
:103B300059F00894E11CF11C011D111D2E143F04C5
:103B40004006510654F707C064EF71E080E090E052
:103B50000E940D287BCDDA9409F06ECF28E0D22E9A
:103B60006BCF1F9311E083E29AE087D283E29AE061
:103B700060E040E05AD283E29AE06AE375E00E9496
:103B80001E2C83E29AE062E042E04FD283E29AE0A8
:103B90006AE475E00E941E2C83E29AE069E042E04C
:103BA00044D283E29AE069ED72E00E941E2C83E227
:103BB0009AE06FE042E039D283E29AE06EED72E083
:103BC0000E941E2C1093CD0982E08093CE09EFEC69
:103BD000F9E0DF0198961082148A1C9254961C9288
:103BE00054973196119689E0E33EF807A1F7158BBB
:103BF000148F12A380E060E070E00E9410088091B2
:103C0000CD09883059F48091CE09823039F40E9470
:103C1000490B019709F4A7CF0E94EF108091CD09BD
:103C20008E3059F48091CE09823039F40E94980C7C
:103C3000019709F498CF0E94EF108091CD0981304F
:103C400031F48091CE09823011F40E94EF101F915F
:103C5000089582E061E00E94972A0E94070C0E946A
:103C6000F60B0E942A077DCF8091520562E00E94E8
:103C7000E4298091540562E00E94E4298091560570
:103C800062E00E94E4298091580562E00E94E429E4
:103C90008BE062E00E94E42980915C0561E00E9473
:103CA000E42980915E0561E00E94E429809160052D
:103CB00061E00E94E4298091620561E00E94E429AC
:103CC0008091640562E00E94E4298091660562E0CB
:103CD0000E94E4298091680562E00E94E4298091B5
:103CE0006A0562E00E94E42980915C0561E00E941F
:103CF000972A80915E0561E00E94972A8091600575
:103D000061E00E94972A8091620561E00E94972AF3
:103D10008091730561E00E94E4298091750561E05E
:103D20000E94E42980917D0561E00E94E429809150
:103D30007B0561E00E94E4298091790561E00E94A1
:103D4000E4298091770561E00E94E42980917F0554
:103D500061E00E94E42983E29AE064E144E020E02B
:103D600092D181E090E09093130B8093120B80E04E
:103D700092E090930F0B80930E0B8BEF9AE060E034
:103D80002BD785E061E00E94E42985E060E00E9495
:103D9000972A86E061E00E94E42986E060E00E94C4
:103DA000972A87E061E00E94E42987E060E00E94B2
:103DB000972A86E161E00E94E42986E160E00E94A2
:103DC000972A87E161E00E94E42987E160E00E9490
:103DD000972A88E161E00E94E42988E160E00E947E
:103DE000972A89E161E00E94E42989E160E00E946C
:103DF000972A8AE161E00E94E4298AE160E00E945A
:103E0000972A8BE161E00E94E4298BE160E00E9447
:103E1000972A8CE161E00E94E4298CE160E00E9435
:103E2000972A8DE161E00E94E4298DE160E00E9423
:103E3000972A8FE161E00E94E4298FE160E00E940F
:103E4000972A81E261E00E94E42981E260E00E9419
:103E5000972A83E261E00E94E42983E260E00E9405
:103E6000972A85E261E00E94E42985E260E00E94F1
:103E7000972A87E261E00E94E42987E260E00E94DD
:103E8000972A89E261E00E94E42989E260E00E94C9
:103E9000972A8EE261E00E94E4298EE260E00E94AF
:103EA000972A80E361E00E94E42980E360E00E94B9
:103EB000972A82E361E00E94E42982E360E00E94A5
:103EC000972A84E361E00E94E42984E360E00E9491
:103ED000972A86E361E00E94E42986E360E00E947D
:103EE000972A87E361E00E94E42987E360E00E946B
:103EF000972A88E361E00E94E42988E360E00E9459
:103F0000972A89E361E00E94E42989E360E00E9446
:103F1000972A8AE361E00E94E4298AE360E00E9434
:103F2000972A8BE361E00E94E4298BE360E00E9422
:103F3000972A8CE361E00E94E4298CE360E00E9410
:103F4000972A8DE361E00E94E4298DE360E00E94FE
:103F5000972A8EE361E00E94E4298EE360E00E94EC
:103F6000972A8FE361E00E94E4298FE360E00E94DA
:103F7000972A80E461E00E94E42980E460E00E94E6
:103F8000972A81E461E00E94E42981E460E00E94D4
:103F9000972A82E461E00E94E42982E460E00E94C2
:103FA000972A83E461E00E94E42983E460E00E94B0
:103FB000972A84E461E00E94E42984E460E00C94A0
:103FC000972A08950895FC011382128282E995E0F0
:103FD000918380830895FC01A081B18118962D9171
:103FE0003C9119976FEFF90119950895DC01ED9156
:103FF000FC910284F385E02D40E019950895FC01C1
:104000006581862F816085836960CF01EFCFFC01D8
:1040100065816E7F65836860E9CFFC016581862FCD
:10402000846085836C60CF01E1CFDC0117969C91A1
:104030001797491710F0492F415018968C911897EF
:10404000803139F4943029F4E42FF0E0E256FA4F4D
:1040500004C0E42FF0E0EE55FA4F8081680F6068ED
:10406000CD01C4CFDC01ED91FC910284F385E02DFC
:1040700041E0199581E090E0089561E0B7DF80EDBF
:1040800097E00C946628CF93DF93EC01423018F050
:104090008C8188608C834F836887222329F041308C
:1040A00019F48C8184608C8364E670E080E090E099
:1040B000B4D76C8164FD2EC0E881F9810284F38558
:1040C000E02DCE0163E042E0199584E991E1FED74D
:1040D000E881F9810284F385E02DCE0163E042E0BE
:1040E000199584E991E1F2D7E881F9810284F38599
:1040F000E02DCE0163E042E0199586E990E0E6D735
:10410000E881F9810284F385E02DCE0162E042E08E
:10411000199511C06062CE0169DF84E991E1D6D7BB
:104120006C816062CE0162DF86E990E0CFD76C815E
:104130006062CE015BDF6C816062CE0157DF84E09C
:104140008D83CE016ADFCE0198DF82E08E83CE01BF
:1041500066E04CDFCE013FDFDF91CF9108950F93F2
:104160001F938C01FC01858561E00E94972AF8016C
:10417000858560E00E94972A1F910F910895BF9254
:10418000CF92DF92EF92FF920F931F93CF93DF9323
:10419000D82EC92EB42E282F392FC9018C01C0E08A
:1041A000D0E0E62EFF240DC0B7010C2E02C075959D
:1041B00067950A94E2F76170F80185850E94972A55
:1041C00021960F5F1F4FCB1578F38D2D9C2DC7DFE8
:1041D000DF91CF911F910F91FF90EF90DF90CF90E3
:1041E000BF9008950F931F93CF93DF93EC01162F89
:1041F000042F60E0413009F461E08B850E94972A2A
:104200008C858F3F19F060E00E94972A023089F078
:104210008C8184FF04C0CE01612F48E00DC0612F66
:1042200070E084E0759567958A95E1F7CE0144E0EA
:10423000A6DFCE01612F44E0A2DFDF91CF911F9175
:104240000F9108956F927F928F92AF92CF92EF92DB
:104250000F931F93DF93CF93CDB7DEB73C01162F9B
:104260008E2DF301438724870587E686C786A08ABB
:10427000818A9E85928B9F85938B9889948B99894F
:10428000958B61E00E94E429F301878561E00E943B
:10429000E429F301808961E00E94E429F301818926
:1042A00061E00E94E4291123A1F4F301828961E015
:1042B0000E94E429F301838961E00E94E429F3016B
:1042C000848961E00E94E429F301858961E00E940C
:1042D000E429F301838561E00E94E429F3018485E8
:1042E0008F3F19F061E00E94E429F301858561E0C8
:1042F0000E94E429112319F0F301148203C080E124
:10430000F3018483F301838560E00E94972AF3011F
:10431000858560E00E94972AF30184858F3F19F01C
:1043200060E00E94972A8FEFF301868B1286118638
:10433000CF91DF911F910F91EF90CF90AF908F9021
:104340007F906F900895DF92EF92FF920F931F93EB
:104350008C01D62E7A01862F61E00E94E429D801D3
:104360005696DC9256971A96FC92EE921997ED911A
:10437000FC910084F185E02DC80160E019951F9142
:104380000F91FF90EF90DF900895DC01362F569645
:104390002C9156972F3F49F1E22FF0E0E254FE4F67
:1043A000E491EE2379F019968D919C911A97892BBF
:1043B00019F4822F70E005C06FEF70E0631B710984
:1043C000822F24C719968D919C911A97662319F014
:1043D000892B39F402C0019721F4822F61E00C94FB
:1043E000972A822F60E00C94972A08956F927F920B
:1043F0008F92AF92BF92CF92DF92EF92FF920F9384
:104400001F933C01162FF42ED22EB02EAE2C8C2CE6
:10441000DADD8AEA95E0D3018D939C9300D00F9268
:10442000EDB7FEB73196ADB7BEB711961C921182AB
:1044300012821382C30161E0412F2FEF0F2DED2C6B
:10444000CB2C00DF0F900F900F900F901F910F91CA
:10445000FF90EF90DF90CF90BF90AF908F907F90C4
:104460006F90089520915C0A30E080915B0A281BD0
:104470003109C901089540915B0A80915C0A48178F
:1044800018F02FEF3FEF0AC0E42FF0E0E55CF54FA6
:104490008081282F30E04F5F40935B0AC901089567
:1044A000E0915B0A80915C0AE81718F0EFEFFFEFEC
:1044B00006C0F0E0E55CF54F8081E82FF0E0CF0129
:1044C000089508951092830A1092820A88EE93E06C
:1044D000A0E0B0E08093840A9093850AA093860AB6
:1044E000B093870A8AEB95E09093810A8093800AC3
:1044F0000895CF92DF92EF92FF920F931F93CF9385
:10450000DF937C016B018A0180917F0A8823A1F0EF
:10451000C0E0D0E00DC0D701ED91FC91D601AC0F09
:10452000BD1F0190F081E02DC7016C911995219676
:10453000C017D10780F303C0CB01642F39D0C80165
:10454000DF91CF911F910F91FF90EF90DF90CF906F
:104550000895DF93CF930F92CDB7DEB7FC01698347
:1045600080917F0A8823C9F080917E0A803238F0DA
:1045700081E090E09383828320E030E014C080915A
:104580007D0AE82FF0E0E35AF54F998190838F5F21
:1045900080937D0A80937E0A04C0CE01019661E07B
:1045A00007D021E030E0C9010F90CF91DF9108954D
:1045B000482F613210F081E0089580918C0A843098
:1045C00011F082E008956093D70AA6EBBAE0842F39
:1045D0009C01F90102C081918D938E2F841B861757
:1045E000D0F380E008951F920F920FB60F920BB692
:1045F0000F9211242F933F934F935F936F937F9369
:104600008F939F93AF93BF93EF93FF938091B900E4
:1046100090E0887F90708036910509F4F2C0813671
:104620009105CCF58832910509F47BC0893291055A
:10463000B4F48031910509F46FC0813191053CF4E7
:10464000009709F447C1089709F04FC165C0883148
:10465000910509F466C0809709F047C182C0803493
:10466000910509F4A4C08134910544F48033910587
:1046700009F482C0C89709F038C189C08035910516
:1046800009F489C08835910509F496C088349105EC
:1046900009F02BC1AEC08839910509F413C18939DD
:1046A0009105ECF48837910509F4ABC08937910581
:1046B0004CF48836910509F4A4C08037910509F0BF
:1046C00014C19FC08838910509F4FCC08039910558
:1046D00009F49DC08038910509F007C198C0803B5E
:1046E000910509F4C6C0813B91054CF4803A9105CF
:1046F00009F49FC0883A910509F0F7C0BAC0803C20
:10470000910509F4E3C0883C910509F4DFC0883BBA
:10471000910509F0EAC0C2C080918D0A8093BB0068
:10472000CFC09091B40A8091B50A981768F490911F
:10473000B40AE92FF0E0EC56F54F80818093BB007E
:104740009F5F9093B40ABCC080918E0A882309F4BD
:104750004BC085ED8093BC008091BC0084FDFCCFF4
:10476000C2C080E28093F90A85ED8093BC008091FD
:10477000BC0084FDFCCFB7C080E38093F90A85EDCF
:104780008093BC008091BC0084FDFCCFACC088E36A
:104790008093F90A9BC08091B40A9091BB00E82FE6
:1047A000F0E0EC56F54F90838F5F8093B40A9091C0
:1047B000B40A8091B50A82C08091B40A9091BB007E
:1047C000E82FF0E0EC56F54F90838F5F8093B40AAA
:1047D00080918E0A882341F085ED8093BC00809102
:1047E000BC0084FDFCCF7FC081E080938F0A84EA07
:1047F0006EC085ED8093BC008091BC0084FDFCCF31
:1048000072C083E080938C0A1092F80A59C080919C
:10481000F80A803208F056C08091F80A9091BB00E7
:10482000E82FF0E0E852F54F90838F5F8093F80A0D
:1048300047C08091F80A803230F4E091F80AF0E045
:10484000E852F54F108285ED8093BC008091BC004A
:1048500084FDFCCF10928C0A6091F80AE091920AD4
:10486000F091930A88ED9AE070E019951092F80A99
:104870002DC084E080938C0A1092D60A1092D70A39
:10488000E091900AF091910A19958091D70A8823B6
:1048900029F481E08093D70A1092B60A9091D60A43
:1048A000E92FF0E0EA54F54F80818093BB009F5FD1
:1048B0009093D60A9091D60A8091D70A981710F44F
:1048C00085EC01C085E88093BC000FC085EC809327
:1048D000BC0009C01092F90A85ED8093BC0080915C
:1048E000BC0084FDFCCF10928C0AFF91EF91BF9128
:1048F000AF919F918F917F916F915F914F913F9178
:104900002F910F900BBE0F900FBE0F901F90189518
:10491000F999FECF72BD61BDF89A80B50895F999F5
:10492000FECF1FBA72BD61BD40BD0FB6F894FA9AB2
:10493000F99A0FBE0895FC018385882331F4809194
:10494000C10087728093C1000895813031F4809155
:10495000C90087728093C9000895823031F4809134
:10496000D10087728093D1000895833029F480911B
:10497000310187728093310108951F920F920FB613
:104980000F920BB60F9211242F933F934F935F9387
:104990006F937F938F939F93AF93BF93EF93FF9307
:1049A0008091C0008093030B3091C6003093040BBC
:1049B0002091FF0A2093050B84FF10C08091C00056
:1049C0008F7E8093C0008091100B9091110B90937B
:1049D000090B8093080B81E08093FF0A213091F44A
:1049E000332369F482E08093FF0A8091FB0A90915F
:1049F000FC0A01969093010B8093000B4BC0109220
:104A0000FF0A48C02230A1F48091080B9091090B55
:104A100001979093090B8093080B892BD9F583E0BC
:104A20008093FF0AE091FB0AF091FC0A308332C0C8
:104A3000233081F5E091000BF091010BF0931E0BF8
:104A4000E0931D0B308340911D0B50911E0B4F5F67
:104A50005F4F50931E0B40931D0B8091FB0A90916A
:104A6000FC0A20910C0B30910D0B820F931F4817FD
:104A7000590760F01092FF0AE091210BF091220B90
:104A8000309741F08091060B199504C05093010BAB
:104A90004093000BFF91EF91BF91AF919F918F9148
:104AA0007F916F915F914F913F912F910F900BBE2E
:104AB0000F900FBE0F901F9018951F920F920FB678
:104AC0000F920BB60F9211242F933F934F935F9346
:104AD0006F937F938F939F93AF93BF93EF93FF93C6
:104AE0008091070B80931C0B882361F41092C50002
:104AF0008091190B8093C4001092C60081E08093CE
:104B0000070B40C0813081F41092C5008091180BD2
:104B10008093C4001092C60082E08093070B10922D
:104B20000B0B10920A0B2EC080910A0B90910B0B6D
:104B300090931B0B80931A0BE091FD0AF091FE0AF3
:104B4000E80FF91F20812093C6009C012F5F3F4F83
:104B500030931B0B20931A0B80910E0B90910F0B2F
:104B60002817390759F4E0911F0BF091200B30976B
:104B700011F080E019951092070B04C030930B0BD5
:104B800020930A0BFF91EF91BF91AF919F918F916D
:104B90007F916F915F914F913F912F910F900BBE3D
:104BA0000F900FBE0F901F90189521E030E03093CA
:104BB000110B2093100B88E090E090930D0B8093E5
:104BC0000C0B3093130B2093120B90930F0B8093CD
:104BD0000E0B1092060B08951F93CF93DF93EC01F9
:104BE000162FF894A8DE1C8F112321F487E08D8FF7
:104BF00084E10BC0113021F483E08D8F8AE005C081
:104C0000123021F481E08D8F85E08E8F8B8D8F3F68
:104C100029F061E0D9D38B8D61E089D48B8588231D
:104C2000D1F481E061E0D0D31092C5008D8D8093E6
:104C3000C4008091C00082608093C0008091C20057
:104C40008E608093C2008091C10088648093C1000F
:104C50001092C60053C08130D1F482E161E0B4D338
:104C60001092CD008D8D8093CC008091C800826021
:104C70008093C8008091CA008E608093CA008091A2
:104C8000C90088648093C9001092CE0037C082307A
:104C9000D1F480E161E098D31092D5008D8D80939E
:104CA000D4008091D00082608093D0008091D200A7
:104CB0008E608093D2008091D10088648093D1006F
:104CC0001092D6001BC08330C9F48EE061E07CD323
:104CD000109235018D8D8093340180913001826076
:104CE00080933001809132018E60809332018091F7
:104CF00031018864809331011092360181E08C8704
:104D00008B899C890DD08A839B834B895C8960E069
:104D100070E00E9433017894DF91CF911F91089544
:104D20000F931F93CF93DF93BC018230910510F452
:104D300062E070E0E0912E0BF0912F0B40E050E02C
:104D4000A0E0B0E024C08081918186179707D0F061
:104D50008617970771F482819381109729F0139633
:104D60009C938E9312972CC090932F0B80932E0BB5
:104D700027C04115510519F08417950718F48D01C6
:104D8000AC01EF01DF01828193819C01F901309731
:104D9000D1F641155105F9F0CA01861B970B8430F5
:104DA000910580F48A819B810115110521F0F8019C
:104DB0009383828304C090932F0B80932E0BFE016C
:104DC000329645C0FE01E80FF91F61937193029777
:104DD000998388833CC080912C0B90912D0B892B5B
:104DE00041F48091890590918A0590932D0B8093D1
:104DF0002C0B40918B0550918C054115510541F4C8
:104E00004DB75EB78091870590918805481B590B77
:104E100020912C0B30912D0B24173507B0F4CA01CB
:104E2000821B930B8617970780F0AB014E5F5F4F95
:104E30008417950750F0420F531F50932D0B40934A
:104E40002C0BF9016193719302C0E0E0F0E0CF0117
:104E5000DF91CF911F910F910895CF93DF939C0124
:104E6000009709F48FC0EC0122971B821A8260918F
:104E70002E0B70912F0B6115710581F4888199813A
:104E8000820F931F20912C0B30912D0B281739077F
:104E900039F5D0932D0BC0932C0B74C0DB0140E08F
:104EA00050E0AC17BD0708F1BB83AA83FE01219136
:104EB0003191E20FF31FAE17BF0779F48D919C91EA
:104EC0001197280F391F2E5F3F4F39832883129681
:104ED0008D919C9113979B838A834115510571F4A1
:104EE000D0932F0BC0932E0B4DC012968D919C9199
:104EF0001397AD01009711F0DC01D3CFDA011396BF
:104F0000DC93CE931297FA0121913191E20FF31FB6
:104F1000CE17DF0769F488819981280F391F2E5F2A
:104F20003F4FFA01318320838A819B81938382835F
:104F3000E0E0F0E0DB0112968D919C9113970097D1
:104F400019F0BC01FD01F6CFAB014E5F5F4FDB01F5
:104F50008D919C91840F951F20912C0B30912D0BDE
:104F60002817390779F4309729F410922F0B1092F3
:104F70002E0B02C0138212824250504050932D0BD0
:104F800040932C0BDF91CF9108951F920F920FB693
:104F90000F9211242F933F938F939F93AF93BF93BF
:104FA0008091270B9091280BA091290BB0912A0B8F
:104FB00030912B0B0196A11DB11D232F2D5F2D3795
:104FC00020F02D570196A11DB11D20932B0B80932E
:104FD000270B9093280BA093290BB0932A0B809159
:104FE000230B9091240BA091250BB091260B0196D9
:104FF000A11DB11D8093230B9093240BA093250B2F
:10500000B093260BBF91AF919F918F913F912F91BC
:105010000F900FBE0F901F9018959B01AC017FB7AA
:10502000F8948091230B9091240BA091250BB091C3
:10503000260B66B5A89B05C06F3F19F00196A11D10
:10504000B11D7FBFBA2FA92F982F8827860F911DDA
:10505000A11DB11D62E0880F991FAA1FBB1F6A9591
:10506000D1F7BC012DC0FFB7F8948091230B90912C
:10507000240BA091250BB091260BE6B5A89B05C08B
:10508000EF3F19F00196A11DB11DFFBFBA2FA92F47
:10509000982F88278E0F911DA11DB11DE2E0880F6A
:1050A000991FAA1FBB1FEA95D1F7861B970B885E35
:1050B0009340C8F2215030404040504068517C4FEE
:1050C000211531054105510571F60895019739F013
:1050D000880F991F880F991F02970197F1F708957C
:1050E000789484B5826084BD84B5816084BD85B5C3
:1050F000826085BD85B5816085BDEEE6F0E080818A
:1051000081608083E1E8F0E01082808182608083AA
:10511000808181608083E0E8F0E08081816080832D
:10512000E1EBF0E0808184608083E0EBF0E080815F
:1051300081608083E1E9F0E080818260808380810A
:1051400081608083E0E9F0E0808181608083E1EA32
:10515000F0E0808182608083808181608083E0EAEA
:10516000F0E0808181608083E1E2F1E08081826013
:105170008083808181608083E0E2F1E080818160D2
:105180008083EAE7F0E080818460808380818260B0
:105190008083808181608083808180688083109299
:1051A000C1000895382F863308F0365320917B00D4
:1051B000832F86958695869590E08170907043E068
:1051C000880F991F4A95E1F7277F282B20937B00B2
:1051D000377080918D058295880F880F807C832B96
:1051E00080937C0080917A00806480937A00809123
:1051F0007A0086FDFCCF2091780040917900942FB1
:1052000080E030E0282B392BC90108951F93CF93FC
:10521000DF93182FEB0161E0D7D0209709F4CAC0C3
:10522000CF3FD10509F4C9C0E12FF0E0E254FE4FB1
:105230008491893009F466C08A30B0F48430F1F189
:10524000853040F4823059F1833070F5813009F0B7
:10525000AEC020C0873009F443C0883008F048C091
:10526000863009F0A4C034C08D3009F478C08E3087
:1052700038F48B3009F45AC08C3008F066C04CC04A
:10528000803109F480C0813109F487C08F3009F082
:105290008EC06FC084B5806884BDC7BD91C084B521
:1052A000806284BDC8BD8CC080918000806880937E
:1052B0008000D0938900C093880082C080918000D4
:1052C000806280938000D0938B00C0938A0078C066
:1052D0008091B00080688093B000C093B30070C02C
:1052E0008091B00080628093B000C093B40068C029
:1052F00080919000806880939000D0939900C09333
:1053000098005EC080919000806280939000D0935E
:105310009B00C0939A0054C0809190008860809355
:105320009000D0939D00C0939C004AC08091A00043
:1053300080688093A0008091A0008F7B8093A00064
:10534000D093A900C093A8003BC08091A0008062C8
:105350008093A000D093AB00C093AA0031C080918D
:10536000A00088608093A000D093AD00C093AC00F3
:1053700027C080912001806880932001D09329016B
:10538000C09328011DC0809120018062809320017C
:10539000D0932B01C0932A0113C080912001886013
:1053A00080932001D0932D01C0932C0109C0C038F7
:1053B000D1051CF4812F60E002C0812F61E0B7D0DD
:1053C000DF91CF911F910895CF93DF93482F50E045
:1053D000CA0188589E4FFC0134914E5C5E4FFA0121
:1053E0008491882369F190E0880F991FFC01EC51AA
:1053F000FF4FA591B491FC01E250FF4FC591D491AC
:10540000662351F42FB7F8948C91932F90958923AC
:105410008C93888189230BC0623061F42FB7F89494
:105420008C91932F909589238C938881832B8883EB
:105430002FBF06C09FB7F8948C91832B8C939FBF8E
:10544000DF91CF910895893009F449C08A30A0F4E2
:10545000843051F1853040F4823079F1833000F5A9
:10546000813009F063C026C0873079F1883098F523
:10547000863009F05BC025C08D3009F442C08E3003
:1054800028F48B30B1F18C30C0F52DC0803109F497
:1054900042C0813109F445C08F3009F047C037C0A0
:1054A000809180008F7703C0809180008F7D8093F2
:1054B0008000089584B58F7702C084B58F7D84BD48
:1054C00008958091B0008F7703C08091B0008F7DE8
:1054D0008093B0000895809190008F7707C08091ED
:1054E00090008F7D03C080919000877F8093900013
:1054F00008958091A0008F7707C08091A0008F7DD4
:1055000003C08091A000877F8093A00008958091C0
:1055100020018F7703C0809120018F7D809320012F
:10552000089580912001877F809320010895FF9244
:105530000F931F93F62E482F50E0CA0182549E4FBE
:10554000FC012491CA0188589E4FFC0114914E5CC5
:105550005E4FFA0104910023C1F0222311F0822F43
:1055600072DFE02FF0E0EE0FFF1FE250FF4FA5913A
:10557000B4919FB7F894FF2021F48C91109581236A
:1055800002C08C91812B8C939FBF1F910F91FF9034
:1055900008950F931F93482F50E0CA0182549E4FE5
:1055A000FC012491CA0188589E4FFC0104914E5C75
:1055B0005E4FFA011491112319F420E030E014C079
:1055C000222311F0822F3FDF812F90E0880F991F57
:1055D000885E9E4FFC01A591B4918C9120E030E053
:1055E000802311F021E030E0C9011F910F9108954F
:1055F0000895CF93DF9374DDFBDF0E94341EC0E07B
:10560000D0E00E94291E2097E1F30E940000F9CF0C
:105610000895CF92DF92EF92FF920F931F93CF9353
:10562000DF937C016B018A01C0E0D0E00FC0D6019E
:105630006D916D01D701ED91FC910190F081E02D0C
:10564000C7011995C80FD91F015010400115110548
:1056500071F7CE01DF91CF911F910F91FF90EF90E5
:10566000DF90CF900895CF93DF93EC016115710522
:1056700019F420E030E00FC0DB010D900020E9F7C5
:105680001197A61BB70BE881F9810280F381E02D09
:10569000AD0119959C01C901DF91CF9108954F92F9
:1056A0005F927F928F929F92AF92BF92CF92DF9242
:1056B000EF92FF920F931F93DF93CF93CDB7DEB797
:1056C000A1970FB6F894DEBF0FBECDBF2C01742E8C
:1056D000CB01223008F42AE019A231E2C32ED12CEA
:1056E000CC0EDD1E822E9924AA24BB24672D752F93
:1056F000A5019401D7D079018A01C801B701A5019C
:1057000094019ED0472D461B0894C108D1084A3009
:1057100014F4405D01C0495CF6014083E114F104DA
:105720000105110521F07E2C5F2DC801DFCFC201DC
:10573000B60199DFA1960FB6F894DEBF0FBECDBFBC
:10574000CF91DF911F910F91FF90EF90DF90CF905D
:10575000BF90AF909F908F907F905F904F900895F3
:10576000DC012115310541F4ED91FC910190F081AE
:10577000E02D642F1995089592CFEF92FF920F9329
:105780001F939A01E62EFF2400E010E0B801A70164
:10579000E7DF1F910F91FF90EF900895CF92DF9276
:1057A000EF92FF920F931F93CF93DF93EC016A0167
:1057B0007B012115310541F4E881F9810190F081E7
:1057C000E02D642F19951DC02A303105C9F477FFEB
:1057D00016C0E881F9810190F081E02D6DE2199504
:1057E0008C0144275527BA014C195D096E097F09C0
:1057F000CE012AE054DF9801280F391F03C02AE0A8
:105800004EDF9C01C901DF91CF911F910F91FF9055
:10581000EF90DF90CF900895EF92FF920F931F9338
:105820007B019A010027F7FC0095102FB801A70112
:10583000B5DF1F910F91FF90EF90089514CF089559
:10584000629FD001739FF001829FE00DF11D649F64
:10585000E00DF11D929FF00D839FF00D749FF00DF0
:10586000659FF00D9927729FB00DE11DF91F639F91
:10587000B00DE11DF91FBD01CF011124089597FB63
:10588000092E07260AD077FD04D02ED006D000209E
:105890001AF4709561957F4F0895F6F7909581956C
:1058A0009F4F0895A1E21A2EAA1BBB1BFD010DC03C
:1058B000AA1FBB1FEE1FFF1FA217B307E407F507C0
:1058C00020F0A21BB30BE40BF50B661F771F881F9C
:1058D000991F1A9469F760957095809590959B0132
:1058E000AC01BD01CF010895AA1BBB1B51E107C04C
:1058F000AA1FBB1FA617B70710F0A61BB70B881F60
:10590000991F5A95A9F780959095BC01CD010895EE
:10591000EE0FFF1F0590F491E02D1994F894FFCF3E
:10592000303030006100202020005F5F5F004D6557
:105930006D6F727920456D707469656421004261F4
:105940006E6B3A2052414D0041726475696E6F2052
:10595000444D582D353132005465737465722026DC
:1059600020436F6E74726F6C6C6572004669726D65
:105970002076002E00486172642076004F70656EBC
:105980002048617264776172652100687474703AAE
:105990002F2F676F6F2E676C2F356E714A4B740017
:1059A0003E002B002D2D2D002D0020004D656D6F2C
:1059B00072792042616E6B3A0042616E6B31202039
:1059C00042616E6B34202042616E6B370042616E23
:1059D0006B32202042616E6B35202042616E6B3845
:1059E0000042616E6B33202042616E6B3620204591
:1059F0007869740053617665004C6F616400436C94
:105A0000656172004D656D6F7279204C6F616465E0
:105A100064210042616E6B3A2000416C6C004D6560
:105A20006D6F727920436C65616E696E672E2E2EE4
:105A3000004D656D6F727920436C65616E65642100
:105A4000004D656D6F727920536176696E672E2EF9
:105A50002E004D656D6F727920536176656421006B
:105A60004D656D6F72793A20202020202020202063
:105A7000206200436C656172416C6C00426C616332
:105A80006B4F7574004578697400456D7074795278
:105A9000414D004C434420436F6E6669673A0041B4
:105AA000626F7574004261636B204C696768743A79
:105AB00000436F6E74726173743A004374726C00C9
:105AC000436F6E74726F6C3A2020202020202020BB
:105AD00020206200556E6974617279004D617472A4
