:1000000004C100002FC100002DC100002BC1000061
:1000100029C1000027C1000025C1000023C1000044
:1000200021C100001FC100001DC100001BC1000054
:1000300019C1000017C1000015C1000013C1000064
:1000400011C100000FC100000DC100000BC1000074
:1000500009C1000007C1000005C100000C94B80DE3
:1000600001C100000C94B00AFDC000000C94500BBC
:10007000F9C00000F7C00000F5C00000F3C00000A8
:10008000F1C00000EFC00000EDC00000EBC00000B8
:10009000E9C00000E7C00000E5C000000C94E608DD
:1000A000E1C00000DFC00000DDC00000DBC00000D8
:1000B000D9C00000D7C00000D5C00000D3C00000E8
:1000C000D1C00000CFC00000CDC00000CBC00000F8
:1000D000C9C00000C7C00000C5C00000C3C0000008
:1000E000C1C0000000002100240027002A002D00CC
:1000F0003000330001010000040107010A01000083
:100100002200250028002B002E00310034000201BF
:100110000000050108010B0100002000230026005B
:1001200029002C002F00320000010000030106010D
:10013000090105050505070508080808020202026D
:100140000A0A080804040404010101010101010173
:100150000303030303030303040707070C0C0C0C3E
:100160000C0C0C0C02020202060606060606060627
:100170000B0B0B0B0B0B0B0B0102102020080810B4
:100180002040102040800201020108040201010207
:1001900004081020408080402010080402018004E0
:1001A000020180402010080402010804020101023B
:1001B0000408102040800102040810204080000044
:1001C000090A02080B0C0D070603040100000000D9
:1001D000000000000000000000000000000000001F
:1001E0000000000000000000000011100F000000DF
:1001F00000000000000000000000000000000000FF
:10020000000000003A015508C80B11241FBECFEFB3
:10021000D1E2DEBFCDBF00E00CBF13E0A0E0B2E052
:10022000E0E5F4E200E00BBF02C007900D92AA38AF
:10023000B107D9F71BBE16E0AAE8B3E001C01D92D2
:10024000AB3EB107E1F712E0CAE0D2E004C022976A
:10025000FE010E942212C430D107C9F70E94B810D3
:100260000C942612CDCEDC0101C06D93415050405C
:10027000E0F70895CF92EF920F938DE895E06091AB
:100280003F03409141032091430300914503E090D7
:100290004703C09049039DD60F91EF90CF900895EA
:1002A0000F931F930DE815E0C801DAD4C80160E090
:1002B00040E0AED4C80160E072E00E94DD11C801E8
:1002C00061E140E0A5D4C8016EE072E00E94DD115A
:1002D000C80161E142E09CD4C80162E172E00E9481
:1002E000DD11C80160E042E093D4C80166E172E02C
:1002F0000E94DD11C80162E043E08AD4C80164E2D3
:1003000072E00E94DD111F910F910895CF93DF934A
:100310008DE895E0A5D48DE895E060E041E078D4E3
:100320008DE895E060E372E00E94DD11C0E0D0E06E
:10033000FE01E657FC4F1082E091B806F091B90635
:10034000EC0FFD1F108285EB96E0BE0140E00E949D
:10035000820A8DE895E061E141E05AD48DE895E0AC
:10036000BE014AE050E00E94CB11219682E0C030ED
:10037000D807F1F68DE895E073D48DE895E062E05A
:1003800041E046D48DE895E061E472E00E94DD1121
:1003900068EE73E080E090E00E94000EDF91CF9164
:1003A0000895CF93DF938DE895E05AD48DE895E0DA
:1003B00060E041E02DD48DE895E061E572E00E94B7
:1003C000DD11C0E0D0E085EB96E0BE010E947B0A23
:1003D000FE01E657FC4F8083E091B806F091B90624
:1003E000EC0FFD1F80838DE895E061E141E010D4C2
:1003F0008DE895E0BE014AE050E00E94CB1161E03B
:1004000070E080E090E00E94000E219682E0C03013
:10041000D807C9F68DE895E023D48DE895E063E030
:1004200041E0F6D38DE895E061E672E00E94DD11CF
:1004300068EE73E080E090E00E94000EDF91CF91C3
:100440000895FF920F931F93CF93DF93F090A4052D
:100450000091A5058DE895E06F2D402FD9D38DE84B
:1004600095E060E772E00E94DD118DE895E06BE0B9
:1004700040E0CED38DE895E062E772E00E94DD11A6
:100480008DE895E06BE041E0C3D38DE895E066E749
:1004900072E00E94DD11C4E1D0E0809129030E9446
:1004A0008810892B21F568EC70E080E090E00E94D4
:1004B000000E1091A4058091A50590E08C9F9001FD
:1004C0008D9F300D9C9F300D112401C014E11150FF
:1004D000F901E10FF11DEA55FA4F8081813021F4D5
:1004E000112351F514E128C0112381F3F0CF80913D
:1004F0002B030E948810892B09F04CC068EC70E037
:1005000080E090E00E94000E1091A4058091A50566
:1005100090E08C9F90018D9F300D9C9F300D112499
:100520001F5F143108F010E0F901E10FF11DEA55E9
:10053000FA4F80818130A1F71093A4058DE895E0F2
:100540006FE040E065D38DE895E06AE772E00E94D5
:10055000DD118DE895E06FE040E05AD38DE895E03D
:10056000612F4AE050E00E947C118DE895E06FE039
:1005700041E04ED38DE895E06AE772E00E94DD111C
:100580008DE895E06FE041E043D38DE895E0609120
:10059000A50554C0809127030E948810892B09F07B
:1005A00052C068EC70E080E090E00E94000E109174
:1005B000A5058091A405282F30E01F5F143008F0B6
:1005C00010E0812F90E08C9FF0018D9FF00D9C9F9B
:1005D000F00D1124E20FF31FEA55FA4F80818130AC
:1005E00061F71093A5058DE895E06FE040E010D32A
:1005F0008DE895E06AE772E00E94DD118DE895E0F4
:100600006FE040E005D38DE895E06091A4054AE0F5
:1006100050E00E947C118DE895E06FE041E0F8D257
:100620008DE895E06AE772E00E94DD118DE895E0C3
:100630006FE041E0EDD28DE895E0612F4AE050E0B7
:100640000E947C115BC0809125030E948810892B39
:1006500009F070C068EC70E080E090E00E94000E4D
:100660001091A5058091A405282F30E001C014E069
:100670001150812F90E08C9FF0018D9FF00D9C9F79
:10068000F00D1124E20FF31FEA55FA4F80818130FB
:1006900009F04CC0112309F414E08DE895E06FE0F7
:1006A00040E0B6D28DE895E06AE772E00E94DD1185
:1006B0008DE895E06FE040E0ABD28DE895E0609189
:1006C000A4054AE050E00E947C118DE895E06FE0BF
:1006D00041E09ED28DE895E06AE772E00E94DD116C
:1006E0008DE895E06FE041E093D28DE895E0612FD1
:1006F0004AE050E00E947C111093A50511E08DE8BE
:1007000095E06F2D402F84D28DE895E06DE772E083
:100710000E94DD118DE895E06091A4054091A5054A
:1007200077D28DE895E060E772E02DC0112309F4DF
:100730009ECF9ECF80912D030E948810892B09F0B7
:10074000ACCE68EC70E080E090E00E94000E60911A
:10075000A4054091A505842F90E08C9FF0018D9F0A
:10076000F00D9C9FF00D1124E60FF11DEA55FA4F94
:100770008081813091F412E08DE895E049D28DE8D6
:1007800095E06FE772E00E94DD11F090A405009102
:10079000A505123009F081CE01C0FFCFDF91CF91C6
:1007A0001F910F91FF9008951F938DE895E058D207
:1007B0008DE895E061E040E02BD28DE895E061E8BE
:1007C00072E00E94DD1111E08DE895E061E0412FBB
:1007D0001FD28DE895E065E972E00E94DD111F5F90
:1007E000143091F78CE08093A4051092A505E6EAF9
:1007F000F5E0DF0198961082148A1C9254961C92A0
:1008000054973196119685E0EA3BF807A1F781E00D
:100810008093A6058093AA058093AE058093B205C8
:100820008083848380878487808B848B808F848F70
:1008300080A384A380A78093E6058093EA05809334
:10084000EE058093F205FDDD1F9108958DE895E09A
:1008500007D28DE895E060E040E0DAD18DE895E0E0
:1008600069EA72E00E94DD118DE895E063E042E004
:10087000CFD18DE895E06AEB72E00E94DD1182E055
:100880008093A4058093A505E6EAF5E0DF0198963C
:100890001082148A1C9254961C9254973196119689
:1008A00085E0EA3BF807A1F781E0868B868FC9DDFA
:1008B0008091A405823059F48091A505823039F4E5
:1008C000EFDC60E177E280E090E00E94000E809132
:1008D000A4058A3059F48091A505823039F464DF8B
:1008E00060E177E280E090E00C94000E08958DE8DE
:1008F00095E0B6D18DE895E060E040E089D18DE8E3
:1009000095E068EC72E00E94DD118DE895E062E010
:1009100042E07ED18DE895E060ED72E00E94DD114D
:100920008DE895E069E042E073D18DE895E066EDF1
:1009300072E00E94DD118DE895E06FE042E068D141
:100940008DE895E06BED72E00E94DD1181E080930F
:10095000A40582E08093A505E6EAF5E0DF0198961C
:100960001082148A1C9254961C92549731961196B8
:1009700085E0EA3BF807A1F781E0858B848F82A3AD
:1009800060DD8091A405883031F48091A505823026
:1009900011F407DD5BDF8091A4058E3031F4809186
:1009A000A505823011F4B2DC51DF8091A4058130BD
:1009B00029F48091A505823009F448CF0895EF927B
:1009C000FF920F931F930DE815E0C80149D1C801AC
:1009D00061E040E01DD1C80161EE72E00E94DD11CE
:1009E000C80160E041E014D1C80164EF72E00E94E8
:1009F000DD11C8016AE041E00BD1C8016CEF72E083
:100A00000E94DD11C80167E042E002D1C80167E041
:100A100073E00E94DD11C80160E04AE050E00E94EE
:100A20007C1182E1E82E83E0F82EC801B7010E9414
:100A3000DD11C80164E04AE050E00E947C11C80169
:100A400067E043E0E5D0C80164E173E00E94DD1196
:100A5000C80160E04AE050E00E947C11C801B70183
:100A60000E94DD11C80160E04AE050E00E947C1164
:100A7000C80160E043E0CCD0C8016FE173E00E94A0
:100A8000DD11C80164E14AE050E00E947C1168EE8B
:100A900073E080E090E00E94000E1F910F91FF90A4
:100AA000EF9008958CDF23CF8091230361E00E94B3
:100AB000A30F8091250362E00E94A30F809127037A
:100AC00062E00E94A30F8091290362E00E94A30FBD
:100AD00080912B0362E00E94A30F80912D0362E0BE
:100AE0000E94A30F80912F0361E00E94A30F8091C9
:100AF000310361E00E94A30F8091330361E00E9403
:100B0000A30F8091350361E00E94A30F809137030A
:100B100062E00E94A30F8091390362E00E94A30F5C
:100B200080913B0362E00E94A30F80913D0362E04D
:100B30000E94A30F80912F0361E00E9456108091C4
:100B4000310361E00E9456108091330361E00E94FE
:100B500056108091350361E00E94561080913F034A
:100B600061E00E94A30F8091410361E00E94A30F06
:100B70008091490361E00E94A30F8091470361E0E7
:100B80000E94A30F8091450361E00E94A30F809112
:100B9000430361E00E94A30F8DE895E064E144E027
:100BA00020E064D081E090E09093CE068093CD0663
:100BB00080E092E09093CA068093C90686EB96E0A7
:100BC00060E0FDC508950895FC011382128285E559
:100BD00093E0918380830895FC01A081B1811896F0
:100BE0002D913C9119976FEFF90119950895DC014A
:100BF000ED91FC910284F385E02D40E01995089574
:100C0000FC016581862F846085836C60CF01EFCF06
:100C1000DC0117969C911797491710F0492F415006
:100C200018968C911897803139F4943029F4E42F78
:100C3000F0E0EF59FC4F04C0E42FF0E0EB59FC4F1B
:100C40008081680F6068CD01D2CFDC01ED91FC910D
:100C50000284F385E02D41E0199581E090E008954C
:100C600061E0C5DF80ED97E00C94590ECF93DF93E0
:100C7000EC01423018F08C8188608C834F83688748
:100C8000222329F0413019F48C8184608C8364E63E
:100C900070E080E090E0B4D76C8164FD2EC0E88104
:100CA000F9810284F385E02DCE0163E042E01995DD
:100CB00084E991E1FED7E881F9810284F385E02D92
:100CC000CE0163E042E0199584E991E1F2D7E88131
:100CD000F9810284F385E02DCE0163E042E01995AD
:100CE00086E990E0E6D7E881F9810284F385E02D7A
:100CF000CE0162E042E0199511C06062CE0177DF5B
:100D000084E991E1D6D76C816062CE0170DF86E91B
:100D100090E0CFD76C816062CE0169DF6C81606248
:100D2000CE0165DF84E08D83CE016ADFCE0198DFDE
:100D300082E08E83CE0166E05ADFCE014DDFDF9187
:100D4000CF9108950F931F938C01FC01858561E07D
:100D50000E945610F801858560E00E9456101F9190
:100D60000F910895BF92CF92DF92EF92FF920F936F
:100D70001F93CF93DF93D82EC92EB42E282F392F4F
:100D8000C9018C01C0E0D0E0E62EFF240DC0B70100
:100D90000C2E02C0759567950A94E2F76170F80110
:100DA00085850E94561021960F5F1F4FCB1578F353
:100DB0008D2D9C2DC7DFDF91CF911F910F91FF905B
:100DC000EF90DF90CF90BF9008950F931F93CF9334
:100DD000DF93EC01162F042F60E0413009F461E04D
:100DE0008B850E9456108C858F3F19F060E00E9421
:100DF0005610023089F08C8184FF04C0CE01612F2F
:100E000048E00DC0612F70E084E0759567958A9584
:100E1000E1F7CE0144E0A6DFCE01612F44E0A2DF7E
:100E2000DF91CF911F910F9108956F927F928F92D2
:100E3000AF92CF92EF920F931F93DF93CF93CDB7E3
:100E4000DEB73C01162F8E2DF301438724870587DB
:100E5000E686C786A08A818A9E85928B9F85938B22
:100E60009889948B9989958B61E00E94A30FF30177
:100E7000878561E00E94A30FF301808961E00E94F1
:100E8000A30FF301818961E00E94A30F1123A1F454
:100E9000F301828961E00E94A30FF301838961E07D
:100EA0000E94A30FF301848961E00E94A30FF30164
:100EB000858961E00E94A30FF301838561E00E94B0
:100EC000A30FF30184858F3F19F061E00E94A30F07
:100ED000F301858561E00E94A30F112319F0F3014E
:100EE000148203C080E1F3018483F301838560E011
:100EF0000E945610F301858560E00E945610F301B0
:100F000084858F3F19F060E00E9456108FEFF30147
:100F1000868B12861186CF91DF911F910F91EF90F2
:100F2000CF90AF908F907F906F900895DF92EF9267
:100F3000FF920F931F938C01D62E7A01862F61E0CA
:100F40000E94A30FD8015696DC9256971A96FC92EF
:100F5000EE921997ED91FC910084F185E02DC80186
:100F600060E019951F910F91FF90EF90DF90089529
:100F7000DC01362F56962C9156972F3F49F1E22FE0
:100F8000F0E0E254FE4FE491EE2379F019968D9152
:100F90009C911A97892B19F4822F70E005C06FEF8E
:100FA00070E0631B7109822FF0C619968D919C9198
:100FB0001A97662319F0892B39F402C0019721F49E
:100FC000822F61E00C945610822F60E00C94561032
:100FD00008956F927F928F92AF92BF92CF92DF92DD
:100FE000EF92FF920F931F933C01162FF42ED22EF7
:100FF000B02EAE2C8C2CE8DD8DE693E0D3018D93E2
:101000009C9300D00F92EDB7FEB73196ADB7BEB747
:1010100011961C92118212821382C30161E0412F4A
:101020002FEF0F2DED2CCB2C00DF0F900F900F909A
:101030000F901F910F91FF90EF90DF90CF90BF9096
:10104000AF908F907F906F9008952091170630E0B9
:1010500080911606281B3109C90108954091160692
:1010600080911706481718F02FEF3FEF0AC0E42FC2
:10107000F0E0EA50FA4F8081282F30E04F5F409334
:101080001606C9010895E091160680911706E81723
:1010900018F0EFEFFFEF06C0F0E0EA50FA4F808162
:1010A000E82FF0E0CF010895089510923E061092C7
:1010B0003D0688EE93E0A0E0B0E080933F06909379
:1010C0004006A0934106B09342068DE793E09093CB
:1010D0003C0680933B060895CF92DF92EF92FF92F9
:1010E0000F931F93CF93DF937C016B018A01809153
:1010F0003A068823A1F0C0E0D0E00DC0D701ED9101
:10110000FC91D601AC0FBD1F0190F081E02DC7010D
:101110006C9119952196C017D10780F303C0CB01BC
:10112000642F39D0C801DF91CF911F910F91FF90AB
:10113000EF90DF90CF900895DF93CF930F92CDB7CC
:10114000DEB7FC01698380913A068823C9F080915B
:101150003906803238F081E090E09383828320E08A
:1011600030E014C080913806E82FF0E0E85EF94FD7
:10117000998190838F5F809338068093390604C0ED
:10118000CE01019661E007D021E030E0C9010F9067
:10119000CF91DF910895482F613210F081E00895DA
:1011A00080914706843011F082E0089560939206A2
:1011B000A1E7B6E0842F9C01F90102C081918D93D3
:1011C0008E2F841B8617D0F380E008951F920F9214
:1011D0000FB60F920BB60F9211242F933F934F939C
:1011E0005F936F937F938F939F93AF93BF93EF938F
:1011F000FF938091B90090E0887F907080369105D0
:1012000009F4F2C081369105CCF58832910509F4D4
:101210007BC089329105B4F48031910509F46FC027
:10122000813191053CF4009709F447C1089709F012
:101230004FC165C08831910509F466C0809709F0F7
:1012400047C182C08034910509F4A4C0813491055E
:1012500044F48033910509F482C0C89709F038C17D
:1012600089C08035910509F489C08835910509F454
:1012700096C08834910509F02BC1AEC0883991051C
:1012800009F413C189399105ECF48837910509F403
:10129000ABC0893791054CF48836910509F4A4C098
:1012A0008037910509F014C19FC08838910509F471
:1012B000FCC08039910509F49DC08038910509F082
:1012C00007C198C0803B910509F4C6C0813B9105D8
:1012D0004CF4803A910509F49FC0883A910509F0D1
:1012E000F7C0BAC0803C910509F4E3C0883C910581
:1012F00009F4DFC0883B910509F0EAC0C2C08091C3
:1013000048068093BB00CFC090916F068091700615
:10131000981768F490916F06E92FF0E0E15BF94FC0
:1013200080818093BB009F5F90936F06BCC08091CB
:101330004906882309F44BC085ED8093BC00809159
:10134000BC0084FDFCCFC2C080E28093B40685ED72
:101350008093BC008091BC0084FDFCCFB7C080E3CB
:101360008093B40685ED8093BC008091BC0084FD21
:10137000FCCFACC088E38093B4069BC080916F061D
:101380009091BB00E82FF0E0E15BF94F90838F5F15
:1013900080936F0690916F068091700682C0809155
:1013A0006F069091BB00E82FF0E0E15BF94F90836E
:1013B0008F5F80936F0680914906882341F085ED09
:1013C0008093BC008091BC0084FDFCCF7FC081E095
:1013D00080934A0684EA6EC085ED8093BC008091BC
:1013E000BC0084FDFCCF72C083E08093470610925E
:1013F000B30659C08091B306803208F056C0809180
:10140000B3069091BB00E82FF0E0ED56F94F9083C2
:101410008F5F8093B30647C08091B306803230F46B
:10142000E091B306F0E0ED56F94F108285ED809320
:10143000BC008091BC0084FDFCCF109247066091F7
:10144000B306E0914D06F0914E0683E996E070E018
:1014500019951092B3062DC084E080934706109230
:10146000910610929206E0914B06F0914C06199568
:1014700080919206882329F481E08093920610924D
:10148000710690919106E92FF0E0EF58F94F8081B5
:101490008093BB009F5F90939106909191068091FD
:1014A0009206981710F485EC01C085E88093BC0083
:1014B0000FC085EC8093BC0009C01092B40685ED86
:1014C0008093BC008091BC0084FDFCCF1092470645
:1014D000FF91EF91BF91AF919F918F917F916F910C
:1014E0005F914F913F912F910F900BBE0F900FBEC8
:1014F0000F901F901895F999FECF72BD61BDF89AB3
:1015000080B50895F999FECF1FBA72BD61BD40BD87
:101510000FB6F894FA9AF99A0FBE0895FC018385E4
:10152000882331F48091C10087728093C1000895AF
:10153000813031F48091C90087728093C900089589
:10154000823031F48091D10087728093D100089568
:10155000833029F48091310187728093310108959D
:101560001F920F920FB60F920BB60F9211242F936A
:101570003F934F935F936F937F938F939F93AF931B
:10158000BF93EF93FF938091C0008093BE0630918C
:10159000C6003093BF062091BA062093C00684FF90
:1015A00010C08091C0008F7E8093C0008091CB06D8
:1015B0009091CC069093C4068093C30681E08093FB
:1015C000BA06213091F4332369F482E08093BA069D
:1015D0008091B6069091B70601969093BC068093D1
:1015E000BB064BC01092BA0648C02230A1F48091CD
:1015F000C3069091C40601979093C4068093C306D6
:10160000892BD9F583E08093BA06E091B606F09174
:10161000B706308332C0233081F5E091BB06F091EC
:10162000BC06F093D906E093D80630834091D806E3
:101630005091D9064F5F5F4F5093D9064093D8061B
:101640008091B6069091B7062091C7063091C806E2
:10165000820F931F4817590760F01092BA06E09165
:10166000DC06F091DD06309741F08091C1061995B6
:1016700004C05093BC064093BB06FF91EF91BF910D
:10168000AF919F918F917F916F915F914F913F911A
:101690002F910F900BBE0F900FBE0F901F901895BB
:1016A0001F920F920FB60F920BB60F9211242F9329
:1016B0003F934F935F936F937F938F939F93AF93DA
:1016C000BF93EF93FF938091C2068093D706882340
:1016D00061F41092C5008091D4068093C4001092EA
:1016E000C60081E08093C20640C0813081F4109230
:1016F000C5008091D3068093C4001092C60082E09A
:101700008093C2061092C6061092C5062EC0809124
:10171000C5069091C6069093D6068093D506E091B3
:10172000B806F091B906E80FF91F20812093C60092
:101730009C012F5F3F4F3093D6062093D5068091B2
:10174000C9069091CA062817390759F4E091DA06BC
:10175000F091DB06309711F080E019951092C206E7
:1017600004C03093C6062093C506FF91EF91BF9148
:10177000AF919F918F917F916F915F914F913F9129
:101780002F910F900BBE0F900FBE0F901F901895CA
:1017900021E030E03093CC062093CB0688E090E047
:1017A0009093C8068093C7063093CE062093CD064B
:1017B0009093CA068093C9061092C10608951F939C
:1017C000CF93DF93EC01162FF894A8DE1C8F112322
:1017D00021F487E08D8F84E10BC0113021F483E088
:1017E0008D8F8AE005C0123021F481E08D8F85E075
:1017F0008E8F8B8D8F3F29F061E0A5D38B8D61E0BB
:1018000055D48B858823D1F481E061E09CD310927C
:10181000C5008D8D8093C4008091C000826080934C
:10182000C0008091C2008E608093C2008091C10090
:1018300088648093C1001092C60053C08130D1F4F7
:1018400082E161E080D31092CD008D8D8093CC0039
:101850008091C80082608093C8008091CA008E6029
:101860008093CA008091C90088648093C900109257
:10187000CE0037C08230D1F480E161E064D31092B1
:10188000D5008D8D8093D4008091D00082608093AC
:10189000D0008091D2008E608093D2008091D100E0
:1018A00088648093D1001092D6001BC08330C9F4A5
:1018B0008EE061E048D3109235018D8D8093340124
:1018C00080913001826080933001809132018E607E
:1018D00080933201809131018864809331011092AC
:1018E000360181E08C878B899C890DD08A839B830C
:1018F0004B895C8960E070E00E9433017894DF914D
:10190000CF911F9108950F931F93CF93DF93BC0145
:101910008230910510F462E070E0E091E906F09108
:10192000EA0640E050E0A0E0B0E024C08081918170
:1019300086179707D0F08617970771F482819381F5
:10194000109729F013969C938E9312972CC0909326
:10195000EA068093E90627C04115510519F084175E
:10196000950718F48D01AC01EF01DF0182819381AD
:101970009C01F9013097D1F641155105F9F0CA01E2
:10198000861B970B8430910580F48A819B81011519
:10199000110521F0F8019383828304C09093EA0635
:1019A0008093E906FE01329645C0FE01E80FF91F5B
:1019B000619371930297998388833CC08091E70675
:1019C0009091E806892B41F480914D0390914E034C
:1019D0009093E8068093E70640914F03509150039F
:1019E0004115510541F44DB75EB780914B0390917D
:1019F0004C03481B590B2091E7063091E806241749
:101A00003507B0F4CA01821B930B8617970780F045
:101A1000AB014E5F5F4F8417950750F0420F531F85
:101A20005093E8064093E706F9016193719302C071
:101A3000E0E0F0E0CF01DF91CF911F910F91089589
:101A4000CF93DF939C01009709F48FC0EC0122979C
:101A50001B821A826091E9067091EA066115710590
:101A600081F488819981820F931F2091E70630913C
:101A7000E8062817390739F5D093E806C093E7063A
:101A800074C0DB0140E050E0AC17BD0708F1BB8338
:101A9000AA83FE0121913191E20FF31FAE17BF0718
:101AA00079F48D919C911197280F391F2E5F3F4F2C
:101AB0003983288312968D919C9113979B838A83F7
:101AC0004115510571F4D093EA06C093E9064DC063
:101AD00012968D919C911397AD01009711F0DC0146
:101AE000D3CFDA011396DC93CE931297FA012191AA
:101AF0003191E20FF31FCE17DF0769F488819981D6
:101B0000280F391F2E5F3F4FFA01318320838A81CE
:101B10009B8193838283E0E0F0E0DB0112968D915C
:101B20009C911397009719F0BC01FD01F6CFAB0112
:101B30004E5F5F4FDB018D919C91840F951F20912B
:101B4000E7063091E8062817390779F4309729F429
:101B50001092EA061092E90602C0138212824250E5
:101B600050405093E8064093E706DF91CF910895E7
:101B70001F920F920FB60F9211242F933F938F93C2
:101B80009F93AF93BF938091E2069091E306A0915B
:101B9000E406B091E5063091E6060196A11DB11D5F
:101BA000232F2D5F2D3720F02D570196A11DB11D3C
:101BB0002093E6068093E2069093E306A093E40662
:101BC000B093E5068091DE069091DF06A091E006D5
:101BD000B091E1060196A11DB11D8093DE069093A0
:101BE000DF06A093E006B093E106BF91AF919F910D
:101BF0008F913F912F910F900FBE0F901F901895CE
:101C00009B01AC017FB7F8948091DE069091DF06CE
:101C1000A091E006B091E10666B5A89B05C06F3FB4
:101C200019F00196A11DB11D7FBFBA2FA92F982FC2
:101C30008827860F911DA11DB11D62E0880F991F95
:101C4000AA1FBB1F6A95D1F7BC012DC0FFB7F8943E
:101C50008091DE069091DF06A091E006B091E1064A
:101C6000E6B5A89B05C0EF3F19F00196A11DB11D77
:101C7000FFBFBA2FA92F982F88278E0F911DA11D66
:101C8000B11DE2E0880F991FAA1FBB1FEA95D1F78B
:101C9000861B970B885E9340C8F22150304040402D
:101CA000504068517C4F211531054105510571F6B1
:101CB0000895019739F0880F991F880F991F02978F
:101CC0000197F1F70895789484B5826084BD84B556
:101CD000816084BD85B5826085BD85B5816085BD27
:101CE000EEE6F0E0808181608083E1E8F0E0108240
:101CF000808182608083808181608083E0E8F0E081
:101D0000808181608083E1EBF0E08081846080836A
:101D1000E0EBF0E0808181608083E1E9F0E08081A8
:101D200082608083808181608083E0E9F0E080814F
:101D300081608083E1EAF0E080818260808380813D
:101D400081608083E0EAF0E0808181608083E1E26D
:101D5000F1E0808182608083808181608083E0E225
:101D6000F1E0808181608083EAE7F0E08081846037
:101D70008083808182608083808181608083808194
:101D8000806880831092C10008951F93CF93DF93E2
:101D9000182FEB0161E0D7D0209709F4CAC0CF3FDC
:101DA000D10509F4C9C0E12FF0E0E254FE4F84915F
:101DB000893009F466C08A30B0F48430F1F185309E
:101DC00040F4823059F1833070F5813009F0AEC0B3
:101DD00020C0873009F443C0883008F048C08630FE
:101DE00009F0A4C034C08D3009F478C08E3038F4C6
:101DF0008B3009F45AC08C3008F066C04CC080317A
:101E000009F480C0813109F487C08F3009F08EC099
:101E10006FC084B5806884BDC7BD91C084B5806241
:101E200084BDC8BD8CC08091800080688093800094
:101E3000D0938900C093880082C080918000806226
:101E400080938000D0938B00C0938A0078C08091EB
:101E5000B00080688093B000C093B30070C08091E0
:101E6000B00080628093B000C093B40068C08091DD
:101E70009000806880939000D0939900C093980060
:101E80005EC080919000806280939000D0939B0010
:101E9000C0939A0054C08091900088608093900015
:101EA000D0939D00C0939C004AC08091A0008068A0
:101EB0008093A0008091A0008F7B8093A000D0939E
:101EC000A900C093A8003BC08091A00080628093CD
:101ED000A000D093AB00C093AA0031C08091A000B5
:101EE00088608093A000D093AD00C093AC0027C061
:101EF00080912001806880932001D0932901C093B4
:101F000028011DC080912001806280932001D09320
:101F10002B01C0932A0113C0809120018860809317
:101F20002001D0932D01C0932C0109C0C038D105E8
:101F30001CF4812F60E002C0812F61E0B7D0DF91F7
:101F4000CF911F910895CF93DF93482F50E0CA019E
:101F500088589E4FFC0134914E5C5E4FFA0184918B
:101F6000882369F190E0880F991FFC01EC51FF4F25
:101F7000A591B491FC01E250FF4FC591D491662325
:101F800051F42FB7F8948C91932F909589238C93CB
:101F9000888189230BC0623061F42FB7F8948C914B
:101FA000932F909589238C938881832B88832FBFCF
:101FB00006C09FB7F8948C91832B8C939FBFDF91C1
:101FC000CF910895893009F449C08A30A0F4843053
:101FD00051F1853040F4823079F1833000F5813061
:101FE00009F063C026C0873079F1883098F58630D3
:101FF00009F05BC025C08D3009F442C08E3028F452
:102000008B30B1F18C30C0F52DC0803109F442C065
:10201000813109F445C08F3009F047C037C0809145
:1020200080008F7703C0809180008F7D8093800037
:10203000089584B58F7702C084B58F7D84BD0895DF
:102040008091B0008F7703C08091B0008F7D809326
:10205000B0000895809190008F7707C08091900024
:102060008F7D03C080919000877F809390000895BA
:102070008091A0008F7707C08091A0008F7D03C062
:102080008091A000877F8093A00008958091200117
:102090008F7703C0809120018F7D80932001089568
:1020A00080912001877F809320010895FF920F93F4
:1020B0001F93F62E482F50E0CA0182549E4FFC0118
:1020C0002491CA0188589E4FFC0114914E5C5E4FCA
:1020D000FA0104910023C1F0222311F0822F72DF54
:1020E000E02FF0E0EE0FFF1FE250FF4FA591B491FB
:1020F0009FB7F894FF2021F48C911095812302C0A2
:102100008C91812B8C939FBF1F910F91FF9008950D
:102110000F931F93482F50E0CA0182549E4FFC0139
:102120002491CA0188589E4FFC0104914E5C5E4F79
:10213000FA011491112319F420E030E014C0222395
:1021400011F0822F3FDF812F90E0880F991F885E6A
:102150009E4FFC01A591B4918C9120E030E080234A
:1021600011F021E030E0C9011F910F910895089509
:10217000CF93DF93A8DDFBDF0E945405C0E0D0E0E1
:102180000E9452052097E1F30E940000F9CF0895C4
:10219000CF92DF92EF92FF920F931F93CF93DF9333
:1021A0007C016B018A01C0E0D0E00FC0D6016D91C7
:1021B0006D01D701ED91FC910190F081E02DC701F7
:1021C0001995C80FD91F015010400115110571F75D
:1021D000CE01DF91CF911F910F91FF90EF90DF9093
:1021E000CF900895CF93DF93EC016115710519F439
:1021F00020E030E00FC0DB010D900020E9F71197DF
:10220000A61BB70BE881F9810280F381E02DAD01B7
:1022100019959C01C901DF91CF9108954F925F926A
:102220007F928F929F92AF92BF92CF92DF92EF9266
:10223000FF920F931F93DF93CF93CDB7DEB7A19794
:102240000FB6F894DEBF0FBECDBF2C01742ECB01AC
:10225000223008F42AE019A231E2C32ED12CCC0E90
:10226000DD1E822E9924AA24BB24672D752FA5017B
:102270009401C4D079018A01C801B701A501940174
:102280009ED0472D461B0894C108D1084A3014F44B
:10229000405D01C0495CF6014083E114F104010591
:1022A000110521F07E2C5F2DC801DFCFC201B601E0
:1022B00099DFA1960FB6F894DEBF0FBECDBFCF91C8
:1022C000DF911F910F91FF90EF90DF90CF90BF9023
:1022D000AF909F908F907F905F904F900895DC011A
:1022E0002115310541F4ED91FC910190F081E02D33
:1022F000642F1995089592CFEF92FF920F931F9339
:102300009A01E62EFF2400E010E0B801A701E7DF04
:102310001F910F91FF90EF900895CF92DF92EF926F
:10232000FF920F931F93CF93DF93EC016A017B0120
:102330002115310541F4E881F9810190F081E02D0A
:10234000642F19951DC02A303105C9F477FF16C0D6
:10235000E881F9810190F081E02D6DE219958C0101
:1023600044275527BA014C195D096E097F09CE0132
:102370002AE054DF9801280F391F03C02AE04EDFFE
:102380009C01C901DF91CF911F910F91FF90EF90B8
:10239000DF90CF900895EF92FF920F931F937B01F0
:1023A0009A010027F7FC0095102FB801A701B5DFAF
:1023B0001F910F91FF90EF90089514CF0895629FA1
:1023C000D001739FF001829FE00DF11D649FE00D2D
:1023D000F11D929FF00D839FF00D749FF00D659F8E
:1023E000F00D9927729FB00DE11DF91F639FB00D8D
:1023F000E11DF91FBD01CF0111240895A1E21A2E9C
:10240000AA1BBB1BFD010DC0AA1FBB1FEE1FFF1F98
:10241000A217B307E407F50720F0A21BB30BE40BE8
:10242000F50B661F771F881F991F1A9469F760952F
:102430007095809590959B01AC01BD01CF010895E9
:10244000EE0FFF1F0590F491E02D1994F894FFCF43
:10245000436F6E74726F6C20556E69743A004261FE
:1024600063004D656D004368616E6E656C3A2020B7
:102470003030300056616C75653A202030303000C5
:102480004D656D6F727920436C65616E696E673A58
:10249000004D656D6F727920436C65616E656421D6
:1024A000004D656D6F7279204C6F6164696E673A9B
:1024B000004D656D6F7279204C6F61646564210019
:1024C0003E00436F6C00526F770020200020002BED
:1024D00000426163204E6578204D656D20303030BC
:1024E0002D3030300030303020303030203030303F
:1024F000203030302030303000436F6E74726F6C9B
:10250000204F7074696F6E733A00556E69742020A5
:1025100020204D756C7469004D656D6F72793A00BD
:10252000456D707479004C6F616400436C65617235
:10253000005465636820496E736964652E636F6D2E
:102540002E6D7800444D582D35313200436F6E7436
:10255000726F6C6C6572004669726D77617265208E
:1025600076002E00486172647761726520760049BA
:1025700044200026002100220023002400250031F1
:102580000030002F002E0032003300340035001ED2
:10259000001F001A001B001C001D008000EB06003D
:1025A00000000000002506C8103606E205E305C756
:1025B000100040105000401454000000002506C8D0
:1025C0001036069607B807E506000000009C086C68
:0A25D0000825082E084308540800EF
:00000001FF
