:1000000004C100002FC100002DC100002BC1000061
:1000100029C1000027C1000025C1000023C1000044
:1000200021C100001FC100001DC100001BC1000054
:1000300019C1000017C1000015C1000013C1000064
:1000400011C100000FC100000DC100000BC1000074
:1000500009C1000007C1000005C100000C948C1EFE
:1000600001C100000C94841BFDC000000C94241CF2
:10007000F9C00000F7C00000F5C00000F3C00000A8
:10008000F1C00000EFC00000EDC00000EBC00000B8
:10009000E9C00000E7C00000E5C000000C94BA19F8
:1000A000E1C00000DFC00000DDC00000DBC00000D8
:1000B000D9C00000D7C00000D5C00000D3C00000E8
:1000C000D1C00000CFC00000CDC00000CBC00000F8
:1000D000C9C00000C7C00000C5C00000C3C0000008
:1000E000C1C0000000002100240027002A002D00CC
:1000F0003000330001010000040107010A01000083
:100100002200250028002B002E00310034000201BF
:100110000000050108010B0100002000230026005B
:1001200029002C002F00320000010000030106010D
:10013000090105050505070508080808020202026D
:100140000A0A080804040404010101010101010173
:100150000303030303030303040707070C0C0C0C3E
:100160000C0C0C0C02020202060606060606060627
:100170000B0B0B0B0B0B0B0B0102102020080810B4
:100180002040102040800201020108040201010207
:1001900004081020408080402010080402018004E0
:1001A000020180402010080402010804020101023B
:1001B0000408102040800102040810204080000044
:1001C000090A02080B0C0D070603040100000000D9
:1001D000000000000000000000000000000000001F
:1001E0000000000000000000000011100F000000DF
:1001F00000000000000000000000000000000000FF
:10020000000000003A0129199C1C11241FBECFEFE9
:10021000D1E2DEBFCDBF00E00CBF14E0A0E0B2E051
:10022000EEEAF6E400E00BBF02C007900D92A83A98
:10023000B107D9F71BBE1AE0A8EAB4E001C01D92CD
:10024000A131B107E1F712E0CAE0D2E004C0229781
:10025000FE010E945123C430D107C9F70E94C0217A
:100260000C945523CDCEDC0101C06D93415050401C
:10027000E0F70895CF92EF920F9384E099E06091B8
:10028000590440915B0420915D0400915F04E0906B
:100290006104C09063040E94BD180F91EF90CF904D
:1002A00008953F924F925F926F927F928F929F92AA
:1002B000AF92BF92CF92DF92EF92FF920F931F9374
:1002C00081E18093520455245394B4E04B2EA7E06F
:1002D0003A2EFFE09F2EE2E08E2E75E0772E68E04A
:1002E000662E53E0C52E46E0B42E39E0A32E1EE064
:1002F0000AE02BE0F22E9CE0E92E8DE0D82EBAC168
:100300008091420460E00E945E2180914A040E9434
:100310009021892B61F450925204609153047091A2
:10032000540480915504909156040E94D41E65E0B7
:1003300070E080E090E00E94D41E80914C040E9406
:100340009021892B61F44092520460915304709182
:10035000540480915504909156040E94D41E65E087
:1003600070E080E090E00E94D41E80914E040E94D4
:100370009021892B61F43092520460915304709162
:10038000540480915504909156040E94D41E65E057
:1003900070E080E090E00E94D41E809150040E94A2
:1003A0009021892B61F490925204609153047091D2
:1003B000540480915504909156040E94D41E65E027
:1003C00070E080E090E00E94D41E8091420461E0E1
:1003D0000E945E218091440460E00E945E21809131
:1003E0004A040E949021892B61F48092520460910A
:1003F00053047091540480915504909156040E94C6
:10040000D41E65E070E080E090E00E94D41E8091F0
:100410004C040E949021892B61F4709252046091E7
:1004200053047091540480915504909156040E9495
:10043000D41E65E070E080E090E00E94D41E8091C0
:100440004E040E949021892B61F4609252046091C5
:1004500053047091540480915504909156040E9465
:10046000D41E65E070E080E090E00E94D41E809190
:1004700050040E949021892B61F4109252046091E3
:1004800053047091540480915504909156040E9435
:10049000D41E65E070E080E090E00E94D41E809160
:1004A000440461E00E945E218091460460E00E9465
:1004B0005E2180914A040E949021892B61F4C092B0
:1004C00052046091530470915404809155049091AA
:1004D00056040E94D41E65E070E080E090E00E9427
:1004E000D41E80914C040E949021892B61F4B0921B
:1004F000520460915304709154048091550490917A
:1005000056040E94D41E65E070E080E090E00E94F6
:10051000D41E80914E040E949021892B61F4A092F8
:100520005204609153047091540480915504909149
:1005300056040E94D41E65E070E080E090E00E94C6
:10054000D41E809150040E949021892B61F4109355
:100550005204609153047091540480915504909119
:1005600056040E94D41E65E070E080E090E00E9496
:10057000D41E8091460461E00E945E21809148046F
:1005800060E00E945E2180914A040E949021892BA4
:1005900061F400935204609153047091540480916B
:1005A0005504909156040E94D41E65E070E080E0EE
:1005B00090E00E94D41E80914C040E949021892BCF
:1005C00061F4F0925204609153047091540480914C
:1005D0005504909156040E94D41E65E070E080E0BE
:1005E00090E00E94D41E80914E040E949021892B9D
:1005F00061F4E0925204609153047091540480912C
:100600005504909156040E94D41E65E070E080E08D
:1006100090E00E94D41E809150040E949021892B6A
:1006200061F4D0925204609153047091540480910B
:100630005504909156040E94D41E65E070E080E05D
:1006400090E00E94D41E8091480461E00E945E21E7
:10065000809140040E949021892B61F410935204F0
:100660006091530470915404809155049091560404
:100670000E94D41E80915204813109F441CE1F9111
:100680000F91FF90EF90DF90CF90BF90AF909F9031
:100690008F907F906F905F904F903F9008950F9351
:1006A0001F93CF93DF93EC01162F042F84E099E082
:1006B0000E94DC1684E099E060E072E00E94E5228E
:1006C000CA30D1053CF4612F6E5F84E099E0402F81
:1006D0000E94DC16CE010A978A35910538F4612F05
:1006E0006F5F84E099E0402F0E94DC16C436D1058C
:1006F00034F084E099E0612F402F0E94DC1684E002
:1007000099E0BE014AE050E00E94D322DF91CF91F0
:100710001F910F910895EF92FF920F931F93E82E70
:10072000F62E682F615084E099E04F2D0E94DC1670
:1007300084E099E064E072E00E94E5228091460442
:1007400060E00E945E2184E099E00E94C6168091DC
:1007500050040E9490210197A1F5809140040E94CD
:100760009021019771F5809157040E94991F64E0D0
:1007700070E00E940623162F072F862F972F6E2DCD
:1007800070E04F2D50E08BDF68EC70E080E090E08F
:100790000E94D41E80913604909137040197E09115
:1007A000DE09F091DF09E80FF91F1083E0913604AC
:1007B000F0913704EE0FFF1FE855FB4F10830183C4
:1007C000C6CF84E099E00E94CE168091460461E095
:1007D0000E945E216CE271E080E090E00E94D41EF5
:1007E0001F910F91FF90EF9008951F9380914804FF
:1007F00060E00E945E211FEF3EC080913604909120
:1008000037040197E091DE09F091DF09E80FF91F45
:1008100010836091000970E06250704040910109BE
:100820008FEF90E050E03BDF64E670E080E090E026
:100830000E94D41E80913604909137040197E09174
:10084000DE09F091DF09E80FF91F108260910009BD
:10085000625084E099E0409101090E94DC1684E036
:1008600099E066E072E00E94E52264E670E080E0D4
:1008700090E00E94D41E80914E040E949021019726
:1008800009F4BBCF8091480461E00E945E2184E0BE
:1008900099E060910009409101090E94DC161F91C6
:1008A0000895CF92DF92EF92FF920F931F938C01E6
:1008B0006DE070E040E050E0F2DE7EE0C72ED12C2B
:1008C000C00ED11EC60161E170E040E050E0E7DEFD
:1008D00068EAE62E64E0F62EF801EE0FFF1FEE0D3B
:1008E000FF1D8081918161E070E041E050E0D7DE42
:1008F000F8013196EE0FFF1FEE0DFF1D80819181F3
:1009000065E070E041E050E0CADEF8013296EE0F9B
:10091000FF1FEE0DFF1D8081918169E070E041E0D5
:1009200050E0BDDEF8013396EE0FFF1FEE0DFF1D08
:10093000808191816DE070E041E050E0B0DEF8012F
:100940003496EE0FFF1FEE0DFF1D8081918161E156
:1009500070E041E050E0A3DEF8013596EE0FFF1F96
:10096000EE0DFF1D8081918161E070E042E050E07A
:1009700096DEF8013696EE0FFF1FEE0DFF1D80810B
:10098000918165E070E042E050E089DEF801379641
:10099000EE0FFF1FEE0DFF1D8081918169E070E079
:1009A00042E050E07CDEF8013896EE0FFF1FEE0DBE
:1009B000FF1D808191816DE070E042E050E06FDECC
:1009C000F8013996EE0FFF1FEE0DFF1D808191811A
:1009D00061E170E042E050E062DEF8013A96EE0F2D
:1009E000FF1FEE0DFF1D8081918161E070E043E00B
:1009F00050E055DEF8013B96EE0FFF1FEE0DFF1D98
:100A00008081918165E070E043E050E048DE045F62
:100A10001F4FF801EE0FFF1FEE0DFF1D808191812A
:100A200069E070E043E050E03ADE0F5F1F4F000FD7
:100A3000111F0E0D1F1DF801808191816DE070E086
:100A400043E050E02CDECC0CDD1CEC0CFD1CF7016F
:100A50008081918161E170E043E050E020DE1F91F0
:100A60000F91FF90EF90DF90CF900895FF920F933A
:100A70001F93CF93DF93F82E84E099E060910009F3
:100A8000409101090E94DC1684E099E06AE072E07E
:100A90000E94E52284E099E00E94C6166091000958
:100AA0006E5F6093000984E099E0409101090E9423
:100AB000DC16F7DB609152046A3018F000E010E0B9
:100AC00016C084E099E04AE050E00E94842284E06D
:100AD00099E060910009409101090E94DC16809123
:100AE0005204082F10E0109303090093020980912B
:100AF00052048E3009F4D8C091E0F91691F48A308E
:100B000009F470C08B3009F476C08C3009F47AC0D7
:100B10008D3039F488EC92E09093030980930209B8
:100B2000DFC0BFDB809152048E3029F4109303099B
:100B300000930209B9C091E0F91659F48A3009F41A
:100B400051C08B3009F457C08C3009F45BC08D3034
:100B500009F38A3018F0C0E0D0E029C060910009A4
:100B600061506093000984E099E0409101090E947E
:100B7000DC1684E099E0B8014AE050E00E94D322FC
:100B800084E099E0609152044AE050E00E9484229F
:100B900080915204C82FD0E0609100096F5F60938C
:100BA000000984E099E0409101090E94DC1679DB9C
:100BB000809152048E3089F4C801B3E0880F991FE8
:100BC000BA95E1F7000F111F800F911FC80FD91FB1
:100BD000D0930309C093020967C091E0F916C1F4EC
:100BE0008A3039F48FEF90E09093030980930209E3
:100BF0005BC08B3029F4109203091092020954C093
:100C00008C3019F484E692E087CF8D3009F482CFDE
:100C10008A3008F049C06091000962506093000971
:100C200084E099E0409101090E94DC1684E099E09B
:100C3000B8014AE050E00E94D32284E099E0BE016E
:100C40004AE050E00E94D322609100096E5F6093F9
:100C5000000984E099E0409101090E94DC1684E0DB
:100C600099E0609152044AE050E00E94842284E6B8
:100C700090E0089F9001099F300D189F300D1124BE
:100C800080915204280F311DCE01F3E0880F991F87
:100C9000FA95E1F7CC0FDD1F8C0F9D1F280F391F30
:100CA000309303092093020984E099E00E94CE1654
:100CB0006091000970E0625070404091010980919C
:100CC00002099091030950E0EADC60910009645048
:100CD0006093000984E099E0409101090E94DC16CC
:100CE00084E099E00E94CE1684E099E060910009CA
:100CF000409101090E94DC166CE271E080E090E016
:100D00000E94D41EDF91CF911F910F91FF90089503
:100D10000F931F93CF93DF9384E099E00E94041711
:100D200084E099E061E141E00E94DC1608EA14E009
:100D3000C0E0D0E0F801119211928F01E091DE093C
:100D4000F091DF09EC0FFD1F108284E099E0BE01F5
:100D500042E050E00E94D3222196F2E0C130DF074A
:100D600049F784E099E00E94041784E099E063E089
:100D700041E00E94DC1684E099E06EE072E00E949F
:100D8000E52268EE73E080E090E00E94D41EDF91DF
:100D9000CF911F910F910895CF93DF9384E099E055
:100DA0000E94041784E099E00E94CE1684E099E046
:100DB00060E040E00E94DC16C0E0D0E084E099E012
:100DC000BE0142E050E00E94D322219682E0C13071
:100DD000D807A1F784E099E00E94041784E099E025
:100DE00060E043E00E94DC1684E099E06EE172E08E
:100DF0000E94E52284E099E063E040E00E94DC1676
:100E000084E099E063E372E00E94E52284E099E0E7
:100E100061E041E00E94DC1684E099E063E472E066
:100E20000E94E52284E099E060E042E00E94DC1646
:100E300084E099E067E572E00E94E52284E099E0B1
:100E400060E04AE050E00E94842284E099E06EE590
:100E500072E00E94E52284E099E065E04AE050E01B
:100E60000E94842284E099E06BE042E00E94DC165C
:100E700084E099E060E672E00E94E52284E099E077
:100E800060E04AE050E00E94842284E099E06EE550
:100E900072E00E94E52284E099E060E04AE050E0E0
:100EA0000E94842260ED77E080E090E00E94D41EF2
:100EB000DF91CF9108950F931F93CF93DF9384E039
:100EC00099E00E94041784E099E061E141E00E940A
:100ED000DC160AEA14E0C1E0D0E08BED99E0BE0137
:100EE0000E944F1BF801808311822197E091DE0957
:100EF000F091DF09EC0FFD1F2196808384E099E0DB
:100F0000BE0142E050E00E94D32221960E5F1F4FA7
:100F1000F2E0C130DF0709F784E099E00E9404178E
:100F200084E099E063E041E00E94DC1684E099E00F
:100F300067E672E00E94E52268EE73E080E090E0F0
:100F40000E94D41EDF91CF911F910F9108958BEDD8
:100F500099E061E072E00E944F1B682F80911B09AD
:100F6000882361F46623A9F4809165046FE770E03B
:100F70000E94CD1F81E080931B090895813069F4A0
:100F80008091650460E070E00E94CD1F10921B0903
:100F900008958091650470E0EBCF08952F923F9201
:100FA0004F925F926F927F928F929F92AF92BF9279
:100FB000CF92DF92EF92FF920F931F93DF93CF9325
:100FC000CDB7DEB763970FB6F894DEBF0FBECDBFC7
:100FD00089837B8B6A8B0091AE081091AF0884E007
:100FE00099E0602F412F0E94DC1684E099E066E7CB
:100FF00072E00E94E5228A899B890D969B838A83F1
:10100000EA89FB893896FD83EC838A899B8903965C
:101010009F838E83EA89FB893E96F987E8878A89D0
:101020009B8909969B878A87EA89FB893496FD8785
:10103000EC876AE0262E312C8A899B89280E391E7E
:101040000B969F878E87EA89FB893C96F98BE88B04
:1010500057E0852E912C8A899B89880E991E46E03F
:10106000642E712C680E791E35E0432E512C480EEB
:10107000591E6C010894C11CD11C22E0A22EB12C77
:10108000A80EB91E84E1E82EF12C8091420460E0A4
:101090000E945E21809150040E949021892B59F476
:1010A00060915304709154048091550490915604BA
:1010B0000E94D41E4CDF8091420461E00E945E21B8
:1010C00080913C040E949021892BF9F46CE271E03C
:1010D00080E090E00E94D41E2091AE088091AF087D
:1010E00090E08E9DA0018F9D500D9E9D500D11246E
:1010F000222309F424E12150FA01E20FF11DE05509
:10110000F74F80818130A1F724C080913E040E9476
:101110009021892B09F56CE271E080E090E00E945B
:10112000D41E2091AE088091AF0890E08E9DA00162
:101130008F9D500D9E9D500D11242F5F243108F07E
:1011400020E0FA01E20FF11DE055F74F8081813078
:10115000A1F72093AE084EC180913A040E949021DD
:10116000892B09F56CE271E080E090E00E94D41ECA
:101170002091AF088091AE08482F50E02F5F2430B7
:1011800008F020E0822F90E08E9DF0018F9DF00D01
:101190009E9DF00D1124E40FF51FE055F74F80815F
:1011A000813061F726C0809138040E949021892BFC
:1011B00019F56CE271E080E090E00E94D41E20916D
:1011C000AF088091AE08482F50E0222309F424E0B4
:1011D0002150822F90E08E9DF0018F9DF00D9E9DFD
:1011E000F00D1124E40FF51FE055F74F8081813099
:1011F00061F72093AF08FEC0809140040E949021C7
:10120000892B09F042CF6CE271E080E090E00E940F
:10121000D41E4091AF086091AE08842F90E08E9D5F
:10122000F0018F9DF00D9E9DF00D1124E60FF11D34
:10123000E055F74F8081813009F0FAC084E099E0F1
:101240000E94DC1684E099E068E772E00E94E522E3
:1012500082E0C8C09091AE089C3031F48091AF0814
:10126000882309F048C01FC0903181F48091AF08F5
:10127000882309F049C084E099E061E040E00E94E1
:10128000DC1684E099E06AE772E0A9C0943029F4A2
:101290008091AF088823F9F406C0983089F48091D2
:1012A000AF08882301F584E099E061E040E00E9406
:1012B000DC1684E099E06AE772E00E94E52285C0CE
:1012C000992339F48091AF08813039F58A899B8957
:1012D00077C0943031F48091AF088130E1F4C601D9
:1012E0006FC0983031F48091AF088130E1F4C501CE
:1012F00067C09C3039F48091AF08813031F58E8120
:101300009F815EC0903139F48091AF08813031F512
:101310008C859D8555C0992331F48091AF0882302A
:1013200031F5C2014DC0943031F48091AF08823064
:1013300031F5C30145C0983031F48091AF08823057
:1013400039F5C4013DC09C3039F48091AF0882303A
:1013500041F58C819D8134C0903139F48091AF0882
:10136000823041F58A859B852BC0992331F4809189
:10137000AF08833051F5C10123C0943039F4809116
:10138000AF08833011F58E859F851AC0983039F4E7
:101390008091AF088330C9F48889998911C09C3045
:1013A00039F48091AF08833081F48A819B8108C031
:1013B000903159F48091AF08833039F4888599854C
:1013C00061E070E040E050E06AD984E099E060E1DB
:1013D00040E00E94DC1684E099E06EE772E00E9433
:1013E000E52281E00091AE081091AF08823009F04B
:1013F0004CCE1FC084E099E0602F412F0E94DC1684
:1014000084E099E060E872E00E94E52284E099E0DF
:101410006091AE084091AF080E94DC1684E099E02C
:1014200066E772E00E94E52299819130D1F612CFF1
:10143000FFCF63960FB6F894DEBF0FBECDBFCF913E
:10144000DF911F910F91FF90EF90DF90CF90BF90B1
:10145000AF909F908F907F906F905F904F903F9054
:101460002F9008951F938BED99E061E072E00E9448
:101470004F1B182F80916504612F70E00E94CD1FD3
:10148000112319F410921B0903C081E080931B09FA
:101490001F9108950F931F93CF93DF9384E099E0FA
:1014A0000E94041784E099E061E141E00E94DC16AB
:1014B00008EA14E0C0E0D0E0F801119211928F0127
:1014C000E091DE09F091DF09EC0FFD1F10828BED3A
:1014D00099E0BE0140E00E94561B84E099E0BE0105
:1014E00042E050E00E94D3222196F2E0C130DF07B3
:1014F00019F784E099E00E94041784E099E063E022
:1015000041E00E94DC1684E099E062E872E00E940B
:10151000E52268EE73E080E090E00E94D41EDF9147
:10152000CF911F910F9108950F931F93CF93DF9346
:1015300084E099E00E94041784E099E061E141E0D1
:101540000E94DC160AEA14E0C1E0D0E08BED99E0DD
:10155000BE01F80140810E94561B84E099E0BE0163
:1015600042E050E00E94D32221960E5F1F4FF2E02E
:10157000C130DF0759F784E099E00E94041784E046
:1015800099E063E041E00E94DC1684E099E062E9C2
:1015900072E00E94E52268EE73E080E090E00E9435
:1015A000D41EDF91CF911F910F91089584E099E0AF
:1015B0000E94041784E099E060E040E00E94DC169D
:1015C00084E099E060EA72E00E94E52284E099E01C
:1015D00061E042E00E94DC1684E099E060EB72E09A
:1015E0000E94E52284E099E061E043E00E94DC167D
:1015F00084E099E065EB72E00E94E52284E099E0E6
:1016000067E042E00E94DC1684E099E06AEB72E059
:101610000E94E52284E099E067E043E00E94DC1646
:1016200084E099E060EC72E00E94E52284E099E0B9
:101630006EE043E00E94DC1684E099E066EC72E024
:101640000E94E5221092AE0882E08093AF08E0EBA2
:10165000F8E0DF0198961082148A1C9254961C922E
:1016600054973196119688E0E43CF807A1F781E0A1
:10167000848B80A786A7828F85AB80E060E070E0D6
:101680008DDC8091AE08882329F48091AF088330E7
:1016900009F411DC8091AE08863029F48091AF08FE
:1016A000833009F4F7DE8091AE08882329F4809115
:1016B000AF08823009F438DF8091AE08863029F413
:1016C0008091AF08823009F423CB0895EF92FF9206
:1016D0000F931F93CF93DF93EEE0EE2E7FE0F72E74
:1016E000CFEFD0E08BED99E061E072E00E944F1BFC
:1016F000182F8BED99E062E072E00E944F1B082FDB
:1017000084E099E00E94041784E099E060E040E002
:101710000E94DC1684E099E06DEC72E00E94E52204
:1017200084E099E06FE040E00E94DC1684E099E0FC
:1017300069ED72E00E94E52284E099E063E041E017
:101740000E94DC1684E099E06FED72E00E94E522D1
:10175000812F90E06FE070E041E050E00E944F0385
:1017600084E099E065E042E00E94DC1684E099E0C4
:101770006BEE72E00E94E522802F90E06FE070E057
:1017800042E050E00E944F0384E099E060E043E0D3
:101790000E94DC1684E099E065EF72E00E94E52289
:1017A00084E099E06FE043E00E94DC1684E099E079
:1017B00062E073E00E94E522E092AE0882E080934E
:1017C000AF08E0EBF8E0DF0198961082148A1C92D3
:1017D00054961C9254973196119628E0E43CF207F7
:1017E000A1F781E0868782A386AB8093BE0880E064
:1017F00060E070E0D3DB8091AE088E30C1F780915D
:10180000AF08813009F080C080930109F09200098F
:101810002DD9809102099091030922E0883C92071A
:1018200009F045C084E099E06EE041E00E94DC16DA
:1018300084E099E064E072E00E94E5228091460431
:1018400060E00E945E2184E099E00E94C6168091CB
:1018500050040E949021019709F0E3C08091400458
:101860000E949021019709F0DCC0809157040E94EA
:10187000991F64E070E00E940623CB016093020987
:10188000909303096FE070E041E050E00E944F0345
:101890006091020970910309809165040E94CD1F37
:1018A00068EC70E080E090E00E94D41ED0CF8F3FC3
:1018B000910569F064F0D0930309C09302098FEF9A
:1018C00090E060E170E042E050E00E944F036091E0
:1018D000020970910309809165040E94CD1F409117
:1018E0000209509103094115510519F410921B0981
:1018F00006C0141615061CF481E080931B098BEDBD
:1019000099E061E072E075C0823009F075C08093A3
:101910000109F092000981E0A9D880910209909113
:10192000030922E0883C920709F045C084E099E071
:101930006EE042E00E94DC1684E099E064E072E030
:101940000E94E5228091460460E00E945E2184E0CE
:1019500099E00E94C616809150040E949021019740
:1019600009F06FC0809140040E949021019709F016
:1019700068C0809157040E94991F64E070E00E9443
:101980000623CB0160930209909303096FE070E096
:1019900042E050E00E944F036091020970910309F8
:1019A000809167040E94CD1F68EC70E080E090E0B9
:1019B0000E94D41ED0CF8F3F910569F064F0D09380
:1019C0000309C09302098FEF90E060E170E042E00C
:1019D00050E00E944F0360910209709103098091C9
:1019E00067040E94CD1F8BED99E062E072E04091A8
:1019F00002090E94561BFBCE833011F432D0F7CE81
:101A0000882309F0F4CEC8D9809140040E94902127
:101A10000197D1F36CE271E080E090E00E94D41E67
:101A200061CE84E099E00E94CE168091460461E088
:101A30000E945E216CE271E080E090E00E94D41E82
:101A40004ECF84E099E00E94CE168091460461E07A
:101A50000E945E216CE271E080E090E00E94D41E62
:101A6000C2CF84E099E00E94041784E099E060E02E
:101A700040E00E94DC1684E099E067E073E00E9499
:101A8000E52284E099E062E042E00E94DC1684E016
:101A900099E068E173E00E94E52284E099E062E069
:101AA00043E00E94DC1684E099E060E273E00E946B
:101AB000E52284E099E06CE042E00E94DC1684E0DC
:101AC00099E067E273E00E94E52284E099E06CE02F
:101AD00043E00E94DC1684E099E06EE273E00E942D
:101AE000E52284E099E06CE041E00E94DC1684E0AD
:101AF00099E067E373E00E94E52284E099E062E008
:101B000041E00E94DC1684E099E06EE373E00E94FD
:101B1000E52281E08093AE0882E08093AF08E0EB9D
:101B2000F8E0DF0198961082148A1C9254961C9259
:101B300054973196119688E0E43CF807A1F781E0CC
:101B4000858B81A7878F83AB8387818380E060E06B
:101B500070E024DA8091AE08813029F48091AF08DA
:101B6000823009F46AD28091AE08813029F48091E4
:101B7000AF08833009F426D08091AE088B3029F469
:101B80008091AF08823009F4A2D38091AE088B30E7
:101B900029F48091AF08833009F498D58091AE087C
:101BA0008B3029F48091AF08813009F48FDD80916A
:101BB000AE08813031F48091AF08813011F4F6DC49
:101BC00050CF08952F923F924F925F926F927F92E3
:101BD0008F929F92AF92BF92CF92DF92EF92FF923D
:101BE0000F931F93DF93CF93CDB7DEB760970FB6F8
:101BF000F894DEBF0FBECDBF81E090E09093370434
:101C000080933604988B8F870CE011E004C021E0AC
:101C100030E0388B2F8784E099E00E94041784E03D
:101C200099E060E040E00E94DC1684E099E065E421
:101C300073E00E94E5228F8598890E9451040093E9
:101C4000AE081092AF08E0EBF8E0DF019896108242
:101C5000148A1C9254961C9254973196119638E02F
:101C6000E43CF307A1F71093B4081093B80810935D
:101C7000BC081093C0081083148310871487108B3E
:101C8000148B108F148F10A314A310A714A710ABDC
:101C900014AB10AF8F8598890C969A838983EF8552
:101CA000F8893796FC83EB832F8538892E5F3F4F69
:101CB0003E832D838F8598890D9698878F83EF8536
:101CC000F8893896FA87E9872F8538892D5F3F4F45
:101CD0003C872B878F8598890E969E878D8759E044
:101CE000252E312CEF85F8892E0E3F1E44E0442E20
:101CF000512C4E0E5F1E3AE0632E712C6E0E7F1E2D
:101D000025E0822E912C8E0E9F1E5F010894A11C4F
:101D1000B11C96E0C92ED12CCE0EDF1E8BE0E82E32
:101D2000F12CEE0EFF1E81E06F85788937D99091F6
:101D3000AE08943039F48091AF08882309F080C050
:101D400035DC69CF983039F48091AF08882309F0E9
:101D500082C087DE60CF9C3081F58091AF088823F8
:101D600009F082C010920109FDE0F09300092F856F
:101D7000388930930309209302090E943605809127
:101D8000020990910309835F914034F082EF91E062
:101D900090930309809302098091020990910309AD
:101DA000892B31F4E1E0F0E0F0930309E0930209BC
:101DB00020910209309103092CCF9031B1F5809127
:101DC000AF08882309F05DC01092010931E130931A
:101DD00000098F859889019739F4EFE0F0E0F093DE
:101DE0000309E093020908C02F8538892E5030403E
:101DF000309303092093020980E00E943605609128
:101E000002097091030932E0613073072CF082EF10
:101E100091E0988B8F87FFCE6F3071050CF4F7CE71
:101E2000FB013E97F88BEF87F6CE992339F480912A
:101E3000AF08813089F52F8538891CC0943049F46A
:101E40008091AF08813099F5B0923704A0923604A2
:101E500088C0983039F48091AF08813099F5ED81D0
:101E6000FE817BC09C3059F48091AF08813099F598
:101E70002B853C85309337042093360472C0903113
:101E800049F48091AF08813079F55092370440923F
:101E9000360467C0992349F48091AF08823079F500
:101EA00090923704809236045CC0943049F480915B
:101EB000AF08823079F5D0923704C092360451C011
:101EC000983039F48091AF08823079F5EB81FC814C
:101ED00044C09C3039F48091AF08823079F529856F
:101EE0003A85C8CF903149F48091AF08823079F5B6
:101EF000309237042092360434C0992349F48091FB
:101F0000AF08833071F5709237046092360429C0AF
:101F1000943049F48091AF08833019F5F09237047A
:101F2000E09236041EC0983039F48091AF088330B7
:101F3000C1F4E981FA8111C09C3039F48091AF0875
:101F4000833079F42F81388595CF903151F4809189
:101F5000AF08833031F4ED85FE85F0933704E093CC
:101F600036048091AF08809301099F5F9093000928
:101F7000E0913604F0913704EE0FFF1FE855FB4F58
:101F800080819181909303098093020981E00E94EE
:101F9000360580910209909103098456924039F4E4
:101FA0000E94F5038091000984508093000980917C
:101FB00002099091030922E0883C920769F480911C
:101FC00000098250609101090E948B0380910009F1
:101FD000845080930009A7CE8F3F910589F084F04B
:101FE0008FEF90E0909303098093020960910009BC
:101FF00070E06E5F7F4F4091010950E00E944F03F7
:1020000080913604909137040197E091DE09F091B8
:10201000DF09E80FF91F809102098083E0913604FF
:10202000F0913704EE0FFF1FE855FB4F8091020936
:10203000909103099183808376CEAF92BF92CF9225
:10204000DF92EF92FF920F931F93CF93DF93C1E044
:10205000D0E098E0A92E01E089E0B82EE12C12E052
:10206000F12EBFEFCB2ED12CD0933704C093360482
:1020700084E099E0C9D684E099E060E040E09CD635
:1020800084E099E067E573E00E94E52284E099E04E
:102090006EE042E091D684E099E062E073E00E9455
:1020A000E52284E099E06EE043E086D684E099E0A2
:1020B0006EE373E00E94E52284E099E060E042E094
:1020C0007BD684E099E068E673E00E94E52284E034
:1020D00099E062E043E070D684E099E065E773E060
:1020E0000E94E5228091AA049091AB0469E070E01F
:1020F00043E050E00E944F03A092AE0882E080933C
:10210000AF08E0EBF8E0DF0198961082148A1C9289
:1021100054961C9254973196119628E0E43CF207AD
:10212000A1F7048F00AB01A305AB80E060E070E095
:102130000E94CE078091AE08883009F058C01091F7
:10214000AF08123009F053C08091360490913704E3
:1021500069E070E042E050E00E944F0310930109F3
:10216000B09200098091360490913704909303094E
:102170008093020980E00E943605809102099091C7
:1021800003098150924064F0F0920309E092020941
:1021900080E092E069E070E042E050E00E944F038E
:1021A00080910209909103091816190664F0D093E2
:1021B0000309C093020981E090E069E070E042E029
:1021C00050E00E944F03E0910209F0910309F0935F
:1021D0003704E0933604EE0FFF1FE855FB4F808174
:1021E000918169E070E043E050E00E944F038091EC
:1021F000AE08883009F05DC08091AF08833009F0E7
:1022000094CF80930109B0920009E0913604F091D7
:102210003704EE0FFF1FE855FB4F808191819093AB
:1022200003098093020981E00E943605809102092A
:10223000909103098456924011F40E94F503809115
:1022400002099091030922E0883C920729F489E071
:1022500063E00E948B0369CF8F3F910569F064F0C2
:10226000D0920309C09202098FEF90E069E070E01C
:1022700043E050E00E944F03809136049091370470
:102280000197E091DE09F091DF09E80FF91F8091D5
:1022900002098083E0913604F0913704EE0FFF1FAE
:1022A000E855FB4F80910209909103099183808347
:1022B0003CCF8D3009F039CF8091AF08833011F4D5
:1022C00075D9D2CE823009F030CFCBDB2ECF2F9212
:1022D0003F924F925F926F927F928F929F92AF92B6
:1022E000BF92CF92DF92EF92FF920F931F93DF93F3
:1022F000CF93CDB7DEB728970FB6F894DEBF0FBEE9
:10230000CDBF84E099E080D584E099E060E040E0D2
:1023100053D584E099E06CE773E00E94E52284E005
:1023200099E063E041E048D584E099E069E873E032
:102330000E94E52284E099E060E042E03DD584E03F
:1023400099E069E973E00E94E52284E099E060E0A9
:1023500043E032D584E099E06DEA73E00E94E52223
:1023600081E090E069E070E041E050E00E944F03BE
:1023700081E090E069E070E042E050E00E944F03AD
:1023800080E090E069E070E043E050E00E944F039D
:1023900088E08093AE0881E08093AF0821E030E0D0
:1023A00040E050E029833A834B835C83E1E08E2E4A
:1023B000912CA12CB12C442455243201E0EBF8E0FF
:1023C000DF0198961082148A1C9254961C9254979E
:1023D0003196119638E0E43CF307A1F741E04087DD
:1023E000448F40AB42A346AB80E060E070E00E94C7
:1023F000CE078091AE088E3029F48091AF088230EC
:1024000009F42FDB8091AE088E3009F0ADC08091C9
:10241000AF08833009F0C9C08D829E8284E099E0C4
:102420006FE043E0C9D484E099E062EC73E00E947D
:10243000E522A8EAB4E080E090E01D921D92E091D0
:10244000DE09F091DF09E80FF91F1082019652E0D2
:102450008130950791F78D819E819C01690114015E
:10246000220C331C88EA94E0280E391E5FC0AF812D
:10247000B8851196B887AF83A451B54009F05BC009
:102480000894E11CF11C011D111D29813A814B8129
:102490005C81E216F3060407150709F04AC0C6017D
:1024A000AA2797FDA095BA2F481659066A067B06FB
:1024B00024F48D819E819C016901C60169E070E070
:1024C00040E050E00E944F03D101A50194010FC0EC
:1024D000C9010197E091DE09F091DF09E80FF91FCA
:1024E00010821D921D922F5F3F4F4F4F5F4F42163C
:1024F00053066406750664F70894C108D108E09194
:10250000DE09F091DF09EC0DFD1D0894C11CD11C02
:102510003FEF3083F601EE0FFF1FE855FB4F4FEF03
:1025200050E0518340830894C11CD11CEE24FF2449
:10253000870118861F82809140040E949021019794
:1025400009F495CF84E099E06FE043E035D484E06E
:1025500099E068EC73E00E94E5226CE271E080E0B3
:1025600090E00E94D41E2ACF8830F9F48091AF0801
:102570008130D9F48093010959E050930009898191
:102580009A81909303098093020980E00E943605A6
:1025900080910209909103099C01442737FD4095E1
:1025A000542F29833A834B835C838091AE08883013
:1025B00009F042C08091AF088230F1F580930109A3
:1025C00039E030930009909203098092020980E07B
:1025D0000E94360580910209909103094C01AA24BA
:1025E00097FCA094BA2C81149104A104B10471F455
:1025F00081E090E069E070E042E050E00E944F032B
:1026000051E0852E912CA12CB12C16C041E08416EE
:1026100042E0940640E0A40640E0B4066CF080E09E
:1026200092E069E070E042E050E00E944F03812CAC
:1026300042E0942EA12CB12C8091AE08883009F094
:10264000BDCE8091AF08833009F0B8CE80930109E8
:1026500059E050930009509203094092020980E02A
:102660000E94360580910209909103092C0166248D
:1026700057FC6094762C411451046104710471F488
:1026800081E090E069E070E043E050E00E944F0399
:1026900031E0432E512C612C712C90CE81E04816F4
:1026A00082E0580680E0680680E078060CF486CE6A
:1026B00080E092E069E070E043E050E00E944F0368
:1026C000412C22E0522E612C712C78CE2F923F9219
:1026D0004F925F926F927F928F929F92AF92BF9232
:1026E000CF92DF92EF92FF920F931F93DF93CF93DE
:1026F000CDB7DEB728970FB6F894DEBF0FBECDBFBB
:1027000081E090E098878F83662477244301AA2490
:10271000BB246501AFEFB0E0BA83A98384E099E000
:1027200073D384E099E063E040E046D384E099E02D
:102730006EEC73E00E94E52284E099E060E041E005
:102740003BD384E099E064ED73E00E94E52284E0ED
:1027500099E060E042E030D384E099E067EE73E016
:102760000E94E52284E099E060E043E025D384E024
:1027700099E06CEF73E00E94E52289819A8169E01B
:1027800070E040E050E00E944F038F81988569E03F
:1027900070E041E050E00E944F03C30169E070E047
:1027A00042E050E00E944F03C50169E070E043E061
:1027B00050E00E944F03B8E0B093AE081092AF080B
:1027C000E0EBF8E0DF0198961082148A1C92549690
:1027D0001C9254973196119628E0E43CF207A1F739
:1027E00081E0808780AB848F858781A385AB8093D0
:1027F000B80880E060E070E00E94CE078091AE08EB
:102800008D3029F48091AF08813009F42AD9809164
:10281000AE088D3009F092C08091AF08823019F473
:102820000E94D60A7BCF833009F0C2C0C601B50131
:10283000A40193010E94E7226150724080409040C1
:1028400054F084E099E06DE040E0B6D284E099E095
:1028500060E174E070C084E099E06DE040E0ACD2EB
:1028600084E099E068E174E00E94E52291E0E92EBD
:10287000F12C012D112D8F819885AA2797FDA09508
:10288000BA2F8B839C83AD83BE8346C091E0E9164B
:10289000F1040105110509F049C12B803C804D80F0
:1028A0005E80A1E02A16A2E03A06A0E04A06A0E077
:1028B0005A0634F026183708480859088601750169
:1028C00084E099E061E140E077D284E099E0B201F0
:1028D000A1012AE030E00E94952265E070E080E0EE
:1028E00090E00E94D41EC10101972091DE09309131
:1028F000DF09280F391F8981F9018083F101EE0F6B
:10290000FF1FE855FB4FA981BA81B183A0830894CA
:10291000E11CF11C011D111DAE14BF04C006D1063F
:102920000CF0B4CF84E099E06DE040E045D284E063
:1029300099E060E274E00E94E52242CF8830C1F560
:102940008091AF088130A1F580930109B9E0B0937F
:102950000009EF81F885F0930309E093020980E014
:102960000E943605809102099091030998878F8310
:10297000892B69F481E090E069E070E041E050E08B
:102980000E944F03A1E0B0E0B887AF8311C0EF8190
:10299000F885E150F24064F080E092E069E070E098
:1029A00041E050E00E944F0380E092E098878F83DF
:1029B0008091AE08883009F042C08091AF08823023
:1029C000F1F58093010999E0909300097092030951
:1029D0006092020980E00E94360580910209909180
:1029E00003093C01882477FC8094982C61147104BD
:1029F0008104910471F481E090E069E070E042E0CC
:102A000050E00E944F0311E0612E712C812C912C1B
:102A100016C0A1E06A16A2E07A06A0E08A06A0E04D
:102A20009A066CF080E092E069E070E042E050E0ED
:102A30000E944F03612CB2E07B2E812C912C80915F
:102A4000AE08883009F042C08091AF088330F1F5BC
:102A500080930109B9E0B0930009B0920309A092F4
:102A6000020980E00E9436058091020990910309D5
:102A70005C01CC24B7FCC094DC2CA114B104C104CB
:102A8000D10471F481E090E069E070E043E050E04F
:102A90000E944F03A1E0AA2EB12CC12CD12C16C04C
:102AA000E1E0AE16E2E0BE06E0E0CE06E0E0DE06E3
:102AB0006CF080E092E069E070E043E050E00E945A
:102AC0004F03A12CF2E0BF2EC12CD12C8091AE0877
:102AD000883009F075CE8091AF08882309F070CE58
:102AE00010920109F9E0F093000989819A8190938D
:102AF00003098093020981E00E943605A091020932
:102B0000B0910309BA83A983AF3FB10509F00CF472
:102B100057CE8FEF90E069E070E040E050E00E9417
:102B20004F03EFEFF0E0FA83E9834ACE260C371C1F
:102B3000481C591CB6CE84E099E066D184E099E047
:102B400060E040E039D184E099E064E274E00E9402
:102B5000E52284E099E062E042E02ED184E099E051
:102B60006AEB72E00E94E52284E099E069E042E0CD
:102B700023D184E099E065EB72E00E94E52284E0D5
:102B800099E06FE042E018D184E099E060EC72E0F7
:102B90000E94E52281E08093AE0882E08093AF0836
:102BA000E0EBF8E0DF0198961082148A1C925496AC
:102BB0001C9254973196119688E0E43CF807A1F7EF
:102BC00081E0858B848F82A380E060E070E00E94CA
:102BD000CE078091AE08883041F48091AF088230F2
:102BE00021F40E945B070E94310D8091AE088E3067
:102BF00041F48091AF08823021F40E944A0A0E9479
:102C0000310D8091AE08813031F48091AF0882306F
:102C100011F40C94310D089582E061E00E945E2170
:102C20000E94320A0E94CC0686CF8091340461E073
:102C30000E94AB208091380462E00E94AB2080911A
:102C40003A0462E00E94AB2080913C0462E00E9462
:102C5000AB2080913E0462E00E94AB208091400452
:102C600062E00E94AB208091420461E00E94AB20B0
:102C70008091440461E00E94AB208091460461E0B1
:102C80000E94AB208091480461E00E94AB208091BB
:102C90004A0462E00E94AB2080914C0462E00E94F2
:102CA000AB2080914E0462E00E94AB2080915004E2
:102CB00062E00E94AB208091420461E00E945E21AC
:102CC0008091440461E00E945E218091460461E0AD
:102CD0000E945E218091480461E00E945E21809103
:102CE000590461E00E94AB2080915B0461E00E9486
:102CF000AB208091630461E00E94AB20809161046D
:102D000061E00E94AB2080915F0461E00E94AB20F3
:102D100080915D0461E00E94AB208091650461E0D8
:102D20000E94AB2084E099E064E144E020E072D0AE
:102D300081E090E09093F4098093F30980E092E0C1
:102D40009093F0098093EF098CED99E060E00BC659
:102D500008950895FC011382128284E794E0918320
:102D600080830895FC01A081B18118962D913C913A
:102D700019976FEFF90119950895DC01ED91FC9118
:102D80000284F385E02D40E019950895FC016581EA
:102D9000862F816085836960CF01EFCFFC0165815B
:102DA0006E7F65836860E9CFFC016581862F846052
:102DB00085836C60CF01E1CFDC0117969C9117975A
:102DC000491710F0492F415018968C91189780316F
:102DD00039F4943029F4E42FF0E0E058FB4F04C0BC
:102DE000E42FF0E0EC57FB4F8081680F6068CD0165
:102DF000C4CFDC01ED91FC910284F385E02D41E02C
:102E0000199581E090E0089561E0B7DF80ED97E0EB
:102E10000C942D1FCF93DF93EC01423018F08C817E
:102E200088608C834F836887222329F0413019F40E
:102E30008C8184608C8364E670E080E090E0B4D79D
:102E40006C8164FD2EC0E881F9810284F385E02D58
:102E5000CE0163E042E0199584E991E1FED7E88173
:102E6000F9810284F385E02DCE0163E042E01995FB
:102E700084E991E1F2D7E881F9810284F385E02DBC
:102E8000CE0163E042E0199586E990E0E6D7E8815B
:102E9000F9810284F385E02DCE0162E042E01995CC
:102EA00011C06062CE0169DF84E991E1D6D76C81FF
:102EB0006062CE0162DF86E990E0CFD76C8160620C
:102EC000CE015BDF6C816062CE0157DF84E08D83D1
:102ED000CE016ADFCE0198DF82E08E83CE0166E00C
:102EE0004CDFCE013FDFDF91CF9108950F931F9309
:102EF0008C01FC01858561E00E945E21F8018585D9
:102F000060E00E945E211F910F910895BF92CF92C1
:102F1000DF92EF92FF920F931F93CF93DF93D82E00
:102F2000C92EB42E282F392FC9018C01C0E0D0E062
:102F3000E62EFF240DC0B7010C2E02C075956795D3
:102F40000A94E2F76170F80185850E945E2121965E
:102F50000F5F1F4FCB1578F38D2D9C2DC7DFDF91B1
:102F6000CF911F910F91FF90EF90DF90CF90BF9086
:102F700008950F931F93CF93DF93EC01162F042F27
:102F800060E0413009F461E08B850E945E218C8510
:102F90008F3F19F060E00E945E21023089F08C8141
:102FA00084FF04C0CE01612F48E00DC0612F70E0A6
:102FB00084E0759567958A95E1F7CE0144E0A6DF38
:102FC000CE01612F44E0A2DFDF91CF911F910F91DD
:102FD00008956F927F928F92AF92CF92EF920F935C
:102FE0001F93DF93CF93CDB7DEB73C01162F8E2D05
:102FF000F301438724870587E686C786A08A818AEE
:103000009E85928B9F85938B9889948B9989958BBC
:1030100061E00E94AB20F301878561E00E94AB2054
:10302000F301808961E00E94AB20F301818961E0B6
:103030000E94AB201123A1F4F301828961E00E9478
:10304000AB20F301838961E00E94AB20F301848906
:1030500061E00E94AB20F301858961E00E94AB2012
:10306000F301838561E00E94AB20F30184858F3FEB
:1030700019F061E00E94AB20F301858561E00E94B8
:10308000AB20112319F0F301148203C080E1F30196
:103090008483F301838560E00E945E21F3018585CE
:1030A00060E00E945E21F30184858F3F19F060E0AB
:1030B0000E945E218FEFF301868B12861186CF91DD
:1030C000DF911F910F91EF90CF90AF908F907F90F5
:1030D0006F900895DF92EF92FF920F931F938C01F0
:1030E000D62E7A01862F61E00E94AB20D801569639
:1030F000DC9256971A96FC92EE921997ED91FC91FC
:103100000084F185E02DC80160E019951F910F91B1
:10311000FF90EF90DF900895DC01362F56962C91AA
:1031200056972F3F49F1E22FF0E0E254FE4FE49131
:10313000EE2379F019968D919C911A97892B19F4A9
:10314000822F70E005C06FEF70E0631B7109822F62
:1031500024C719968D919C911A97662319F0892B93
:1031600039F402C0019721F4822F61E00C945E21B2
:10317000822F60E00C945E2108956F927F928F926F
:10318000AF92BF92CF92DF92EF92FF920F931F9375
:103190003C01162FF42ED22EB02EAE2C8C2CDADD64
:1031A0008CE894E0D3018D939C9300D00F92EDB7FF
:1031B000FEB73196ADB7BEB711961C92118212823E
:1031C0001382C30161E0412F2FEF0F2DED2CCB2C8B
:1031D00000DF0F900F900F900F901F910F91FF90B5
:1031E000EF90DF90CF90BF90AF908F907F906F90D7
:1031F000089520913D0930E080913C09281B310958
:10320000C901089540913C0980913D09481718F083
:103210002FEF3FEF0AC0E42FF0E0E45EF64F80812D
:10322000282F30E04F5F40933C09C9010895E09199
:103230003C0980913D09E81718F0EFEFFFEF06C059
:10324000F0E0E45EF64F8081E82FF0E0CF010895D2
:103250000895109264091092630988EE93E0A0E04B
:10326000B0E08093650990936609A0936709B093D5
:1032700068098CE994E0909362098093610908954C
:10328000CF92DF92EF92FF920F931F93CF93DF9332
:103290007C016B018A01809160098823A1F0C0E064
:1032A000D0E00DC0D701ED91FC91D601AC0FBD1F50
:1032B0000190F081E02DC7016C9119952196C017FE
:1032C000D10780F303C0CB01642F39D0C801DF914F
:1032D000CF911F910F91FF90EF90DF90CF900895C5
:1032E000DF93CF930F92CDB7DEB7FC016983809156
:1032F00060098823C9F080915F09803238F081E04D
:1033000090E09383828320E030E014C080915E09D6
:10331000E82FF0E0E25CF64F998190838F5F809315
:103320005E0980935F0904C0CE01019661E007D079
:1033300021E030E0C9010F90CF91DF910895482F2F
:10334000613210F081E0089580916D09843011F0B0
:1033500082E008956093B809A7E9B9E0842F9C0141
:10336000F90102C081918D938E2F841B8617D0F3B3
:1033700080E008951F920F920FB60F920BB60F9236
:1033800011242F933F934F935F936F937F938F936A
:103390009F93AF93BF93EF93FF938091B90090E019
:1033A000887F90708036910509F4F2C081369105CE
:1033B000CCF58832910509F47BC089329105B4F4CB
:1033C0008031910509F46FC0813191053CF400977B
:1033D00009F447C1089709F04FC165C088319105CC
:1033E00009F466C0809709F047C182C08034910516
:1033F00009F4A4C08134910544F48033910509F4A3
:1034000082C0C89709F038C189C08035910509F498
:1034100089C08835910509F496C08834910509F072
:103420002BC1AEC08839910509F413C189399105C2
:10343000ECF48837910509F4ABC0893791054CF459
:103440008836910509F4A4C08037910509F014C1AC
:103450009FC08838910509F4FCC08039910509F4B2
:103460009DC08038910509F007C198C0803B910547
:1034700009F4C6C0813B91054CF4803A910509F4EA
:103480009FC0883A910509F0F7C0BAC0803C910509
:1034900009F4E3C0883C910509F4DFC0883B91053D
:1034A00009F0EAC0C2C080916E098093BB00CFC012
:1034B0009091950980919609981768F490919509D3
:1034C000E92FF0E0EB58F64F80818093BB009F5FBF
:1034D00090939509BCC080916F09882309F44BC073
:1034E00085ED8093BC008091BC0084FDFCCFC2C000
:1034F00080E28093DA0985ED8093BC008091BC0066
:1035000084FDFCCFB7C080E38093DA0985ED80931A
:10351000BC008091BC0084FDFCCFACC088E38093EC
:10352000DA099BC0809195099091BB00E82FF0E0EB
:10353000EB58F64F90838F5F809395099091950992
:103540008091960982C0809195099091BB00E82FE7
:10355000F0E0EB58F64F90838F5F80939509809150
:103560006F09882341F085ED8093BC008091BC00F9
:1035700084FDFCCF7FC081E08093700984EA6EC037
:1035800085ED8093BC008091BC0084FDFCCF72C0AF
:1035900083E080936D091092D90959C08091D909AF
:1035A000803208F056C08091D9099091BB00E82F75
:1035B000F0E0E754F64F90838F5F8093D90947C0BE
:1035C0008091D909803230F4E091D909F0E0E754D4
:1035D000F64F108285ED8093BC008091BC0084FD85
:1035E000FCCF10926D096091D909E0917309F091B7
:1035F000740989EB99E070E019951092D9092DC0F2
:1036000084E080936D091092B7091092B809E09197
:103610007109F091720919958091B809882329F4EC
:1036200081E08093B809109297099091B709E92F2A
:10363000F0E0E956F64F80818093BB009F5F909346
:10364000B7099091B7098091B809981710F485ECE3
:1036500001C085E88093BC000FC085EC8093BC005E
:1036600009C01092DA0985ED8093BC008091BC00FE
:1036700084FDFCCF10926D09FF91EF91BF91AF9146
:103680009F918F917F916F915F914F913F912F917A
:103690000F900BBE0F900FBE0F901F901895F999C9
:1036A000FECF72BD61BDF89A80B50895F999FECF3D
:1036B0001FBA72BD61BD40BD0FB6F894FA9AF99A6F
:1036C0000FBE0895FC018385882331F48091C100E9
:1036D00087728093C1000895813031F48091C900D0
:1036E00087728093C9000895823031F48091D100AF
:1036F00087728093D1000895833029F4809131013D
:1037000087728093310108951F920F920FB60F9226
:103710000BB60F9211242F933F934F935F936F93A8
:103720007F938F939F93AF93BF93EF93FF9380917A
:10373000C0008093E4093091C6003093E5092091E0
:10374000E0092093E60984FF10C08091C0008F7EBD
:103750008093C0008091F1099091F2099093EA0959
:103760008093E90981E08093E009213091F43323CB
:1037700069F482E08093E0098091DC099091DD0991
:1037800001969093E2098093E1094BC01092E00901
:1037900048C02230A1F48091E9099091EA0901978B
:1037A0009093EA098093E909892BD9F583E0809306
:1037B000E009E091DC09F091DD09308332C023306B
:1037C00081F5E091E109F091E209F093FF09E093BE
:1037D000FE0930834091FE095091FF094F5F5F4F12
:1037E0005093FF094093FE098091DC099091DD0917
:1037F0002091ED093091EE09820F931F4817590768
:1038000060F01092E009E091020AF091030A30970B
:1038100041F08091E709199504C05093E209409363
:10382000E109FF91EF91BF91AF919F918F917F91AE
:103830006F915F914F913F912F910F900BBE0F9021
:103840000FBE0F901F9018951F920F920FB60F92F8
:103850000BB60F9211242F933F934F935F936F9367
:103860007F938F939F93AF93BF93EF93FF93809139
:10387000E8098093FD09882361F41092C5008091C6
:10388000FA098093C4001092C60081E08093E80991
:1038900040C0813081F41092C5008091F909809375
:1038A000C4001092C60082E08093E8091092EC09EF
:1038B0001092EB092EC08091EB099091EC09909346
:1038C000FC098093FB09E091DE09F091DF09E80F24
:1038D000F91F20812093C6009C012F5F3F4F30933A
:1038E000FC092093FB098091EF099091F0092817BA
:1038F000390759F4E091000AF091010A309711F06C
:1039000080E019951092E80904C03093EC092093E7
:10391000EB09FF91EF91BF91AF919F918F917F91B3
:103920006F915F914F913F912F910F900BBE0F9030
:103930000FBE0F901F90189521E030E03093F209F0
:103940002093F10988E090E09093EE098093ED09CF
:103950003093F4092093F3099093F0098093EF09D1
:103960001092E70908951F93CF93DF93EC01162F70
:10397000F894A8DE1C8F112321F487E08D8F84E159
:103980000BC0113021F483E08D8F8AE005C0123026
:1039900021F481E08D8F85E08E8F8B8D8F3F29F014
:1039A00061E0D9D38B8D61E089D48B858823D1F4F4
:1039B00081E061E0D0D31092C5008D8D8093C4006A
:1039C0008091C00082608093C0008091C2008E60B0
:1039D0008093C2008091C10088648093C1001092DE
:1039E000C60053C08130D1F482E161E0B4D31092BB
:1039F000CD008D8D8093CC008091C8008260809333
:103A0000C8008091CA008E608093CA008091C9006E
:103A100088648093C9001092CE0037C08230D1F400
:103A200080E161E098D31092D5008D8D8093D40011
:103A30008091D00082608093D0008091D2008E600F
:103A40008093D2008091D10088648093D10010923D
:103A5000D6001BC08330C9F48EE061E07CD31092A5
:103A600035018D8D80933401809130018260809387
:103A70003001809132018E6080933201809131015A
:103A80008864809331011092360181E08C878B89A4
:103A90009C890DD08A839B834B895C8960E070E0B0
:103AA0000E9433017894DF91CF911F9108950F9375
:103AB0001F93CF93DF93BC018230910510F462E035
:103AC00070E0E0910F0AF091100A40E050E0A0E0B1
:103AD000B0E024C08081918186179707D0F08617C7
:103AE000970771F482819381109729F013969C9324
:103AF0008E9312972CC09093100A80930F0A27C0C0
:103B00004115510519F08417950718F48D01AC0182
:103B1000EF01DF01828193819C01F9013097D1F699
:103B200041155105F9F0CA01861B970B84309105A8
:103B300080F48A819B810115110521F0F80193839E
:103B4000828304C09093100A80930F0AFE0132967C
:103B500045C0FE01E80FF91F6193719302979983A5
:103B600088833CC080910D0A90910E0A892B41F404
:103B700080916B0490916C0490930E0A80930D0ACF
:103B800040916D0450916E044115510541F44DB7BB
:103B90005EB78091690490916A04481B590B20918B
:103BA0000D0A30910E0A24173507B0F4CA01821BA2
:103BB000930B8617970780F0AB014E5F5F4F84171A
:103BC000950750F0420F531F50930E0A40930D0A71
:103BD000F9016193719302C0E0E0F0E0CF01DF9161
:103BE000CF911F910F910895CF93DF939C01009780
:103BF00009F48FC0EC0122971B821A8260910F0A90
:103C00007091100A6115710581F488819981820F84
:103C1000931F20910D0A30910E0A2817390739F5A4
:103C2000D0930E0AC0930D0A74C0DB0140E050E04F
:103C3000AC17BD0708F1BB83AA83FE012191319126
:103C4000E20FF31FAE17BF0779F48D919C91119786
:103C5000280F391F2E5F3F4F3983288312968D918D
:103C60009C9113979B838A834115510571F4D093DE
:103C7000100AC0930F0A4DC012968D919C91139714
:103C8000AD01009711F0DC01D3CFDA011396DC937C
:103C9000CE931297FA0121913191E20FF31FCE17C3
:103CA000DF0769F488819981280F391F2E5F3F4F04
:103CB000FA01318320838A819B8193838283E0E0B0
:103CC000F0E0DB0112968D919C911397009719F00B
:103CD000BC01FD01F6CFAB014E5F5F4FDB018D9163
:103CE0009C91840F951F20910D0A30910E0A281780
:103CF000390779F4309729F41092100A10920F0ABC
:103D000002C0138212824250504050930E0A4093D8
:103D10000D0ADF91CF9108951F920F920FB60F9267
:103D200011242F933F938F939F93AF93BF938091D1
:103D3000080A9091090AA0910A0AB0910B0A3091E1
:103D40000C0A0196A11DB11D232F2D5F2D3720F0E8
:103D50002D570196A11DB11D20930C0A8093080ACE
:103D60009093090AA0930A0AB0930B0A8091040A5F
:103D70009091050AA091060AB091070A0196A11D2B
:103D8000B11D8093040A9093050AA093060AB0938C
:103D9000070ABF91AF919F918F913F912F910F9003
:103DA0000FBE0F901F9018959B01AC017FB7F89440
:103DB0008091040A9091050AA091060AB091070A21
:103DC00066B5A89B05C06F3F19F00196A11DB11DF6
:103DD0007FBFBA2FA92F982F8827860F911DA11D6D
:103DE000B11D62E0880F991FAA1FBB1F6A95D1F70A
:103DF000BC012DC0FFB7F8948091040A9091050A88
:103E0000A091060AB091070AE6B5A89B05C0EF3F4E
:103E100019F00196A11DB11DFFBFBA2FA92F982F30
:103E200088278E0F911DA11DB11DE2E0880F991FFB
:103E3000AA1FBB1FEA95D1F7861B970B885E93409C
:103E4000C8F2215030404040504068517C4F21150D
:103E500031054105510571F60895019739F0880F34
:103E6000991F880F991F02970197F1F70895789489
:103E700084B5826084BD84B5816084BD85B582606F
:103E800085BD85B5816085BDEEE6F0E0808181600D
:103E90008083E1E8F0E0108280818260808380810D
:103EA00081608083E0E8F0E0808181608083E1EBE5
:103EB000F0E0808184608083E0EBF0E080818160CD
:103EC0008083E1E9F0E0808182608083808181608D
:103ED0008083E0E9F0E0808181608083E1EAF0E0C6
:103EE000808182608083808181608083E0EAF0E06D
:103EF000808181608083E1E2F1E080818260808363
:103F0000808181608083E0E2F1E080818160808354
:103F1000EAE7F0E080818460808380818260808332
:103F20008081816080838081806880831092C1005D
:103F30000895382F863308F0365320917B00832F65
:103F400086958695869590E08170907043E0880F05
:103F5000991F4A95E1F7277F282B20937B00377024
:103F600080916F048295880F880F807C832B8093CB
:103F70007C0080917A00806480937A0080917A003E
:103F800086FDFCCF2091780040917900942F80E04D
:103F900030E0282B392BC90108951F93CF93DF936D
:103FA000182FEB0161E0D7D0209709F4CAC0CF3FAA
:103FB000D10509F4C9C0E12FF0E0E254FE4F84912D
:103FC000893009F466C08A30B0F48430F1F185306C
:103FD00040F4823059F1833070F5813009F0AEC081
:103FE00020C0873009F443C0883008F048C08630CC
:103FF00009F0A4C034C08D3009F478C08E3038F494
:104000008B3009F45AC08C3008F066C04CC0803147
:1040100009F480C0813109F487C08F3009F08EC067
:104020006FC084B5806884BDC7BD91C084B580620F
:1040300084BDC8BD8CC08091800080688093800062
:10404000D0938900C093880082C0809180008062F4
:1040500080938000D0938B00C0938A0078C08091B9
:10406000B00080688093B000C093B30070C08091AE
:10407000B00080628093B000C093B40068C08091AB
:104080009000806880939000D0939900C09398002E
:104090005EC080919000806280939000D0939B00DE
:1040A000C0939A0054C080919000886080939000E3
:1040B000D0939D00C0939C004AC08091A00080686E
:1040C0008093A0008091A0008F7B8093A000D0936C
:1040D000A900C093A8003BC08091A000806280939B
:1040E000A000D093AB00C093AA0031C08091A00083
:1040F00088608093A000D093AD00C093AC0027C02F
:1041000080912001806880932001D0932901C09381
:1041100028011DC080912001806280932001D093EE
:104120002B01C0932A0113C08091200188608093E5
:104130002001D0932D01C0932C0109C0C038D105B6
:104140001CF4812F60E002C0812F61E0B7D0DF91C5
:10415000CF911F910895CF93DF93482F50E0CA016C
:1041600088589E4FFC0134914E5C5E4FFA01849159
:10417000882369F190E0880F991FFC01EC51FF4FF3
:10418000A591B491FC01E250FF4FC591D4916623F3
:1041900051F42FB7F8948C91932F909589238C9399
:1041A000888189230BC0623061F42FB7F8948C9119
:1041B000932F909589238C938881832B88832FBF9D
:1041C00006C09FB7F8948C91832B8C939FBFDF918F
:1041D000CF910895893009F449C08A30A0F4843021
:1041E00051F1853040F4823079F1833000F581302F
:1041F00009F063C026C0873079F1883098F58630A1
:1042000009F05BC025C08D3009F442C08E3028F41F
:104210008B30B1F18C30C0F52DC0803109F442C033
:10422000813109F445C08F3009F047C037C0809113
:1042300080008F7703C0809180008F7D8093800005
:10424000089584B58F7702C084B58F7D84BD0895AD
:104250008091B0008F7703C08091B0008F7D8093F4
:10426000B0000895809190008F7707C080919000F2
:104270008F7D03C080919000877F80939000089588
:104280008091A0008F7707C08091A0008F7D03C030
:104290008091A000877F8093A000089580912001E5
:1042A0008F7703C0809120018F7D80932001089536
:1042B00080912001877F809320010895FF920F93C2
:1042C0001F93F62E482F50E0CA0182549E4FFC01E6
:1042D0002491CA0188589E4FFC0114914E5C5E4F98
:1042E000FA0104910023C1F0222311F0822F72DF22
:1042F000E02FF0E0EE0FFF1FE250FF4FA591B491C9
:104300009FB7F894FF2021F48C911095812302C06F
:104310008C91812B8C939FBF1F910F91FF900895DB
:104320000F931F93482F50E0CA0182549E4FFC0107
:104330002491CA0188589E4FFC0104914E5C5E4F47
:10434000FA011491112319F420E030E014C0222363
:1043500011F0822F3FDF812F90E0880F991F885E38
:104360009E4FFC01A591B4918C9120E030E0802318
:1043700011F021E030E0C9011F910F9108950895D7
:10438000CF93DF9374DDFBDF0E941516C0E0D0E011
:104390000E940C162097E1F30E940000F9CF0895C7
:1043A000CF92DF92EF92FF920F931F93CF93DF9301
:1043B0007C016B018A01C0E0D0E00FC0D6016D9195
:1043C0006D01D701ED91FC910190F081E02DC701C5
:1043D0001995C80FD91F015010400115110571F72B
:1043E000CE01DF91CF911F910F91FF90EF90DF9061
:1043F000CF900895CF93DF93EC016115710519F407
:1044000020E030E00FC0DB010D900020E9F71197AC
:10441000A61BB70BE881F9810280F381E02DAD0185
:1044200019959C01C901DF91CF9108954F925F9238
:104430007F928F929F92AF92BF92CF92DF92EF9234
:10444000FF920F931F93DF93CF93CDB7DEB7A19762
:104450000FB6F894DEBF0FBECDBF2C01742ECB017A
:10446000223008F42AE019A231E2C32ED12CCC0E5E
:10447000DD1E822E9924AA24BB24672D752FA50149
:104480009401D7D079018A01C801B701A50194012F
:104490009ED0472D461B0894C108D1084A3014F419
:1044A000405D01C0495CF6014083E114F10401055F
:1044B000110521F07E2C5F2DC801DFCFC201B601AE
:1044C00099DFA1960FB6F894DEBF0FBECDBFCF9196
:1044D000DF911F910F91FF90EF90DF90CF90BF90F1
:1044E000AF909F908F907F905F904F900895DC01E8
:1044F0002115310541F4ED91FC910190F081E02D01
:10450000642F1995089592CFEF92FF920F931F9306
:104510009A01E62EFF2400E010E0B801A701E7DFD2
:104520001F910F91FF90EF900895CF92DF92EF923D
:10453000FF920F931F93CF93DF93EC016A017B01EE
:104540002115310541F4E881F9810190F081E02DD8
:10455000642F19951DC02A303105C9F477FF16C0A4
:10456000E881F9810190F081E02D6DE219958C01CF
:1045700044275527BA014C195D096E097F09CE0100
:104580002AE054DF9801280F391F03C02AE04EDFCC
:104590009C01C901DF91CF911F910F91FF90EF9086
:1045A000DF90CF900895EF92FF920F931F937B01BE
:1045B0009A010027F7FC0095102FB801A701B5DF7D
:1045C0001F910F91FF90EF90089514CF0895629F6F
:1045D000D001739FF001829FE00DF11D649FE00DFB
:1045E000F11D929FF00D839FF00D749FF00D659F5C
:1045F000F00D9927729FB00DE11DF91F639FB00D5B
:10460000E11DF91FBD01CF011124089597FB092E6B
:1046100007260AD077FD04D02ED006D000201AF449
:10462000709561957F4F0895F6F7909581959F4F0E
:104630000895A1E21A2EAA1BBB1BFD010DC0AA1FE3
:10464000BB1FEE1FFF1FA217B307E407F50720F0FB
:10465000A21BB30BE40BF50B661F771F881F991F76
:104660001A9469F760957095809590959B01AC01BF
:10467000BD01CF010895AA1BBB1B51E107C0AA1FB2
:10468000BB1FA617B70710F0A61BB70B881F991FF3
:104690005A95A9F780959095BC01CD010895EE0F2C
:0E46A000FF1F0590F491E02D1994F894FFCFC0
:1046AE00303030006100202020005F5F5F004D65DC
:1046BE006D6F727920456D70746965642100687440
:1046CE0074703A2F2F676F6F2E676C2F6B64596C57
:1046DE006A370041726475696E6F20444D582D35EE
:1046EE00313200546573746572202620436F6E74E8
:1046FE00726F6C6C6572004669726D2076002E00CA
:10470E00486172642076004D656D6F7279204C6F32
:10471E006164656421003E002B002D2D2D002D00BF
:10472E0020004D656D6F727920436C65616E656416
:10473E0021004D656D6F727920536176656421009D
:10474E004D656D6F7279204F7074696F6E733A009C
:10475E0053617665004C6F616400456D707479002D
:10476E00436C6561720043616E63656C004C43443B
:10477E0020436F6E6669673A0041626F757400423E
:10478E0061636B204C696768743A00436F6E747294
:10479E006173743A0064696D6D657220302D323527
:1047AE0035004374726C00436F6E74726F6C204FE1
:1047BE007074696F6E733A00556E69746172790028
:1047CE004D617472697800436861736572004D754E
:1047DE006C7469706C7900436F6E666967004D6525
:1047EE006D6F727900432D2D2D204D656D20437414
:1047FE0072202020202D00556E697461727920433D
:10480E006F6E74726F6C3A004368616E6E656C3ACF
:10481E00203030310056616C75653A004368617323
:10482E0065724348202D2D2D0044656C6179202042
:10483E0020207831303D6D530046697273742043E9
:10484E0048202020202020204374726C0046696E80
:10485E00616C204348202020202020205374617258
:10486E00740053746F70200053746172740056613B
:10487E006C756500466972737420434820202020B1
:10488E0020204374726C004D756C7469706C7920C5
:10489E0020202020204D656D6F7279005175616E5C
:1048AE00746974792020202020204170706C79006A
:1048BE004572726F722120002020202020202000BF
:1048CE004F6B2100496E697469616C204D656D6F87
:1048DE0072793A000200010033002D0035003100DC
:1048EE002F002400220020001E002C002A00280089
:1048FE00260011640000004500080009000A000BA4
:10490E00000C000D00030004008000110A000001DD
:10491E0000000000F916D0210A17A816A916CF21FB
:10492E00004010500040145400000000F916D02131
:10493E000A176A188C18B917000000007019401970
:08494E00F918021917192819C4
:00000001FF
